:100000000C9437070C945F070C945F070C945F0700
:100010000C945F070C945F070C945F070C945F07C8
:100020000C945F070C945F070C942C100C949B109D
:100030000C945F070C945F070C945F070C945F07A8
:100040000C945F070C94DE130C945F070C945F070D
:100050000C945F070C945F070C945F070C94CD120F
:100060000C945F070C945F070C945F070C945F0778
:100070000C945F070C945F070C945F070C945F0768
:100080000C9417130C945F070C945F070C945F0794
:100090000C945F070C945F070C945F070C945F0748
:1000A0000C945F070C945F070C945F0748250B10B6
:1000B00038DC0E6FEFEF0F8F5F3E1C00011D1F0736
:1000C000070F1D10000048180B10385C9E1EDFDF64
:1000D000DF9E9E5C380000000D0F0703070E08002E
:1000E0004C0F0B101C1E2E4FEF6FEFEEAE9C00005E
:1000F00000000000010103070101570C071000B0C8
:10010000F0F88C8703010101010000005D0E060874
:10011000080B1F1F0C0832240C10307C9E1E8FCF42
:10012000CF8F1F9E5C380000003B3F0F0F3D330018
:10013000000035180C10387C5E9F9F0F4FEFEECEFD
:100140001CF80000000000050F07071F19003C0FF6
:1001500009103C3E5F4FCFE7E77E4C0000020101F3
:10016000010303024608081000E0D09C5E3F1F0315
:10017000060F1F1E000000004F0707081C7C781E9A
:100180001E070355080708083C3E0F0F07011E24F1
:100190000C1078BC1E1E9FDFDF9F1E1EBC78000067
:1001A00001121D0F0F1D1A01000024190B1078BC3D
:1001B0009E1E1F9FDEDE9CD870000000010A0A0F01
:1001C0000F0800002B0F0A10383C5E8ECFCF9E5ECA
:1001D0003C180000060707070E060000350508104A
:1001E00060B89C9E3E7F3F0608293F1F1F1A0200F1
:1001F0003E01091000C0A0181CFE1F0F0701030BD1
:100200000F070100000047010908B0A66E3E242632
:1002100007070351010808283B0F1C16130303416D
:1002200028151000003C7EDADE9E8C800000000065
:100230000000000000000000000666771F0F07079F
:10024000070606060606060606060606002C2815FC
:1002500010387CFEDA9E9ECC0000000000000000FA
:1002600000000000000000070707073F3F060606E2
:1002700006060606060606060606001728151038A6
:100280007C7EF6FEFC9C00000000000000000000E8
:1002900000000000000607070707070F1E76660626
:1002A000060606060606060600592D11081F02045A
:1002B000021F001F001715151D001715151D6933A6
:1002C0000A08070F6D777E7C783818085F330A08B4
:1002D000070F6D777E7C7838180855330A08070FAA
:1002E0006D777E7C78381808000000000000000060
:1002F0000000000000FFFFFFFFFFFFFFFFFFFFFF09
:10030000FFFFFFFFFFFFFFFFFFFFFFFFFFFFFFFFFD
:10031000FFFFFFFFFFFFFFFFFFFFFFFFFFFFFFFFED
:10032000FFFFFFFFFFFFFFFFFFFFFFFFFFFFFFFFDD
:10033000FFFFFFFFFFFFFFFFFFFFFFFFFFFFFFFFCD
:10034000FFFFFBFBFBFB3B0F030F1B3B6B6B6B6F61
:100350006F3F0F3F6FEFEFEFEFFFFF000000000078
:10036000000000000000000000000000000000008D
:100370000000000000FFFF5F4F6727372F4F0F8FF0
:100380001F0F1F0F0F0707070F1F1F1F1F2FBFFF75
:10039000FFFFFFFFFFFFFFFFFFFFFFFFFFFFFFFF6D
:1003A000FFFFFFFFFFFFFFFFFFFFFFFFFFFFFFFF5D
:1003B000FFFFFFFFFFFFFFFFFFFFFFFFFFFFFFFF4D
:1003C000FFFFFFFFFFFFF8F0E0E08086E6E0E6E6F3
:1003D000E0E08383E2E0E1F3FFFFFF0000000000C4
:1003E000000000000000000000000000000000000D
:1003F0000000000000FFF9FD3098C8E4F4F8FEFFAB
:10040000F8FEFFFFFCFEFFFEFFFEFCF9FAFEFDFF1B
:10041000FFFFFFFFFFFFFFFFFFFFFFFFFFFFFFFFEC
:10042000FFFFFFFFFFFFFFFFFFFFFFFFFFFFFFFFDC
:10043000FFFFFFFFFFFFFFFFFFFFFFFFFFFFFFFFCC
:10044000FFFFFF7F7F7F3F3F3F3F3F3F1F1F1F3F1C
:100450002F0F071F0F0F1F9FCFFFFF00000000008F
:10046000000000000000000000000000000000008C
:1004700000000000000F03F0FCFFFFFFFFFFFFFF85
:10048000FFFFFFFFFFFFFFFFFFFFFFFFFFFFFFFF7C
:10049000FFFFFFFFFFFFFFFFFFFFFFFFFFFFFFFF6C
:1004A000FFFFFFFFFFFFFFFFFFFFFFFFFFFFFFFF5C
:1004B000FFFFFFFFFFFFFFFFFFFFFFFFFFFFFFFF4C
:1004C000FFFFFEFCFEF9F8FCFEFCFCFEF2D0E08033
:1004D00000D6FCF8E2C60E3EFDFFFF000000000063
:1004E000000000000000000000000000000000000C
:1004F0000000000000A050A953AB53AB57A7578F83
:10050000FFFFFFFFFFFFFFFFFFFFFFFFFFFFFFFFFB
:10051000FFFFFFFFFFFFFFFFFFFFFFFFFFFFFFFFEB
:10052000FFFFFFFFFFFFFFFFFFFFFFFFFFFFFFFFDB
:10053000FFFFFFFFFFFFFFFFFFFFFFFFFFFFFFFFCB
:10054000FFFFFFFFFFFFFFFFFFFFFFFFFFFF7FBF7B
:100550005FAF4FAF57A757A040A3030000000000B4
:10056000000000000000000000000000000000008B
:100570000000000000020102010001C0F0FCFFFFCA
:10058000FFFFFFFFFFFFFFFFFFFFFFFFFFFFFFFF7B
:10059000FFFFFFFFFFFFFFFFFFFFFFFFFFFFFFFF6B
:1005A000FFFFFFFFFFFFFFFFFFFFFFFFFFFFFFFF5B
:1005B000FFFFFFFFFFFFFFFFFFFFFFFFFFFFFFFF4B
:1005C000FFFFFFFFFFFFFFFFFFFFFFFFFFF8F9F84F
:1005D000FDFCF9F2F5C20502050200000000000072
:1005E000000000000000000000000000000000000B
:1005F000000000000074545454545C5FD7575757A0
:100600007F7FFBDBDFD7F7F7FFFFF7777777F7F72A
:10061000F7FFFFFFFFFFF7F7F7F7F7FFFFFFF7F72A
:10062000F7777F7F7B7B7B7BFBFFFFFFF7777F7F0E
:100630007F7F7777F7F7FFFFFFFFFFFFFBFBFBFBFA
:10064000BBBBBBBFBFFFF7F7F7F7F7FFFF7F7777BE
:100650007FDFDF5F5F5777545C5CDC0000000000E9
:10066000000000000000000000000000000000008A
:100670000000000000F7B5B5B5B5B5BFBFFBFBFB8B
:10068000BBBBBFFFFFFFFFF7F7F7F7F7F7F7FFFF7A
:10069000FFFFFEDEDEDEDEDEDEDEDFFFFFFFFFF77A
:1006A000F7F7F7F7FFFFFFFFFFFFFFF7F7F7F7F7A2
:1006B000F7F7FFFFFFFFFFFEFEFEFEEEEFEFEFEFAF
:1006C000EFEFFFFFFDFDFDFDFFFFEFEFEFEFEFEDC4
:1006D000EDEDFDBDB5B7B7B7B7F7F7000000000007
:1006E000000000000000000000000000003E5B4F22
:1006F0005B3E3E6B4F6B3E1C3E7C3E1C183C7E3C82
:10070000181C577D571C1C5E7F5E1C00183C18008F
:10071000FFE7C3E7FF0018241800FFE7DBE7FF301F
:10072000483A060E2629792926407F050507407F8D
:1007300005253F5A3CE73C5A7F3E1C1C08081C1C00
:100740003E7F14227F22145F5F005F5F06097F01F6
:100750007F006689956A606060606094A2FFA294E1
:1007600008047E040810207E201008082A1C0808AF
:100770001C2A08081E101010100C1E0C1E0C3038FD
:100780003E3830060E3E0E06000000000000005FFE
:1007900000000007000700147F147F14242A7F2A1A
:1007A00012231308646236495620500008070300DC
:1007B000001C2241000041221C002A1C7F1C2A0828
:1007C000083E08080080703000080808080800008B
:1007D00060600020100804023E5149453E00427FFF
:1007E000400072494949462141494D331814127F4E
:1007F0001027454545393C4A4949314121110907EE
:100800003649494936464949291E0000140000006E
:100810004034000000081422411414141414004140
:1008200022140802015909063E415D594E7C1211FD
:10083000127C7F494949363E414141227F41414135
:100840003E7F494949417F090909013E41415173B0
:100850007F0808087F00417F41002040413F017F21
:10086000081422417F404040407F021C027F7F04E9
:1008700008107F3E4141413E7F090909063E415132
:10088000215E7F09192946264949493203017F0122
:10089000033F4040403F1F2040201F3F4038403F23
:1008A000631408146303047804036159494D430039
:1008B0007F4141410204081020004141417F040270
:1008C0000102044040404040000307080020545407
:1008D00078407F28444438384444442838444428E5
:1008E0007F385454541800087E090218A4A49C7838
:1008F0007F0804047800447D40002040403D007F94
:100900001028440000417F40007C047804787C0873
:100910000404783844444438FC1824241818242447
:1009200018FC7C08040408485454542404043F442C
:10093000243C4040207C1C2040201C3C4030403C5B
:1009400044281028444C9090907C4464544C4400BB
:10095000083641000000770000004136080002011F
:100960000204023C2623263C1EA1A161123A40400B
:10097000207A385454555921555579412154547889
:1009800041215554784020545579400C1E52721222
:1009900039555555593954545459395554545800AA
:1009A00000457C410002457D420001457C40F02924
:1009B0002429F0F0282528F07C5455450020545473
:1009C0007C547C0A097F49324949493232484848B7
:1009D00032324A4848303A4141217A3A42402078FE
:1009E000009DA0A07D39444444393D4040403D3CF9
:1009F00024FF2424487E4943662B2FFC2F2BFF091C
:100A000029F620C0887E090320545479410000440F
:100A10007D413048484A32384040227A007A0A0AFA
:100A2000727D0D19317D2629292F2826292929266D
:100A300030484D4020380808080808080808382FB2
:100A400010C8ACBA2F102834FA00007B000008143C
:100A50002A142222142A14089500220095AA00556F
:100A600000AAAA55AA55AA000000FF00101010FF06
:100A700000141414FF001010FF00FF1010F010F00D
:100A8000141414FC001414F700FF0000FF00FF14FE
:100A900014F404FC141417101F10101F101F14144A
:100AA000141F00101010F0000000001F1010101094
:100AB0001F10101010F010000000FF101010101088
:100AC00010101010FF10000000FF140000FF00FFC6
:100AD00000001F10170000FC04F414141710171462
:100AE00014F404F40000FF00F71414141414141484
:100AF000F700F7141414171410101F101F141414F7
:100B0000F4141010F010F000001F101F0000001F60
:100B100014000000FC140000F010F01010FF10FF93
:100B2000141414FF141010101F00000000F010FF28
:100B3000FFFFFFFFF0F0F0F0F0FFFFFF000000000C
:100B400000FFFF0F0F0F0F0F38444438447C2A2A50
:100B50003E147E02020606027E027E026355494171
:100B6000633844443C04407E201E2006027E02027C
:100B700099A5E7A5991C2A492A1C4C7201724C3090
:100B80004A4D4D303048784830BC625A463D3E4967
:100B90004949007E0101017E2A2A2A2A2A44445F0B
:100BA000444440514A444040444A51400000FF01FF
:100BB00003E080FF000008086B6B0836123624360D
:100BC000060F090F06000018180000001010003072
:100BD00040FF0101001F01011E00191D1712003CFA
:100BE0003C3C3C00000000000601150126013701D5
:100BF0004A015D01720188019F01B801D201EE0135
:100C00000B022A024B026E029302BA02E4021003A4
:100C10003F037003A403DC03170455049704DD04A9
:100C200027057505C80520067D06E0064907B807B3
:100C30002D08A9082D09B9094D0AEA0A900B400CA4
:100C4000FA0CC00D910E6F0F5A1053115B127213F4
:100C50009A14D41520178018F519801B231DDE1E49
:100C6000B420A622B524E4263429A72B402E003137
:100C7000EA330037453ABC3D68414C456B49C84DA5
:100C800068524F57805C0062101112131516171826
:100C90001A1C1D1F21232527292C2E3134373A3EBB
:100CA0004145494E52575C62686E757B838B939CBD
:100CB000A5AFB9C4D0DCE9F70000000200090F00BD
:100CC00000030401000C0000000000000000000010
:100CD0000000000000000000000000000000000014
:100CE0000018BCFEC6C2C2C6FE3C00FCFEC6C2C2A4
:100CF000C6FE3C0000D8C8002070F8F8202000F89C
:100D0000FCFEF67E3E3C3800F8FCFEC6C2C2C6FEC3
:100D1000FC00FEFEFE0606060CFCF000FCFEC6C251
:100D2000C2020000000000000000000000000000FF
:100D30000000000000000000000E1F1F101010191E
:100D40001F0E001F1F181010101D1F06001F1F0070
:100D500000001F1F1808000F1F1F1F1E1E1E0C0063
:100D60000F1F1F000000001F1F001F1F1F18181853
:100D70001C0F03001F1F10101010000000000000C7
:100D80000000000000000000000000240027002AEE
:100D9000002D0030008D14A1C881CFD9F102AF140D
:100DA00002130212021502070208020401010102E5
:100DB0000100080B00020202000009040000010209
:100DC0000200000524001001052401010104240291
:100DD00006052406000107058103100040090401EF
:100DE00000020A0000000705020240000007058318
:100DF000024000000403090412010002EF02014056
:100E00004123368000010102030141726475696E5D
:100E10006F204C4C430041424131313036000408D0
:100E200002011040804010204080408008020401F0
:100E3000804020100201108010204040200000005F
:100E400000250028002B002E0031000404040404B7
:100E5000030405020202020403020202020606065D
:100E600006060604040202020404030149141124C4
:100E70001FBECFEFDAE0DEBFCDBF11E0A0E0B1E0F2
:100E8000E2EDF3E302C005900D92A43CB107D9F75F
:100E900026E0A4ECB1E001C01D92A137B207E1F752
:100EA00017E0C7E3D7E004C02197FE010E94DC19D8
:100EB000C633D107C9F70E947C140C94E7190C942F
:100EC00000001092060210921F0110921E01EEE027
:100ED000F1E080E08F5F81938031E1F710921D0196
:100EE0001092050210920D0182E080930C01109285
:100EF00004020895FC018091FC01882311F13FB7A1
:100F0000F89482E08093E9002091F200822F90E033
:100F10001816190614F481E090E0882339F0289817
:100F200044E64093FB014091F1004083222339F0D5
:100F30002091F200211103C02BE62093E8003FBF6F
:100F400008958FEF9FEF08952FB7F89483E0809373
:100F5000E9009091E800892F807295FF04C090917C
:100F6000F20080E4891B2FBF08958091F301811165
:100F70000DC082E08093EF0184E08093F001109235
:100F8000F2011092F10181E08093F3018FEE91E084
:100F90000895CF93DF931F92CDB7DEB76983DC014D
:100FA000ED91FC910280F381E02D41E050E0BE0123
:100FB0006F5F7F4F09950F90DF91CF91089583E088
:100FC0008093E9008091F200882319F08AE38093EE
:100FD000E80008950E94A40790E00895CF93DF935E
:100FE0001F92CDB7DEB7FC018485958597FD08C0BB
:100FF0002FEF3FEF358724870F90DF91CF91089532
:10100000CE0101960E947A07019719F4898190E038
:10101000F3CF8FEF9FEFF0CF0F931F93CF93DF931B
:101020001F92CDB7DEB78C01FC018485958597FFB3
:101030000BC0CE0101960E947A07019771F4898155
:1010400090E0F80195878487F801848595850F9055
:10105000DF91CF911F910F9108958FEF9FEFF1CF07
:10106000FC018485958597FD0BC09FB7F89482E0BD
:101070008093E9008091F2009FBF90E0019608956F
:101080009FB7F89482E08093E9008091F2009FBFBF
:1010900090E008954091E9015091EA012091E70123
:1010A0003091E80142175307B4F49091E80095702D
:1010B000E1F39091E80092FD19C08093F1008091D6
:1010C000E9019091EA0101968F739927892B19F410
:1010D0008EEF8093E8008091E9019091EA010196FA
:1010E0009093EA018093E90181E0089580E00895FA
:1010F000EF92FF920F931F93CF93DF93F82E192F48
:10110000E62E042F81E0860F880F0E944A0883E0B4
:101110000E944A08CF2DD12FEC0EFD2EF11CCE15CA
:10112000DF05B9F007FF13C0FE0184910E944A0851
:10113000182F80E00E944A08812321968111EFCF69
:10114000DF91CF911F910F91FF90EF9008958881CB
:10115000EDCF81E0F5CFDF92EF92FF920F931F93D7
:10116000CF93DF93D82E8A01EB017B01E40EF51EAD
:10117000CE15DF0559F0D7FE12C0FE0184910E9402
:101180004A0821968111F4CF0FEF1FEFC801DF91BC
:10119000CF911F910F91FF90EF90DF90089588817C
:1011A000EECF0F931F93CF93DF931F92CDB7DEB790
:1011B00082E0898342E450E062EB7DE080E80E94B7
:1011C000AB080E94B507DC0112960D911C91011528
:1011D000110589F0D801ED91FC910280F381E02D99
:1011E000BE016F5F7F4FC801099597FD04C0F801EC
:1011F00000851185ECCF89810F90DF91CF911F91F0
:101200000F910895615030F02091F100FC0120838E
:101210000196F8CF289884E68093FB010895AF9259
:10122000BF92CF92DF92EF92FF920F931F93CF93D3
:10123000DF936C017B018B01040F151FEB015E0135
:10124000AE18BF08C017D10759F06991D601ED91CA
:10125000FC910190F081E02DC6010995892B79F769
:10126000C501DF91CF911F910F91FF90EF90DF901B
:10127000CF90BF90AF900895282F30E0F901E85447
:10128000F34F9491F901E25EF14F8491255B314F68
:10129000F9012491222309F430C09923E9F09150F7
:1012A0009F30D0F4E92FF0E0E85AF64F0C94DC19A7
:1012B00086098A0967097E0982096C096C096C092B
:1012C0008D09930997099B09A1096C09A5099091BA
:1012D00080009F7790938000E22FF0E0EE0FFF1FD9
:1012E000E35CF14FA591B4919FB7F894EC91611133
:1012F00032C080958E238C939FBF0895909180007B
:101300009F7DE8CF90918000977FE4CF94B59F7741
:1013100094BDE2CF94B59F7DFBCF909190009F77D5
:1013200090939000D9CF909190009F7DF9CF9091AC
:101330009000977FF5CF9091C0009F779093C00069
:10134000CBCF9091C0009F7DF9CF9091C200977F45
:101350009093C200C1CF8E2BCECFCF93DF9390E07E
:10136000FC01E25EF14F2491855B914FFC01849179
:101370008823C9F090E0880F991FFC01E957F24FCC
:10138000A591B491FC01E35CF14FC591D491611139
:101390000DC09FB7F8948C91209582238C938881FF
:1013A000282328839FBFDF91CF910895623051F4A5
:1013B0009FB7F8943C91822F809583238C93E8818A
:1013C0002E2BEFCF8FB7F894EC912E2B2C938FBF51
:1013D000EACF1F93CF93DF93182FEB0161E00E94B8
:1013E000AD09209739F460E0812FDF91CF911F91F3
:1013F0000C943C09CF3FD10511F461E0F5CFE12F0A
:10140000F0E0E854F34FE491E150EF3008F07FC092
:10141000F0E0E35FF54F0C94DC191C0A240A290A5A
:10142000330A3D0A870A870A870A470A510A5B0A74
:10143000650A720A870A7A0A84B5806884BDC7BDC6
:10144000DF91CF911F91089584B5806284BDC8BD9E
:10145000F7CF80918000806880938000D0938900CE
:10146000C0938800EDCF80918000806280938000DF
:10147000D0938B00C0938A00E3CF80918000886076
:1014800080938000D0938D00C0938C00D9CF809141
:101490009000806880939000D0939900C09398004A
:1014A000CFCF80919000806280939000D0939B007A
:1014B000C0939A00C5CF809190008860809390007F
:1014C000D0939D00C0939C00BBCF8091C0008068EA
:1014D0008093C0008091C0008F7B8093C000C09338
:1014E000CF00AECF8091C00080628093C000C093D7
:1014F000D000A6CF8091C20088608093C200809106
:10150000C2008B7F8093C200C093D20099CFC038B5
:10151000D1050CF072CF67CF3FB7F8948091CE0120
:101520009091CF01A091D001B091D10126B5A89B97
:1015300005C02F3F19F00196A11DB11D3FBFBA2F65
:10154000A92F982F8827BC01CD01620F711D811D25
:10155000911D42E0660F771F881F991F4A95D1F7AA
:1015600008958F929F92AF92BF92CF92DF92EF92A7
:10157000FF924B015C010E948C0A6B017C010E946E
:101580008C0A6C197D098E099F09683E734081059C
:101590009105A8F321E0821A9108A108B10888EE0C
:1015A000C80E83E0D81EE11CF11C81149104A10433
:1015B000B10429F7FF90EF90DF90CF90BF90AF90EC
:1015C0009F908F9008958F929F92AF92BF92CF92EB
:1015D000DF92EF92FF920F931F93CF93DF936C01F3
:1015E0007B018A0180910B01882309F45CC0809102
:1015F000FC01882309F457C08091EE0180FF05C0EB
:101600008091E00082608093E000E801B12C8AEFD5
:10161000A82E93E0892E2AE3922E209711F4BB2066
:10162000D9F10E94A40781110AC0AA94AA20D9F175
:1016300061E070E080E090E00E94B10AEECF8C178C
:101640001D0611F00CF08C2F9FB7F8948092E900E2
:101650002091E80025FD02C09FBFDFCF282F30E09A
:10166000C21BD30BF701815020F041914093F10050
:10167000FACFE20EF31EBB2021F09092E800B12CCD
:10168000EBCF8091E80085FDE7CF9092E800BB2486
:10169000B394209709F3F3CF5D9884E68093ED012E
:1016A000101611063CF081E090E0F60193838283EE
:1016B00010E000E0C801DF91CF911F910F91FF90E2
:1016C000EF90DF90CF90BF90AF909F908F90089554
:1016D0008FB18095807F669B88601C9B8460089595
:1016E000E091D501F091D60190818091D40180954F
:1016F0008923808308950F931F93CF93DF93182F2F
:10170000D92FC0EB00E10E94700BCEBD0DB407FED7
:10171000FDCF0EBD0DB407FEFDCFE091D501F091D8
:10172000D60180819091D401892B8083E12FFD2FF8
:10173000CF0180589F4F21912EBD0DB407FEFDCFE4
:101740008E179F07C1F7182FD92FCF5FC83BD9F647
:10175000DF91CF911F910F910895CF92DF92EF9279
:10176000FF920F931F93CF93E82FF0E0E659F14FCC
:10177000C491E62FF0E0603398F5E857F34FE49119
:101780000E2F10E0F12CE12C60E074E284EF90E089
:10179000A70198010E9451192150310941095109AD
:1017A00091E02115310581E0480751056CF060E9B1
:1017B00070ED83E090E0A70198010E94511921503B
:1017C00031094109510993E0C13089F0C330F9F082
:1017D000CF911F910F91FF90EF90DF90CF900895E0
:1017E000EE0FFF1FE857F44F05911491CBCF809176
:1017F0008100887F892B809381003093890020931A
:10180000880080916F00826080936F00E1CF8091AB
:101810009100887F892B80939100309399002093C9
:1018200098001093CC010093CB0181E08093CA0112
:1018300080917100826080937100CACFE82FF0E040
:10184000E659F14FE491E13019F0E33089F0089561
:1018500080916F008D7F80936F0080910002E091F6
:101860000102F0910202908180958923808308957E
:101870001092CA018091FD01E091FE01F091FF01FB
:10188000F2CFCF93DF9390910302923081F0C82F73
:10189000E92FF0E0E659F14FD4919F5F9093030256
:1018A00061E00E94AD09D13029F0D33049F1DF91D8
:1018B000CF91089510928000109281008091810054
:1018C0008860809381008091810081608093810095
:1018D0008C2F90E0FC01E55BF14FE491F0E0EE0F1E
:1018E000FF1FE35CF14F2591349130930202209366
:1018F0000102825E914FFC01849180930002D7CF58
:1019000010929000109291008091910088608093D5
:101910009100809191008160809391008C2F90E0E4
:10192000FC01E55BF14FE491F0E0EE0FFF1FE35C9B
:10193000F14F259134913093FF012093FE01825E97
:10194000914FFC0184918093FD01809103028823D3
:1019500021F06CE380E00E94AD0B80E0DF91CF913D
:101960000C941E0C2F923F924F925F926F927F9237
:101970008F929F92AF92BF92CF92EF92FF920F936E
:101980001F93CF93DF9300D000D0CDB7DEB72C01EB
:1019900035E0CB01C39E800D911D11241816190648
:1019A0000CF07CC08C2C912CC401E3E0880F991FB3
:1019B000EA95E1F7840F951F181619060CF06EC012
:1019C000239F90011124B0E0A0E0C9018851994FF4
:1019D0009A838983E0E0A53029F0E981FA81EA0F52
:1019E000FB1FE4915C834B8318E02E2E312CF02EEC
:1019F000E0FFFE2CF11002C0E016E9F19B01822FFE
:101A0000861B8C15C0F5B12CA12C8A2DAC1480F549
:101A10002038310530F56B807C806A0C7B1C90E4AB
:101A200069167104F0F4EB818E0F86958695869584
:101A3000F0E88F9FC0011124820F931FE7E06E2210
:101A40007724E1E0F0E002C0EE0FFF1F6A94E2F7B6
:101A50003F01F201E80FF91F8489FF2031F0682A65
:101A6000648AFFEFAF1ABF0AD0CF60946822F8CF24
:101A70002F5F3F4FC4CF35942794E22D11508B81B7
:101A80009C81880D991D9C838B831111AECF11967B
:101A9000680D791DA630B10509F09CCF0F900F900D
:101AA0000F900F90DF91CF911F910F91FF90EF90CA
:101AB000CF90BF90AF909F908F907F906F905F90EE
:101AC0004F903F902F9008958F929F92AF92BF9228
:101AD000CF92EF920F93CF93DF936A3001F5FC0121
:101AE000EA5EFB4FDC01A85EBB4F2C9148E0249FCF
:101AF0009001112440815181240F351F31832083AF
:101B0000EC01CC5EDB4F19821882DF91CF910F91EF
:101B1000EF90CF90BF90AF909F908F9008956D30D1
:101B2000A1F3262FEC015C018CEEA81A8BEFB80A0A
:101B3000F50160817181CE01885E9B4F4C01603858
:101B400071056CF4329640815181403451053CF46A
:101B5000FC01C080E12C01E0CE010E94B20CF40136
:101B60002081422F50E0F50180819181F6E02F9F86
:101B7000800D911D1124F50191838083FE01E75EA4
:101B8000FB4F2081222309F26AEF64039001659FD5
:101B9000300D112420583F4F281739070CF0B5CFCE
:101BA000E881F9810190F081E02D6AE0CE01DF91BA
:101BB000CF910F91EF90CF90BF90AF909F908F906B
:101BC0000994089590E080E008952F923F924F92FB
:101BD0005F926F927F928F929F92AF92BF92CF92BD
:101BE000DF92EF92FF920F931F93CF93DF9300D07A
:101BF00000D000D01F92CDB7DEB7FC0133963491F0
:101C00003197449131972491FC01A491A7FD9FC085
:101C1000622F70E0603471050CF099C02770298341
:101C2000A22EB12CF3E075956795FA95E1F77B83C9
:101C30006A83632F669566956695C62ED12C37709C
:101C400019F07FEFC71AD70A50E02A813B81C20EF4
:101C5000D31E6A2F70E07F836E83B9017695762F4D
:101C6000662777956795AE81BF816A0F7B1F1D82BE
:101C70001C82FB01E95AFD4F1F01DB01A952BD4F38
:101C80002D0168E070E0DB01AA19BB09BB83AA83C0
:101C9000C216D30609F45BC02830310509F457C0D9
:101CA0000C811D81020D131D6C807D80640C751CE0
:101CB00070E060E04C01B4E08B0E911C6417750776
:101CC0000CF03AC0EE81FF81E60FF71FE038F10516
:101CD00098F5F401E60FF71FE490F12C0A2C02C0EE
:101CE000EE0CFF1C0A94E2F7E094F094D8015496AD
:101CF000FC905497EF205496EC92B981BB23B9F035
:101D000027303105A1F0E4917301E60EF71EF0E0F3
:101D10000A8002C0F595E7950A94E2F7E095F09500
:101D2000D7015496FC915497EF235496EC936F5F30
:101D30007F4F0F5F1F4FC2CF2F5F3F4F840F951F05
:101D40006C817D8160587F4F7D836C83A1CF279606
:101D50000FB6F894DEBF0FBECDBFDF91CF911F91BC
:101D60000F91FF90EF90DF90CF90BF90AF909F903A
:101D70008F907F906F905F904F903F902F9008953D
:101D80000E94E2196F927F928F929F92AF92BF92C0
:101D9000CF92EF920F931F93CF93DF9300D000D099
:101DA00000D0CDB7DEB740E054E068EE72E08BE6DD
:101DB00092E00E94401990910602892F8370813031
:101DC000C1F118F0833009F066C08091C5028460CB
:101DD0008093C5028091C60284608093C602809180
:101DE000C70284608093C7028091C8028460809398
:101DF000C8028091C90284608093C9028091CD029B
:101E000084608093CD028091CE0284608093CE0264
:101E10008091CF0284608093CF028091D002846051
:101E20008093D0028091D10284608093D10290FD92
:101E300032C08091CF0280618093CF028091D00226
:101E400080618093D0028091D10280618093D10221
:101E50008091D20280618093D2028091D30280610E
:101E60008093D3028091D70280618093D7028091C2
:101E7000D80280618093D8028091D90280618093DA
:101E8000D9028091DA0280618093DA028091DB02CC
:101E900080618093DB0286E0E4E2F1E0DE011196EE
:101EA00001900D928A95E1F78091E60190E0880F0C
:101EB000991F21E030E02C0F3D1F820F931FFC0182
:101EC000808191810E94E50D0EE011E0E7E0BE2ED9
:101ED000F80181918F01982F907C01F190E09C0195
:101EE00046E0359527954A95E1F72150310953E0B1
:101EF000959587955A95E1F7E82FE770B29EC00156
:101F0000B39E900D1124E80FF92FF11DEE0FFF1F66
:101F1000E65DFE4F808191810E94E50DF1E00E317A
:101F20001F07B1F680901E0190901F018AE0A82E35
:101F3000B12CC401B5010E94B4193B0120E3280F64
:101F4000CC24C394EE24E39400E042E050E065E248
:101F500070E087E592E00E94B20CC301B5010E94D7
:101F6000B41920E3280F42E050E06EE170E087E50D
:101F700092E00E94B20CC40164E670E00E94B419C1
:101F8000CB01B5010E94B41920E3280F42E050E0D4
:101F900067E170E087E592E00E94B20CC40168EE50
:101FA00073E00E94B419CB01B5010E94B41920E37B
:101FB000280F42E050E060E170E087E592E00E9487
:101FC000B20C20910402205DE12C01E042E050E0DF
:101FD00062E070E087E592E00E94B20C80910D0112
:101FE000823011F18330E1F0813019F58EEB92E00F
:101FF0000E94E50D89EA92E026960FB6F894DEBFBE
:102000000FBECDBFDF91CF911F910F91EF90CF9079
:10201000BF90AF909F908F907F906F900C94E50D44
:102020008AED92E00E94E50D8CEC92E00E94E50DB5
:10203000DDCF26960FB6F894DEBF0FBECDBFDF9181
:10204000CF911F910F91EF90CF90BF90AF909F9045
:102050008F907F906F9008951F920F920FB60F92FE
:1020600011248F939F938091E1009091E100937FE1
:102070009093E10083FF0FC01092E90091E09093EC
:10208000EB001092EC0092E39093ED001092FC01B3
:1020900098E09093F00082FF22C093E09093E900D3
:1020A0009091F200992319F09AE39093E8009091AF
:1020B000ED01992341F09091ED0191509093ED0144
:1020C000911101C05D9A9091FB01992341F090918B
:1020D000FB0191509093FB01911101C0289A84FF5C
:1020E00018C08091E2008E7E81608093E200809132
:1020F000E1008F7E8093E1008091EE018E7E806111
:102100008093EE019F918F910F900FBE0F901F90C3
:10211000189580FFF7CF8091E2008E7E80618093DA
:10212000E2008091E1008E7E8093E1008091EE01DB
:102130008E7E8160E5CF1F920F920FB60F92112411
:10214000CF92DF92EF92FF920F931F932F933F93C3
:102150004F935F936F937F938F939F93AF93BF93AF
:10216000EF93FF93CF93DF93CDB7DEB76C97DEBFCE
:10217000CDBF1092E9008091E80083FF25C068E0A0
:10218000CE0145960E94020982EF8093E8008D8976
:1021900087FF39C09091E80090FFFCCF982F907690
:1021A00009F034C19E894F89588D2F89F88C91117F
:1021B00031C0803861F58091EC018093F10010927C
:1021C000F1008EEF8093E8006C960FB6F894DEBFB6
:1021D0000FBECDBFDF91CF91FF91EF91BF91AF9136
:1021E0009F918F917F916F915F914F913F912F912F
:1021F0001F910F91FF90EF90DF90CF900F900FBE47
:102200000F901F9018959EEF9093E800C7CF109203
:10221000F100D5CF913059F48111D3CF4130510520
:1022200081F68091EC018D7F8093EC01CACF9330D1
:1022300049F48111C6CF4130510519F68091EC0166
:102240008260F2CF953041F48091E80080FFFCCFAE
:1022500020682093E300B5CF963009F0A9C00B8D1C
:102260001C8D22E01092E9001092EA011092E9011F
:10227000F2122EC01092E8011092E7010E94D108DC
:102280001F8299E09983FA8291E09E8390EA988771
:102290009AEF99872091E9013091EA01275F3F4F3A
:1022A0003C832B838D831092E9001092EA011092F7
:1022B000E9011093E8010093E70149E050E0BE0115
:1022C0006F5F7F4F80E00E94AB080E94D10879CFFA
:1022D0001093E8010093E7010E94B507DC01129614
:1022E0000D911C910115110509F451C1D801ED9111
:1022F000FC910480F581E02DBE016B5E7F4FC8012B
:102300000995009709F03EC1F80100851185EACFD3
:10231000F3E0FF120EC08F89882309F440C0823099
:1023200061F440E867E086E19EE00E947808811150
:1023300048CF81E28093EB0047CF813029F440E819
:102340006BE08AE09EE0F1CF833099F70E94B507F9
:10235000DC011296ED90FC908E010F5F1F4F68011B
:10236000E114F10479F0D701ED91FC910680F78139
:10237000E02DB801C7010995080F111DF701E08490
:10238000F184EECFD8011C92F60101900020E9F70C
:102390003197BF016C197D0940E0C601C6CF64EFDB
:1023A0007DE0FB01449150E080E80E94AB0809CF3A
:1023B000973009F4BECF983021F481E08093F1008A
:1023C00000CF993009F0FDCE837009F0B2CFE0EA7A
:1023D000F1E081E031E096E32191222371F08093D6
:1023E000E9003093EB00DF0111972C912093EC0072
:1023F0009093ED008F5F873079F78EE78093EA0046
:102400001092EA008F898093FC01DBCE8B8D9C8D2E
:102410001092E9001092EA011092E9019093E8010C
:102420008093E701898D811192C08E899D89913AAF
:1024300049F4813209F07DCF47E050E064E071E07B
:1024400080E0B3CF913209F074CF833269F48F8981
:10245000988DB0E0A0E08093000190930101A093DB
:102460000201B0930301ADCE803269F48091E8009F
:1024700082FFFCCF67E084E091E00E9402098BEFCD
:102480008093E8009ECE823209F09BCE8F898093A4
:102490000B01EEEFFFE7859194918B3F9C4D51F13D
:1024A000E0E0F8E08091040190910501A09106011F
:1024B000B0910701803B9440A105B105F1F48091F2
:1024C0000B0180FD1AC0EE3F8AE0F80789F587E727
:1024D00097E791838083809160008093EB0188E18E
:1024E0009BE00FB6F894A895809360000FBE909380
:1024F000600067CEEEEFFAE0D5CF8081918187371B
:10250000974709F05ECEA89580916000886180931E
:1025100060008091EB0180936000EE3F2AE0F207BB
:1025200089F08091FE0A9091FF0A9183808349CEC1
:10253000808191818737980751F29093FF0A8093A9
:10254000FE0AC5CF1092FF0A1092FE0A3ACE0E94F0
:10255000B507DC0112960D911C910115110509F4C6
:10256000E8CED801ED91FC910190F081E02DBE0103
:102570006B5E7F4FC8010995811123CEF80100855C
:102580001185EBCF181619060CF41BCED2CEF1E054
:10259000FF12BECE68EF7DE004CF1F920F920FB600
:1025A0000F9211242F933F938F939F93AF93BF93D9
:1025B0008091DA019091DB01A091DC01B091DD0105
:1025C0003091CD0123E0230F2D3758F50196A11D41
:1025D000B11D2093CD018093DA019093DB01A0938C
:1025E000DC01B093DD018091CE019091CF01A091EB
:1025F000D001B091D1010196A11DB11D8093CE01F2
:102600009093CF01A093D001B093D101BF91AF912E
:102610009F918F913F912F910F900FBE0F901F9020
:10262000189526E8230F0296A11DB11DD2CF1F9247
:102630000F920FB60F9211242F933F934F935F93F6
:102640006F937F938F939F93AF93BF93EF93FF937A
:102650008091CA01882349F08091FD01E091FE013B
:10266000F091FF019081892780838091D201882396
:1026700009F456C08091C6019091C701A091C8018C
:10268000B091C901892B8A2B8B2B09F449C0809109
:10269000C6019091C701A091C801B091C9010197ED
:1026A000A109B1098093C6019093C701A093C80105
:1026B000B093C901892B8A2B8B2B91F5E091C40132
:1026C000F091C501BF016F5F7F4F7093C5016093AB
:1026D000C4012491922F907F822F8F70903819F42B
:1026E0000E941E0CEBCF903981F43296F093C50115
:1026F000E093C401FB016491909103028917F0F605
:1027000067FDDCCF0E94AD0BD9CF903E29F410922B
:10271000C5011092C401D2CF903F99F41092D2011A
:10272000FF91EF91BF91AF919F918F917F916F91A9
:102730005F914F913F912F910F900FBE0F901F907F
:10274000189597FDBBCF3296F093C501E093C40175
:10275000FB016491A091CB01B091CC01322F262FC7
:102760000E94A5196C507E4F8F4F9F4F28EE33E08B
:1027700040E050E00E9483192093C6013093C701C6
:102780004093C8015093C9018091C6019091C7013F
:10279000A091C801B091C901892B8A2B8B2B09F01C
:1027A000BFCF81E090E0A0E0B0E08093C6019093BD
:1027B000C701A093C801B093C901B2CF1F920F9275
:1027C0000FB60F9211248F939F93AF93BF93EF9304
:1027D000FF938091E501882309F452C08091E101C3
:1027E0009091E201A091E301B091E401892B8A2B41
:1027F0008B2BA1F190910002E0910102F091020275
:102800008081892780838091E1019091E201A091EC
:10281000E301B091E401181619061A061B069CF490
:102820008091E1019091E201A091E301B091E40176
:102830000197A109B1098093E1019093E201A0936E
:10284000E301B093E401FF91EF91BF91AF919F91AC
:102850008F910F900FBE0F901F9018951092E50169
:1028600080916F008D7F80936F0080910002E091D6
:102870000102F09102029081809589238083E3CF49
:1028800090910002E0910102F0910202808189277B
:10289000F5CFE7E0F2E01382128288EE93E0A0E049
:1028A000B0E084839583A683B7838AEA91E091831D
:1028B00080838FEF9FEF95878487E7E5F2E01382AF
:1028C00012828CEB91E0918380838CE3868380E19C
:1028D00081871086178216861786108A118A128AB7
:1028E00010926C0610926B0610926E0610926D0696
:1028F00081E080936F060895CF93DF9300D000D0DE
:102900001F92CDB7DEB7789484B5826084BD84B55C
:10291000816084BD85B5826085BD85B5816085BDDA
:1029200080916E00816080936E0010928100809192
:10293000810082608093810080918100816080931A
:10294000810080918000816080938000809191005F
:1029500082608093910080919100816080939100CA
:10296000809190008160809390008091C10084608C
:102970008093C1008091C10082608093C1008091EA
:10298000C10081608093C1008091C3008160809309
:10299000C3008091C00082608093C0008091C2001B
:1029A00081608093C20080917A00846080937A0075
:1029B00080917A00826080937A0080917A008160B1
:1029C00080937A0080917A00806880937A001092D8
:1029D000FC011092EC011092EE018091D700816011
:1029E0008093D70080EA8093D80089B5806189BD43
:1029F00089B5826089BD09B400FEFDCF61E070E059
:102A000080E090E00E94B10A8091D8008F7C8061C4
:102A10008093D8008091E000807F8093E0008091D7
:102A2000E1008E7E8093E1008DE08093E200559A74
:102A3000209A2FB62982F8948091D301811127C062
:102A4000ECE5FEE08491EFE2FEE09491E82FF0E007
:102A5000EE0FFF1FE957F24FA591B491EC91E923D6
:102A600021F461E081E10E943C0961E081E10E9482
:102A7000AD098CB580618CBD8CB580648CBD61E086
:102A80008FE00E94AD0961E080E10E94AD09809174
:102A9000D3018F5F8093D30129802FBE4FE95DE082
:102AA0005A834983E981FA8184913196649188231C
:102AB00039F00E94AD0949815A814E5F5F4FF0CFD6
:102AC00061E082E00E943C0961E070E080E090E01B
:102AD0000E94B10A60E082E00E943C096AE070E076
:102AE00080E090E00E94B10A61E082E00E943C092F
:102AF000ECE4FEE0E491F0E0EE0FFF1FE35CF14F49
:102B0000A591B4919C918091D701809589238C9354
:102B1000EFE1FEE0E491E093D701EFE4FEE0E49121
:102B2000F0E0EE0FFF1FE35CF14F859194919093DD
:102B3000D6018093D501E2E2FEE0E491E093D40176
:102B40008CB58C7F8CBD8DB581608DBD0E94700B66
:102B5000E5E9FDE08FE99DE08E179F0749F024919C
:102B60002EBD00000DB407FEFDCF2EB53196F4CF7B
:102B7000E091D501F091D60180819091D401892B0B
:102B80008083809164008160809364008091640000
:102B90008260809364008091640080688093640008
:102BA00080916400806480936400809165008160FE
:102BB000809365000E94680B87FF1AC080E294E052
:102BC0001EBC00000DB407FEFDCF2EB50197C1F766
:102BD00070E060E08AE00E94E90970E060E083E074
:102BE0000E94E90970E060E089E00E94E909FFCFF6
:102BF0008EEE9FEF9D838C836BE6662E62E0762ED1
:102C000008E010E06C817D8169517F4F8AE00E946D
:102C1000E9096FEF70E083E00E94E9096FEF70E06F
:102C200089E00E94E90990E0F30191119FEF8FEF95
:102C300091939193919391938150D0F73C8090EF31
:102C400039160CF476C02C813D8137FF03C03195D5
:102C500021953109277033278C819D8197FD079637
:102C600053E0959587955A95E1F7AC81BD81B7FF03
:102C700005C00197F801E21BF30B9F01BC0176959B
:102C8000762F662777956795695A7D4FB0E0A0E06B
:102C90002801421A530A8F3FFFEF9F070CF440C0F0
:102CA0007B0150E040E0FD01E952F34F5F014B0131
:102CB000F0E88F0E911C8F3F980779F0F501E40F33
:102CC000F51FE491F0E06F01022E01C0CC0C0A94D4
:102CD000EAF7F701D0A4CD28C0A621153105C1F02F
:102CE000F501E40FF51F24906401C40ED51EE22DFA
:102CF000F0E0042C02C0F595E7950A94E2F7FA8318
:102D0000E983F601F0A5FB8329802F2AF60120A68E
:102D10004F5F5F4FFFEFEF1AFF0A4835510559F635
:102D20000196A85ABF4F60587F4FA03BB10509F0EC
:102D3000B2CF8BE692E00E947B0B6BE170E080E00B
:102D400090E00E94B10A30EF232E321006C06AEFE5
:102D500070E080E090E00E94B10A4C815D814F5F9D
:102D60005F4F5D834C834931510509F04BCF6EEEC7
:102D700072E080E090E00E94B10A6FEF70E08AE0BC
:102D80000E94E9096FEF70E083E00E94E9096FEFAC
:102D900070E089E00E94E90985E00E94410C86E02C
:102DA0000E94410C1092D20182E090E00E944919E9
:102DB000882351F080916400877F80936400809124
:102DC0006500877F8093650088E080935D028DE7D2
:102DD000809360020E94C20E8BE692E00E947B0B01
:102DE00083EC282E8CE8382E9AE1492E512C612C48
:102DF000712C25E5822E912CA12CB12C11E00E9482
:102E0000680B85FF26C08091D901882349F119827A
:102E10000E94680B82FD29C00E94680B86FD25C0B8
:102E20001092D80180910D01833048F19981915021
:102E3000923040F40E9461070E94C20E8BE692E03D
:102E40000E947B0BA0E0B0E0AB2BC9F20E94000017
:102E5000D5CF0E94680B83FDD6CF1092D901D7CF72
:102E60001093D90151E05983D3CF8091D8018111BA
:102E7000D9CF1093D801898182608983D3CFA9816A
:102E8000A13009F047C08091E601882321F08150EC
:102E90008093E60181E09FB7F894C090DA01D0906A
:102EA000DB01E090DC01F090DD019FBF90916902B1
:102EB000992391F090916102EC2DE91BE0936A0255
:102EC00020915E0230915F022F5F3F4F30935F028F
:102ED00020935E0210926902409165025091660251
:102EE0006091670270916802C416D506E606F7067F
:102EF000E4F44C19423050F093B7917F93BF93B7ED
:102F0000916093BF889593B79E7F93BF882309F400
:102F100099CF92CFB981B23031F48091E6018230FD
:102F200010F48F5FB5CF80E0B6CF60916002D7011B
:102F3000C601860F911DA11DB11D8093650290935E
:102F40006602A0936702B0936802C0926102D092B9
:102F50006202E0926302F09264021093690280912F
:102F600006028F5F80930602F0910502F983F1114A
:102F7000F3C0C090E601D12C70910C0120911E018C
:102F800030911F0140910402F0905D02EEE0F1E00B
:102F9000E12C1B8200E05081852F807C09F446C023
:102FA0005F5F5083852F90E0DC01689415F8B5953C
:102FB000A7951694E1F7959587959595879595959D
:102FC00087958770577019F45B8151605B838630F9
:102FD00009F070C01197CA16DB0641F5715031F542
:102FE0008B8182608B832F3097E2390710F42F5F3B
:102FF0003F4FA42FB0E0AA0FBB1FAD59BE4F8D911C
:103000009C918217930760F44F5FA42FB0E0AC5AF5
:10301000BE4FFC906F2D70E088EE93E00E94C819BF
:1030200080910E01808300930E0172E00F5F319654
:10303000003109F0B0CF40930402F0925D0260933A
:10304000600230931F0120931E0170930C01E092E7
:1030500005028EEDE82E81E0F82ED7018C910981D2
:103060000F5F882399F181508C93BFEFEB1AFB0A15
:103070000983033091F7EB81E1FF53C01093E50121
:1030800080918100887F81608093810042EC54E2CE
:1030900050938900409388008092E1019092E20170
:1030A000A092E301B092E40180916F00826080936E
:1030B0006F00C2CE873009F0B9CF92E0E92EEA0E58
:1030C00080910E01808300930E01B0CF0E943019D1
:1030D000E09104022E2F30E0F901E057FE4F90817D
:1030E000891718F680910E01882391F0E82FF0E0FF
:1030F000E25FFE4F808180930E01B981BB0FBB0F51
:10310000BB0F802F8295880F880F807CB82BB083EF
:10311000EB81E160EB83F901EF57FE4F8081D7012E
:10312000A3CF5B81552309F487CE1093E5018091ED
:103130008100887F8160809381008FEB9BE3909377
:103140008900809388004092E1015092E2016092F0
:10315000E3017092E401A8CF837009F06DCE9981EC
:103160009150909305029923C9F01093E501809145
:103170008100887F81608093810030928900209255
:10318000880088E590E0A0E0B0E08093E1019093B2
:10319000E201A093E301B093E40186CF80910D0199
:1031A0008F5F80930D011093E50180918100887FEE
:1031B000816080938100309289002092880081EBA9
:1031C00090E0A0E0B0E0E1CF8F929F92AF92BF92EB
:1031D000CF92DF92EF92FF92CF93DF93EC01688161
:1031E00079818A819B81611571058105910521F4A1
:1031F00064E279ED8BE597E02DE133EF41E050E0BB
:103200000E94511949015A019B01AC01A7EAB1E49E
:103210000E9470196B017C01ACEEB4EFA501940122
:103220000E947E19DC01CB018C0D9D1DAE1DBF1DC2
:10323000B7FF03C00197A109B04888839983AA8387
:10324000BB839F77DF91CF91FF90EF90DF90CF907E
:10325000BF90AF909F908F9008950E94E4180895BA
:1032600080E291E00E94E4180895B0E0A0E080932D
:10327000200190932101A0932201B093230108958E
:10328000FB01DC0102C005900D9241505040D8F77F
:103290000895F999FECF92BD81BDF89A992780B51E
:1032A0000895052E97FB1EF400940E94681957FD9F
:1032B00007D00E94831907FC03D04EF40C946819C0
:1032C00050954095309521953F4F4F4F5F4F089552
:1032D00090958095709561957F4F8F4F9F4F089582
:1032E0000E94A519A59F900DB49F900DA49F800DDD
:1032F000911D11240895B7FF0C9470190E94701944
:10330000821B930B0895A1E21A2EAA1BBB1BFD0181
:103310000DC0AA1FBB1FEE1FFF1FA217B307E407B4
:10332000F50720F0A21BB30BE40BF50B661F771F0C
:10333000881F991F1A9469F76095709580959095EC
:103340009B01AC01BD01CF010895A29FB001B39FC5
:10335000C001A39F700D811D1124911DB29F700D9E
:10336000811D1124911D0895AA1BBB1B51E107C0AB
:10337000AA1FBB1FA617B70710F0A61BB70B881F05
:10338000991F5A95A9F780959095BC01CD01089594
:1033900097FB072E16F4009407D077FD09D00E9402
:1033A000B41907FC05D03EF4909581959F4F089580
:1033B000709561957F4F0895EE0FFF1F0590F49172
:1033C000E02D099481E090E0F8940C94E719F894CA
:0233D000FFCF2D
:1033D200FFFFFFFF00E10000000000000203010206
:1033E200030405060708090A0B0C0D0E0F00D20490
:1033F200010000007B024D021F0213020602F001CF
:10340200DC01C401AA018E0100008301780164017C
:103412004E0132011601000000000C01FA00E0002A
:10342200C600AC000808080A0A0A0C0C0C0E0E0EA4
:103432000E0E120A001E003C0064009600D2001814
:10344200016801C201260294020C038E03E8030FF5
:10345200271E140F0F0E0D0F0E0D0F0E0D0C0A0C62
:10346200080A0A0C0C0C0F0C140C0F0F0F1412008C
:10347200C1808100000000000000C907E30AEA07DA
:10348200DF073008EE070C0800000000640D0F098A
:04349200E20DE10D59
:00000001FF
