:100000000C946E050C9496050C9496050C9496052C
:100010000C9496050C9496050C9496050C949605F4
:100020000C9496050C9496050C94720F0C94E10FA9
:100030000C9496050C9496050C9496050C949605D4
:100040000C9496050C9496050C9496050C949605C4
:100050000C9496050C9496050C9496050C9413122A
:100060000C9496050C9496050C9496050C949605A4
:100070000C9496050C9496050C9496050C94960594
:100080000C945D120C9496050C9496050C949605B0
:100090000C9496050C9496050C9496050C94960574
:1000A0000C9496050C9496050C94960505A84CCDD9
:1000B000B2D44EB93836A9020C50B9918688083CA2
:1000C000A6AAAA2ABE000000803F00000000003E51
:1000D0005B4F5B3E3E6B4F6B3E1C3E7C3E1C183CB8
:1000E0007E3C181C577D571C1C5E7F5E1C00183C14
:1000F0001800FFE7C3E7FF0018241800FFE7DBE75D
:10010000FF30483A060E2629792926407F05050743
:10011000407F05253F5A3CE73C5A7F3E1C1C08089F
:100120001C1C3E7F14227F22145F5F005F5F060964
:100130007F017F006689956A606060606094A2FFBD
:10014000A29408047E040810207E201008082A1CAF
:1001500008081C2A08081E101010100C1E0C1E0C7B
:1001600030383E3830060E3E0E060000000000001B
:10017000005F00000007000700147F147F14242A8A
:100180007F2A12231308646236495620500008075C
:100190000300001C2241000041221C002A1C7F1C7D
:1001A0002A08083E0808008070300008080808087F
:1001B000000060600020100804023E5149453E00E6
:1001C000427F400072494949462141494D33181444
:1001D000127F1027454545393C4A49493141211193
:1001E00009073649494936464949291E0000140085
:1001F00000004034000000081422411414141414A8
:10020000004122140802015909063E415D594E7C05
:100210001211127C7F494949363E414141227F41BA
:1002200041413E7F494949417F090909013E414118
:1002300051737F0808087F00417F41002040413F03
:10024000017F081422417F404040407F021C027F12
:100250007F0408107F3E4141413E7F090909063E67
:100260004151215E7F091929462649494932030136
:100270007F01033F4040403F1F2040201F3F403848
:10028000403F631408146303047804036159494D23
:1002900043007F4141410204081020004141417F59
:1002A00004020102044040404040000307080020CF
:1002B000545478407F2844443838444444283844CF
:1002C00044287F385454541800087E090218A4A406
:1002D0009C787F0804047800447D40002040403D25
:1002E000007F1028440000417F40007C047804789F
:1002F0007C080404783844444438FC182424181832
:10030000242418FC7C08040408485454542404048D
:100310003F44243C4040207C1C2040201C3C40307A
:10032000403C44281028444C9090907C4464544CA9
:100330004400083641000000770000004136080004
:1003400002010204023C2623263C1EA1A161123AAE
:100350004040207A385454555921555579412154FB
:10036000547841215554784020545579400C1E5200
:1003700072123955555559395454545939555454A4
:10038000580000457C410002457D420001457C400B
:10039000F0292429F0F0282528F07C545545002028
:1003A00054547C547C0A097F4932494949323248C5
:1003B000484832324A4848303A4141217A3A42402C
:1003C0002078009DA0A07D39444444393D40404000
:1003D0003D3C24FF2424487E4943662B2FFC2F2BD1
:1003E000FF0929F620C0887E090320545479410072
:1003F00000447D413048484A32384040227A007AF1
:100400000A0A727D0D19317D2629292F28262929CE
:10041000292630484D4020380808080808080808F0
:10042000382F10C8ACBA2F102834FA00007B000017
:1004300008142A142222142A14089500220095AACE
:10044000005500AAAA55AA55AA000000FF001010E6
:1004500010FF00141414FF001010FF00FF1010F024
:1004600010F0141414FC001414F700FF0000FF0037
:10047000FF1414F404FC141417101F10101F101F85
:100480001414141F00101010F0000000001F1010B2
:1004900010101F10101010F010000000FF101010AE
:1004A000101010101010FF10000000FF140000FFCB
:1004B00000FF00001F10170000FC04F414141710B4
:1004C000171414F404F40000FF00F71414141414A7
:1004D0001414F700F7141414171410101F101F141D
:1004E0001414F4141010F010F000001F101F00007E
:1004F000001F14000000FC140000F010F01010FFAA
:1005000010FF141414FF141010101F00000000F04E
:1005100010FFFFFFFFFFF0F0F0F0F0FFFFFF000023
:10052000000000FFFF0F0F0F0F0F38444438447CCA
:100530002A2A3E147E02020606027E027E026355CD
:100540004941633844443C04407E201E2006027E1C
:10055000020299A5E7A5991C2A492A1C4C7201722E
:100560004C304A4D4D303048784830BC625A463D98
:100570003E494949007E0101017E2A2A2A2A2A444D
:10058000445F444440514A444040444A5140000082
:10059000FF0103E080FF000008086B6B083612368D
:1005A0002436060F090F060000181800000010106E
:1005B000003040FF0101001F01011E00191D17122C
:1005C000003C3C3C3C0000000000080B0002020222
:1005D00000000904000001020200000524001001CF
:1005E0000524010101042402060524060001070573
:1005F000810310004009040100020A000000070501
:1006000002024000000705830240000004030904C1
:1006100012010002EF020140412336800001010275
:10062000030141726475696E6F204C4C4300414276
:100630004131313036008D14A1C881CFD9F102AFDC
:10064000506C6179657220312057696E7300506C6F
:100650006179657220322057696E7300776E64008D
:1006600070777200FFFFFFDFFFFFFFFF48554D412E
:100670004E004149004D6178204865616C74683ACC
:10068000202020004E4F00594553004F70706F6E70
:10069000656E743A20202020200057696E643A204D
:1006A00020202020202020200050726573732041DC
:1006B00020546F2053746172740047616D6520533C
:1006C000657474696E67730050726573732041209E
:1006D000546F20537461727400FFFFFFFFFFFFFF30
:1006E000FFFFFF7F3F3F3F3F7FFFFFFFFFFFFFFF1A
:1006F000FFFFFFFFFF7F7F3F3F3F1F1F1F1F1F1F8A
:100700003F3F3F7F7FFFFFFFFFFFFFFFFFFFFFFF39
:10071000FFFFFFFFFFFFFFFFFFFFFFFFFFFFFFFFE9
:10072000FFFFFFFFFFFFFFFFFFFFFFFFFFFFFFFFD9
:10073000FFFFFFFFFFFFFFFFFFFFFFFFFFFFFFFFC9
:10074000FFFFFFFFFFFFFFFFFFFFFFFFFFFFFFFFB9
:10075000FFFFFFFFFFFFFFFFFFFFFFFFFFFFFFFFA9
:100760001F0701000080C080000003071F7FFFFFFC
:10077000FFFFFFFFF00000000000F8F8F8F8F8F8BD
:10078000F8F0000000000307FFFFFFFFFF3F1F1FFF
:100790003FFFFFFFFFBF1F1F1F3FFFFF3F1F1F1F29
:1007A000FFFFFFFF1F1F1F3FFFFFFFFFFFFFFFFFB9
:1007B000FFFFFFFFFFFFFFFFFFFFFFFFFFFFFFFF49
:1007C000FFFFFFFFFFFFFFFFFFFFFFFFFFFFFFFF39
:1007D000FFFFFFFFFFFFFFFFFFFFFFFFFF3F0300E4
:1007E000000000000C0F0F0F0E00000000000107BA
:1007F000070F0FFFFF0000000000070F07070703A8
:10080000030100C0C0E0F8FEFFFFE7C7C30000001F
:1008100000C7C3C7FFFF02020207FFFF000000007E
:10082000FFFFFFFF00000000FFFF1F0F078787C3C8
:10083000430307070FFFFFE70707070783C3C383C8
:1008400083C7FF830303073FFFFFFF1F030303E784
:10085000FFFFFFFFFFFFFFFFFFFFFF9F0100000003
:1008600000F8FEFEFEFEFEFEFEFEFEFEE0000000C4
:100870000002FFFFFF0000000000FEFEFEFEFCF095
:10088000E0C080000103070F1FFFFFFFFF80000093
:1008900080FFFFFFFFFF00000080FFFF80000000DF
:1008A0001FFFFFFF800000083FFFE0808000080876
:1008B000080C8486C6E7FFFF80000080FFFFFFFF73
:1008C000FFFFFFFFFEFC7830000100C0F0FCFFFFDF
:1008D000FFFFFFFFFFFFFFFFFFDFDFDF5E5E5E5E0C
:1008E0005FDFDFDFDFDFDFDFDFDF5F5F5F5E5EDE1B
:1008F000DEDEDFDFDFDEDCDCDEDEDFDFDFDFDFDF13
:10090000DFDFDFDFDEDCDCDEDFDFDFDFDFDFDFDFFF
:10091000DFDFDFDFDFDFDFDFDFDFDFCFCFCFCFCF37
:10092000CFCFCFCFCFCFCFCFCFCF0F9FDFDF9F3F67
:10093000FFFFFF7FFFFF7FFFFFFF7F7F7F7F7F7FC7
:100940007F7F7F7F7F797878787C7F7F7F7F7F7FD5
:100950007F7F7FFFFFFFFFFFFFFFFFFF80B3B3B38A
:1009600080CCFF614F4F81FFFFFF8080BBB3B3C4DA
:10097000FFC3A5A5A1A3FF81F3F9FDFD63635D4D51
:1009800081FFDFADA5A183FFB3A5A5CDFF8181F9CF
:10099000C3FD83FFB3B1A58DCDFFFFFFFFFFFFFFB9
:1009A000FFFFFFFFFFFFFFFFFFC00C7FFFFF7F0C7C
:1009B00080FFFF80FFFF80FFFFFF808080808080BE
:1009C0008080808080808080808080808080808027
:1009D000809F9EECE1FFFFFFFF3E3E3E3E3E3E3EDF
:1009E0003E3E3E3E3E3E3E3E3E3E3E3E3E3E3E3E27
:1009F0003E3E3E3E3E3E3E3E3E3E3E3E3E3E3E3E17
:100A00003E3E3E3E3E3E3E3E3E3E3E3E3E3E3E3E06
:100A10003E3E3E3E3E3E3E3E3E3E3E3E3E3E3E3EF6
:100A20003E3E3E3E3E3E3E3E3E3E3E3E3E3E3E3FE5
:100A30003F3F3F3F3F3F3F3F7FFFFFFFFFFFFFFF46
:100A4000FFFFFFFFFFFFFFFFFFFFFFFFFFFFFFFFB6
:100A5000FFFFFFFFFFFFFFFFFFFFFFFFFFFFFFFFA6
:100A6000FFFFFFFFFFFFFFFFFFFFFFFFFFFFFFFF96
:100A7000FFFFFFFFFFFFFFFFFFFFFFFFFFFFFFFF86
:100A8000FFFFFFFFFFFFFFFFFFFFFFFFFFFFFFFF76
:100A9000FFFFFFFFFFFFFFFFFFFFFFFFFFFFFFFF66
:100AA000FFFFFFFFFFFFFFFFFFFFFFFFFFFFFFFF56
:100AB000FFFFFFFFFFFFFFFF00FFFFFFFFFFFFFF45
:100AC000FFFFFFFFFFFFFFFFFFFFFFFFFFFFFFFF36
:100AD000FFFFFFFFFFFFFFFFFF00A31311241FBE57
:100AE000CFEFDAE0DEBFCDBF11E0A0E0B1E0EEEC89
:100AF000FAE402C005900D92A834B107D9F726E0B8
:100B0000A8E4B1E001C01D92AF31B207E1F715E0F2
:100B1000CEE6D5E004C02197FE010E940B24CD361D
:100B2000D107C9F70E94E4130C9465250C940000CA
:100B300080E00895AF92BF92CF92DF92EF92FF9242
:100B40000F931F93CF93DF938038910509F448C02A
:100B500030E010E0F3E015950795FA95E1F7481BB2
:100B6000590BA3E075956795AA95E1F7A8E0B0E069
:100B7000A61BB70B7695762F662777956795680F36
:100B8000791FF12CE12C6C557E4F6701D694DC2C3B
:100B9000CC24D794C794C60ED71EEC01D7FD08C04D
:100BA000FA01EC0FFD1FB490F601A080BA28B082C4
:100BB0002196FFEFCF1ADF0AFE01E81BF90BE217BF
:100BC000F3071CF4C038D10549F7EFEFEE1AFE0A1F
:100BD000420F531F0E151F0519F0AE15BF05A9F6DC
:100BE000DF91CF911F910F91FF90EF90DF90CF9009
:100BF000BF90AF900895480F592F511D1416150638
:100C000084F5803891056CF597FF02C090E080E094
:100C10004138510514F040E850E0481BFB01E770F3
:100C2000FF2721E001C0220FEA95EAF777FF02C013
:100C3000695F7F4FFB0133E0F595E7953A95E1F762
:100C4000F695FE2FEE27F795E795E80FF91FEC557F
:100C5000FE4F415030F08191DF011197822B8C9330
:100C6000F8CF08952F923F924F925F926F927F92AA
:100C70008F929F92AF92BF92CF92DF92EF92FF92AC
:100C80000F931F93CF93DF93CDB7DEB72E970FB699
:100C9000F894DEBF0FBECDBF6B015A013E872D8792
:100CA000261737070CF00EC1E616F7060CF422C122
:100CB000621773075CF03C2D2D2DCD84DE843D87BB
:100CC0002E87382F292FC501A32EB22ECE14DF0474
:100CD000C9F5A816B90654F0382F292F8A159B0597
:100CE00014F43A2D2B2D5C01832F922F0A151B052E
:100CF0002CF0801791070CF4C801850120E4C2167E
:100D0000D1040CF009C18F5F482F401BB601C80108
:100D10002E960FB6F894DEBF0FBECDBFDF91CF91F8
:100D20001F910F91FF90EF90DF90CF90BF90AF9009
:100D30009F908F907F906F905F904F903F902F90FB
:100D40000C94FB05302F212F8C01832F922F3E2DE9
:100D50002F2D7601C32ED22EA501401B510B588793
:100D60004F832D853E852E193F093A8729873C01FF
:100D7000601A710AA6014E195F095A8349839C01C2
:100D80002A193B093C832B83A6018D859E85481B30
:100D9000590B5C874B878C159D0509F441C0019761
:100DA0009E838D834701512C412C312C212C4D8168
:100DB0005E8148155905CCF1C10169857A850E948B
:100DC000F7239B01200F311FC20169817A810E94A4
:100DD000F723600F711F8F819885280E391E460CEE
:100DE000571C621773071CF4922F9B01692F90E424
:100DF0008916910438F46F5F462F421BB401C90174
:100E00000E94FB052FEF821A920AD1CF3A2D2B2D8B
:100E10005C01832F922F3C2D2D2DCD84DE8479C053
:100E20002D853E853E832D83BDCFC4014D855E85D6
:100E3000841B950B4B815C81849F9001859F300DB5
:100E4000949F300D11243E832D83C4018E199F0978
:100E5000869D7001879DF00C969DF00C1124C8149E
:100E6000D9040CF459C08D819E816B857C850E94CC
:100E7000F7239B012A0D3B1DC70169817A810E94DE
:100E8000F723600F711F8D819E814B815C81840FE0
:100E9000951F9E838D83E60CF71C621773071CF465
:100EA000922F9B01692F50E48516910438F46F5FEF
:100EB000462F421BB401C9010E94FB058FEF881A1F
:100EC000980ACDCF2D853E85E216F3060CF0FECEB6
:100ED000E616F7060CF49ACF302F212F8A015C0119
:100EE000832F922F3D852E857E876D876701E32EA8
:100EF000F22EE1CE4D855E85E416F5060CF42CCF7E
:100F0000302F212F8501A32EB22E3E2D2F2DED84C3
:100F1000FE843D872E8720CF2E960FB6F894DEBF35
:100F20000FBECDBFDF91CF911F910F91FF90EF903A
:100F3000DF90CF90BF90AF909F908F907F906F90F9
:100F40005F904F903F902F900895E4EAF1E080E0A9
:100F500030EB20E146E05C983EBD4A95F1F72EBDAE
:100F600020E8239507C0449140815C9A4EBD8111D1
:100F7000412D419344912A95B1F73395383B49F778
:100F80000DB40895FC0180917F01882311F13FB7D2
:100F9000F89482E08093E9002091F200822F90E0A3
:100FA0001816190614F481E090E0882339F0289887
:100FB00044E640937E014091F1004083222339F0C2
:100FC0002091F200211103C02BE62093E8003FBFDF
:100FD00008958FEF9FEF08952FB7F89483E08093E3
:100FE000E9009091E800892F807295FF04C09091EC
:100FF000F20080E4891B2FBF089580917601811152
:101000000DC082E08093720184E08093730110929E
:1010100075011092740181E08093760182E791E07E
:1010200008950895409162015091630120916001FB
:101030003091610142175307B4F49091E800957024
:10104000E1F39091E80092FD19C08093F100809146
:1010500062019091630101968F739927892B19F48E
:101060008EEF8093E8008091620190916301019678
:10107000909363018093620181E0089580E0089578
:10108000EF92FF920F931F93CF93DF93F82E192FB8
:10109000E62E042F81E0860F880F0E94120883E05D
:1010A0000E941208CF2DD12FEC0EFD2EF11CCE1573
:1010B000DF05B9F007FF13C0FE0184910E941208FA
:1010C000182F80E00E941208812321968111EFCF12
:1010D000DF91CF911F910F91FF90EF90089588813C
:1010E000EDCF81E0F5CFDF92EF92FF920F931F9348
:1010F000CF93DF93D82E8A01EB017B01E40EF51E1E
:10110000CE15DF0559F0D7FE12C0FE0184910E9472
:10111000120821968111F4CF0FEF1FEFC801DF9164
:10112000CF911F910F91FF90EF90DF9008958881EC
:10113000EECF0F931F93CF93DF931F92CDB7DEB700
:1011400082E0898342E450E06AEC75E080E80E9426
:1011500073080E94FD07DC0112960D911C91011588
:10116000110589F0D801ED91FC910280F381E02D09
:10117000BE016F5F7F4FC801099597FD04C0F8015C
:1011800000851185ECCF89810F90DF91CF911F9160
:101190000F910895615030F02091F100FC012083FF
:1011A0000196F8CF289884E680937E010895AF9247
:1011B000BF92CF92DF92EF92FF920F931F93CF9344
:1011C000DF936C017B018B01040F151FEB015E01A6
:1011D000AE18BF08C017D10759F06991D601ED913B
:1011E000FC910190F081E02DC6010995892B79F7DA
:1011F000C501DF91CF911F910F91FF90EF90DF908C
:10120000CF90BF90AF900895CF93DF931F92CDB74B
:10121000DEB76983DC01ED91FC910280F381E02D62
:1012200041E050E0BE016F5F7F4F09950F90DF9165
:10123000CF91089583E08093E9008091F2008823A4
:1012400019F08AE38093E80008950E94EC0790E08B
:101250000895CF93DF931F92CDB7DEB7FC0184854D
:10126000958597FD08C02FEF3FEF358724870F90B6
:10127000DF91CF910895CE0101960E94C207019798
:1012800019F4898190E0F3CF8FEF9FEFF0CF0F93A8
:101290001F93CF93DF931F92CDB7DEB78C01FC0174
:1012A0008485958597FF0BC0CE0101960E94C207E9
:1012B000019771F4898190E0F80195878487F8019E
:1012C000848595850F90DF91CF911F910F9108959F
:1012D0008FEF9FEFF1CFFC018485958597FD0BC0C3
:1012E0009FB7F89482E08093E9008091F2009FBF5D
:1012F00090E0019608959FB7F89482E08093E9000A
:101300008091F2009FBF90E00895FC010E94200AA6
:10131000319728F068517C4F8F4F9F4FF9CFAB0129
:10132000FC010E94200A641775078E079F07C8F307
:10133000089585E090E00C9485098F929F92AF927A
:10134000BF92CF92DF92EF92FF920F931F93CF93B2
:10135000DF936C017B018A0180910B01882309F4E2
:101360005AC080917F01882309F455C0809166019D
:1013700080FF05C08091E00082608093E000E8017A
:10138000B12C8AEFA82E93E0892E2AE3922E209783
:1013900011F4BB20C9F10E94EC07811108C0AA9486
:1013A000AA20C9F181E090E00E948509F0CF8C1756
:1013B0001D0611F00CF08C2F9FB7F8948092E90075
:1013C0002091E80025FD02C09FBFE1CF282F30E02B
:1013D000C21BD30BF701815020F041914093F100E3
:1013E000FACFE20EF31EBB2021F09092E800B12C60
:1013F000EBCF8091E80085FDE7CF9092E800BB2419
:10140000B394209709F3F3CF5D9884E68093650148
:10141000101611063CF081E090E0F6019383828380
:1014200010E000E0C801DF91CF911F910F91FF9074
:10143000EF90DF90CF90BF90AF909F908F900895E6
:10144000ACE5B1E02FB7F8947D918D919C9166B594
:101450002FBFA89B05C06F3F18F47F5F8F4F9F4F32
:1014600022E0660F771F881F991F2A95D1F70895EC
:1014700020914E01E0915101F0915201CF0102966D
:101480009093520180935101222319F085919491F8
:1014900008958081918108958FB18095807F669BAA
:1014A00088601C9B8460089580389105B8F460348E
:1014B0007105A0F490E121E061FD24E060FD220FC0
:1014C00062FD2295687F969FD0011124A80FAC552C
:1014D000BE4F0C90022A40FF02260C920895EF9214
:1014E000FF920F931F93CF93DF937C018B01040F27
:1014F000111DEB0177FF02C0D0E0C0E0C80101344C
:10150000110514F080E490E0C817D9073CF441E0DD
:10151000BE01C7010E94540A2196F0CFDF91CF91FE
:101520001F910F91FF90EF900895EF92FF920F930C
:101530001F93CF93DF937C018B01C42FD22F603494
:10154000710510F40E94FB05B8016D0F711D61500B
:1015500071096034710520F44C2FC7010E94FB050E
:101560004D2FB801C7010E946F0AC7018C0F911D52
:101570004D2FB8010197DF91CF911F910F91FF90EF
:10158000EF900C946F0A2F923F924F925F926F925E
:101590007F928F929F92AF92BF92CF92DF92EF9203
:1015A000FF920F931F93CF93DF93CDB7DEB72A97A8
:1015B0000FB6F894DEBF0FBECDBF9A8389836A3021
:1015C00061F5DC0155968C91B8E08B9F9001112458
:1015D000E981FA8181899289820F931F928B818B95
:1015E000108A178681E090E02A960FB6F894DEBF45
:1015F0000FBECDBFDF91CF911F910F91FF90EF9064
:10160000DF90CF90BF90AF909F908F907F906F9022
:101610005F904F903F902F9008956D3019F329817E
:101620003A813A872987D9011F96AD90BC90B0E8DE
:10163000AB16B1040CF07BC0F901C188D288F0E48C
:10164000CF16D1040CF073C0D90155966C90559704
:1016500045E09501649E200D311D112412161306DC
:101660000CF065C0262C312C910153E0220F331F62
:101670005A95E1F72C0D3D1D121613060CF057C0BC
:101680005496BC91BB83E985FA85F389FC83649FFA
:10169000B00111249B0126533F4F3A832983712CBB
:1016A000E981FA818491F5E07F1201C080E0460172
:1016B00038E0532E282F30E03E832D834C8080FF6E
:1016C0004B80411004C03B818C813817E1F010E061
:1016D00000E00615C0F4D501A00FB11FB887AF8395
:1016E000F12CE12CE61460F4B701680D791D442D4E
:1016F0008F8198850E94540ABFEFEB1AFB0AF2CF44
:101700000F5F1F4FE6CF8D819E81959587955A94E7
:10171000820C931C5110CECF7394E981FA813196DB
:10172000FA83E983A20CB31CF6E07F12B9CFA98536
:10173000BA8555962C915597422F50E01F968D9162
:101740009C91B6E02B9F800D911D1124E985FA85AF
:10175000908B87872689222309F444CF6AEF64039C
:101760009001659F300D112420583F4F28173907ED
:101770000CF038CFDF010190F081E02D0190F08175
:10178000E02D6AE0CD0109952DCF0F931F93CF93E4
:10179000DF938C01D0E0C0E0F801EC0FFD1F6491F5
:1017A000662341F084E096E00E94C30A892B11F081
:1017B0002196F2CFCE01DF91CF911F910F91089525
:1017C0000895089590E080E00895262FE0916E013D
:1017D000F0916F0193E0899FE00DF11D112481814B
:1017E000428150E070E060E0BA0155274427582B51
:1017F0008081482B81E090E0A0E0B0E004C0880F39
:10180000991FAA1FBB1F2A95D2F784239523A623CD
:10181000B72321E0892B8A2B8B2B09F420E0822F20
:101820000895FC0120816217C8F030E02A5F3F4F25
:101830006217130609F094F4818190E050E020E3F0
:1018400030E0281B390B4217530744F024E330E003
:10185000281B390B81E0241735070CF480E008952C
:10186000E0916E01F0916F0193E0899FE00DF11D11
:101870001124E60FF11D40830895BF92CF92DF92AD
:10188000EF92FF920F931F93CF93DF93B62EEA014F
:101890008901FC01628170E090E080E00E942322D7
:1018A00029E33AEF4EE85CE30E9417236B017C01C9
:1018B0000E947421688379838A839B83C701B60160
:1018C0000E948423F8016083718382839383B11023
:1018D00009C088819981AA81BB81B0588883998386
:1018E000AA83BB83DF91CF911F910F91FF90EF905F
:1018F000DF90CF90BF9008952F923F924F925F92CA
:101900006F927F928F929F92AF92BF92CF92DF920F
:10191000EF92FF920F931F93CF93DF93CDB7DEB774
:1019200060970FB6F894DEBF0FBECDBFB82E9E01F4
:101930002F5F3F4FAE014B5F5F4F60E085E891E066
:101940000E943D0C4D805E806F807884609185019F
:1019500070E06D5F7F4F072E000C880B990B0E9483
:1019600023226B017C0120E030E040EC50E4C30115
:10197000B2010E9417239B01AC01C701B6010E946E
:101980000321162F072F382E292E89819A81AB81AA
:10199000BC8189879A87AB87BC878091860165E384
:1019A00070E0681B7109072E000C880B990B0E94D0
:1019B00023226B017C0120E030E040EC50E469859B
:1019C0007A858B859C850E9417239B01AC01C701FA
:1019D000B6010E9403216B017C01B6946B2D70E06F
:1019E00090E080E00E9423224B015C01AC019B014E
:1019F000C301B2010E9417236D837E838F83988772
:101A0000A501940169857A858B859C850E941723A1
:101A100069837A838B839C8340909C01042C000C07
:101A20005508660877089D819987AE81AD87BF818B
:101A3000BE8788858F8720E030E0A901C701B60105
:101A40000E94122318160CF065C029853D854E852D
:101A50005F85612F702F832D922D0E940321162FF9
:101A6000072F382E292E89809A80AB80BC80A50153
:101A70009401C701B6010E9403216B017C0120E0A3
:101A800030E0A901612F702F832D922D0E94122327
:101A900087FD1FC020E030E040E853E4612F702F45
:101AA000832D922D0E946F2187FF13C0C701B601BD
:101AB0000E94F221688B683160F4612F702F832DB2
:101AC000922D0E94F221862F68890E94E50B8130B9
:101AD00029F1C301B2010E9423222AE037ED43E23B
:101AE0005CE30E94172329853D854E855F850E9412
:101AF00003216D837E838F8398872AE939E949E141
:101B00005EE3C501B4010E94022169837A838B835D
:101B10009C8389CF19850D853E842F84612F702F7A
:101B2000832D922D60960FB6F894DEBF0FBECDBF09
:101B3000DF91CF911F910F91FF90EF90DF90CF90A9
:101B4000BF90AF909F908F907F906F905F904F90DD
:101B50003F902F9008954F925F926F927F928F9255
:101B60009F92AF92BF92CF92DF92EF92FF920F932C
:101B70001F93CF93DF93CDB7DEB728970FB6F894B6
:101B8000DEBF0FBECDBF7C0100E811E0F801828D01
:101B900083708460828F81E068279E012B5F3F4FB6
:101BA000AE014F5F5F4FC7010E943D0C89809A8054
:101BB000AB80BC80F701608170E06D5F7F4F072EC6
:101BC000000C880B990B0E9423222B013C0120E082
:101BD00030E040EC50E4C501B4010E9417239B01A2
:101BE000AC01C301B2010E940321F801628773872F
:101BF000848795874D805E806F807884F70181812E
:101C000065E370E0681B7109072E000C880B990BC7
:101C10000E9423226B017C0120E030E040EC50E484
:101C2000C301B2010E9417239B01AC01C701B60199
:101C30000E940321F80166877787808B918B638DE3
:101C4000669570E090E080E00E9423226B017C01A9
:101C5000AC019B01C301B2010E941723F801668BFE
:101C6000778B808F918FA7019601C501B4010E94E7
:101C70001723F801628B738B848B958B138E2896B8
:101C80000FB6F894DEBF0FBECDBFDF91CF911F918D
:101C90000F91FF90EF90DF90CF90BF90AF909F900B
:101CA0008F907F906F905F904F9008952F923F920A
:101CB0004F925F926F927F928F929F92AF92BF925C
:101CC000CF92DF92EF92FF920F931F93CF93DF9308
:101CD000CDB7DEB72A970FB6F894DEBF0FBECDBFE3
:101CE0006C01F62EA0906C01B0906D01FC01618139
:101CF0006450770B808190E024E046E08A199B09CC
:101D00000E94950AF60161816550770B02E010E0B0
:101D10000A191B096034710538F4808143E0800F93
:101D2000912F911D0E94FB05F60161816250770B96
:101D3000808141E0800F912F911D0E94540AF6018D
:101D400061816250770B208184E090E08A199B09C1
:101D500041E0820F911D0E94540A9E012B5F3F4F6C
:101D6000AE014F5F5F4F6F2DC6010E943D0C20E01A
:101D700030E040EC50E469817A818B819C810E9443
:101D800017232B013C0149825A826B827C8220E01E
:101D900030E040EC50E46D817E818F8198850E9417
:101DA00017236D837E838F839887F6012181422FCD
:101DB0004550550B7A010E94EB21262E660F330801
:101DC000870102191309F6018080912C8A189B085B
:101DD000C301B2010E94EB2193E0A92EB12CA61AF7
:101DE000B10867FDB3946401CA0CDB1CF3E08F0EED
:101DF000911C310137FE03C071946194710843E076
:101E0000A41AB108B7FE03C0B194A194B108A614F6
:101E1000B70454F0902F812F8601C92ED82E9E2D05
:101E20008F2D7401892E982E0E151F0554F09C2DB0
:101E30008D2D6401892E982E902F812F8701E92EF8
:101E4000F82EC701801B910B9A87898714012C18E3
:101E50003D0837FE03C031942194310849845A84E7
:101E600057FE03C09FEF491A590A5594479481E0E1
:101E7000C814D9040CF08FEF882E880F9908E0164B
:101E8000F106BCF041E0B801C601A614B70414F095
:101E9000B601C8010E94540A4218530857FE06C0F2
:101EA000C80CD91CE985FA854E0E5F1E0F5F1F4FC7
:101EB000E6CF2A960FB6F894DEBF0FBECDBFDF91F6
:101EC000CF911F910F91FF90EF90DF90CF90BF9037
:101ED000AF909F908F907F906F905F904F903F90CA
:101EE0002F9008951F920F920FB60F9211248F9387
:101EF0009F938091E1009091E100937F9093E100A6
:101F000083FF0FC01092E90091E09093EB001092D4
:101F1000EC0092E39093ED0010927F0198E0909393
:101F2000F00082FF22C093E09093E9009091F200CC
:101F3000992319F09AE39093E80090916501992311
:101F400041F090916501915090936501911101C00C
:101F50005D9A90917E01992341F090917E0191507C
:101F600090937E01911101C0289A84FF18C080913E
:101F7000E2008E7E81608093E2008091E1008F7E9E
:101F80008093E100809166018E7E8061809366017E
:101F90009F918F910F900FBE0F901F90189580FF0B
:101FA000F7CF8091E2008E7E80618093E200809185
:101FB000E1008E7E8093E100809166018E7E8160DB
:101FC000E5CF1F920F920FB60F921124CF92DF929E
:101FD000EF92FF920F931F932F933F934F935F9333
:101FE0006F937F938F939F93AF93BF93EF93FF93E1
:101FF000CF93DF93CDB7DEB76C97DEBFCDBF109226
:10200000E9008091E80083FF25C068E0CE01459695
:102010000E94CA0882EF8093E8008D8987FF39C04B
:102020009091E80090FFFCCF982F907609F034C192
:102030009E894F89588D2F89F88C911131C0803835
:1020400061F5809167018093F1001092F1008EEFAD
:102050008093E8006C960FB6F894DEBF0FBECDBF3C
:10206000DF91CF91FF91EF91BF91AF919F918F91B0
:102070007F916F915F914F913F912F911F910F91A0
:10208000FF90EF90DF90CF900F900FBE0F901F90BA
:1020900018959EEF9093E800C7CF1092F100D5CF2E
:1020A000913059F48111D3CF4130510581F680919F
:1020B00067018D7F80936701CACF933049F4811106
:1020C000C6CF4130510519F6809167018260F2CF89
:1020D000953041F48091E80080FFFCCF2068209388
:1020E000E300B5CF963009F0A9C00B8D1C8D22E01E
:1020F0001092E9001092630110926201F2122EC058
:1021000010926101109260010E9499081F8299E06B
:102110009983FA8291E09E8390EA98879AEF998753
:102120002091620130916301275F3F4F3C832B83F5
:102130008D831092E9001092630110926201109356
:1021400061010093600149E050E0BE016F5F7F4F85
:1021500080E00E9473080E94990879CF1093610172
:10216000009360010E94FD07DC0112960D911C9105
:102170000115110509F451C1D801ED91FC910480BC
:10218000F581E02DBE016B5E7F4FC8010995009778
:1021900009F03EC1F80100851185EACFF3E0FF1296
:1021A0000EC08F89882309F440C0823061F440E872
:1021B00067E08EE296E00E944008811148CF81E2FC
:1021C0008093EB0047CF813029F440E86BE082E256
:1021D00096E0F1CF833099F70E94FD07DC0112965B
:1021E000ED90FC908E010F5F1F4F6801E114F10428
:1021F00079F0D701ED91FC910680F781E02DB801CF
:10220000C7010995080F111DF701E084F184EECF95
:10221000D8011C92F60101900020E9F73197BF0127
:102220006C197D0940E0C601C6CF6CE076E0FB0189
:10223000449150E080E80E94730809CF973009F478
:10224000BECF983021F481E08093F10000CF993027
:1022500009F0FDCE837009F0B2CFEBE1F1E081E04F
:1022600031E096E32191222371F08093E9003093CD
:10227000EB00DF0111972C912093EC009093ED007F
:102280008F5F873079F78EE78093EA001092EA003B
:102290008F8980937F01DBCE8B8D9C8D1092E9001E
:1022A000109263011092620190936101809360012A
:1022B000898D811192C08E899D89913A49F481322C
:1022C00009F07DCF47E050E064E071E080E0B3CFFB
:1022D000913209F074CF833269F48F89988DB0E020
:1022E000A0E08093000190930101A0930201B093BC
:1022F0000301ADCE803269F48091E80082FFFCCF0B
:1023000067E084E091E00E94CA088BEF8093E800C8
:102310009ECE823209F09BCE8F8980930B01EEEF27
:10232000FFE7859194918B3F9C4D51F1E0E0F8E0FF
:102330008091040190910501A0910601B0910701DF
:10234000803B9440A105B105F1F480910B0180FD23
:102350001AC0EE3F8AE0F80789F587E797E791838F
:102360008083809160008093640188E19BE00FB6D8
:10237000F894A895809360000FBE9093600067CE9C
:10238000EEEFFAE0D5CF808191818737974709F04A
:102390005ECEA895809160008861809360008091F6
:1023A000640180936000EE3F2AE0F20789F080919B
:1023B000FE0A9091FF0A9183808349CE80819181AA
:1023C0008737980751F29093FF0A8093FE0AC5CF92
:1023D0001092FF0A1092FE0A3ACE0E94FD07DC011D
:1023E00012960D911C910115110509F4E8CED80142
:1023F000ED91FC910190F081E02DBE016B5E7F4F6D
:10240000C8010995811123CEF80100851185EBCF14
:10241000181619060CF41BCED2CEF1E0FF12BECE78
:1024200060E176E004CF0F920FB68F939F93EF9306
:10243000FF9380915B018D5F8D3708F08D578093FE
:102440005B01E8E6F1E080818E4F808391819F4FB0
:10245000918382818F4F828383818F4F8383ECE5C9
:10246000F1E080818F5F808381818F4F81838281C2
:102470008F4F828383818F4F83838FB18F60669963
:102480001C9B88278F3681F480915A01981B9630C7
:1024900068F0E0E0F8E087E78083818388E180935B
:1024A0006000F0936000FFCF90935A01FF91EF918D
:1024B0009F918F910FBE0F9018951F920F920FB69C
:1024C0000F921124CF92DF92EF92FF922F933F93BE
:1024D0004F935F936F937F938F939F93AF93BF932C
:1024E000CF93DF93EF93FF93809156019091570123
:1024F000A0915801B0915901892B8A2B8B2B09F49B
:1025000046C08091550181110BC088B190E48927A4
:1025100088B980915401882319F08BB180588BB908
:102520008091560190915701A0915801B0915901A5
:10253000181619061A061B069CF4809156019091F4
:102540005701A0915801B09159010197A109B10912
:102550008093560190935701A0935801B09359016D
:10256000FF91EF91DF91CF91BF91AF919F918F91AB
:102570007F916F915F914F913F912F91FF90EF90DD
:10258000DF90CF900F900FBE0F901F9018950E9474
:10259000380A811520E8920761F4809171008D7FDF
:1025A000809371001092910046985F9810925301A9
:1025B000D7CF21E020935301813020E8920731F4F6
:1025C00010925201109251010E94380A97FD05C0E5
:1025D00020915001222309F454C020914F01211170
:1025E00050C021E020935401EC01DF77209709F0DF
:1025F0004BC081E08093550146983FE9C32E3FE0F0
:10260000D32EE12CF12CCAEFD0E0E0910206F0913C
:1026100003060995811103C081E0809355018091E3
:102620005401882329F080915501882309F43FC083
:102630005F980E94380A0097F1F19C01DE010E9428
:10264000F320DC01CB0129E0B595A79597958795F7
:102650002A95D1F7109290002AE020939100D09211
:102660009900C09298008093560190935701A093CF
:102670005801B0935901809171008260809371007C
:102680006FCF10925401B0CF9E0150E040E060E463
:1026900072E48FE090E00E949F2069017A0181E05E
:1026A000C81AD108E108F10810925501AECF469939
:1026B000BFCF5F9ABECF8FEF9FEFDC01CBCF0F93E1
:1026C0001F93CF93DF938C0181E090E00E949720CD
:1026D00080FF31C08AE090E00E9497209FEF980F22
:1026E0009E3F48F522E330E0D80150963C932E936C
:1026F0001F9728E330E052963C932E935197CBE0FE
:10270000D0E0D801ED91FC910190F081E02D682F8F
:10271000C8010995CE010E9497202196C131D105AB
:1027200081F70E94A50788EE93E0DF91CF911F917A
:102730000F910C948509DF91CF911F910F9108950E
:1027400004970C945F13E4EAF5E01382128288EE9A
:1027500093E0A0E0B0E084839583A683B78385E20D
:1027600091E0918380838FEF9FEF95878487E4E0EA
:10277000F6E0138212821186128680E1838710862A
:102780001782158687E391E09183808385E491E049
:1027900095838483108A1786128A118A81E0838B3D
:1027A000148A858B168A88E995E0909303068093B6
:1027B000020680E090E89093010680930006469818
:1027C0003E9A5F98579A0895CDB7DEB7E297DEBF7D
:1027D000CDBF789483E084BD83E085BD81E08093A4
:1027E0006E00E1E8F0E083E08083E0E881E0808350
:1027F000E1E983E08083E0E981E08083E1EC87E048
:102800008083E3EC81E08083E0EC82E08083E2EC93
:1028100081E08083EAE787E080838068808310928C
:102820007F0110926701109266018091D70081604C
:102830008093D70080EA8093D80089B5806189BDF4
:1028400089B5826089BD89B5082F01700AA780FF0C
:10285000FACF81E090E00E9485098091D8008F7CBA
:1028600080618093D8008091E000807F8093E000B9
:102870008091E1008E7E8093E1008DE08093E20004
:10288000559A209A81EC80937C0081E785B987E690
:1028900084B985E38BB98FE38AB9769A6E9880EF15
:1028A00081BB10BA80E58CBD81E08DBD0E94990985
:1028B000599A0E9499095C98E6E3F6E085918EBDED
:1028C00000000DB407FEFDCFE034C1F75C9A81E84B
:1028D0008093640011E01093650060E073E081E094
:1028E00090E00E941D2490936F0180936E011093DD
:1028F00070010E94200ACB010E94E81F80916400B1
:102900008E7F8093640080917A00806480937A0047
:1029100080917A0086FDFCCF0091780010917900BB
:102920000E94200AAB01BC01C801B0E0A0E0DC01BC
:10293000992788278C019D01040F151F261F371F1B
:10294000C901B801209164002160209364006115E1
:1029500071058105910511F00E948E208FEF9FEF88
:102960009093B1058093B00510926D0110926C01A7
:102970001092710181E080939A0190916801809199
:102980001006192F181B812F20911106222359F0B0
:10299000109312061092110680E090E0892B69F3E3
:1029A0000E940000EACF30910F06131740F48F5FAA
:1029B000831790F781E083BF889513BEEDCF81E048
:1029C0008093110690931006EBE0F6E080819181F0
:1029D000019680839183E4EAF1E021112FEF8FEFDC
:1029E00021932193219321938150D0F710921606C1
:1029F0001092150610921406109213060E944C0AAB
:102A000083FF05C0809171018160809371010E94F4
:102A10004C0A82FF05C08091710182608093710130
:102A20001091700110FF61C000E420E849ED56E00C
:102A300070E060E090E080E00E949A051092140639
:102A40001092130688E390E0909316068093150683
:102A500088EC96E00E94C50B8091710180FF0CC04C
:102A60000E944C0A83FD08C082E18093700110929D
:102A70009B0184E180939C010E944C0A83FD05C068
:102A8000809171018E7F809371010E944C0A82FDBA
:102A900005C0809171018D7F809371010E944C0A65
:102AA00087FD05C0809171018B7F809371010E9429
:102AB0004C0A84FD05C080917101877F809371016C
:102AC0000E944C0A85FD05C0809171018F7E809324
:102AD00071010E944C0A86FD05C0809171018F7DB5
:102AE000809371010E94A50757CF212F22702CA33C
:102AF00011FF84C21092140610921306109216064B
:102B0000109215068AEB96E00E94C50B10921406EF
:102B10001092130688E390E09093160680931506B2
:102B200089EA96E00E94C50B1091710112FD0DC05B
:102B30000E944C0A87FF09C080919B01811181503E
:102B400080939B011460109371011091710113FD2A
:102B50000EC00E944C0A84FF0AC080919B01811123
:102B600081E08F5F80939B01186010937101109139
:102B7000710114FD10C00E944C0A85FF0CC0106149
:102B80001093710180919B0181110CC180917001A2
:102B90008061809370010E944C0A85FF16C080916D
:102BA0009B01823091F480910B0690910C0663E0BA
:102BB00070E00E94E323892B41F480919C018B30CB
:102BC0000CF4F7C0815080939C011091710115FDA8
:102BD00010C00E944C0A86FF0CC010621093710155
:102BE00080919B018111E7C0809170018F7E80935D
:102BF00070010E944C0A20919B0186FF14C0223074
:102C000091F480910B0690910C0663E070E00E94B5
:102C1000E323892B41F480919C0188330CF0D2C0CE
:102C20008F5F80939C013AE0239FB00111247B01C8
:102C30008FE0E80EF11C9B01255F3F4F635F7F4FE4
:102C400010E000E050E040E083E090E00E943206B7
:102C500086E090E090931406809313068AE090E05B
:102C600090931606809315068AE996E00E94C50B9C
:102C70008091700184FFA8C087E896E00E94C50B90
:102C800086E090E0909314068093130684E190E030
:102C900090931606809315068BE896E00E94C50B6C
:102CA0008091700185FF93C082E796E00E94C50B7A
:102CB00086E090E090931406809313068EE190E0F6
:102CC000909316068093150685E796E00E94C50B43
:102CD00020919C0130E050E040E019A28E010F5D90
:102CE0001F4FCA01B9012AE030E040E050E00E94E5
:102CF000D120605DD8016E938D012115310541050C
:102D0000510579F7109769F0FD0101900020E9F76E
:102D10003197AF014A1B5B0BBD0184E096E00E9436
:102D2000D7088091710180FFEFC00E944C0A83FD9B
:102D3000EBC080919C018093840180938901109263
:102D40009B01E0916E01F0916F01CF019D5F1192A7
:102D50008E179F07E1F72AE0522E16E006E0F12CCD
:102D6000E12C34E0A32EB12C4BE0842E912C58E0C2
:102D7000C52ED12C68EF362E44244394101728F02A
:102D8000412E011718F444244A94410E5A945110CC
:102D900045C00630F8F40E94E31FB6010E94F723F5
:102DA000080F20C0813009F0F6CE809170018F7D30
:102DB000F0CE8AE008CF813009F01BCF80917001FE
:102DC000806215CF88E32DCF84E896E057CF8CE65C
:102DD00096E06CCF033180F10E94E31FB6010E94A0
:102DE000F723081B0E94E31FB5010E94F7239AE016
:102DF000592E580E3701650C711CB1EF6B1671041A
:102E000068F00E94E31F06E0E7EF6E16710430F4ED
:102E100065E070E00E94F72304E0080F712C612E3A
:102E2000F7E0F61580F44FEF672D8E2D0E94300CE1
:102E300028EF620E7394F4CF0E94E31FB4010E9446
:102E4000F7230450ADCF612F669566956695E12F07
:102E5000639DE00D1124633099F08E2DE150E73031
:102E600060F4F0E0EA5CF84E0C940B249C179E177B
:102E7000A017A217A417A617A81740E00E94300CAD
:102E80003FEFE31AF30A142DE11481E0F80609F08C
:102E900073CF82E0809380018AE280938101109257
:102EA0008201909184019093830198EF9093850122
:102EB0008093860110928701809189018093880117
:102EC0008091700184FF48C00E94E31F68E070E0B9
:102ED0000E94F72380939D010E94E31F64E670E047
:102EE0000E94F723C297B4F591E080919D01899FDC
:102EF000802D112480939D0180939C01809170010D
:102F00008D7F84608093700180919B01811134C01A
:102F1000809170010FE0E02EF12C84FF22C00BE7BE
:102F200010E02DE030E04DE750E06BE070E08BE723
:102F300090E00E943206A0CD41E0A0CF43E09ECFBA
:102F400047E09CCF4FE09ACF4FE198CF4FE396CF29
:102F50004FE794CF9FEFC9CF10929D0110929C0133
:102F6000CDCF04E510E02BE030E044E550E06DE02B
:102F700070E082E590E0DDCF8130C9F4809170018E
:102F800019E1E12EF12C85FF09C004E510E025E1EF
:102F900030E044E550E067E170E0EBCF0BE710E094
:102FA00027E130E04DE750E065E170E0C0CF8230CE
:102FB00009F062CD80919C0188337CF4B3E2EB2E62
:102FC000F12C0BE710E021E230E04DE750E06FE13B
:102FD00070E08BE790E00E94320680919C018B307C
:102FE0000CF44ACDA3E2EA2EF12C04E510E02FE127
:102FF00030E044E550E061E270E0BBCF12FF61C712
:1030000080919A018C7019F50E944C0A82FFE9C1E7
:103010000E944C0A85FF0BC080916C0190916D015C
:10302000009709F0019790936D0180936C010E94C5
:103030004C0A86FF0CC080916C0190916D018F3716
:10304000910508F4019690936D0180936C011091A5
:103050009A0112FFCFC3C0908E01D0908F01E090F3
:103060009001F090910120E030E0A901C701B60184
:103070000E946F2187FDB7C320908A0100918B01C8
:103080000AA300918C010BA330908D0120E030E069
:10309000A901622D7AA1802F932D0E946F2187FDB7
:1030A000A2C320E030E040E853E4622D7AA1802FF3
:1030B000932D0E94122318160CF495C3809196014B
:1030C00090919701A0919801B09199018DA39EA331
:1030D000AFA3B8A79C01AD01C701B6010E940321AF
:1030E0004B015C0120E030E040EC51E40E946F2194
:1030F00087FD0AC020E030E040EC51E4C701B60192
:103100000E946F2187FFF6C22091920130919301B6
:103110004091940150919501622D7AA18BA1932D3C
:103120000E940321222D3AA14BA1532D0E9402217E
:1031300020E030E040E251E40E9479216BA77CA7B7
:103140008DA79EA7A7019601C501B4010E94022187
:1031500020E030E040E251E40E9479216FA778AB93
:1031600089AB9AAB622D7AA18BA1932D0E94F2219B
:10317000062FC701B6010E94F221162F422C5AA039
:103180006BA0732C9AE099A7183130F4612F802F2F
:103190000E94E50B813029F120E030E0A9016DA10A
:1031A0007EA18FA198A50E946F2187FF10C0412F9B
:1031B000602F80E891E00E94110C811112C0412F14
:1031C000602F85E891E00E94110C81110AC020E077
:1031D00030E0A901C701B6010E946F2118160CF456
:1031E00041C2602F70E090E080E00E942122609355
:1031F0008A0170938B0180938C0190938D01612FD4
:1032000070E090E080E00E94212260938E01709334
:103210008F018093900190939101C0908E01D09086
:103220008F01E0909001F090910120E030E040E8C3
:1032300050E4C701B6010E9403210E94F221162F1B
:1032400020E030E040E850E4C701B6010E941223BC
:10325000712C87FD0BC020E030E040E850E4C7014E
:10326000B6010E9402210E94F221762EF12EB7E1D2
:10327000B11710F457E1F52E80908A0190908B01E0
:10328000A0908C01B0908D0120E030E040E850E447
:10329000C501B4010E946F2100E087FD0BC020E052
:1032A00030E040E850E4C501B4010E9402210E94D0
:1032B000F221062F20E030E04CE753E4C501B401D1
:1032C0000E94122387FF61C320E030E040E850E411
:1032D000C501B4010E9403210E94F221862EA02E76
:1032E000B12CE3E00E9F80011124EA2CA81408F011
:1032F00055C3C72CD12C15010B2C000C44085508C4
:103300009C2CCF1408F044C3C201B1010E942322B7
:103310009B01AC0160918A0170918B0180918C01BD
:1033200090918D010E9402210E94EB21662EB60130
:103330000D2C000C880B990B0E9423229B01AC01E1
:1033400060918E0170918F01809190019091910117
:103350000E9402210E94EB216602B0011124F62D89
:10336000FF02600D711D11246A307105B4F5E09102
:103370006E01F0916F01E00FF11F6C2D669566955F
:103380006695E60FF11D8C2D877041E050E001C07D
:10339000440F8A95EAF74095808148238E2D0E943C
:1033A000300C4C2D6E2D80E891E00E94110C88238A
:1033B00031F0809183018111815080938301492DE7
:1033C0006E2D85E891E00E94110C882331F08091E8
:1033D000880181118150809388012FEFC21AD20A8F
:1033E0008FCF80919A01982F917030E020E080FD7E
:1033F00002C02FE730E030936D0120936C018370A1
:1034000009F425CE15FFCEC09111D0C080919B014B
:1034100081119DC06091800170E090E080E00E9489
:1034200023226B017C018CE00E947C0C9B01AC018F
:10343000C701B6010E94022120E030E0A9010E94EC
:1034400012236091800170E090E018160CF067C0C4
:1034500080E00E9423226B017C018CE00E947C0CA6
:103460009B01AC01C701B6010E9402216B017C01E6
:1034700064E0362E7DE2A72EECE0BE2EF8E28F2E21
:10348000912C0E94E31F64E070E00E94F7231EEF7E
:103490001B0D180F0E94E31FB4010E94F7230CEECE
:1034A0000A0D080F812F0E947C0C2B013C016091BA
:1034B000800170E090E080E00E942322A30192014D
:1034C0000E9402212B013C0120E030E0A9010E9472
:1034D00012231816CCF1C301B2019058A70196012E
:1034E0000E946F2187FF10C020E030E0A901C301D6
:1034F000B2010E94122373016201181624F0F7FA38
:10350000F094F7F8F09458013A943110BACFA092A1
:10351000A201B092A30181E080939B0198CD80E04D
:103520000E9423226B017C018CE00E947C0C9B0199
:10353000AC01C701B6010E9402216B017C01F7FAC0
:10354000F094F7F8F09494CFC301B201C7CF209163
:103550000B0630910C0623703327232B09F077CD0F
:103560002091A3018217B0F48F5F80939B0190910B
:1035700087013091A201931788F49F5F9093870190
:10358000391365CD281363CD61E085E891E00E9491
:10359000AB0D5DCD281748F78150E7CF391770F78D
:1035A0009150ECCF05E811E0992311F000E811E00B
:1035B0000E944C0A87FF09C0D80112968C91893568
:1035C00008F088E58F5FF80182830E944C0A84FF2F
:1035D00009C0D80112968C91823008F482E08150A3
:1035E000F80182830E944C0A85FF14C080910B066B
:1035F00090910C066AE070E00E94E3239C0191E048
:10360000232B09F090E080919B01891B09F48AA586
:1036100080939B010E944C0A86FF15C080910B0687
:1036200090910C066AE070E00E94E3239C0191E017
:10363000232B09F090E080919B01890F813108F0E4
:1036400080E180939B010E944C0A83FF00CD809112
:103650009B01882309F4FBCC60919A01609561700D
:10366000C80195CF2BA53CA54DA55EA5B201C30110
:103670000E9403212B013C012FA538A949A95AA971
:10368000C701B6010E9403216B017C0120E030E0FC
:10369000A901B201C3010E946F2187FD2BC020E068
:1036A00030E040E853E4B201C3010E94122318162F
:1036B0000CF1B201C3010E94F221062FC701B6012D
:1036C0000E94F221162FA9A5A150A9A7A1115CCD96
:1036D000683130F4802F0E94E50B813009F481CDF0
:1036E00020E030E0A901C701B6010E946F21181641
:1036F0000CF077CD4090920150909301609094012E
:1037000070909501A3019201622D7AA18BA1932D56
:103710000E9403216B017C01C0928A01D0928B012F
:10372000E0928C01F0928D0180928E0190928F0137
:10373000A0929001B092910160919C01062E000C24
:10374000770B880B990B0E9423222AE037ED43E286
:103750005CE30E941723A30192010E94032160935E
:1037600092017093930180939401909395012AE9BB
:1037700039E949E15EE36DA17EA18FA198A50E9480
:1037800002212B013C0120E030E040E251EC0E949C
:103790006F2187FFC3C380E090E0A0E2B1EC80938B
:1037A000960190939701A0939801B093990120E01E
:1037B00030E040E852E4C701B6010E946F2187FD66
:1037C00029C120E030E040E453E4C701B6010E9483
:1037D000122318160CF05DC18FE790E090936D01F5
:1037E00080936C011BC11370186010939A018CE3D5
:1037F00080939B0180919A0183FF74C080919B010B
:103800008111815080939B0180919C0190919D0139
:1038100020910B0630910C06891761F0A9014770C1
:103820005527452B39F489170CF050C191E0890FC9
:1038300080939C0123703327232B09F053C0B12CB4
:1038400002E010E0E0916E01F0916F01E00FF11FD6
:10385000DF0112978C91208190E0B0E0A22F319788
:103860002081922B0097A105B105F1F030E020E016
:1038700041E050E060E070E0022E04C0440F551FAC
:10388000661F771F0A94D2F76C017D01C422D522EE
:10389000E622F722CD28CE28CF2809F419C12F5FC0
:1038A0003F4F2931310521F70D5F1F4FB39402308F
:1038B00083E0180739F680919B01811113C0909124
:1038C0009C0180919D0198130DC080919A0180FF09
:1038D0003AC182E080939A018FE790E090936D0166
:1038E00080936C01F12CE12CA0906C01B0906D01E3
:1038F000C501877099276701C81AD90A08E028E02E
:1039000044E656E060E370E0C6010E949A0528E0B4
:1039100044E656E068E370E0C6010E949A0598E02C
:10392000E90EF11CA8E8EA16F104F1F64A2C35017B
:10393000B0E86B0E711C13E0312EE42CF12CE61470
:10394000F70408F05EC1439C4001112409E210E035
:10395000EA18FB08E0916E01F0916F01E80DF91D86
:103960005080EFEF5E12F7C048E0B8016150710976
:10397000C7010E946F0AFFEF8F1A9F0A08501109B2
:103980000131110539F74394D8CF88248A94A7CC04
:103990000D5F1F4F3FEFA31AB30AA7CC809183019D
:1039A000882321F080918801811107C081E08093F4
:1039B0009A0188E0809370011DCF80919A018370F5
:1039C000886080939A018CE380939B0180917001C1
:1039D00084FF1BC00E94E31F68E070E00E94F72391
:1039E00080939D010E94E31F64E670E00E94F7232C
:1039F000C2974CF491E080919D01899F802D112404
:103A000080939D01F7CE9FEFF6CF10929D0110920B
:103A10009C01F0CE10926D0110926C01A5019401F1
:103A200060E070E080E492E40E9402212B013C01FE
:103A300020E030E0A9010E94122318160CF0DACE23
:103A400020E030E040E852E4C301B2010E946F215F
:103A500087FFD0CEC501B4010E94F22100E3061B0E
:103A600010E060916C0170916D0190E080E00E9427
:103A700021229B01AC01C701B6010E9402210E94D4
:103A8000F221862F21E041E0B80190E00E94950AE2
:103A9000B1CE20E030E040E852E4C701B6010E9418
:103AA00002212B013C0120E030E04EEF52E40E9465
:103AB00012236FE770E0181624F0C301B2010E94D0
:103AC000F22170936D0160936C01A8CF9FEFAFCE90
:103AD000283109F4E9CE442455243201441A550A08
:103AE000660A770A482259226A227B22411451042D
:103AF0006104710409F4D8CE41505109610971097A
:103B000084239523A623B72373016201F694E794D7
:103B1000D794C794C82AD92AEA2AFB2AA70166277C
:103B2000772762E08B2D0E94300C77276F2D5E2D5A
:103B30004D2D61E08B2D0E94300C4C2D60E08B2DC3
:103B40000E94300CB1CE81E080939A0110926D01F9
:103B500010926C01C7CE552009F40DCFC52CD12C85
:103B6000A60166E0559547956A95E1F74170B80161
:103B7000C7010E94540AA60175E0559547957A95AC
:103B8000E1F74170B8016F5F7F4FC7010E94540A8F
:103B9000A601E4E055954795EA95E1F74170B80133
:103BA0006E5F7F4FC7010E94540AA601F3E055954E
:103BB0004795FA95E1F74170B8016D5F7F4FC701F6
:103BC0000E94540AA6015595479555954795417011
:103BD000B8016C5F7F4FC7010E94540AA60155953A
:103BE00047954170B8016B5F7F4FC7010E94540A2F
:103BF000452D4170B8016A5F7F4FC7010E94540A8A
:103C0000BACE8091800190E00696A816B90628F4F5
:103C100060E080E891E00E94560E80918501861553
:103C2000170428F461E085E891E00E94560E2AE02E
:103C300040E870E060E090E080E00E94950A2AE0B1
:103C40004CE670E060E08AE090E00E94950A4AE06D
:103C500070E060E081E490E00E946F0A0CE010E008
:103C6000109314060093130621E030E030931606FB
:103C70002093150680E696E00E94C50B83E490E051
:103C80009093140680931306A1E0B0E0B09316065B
:103C9000A09315068CE596E00E94C50B4AE070E003
:103CA00060E085E590E00E946F0A4AE070E060E025
:103CB0008EE190E00E946F0A80919A018C70C1F5AC
:103CC00000919B01000F30E2E32EF12C10E0005E2A
:103CD0001F4FE016F10654F446E062E070E0C701C1
:103CE0000E946F0ABFEFEB1AFB0AF3CF80919A0193
:103CF00080FF0DC002E010E046E062E070E0C80125
:103D00000E946F0A0F5F1F4F09301105A9F78091BC
:103D10009A0181FF0DC007E710E046E062E070E025
:103D2000C8010E946F0A0F5F1F4F0E371105A9F7D8
:103D300041E068E070E084E690E00E946F0A41E0B4
:103D400068E070E086E690E00E946F0A46E064E07A
:103D500070E085E690E00E946F0AC0909E01D090CE
:103D60009F01E090A001F090A10120E030E040E050
:103D700053E4C701B6010E946F2187FF55C02DECA7
:103D80003CEC4CEC5DE3C701B6010E94032160935B
:103D90009E0170939F018093A0019093A1010091D7
:103DA0009C0107FF45C0000F0B599EEFD92E2CE058
:103DB000C22E10E0ECA1EE2EF12C80919C01181681
:103DC000CCF5880F990BE816F906CCF5B7010F2C46
:103DD000000C880B990B0E94232220919E013091A8
:103DE0009F014091A0015091A1010E9403210E94D6
:103DF000EB21862F6C2D0E94D5236FEF93302CF092
:103E0000975061E0933008F060E0062E000C770BCD
:103E10006E5F7F4F45E0C8018E0D9F1D0E946F0AA7
:103E20002CA12F5F2CA3C6CF60E070E0CB01AFCFF9
:103E300005E6BBCFFD2D8F02C0011124C4CF4091F8
:103E400084014C5F27E06BE070E090E080E00E942E
:103E5000950A9091890144E0490F27E06BE070E0FA
:103E6000ECE7F0E0DF01A91BB109CD010E94950A42
:103E70000091830182E0E82EF12C10E00E5F1F4FCD
:103E8000E016F10654F443E06DE070E0C7010E94D3
:103E90006F0ABFEFEB1AFB0AF3CF809188010EE7A0
:103EA00010E0081B11090E37110511F40C943C1594
:103EB00043E06DE070E0C8010E946F0A0F5F1F4F82
:103EC000F2CF13FD02C00C943C1510921406109210
:103ED0001306109216061092150680918301811127
:103EE00004C08EE496E00E94C50B80918801811188
:103EF00004C080E496E00E94C50B8091710180FDB2
:103F000002C00C943C150E944C0A83FF02C00C9422
:103F10003C1581E0809370010C943C154092960111
:103F200050929701609298017092990140CC8F92C3
:103F30009F92AF92BF92CF92DF92EF92FF92CF9378
:103F4000DF93EC01688179818A819B81611571051C
:103F50008105910521F464E279ED8BE597E02DE18F
:103F600033EF41E050E00E949F2049015A019B013C
:103F7000AC01A7EAB1E40E94BE206B017C01ACEE6B
:103F8000B4EFA50194010E94CC20DC01CB018C0D83
:103F90009D1DAE1DBF1DB7FF03C00197A109B0480D
:103FA00088839983AA83BB839F77DF91CF91FF900A
:103FB000EF90DF90CF90BF90AF909F908F9008953B
:103FC0000E94971F08958CE091E00E94971F08952A
:103FD000B0E0A0E080930C0190930D01A0930E013E
:103FE000B0930F0108958F929F92AF92BF92CF929C
:103FF000DF92EF92FF92CF93DF93EC01688179819A
:104000008A819B81611571058105910521F464E226
:1040100079ED8BE597E02DE133EF41E050E00E9430
:104020009F2049015A019B01AC01A7EAB1E40E941B
:10403000BE206B017C01ACEEB4EFA50194010E949F
:10404000CC20C60ED71EE81EF91EF7FE06C081E082
:10405000C81AD108E10880E8F80AC882D982EA8241
:10406000FB82C701B6019F77DF91CF91FF90EF9060
:10407000DF90CF90BF90AF909F908F9008958F92D8
:104080009F92AF92BF92CF92DF92EF92FF92609198
:10409000100170911101809112019091130161152D
:1040A00071058105910521F464E279ED8BE597E0D6
:1040B0002DE133EF41E050E00E949F2049015A0179
:1040C0009B01AC01A7EAB1E40E94BE206B017C0118
:1040D000ACEEB4EFA50194010E94CC20C60ED71E11
:1040E000E81EF91EF7FE06C081E0C81AD108E108F3
:1040F00080E8F80AC0921001D0921101E0921201FA
:10410000F0921301C701B6019F77FF90EF90DF9007
:10411000CF90BF90AF909F908F90089560931001C3
:104120007093110180931201909313010895F999EE
:10413000FECF92BD81BDF89A992780B50895052ECE
:1041400097FB1EF400940E94B62057FD07D00E94F2
:10415000D12007FC03D04EF40C94B6205095409526
:10416000309521953F4F4F4F5F4F08959095809523
:10417000709561957F4F8F4F9F4F08950E94F32058
:10418000A59F900DB49F900DA49F800D911D1124AB
:104190000895B7FF0C94BE200E94BE20821B930B93
:1041A0000895A1E21A2EAA1BBB1BFD010DC0AA1F78
:1041B000BB1FEE1FFF1FA217B307E407F50720F090
:1041C000A21BB30BE40BF50B661F771F881F991F0B
:1041D0001A9469F760957095809590959B01AC0154
:1041E000BD01CF010895A29FB001B39FC001A39F5D
:1041F000700D811D1124911DB29F700D811D112420
:10420000911D08955058BB27AA270E941A210C948B
:10421000C4220E948B2238F00E94922220F039F4AE
:104220009F3F19F426F40C9488220EF4E095E7FBE6
:104230000C948222E92F0E94E92258F3BA176207F0
:1042400073078407950720F079F4A6F50C940B23E7
:104250000EF4E0950B2EBA2FA02D0B01B9019001A1
:104260000C01CA01A0011124FF27591B99F0593FE5
:1042700050F4503E68F11A16F040A22F232F342F2D
:104280004427585FF3CF469537952795A795F0407B
:104290005395C9F77EF41F16BA0B620B730B840B90
:1042A000BAF09150A1F0FF0FBB1F661F771F881F48
:1042B000C2F70EC0BA0F621F731F841F48F48795A0
:1042C00077956795B795F7959E3F08F0B0CF939592
:1042D000880F08F09927EE0F9795879508950E940B
:1042E0005E2208F481E008950E949B22E3950C94DD
:1042F000D5220E948D210C94C4220E94922258F053
:104300000E948B2240F029F45F3F29F00C94822216
:1043100051110C940C230C9488220E94E92268F31A
:104320009923B1F3552391F3951B550BBB27AA276E
:1043300062177307840738F09F5F5F4F220F331FA8
:10434000441FAA1FA9F335D00E2E3AF0E0E832D070
:1043500091505040E695001CCAF72BD0FE2F29D073
:10436000660F771F881FBB1F261737074807AB0745
:10437000B0E809F0BB0B802DBF01FF2793585F4FBA
:104380003AF09E3F510578F00C9482220C940C2355
:104390005F3FE4F3983ED4F3869577956795B7959C
:1043A000F7959F5FC9F7880F911D9695879597F9A7
:1043B0000895E1E0660F771F881FBB1F6217730720
:1043C0008407BA0720F0621B730B840BBA0BEE1F35
:1043D00088F7E09508950E94F2216894B1110C9439
:1043E0000C2308950E94F12288F09F5798F0B92F6E
:1043F0009927B751B0F0E1F0660F771F881F991F1A
:104400001AF0BA95C9F714C0B13091F00E940B238D
:10441000B1E008950C940B23672F782F8827B85F9D
:1044200039F0B93FCCF3869577956795B395D9F771
:104430003EF490958095709561957F4F8F4F9F4F7B
:104440000895E89409C097FB3EF490958095709587
:1044500061957F4F8F4F9F4F9923A9F0F92F96E9D0
:10446000BB279395F695879577956795B795F11145
:10447000F8CFFAF4BB0F11F460FF1BC06F5F7F4FE2
:104480008F4F9F4F16C0882311F096E911C07723F4
:1044900021F09EE8872F762F05C0662371F096E8FD
:1044A000862F70E060E02AF09A95660F771F881FCC
:1044B000DAF7880F9695879597F90895990F000870
:1044C000550FAA0BE0E8FEEF16161706E807F907E6
:1044D000C0F012161306E407F50798F0621B730B81
:1044E000840B950B39F40A2661F0232B242B252B02
:1044F00021F408950A2609F4A140A6958FEF811DA5
:10450000811D089597F99F6780E870E060E0089545
:104510009FEF80EC089500240A94161617061806DB
:104520000906089500240A941216130614060506B7
:1045300008950C9488220E94F122D8F3E894E0E0D8
:10454000BB279F57F0F02AED3FE049EC06C0EE0F85
:10455000BB0F661F771F881F28F0B23A62077307E8
:10456000840728F0B25A620B730B840BE3959A957B
:1045700072F7803830F49A95BB0F661F771F881F3B
:10458000D2F790480C948E23092E0394000C11F45A
:10459000882352F0BB0F40F4BF2B11F460FF04C01E
:1045A0006F5F7F4F8F4F9F4F0895EF93E0FF07C0DE
:1045B000A2EA2AED3FE049EC5FEB0E941A210E943B
:1045C000C4220F90039401FC9058ECEAF0E00C94A4
:1045D0009A2357FD9058440F551F59F05F3F71F0D3
:1045E0004795880F97FB991F61F09F3F79F087955A
:1045F0000895121613061406551FF2CF4695F1DFE3
:1046000008C0161617061806991FF1CF8695710572
:10461000610508940895E894BB2766277727CB01A6
:1046200097F908950E945E2208F48FEF08950E9482
:104630002A230C94C4220E948B2238F00E949222DA
:1046400020F0952311F00C9482220C9488221124DE
:104650000C940C230E94E92270F3959FC1F3950FEF
:1046600050E0551F629FF001729FBB27F00DB11DF6
:10467000639FAA27F00DB11DAA1F649F6627B00D86
:10468000A11D661F829F2227B00DA11D621F739F6F
:10469000B00DA11D621F839FA00D611D221F749F7D
:1046A0003327A00D611D231F849F600D211D822FC4
:1046B000762F6A2F11249F5750409AF0F1F08823EB
:1046C0004AF0EE0FFF1FBB1F661F771F881F915018
:1046D0005040A9F79E3F510580F00C9482220C9423
:1046E0000C235F3FE4F3983ED4F386957795679566
:1046F000B795F795E7959F5FC1F7FE2B880F911D42
:104700009695879597F908959F930E949B220F9005
:1047100007FCEE5F0C94D5229F3F31F0915020F4BE
:10472000879577956795B795880F911D969587958D
:1047300097F908959F938F937F936F93FF93EF93D0
:104740009B01AC010E941723EF91FF910E94AE23C1
:104750002F913F914F915F910C941723DF93CF934B
:104760001F930F93FF92EF92DF927B018C0168946D
:1047700006C0DA2EEF010E942A23FE01E894A591DB
:104780002591359145915591A6F3EF010E941A218B
:10479000FE019701A801DA9469F7DF90EF90FF908E
:1047A0000F911F91CF91DF91089587FB082E062668
:1047B00087FD819567FD61950E9411240EF4919506
:1047C00007FC81950895AA1BBB1B51E107C0AA1FD6
:1047D000BB1FA617B70710F0A61BB70B881F991FA2
:1047E0005A95A9F780959095BC01CD01089597FB46
:1047F000072E16F4009407D077FD09D00E94E3231A
:1048000007FC05D03EF4909581959F4F08957095D3
:1048100061957F4F0895EE0FFF1F0590F491E02DF5
:104820000994991B79E004C0991F961708F0961B0C
:10483000881F7A95C9F7809508950F931F93CF939A
:10484000DF93869F8001879F100D969F100D112486
:10485000C8010E943924EC01009729F0A80170E0FA
:1048600060E00E945E25CE01DF91CF911F910F91F4
:1048700008950F931F93CF93DF938230910510F427
:1048800082E090E0E0911D06F0911E0630E020E00D
:10489000B0E0A0E0309799F42115310509F44AC041
:1048A000281B390B24303105D8F58A819B8161158D
:1048B000710589F1FB0193838283FE0111C0408160
:1048C00051810281138148175907E0F048175907B1
:1048D00099F4109761F012960C93129713961C930B
:1048E0003296CF01DF91CF911F910F9108950093E0
:1048F0001D0610931E06F4CF2115310551F0421705
:10490000530738F0A901DB019A01BD01DF01F8016D
:10491000C1CFEF01F9CF90931E0680931D06CDCF36
:10492000FE01E20FF31F81939193225031093983E5
:104930002883D7CF20911B0630911C06232B41F4EE
:10494000209116013091170130931C0620931B060D
:1049500020911401309115012115310541F42DB735
:104960003EB74091180150911901241B350BE0917D
:104970001B06F0911C06E217F307A0F42E1B3F0B59
:104980002817390778F0AC014E5F5F4F24173507C1
:1049900048F04E0F5F1F50931C0640931B068193F7
:1049A00091939FCFF0E0E0E09CCFCF93DF9300970F
:1049B000E9F0FC01329713821282A0911D06B0919A
:1049C0001E06ED0130E020E01097A1F42081318136
:1049D000820F931F20911B0630911C062817390760
:1049E00009F061C0F0931C06E0931B06DF91CF91A4
:1049F0000895EA01CE17DF07E8F54A815B819E0141
:104A000041155105B1F7E901FB83EA8349915991B9
:104A1000C40FD51FEC17FD0761F4808191810296C8
:104A2000840F951FE90199838883828193819B83F9
:104A30008A83F0E0E0E012968D919C9113970097A5
:104A4000B9F52D913C911197CD010296820F931FDC
:104A500020911B0630911C062817390739F630972C
:104A600051F510921E0610921D06B0931C06A093DD
:104A70001B06BCCFD383C28340815181840F951F15
:104A8000C817D90761F44E5F5F4F88819981480F3D
:104A9000591F518340838A819B819383828321158F
:104AA000310509F0B0CFF0931E06E0931D069ECFAE
:104AB000FD01DC01C0CF13821282D7CFDC0101C01F
:0E4AC0006D9341505040E0F70895F894FFCFF9
:104ACE00FFFFFFFF00E100000000000001000000FA
:104ADE000100000000001F06800000C18081000060
:104AEE00000000000004099D0925091A096B092917
:104AFE0009470900000000C30AD708E20BE10B5F6B
:084B0E0013FCFF0000A01300DE
:00000001FF
