:100000000C9497050C94BF050C94BF050C94BF0588
:100010000C94BF050C94BF050C94BF050C94BF0550
:100020000C94BF050C94BF050C94140D0C94830D17
:100030000C94BF050C94BF050C94BF050C94BF0530
:100040000C94BF050C94BF050C94BF050C94BF0520
:100050000C94BF050C94BF050C94BF050C94B50F10
:100060000C94BF050C94BF050C94BF050C94BF0500
:100070000C94BF050C94BF050C94BF050C94BF05F0
:100080000C94FF0F0C94BF050C94BF050C94BF0596
:100090000C94BF050C94BF050C94BF050C94BF05D0
:1000A0000C94BF050C94BF050C94BF050000000024
:1000B000003E5B4F5B3E3E6B4F6B3E1C3E7C3E1CEE
:1000C000183C7E3C181C577D571C1C5E7F5E1C0034
:1000D000183C1800FFE7C3E7FF0018241800FFE7EB
:1000E000DBE7FF30483A060E2629792926407F05AE
:1000F0000507407F05253F5A3CE73C5A7F3E1C1CC4
:1001000008081C1C3E7F14227F22145F5F005F5F83
:1001100006097F017F006689956A6060606060946F
:10012000A2FFA29408047E040810207E2010080874
:100130002A1C08081C2A08081E101010100C1E0C7F
:100140001E0C30383E3830060E3E0E060000000011
:100150000000005F00000007000700147F147F14F8
:10016000242A7F2A1223130864623649562050003D
:1001700008070300001C2241000041221C002A1C29
:100180007F1C2A08083E0808008070300008080814
:100190000808000060600020100804023E51494534
:1001A0003E00427F400072494949462141494D3352
:1001B0001814127F1027454545393C4A49493141B9
:1001C000211109073649494936464949291E000087
:1001D00014000000403400000008142241141414DC
:1001E0001414004122140802015909063E415D59C8
:1001F0004E7C1211127C7F494949363E41414122D1
:100200007F4141413E7F494949417F090909013EFA
:10021000414151737F0808087F00417F4100204021
:10022000413F017F081422417F404040407F021C33
:10023000027F7F0408107F3E4141413E7F0909094A
:10024000063E4151215E7F09192946264949493216
:1002500003017F01033F4040403F1F2040201F3FDC
:100260004038403F63140814630304780403615961
:10027000494D43007F4141410204081020004141A3
:10028000417F04020102044040404040000307084F
:100290000020545478407F2844443838444444284B
:1002A000384444287F385454541800087E090218F2
:1002B000A4A49C787F0804047800447D400020407A
:1002C000403D007F1028440000417F40007C0478BE
:1002D00004787C080404783844444438FC18242406
:1002E0001818242418FC7C08040408485454542486
:1002F00004043F44243C4040207C1C2040201C3C03
:100300004030403C44281028444C9090907C4464F9
:10031000544C44000836410000007700000041368C
:10032000080002010204023C2623263C1EA1A16112
:10033000123A4040207A3854545559215555794144
:100340002154547841215554784020545579400C1B
:100350001E527212395555555939545454593955FC
:100360005454580000457C410002457D420001453F
:100370007C40F0292429F0F0282528F07C545545AC
:10038000002054547C547C0A097F4932494949323F
:100390003248484832324A4848303A4141217A3A54
:1003A00042402078009DA0A07D39444444393D401E
:1003B00040403D3C24FF2424487E4943662B2FFCCB
:1003C0002F2BFF0929F620C0887E09032054547979
:1003D000410000447D413048484A32384040227A4A
:1003E000007A0A0A727D0D19317D2629292F2826C7
:1003F0002929292630484D402038080808080808CF
:100400000808382F10C8ACBA2F102834FA00007B27
:10041000000008142A142222142A1408950022002D
:1004200095AA005500AAAA55AA55AA000000FF00E7
:10043000101010FF00141414FF001010FF00FF1024
:1004400010F010F0141414FC001414F700FF000056
:10045000FF00FF1414F404FC141417101F10101FD5
:10046000101F1414141F00101010F0000000001FC3
:10047000101010101F10101010F010000000FF10CE
:100480001010101010101010FF10000000FF1400CA
:1004900000FF00FF00001F10170000FC04F41414FC
:1004A0001710171414F404F40000FF00F7141414C8
:1004B00014141414F700F7141414171410101F1048
:1004C0001F141414F4141010F010F000001F101F6B
:1004D0000000001F14000000FC140000F010F010D9
:1004E00010FF10FF141414FF141010101F00000050
:1004F00000F010FFFFFFFFFFF0F0F0F0F0FFFFFF54
:100500000000000000FFFF0F0F0F0F0F38444438AA
:10051000447C2A2A3E147E02020606027E027E02E5
:1005200063554941633844443C04407E201E200604
:10053000027E020299A5E7A5991C2A492A1C4C7241
:1005400001724C304A4D4D303048784830BC625AC8
:10055000463D3E494949007E0101017E2A2A2A2A58
:100560002A44445F444440514A444040444A514034
:100570000000FF0103E080FF000008086B6B0836F5
:1005800012362436060F090F060000181800000066
:100590001010003040FF0101001F01011E00191D55
:1005A0001712003C3C3C3C00000000000000000032
:1005B00000000000000018BCFEC6C2C2C6FE3C001F
:1005C000FCFEC6C2C2C6FE3C0000D8C8002070F8BF
:1005D000F8202000F8FCFEF67E3E3C3800F8FCFED9
:1005E000C6C2C2C6FEFC00FEFEFE0606060CFCF0FD
:1005F00000FCFEC6C2C202000000000000000000B5
:1006000000000000000000000000000000000E1FBD
:100610001F101010191F0E001F1F181010101D1F83
:1006200006001F1F0000001F1F1808000F1F1F1FBC
:100630001E1E1E0C000F1F1F000000001F1F001FAA
:100640001F1F1818181C0F03001F1F101010100078
:100650000000000000000000000000008D14A1C890
:1006600081CFD9F102AFFF000F100C631807FE0015
:10067000E010608C30C0C0E0E0E0E0F0F8FC070F74
:100680000F0F0F1F3F7FFFFFFF1F0F07E7F7F7E772
:10069000E7EFFF0707073F3F3F070707FFFFF7F7B2
:1006A00007070707F7F7FF1F0F07E7F7F7E7E7EF7A
:1006B000FF0707071F0F0F47E7F7FF070707373742
:1006C000373737F7FF0707070F1F1F070707FFFF1A
:1006D0003FDFDF3FDFEFF7FBFDFEFEFEFCFDFBFA39
:1006E000F6F4EDE9DBD7B7AFAF5F5F3FBFDFDF6F9A
:1006F0006FB7B7DBD9EDECF6C60676F5ED9D79FB65
:10070000F7EFDFBCA39FFFFFFFFEFCF8F9FBFBF94F
:10071000F9FDFFF878383FBFBF383878FF3F3B3BE3
:10072000B8B8B8383B7BFF7E3C38B9BBBB39397DA4
:10073000FF783838BC38383879FBFF783838BB3B1D
:100740003B3B7BFBFFF8F8F8FEFCFCF8F878BF0FAA
:10075000F6F1EEDFBFBF7F7FFFFFFFFFFFFFFFFF71
:10076000FFFFFFFFFFFFFFFF3FCF33CCF3FDFEFF97
:10077000FFFF7F7FBFBFDFEFEFF0F0F7EBECF0FFA5
:10078000FFFFFFFFFFFFFFFFFFFFFFFFFFFFFFFF79
:10079000FFFFFFF0E0C0CFDFDFCFCFEFFFC0C0C073
:1007A000E3C1C1C0C8D8FFE0C0C0DFDFDFC0C0E028
:1007B000FFEEC8C8D9D9D9C1C1E3FFEEC8C8D9D99D
:1007C000D9C1C1E3FFFFFFFFFFFF3FCFF7F877AECF
:1007D000717FFFFFFFFFFFFFFEFEFEFDFDFBFB7BCA
:1007E0007777B7B7B77BFBFCF3FCF6F5FAF6F6F9CB
:1007F000FEFEFFFFFFFFFFFFFFFFFFFFFFFFFF1FEB
:1008000007030100C0E0FFFFFFFFFFFFFFFFFFFF47
:10081000FFFFFFFFFFFFFFFFFFFFFFFFFFFFFFFFE8
:10082000FFFFFFFFFFFFFF7F7F1F1F1F1F1F1F1FF8
:100830001F1F1F1F7F7F7F7F7F7F7F7FFFFFFFFF48
:10084000FFFFFFFFFFFFFFFFFFE09F3F7F7FFED91E
:1008500027276ECEDD9DBB3B7767EFCFCF59BAF729
:10086000E7F7FBFBFD7E3F3F3F3F7FFFFFFFFFFFC3
:10087000FFFFFFFFFFFF7F7F3FBF9FDFCFEFF0E076
:10088000E0C0C0C0E0F0FFFFFFFFFFFFFFFFFFFF82
:10089000FFFFFFFFFFFFFFFFFFFFFFFFFFFFFFFF68
:1008A000FFFFFFFFFFFFFF00008080F0E0F8F8F897
:1008B00078F8F8F8E6E61E1E8686E0F0F9F9F9F910
:1008C000F9017F7FFFFFFFFFFFFFFFFFFEFEFCFC44
:1008D000FBFBF6F4FCE9F9D3D3A6B27D7EFFFFFF64
:1008E000FF7F0F0100387C7C18000081DFEFEFF7FD
:1008F000F7FBFBFDFCFEFEFFFFFFFFFFFFFFFFFF1F
:10090000FFFFFFFFFFFFFFFFFFFFFFFFFFFFFFFFF7
:10091000FFFFFFFFFFFFFFFFFFFFFFFFFFFFFFFFE7
:10092000FFFFFFFFFF0F0FA040AB532B13CFCFFFF5
:10093000F8FFFFFFFFFFFEFEFFFFC7E7E7F7F3F952
:10094000FFFEFE0000FFFFFFFFFFFFFFFFFFFFFFB7
:10095000FFFFFFFFFFFFFFFFFFFFFFFFFFFEFEFEAA
:10096000FEFCF8F8F4F0F0F0F8FCFEFFFFFFFFFFEC
:10097000FFFFFFFFFFFFFFFFFFFFFFFFFFFFFFFF87
:10098000FFFFFFFFFFFFFFFFFFFFFFFFFFFFFFFF77
:10099000FFFFFFFFFFFFFFFFFFFFFFFFFFFFFFFF67
:1009A000FFFFFFFFFFF0F0F0F0C0C00001FFFFFF0E
:1009B000FFFFFFFFFFFF3C3C83033F3F3F3FFFF351
:1009C000030CC0C0C0FFFFFFFFFFFFFFFFFFFFFFE3
:1009D000FFFFFFFFFFFFFFFFFFFFFFFFFFFFFFFF27
:1009E000FFFFFFFFFFFFFFFFFFFFFFFFFFFFFFFF17
:1009F000FFFFFFFFFFFFFFFFFFFFFFFFFFFFFFFF07
:100A0000FFFFFFFFFFFFFFFFFFFFFFFFFFFFFFFFF6
:100A1000FFFFFFFFFFFFFFFFFFFFFFFFFFFFFFFFE6
:100A2000FFFFFFFFFFFFFFFFFFFFFFFCFCFCFCF8E9
:100A3000F0F0F3F3838F8C948A958A959A81F0F085
:100A4000FCFCFFFFFFFFFFFFFFFFFFFFFFFFFFFFBC
:100A5000FFFFFFFFFFFFFFFFFFFFFFFFFFFFFFFFA6
:100A6000FFFFFFFFFFFFFFFFFFFFFFFFFFFFFFFF96
:100A7000FFFFFFFFFFFFFFFFFFFFFFFFFFFFFFFF86
:100A8000FFFFFFFFFFFF3C667B7F7E3C00005D7742
:100A9000777F7F7F5D14147F0E0E1F1F0E0E1F1FAA
:100AA0001F1F1F1F1F1F1F1F1F1F1F1F1F1F1F1F56
:100AB00038BAFEAA28AAFEBA02060E0E1C0C0F02B5
:100AC000080B0002020200000904000001020200FB
:100AD000000524001001052401010104240206057B
:100AE00024060001070581031000400904010002EB
:100AF0000A000000070502024000000705830240CB
:100B000000000403090412010002EF020140412326
:100B1000368000010102030141726475696E6F2025
:100B20004C4C43004142413131303600D710112442
:100B30001FBECFEFDAE0DEBFCDBF11E0A0E0B1E035
:100B4000E6E6F2E402C005900D92A039B107D9F7AC
:100B500027E0A0E9B1E001C01D92A335B207E1F79B
:100B600015E0C7E9D5E004C02197FE010E944E1EA2
:100B7000C639D107C9F70E94E8110C9431210C94B1
:100B800000008091A7010895EAEDF1E030EB20E14B
:100B900046E05C983EBD4A95F1F72EBD20E82395CE
:100BA00007C0449140815C9A4EBD8111412D419313
:100BB00044912A95B1F73395383B49F70DB4089520
:100BC00080E00C94C40590E0EAEDF1E091119FEF14
:100BD0008FEF91939193919391938150D0F70895D2
:100BE0000E94E305ECE3F7E0128A118A108A178667
:100BF0000895FC018091D901882311F13FB7F89441
:100C000082E08093E9002091F200822F90E0181694
:100C1000190614F481E090E0882339F0289844E61E
:100C20004093D8014091F1004083222339F0209174
:100C3000F200211103C02BE62093E8003FBF089586
:100C40008FEF9FEF08952FB7F89483E08093E9002A
:100C50009091E800892F807295FF04C09091F20076
:100C600080E4891B2FBF08958091D00181110DC0B0
:100C700082E08093CC0184E08093CD011092CF017B
:100C80001092CE0181E08093D0018CEC91E0089528
:100C9000CF93DF931F92CDB7DEB76983DC01ED916F
:100CA000FC910280F381E02D41E050E0BE016F5FD6
:100CB0007F4F09950F90DF91CF91089583E0809346
:100CC000E9008091F200882319F08AE38093E8001C
:100CD00008950E94230690E00895CF93DF931F921A
:100CE000CDB7DEB7FC018485958597FD08C02FEF51
:100CF0003FEF358724870F90DF91CF910895CE0184
:100D000001960E94F905019719F4898190E0F3CFCB
:100D10008FEF9FEFF0CF0F931F93CF93DF931F922F
:100D2000CDB7DEB78C01FC018485958597FF0BC09C
:100D3000CE0101960E94F905019771F4898190E036
:100D4000F80195878487F801848595850F90DF9158
:100D5000CF911F910F9108958FEF9FEFF1CFFC017D
:100D60008485958597FD0BC09FB7F89482E08093AA
:100D7000E9008091F2009FBF90E0019608959FB72F
:100D8000F89482E08093E9008091F2009FBF90E0A8
:100D900008954091C6015091C7012091C40130913E
:100DA000C50142175307B4F49091E8009570E1F340
:100DB0009091E80092FD19C08093F1008091C601E6
:100DC0009091C70101968F739927892B19F48EEFA3
:100DD0008093E8008091C6019091C701019690939D
:100DE000C7018093C60181E0089580E00895DF92F5
:100DF000EF92FF920F931F93CF93DF93D82E8A0128
:100E0000EB017B01E40EF51ECE15DF0559F0D7FE90
:100E100012C0FE0184910E94C90621968111F4CF6F
:100E20000FEF1FEFC801DF91CF911F910F91FF903E
:100E3000EF90DF9008958881EECF0F931F93CF93AB
:100E4000DF931F92CDB7DEB782E0898342E450E0A2
:100E500060EC7AE080E80E94F7060E943406DC012C
:100E600012960D911C910115110589F0D801ED9193
:100E7000FC910280F381E02DBE016F5F7F4FC801BE
:100E8000099597FD04C0F80100851185ECCF898193
:100E90000F90DF91CF911F910F910895615030F025
:100EA0002091F100FC0120830196F8CF289884E678
:100EB0008093D8010895AF92BF92CF92DF92EF92C4
:100EC000FF920F931F93CF93DF936C017B018B01F4
:100ED000040F151FEB015E01AE18BF08C017D10744
:100EE00059F06991D601ED91FC910190F081E02DCE
:100EF000C6010995892B79F7C501DF91CF911F9123
:100F00000F91FF90EF90DF90CF90BF90AF9008953A
:100F10003FB7F89480919A0190919B01A0919C0118
:100F2000B0919D0126B5A89B05C02F3F19F00196F1
:100F3000A11DB11D3FBFBA2FA92F982F8827BC0133
:100F4000CD01620F711D811D911D42E0660F771F5B
:100F5000881F991F4A95D1F708958F929F92AF925B
:100F6000BF92CF92DF92EF92FF926B017C010E94C1
:100F700088074B015C01C114D104E104F104B9F00C
:100F80000E948807681979098A099B09683E73409D
:100F90008105910580F321E0C21AD108E108F1082A
:100FA00088EE880E83E0981EA11CB11CE4CFFF9050
:100FB000EF90DF90CF90BF90AF909F908F9008956B
:100FC0008F929F92AF92BF92CF92DF92EF92FF9259
:100FD0000F931F93CF93DF936C017B018A01809164
:100FE0000E01882309F45CC08091D901882309F49B
:100FF00057C08091CB0180FF05C08091E0008260E6
:101000008093E000E801B12C8AEFA82E93E0892EAE
:101010002AE3922E209711F4BB20D9F10E942306D7
:1010200081110AC0AA94AA20D9F161E070E080E0A1
:1010300090E00E94AD07EECF8C171D0611F00CF06A
:101040008C2F9FB7F8948092E9002091E80025FD4D
:1010500002C09FBFDFCF282F30E0C21BD30BF701A8
:10106000815020F041914093F100FACFE20EF31E3F
:10107000BB2021F09092E800B12CEBCF8091E800EA
:1010800085FDE7CF9092E800BB24B394209709F345
:10109000F3CF5D9884E68093CA01101611063CF0E8
:1010A00081E090E0F6019383828310E000E0C801C4
:1010B000DF91CF911F910F91FF90EF90DF90CF9034
:1010C000BF90AF909F908F9008952091A201E091E2
:1010D000A001F091A101CF0102969093A10180930C
:1010E000A001222319F08591949108958081918126
:1010F0000895CF92DF92EF92FF92CF93DF930E94F9
:101100006508811520E8920791F4809171008D7F28
:10111000809371001092910046985F98109292010E
:10112000DF91CF91FF90EF90DF90CF90089521E075
:1011300020939201813020E8920751F480919E0122
:1011400090919F019093A1018093A0010E94650856
:1011500097FD05C020919101222309F454C02091EC
:101160009001211150C021E020939301EC01DF7721
:10117000209709F04BC081E08093940146983FE9A5
:10118000C32E3FE0D32EE12CF12CCAEFD0E0E0914A
:101190003806F09139060995811103C081E08093EA
:1011A000940180919301882329F0809194018823F0
:1011B00009F43FC05F980E9465080097F1F19C0117
:1011C000DE010E943F1EDC01CB0129E0B595A79509
:1011D000979587952A95D1F7109290002AE0209351
:1011E0009100D0929900C0929800809395019093BD
:1011F0009601A0939701B09398018091710082604D
:10120000809371008DCF10929301B0CF9E0150E07A
:1012100040E060E472E48FE090E00E94EB1D690121
:101220007A0181E0C81AD108E108F108109294010E
:10123000AECF4699BFCF5F9ABECF8FEF9FEFDC0155
:10124000CBCFDC01E1E7F0E090819D7F90831092AD
:10125000A201EAE2F6E0F093A101E093A001F0938D
:101260009F01E0939E01B183A083738362835583C2
:1012700044833783268380E090E8918780870C94AD
:1012800079089C01E1E7F0E090819D7F90831092C6
:10129000A201EAE2F6E0F093A101E093A001F0934D
:1012A0009F01E0939E01318320837383628380E0FA
:1012B00090E8958384830C9479082D9A0895BC0155
:1012C00090E080E00C94AD078FB18095807F669BA5
:1012D00088601C9B846008951092A7013E985798DF
:1012E00008953E9A579A81E08093A70108952F921E
:1012F0003F924F925F926F927F928F929F92AF92A6
:10130000BF92CF92DF92EF92FF920F931F93CF93F2
:10131000DF9300D000D0CDB7DEB76E2C30E0F901FE
:10132000E80FF91FF7FD90C0803891050CF08CC0D4
:10133000402E512CF201E60FF71FF7FD85C06034F7
:1013400071050CF081C0E62FE7707E2EE3E0559426
:101350004794EA95E1F7F3E075956795FA95E1F71B
:10136000A62E660FBB08B5017695762F6627779572
:101370006795680F791F66527E4FDA0110E000E032
:101380007801EA0CFB1CF8E0EF16F1040CF05CC0ED
:101390004FEFE416F4060CF44DC09C838B8350E0B1
:1013A00040E04B01F0E88F0E911CCB80DC80D7FC35
:1013B00031C0FD01E40FF51FE491F0E06F01072C4F
:1013C00002C0CC0CDD1C0A94E2F7DA82C982EFEF8E
:1013D000EE16FE0609F456C06B01C40ED51EF601CA
:1013E0003080F1E06F1247C0E9813E2AF601308279
:1013F000772081F0F7E0EF16F10461F06401C40E8C
:10140000D51EF6013080F1E0EA816F1238C03E2A25
:10141000F60130824F5F5F4FEB81FC813196FC8398
:10142000EB834217530734F4EB81FC81E038F1057C
:1014300009F0BBCF0F5F1F4F60587F4FA20FB31F44
:101440004016510609F09CCF0F900F900F900F900F
:10145000DF91CF911F910F91FF90EF90DF90CF9090
:10146000BF90AF909F908F907F906F905F904F90C4
:101470003F902F900895298020943220B7CFE09597
:101480003E22C6CF7110BACFC5CF80389105B8F4CF
:1014900060347105A0F420E191E061FD94E060FD0D
:1014A000990F62FD9295687F269FD0011124A80FA5
:1014B000A652BE4F8C9140FF03C0892B8C93089598
:1014C00090958923FBCF2F923F924F925F926F921C
:1014D0007F928F929F92AF92BF92CF92DF92EF92C4
:1014E000FF920F931F93CF93DF9300D01F92CDB73E
:1014F000DEB79B838A837B016A0109838901061B0E
:10150000170B17FF03C011950195110946018A8138
:101510009B81881A990A97FE03C09194819491083F
:10152000801691065CF49C2D8D2D6901292F382F92
:101530009A818B81FB82EA82E92EF82E8A819B8137
:10154000C816D9065CF49E2D8F2D7901292F382FCE
:101550009A818B81DB82CA82C92ED82E16018A819C
:101560009B81281A390A29014E185F0857FE03C0CB
:10157000519441945108310137FE03C09FEF691A1D
:10158000790A759467948FEFE216F3060CF481E004
:10159000A82E880FBB088A819B81C816D906CCF07B
:1015A0004981BC01C701801691061CF0B7018A81F0
:1015B0009B810E94450A6418750877FE04C0EA0CF6
:1015C000FB1C620C731C8A819B8101969B838A831E
:1015D000E2CF0F900F900F90DF91CF911F910F915D
:1015E000FF90EF90DF90CF90BF90AF909F908F9043
:1015F0007F906F905F904F903F902F9008952F9223
:101600003F924F925F926F927F928F929F92AF9292
:10161000BF92CF92DF92EF92FF920F931F93CF93DF
:10162000DF93CDB7DEB72A970FB6F894DEBF0FBEB3
:10163000CDBF9A8389836A3061F5DC0155968C9120
:10164000B8E08B9F90011124E981FA818189928908
:10165000820F931F928B818B108A178681E090E016
:101660002A960FB6F894DEBF0FBECDBFDF91CF91A3
:101670001F910F91FF90EF90DF90CF90BF90AF90B0
:101680009F908F907F906F905F904F903F902F90A2
:1016900008956D3019F329813A813A872987D90154
:1016A0001F96AD90BC90B0E8AB16B1040CF07BC0B7
:1016B000F901C188D288F0E4CF16D1040CF073C0D0
:1016C000D90155966C90559745E09501649E200D83
:1016D000311D1124121613060CF065C0262C312C76
:1016E000910153E0220F331F5A95E1F72C0D3D1D58
:1016F000121613060CF057C05496BC91BB83E985B3
:10170000FA85F389FC83649FB00111249B01245561
:101710003F4F3A832983712CE981FA818491F5E066
:101720007F1201C080E0460138E0532E282F30E0C0
:101730003E832D834C8080FF4B80411004C03B8151
:101740008C813817E1F010E000E00615C0F4D501F7
:10175000A00FB11FB887AF83F12CE12CE61460F421
:10176000B701680D791D442D8F8198850E94450A27
:10177000BFEFEB1AFB0AF2CF0F5F1F4FE6CF8D8151
:101780009E81959587955A94820C931C5110CECFCB
:101790007394E981FA813196FA83E983A20CB31C30
:1017A000F6E07F12B9CFA985BA8555962C91559749
:1017B000422F50E01F968D919C91B6E02B9F800D9B
:1017C000911D1124E985FA85908B8787268922232C
:1017D00009F444CF6AEF64039001659F300D112432
:1017E00020583F4F281739070CF038CFDF01019000
:1017F000F081E02D0190F081E02D6AE0CD010995A6
:101800002DCF682F8CE397E00C94FF0A089508957C
:1018100090E080E008950F931F93CF93DF938C01A6
:10182000D0E0C0E06FE070E080E090E00E94AD07A3
:101830000E94640991E0282F287083FF90E0909324
:10184000A901222321F08091A801882361F09093BF
:10185000A80121960C171D0729F780E0DF91CF9191
:101860001F910F91089581E0F9CFCF93DF93FC0191
:101870008485882321F18285938563E0A6EFBFEFFD
:10188000CAE8D0E0019797FF16C08681978144810E
:10189000558120813181240F351F3183208357FFEB
:1018A00011C0408550E051954195510924173507E5
:1018B00014F4D183C083615029F793878287DF9125
:1018C000CF910895452BB9F321383105A4F3208534
:1018D000AD01421B510951834083EDCF8F929F92FE
:1018E000AF92BF920F931F93CF93DF93CDB7DEB725
:1018F000A1970FB6F894DEBF0FBECDBF19A242303C
:1019000008F44AE08E010F5D1F4F842E912CB12CFC
:10191000A12CA50194010E941D1EE62FB901CA0148
:10192000EA3044F5E05DD801EE938D01232B242BA2
:10193000252B79F790E080E0109769F0FD01019088
:101940000020E9F73197AF014A1B5B0BBD018CE327
:1019500097E00E945B07A1960FB6F894DEBF0FBE1A
:10196000CDBFDF91CF911F910F91BF90AF909F900E
:101970008F900895E95CD7CFFC0101900020E9F732
:101980003197AF01481B590BBC018CE397E00C94D5
:101990005B07CF92DF92EF92FF92CF93DF936C01C0
:1019A000990FEE08FF08F7FE17C08DE20E94010CA8
:1019B000EC0166277727CB016C197D098E099F09F9
:1019C0004AE00E946E0C8C0F9D1FDF91CF91FF901B
:1019D000EF90DF90CF9008954AE0C701B601DF9104
:1019E000CF91FF90EF90DF90CF900C946E0C0E94FF
:1019F000541E0C94D51DFF920F931F93CF93DF932A
:101A0000EC01F62E08811981C8010E94D51DF81637
:101A100021F06F2DC8010E94DD1DCE01DF91CF9115
:101A20001F910F91FF9008951F920F920FB60F9282
:101A300011248F939F938091E1009091E100937F17
:101A40009093E10083FF0FC01092E90091E0909322
:101A5000EB001092EC0092E39093ED001092D9010C
:101A600098E09093F00082FF22C093E09093E90009
:101A70009091F200992319F09AE39093E8009091E5
:101A8000CA01992341F09091CA0191509093CA01E3
:101A9000911101C05D9A9091D801992341F09091E4
:101AA000D80191509093D801911101C0289A84FFD8
:101AB00018C08091E2008E7E81608093E200809168
:101AC000E1008F7E8093E1008091CB018E7E80616A
:101AD0008093CB019F918F910F900FBE0F901F901D
:101AE000189580FFF7CF8091E2008E7E8061809311
:101AF000E2008091E1008E7E8093E1008091CB0135
:101B00008E7E8160E5CF1F920F920FB60F92112447
:101B1000CF92DF92EF92FF920F931F932F933F93F9
:101B20004F935F936F937F938F939F93AF93BF93E5
:101B3000EF93FF93CF93DF93CDB7DEB76C97DEBF04
:101B4000CDBF1092E9008091E80083FF25C068E0D6
:101B5000CE0145960E944E0782EF8093E8008D8962
:101B600087FF39C09091E80090FFFCCF982F9076C6
:101B700009F034C19E894F89588D2F89F88C9111B5
:101B800031C0803861F58091C9018093F1001092D5
:101B9000F1008EEF8093E8006C960FB6F894DEBFEC
:101BA0000FBECDBFDF91CF91FF91EF91BF91AF916C
:101BB0009F918F917F916F915F914F913F912F9165
:101BC0001F910F91FF90EF90DF90CF900F900FBE7D
:101BD0000F901F9018959EEF9093E800C7CF10923A
:101BE000F100D5CF913059F48111D3CF4130510557
:101BF00081F68091C9018D7F8093C901CACF93304E
:101C000049F48111C6CF4130510519F68091C901BF
:101C10008260F2CF953041F48091E80080FFFCCFE4
:101C200020682093E300B5CF963009F0A9C00B8D52
:101C30001C8D22E01092E9001092C7011092C6019B
:101C4000F2122EC01092C5011092C4010E941D070D
:101C50001F8299E09983FA8291E09E8390EA9887A7
:101C60009AEF99872091C6013091C701275F3F4FB6
:101C70003C832B838D831092E9001092C701109250
:101C8000C6011093C5010093C40149E050E0BE01B4
:101C90006F5F7F4F80E00E94F7060E941D0779CF9B
:101CA0001093C5010093C4010E943406DC01129612
:101CB0000D911C910115110509F451C1D801ED9147
:101CC000FC910480F581E02DBE016B5E7F4FC80161
:101CD0000995009709F03EC1F80100851185EACF0A
:101CE000F3E0FF120EC08F89882309F440C08230D0
:101CF00061F440E867E084E29BE00E94601081119B
:101D000048CF81E28093EB0047CF813029F440E84F
:101D10006BE088E19BE0F1CF833099F70E943406B5
:101D2000DC011296ED90FC908E010F5F1F4F680151
:101D3000E114F10479F0D701ED91FC910680F7816F
:101D4000E02DB801C7010995080F111DF701E084C6
:101D5000F184EECFD8011C92F60101900020E9F742
:101D60003197BF016C197D0940E0C601C6CF62E022
:101D70007BE0FB01449150E080E80E94F70609CF28
:101D8000973009F4BECF983021F481E08093F100C0
:101D900000CF993009F0FDCE837009F0B2CFE4E1B5
:101DA000F1E081E031E096E32191222371F080930C
:101DB000E9003093EB00DF0111972C912093EC00A8
:101DC0009093ED008F5F873079F78EE78093EA007C
:101DD0001092EA008F898093D901DBCE8B8D9C8D88
:101DE0001092E9001092C7011092C6019093C501AC
:101DF0008093C401898D811192C08E899D89913A09
:101E000049F4813209F07DCF47E050E067E071E0AE
:101E100080E0B3CF913209F074CF833269F48F89B7
:101E2000988DB0E0A0E08093030190930401A0930B
:101E30000501B0930601ADCE803269F48091E800CF
:101E400082FFFCCF67E087E091E00E944E078BEFB6
:101E50008093E8009ECE823209F09BCE8F898093DA
:101E60000E01EEEFFFE7859194918B3F9C4D51F170
:101E7000E0E0F8E08091070190910801A09109014C
:101E8000B0910A01803B9440A105B105F1F4809125
:101E90000E0180FD1AC0EE3F8AE0F80789F587E75A
:101EA00097E791838083809160008093C80188E1E7
:101EB0009BE00FB6F894A895809360000FBE9093B6
:101EC000600067CEEEEFFAE0D5CF80819181873751
:101ED000974709F05ECEA895809160008861809355
:101EE00060008091C80180936000EE3F2AE0F20715
:101EF00089F08091FE0A9091FF0A9183808349CEF8
:101F0000808191818737980751F29093FF0A8093DF
:101F1000FE0AC5CF1092FF0A1092FE0A3ACE0E9426
:101F20003406DC0112960D911C910115110509F47E
:101F3000E8CED801ED91FC910190F081E02DBE0139
:101F40006B5E7F4FC8010995811123CEF801008592
:101F50001185EBCF181619060CF41BCED2CEF1E08A
:101F6000FF12BECE66E07BE004CF1F920F920FB649
:101F70000F9211242F933F938F939F93AF93BF930F
:101F80008091A3019091A401A091A501B091A60117
:101F90003091990123E0230F2D3758F50196A11DAB
:101FA000B11D209399018093A3019093A401A09364
:101FB000A501B093A60180919A0190919B01A091F7
:101FC0009C01B0919D010196A11DB11D80939A01C4
:101FD00090939B01A0939C01B0939D01BF91AF9101
:101FE0009F918F913F912F910F900FBE0F901F9057
:101FF000189526E8230F0296A11DB11DD2CF1F927E
:102000000F920FB60F9211242F933F934F935F932C
:102010006F937F938F939F93AF93BF93EF93FF93B0
:102020008091950190919601A0919701B0919801AE
:10203000892B8A2B8B2B09F440C08091940181114C
:102040000BC088B190E4892788B9809193018823D7
:1020500019F08BB180588BB98091950190919601C0
:10206000A0919701B0919801181619061A061B063F
:102070009CF48091950190919601A0919701B09167
:1020800098010197A109B109809395019093960158
:10209000A0939701B0939801FF91EF91BF91AF91F9
:1020A0009F918F917F916F915F914F913F912F9170
:1020B0000F900FBE0F901F9018950E947908ECCFDB
:1020C000EF92FF920F931F93CF93DF93F82E192F68
:1020D000E62E042F81E0860F880F0E94C90683E058
:1020E0000E94C906CF2DD12FEC0EFD2EF11CCE156E
:1020F000DF05B9F007FF13C0FE0184910E94C906F5
:10210000182F80E00E94C906812321968111EFCF0C
:10211000DF91CF911F910F91FF90EF9008958881EB
:10212000EDCF81E0F5CF0F931F93CF93DF938C0119
:1021300081E090E00E94F90C80FF31C08AE090E0DD
:102140000E94F90C9FEF980F9E3F48F522E330E084
:10215000D80150963C932E931F9728E330E0529677
:102160003C932E935197CBE0D0E0D801ED91FC91B8
:102170000190F081E02D682FC8010995CE010E94E1
:10218000F90C2196C131D10581F70E94E00588EE56
:1021900093E0DF91CF911F910F910C945F09DF9134
:1021A000CF911F910F91089504970C9493108F92E3
:1021B0009F92AF92BF92EF92FF921F93CF93DF93C4
:1021C000EAEDF5E01382128288EE882E83E0982EE5
:1021D000A12CB12C84829582A682B7828EE191E0F7
:1021E000918380838FEF9FEF95878487ECE3F7E0FF
:1021F000138212821186128680E1838710861782ED
:10220000158680E391E0918380838EE391E095834E
:102210008483108A1786128A118AD1E0D38B148A9C
:10222000D58B168A81EC95E0909339068093380619
:1022300080E090E8909337068093360646983E9A61
:102240005F98579AE1E3F7E018E0148385E085830F
:102250008DE390E0978386838BE390E0918780877E
:10226000C7E0C28794E2E92E97E0F92E82E0F701F9
:10227000828392E193838483C58386E08683C783C8
:1022800010860E947D1DA50194010E94EB1DDC01BA
:10229000CB0188519C4FAF4FBF4FF7019287818789
:1022A00094878387EDEFF6E084E090E09783868360
:1022B0001087C18713861286D487948B838B158BE6
:1022C000C68B108E178AD18F91A380A312A3C3A3AC
:1022D00015A214A2D6A3E6EDF6E0978386831087B5
:1022E000C18713861286D487948B838B158BC68BFC
:1022F000108E178AD18F91A380A312A3C3A315A216
:1023000014A2D6A3EFEAF6E0978386831087C187ED
:1023100013861286D487948B838B158BC68B108E75
:10232000178AD18F91A380A312A3C3A315A214A2CD
:10233000D6A3E8E8F6E0978386831087C1871386E3
:102340001286D487948B838B158BC68B108E178A3D
:10235000D18F91A380A312A3C3A315A214A2D6A3C5
:10236000E1E6F6E0978386831087C187138612869D
:10237000D487948B838B158BC68B108E178AD18F45
:1023800091A380A312A3C3A315A214A2D6A3EAE328
:10239000F6E0978386831087C18713861286D487D9
:1023A000948B838B158BC68B108E178AD18F91A33C
:1023B00080A312A3C3A315A214A2D6A3DF91CF9129
:1023C0001F91FF90EF90BF90AF909F908F900895D6
:1023D000CF93DF9300D000D0CDB7DEB7789484B52B
:1023E000826084BD84B5816084BD85B5826085BD11
:1023F00085B5816085BD80916E00816080936E009F
:102400001092810080918100826080938100809190
:102410008100816080938100809180008160809341
:102420008000809191008260809391008091910062
:1024300081608093910080919000816080939000F2
:102440008091C10084608093C1008091C10082604E
:102450008093C1008091C10081608093C100809110
:10246000C30081608093C3008091C000826080932C
:10247000C0008091C20081608093C20080917A0088
:10248000846080937A0080917A00826080937A00E1
:1024900080917A00816080937A0080917A008068D0
:1024A00080937A001092D9011092C9011092CB0149
:1024B0008091D70081608093D70080EA8093D80014
:1024C00089B5806189BD89B5826089BD09B400FE86
:1024D000FDCF61E070E080E090E00E94AD07809168
:1024E000D8008F7C80618093D8008091E000807F4D
:1024F0008093E0008091E1008E7E8093E1008DE08A
:102500008093E200559A209A81EC80937C0081E7C9
:1025100085B987E684B985E38BB98FE38AB9769A62
:102520006E9880EF81BB10BA80E58CBD81E08DBDD7
:1025300085E090E00E945F09599902C0599AF8CF4E
:102540005C98ECE5F6E09AE085918EBD00000DB454
:1025500007FEFDCF8EB59A95B9F75C9A81E8809316
:10256000640081E0809365000E94C4050E946409B4
:1025700002E010E087FF16C05C9885EA8EBD00007F
:102580000DB407FEFDCF8EB55C9A2E9858982D9805
:102590008091640080628093640081E083BF8895AD
:1025A00013BEFCCF0E94640982FF40C02D980E9498
:1025B000640984788438C1F40E945D0988EC90E055
:1025C0000E945F0958981A8309836FEFCE01019624
:1025D0000E94FB0C84EF91E00E945F09589A0E94D0
:1025E000640984788438D9F30E9464098471843141
:1025F000C1F40E945D0988EC90E00E945F092E986A
:102600001A83098360E0CE0101960E94FB0C84EFDF
:1026100091E00E945F092E9A0E94640984718431BE
:10262000D9F388EC90E00E945F09BCCF0E945D095D
:1026300082E090E00E94F90C882309F4A6C30E946E
:10264000710981E090E00E94F90C182F147081FF4D
:102650000EC011112E98B0EFCB2EDD24DA940E941B
:10266000640986FF95C32E9A589A0E945D0982E3F9
:1026700090E00E945F090E9464098111F8CF20E96F
:1026800031E046E255E060EA70E08BED93E00E94B5
:10269000210968EE73E080E090E00E94AD07809130
:1026A00037079091380790933207809331078091D4
:1026B000390790913A07909334078093330784E168
:1026C00095E09093C0018093BF0182E090E09093E9
:1026D000BE018093BD01EAE3F6E0A8E8B6E0BC8362
:1026E000AB838FEA96E026ED36E061E676E00DEF0B
:1026F00016E0F12CE12CD12CC12CB12CA12C50E0F6
:1027000040E088248A94982CBEE04B2E512C6624FD
:102710006394712CD80111965C934E930F2EF2E3C3
:102720002F2E312CF02D13963C922E921297159647
:102730009C928E921497DB011196BC92AE920F2E52
:10274000FDE12F2E312CF02D13963C922E921297F4
:1027500015969C928E9214976894222422F8312C1C
:1027600017963C922E921697D9011196DC92CE9232
:102770000F2EF5E22F2E312CF02D13963C922E9237
:10278000129715969C928E92149717965C924E9281
:1027900016970F2EF8E13F2EF02D18963C921897C1
:1027A0000F2EF5E02F2EF02D19962C92DC011196AC
:1027B0005C934E9313965C924E92129715969C9250
:1027C0008E9214970F2EF5E02F2E312CF02D1796A8
:1027D0003C922E9216970F2EF8E13F2EF02D189670
:1027E0003C92189719962C92AB81BC811196FC9261
:1027F000EE920F2EFBE22F2E312CF02D13963C92F1
:102800002E92129715967C926E92149768942224B9
:1028100023F8312C17963C922E9216970F2EFAE041
:102820003F2EF02D18963C9218970F2EF7E02F2E82
:10283000F02D19962C9251834083A6E1B0E0B3832A
:10284000A28375826482A3E02A2E312C37822682ED
:10285000BAE03B2E3086A7E0A187485D5F4F035F5B
:102860001F4FBCE3AB0EB11C635F7F4FA0E4CA0EE9
:10287000D11C235F3F4F0D96B2E3EB0EF11CAB81F1
:10288000BC811D96BC83AB833D964837510509F04A
:1028900041CF8CEE9FEF9093F3068093F206109257
:1028A000FC06809102011091C301182B09F062C44B
:1028B0000E94E005809133079091340704970CF053
:1028C0005BC08091C1019091C2018C599F4F909340
:1028D000C2018093C101809171008D7F809371004E
:1028E0001092A2018AE296E09093A1018093A00148
:1028F00090939F0180939E0180EB94E090932B0630
:1029000080932A0688EC90E090932D0680932C0605
:1029100090932F0680932E0684E690E090933106E4
:10292000809330068CED95E09093330680933206C9
:1029300080E991E090933506809334060E947908EF
:1029400068EE73E080E090E00E94AD078091370769
:10295000909138079093320780933107809139071F
:1029600090913A07909334078093330784E195E080
:102970009093C0018093BF01409133075091340779
:10298000609131077091320780913507860F972F3C
:10299000911D20913607240F352F311DE1E68E2E33
:1029A000E6E09E2EE6EDF6E0AFEAB6E0BC83AB8350
:1029B000A8E8EA2EA6E0FA2EBAE36B2EB6E07B2E4C
:1029C0000DEF202E06E0302ED10119960C911997AB
:1029D00018965C9018971296AD90BC901397CD9076
:1029E000DC90C816D90674F4C50CD11C6C157D0595
:1029F0004CF4A216B30634F4A00EB11C4A155B05C4
:102A00000CF411E0D40119960C91199718965C906A
:102A100018971296AD90BC901397CD90DC90C81685
:102A2000D90674F4C50CD11C6C157D054CF4A216A6
:102A3000B30634F4A00EB11C4A155B050CF411E08A
:102A400001855084A280B380C080D180C816D90689
:102A500074F4C50CD11C6C157D054CF4A216B3069C
:102A600034F4A00EB11C4A155B050CF411E0AB81E7
:102A7000BC8119960C91199718965C90189712962C
:102A8000AD90BC901397CD90DC90C816D90674F425
:102A9000C50CD11C6C157D054CF4A216B30634F49C
:102AA000A00EB11C4A155B050CF411E0D701199674
:102AB0000C91199718965C9018971296AD90BC904F
:102AC0001397CD90DC90C816D90674F4C50CD11CB0
:102AD0006C157D054CF4A216B30634F4A00EB11C9F
:102AE0004A155B050CF411E0D30119960C91199766
:102AF00018965C9018971296AD90BC901397CD9055
:102B0000DC90C816D90674F4C50CD11C6C157D0573
:102B10004CF4A216B30634F4A00EB11C4A155B05A2
:102B20000CF411E0BDE02B0E311CADE06A0E711CFF
:102B3000BDE0EB0EF11CAB81BC811D96BC83AB8369
:102B40003D96BDE08B0E911CA4E2B7E0A215B30543
:102B500009F03ACF1123A9F12AEF30E044EB50E01D
:102B600066E970E088EC90E00E94210960E971E07C
:102B700080E090E00E94AD078091000190910101FA
:102B80000197909301018093000124E135E0309397
:102B9000C0012093BF01209137073091380730934F
:102BA0003207209331072091390730913A0730934B
:102BB000340720933307181619061CF081E0809320
:102BC000C3018091240790E0409131075091320772
:102BD00020913507240F352F311D82179307E4F517
:102BE00020912A07820F911D48175907ACF5809153
:102BF000250790E040913307509134072091360724
:102C0000240F352F311D8217930734F520912B07A0
:102C1000820F911D48175907FCF410922C0780EA87
:102C200080932407809325078091C1019091C20170
:102C3000845D9E4F9093C2018093C1016AEF70E062
:102C400084E893E00E94410980912D0790912E071E
:102C50009093300780932F078091BF019091C0011E
:102C600001979093C0018093BF0197FF13C081E04B
:102C70008093C3012AEF30E044EB50E066E970E056
:102C800088EC90E00E94210960E971E080E090E02A
:102C90000E94AD070E94F00510E000E0F12CE12C4D
:102CA00041E0B701C8010E94450ABFEFEB1AFB0AD9
:102CB000E8E0EE16F104A1F70F5F1F4F0038110591
:102CC00069F710E000E09AE3E92EF12C41E0B7014A
:102CD000C8010E94450AFFEFEF1AFF0A20E4E2163E
:102CE000F104A1F70F5F1F4F0038110561F786E36C
:102CF00090E090934C0780934B0781E090E0909395
:102D00004E0780934D078091C1019091C2010E94AE
:102D1000C90C88E690E090934C0780934B0789E3B9
:102D200090E090934E0780934D078091BF01909162
:102D3000C0010E94C90C0E94640986FF5CC02091FA
:102D400035078CE790E0821B910920913107309183
:102D50003207281739070CF04EC084E08093A90190
:102D60008091A801843009F469C06CE370E08BEDB8
:102D700093E00E94410980913B07209131073091F7
:102D80003207820F932F911DB9C10E946C0959CC53
:102D9000112331F024E0C216D10411F42E9A589870
:102DA00081E00E94C405EE24E39400E128E54CEAAA
:102DB00055E0B60184E190E00E9477090E94E005A9
:102DC0008FE090E00E945F093FEFC31AD30A89E1C8
:102DD000C816D10409F043CC112311F0589A2D984C
:102DE00080E991E00E945F090E945D098CE397E011
:102DF0000E9493103CCC0E94640985FF07C080911B
:102E000031079091320706970CF062C10E94640965
:102E100087FD79C10E94640984FF0EC020913607A6
:102E200080E490E0821B91092091330730913407B0
:102E3000281739070CF486C11092A80110E000E0B1
:102E4000C8018350994F0E94350CC8018F59994F82
:102E50000E94350CC8018A52994F0E94350CC80156
:102E60008155994F0E94350CC8018857994F0E948F
:102E7000350CC801865C994F0E94350C035F1F4FCB
:102E800007321105E9F680912F07909130070197DD
:102E90009093300780932F07892B09F059C08091B8
:102EA0002C07811155C081E080932C076CE271E002
:102EB00080EB94E00E94410980902707912CB12C6F
:102EC000A12CC0902607D12CF12CE12CC814D904D8
:102ED000EA04FB048CF48C189D08AE08BF0841F08E
:102EE0000E947D1DA50194010E94EB1D4B015C0118
:102EF000C80CD91CEA1CFB1C87E0C89EC02C1124FE
:102F0000C092240780902907912CB12CA12CC0904D
:102F10002807D12CF12CE12CC814D904EA04FB04B5
:102F20008CF48C189D08AE08BF0841F00E947D1DEE
:102F3000A50194010E94EB1D4B015C01C80CD91C3A
:102F4000EA1CFB1C87E0C89EC02C1124C0922507F8
:102F500080912F0790913007803E9C4F7CF48091A8
:102F60002D0790912E079093300780932F07109292
:102F70002C078CE880932407809325076091330702
:102F800070913407CB010497EE24E394C49708F0C2
:102F9000E12C08E028E048EB5AE08091310790915D
:102FA00032070E9477098AE396E09C838B83A8E826
:102FB0008A2EA6E09A2EBFEA6B2EB6E07B2E16ED87
:102FC000A12E16E0B12E01E6402E06E0502E8DEF28
:102FD000C82E86E0D82ED60112966D917C9113975B
:102FE000EE24E39408E028E040EB5AE08D919C91B8
:102FF0000E947709F2016281738128E040EB5AE078
:10300000808191810E947709D5011C968C911C9733
:10301000882359F012966D917C91139728E148E925
:103020005AE08D919C910E947709F301628173812E
:10303000EE24E39408E028E148E95AE08081918198
:103040000E947709D40112966D917C9113972AE022
:103050004EE85AE08D919C910E947709EB81FC81AA
:10306000628173812AE04EE85AE0808191810E945A
:103070007709FDE0CF0ED11C2DE0420E511C3DE042
:10308000A30EB11C8DE0680E711C9DE0890E911C91
:10309000AB81BC811D96BC83AB832C143D0409F02D
:1030A0009ACF80912C07882359F06091250770E012
:1030B0008091240728E046E85AE090E00E947709D2
:1030C00080E090E0892B09F4ECCB0E940000E9CB72
:1030D00082E08093A9018091A801823009F4AECEEC
:1030E0006CE370E08BED93E00E94410920913B0777
:1030F0008091310790913207821B9109909332079A
:10310000809331071AC083E08093A9018091A801C0
:10311000833009F493CE6CE370E08BED93E00E9472
:10312000410920913B078091330790913407821B1E
:10313000910990933407809333078091A90180937C
:10314000A8017CCE85E08093A9018091A8018530FB
:1031500009F474CE6CE370E08BED93E00E944109BA
:1031600080913B072091330730913407820F932FD2
:10317000911DDFCF882309F43BC21092C201109247
:10318000C10183E090E0909301018093000184E10C
:1031900095E09093C0018093BF010091BD01109113
:1031A000BE01015011091093BE010093BD0110161C
:1031B00011060CF059C10E94F0058CE390E0909349
:1031C0004C0780934B0789E190E090934E078093E2
:1031D0004D0781E080935107EE24E39400E420E85A
:1031E00046E856E070E060E090E080E00E947709F9
:1031F0008091A701882341F1E12C08E028E04EE707
:1032000056E068E370E08AE690E00E94770928E0E3
:1032100046E756E060E370E08AE690E00E947709B6
:1032200028E04EE656E060E370E082E790E00E941E
:10323000770928E046E656E068E370E082E790E030
:103240000E9477090E94E00589E190E00E940B0C42
:103250008823A1F0109202012FB7F8946091A30186
:103260007091A4018091A5019091A6012FBF6115D5
:1032700071058105910511F00E94CC1D0E94640921
:1032800082FF72C081E08093A9018091A801813002
:1032900011F00E946C098091A9018093A80155E06A
:1032A000752E6BE1C62ED12C6624639472E0572EE6
:1032B000ECE3AE2EB12CF9E18F2E912C02E010E060
:1032C00045E2E42EF12C40E0B701C8010E94450A16
:1032D000BFEFEB1AFB0AEDE3EE16F104A1F70F5F67
:1032E0001F4F0D35110561F7D0924C07C0924B0767
:1032F00038E2232E312C30924E0720924D0780E485
:1033000091E00E94BC0C26E030E030934C07209303
:103310004B0783E390E090934E0780934D0788E43A
:1033200091E00E94BC0C0E94E00582E390E00E94C4
:103330000B0C8823E1F0109202012FB7F8946091F2
:10334000A3017091A4018091A5019091A6012FBFC6
:10335000611571058105910511F00E94CC1D8091C8
:10336000A9018093A801ACCE1092A90194CF0E942C
:10337000640982FF70C08091A7016092A90188232F
:1033800009F466C00E946C098091A9018093A8018C
:103390000E94F00550925107B0924C07A0924B0743
:1033A00090924E0780924D07EE24E39400E420E8CB
:1033B00046E856E070E060E090E080E00E94770927
:1033C0001091A701112331F1E12C08E028E04EE72C
:1033D00056E068E370E08AE690E00E94770928E012
:1033E00046E756E060E370E08AE690E00E947709E5
:1033F00028E04EE656E060E370E082E790E00E944D
:10340000770928E046E656E068E370E082E790E05E
:103410000E947709609251070E94E0050E94E00532
:1034200089E190E00E940B0C811185CF0E94640914
:1034300082FF17C06092A9018091A801813021F01C
:10344000112361F00E946C097A94711037CF87CFF5
:103450000E94710999CF1092A90196CF0E9471091B
:10346000F3CF1092A901F0CF81E0809351070115AD
:10347000110509F0B6C00E94F00580E290E090933B
:103480004C0780934B0710924E0710924D0787E52B
:1034900091E00E94BC0C0E94E005A6E9EA2EF12C06
:1034A000B9E0CB2ED12C83E6682E81E0782E9AEA03
:1034B000A92E91E0B92E28E1822E912C0F5F1F4F8B
:1034C0001F930F937F926F92BF92AF920E94591EEB
:1034D00090924C0780924B07D0924E07C0924D07B6
:1034E0008AEA91E00E94BC0C0E94E005C7010E949C
:1034F000F90C582EC70101960E94F90C0F900F90FD
:103500000F900F900F900F90BFEF5B1264C08F3F32
:1035100009F061C01092C2011092C101C701029668
:103520000E94F90C582E8093BA01C70103960E949D
:10353000F90C482E8093BB01C70104960E94F90C38
:103540008093BC012091C1013091C2011216130673
:103550009CF53F932F93282F082E000C330B3F939D
:103560008F93842D042C000C990B9F934F92852DE3
:10357000052C000C990B9F935F92E7E6F1E0FF9317
:10358000EF93BF92AF920E94591E20E330E0309338
:103590004C0720934B07C601019690934E078093EA
:1035A0004D078AEA91E00E94BC0C0E94E0050FB62C
:1035B000F894DEBF0FBECDBF98E0C90ED11CA5E0C8
:1035C000EA0EF11C0A30110509F078CF8CE291E087
:1035D0000E940B0C75CD952D9093C2018093C10173
:1035E0009DCF82E090E09093BE018093BD0168CDB5
:1035F0000E94F0058AE090E090934C0780934B077F
:1036000088E190E090934E0780934D0782E080938D
:1036100051078091BF019091C001181619060CF056
:1036200060C181E791E00E94BC0C0E94E00568EB5C
:103630007BE080E090E00E94AD0781E0809351073D
:10364000E090C101F090C20106E910E0512CC801E0
:103650000E94F90CD82EC80101960E94F90C9FEF28
:10366000D91203C08F3F09F43FC19D2D21E0250DE4
:103670008E159F050CF0EEC10E94F00580E280934C
:10368000BA018093BB018093BC0110E050E1652E2C
:10369000712C64E1C62ED12C70E4272E312CE8E485
:1036A000AE2EB12CF1E28F2E30E2932E4FE2442E5B
:1036B0000E94E0050E94E30510924E0710924D070C
:1036C00070924C0760924B0785E891E00E94BC0C19
:1036D0008091C2018F938091C1018F93AEE6B1E0DA
:1036E000BF93AF932AEA31E03F932F930E94591E74
:1036F000A8E5B0E0B0934C07A0934B0710924E079B
:1037000010924D078AEA91E00E94BC0CE8E3F0E0D9
:10371000F0934C07E0934B07D0924E07C0924D07B1
:103720008091BA010E94010C30924C0720924B0705
:10373000D0924E07C0924D078091BB010E94010CB0
:10374000B0924C07A0924B07D0924E07C0924D0703
:103750008091BC010E94010C01E02BE130E04EE3BE
:1037600050E06BE170E088E390E00E94630A2BE197
:1037700030E046E450E06BE170E080E490E00E94CD
:10378000630A2BE130E04EE450E06BE170E088E446
:1037900090E00E94630A00E02CE130E048E550E050
:1037A0006CE170E088E390E00E94630A812F90E072
:1037B000079623E0880F991F2A95E1F7AC014A5F2D
:1037C0005F4F01E02CE130E06CE170E00E94630AA1
:1037D00066E970E080E090E00E94AD070E94640915
:1037E0000F900F900F900F900F900F9085FF04C0D7
:1037F000112309F47CC011500E94640986FF04C0A3
:10380000123008F07BC01F5F0E94640987FF2CC044
:10381000812F90E09C0126543E4F7901D9018C9173
:103820008F5F8C9360E570E08BE092E00E9441092D
:1038300064E670E080E090E00E94AD07F7018081CF
:10384000803309F49082D7018C91813211F4E1E444
:10385000EC93D7018C918B3511F4E0E3EC93D70115
:103860008C91803409F48C920E94640984FF2BC0EF
:10387000812F90E0FC01E654FE4F7F018081815052
:10388000808360E570E08BE092E00E94410964E68D
:1038900070E080E090E00E94AD07D7018C9180320B
:1038A00011F48FE38C93F70180818F3211F48AE554
:1038B0008083D7018C918F3109F44C92F70180817C
:1038C000803409F490820E94640983FFF1CE1230A3
:1038D000E0F41F5F6AEF70E086E194E00E94410926
:1038E000E3CE8BE791E09FCE90E080E0BFCE6AEF21
:1038F00070E086E194E00E9441097ECF6AEF70E0BB
:1039000086E194E00E9441097FCF6AEF70E086E192
:1039100094E00E944109F5E05F9E800111240A565F
:103920001F4FC8010E94F90C682E48012FEF821A20
:10393000920AC4010E94F90C3FEF631203C08F3F4B
:1039400009F485C0762C682E580182E0A80EB11CBF
:10395000C5010E94F90C282E680193E0C90ED11C04
:10396000C6010E94F90C382E7801A4E0EA0EF11C81
:10397000C7010E94F90C482E6091C2011A83098385
:10398000CE0101960E94FB0C6091C1019A8289824E
:10399000CE0101960E94FB0C6091BA01BA82A98205
:1039A000CE0101960E94FB0C6091BB01DA82C982B4
:1039B000CE0101960E94FB0C6091BC01FA82E98263
:1039C000CE0101960E94FB0C7092C2016092C1016F
:1039D0002092BA013092BB014092BC0153940B5F1C
:1039E0001F4FBAE05B129DCF80E28093BA018093B3
:1039F000BB018093BC011092C30181E0809302015E
:103A000083E090E090930101809300011092C20145
:103A10001092C10184E195E09093C0018093BF01B1
:103A200082E090E09093BE018093BD0180913707C2
:103A3000909138079093320780933107809139072E
:103A400090913A07909334078093330739CB712CC8
:103A5000612C7ACF0B5F1F4F522EEAE02E13F7CD69
:103A6000CACF8F929F92AF92BF92CF92DF92EF9286
:103A7000FF92CF93DF93EC01688179818A819B81EA
:103A8000611571058105910521F464E279ED8BE5FD
:103A900097E02DE133EF41E050E00E94EB1D49013A
:103AA0005A019B01AC01A7EAB1E40E940A1E6B0116
:103AB0007C01ACEEB4EFA50194010E94181EC60E65
:103AC000D71EE81EF91EF7FE06C081E0C81AD1080D
:103AD000E10880E8F80AC882D982EA82FB82C7013D
:103AE000B6019F77DF91CF91FF90EF90DF90CF905D
:103AF000BF90AF909F908F9008958F929F92AF92BA
:103B0000BF92CF92DF92EF92FF9260910F0170917E
:103B100010018091110190911201611571058105CB
:103B2000910521F464E279ED8BE597E02DE133EF27
:103B300041E050E00E94EB1D49015A019B01AC019C
:103B4000A7EAB1E40E940A1E6B017C01ACEEB4EF5F
:103B5000A50194010E94181EC60ED71EE81EF91E6C
:103B6000F7FE06C081E0C81AD108E10880E8F80A2B
:103B7000C0920F01D0921001E0921101F092120157
:103B8000C701B6019F77FF90EF90DF90CF90BF9075
:103B9000AF909F908F90089560930F0170931001E4
:103BA00080931101909312010895F999FECF92BD6F
:103BB00081BDF89A992780B50895262FF999FECFEF
:103BC0001FBA92BD81BD20BD0FB6F894FA9AF99A3A
:103BD0000FBE01960895052E97FB1EF400940E94D7
:103BE000021E57FD07D00E941D1E07FC03D04EF495
:103BF0000C94021E50954095309521953F4F4F4FA4
:103C00005F4F089590958095709561957F4F8F4F88
:103C10009F4F08950E943F1EA59F900DB49F900D49
:103C2000A49F800D911D11240895B7FF0C940A1EC6
:103C30000E940A1E821B930B0895A1E21A2EAA1B52
:103C4000BB1BFD010DC0AA1FBB1FEE1FFF1FA2174C
:103C5000B307E407F50720F0A21BB30BE40BF50B49
:103C6000661F771F881F991F1A9469F760957095D2
:103C7000809590959B01AC01BD01CF010895A29F55
:103C8000B001B39FC001A39F700D811D1124911D30
:103C9000B29F700D811D1124911D0895EE0FFF1F1D
:103CA0000590F491E02D099481E090E0F8940C9453
:103CB0003121AEE0B0E0EFE5FEE10C9408210D8982
:103CC0001E8986E08C831A8309838FEF9FE79E838A
:103CD0008D83AE01475E5F4F6F89788DCE0101966F
:103CE0000E947C1E2F813885020F131FF80110825D
:103CF0002E96E4E00C942421ABE0B0E0E2E8FEE193
:103D00000C94FA207C013B018A01FC011782168287
:103D1000838181FFC8C1CE0101965C01F7019381C7
:103D2000F30193FD859193FF81913F01882309F46D
:103D300053C1853239F493FD859193FF81913F0101
:103D4000853229F4B70190E00E946C20E7CF912CD6
:103D5000212C312CFFE1F31538F08B3211F190F466
:103D6000803209F1833229F137FC3CC020ED280F65
:103D70002A3050F536FE20C08AE0989E200D11248E
:103D8000922E06C08D3291F0803371F7689430F82E
:103D9000F30193FD859193FF81913F018111DACF6A
:103DA00021C0689431F8689432F8F2CF689433F8FF
:103DB000EFCF689434F8ECCFEAE02E9E200D11246A
:103DC000222E689435F8E4CF8E3229F436FC04C1F3
:103DD000689436F8DDCF8C3619F4689437F8D8CF6C
:103DE0008836B1F2982F9F7D95549330E0F083365A
:103DF000A1F18337C1F1833509F063C02801F2E0F6
:103E00004F0E511CF801C080D180692D70E036FC46
:103E100002C06FEF7FEFC6010E9456204C016894EC
:103E200037F882010AC00C5F1F4FFFE3F983882433
:103E30008394912C6501E89437F833FE2DC0522C01
:103E40008114910471F5552009F468CFB70180E21F
:103E500090E00E946C205A94F6CFF801808189830B
:103E60000E5F1F4FE4CF2801F2E04F0E511CF80106
:103E7000C080D180692D70E036FC02C06FEF7FEF0B
:103E8000C6010E9461204C018201D5CFB70180E2BA
:103E900090E00E946C202A942814190409F0B0F7CD
:103EA000CECFF60137FC859137FE81916F01B701C6
:103EB00090E00E946C2051105A94F1E08F1A910802
:103EC000BFCF843619F0893609F077C0F80137FE84
:103ED0006BC060817181828193810C5F1F4FF32DD4
:103EE000FF763F2E97FF09C090958095709561955C
:103EF0007F4F8F4F9F4F689437F82AE030E0A5013D
:103F00000E949C20C82ECA188C2C432C36FE0CC054
:103F1000E89440F8C91440F434FE05C032FC03C0F4
:103F2000F32DFE7E4F2E892C44FE95C0FE01EC0D34
:103F3000F11D8081803309F087C0242D297E422E17
:103F4000842D8870582E43FC95C040FE8FC09C2C59
:103F5000821418F42C0C922C981844FE91C0B701CE
:103F600080E390E00E946C2042FE09C088E790E068
:103F700041FE02C088E590E0B7010E946C20C914A0
:103F800008F48AC0CA94D12C9FEFC91AD90ACA0C66
:103F9000DB1CF60182916F01B70190E00E946C205A
:103FA000AC14BD04B1F74FCF60817181072E000CB6
:103FB000880B990B0E5F1F4F92CFD32CE894D4F847
:103FC0002AE030E0853739F1232D297FD22E8F3634
:103FD00001F148F48835A9F0F701868197812B9685
:103FE000E2E10C941621803749F08837A9F7D4FE16
:103FF00002C06894D2F820E130E00DC06894D4F893
:10400000F6CF34FE03C0822F8660D82E20E132E046
:1040100002C028E030E0F801D7FE0FC06081718156
:10402000828193810C5F1F4FA5010E949C20C82EA6
:10403000CA183D2CE89437F867CF6081718190E011
:1040400080E00E5F1F4FF0CF42FC02C0839478CF18
:104050008394839475CF842D867809F471CFF6CF3D
:10406000B70180E290E00E946C2083948214C0F338
:10407000512C73CF522C5818821408F46ECFF8CFFD
:10408000842D867809F47BCF8BE241FE80E247FCE9
:104090008DE2B70190E071CFB70180E390E00E941C
:1040A0006C209A946CCF8FEF9FEF99CFFC01059015
:1040B000615070400110D8F7809590958E0F9F1F2A
:1040C0000895FC016150704001900110D8F780956F
:1040D00090958E0F9F1F08950F931F93CF93DF939B
:1040E000182F092FEB018B8181FD09C01FEF0FEF06
:1040F000812F902FDF91CF911F910F91089582FF13
:1041000014C02E813F818C819D81281739073CF492
:10411000E881F981CF0101969983888310838E818C
:104120009F8101969F838E83E3CFE885F985812F58
:104130000995892BA1F3DACFFA01AA27283051F18A
:10414000203181F1E8946F936E7F6E5F7F4F8F4FC8
:104150009F4FAF4FB1E03ED0B4E03CD0670F781F27
:10416000891F9A1FA11D680F791F8A1F911DA11D0C
:104170006A0F711D811D911DA11D20D009F4689445
:104180003F912AE0269F11243019305D3193DEF6ED
:10419000CF010895462F4770405D4193B3E00FD0A3
:1041A000C9F7F6CF462F4F70405D4A3318F0495D8E
:1041B00031FD4052419302D0A9F7EACFB4E0A69571
:1041C0009795879577956795BA95C9F70097610593
:1041D000710508959B01AC010A2E069457954795E9
:1041E00037952795BA95C9F7620F731F841F951FDE
:1041F000A01D08952F923F924F925F926F927F92EF
:104200008F929F92AF92BF92CF92DF92EF92FF92E6
:104210000F931F93CF93DF93CDB7DEB7CA1BDB0B92
:104220000FB6F894DEBF0FBECDBF09942A88398837
:1042300048885F846E847D848C849B84AA84B9843E
:10424000C884DF80EE80FD800C811B81AA81B9814A
:10425000CE0FD11D0FB6F894DEBF0FBECDBFED015E
:064260000895F894FFCF61
:10426600030001FFFFFFFF00E10000000000000166
:1042760000000000C1808100000000000000480628
:10428600E00769065E06AF066D068B0600000000B5
:10429600FF0A5B07080C070C9310FCFF0000D41004
:1042A600413A535441525400423A544F47474C45C1
:1042B60020534F554E4400484947482053434F52D8
:1042C6004553002532640025632563256320257543
:1042D6000047616D65204F7665720054696D6520F3
:1042E6004F76657200484947482053434F52450070
:00000001FF
