:100000000C9425040C944D040C944D040C944D0454
:100010000C944D040C944D040C944D040C944D041C
:100020000C944D040C944D040C94E70B0C94560C5A
:100030000C944D040C944D040C944D040C944D04FC
:100040000C944D040C94730F0C944D040C944D04BB
:100050000C944D040C944D040C944D040C94470ED8
:100060000C944D040C944D040C944D040C944D04CC
:100070000C944D040C944D040C944D040C944D04BC
:100080000C94AC0E0C944D040C944D040C944D0443
:100090000C944D040C944D040C944D040C944D049C
:1000A0000C944D040C944D040C944D04FF818181FB
:1000B000818181FF00000000003E5B4F5B3E3E6B94
:1000C0004F6B3E1C3E7C3E1C183C7E3C181C577DF2
:1000D000571C1C5E7F5E1C00183C1800FFE7C3E73E
:1000E000FF0018241800FFE7DBE7FF30483A060E50
:1000F0002629792926407F050507407F05253F5A97
:100100003CE73C5A7F3E1C1C08081C1C3E7F142206
:100110007F22145F5F005F5F06097F017F006689B1
:10012000956A606060606094A2FFA29408047E04F7
:100130000810207E201008082A1C08081C2A08081D
:100140001E101010100C1E0C1E0C30383E383006DD
:100150000E3E0E06000000000000005F00000007D9
:10016000000700147F147F14242A7F2A1223130807
:10017000646236495620500008070300001C2241E3
:10018000000041221C002A1C7F1C2A08083E080887
:100190000080703000080808080800006060002037
:1001A000100804023E5149453E00427F400072491A
:1001B0004949462141494D331814127F10274545BE
:1001C00045393C4A494931412111090736494949D4
:1001D00036464949291E0000140000004034000042
:1001E00000081422411414141414004122140802AB
:1001F000015909063E415D594E7C1211127C7F491E
:100200004949363E414141227F4141413E7F494972
:1002100049417F090909013E414151737F0808089E
:100220007F00417F41002040413F017F081422416F
:100230007F404040407F021C027F7F0408107F3EC9
:100240004141413E7F090909063E4151215E7F0936
:10025000192946264949493203017F01033F40409D
:10026000403F1F2040201F3F4038403F6314081488
:100270006303047804036159494D43007F414141C0
:100280000204081020004141417F040201020440A1
:1002900040404040000307080020545478407F2825
:1002A0004444383844444428384444287F3854541B
:1002B000541800087E090218A4A49C787F0804043E
:1002C0007800447D40002040403D007F10284400DD
:1002D00000417F40007C047804787C08040478386E
:1002E00044444438FC1824241818242418FC7C089E
:1002F000040408485454542404043F44243C40401B
:10030000207C1C2040201C3C4030403C44281028CD
:10031000444C9090907C4464544C44000836410016
:100320000000770000004136080002010204023C90
:100330002623263C1EA1A161123A4040207A38545F
:1003400054555921555579412154547841215554DA
:10035000784020545579400C1E527212395555552B
:1003600059395454545939555454580000457C4116
:100370000002457D420001457C40F0292429F0F02F
:10038000282528F07C545545002054547C547C0A80
:10039000097F4932494949323248484832324A484D
:1003A00048303A4141217A3A42402078009DA0A04D
:1003B0007D39444444393D4040403D3C24FF2424A1
:1003C000487E4943662B2FFC2F2BFF0929F620C0BE
:1003D000887E090320545479410000447D4130480F
:1003E000484A32384040227A007A0A0A727D0D1952
:1003F000317D2629292F28262929292630484D40B4
:1004000020380808080808080808382F10C8ACBAAF
:100410002F102834FA00007B000008142A1422222E
:10042000142A14089500220095AA005500AAAA557E
:10043000AA55AA000000FF00101010FF00141414A9
:10044000FF001010FF00FF1010F010F0141414FC47
:10045000001414F700FF0000FF00FF1414F404FC64
:10046000141417101F10101F101F1414141F001045
:100470001010F0000000001F101010101F101010BE
:1004800010F010000000FF101010101010101010CD
:10049000FF10000000FF140000FF00FF00001F100D
:1004A000170000FC04F414141710171414F404F4C7
:1004B0000000FF00F714141414141414F700F714B8
:1004C0001414171410101F101F141414F414101007
:1004D000F010F000001F101F0000001F14000000AB
:1004E000FC140000F010F01010FF10FF141414FFA3
:1004F000141010101F00000000F010FFFFFFFFFF9E
:10050000F0F0F0F0F0FFFFFF0000000000FFFF0F31
:100510000F0F0F0F38444438447C2A2A3E147E02C1
:10052000020606027E027E02635549416338444456
:100530003C04407E201E2006027E020299A5E7A50B
:10054000991C2A492A1C4C7201724C304A4D4D307C
:100550003048784830BC625A463D3E494949007EA1
:100560000101017E2A2A2A2A2A44445F4444405138
:100570004A444040444A51400000FF0103E080FFEC
:10058000000008086B6B083612362436060F090F78
:1005900006000018180000001010003040FF010194
:1005A000001F01011E00191D1712003C3C3C3C00BD
:1005B0000000000006011501260137014A015D0116
:1005C000720188019F01B801D201EE010B022A02DB
:1005D0004B026E029302BA02E40210033F0370035F
:1005E000A403DC03170455049704DD0427057505EF
:1005F000C80520067D06E0064907B8072D08A908AA
:100600002D09B9094D0AEA0A900B400CFA0CC00DED
:10061000910E6F0F5A1053115B1272139A14D41566
:1006200020178018F519801B231DDE1EB420A6227A
:10063000B524E4263429A72B402E0031EA330037B5
:10064000453ABC3D68414C456B49C84D68524F57CF
:10065000805C006210111213151617181A1C1D1F4A
:1006600021232527292C2E3134373A3E4145494E46
:1006700052575C62686E757B838B939CA5AFB9C43F
:10068000D0DCE9F70000000200090F0000030401BC
:10069000000C00000000000000000000000000004E
:1006A0000000000000000000000000000018BCFE78
:1006B000C6C2C2C6FE3C00FCFEC6C2C2C6FE3C00AC
:1006C00000D8C8002070F8F8202000F8FCFEF67E64
:1006D0003E3C3800F8FCFEC6C2C2C6FEFC00FEFE70
:1006E000FE0606060CFCF000FCFEC6C2C2020000BC
:1006F00000000000000000000000000000000000FA
:1007000000000000000E1F1F101010191F0E001F08
:100710001F181010101D1F06001F1F0000001F1FB4
:100720001808000F1F1F1F1E1E1E0C000F1F1F008A
:100730000000001F1F001F1F1F1818181C0F0300A8
:100740001F1F10101010000000000000000000002B
:1007500000000000000000240027002A002D0030C7
:10076000008D14A1C881CFD9F102AF140213021277
:100770000215020702080204010101020100FF99AB
:10078000BDFFFFBD99FFFF99A5C3C3A599FF080B46
:10079000000202020100090400000102020000053B
:1007A0002400100105240101010424020605240689
:1007B00000010705810310004009040100020A003E
:1007C0000000070502024000000705830240000008
:1007D0000403090412010002EF02014041233680A4
:1007E00000010102030141726475696E6F204C4C77
:1007F00043004142413131303600040802011040CB
:100800008040102040804080080204018040201079
:100810000201108010204040200000000025002828
:10082000002B002E0031000404040404030405021C
:10083000020202040302020202060606060606047B
:100840000402020204040301DE0F11241FBECFEFD5
:10085000DAE0DEBFCDBF11E0A0E0B1E0E2ECF6E20D
:1008600002C005900D92A437B107D9F726E0A4E79E
:10087000B1E001C01D92A332B207E1F714E0C5E276
:10088000D4E004C02197FE010E945913C432D1075D
:10089000C9F70E9411100C945F130C9400002F9262
:1008A0003F924F925F926F927F928F929F92AF9200
:1008B000BF92CF92DF92EF92FF920F931F93CF934D
:1008C000DF93CDB7DEB72A970FB6F894DEBF0FBE21
:1008D000CDBF822E912C9401280F391F37FDC1C046
:1008E000803891050CF0BDC09B01200F311D37FDF4
:1008F000B8C0603471050CF0B4C09B0177FF04C030
:1009000022273327261B370B27703327DB0177FD80
:100910001796E3E0B595A795EA95E1F777FF07C04D
:10092000119768E070E0FB01E21BF30B9F01069555
:1009300006950695602E712CBA01681B790B7A8793
:1009400069875D01B694BA2CAA24B794A794A80E1F
:10095000B91EB887AF83F12CE12C250170E8470E52
:10096000511CA501475F5D4F5C834B8368E070E0DD
:10097000AB01421B530B5E834D834F8158854F3F24
:100980005F4F0CF453C015012E0C3F1CA2014E0DFD
:100990005F1D5A8349830B811C810E0D1F1DBC01F5
:1009A00077FD36C04F8158854F3F5F4F09F472C0C5
:1009B000E985FA85E60FF71FE491F0E0AF01022E1A
:1009C00001C0440F0A94EAF7F8015489452B448B7F
:1009D00021153105E9F04F81588547305105C1F0A7
:1009E000E985FA85E60FF71FE4916801C218D3087C
:1009F00049815A81C40ED51EF0E0AF010D8002C0BE
:100A0000559547950A94E2F7F6015489452B448B96
:100A10006F5F7F4F0F5F1F4FFB01E81BF90BE8155E
:100A2000F90524F46038710509F0BACF4F81588573
:100A30004F5F5F4F58874F8369857A85680D791DB1
:100A40007A87698770E8E70EF11CBA016A1B7B0B95
:100A50006615770534F46F8178856830710509F083
:100A60008CCF2A960FB6F894DEBF0FBECDBFDF91B4
:100A7000CF911F910F91FF90EF90DF90CF90BF909B
:100A8000AF909F908F907F906F905F904F903F902E
:100A90002F9008952115310509F0A2CFB9CF90E02C
:100AA000EDE1F2E091119FEF8FEF9193919391938C
:100AB00091938150D0F70895E1E0F0E00E94710534
:100AC000319728F068517C4F8F4F9F4FF9CFAB0182
:100AD000FC010E947105641775078E079F07C8F314
:100AE0000895AAE8B1E02FB7F8947D918D919C917B
:100AF00066B52FBFA89B05C06F3F18F47F5F8F4F6F
:100B00009F4F22E0660F771F881F991F2A95D1F704
:100B10000895FC018091B101882311F13FB7F89449
:100B200082E08093E9002091F200822F90E0181675
:100B3000190614F481E090E0882339F0289844E6FF
:100B40004093B0014091F1004083222339F020917D
:100B5000F200211103C02BE62093E8003FBF089567
:100B60008FEF9FEF08952FB7F89483E08093E9000B
:100B70009091E800892F807295FF04C09091F20057
:100B800080E4891B2FBF08958091A80181110DC0B9
:100B900082E08093A40184E08093A5011092A701D4
:100BA0001092A60181E08093A80184EA91E0089563
:100BB0008F929F92AF92BF92CF92DF92EF92FF926D
:100BC0000F931F93CF93DF936C017B018A01809178
:100BD0003901882309F458C08091B101882309F4B0
:100BE00053C08091A30180FF05C08091E000826026
:100BF0008093E000E801B12C8AEFA82E93E0892EC3
:100C00002AE3922E209711F4BB20B9F10E94B3057C
:100C1000811106C0AA94AA20B9F10E945C05F2CF06
:100C20008C171D0611F00CF08C2F9FB7F894809252
:100C3000E9002091E80025FD02C09FBFE3CF282FE7
:100C400030E0C21BD30BF701815020F0419140935B
:100C5000F100FACFE20EF31EBB2021F09092E800E3
:100C6000B12CEBCF8091E80085FDE7CF9092E800B2
:100C7000BB24B394209709F3F3CF5D9884E6809367
:100C8000A201101611063CF081E090E0F60193837A
:100C9000828310E000E0C801DF91CF911F910F9196
:100CA000FF90EF90DF90CF90BF90AF909F908F908C
:100CB0000895CF93DF931F92CDB7DEB76983DC0130
:100CC000ED91FC910280F381E02D41E050E0BE0106
:100CD0006F5F7F4F09950F90DF91CF91089583E06B
:100CE0008093E9008091F200882319F08AE38093D1
:100CF000E80008950E94B30590E00895CF93DF9334
:100D00001F92CDB7DEB7FC018485958597FD08C09D
:100D10002FEF3FEF358724870F90DF91CF91089514
:100D2000CE0101960E948905019719F4898190E00E
:100D3000F3CF8FEF9FEFF0CF0F931F93CF93DF93FE
:100D40001F92CDB7DEB78C01FC018485958597FF96
:100D50000BC0CE0101960E948905019771F489812B
:100D600090E0F80195878487F801848595850F9038
:100D7000DF91CF911F910F9108958FEF9FEFF1CFEA
:100D8000FC018485958597FD0BC09FB7F89482E0A0
:100D90008093E9008091F2009FBF90E00196089552
:100DA0009FB7F89482E08093E9008091F2009FBFA2
:100DB00090E0089540919E0150919F0120919C01E7
:100DC00030919D0142175307B4F49091E80095705B
:100DD000E1F39091E80092FD19C08093F1008091B9
:100DE0009E0190919F0101968F739927892B19F489
:100DF0008EEF8093E80080919E0190919F01019673
:100E000090939F0180939E0181E0089580E0089572
:100E1000EF92FF920F931F93CF93DF93F82E192F2A
:100E2000E62E042F81E0860F880F0E94DA0683E009
:100E30000E94DA06CF2DD12FEC0EFD2EF11CCE151F
:100E4000DF05B9F007FF13C0FE0184910E94DA06A6
:100E5000182F80E00E94DA06812321968111EFCFBE
:100E6000DF91CF911F910F91FF90EF9008958881AE
:100E7000EDCF81E0F5CFDF92EF92FF920F931F93BA
:100E8000CF93DF93D82E8A01EB017B01E40EF51E90
:100E9000CE15DF0559F0D7FE12C0FE0184910E94E5
:100EA000DA0621968111F4CF0FEF1FEFC801DF9111
:100EB000CF911F910F91FF90EF90DF90089588815F
:100EC000EECF0F931F93CF93DF931F92CDB7DEB773
:100ED00082E0898342E450E06EE877E080E80E9497
:100EE0003B070E94C405DC0112960D911C9101156F
:100EF000110589F0D801ED91FC910280F381E02D7C
:100F0000BE016F5F7F4FC801099597FD04C0F801CE
:100F100000851185ECCF89810F90DF91CF911F91D2
:100F20000F910895615030F02091F100FC01208371
:100F30000196F8CF289884E68093B0010895AF9287
:100F4000BF92CF92DF92EF92FF920F931F93CF93B6
:100F5000DF936C017B018B01040F151FEB015E0118
:100F6000AE18BF08C017D10759F06991D601ED91AD
:100F7000FC910190F081E02DC6010995892B79F74C
:100F8000C501DF91CF911F910F91FF90EF90DF90FE
:100F9000CF90BF90AF900895282F30E0F901EC5723
:100FA000F94F9491F901E650F84F8491295D374F3C
:100FB000F9012491222309F430C09923E9F09150DA
:100FC0009F30D0F4E92FF0E0E851F84F0C9459131A
:100FD00016081A08F7070E081208FC07FC07FC079A
:100FE0001D08230827082B083108FC0735089091B5
:100FF00080009F7790938000E22FF0E0EE0FFF1FBC
:10100000E75EF74FA591B4919FB7F894EC91611109
:1010100032C080958E238C939FBF0895909180005D
:101020009F7DE8CF90918000977FE4CF94B59F7724
:1010300094BDE2CF94B59F7DFBCF909190009F77B8
:1010400090939000D9CF909190009F7DF9CF90918F
:101050009000977FF5CF9091C0009F779093C0004C
:10106000CBCF9091C0009F7DF9CF9091C200977F28
:101070009093C200C1CF8E2BCECFCF93DF9390E061
:10108000FC01E650F84F2491895D974FFC01849153
:101090008823C9F090E0880F991FFC01ED5AF84FA2
:1010A000A591B491FC01E75EF74FC591D491611110
:1010B0000DC09FB7F8948C91209582238C938881E2
:1010C000282328839FBFDF91CF910895623051F488
:1010D0009FB7F8943C91822F809583238C93E8816D
:1010E0002E2BEFCF8FB7F894EC912E2B2C938FBF34
:1010F000EACF1F93CF93DF93182FEB0161E00E949B
:101100003D08209739F460E0812FDF91CF911F9146
:101110000C94CC07CF3FD10511F461E0F5CFE12F5E
:10112000F0E0EC57F94FE491E150EF3008F07FC068
:10113000F0E0E356F74F0C945913AC08B408B90823
:10114000C308CD08170917091709D708E108EB08E4
:10115000F508020917090A0984B5806884BDC7BD6E
:10116000DF91CF911F91089584B5806284BDC8BD81
:10117000F7CF80918000806880938000D0938900B1
:10118000C0938800EDCF80918000806280938000C2
:10119000D0938B00C0938A00E3CF80918000886059
:1011A00080938000D0938D00C0938C00D9CF809124
:1011B0009000806880939000D0939900C09398002D
:1011C000CFCF80919000806280939000D0939B005D
:1011D000C0939A00C5CF8091900088608093900062
:1011E000D0939D00C0939C00BBCF8091C0008068CD
:1011F0008093C0008091C0008F7B8093C000C0931B
:10120000CF00AECF8091C00080628093C000C093B9
:10121000D000A6CF8091C20088608093C2008091E8
:10122000C2008B7F8093C200C093D20099CFC03898
:10123000D1050CF072CF67CFAB01FC010E947105A4
:1012400041505109E109F10928F068517C4F8F4F55
:101250009F4FF6CFAB01FC010E9471056417750723
:101260008E079F07C8F308958FB18095807F669B96
:1012700088601C9B84600895E0919101F091920137
:1012800090818091900180958923808308950F93A8
:101290001F93CF93DF93182FD92FC0EB00E10E944B
:1012A0003C09CEBD0DB407FEFDCF0EBD0DB407FE4B
:1012B000FDCFE0919101F091920180819091900198
:1012C000892B8083E12FFD2FCF0180589F4F2191E3
:1012D0002EBD0DB407FEFDCF8E179F07C1F7182F47
:1012E000D92FCF5FC83BD9F6DF91CF911F910F91D6
:1012F0000895CF92DF92EF92FF920F931F93CF93B7
:10130000E82FF0E0EA5BF74FC491E62FF0E060339E
:1013100098F5EC5AF94FE4910E2F10E0F12CE12CE6
:1013200060E074E284EF90E0A70198010E94091345
:10133000215031094109510991E02115310581E020
:10134000480751056CF060E970ED83E090E0A7017B
:1013500098010E940913215031094109510993E074
:10136000C13089F0C330F9F0CF911F910F91FF90F8
:10137000EF90DF90CF900895EE0FFF1FEC5AFA4FD9
:1013800005911491CBCF80918100887F892B809328
:101390008100309389002093880080916F008260E3
:1013A00080936F00E1CF80919100887F892B80939B
:1013B000910030939900209398001093810100933D
:1013C000800181E080937F01809171008260809331
:1013D0007100CACFE82FF0E0EA5BF74FE491E1300B
:1013E00019F0E33089F0089580916F008D7F80932C
:1013F0006F008091B501E091B601F091B701908145
:10140000809589238083089510927F018091B20195
:10141000E091B301F091B401F2CFCF93DF939091BB
:10142000B801923081F0C82FE92FF0E0EA5BF74F66
:10143000D4919F5F9093B80161E00E943D08D13044
:1014400029F0D33049F1DF91CF91089510928000B7
:10145000109281008091810088608093810080914A
:1014600081008160809381008C2F90E0FC01E95D18
:10147000F74FE491F0E0EE0FFF1FE75EF74F259185
:1014800034913093B7012093B6018650984FFC01F8
:1014900084918093B501D7CF109290001092910063
:1014A000809191008860809391008091910081608B
:1014B000809391008C2F90E0FC01E95DF74FE4915F
:1014C000F0E0EE0FFF1FE75EF74F25913491309368
:1014D000B4012093B3018650984FFC01849180930E
:1014E000B2018091B801882321F06CE380E00E9472
:1014F000790980E0DF91CF910C94EA092F923F9215
:101500004F925F926F927F928F929F92AF92BF9213
:10151000CF92DF92EF92FF920F931F93CF93DF93BF
:1015200000D000D0CDB7DEB76A3069F5FC01EA5EC5
:10153000FB4FDC01A85EBB4F2C9148E0249F90013B
:10154000112440815181240F351F318320838C5E0B
:101550009B4FDC011D921C920F900F900F900F90EB
:10156000DF91CF911F910F91FF90EF90DF90CF907F
:10157000BF90AF909F908F907F906F905F904F90B3
:101580003F902F9008956D3039F3FC01E85EFB4FDA
:10159000B0803497408151810B2D10E040385105C7
:1015A0000CF08DC0329680809180B0E48B1691044F
:1015B0000CF085C075E09A01B79E200D311D1124F5
:1015C000121613060CF07BC09801E3E0220F331FC4
:1015D000EA95E1F7280D391D121613060CF06FC0BD
:1015E000679FB00111245C834B83B0E0A0E0FB0156
:1015F000EC54FF4F1F01E0E0A53021F0F101EA0FAC
:10160000FB1FE491740138E0A32E4E2E512CE170A3
:101610007E2E6B817C81262FFB812F1B2B15E0F505
:101620001A82198229812B15A0F56038710538F5C9
:10163000C980DA80CE0CDF1C30E4C316D104F8F484
:101640002E0D322F36953695369520E8329FF001D3
:101650001124E60FF71F37E0C322DD2421E030E03C
:1016600002C0220F331FCA94E2F769019F01280FBD
:10167000391FF9016488772049F0C628C48A298176
:101680003A812F5F3F4F3A832983CCCFC094C62045
:10169000F5CF6F5F7F4FBFCF55944794E42DAA9449
:1016A000E00EF11EA110B1CF11962B813C81200FCD
:1016B000311F3C832B83A630B10509F09CCF36E067
:1016C000B39E400D511D1124FC01EC5EFB4F518374
:1016D000408335962081222309F43ECF6AEF6003D0
:1016E0009001619F300D112420583F4F241735077A
:1016F0000CF032CFDC01ED91FC910190F081E02DF6
:101700006AE00F900F900F900F90DF91CF911F9193
:101710000F91FF90EF90DF90CF90BF90AF909F9090
:101720008F907F906F905F904F903F902F90099493
:10173000089590E080E00895AF92BF92CF92DF923B
:10174000EF92FF920F93CF93DF9392E0C92E91E037
:10175000D92ED0E0C0E056018AE0E82EF12CF50148
:1017600081915F0108E028E046E857E08F3431F0CE
:101770004EE757E0883511F04CEA50E0B701CE0152
:101780000E944F04F8E0EF0EF11C8AE3E816F10422
:1017900031F72896E6E0CE0ED11CC833D105D9F634
:1017A000DF91CF910F91FF90EF90DF90CF90BF909E
:1017B000AF900895FC0101900020E9F73197AF0147
:1017C000481B590BBC0189E092E00C949F071F92C3
:1017D0000F920FB60F9211248F939F938091E10087
:1017E0009091E100937F9093E10083FF0FC01092EE
:1017F000E90091E09093EB001092EC0092E390935B
:10180000ED001092B10198E09093F00082FF22C0A9
:1018100093E09093E9009091F200992319F09AE3F4
:101820009093E8009091A201992341F09091A20138
:1018300091509093A201911101C05D9A9091B001D5
:10184000992341F09091B00191509093B001911182
:1018500001C0289A84FF18C08091E2008E7E8160CA
:101860008093E2008091E1008F7E8093E10080917F
:10187000A3018E7E80618093A3019F918F910F9031
:101880000FBE0F901F90189580FFF7CF8091E20058
:101890008E7E80618093E2008091E1008E7E809355
:1018A000E1008091A3018E7E8160E5CF1F920F92AF
:1018B0000FB60F921124CF92DF92EF92FF920F9307
:1018C0001F932F933F934F935F936F937F938F93C8
:1018D0009F93AF93BF93EF93FF93CF93DF93CDB7D6
:1018E000DEB76C97DEBFCDBF1092E9008091E800B3
:1018F00083FF25C068E0CE0145960E94920782EFE3
:101900008093E8008D8987FF39C09091E80090FFAF
:10191000FCCF982F907609F034C19E894F89588D5D
:101920002F89F88C911131C0803861F58091A10127
:101930008093F1001092F1008EEF8093E8006C9696
:101940000FB6F894DEBF0FBECDBFDF91CF91FF91F0
:10195000EF91BF91AF919F918F917F916F915F9127
:101960004F913F912F911F910F91FF90EF90DF903A
:10197000CF900F900FBE0F901F9018959EEF9093F1
:10198000E800C7CF1092F100D5CF913059F4811102
:10199000D3CF4130510581F68091A1018D7F809395
:1019A000A101CACF933049F48111C6CF413051050E
:1019B00019F68091A1018260F2CF953041F48091B7
:1019C000E80080FFFCCF20682093E300B5CF96307D
:1019D00009F0A9C00B8D1C8D22E01092E900109235
:1019E0009F0110929E01F2122EC010929D01109242
:1019F0009C010E9461071F8299E09983FA8291E01D
:101A00009E8390EA98879AEF998720919E01309162
:101A10009F01275F3F4F3C832B838D831092E9000A
:101A200010929F0110929E0110939D0100939C01C2
:101A300049E050E0BE016F5F7F4F80E00E943B07AE
:101A40000E94610779CF10939D0100939C010E9431
:101A5000C405DC0112960D911C910115110509F4C4
:101A600010C1D801ED91FC910480F581E02DBE01FB
:101A70006B5E7F4FC8010995009709F0FDC0F80122
:101A800000851185EACFF3E0FF120EC08F8988230D
:101A900009F440C0823061F440E867E082EF97E0EB
:101AA0000E940807811148CF81E28093EB0047CF65
:101AB000813029F440E86BE086EE97E0F1CF833087
:101AC00099F70E94C405DC011296ED90FC908E01FE
:101AD0000F5F1F4F6801E114F10479F0D701ED9118
:101AE000FC910680F781E02DB801C7010995080F28
:101AF000111DF701E084F184EECFD8011C92F601AC
:101B000001900020E9F73197BF016C197D0940E091
:101B1000C601C6CF60ED77E0FB01449150E080E85C
:101B20000E943B0709CF973009F4BECF983021F4CB
:101B300081E08093F10000CF993009F0FDCE8370F1
:101B400009F0B2CFEBE3F1E081E031E096E32191DF
:101B5000222371F08093E9003093EB00DF011197AD
:101B60002C912093EC009093ED008F5F873079F7F4
:101B70008EE78093EA001092EA008F898093B1018A
:101B8000DBCE8B8D9C8D1092E90010929F011092FC
:101B90009E0190939D0180939C01898D811151C07C
:101BA0008E899D89913A49F4813209F07DCF47E0D1
:101BB00050E062E371E080E0B3CF913209F074CF7E
:101BC000833269F48F89988DB0E0A0E080932E0174
:101BD00090932F01A0933001B0933101ADCE8032AC
:101BE00069F48091E80082FFFCCF67E082E391E036
:101BF0000E9492078BEF8093E8009ECE823209F01C
:101C00009BCE8F898093390180913201909133016D
:101C1000A0913401B0913501803B9440A105B105FC
:101C200069F48091390180FD09C088E78093A001A3
:101C3000809164008F7D809364007ECE1092A0011D
:101C40007BCE0E94C405DC0112960D911C910115FA
:101C5000110509F429CFD801ED91FC910190F08193
:101C6000E02DBE016B5E7F4FC8010995811164CEE6
:101C7000F80100851185EBCF181619060CF45CCE1F
:101C800013CFF1E0FF12FFCE64ED77E045CF0F9365
:101C90000FB70F931F9211248F939F93EF93FF938E
:101CA000E6E8F1E08091850191E08D5F8D3710F0DD
:101CB0008D579395809385018081890F80839181D1
:101CC000911D91830281011D02838381811D838384
:101CD00009270F70092702950093840135D08111DF
:101CE00000938201803989F400918301901B963022
:101CF00070F087E7809300088093010888E198E0FE
:101D00008093600090936000FFCF90938301809157
:101D1000A001815018F08093A00159F3EAE8F1E0A6
:101D20008081918101968083918382819381811D3D
:101D3000911D82839383FF91EF919F918F911F90CB
:101D40000F910FBF0F9118958FB18095807F669B83
:101D500088601C9B846008951F920F920FB60F92AB
:101D600011242F933F934F935F936F937F938F93A0
:101D70009F93AF93BF93EF93FF9380917F0188234D
:101D800049F08091B201E091B301F091B4019081EA
:101D90008927808380918E01882309F456C0809121
:101DA0007B0190917C01A0917D01B0917E01892BF6
:101DB0008A2B8B2B09F449C080917B0190917C0187
:101DC000A0917D01B0917E010197A109B109809395
:101DD0007B0190937C01A0937D01B0937E01892BC0
:101DE0008A2B8B2B91F5E0917901F0917A01BF015B
:101DF0006F5F7F4F70937A01609379012491922FE6
:101E0000907F822F8F70903819F40E94EA09EBCFEF
:101E1000903981F43296F0937A01E0937901FB01D5
:101E200064919091B8018917F0F667FDDCCF0E94AC
:101E30007909D9CF903E29F410927A011092790154
:101E4000D2CF903F99F410928E01FF91EF91BF9104
:101E5000AF919F918F917F916F915F914F913F9142
:101E60002F910F900FBE0F901F90189597FDBBCF2D
:101E70003296F0937A01E0937901FB016491A0918D
:101E80008001B0918101322F262F0E944A136C509D
:101E90007E4F8F4F9F4F28EE33E040E050E00E948E
:101EA000281320937B0130937C0140937D01509354
:101EB0007E0180917B0190917C01A0917D01B09188
:101EC0007E01892B8A2B8B2B09F0BFCF81E090E01C
:101ED000A0E0B0E080937B0190937C01A0937D0112
:101EE000B0937E01B2CF1F920F920FB60F921124C2
:101EF0008F939F93AF93BF93EF93FF93809178015C
:101F0000882309F452C08091740190917501A091C9
:101F10007601B0917701892B8A2B8B2BA1F19091BF
:101F2000B501E091B601F091B701808189278083E6
:101F30008091740190917501A0917601B091770123
:101F4000181619061A061B069CF4809174019091CC
:101F50007501A0917601B09177010197A109B109AE
:101F60008093740190937501A0937601B0937701EB
:101F7000FF91EF91BF91AF919F918F910F900FBE05
:101F80000F901F9018951092780180916F008D7FAF
:101F900080936F008091B501E091B601F091B70197
:101FA0009081809589238083E3CF9091B501E09162
:101FB000B601F091B70180818927F5CFE9EBF1E017
:101FC0001382128288EE93E0A0E0B0E084839583D0
:101FD000A683B78385E491E0918380838FEF9FEFA1
:101FE00095878487E9E0F2E01382128287E591E029
:101FF000918380838CE3868380E1818710861782BA
:1020000016861786108A118A128A10921E0610925E
:102010001D061092200610921F0681E08093210673
:102020000895CDB7DEB7A197DEBFCDBF789483E02A
:1020300084BD83E085BD81E080936E00E1E8F0E03F
:1020400083E08083E0E881E08083E1E983E08083CE
:10205000E0E981E08083E1EC87E08083E3EC81E0EC
:102060008083E0EC82E08083E2EC81E08083EAE739
:1020700087E08083806880831092B1011092A10173
:102080001092A3018091D70081608093D70080EAED
:102090008093D80089B5806189BD89B5826089BD8A
:1020A00009B400FEFDCF0E945C058091D8008F7CB2
:1020B00080618093D8008091E000807F8093E00071
:1020C0008091E1008E7E8093E1008DE08093E200BC
:1020D000559A209A1FB7F89480918F01811127C0DB
:1020E000E8E3F8E08491EBE0F8E09491E82FF0E089
:1020F000EE0FFF1FED5AF84FA591B491EC91E92333
:1021000021F461E081E10E94CC0761E081E10E945D
:102110003D088CB580618CBD8CB580648CBD61E060
:102120008FE00E943D0861E080E10E943D088091BF
:102130008F018F5F80938F011FBF0BE617E0F801BF
:10214000849131966491882329F00E943D080E5FA6
:102150001F4FF5CF61E082E00E94CC0761E070E0A4
:1021600080E090E00E941C0960E082E00E94CC07C1
:102170006AE070E080E090E00E941C0961E082E08B
:102180000E94CC07E8E2F8E0E491F0E0EE0FFF1FD8
:10219000E75EF74FA591B4919C9180919301809552
:1021A00089238C93EBEFF7E0E491E0939301EBE26A
:1021B000F8E0E491F0E0EE0FFF1FE75EF74F859146
:1021C00094919093920180939101EEEFF7E0E49166
:1021D000E09390018CB58C7F8CBD8DB581608DBDF9
:1021E0000E943C09E1E6F7E027E0EB36F20749F010
:1021F00084918EBD00000DB407FEFDCF8EB53196E3
:10220000F3CFE0919101F091920180819091900142
:10221000892B808380916400816080936400809129
:102220006400826080936400809164008068809381
:1022300064008091640080648093640080916500F4
:102240008160809365000E94340987FF1AC080E294
:1022500094E01EBC00000DB407FEFDCF2EB5019723
:10226000C1F770E060E08AE00E94790870E060E009
:1022700083E00E94790870E060E089E00E947908BC
:10228000FFCF5EEEE52EFF24FA94B70169517F4F30
:102290008AE00E9479086FEF70E083E00E9479087D
:1022A0006FEF70E089E00E9479080E944F0500E11D
:1022B00028E543EA56E0B70184E190E00E944F042C
:1022C0008DE192E00E9447096BE170E080E090E0D0
:1022D0000E941C0960EFE61206C06AEF70E080E021
:1022E00090E00E941C098FEFE81AF80A99E1E916BC
:1022F000F10459F66EEE72E080E090E00E941C0955
:102300006FEF70E08AE00E9479086FEF70E083E081
:102310000E9479086FEF70E089E00E94790885E0FB
:102320000E940D0A86E00E940D0A10928E0182E042
:1023300090E00E940113882351F080916400877F10
:102340008093640080916500877F809365000E9480
:102350004F052AE0822E912CA12CB12CEE24E3947F
:10236000F12C42E0242E312C86E0D82E98E5C92E9F
:102370000E944F050E949C0B80912C0190912D0191
:10238000019709F009C1E6E8F7E0F0930101E09355
:1023900000010E94340985FF20C080919601909130
:1023A0009701892BD1F48091980190919901181689
:1023B00019069CF42091940130919501285031091F
:1023C0003093950120939401019790939901809304
:1023D0009801F0929701E09296010E94340986FFDD
:1023E00020C08091960190919701892BD1F4809122
:1023F000980190919901863091059CF42091940167
:1024000030919501285F3F4F3093950120939401BF
:1024100001969093990180939801F0929701E09230
:1024200096010E94340986FD08C00E94340985FD8A
:1024300004C01092970110929601409100015091B2
:10244000010108E028E06AE070E080919401909139
:1024500095010E944F04E9E1F0E0F0931E06E0933D
:102460001D061092200610921F068FE591E00E9433
:10247000DA0B88E490E090931E0680931D068AE0B4
:1024800090E09093200680931F068CE691E00E94D6
:10249000DA0B40902C0150902D01052C000C6608A1
:1024A000770877FE80C06DE289E092E00E947E0AA4
:1024B00022273327A901241935094609570919A2EA
:1024C0008E010F5D1F4FCA01B901A50194010E9441
:1024D0002813605DF80162938F01211531054105D4
:1024E000510589F70115110519F0C8010E94DA0B91
:1024F0000E94340983FF3CC080919A0190919B0116
:10250000892BB1F5409198015091990100912C01CE
:1025100010912D01D49E9001D59E300D112485E09F
:1025200090E0FC01E20FF31FEE5FFE4F60816F351C
:1025300009F05EC00130110509F04BC0D49E900136
:10254000D59E300D11242E5F3E4F820F931F2FE436
:10255000FC0120830E949C0BF0929B01E0929A0167
:102560000130110509F048C030922D0120922C0154
:102570000E94340983FD04C010929B0110929A01BD
:102580008DE192E00E94470980E090E0892B09F4F8
:10259000EFCE0E940000E8CE8EE797E09093010115
:1025A00080930001F6CEA301920119A28E010F5D66
:1025B0001F4FCA01B901A50194010E942813605D53
:1025C000F80162938F01211531054105510589F705
:1025D00089CF0230110561F4D49E9001D59E300D53
:1025E00011242E5F3E4F820F931FFC01C082B2CF99
:1025F000019708F096CFAECFF0922D01E0922C011A
:10260000B7CFF999FECF92BD81BDF89A992780B5D1
:102610000895052E97FB1EF400940E94201357FD89
:1026200007D00E94281307FC03D04EF40C9420130B
:1026300050954095309521953F4F4F4F5F4F0895EE
:1026400090958095709561957F4F8F4F9F4F08951E
:10265000A1E21A2EAA1BBB1BFD010DC0AA1FBB1FA6
:10266000EE1FFF1FA217B307E407F50720F0A21B18
:10267000B30BE40BF50B661F771F881F991F1A9485
:1026800069F760957095809590959B01AC01BD01AF
:10269000CF010895A29FB001B39FC001A39F700D09
:1026A000811D1124911DB29F700D811D1124911D5A
:1026B0000895EE0FFF1F0590F491E02D0994F89412
:0226C000FFCF4A
:1026C20086075F5F5F5F5F5F5F5F5F5F5F5F5F5F49
:1026D2005F5F5F5F5F5F5F5F5F5F5F5F5F5F5F5F08
:1026E2005F5F5F5F5F5F5F5F5F5F5F5F0100FFFF75
:1026F200FFFF00E100000000000000C18081000037
:1027020000000000005906D8057A066F06C0067E52
:10271200069C06000000007E0A9F07990B980B4357
:102722006F6E6E65637420466F757200506C6179CE
:0427320065722000AC
:00000001FF
