:100000000C94A8060C94D0060C94D0060C94D00640
:100010000C94D0060C94D0060C94D0060C94D00608
:100020000C94D0060C94D0060C946E0F0C94DD0F3B
:100030000C94D0060C94D0060C94D0060C94D006E8
:100040000C94D0060C9420130C94D0060C94D0067B
:100050000C94D0060C94D0060C94D0060C940F127D
:100060000C94D0060C94D0060C94D0060C94D006B8
:100070000C94D0060C94D0060C94D0060C94D006A8
:100080000C9459120C94D0060C94D0060C94D00603
:100090000C94D0060C94D0060C94D0060C94D00688
:1000A0000C94D0060C94D0060C94D00600000000EE
:1000B000003E5B4F5B3E3E6B4F6B3E1C3E7C3E1CEE
:1000C000183C7E3C181C577D571C1C5E7F5E1C0034
:1000D000183C1800FFE7C3E7FF0018241800FFE7EB
:1000E000DBE7FF30483A060E2629792926407F05AE
:1000F0000507407F05253F5A3CE73C5A7F3E1C1CC4
:1001000008081C1C3E7F14227F22145F5F005F5F83
:1001100006097F017F006689956A6060606060946F
:10012000A2FFA29408047E040810207E2010080874
:100130002A1C08081C2A08081E101010100C1E0C7F
:100140001E0C30383E3830060E3E0E060000000011
:100150000000005F00000007000700147F147F14F8
:10016000242A7F2A1223130864623649562050003D
:1001700008070300001C2241000041221C002A1C29
:100180007F1C2A08083E0808008070300008080814
:100190000808000060600020100804023E51494534
:1001A0003E00427F400072494949462141494D3352
:1001B0001814127F1027454545393C4A49493141B9
:1001C000211109073649494936464949291E000087
:1001D00014000000403400000008142241141414DC
:1001E0001414004122140802015909063E415D59C8
:1001F0004E7C1211127C7F494949363E41414122D1
:100200007F4141413E7F494949417F090909013EFA
:10021000414151737F0808087F00417F4100204021
:10022000413F017F081422417F404040407F021C33
:10023000027F7F0408107F3E4141413E7F0909094A
:10024000063E4151215E7F09192946264949493216
:1002500003017F01033F4040403F1F2040201F3FDC
:100260004038403F63140814630304780403615961
:10027000494D43007F4141410204081020004141A3
:10028000417F04020102044040404040000307084F
:100290000020545478407F2844443838444444284B
:1002A000384444287F385454541800087E090218F2
:1002B000A4A49C787F0804047800447D400020407A
:1002C000403D007F1028440000417F40007C0478BE
:1002D00004787C080404783844444438FC18242406
:1002E0001818242418FC7C08040408485454542486
:1002F00004043F44243C4040207C1C2040201C3C03
:100300004030403C44281028444C9090907C4464F9
:10031000544C44000836410000007700000041368C
:10032000080002010204023C2623263C1EA1A16112
:10033000123A4040207A3854545559215555794144
:100340002154547841215554784020545579400C1B
:100350001E527212395555555939545454593955FC
:100360005454580000457C410002457D420001453F
:100370007C40F0292429F0F0282528F07C545545AC
:10038000002054547C547C0A097F4932494949323F
:100390003248484832324A4848303A4141217A3A54
:1003A00042402078009DA0A07D39444444393D401E
:1003B00040403D3C24FF2424487E4943662B2FFCCB
:1003C0002F2BFF0929F620C0887E09032054547979
:1003D000410000447D413048484A32384040227A4A
:1003E000007A0A0A727D0D19317D2629292F2826C7
:1003F0002929292630484D402038080808080808CF
:100400000808382F10C8ACBA2F102834FA00007B27
:10041000000008142A142222142A1408950022002D
:1004200095AA005500AAAA55AA55AA000000FF00E7
:10043000101010FF00141414FF001010FF00FF1024
:1004400010F010F0141414FC001414F700FF000056
:10045000FF00FF1414F404FC141417101F10101FD5
:10046000101F1414141F00101010F0000000001FC3
:10047000101010101F10101010F010000000FF10CE
:100480001010101010101010FF10000000FF1400CA
:1004900000FF00FF00001F10170000FC04F41414FC
:1004A0001710171414F404F40000FF00F7141414C8
:1004B00014141414F700F7141414171410101F1048
:1004C0001F141414F4141010F010F000001F101F6B
:1004D0000000001F14000000FC140000F010F010D9
:1004E00010FF10FF141414FF141010101F00000050
:1004F00000F010FFFFFFFFFFF0F0F0F0F0FFFFFF54
:100500000000000000FFFF0F0F0F0F0F38444438AA
:10051000447C2A2A3E147E02020606027E027E02E5
:1005200063554941633844443C04407E201E200604
:10053000027E020299A5E7A5991C2A492A1C4C7241
:1005400001724C304A4D4D303048784830BC625AC8
:10055000463D3E494949007E0101017E2A2A2A2A58
:100560002A44445F444440514A444040444A514034
:100570000000FF0103E080FF000008086B6B0836F5
:1005800012362436060F090F060000181800000066
:100590001010003040FF0101001F01011E00191D55
:1005A0001712003C3C3C3C00000000000601150115
:1005B000260137014A015D01720188019F01B801DE
:1005C000D201EE010B022A024B026E029302BA0222
:1005D000E40210033F037003A403DC031704550473
:1005E0009704DD0427057505C80520067D06E0068D
:1005F0004907B8072D08A9082D09B9094D0AEA0AC3
:10060000900B400CFA0CC00D910E6F0F5A10531145
:100610005B1272139A14D41520178018F519801BD9
:10062000231DDE1EB420A622B524E4263429A72BE0
:10063000402E0031EA330037453ABC3D68414C4515
:100640006B49C84D68524F57805C006210111213FD
:10065000151617181A1C1D1F21232527292C2E318A
:1006600034373A3E4145494E52575C62686E757B5D
:10067000838B939CA5AFB9C4D0DCE9F700000002DE
:1006800000090F0000030401000C0000000000003E
:100690000000000000000000000000000000002436
:1006A0000027002A002D0030008D14A1C881CFD969
:1006B000F102AF140213021202150207020802042B
:1006C00001010102010007070E1F3F7E3F1F0E08B8
:1006D0000B000202020000090400000102020000F7
:1006E000052400100105240101010424020605244B
:1006F0000600010705810310004009040100020AF9
:1007000000000007050202400000070583024000C8
:10071000000403090412010002EF020140412336E4
:100720008000010102030141726475696E6F204C03
:100730004C4300414241313130360004080201107F
:10074000408040102040804080080204018040200A
:100750001002011080102040402000000000250001
:1007600028002B002E0031000404040404030405B7
:10077000020202020403020202020606060606063E
:10078000040402020204040301000000E0F8FCFE7D
:10079000FFFFFFFEFCF8E0000000C0E0F8FCFDFFFA
:1007A000FFFFFFFFFFFFFDFCF8E0C00307070703A3
:1007B00003030303030303030707070311130000E5
:1007C00000E03874E2E1E1E1E27438E0000000C0EA
:1007D000E0F8F4DD76A6BEA6BEA676DDF4F8E0C0AD
:1007E00003060606030203020202030203060606CC
:1007F0000313120000000000E0DC8281828182DCB1
:10080000E0000000000080C0C0C0DCE2594D4C4A4E
:100810004C4D59E2DCC0C0C080070D0D0D07040728
:1008200005050505050704070D0D0D07161D00003C
:10083000806018E404028E919191918E0204E41874
:10084000608000000000031E91F8860100335858B4
:1008500033000186F8911E0300000078868190FC29
:10086000630106FA4242FA060163FC908186780031
:100870000000181413121212121F04041F12121275
:100880001213141800000000806018E404028E9116
:100890009191918E0204E4186080000060900B1E1C
:1008A00091F88601305B98985B300186F8911E0BB9
:1008B0009060000102B44C4443F12E222222222EE9
:1008C000F143444CB4020100000003040E1E1E1C40
:1008D000190E02020E191C1E1E0E04030000182021
:1008E000FCFEEE0607030303010101010101010102
:1008F0000303030706EEFEFCFFFDDF007CFCFCF8B3
:10090000E8C0E07070E0C0E8F8FCFC7C00DFFDFFB0
:10091000FFDF7A0088F03021111008080808101154
:100920002130F088007ADFFF0F1F3F3C797078F0AC
:10093000E4F0E0E0E0E0F0E4F07870793C3F1F0F95
:10094000050A7F7F007F7F030300030380400000D0
:1009500000FFFFFFFFFFFFFFFFFFFFFFFFFFFFFFA6
:10096000FFFF7F3F1F1F1F1F1F1F1F1F1F1F8F8F77
:100970008F8F8F8F8F8F8F8F8F8F8F8F8E8C8C8C91
:100980008C8C8C848C8C8C8C8C8C8C8C8C8C8C8FAC
:100990008F8F8F8F8F8F8F8F87C7CE78000000004B
:1009A0000000000000000000000000000000000047
:1009B0000000000000000000000000000000000037
:1009C00000000000000000000000000000000030F7
:1009D000FCFF7FFFFFFFFFFFFFFFFFFFFFFFFFFFAA
:1009E000FFFFFCC0C0C0FE3F332373F9F9F919CDF6
:1009F000ED6D2D2D2D2D2D2D3D3D3D3C2C2C6CECEC
:100A0000ECCC0C0C0CEC6C2C2D2D3C2D2C2D2D2D10
:100A10002DEDEFCF18F8FFF10000FE3E020080C080
:100A20006030181C0C000080800000808080808076
:100A30000080808080808000000000808080808036
:100A40008080008000000000000080800000000026
:100A50000103060D7FFCFFFFFBFFFFF9FDFFFDFF1C
:100A6000FDFFF9FF151F1F30E020307FFFFFC09F03
:100A700078C0809E2F29391E0000808080C0F07FC2
:100A80003F9FC0E0637F3066FF6D595E40C0C0404D
:100A9000607DBFDFE03FFFFF0000FFEC0603071CA7
:100AA0003870E0C0808000FFFF1C07030100C2E730
:100AB0002331111010199BFFFC01C1E171391D0E8A
:100AC00007037FFF81000000C0F0FFFF000000006F
:100AD000000000000079CF8F1F1F3F3F3F3F3F7F47
:100AE0007F3F3F3F00000000FF7800000103030745
:100AF0000706044D8D8D8D0D0D0D0D0504060602A6
:100B00000301000808080C0683030303030303031F
:100B10000303FF7F60301F05000001030000000099
:100B200000000000010301030300000000000101B8
:100B3000030302020303010303030302020203038C
:100B400003030241C3C3C3C3C1E07F3F00000000F1
:100B5000808080C0C0C0C0C1E163E2E2E2E6E6E6B8
:100B6000666666C686060E0F19303060E0C0C0802B
:100B7000808000000F1F3F3D3D7D7B7B7A3A3A3EEF
:100B80001E1E0E060202838181C0C0406020301804
:100B90000C070300000000000000FE3E020080C0C1
:100BA0006030181C0C000000008080808080800075
:100BB000000080800000808080808000F0F00000D5
:100BC000000000F87C080000000000000000F7FBB7
:100BD0007B7F7FFFFDFFFEFEFE1F1F1F1FFFFF002D
:100BE000FCFCFCF8F3C73CF0F03C0E07050C38E1C8
:100BF00003070F0F0F1F8FCEC6C6E67E66E6E6EE32
:100C0000FAF2E3C343C1C1C1C0C0E0E0E0E0E0E00C
:100C1000C0C08000000000000000FFEC0603071CBD
:100C20003870E0C08080C2E72331111010199BFF9B
:100C3000FC00FFFF1C07030101030303FFFF010189
:100C400001003E3F000000000000000000001FFD0A
:100C5000F8F8F8F8C7C7C7C3C7FCFCFEFEFFFFE003
:100C60004FCFFFFF3FBFFEFF010000004060203775
:100C7000FFF8FCFCFCFFFFFFFFEFFDFFF7FEFDFFB1
:100C8000FFFDFFFFC6C7C6E6E7EEFF777F7A7F7FEF
:100C90007B7F6F7FFCFCE0C0C0C081838080000050
:100CA000000000000103010103030202030301032A
:100CB0000300030300000000000000000103020223
:100CC00003000303000000000000000000003B7F61
:100CD0007FFFFFFDFFFFFFFFFEFEFEFEFFFFFFFFAA
:100CE000F007FFFFAD58FFFF9830206040404060A4
:100CF00061E7FEFF7E7F7F3F3737737F7D7F6F6FBA
:100D0000EFFFFFDFFFFFFFFFFFFFFFFFFFFFFEFE25
:100D1000FCFCF8F8F0E0E0C08101030307070F1FB7
:100D20001F3E7EFCFCFCF8F8F0E0E0C0C0C0C0C094
:100D3000C0C0C08080000000000000000000000073
:100D400000000000000000000000000000008B1305
:100D500011241FBECFEFDAE0DEBFCDBF11E0A0E06F
:100D6000B1E0E8EFFEE302C005900D92A236B107B4
:100D7000D9F727E0A2E6B1E001C01D92A132B20787
:100D8000E1F716E0C8EAD6E004C02197FE010E9410
:100D9000721BC73AD107C9F70E9404140C947A1F3A
:100DA0000C9400000F931F93DC0114961C9214976F
:100DB00081E01D968C931D9750961D921D921D9259
:100DC0001C92539754961D921D921D921C925797F8
:100DD0005C968C935C975D968C935D975E968C93F6
:100DE0005E975F961C925F9716967C936E9315970D
:100DF00018965C934E9317971A967C936E93199757
:100E00001C965C934E931B9783E093E097969C937C
:100E10008E939697F90184911F968C931F97319624
:100E2000E4911E96EC931E972E5F3F4F11963C93D4
:100E30002E93982F969598969C9398979E2F96957B
:100E400099969C93999791967C936E93909793968D
:100E50005C934E93929794968C9394979596EC937B
:100E6000959713961C930E9312971F910F910895C7
:100E7000FC018091AF01882311F13FB7F89482E023
:100E80008093E9002091F200822F90E01816190655
:100E900014F481E090E0882339F0289844E64093E8
:100EA000AE014091F1004083222339F02091F200FD
:100EB000211103C02BE62093E8003FBF08958FEF78
:100EC0009FEF08952FB7F89483E08093E900909105
:100ED000E800892F807295FF04C09091F20080E4B1
:100EE000891B2FBF08958091A60181110DC082E05A
:100EF0008093A20184E08093A3011092A501109237
:100F0000A40181E08093A60182EA91E00895CF9345
:100F1000DF931F92CDB7DEB76983DC01ED91FC91C1
:100F20000280F381E02D41E050E0BE016F5F7F4F12
:100F300009950F90DF91CF91089583E08093E900A8
:100F40008091F200882319F08AE38093E8000895E5
:100F50000E94620790E00895CF93DF931F92CDB770
:100F6000DEB7FC018485958597FD08C02FEF3FEF24
:100F7000358724870F90DF91CF910895CE01019698
:100F80000E943807019719F4898190E0F3CF8FEF21
:100F90009FEFF0CF0F931F93CF93DF931F92CDB7A7
:100FA000DEB78C01FC018485958597FF0BC0CE01CF
:100FB00001960E943807019771F4898190E0F80149
:100FC00095878487F801848595850F90DF91CF916F
:100FD0001F910F9108958FEF9FEFF1CFFC01848552
:100FE000958597FD0BC09FB7F89482E08093E90048
:100FF0008091F2009FBF90E0019608959FB7F8940A
:1010000082E08093E9008091F2009FBF90E0089514
:1010100040919C0150919D0120919A0130919B013A
:1010200042175307B4F49091E8009570E1F3909162
:10103000E80092FD19C08093F10080919C0190918D
:101040009D0101968F739927892B19F48EEF809358
:10105000E80080919C0190919D01019690939D01E3
:1010600080939C0181E0089580E00895EF92FF92C3
:101070000F931F93CF93DF93F82E192FE62E042F93
:1010800081E0860F880F0E94080883E00E9408080C
:10109000CF2DD12FEC0EFD2EF11CCE15DF05B9F0B2
:1010A00007FF13C0FE0184910E940808182F80E0FA
:1010B0000E940808812321968111EFCFDF91CF9103
:1010C0001F910F91FF90EF9008958881EDCF81E0FF
:1010D000F5CFDF92EF92FF920F931F93CF93DF93A1
:1010E000D82E8A01EB017B01E40EF51ECE15DF053B
:1010F00059F0D7FE12C0FE0184910E940808219683
:101100008111F4CF0FEF1FEFC801DF91CF911F9135
:101110000F91FF90EF90DF9008958881EECF0F93AD
:101120001F93CF93DF931F92CDB7DEB782E0898301
:1011300042E450E06FEC76E080E80E9469080E948B
:101140007307DC0112960D911C910115110589F0B0
:10115000D801ED91FC910280F381E02DBE016F5F1B
:101160007F4FC801099597FD04C0F80100851185DE
:10117000ECCF89810F90DF91CF911F910F9108954E
:10118000615030F02091F100FC0120830196F8CFEE
:10119000289884E68093AE010895AF92BF92CF92D3
:1011A000DF92EF92FF920F931F93CF93DF936C0127
:1011B0007B018B01040F151FEB015E01AE18BF0808
:1011C000C017D10759F06991D601ED91FC910190BA
:1011D000F081E02DC6010995892B79F7C501DF91D2
:1011E000CF911F910F91FF90EF90DF90CF90BF9024
:1011F000AF900895282F30E0F901E458F94F949109
:10120000F901E55CF84F84912859384FF901249190
:10121000222309F430C09923E9F091509F30D0F493
:10122000E92FF0E0EA5EF64F0C94721B440948097E
:1012300025093C0940092A092A092A094B095109AB
:10124000550959095F092A096309909180009F7720
:1012500090938000E22FF0E0EE0FFF1FE65AF84F68
:10126000A591B4919FB7F894EC91611132C080952B
:101270008E238C939FBF0895909180009F7DE8CF2F
:1012800090918000977FE4CF94B59F7794BDE2CF93
:1012900094B59F7DFBCF909190009F7790939000A5
:1012A000D9CF909190009F7DF9CF90919000977F3A
:1012B000F5CF9091C0009F779093C000CBCF9091D5
:1012C000C0009F7DF9CF9091C200977F9093C2009C
:1012D000C1CF8E2BCECFCF93DF9390E0FC01E55CA6
:1012E000F84F24918859984FFC0184918823C9F0C4
:1012F00090E0880F991FFC01E556F94FA591B49134
:10130000FC01E65AF84FC591D49161110DC09FB709
:10131000F8948C91209582238C93888128232883AC
:101320009FBFDF91CF910895623051F49FB7F89439
:101330003C91822F809583238C93E8812E2BEFCFD5
:101340008FB7F894EC912E2B2C938FBFEACF1F937D
:10135000CF93DF93182FEB0161E00E946B09209778
:1013600039F460E0812FDF91CF911F910C94FA083E
:10137000CF3FD10511F461E0F5CFE12FF0E0E45863
:10138000F94FE491E150EF3008F07FC0F0E0E55311
:10139000F64F0C94721BDA09E209E709F109FB091F
:1013A000450A450A450A050A0F0A190A230A300A9E
:1013B000450A380A84B5806884BDC7BDDF91CF91E6
:1013C0001F91089584B5806284BDC8BDF7CF809118
:1013D0008000806880938000D0938900C09388004B
:1013E000EDCF80918000806280938000D0938B004D
:1013F000C0938A00E3CF8091800088608093800052
:10140000D0938D00C0938C00D9CF809190008068DC
:1014100080939000D0939900C0939800CFCF809193
:101420009000806280939000D0939B00C0939A00BC
:10143000C5CF80919000886080939000D0939D00EC
:10144000C0939C00BBCF8091C00080688093C00097
:101450008091C0008F7B8093C000C093CF00AECF3F
:101460008091C00080628093C000C093D000A6CF5E
:101470008091C20088608093C2008091C2008B7FFF
:101480008093C200C093D20099CFC038D1050CF030
:1014900072CF67CF3FB7F89480916C0190916D0146
:1014A000A0916E01B0916F0126B5A89B05C02F3F9A
:1014B00019F00196A11DB11D3FBFBA2FA92F982F7A
:1014C0008827BC01CD01620F711D811D911D42E075
:1014D000660F771F881F991F4A95D1F708958F923D
:1014E0009F92AF92BF92CF92DF92EF92FF924B0109
:1014F0005C010E944A0A6B017C010E944A0A6C1935
:101500007D098E099F09683E734081059105A8F306
:1015100021E0821A9108A108B10888EEC80E83E084
:10152000D81EE11CF11C81149104A104B10429F717
:10153000FF90EF90DF90CF90BF90AF909F908F90F3
:1015400008958F929F92AF92BF92CF92DF92EF92C7
:10155000FF920F931F93CF93DF936C017B018A015E
:1015600080911201882309F45CC08091AF01882327
:1015700009F457C08091A10180FF05C08091E0006F
:1015800082608093E000E801B12C8AEFA82E93E0FE
:10159000892E2AE3922E209711F4BB20D9F10E94C4
:1015A000620781110AC0AA94AA20D9F161E070E013
:1015B00080E090E00E946F0AEECF8C171D0611F0BC
:1015C0000CF08C2F9FB7F8948092E9002091E800EE
:1015D00025FD02C09FBFDFCF282F30E0C21BD30BF9
:1015E000F701815020F041914093F100FACFE20ED3
:1015F000F31EBB2021F09092E800B12CEBCF80913C
:10160000E80085FDE7CF9092E800BB24B3942097D3
:1016100009F3F3CF5D9884E68093A00110161106BC
:101620003CF081E090E0F6019383828310E000E0DB
:10163000C801DF91CF911F910F91FF90EF90DF9044
:10164000CF90BF90AF909F908F9008958FB180956D
:10165000807F669B88601C9B84600895E091730185
:10166000F09174019081809172018095892380832B
:1016700008950F931F93CF93DF93182FD92FC0EBAB
:1016800000E10E942E0BCEBD0DB407FEFDCF0EBDB6
:101690000DB407FEFDCFE0917301F09174018081DC
:1016A00090917201892B8083E12FFD2FCF0180580B
:1016B0009F4F21912EBD0DB407FEFDCF8E179F07C2
:1016C000C1F7182FD92FCF5FC83BD9F6DF91CF9143
:1016D0001F910F910895CF92DF92EF92FF920F9397
:1016E0001F93CF93E82FF0E0E957F84FC491E62F0E
:1016F000F0E0603398F5E45BF94FE4910E2F10E0D1
:10170000F12CE12C60E074E284EF90E0A7019801F5
:101710000E94FB1A215031094109510991E021151C
:10172000310581E0480751056CF060E970ED83E018
:1017300090E0A70198010E94FB1A2150310941094C
:10174000510993E0C13089F0C330F9F0CF911F9176
:101750000F91FF90EF90DF90CF900895EE0FFF1F55
:10176000E45BFA4F05911491CBCF80918100887F83
:10177000892B809381003093890020938800809189
:101780006F00826080936F00E1CF80919100887F2D
:10179000892B8093910030939900209398001093A7
:1017A0006A010093690181E0809368018091710072
:1017B000826080937100CACFE82FF0E0E957F84FBC
:1017C000E491E13019F0E33089F0089580916F00E1
:1017D0008D7F80936F008091B301E091B401F0910F
:1017E000B5019081809589238083089510926801C6
:1017F0008091B001E091B101F091B201F2CFCF93AD
:10180000DF939091B601923081F0C82FE92FF0E07C
:10181000E957F84FD4919F5F9093B60161E00E9421
:101820006B09D13029F0D33049F1DF91CF91089580
:1018300010928000109281008091810088608093D6
:101840008100809181008160809381008C2F90E0E5
:10185000FC01E859F84FE491F0E0EE0FFF1FE65A63
:10186000F84F259134913093B5012093B401855CF4
:10187000984FFC0184918093B301D7CF10929000D0
:1018800010929100809191008860809391008091E6
:1018900091008160809391008C2F90E0FC01E859C9
:1018A000F84FE491F0E0EE0FFF1FE65AF84F259154
:1018B00034913093B2012093B101855C984FFC01C3
:1018C00084918093B0018091B601882321F06CE36C
:1018D00080E00E946B0B80E0DF91CF910C94DC0BD9
:1018E0002F923F924F925F926F927F928F929F9230
:1018F000AF92BF92CF92DF92EF92FF920F931F931E
:10190000CF93DF93CDB7DEB72A970FB6F894DEBF3B
:101910000FBECDBF10E0F801E60FF71FF7FD03C1C2
:10192000603871050CF0FFC0FA01EE0DF11DF7FDF6
:10193000FAC0403451050CF0F6C0DA0157FF04C07C
:10194000AA27BB27A41BB50BA770BB27FA0157FD1D
:101950003796F595E795F595E795F595E79557FF52
:1019600007C0319748E050E05A01AA1ABB0AD501D6
:10197000BE2CB694B694B6944B2D50E05A8349834E
:101980004E2D477031F049815A814F5F5F4F5A8326
:101990004983AF01261B370BA980BA80AE0EBF1E4C
:1019A000BC82AB82F695FE2FEE27F795E7954B01AB
:1019B0008E0E9F1E860F971F7C01EE0EFF1EFE826D
:1019C000ED82B12CA12CC40180589F4F9A87898742
:1019D00088E090E03C016A1A7B0AEB80FC804E159F
:1019E0005F0509F4A0C04830510509F49CC04F3F81
:1019F0008FEF58070CF48BC01501280C391CE984B3
:101A0000FA84EA0CFB1CFA82E9828D819E818A0DA0
:101A10009B1D98878F83CB01FC01E61BF70BE0171A
:101A2000F1070CF074C08038910509F470C097FD7F
:101A300039C04F3F540709F472C0EF81F885F4882C
:101A4000FC01E20FF31F55245394C51032C0E491FA
:101A50000A2E01C0EE0F0A94EAF7FE2AEF81F885FC
:101A6000F48A1097F9F047305105E1F0EF80F884DF
:101A7000E218F308E981FA81EE0EFF1EF701D4881F
:101A8000FC01E20FF31F55245394C51028C0E491C4
:101A9000F0E0062C02C0F595E7950A94E2F7DE2AFD
:101AA000F701D48A0196EF81F8853196F887EF83A4
:101AB000B3CFC1100CC0E491F0E00A2E02C0EE0FCB
:101AC000FF1F0A94E2F7E095F095FE22C7CFE4915C
:101AD0000A2E01C0EE0F0A94EAF7FE26BFCFC1100E
:101AE0000CC0E491F0E0062C02C0F595E7950A944D
:101AF000E2F7E095F095DE22D3CFE491F0E0062CFA
:101B000002C0F595E7950A94E2F7DE26C9CF4F5F4C
:101B10005F4F200F311FF0E8AF0EB11C5ECF109762
:101B200009F0A4CFBFCF2A960FB6F894DEBF0FBE40
:101B3000CDBFDF91CF911F910F91FF90EF90DF907C
:101B4000CF90BF90AF909F908F907F906F905F905D
:101B50004F903F902F90089560387105E8F440341D
:101B60005105D0F4342F369536953695A0E83A9F36
:101B7000F0011124E60FF71FE80FF91F3489CA019D
:101B80008770992741E050E001C0440F8A95EAF739
:101B9000222319F0432B448B089540954323FBCF18
:101BA0002F923F924F925F926F927F928F929F926D
:101BB000AF92BF92CF92DF92EF92FF920F931F935B
:101BC000CF93DF93CDB7DEB72D970FB6F894DEBF76
:101BD0000FBECDBF6A3069F5FC01EA5EFB4FDC0148
:101BE000A85EBB4F2C9148E0249F900111244081B6
:101BF0005181240F351F3183208314971D921C922D
:101C00002D960FB6F894DEBF0FBECDBFDF91CF91FA
:101C10001F910F91FF90EF90DF90CF90BF90AF900A
:101C20009F908F907F906F905F904F903F902F90FC
:101C300008956D3029F39D878C878C5E9B4F9A8326
:101C40008983FC01808091802C853D85285E3B4FF7
:101C50003C832B8330E8831691040CF071C0EC8533
:101C6000FD85EA5EFB4F6080718040E4641671047C
:101C70000CF066C0AB81BC814C9045E09401449E61
:101C8000200D311D1124121613060CF059C0242CFE
:101C9000312C910153E0220F331F5A95E1F7260DA5
:101CA000371D121613060CF04BC0649FB0011124AF
:101CB00010E000E0FB01E455FF4FFB87EA87E0E01E
:101CC000053029F0EA85FB85E00FF11FE49153010F
:101CD00098E0592E2E2F30E03E832D83E170EF8364
:101CE000F12CE12CE414D8F4C4018E0D9F1D9987CA
:101CF0008887D12CC12CC41470F4A6014A0D5B1D39
:101D00002F81688579858C859D850E94AC0D9FEF1C
:101D1000C91AD90AF0CFAFEFEA1AFA0AE3CFED8178
:101D2000FE81F595E7955A94A20CB31C5110D2CFC1
:101D30000F5F1F4F820C931C0630110509F0BFCFB7
:101D4000EB81FC812081422F50E0A981BA818D91E5
:101D50009C91B6E02B9F800D911D1124E981FA81A1
:101D600091838083EC85FD85E75EFB4F20812223F4
:101D700009F446CF6AEF64039001659F300D11248A
:101D800020583F4F281739070CF03ACFAC85BD8556
:101D9000ED91FC9111970190F081E02D6AE0CD0169
:101DA0002D960FB6F894DEBF0FBECDBFDF91CF9159
:101DB0001F910F91FF90EF90DF90CF90BF90AF9069
:101DC0009F908F907F906F905F904F903F902F905B
:101DD0000994089590E080E00895CF92EF920F93D8
:101DE000CF93DF93FC01248D222309F44EC0EC0134
:101DF0006581768171A360A34781508553A342A377
:101E0000228133812115310591F0CC24C39485853D
:101E1000813009F4C12C89A5481B510988A5681B8C
:101E20007109EE840F858EA19FA10E94700C0F8511
:101E3000EE848E2D877021E030E011F430E020E058
:101E40008E2D869586958695820F932F911D089FDE
:101E50009001099F300D11244C81429FC001439F86
:101E6000900D112428813981280F391F89A54F81B0
:101E70005885481B510988A56D817E81681B7109B1
:101E8000CD848EA19FA10E94700CDF91CF910F9104
:101E9000EF90CF900895FC01828D25813681820FCD
:101EA000932F911D96838583838D27813085820FA3
:101EB000932F911D90878783CF010C94ED0EFC0129
:101EC00001900020E9F73197AF01481B590BBC0185
:101ED00083E093E00C94CD080E949D1C1F920F920A
:101EE0000FB60F9211248F939F938091E1009091F0
:101EF000E100937F9093E10083FF0FC01092E9000F
:101F000091E09093EB001092EC0092E39093ED003F
:101F10001092AF0198E09093F00082FF22C093E00E
:101F20009093E9009091F200992319F09AE390932D
:101F3000E8009091A001992341F09091A001915067
:101F40009093A001911101C05D9A9091AE019923E7
:101F500041F09091AE0191509093AE01911101C06A
:101F6000289A84FF18C08091E2008E7E8160809361
:101F7000E2008091E1008F7E8093E1008091A101D9
:101F80008E7E80618093A1019F918F910F900FBEF3
:101F90000F901F90189580FFF7CF8091E2008E7E02
:101FA00080618093E2008091E1008E7E8093E10069
:101FB0008091A1018E7E8160E5CF1F920F920FB6B6
:101FC0000F921124CF92DF92EF92FF920F931F9303
:101FD0002F933F934F935F936F937F938F939F9331
:101FE000AF93BF93EF93FF93CF93DF93CDB7DEB75C
:101FF0006C97DEBFCDBF1092E9008091E80083FFAF
:1020000025C068E0CE0145960E94C00882EF80930B
:10201000E8008D8987FF39C09091E80090FFFCCFE0
:10202000982F907609F034C19E894F89588D2F8959
:10203000F88C911131C0803861F580919F018093B7
:10204000F1001092F1008EEF8093E8006C960FB6CD
:10205000F894DEBF0FBECDBFDF91CF91FF91EF911E
:10206000BF91AF919F918F917F916F915F914F91B0
:102070003F912F911F910F91FF90EF90DF90CF90A4
:102080000F900FBE0F901F9018959EEF9093E80051
:10209000C7CF1092F100D5CF913059F48111D3CF31
:1020A0004130510581F680919F018D7F80939F0182
:1020B000CACF933049F48111C6CF4130510519F68A
:1020C00080919F018260F2CF953041F48091E800C9
:1020D00080FFFCCF20682093E300B5CF963009F055
:1020E000A9C00B8D1C8D22E01092E90010929D0179
:1020F00010929C01F2122EC010929B0110929A0134
:102100000E948F081F8299E09983FA8291E09E8352
:1021100090EA98879AEF998720919C0130919D01D0
:10212000275F3F4F3C832B838D831092E9001092F1
:102130009D0110929C0110939B0100939A0149E02C
:1021400050E0BE016F5F7F4F80E00E9469080E94EF
:102150008F0879CF10939B0100939A010E94730717
:10216000DC0112960D911C910115110509F451C164
:10217000D801ED91FC910480F581E02DBE016B5EEC
:102180007F4FC8010995009709F03EC1F80100850D
:102190001185EACFF3E0FF120EC08F89882309F47E
:1021A00040C0823061F440E867E083E397E00E943A
:1021B0003608811148CF81E28093EB0047CF813010
:1021C00029F440E86BE087E297E0F1CF833099F79C
:1021D0000E947307DC011296ED90FC908E010F5F58
:1021E0001F4F6801E114F10479F0D701ED91FC91E2
:1021F0000680F781E02DB801C7010995080F111D70
:10220000F701E084F184EECFD8011C92F601019031
:102210000020E9F73197BF016C197D0940E0C60144
:10222000C6CF61E177E0FB01449150E080E80E9475
:10223000690809CF973009F4BECF983021F481E0C6
:102240008093F10000CF993009F0FDCE837009F042
:10225000B2CFE0E2F1E081E031E096E32191222388
:1022600071F08093E9003093EB00DF0111972C911E
:102270002093EC009093ED008F5F873079F78EE725
:102280008093EA001092EA008F898093AF01DBCE41
:102290008B8D9C8D1092E90010929D0110929C01F3
:1022A00090939B0180939A01898D811192C08E89B0
:1022B0009D89913A49F4813209F07DCF47E050E0A1
:1022C0006BE071E080E0B3CF913209F074CF8332DC
:1022D00069F48F89988DB0E0A0E080930701909316
:1022E0000801A0930901B0930A01ADCE803269F4D0
:1022F0008091E80082FFFCCF67E08BE091E00E94D4
:10230000C0088BEF8093E8009ECE823209F09BCE0E
:102310008F8980931201EEEFFFE7859194918B3FB7
:102320009C4D51F1E0E0F8E080910B0190910C019F
:10233000A0910D01B0910E01803B9440A105B10523
:10234000F1F48091120180FD1AC0EE3F8AE0F80797
:1023500089F587E797E79183808380916000809378
:102360009E0188E19BE00FB6F894A89580936000E9
:102370000FBE9093600067CEEEEFFAE0D5CF80817C
:1023800091818737974709F05ECEA89580916000CC
:1023900088618093600080919E0180936000EE3F91
:1023A0002AE0F20789F08091FE0A9091FF0A91835A
:1023B000808349CE808191818737980751F290932D
:1023C000FF0A8093FE0AC5CF1092FF0A1092FE0A00
:1023D0003ACE0E947307DC0112960D911C910115F3
:1023E000110509F4E8CED801ED91FC910190F0813E
:1023F000E02DBE016B5E7F4FC8010995811123CE90
:10240000F80100851185EBCF181619060CF41BCEC8
:10241000D2CEF1E0FF12BECE65E177E004CF1F928D
:102420000F920FB60F9211242F933F938F939F9388
:10243000AF93BF938091760190917701A09178013D
:10244000B091790130916B0123E0230F2D3758F5BE
:102450000196A11DB11D20936B018093760190938D
:102460007701A0937801B093790180916C019091EC
:102470006D01A0916E01B0916F010196A11DB11D7A
:1024800080936C0190936D01A0936E01B0936F01E6
:10249000BF91AF919F918F913F912F910F900FBE60
:1024A0000F901F90189526E8230F0296A11DB11DCD
:1024B000D2CF1F920F920FB60F9211242F933F93FA
:1024C0004F935F936F937F938F939F93AF93BF933C
:1024D000EF93FF9380916801882349F08091B001C8
:1024E000E091B101F091B2019081892780838091C0
:1024F0007001882309F456C08091640190916501B0
:10250000A0916601B0916701892B8A2B8B2B09F46E
:1025100049C08091640190916501A0916601B091DC
:1025200067010197A109B109809364019093650146
:10253000A0936601B0936701892B8A2B8B2B91F5B1
:10254000E0916201F0916301BF016F5F7F4F709373
:102550006301609362012491922F907F822F8F708C
:10256000903819F40E94DC0BEBCF903981F432964D
:10257000F0936301E0936201FB0164919091B601D5
:102580008917F0F667FDDCCF0E946B0BD9CF903E28
:1025900029F41092630110926201D2CF903F99F416
:1025A00010927001FF91EF91BF91AF919F918F9128
:1025B0007F916F915F914F913F912F910F900FBE3F
:1025C0000F901F90189597FDBBCF3296F093630143
:1025D000E0936201FB016491A0916901B0916A01ED
:1025E000322F262F0E944F1B6C507E4F8F4F9F4FD4
:1025F00028EE33E040E050E00E942D1B2093640160
:1026000030936501409366015093670180916401A6
:1026100090916501A0916601B0916701892B8A2B89
:102620008B2B09F0BFCF81E090E0A0E0B0E0809379
:10263000640190936501A0936601B0936701B2CFE6
:102640001F920F920FB60F9211248F939F93AF9307
:10265000BF93EF93FF9380917E01882309F452C0CA
:1026600080917A0190917B01A0917C01B0917D01D4
:10267000892B8A2B8B2BA1F19091B301E091B401AE
:10268000F091B50180818927808380917A019091B2
:102690007B01A0917C01B0917D01181619061A06E4
:1026A0001B069CF480917A0190917B01A0917C01A2
:1026B000B0917D010197A109B10980937A019093AE
:1026C0007B01A0937C01B0937D01FF91EF91BF91BD
:1026D000AF919F918F910F900FBE0F901F90189503
:1026E00010927E0180916F008D7F80936F008091AA
:1026F000B301E091B401F091B501908180958923F7
:102700008083E3CF9091B301E091B401F091B501E2
:1027100080818927F5CF0F931F93E7EBF1E01382B8
:10272000128288EE93E0A0E0B0E084839583A683D4
:10273000B7838AE291E0918380838FEF9FEF958743
:102740008487E3E0F3E0138212828CE391E09183CB
:1027500080838CE3868380E18187108617821686CA
:102760001786108A118A128A10921807109217077A
:1027700010921A071092190781E080931B0710E04E
:1027800000E02CE439E040E250E060E470E089EDE4
:1027900092E00E94D20620E439E04FE050E060E28F
:1027A00070E08FEA92E00E94D2062EED38E050E011
:1027B00040E06FEF7FEF85E892E00E94D2062CE2C6
:1027C00038E050E040E070E060E08BE592E00E948D
:1027D000D20621EF37E04FEF5FEF60E270E081E378
:1027E00092E00E94D206609113017091140109E8F1
:1027F00017E02CEB37E042E350E087E092E00E94E4
:10280000D2061F910F910895789484B5826084BD9B
:1028100084B5816084BD85B5826085BD85B58160E4
:1028200085BD80916E00816080936E001092810062
:10283000809181008260809381008091810081601D
:1028400080938100809180008160809380008091DE
:1028500091008260809391008091910081608093CB
:102860009100809190008160809390008091C100E0
:1028700084608093C1008091C10082608093C10018
:102880008091C10081608093C1008091C30081600C
:102890008093C3008091C00082608093C0008091CB
:1028A000C20081608093C20080917A00846080932E
:1028B0007A0080917A00826080937A0080917A0019
:1028C000816080937A0080917A00806880937A009A
:1028D0001092AF0110929F011092A1018091D70038
:1028E00081608093D70080EA8093D80089B58061A9
:1028F00089BD89B5826089BD09B400FEFDCF61E064
:1029000070E080E090E00E946F0A8091D8008F7C98
:1029100080618093D8008091E000807F8093E00008
:102920008091E1008E7E8093E1008DE08093E20053
:10293000559A209ACFB7F89480917101811127C0E0
:10294000E9E7F7E08491ECE4F7E09491E82FF0E018
:10295000EE0FFF1FE556F94FA591B491EC91E923D5
:1029600021F461E081E10E94FA0861E081E10E94C6
:102970006B098CB580618CBD8CB580648CBD61E0C9
:102980008FE00E946B0961E080E10E946B098091F9
:1029900071018F5F80937101CFBFC3EBD6E0BE01A1
:1029A000FE0184916F5F7F4F2296FB016491882323
:1029B00019F00E946B09F3CF61E082E00E94FA08EF
:1029C00061E070E080E090E00E946F0A60E082E0E9
:1029D0000E94FA086AE070E080E090E00E946F0ACE
:1029E00061E082E00E94FA08E9E6F7E0E491F0E0B5
:1029F000EE0FFF1FE65AF84FA591B4919C9180917C
:102A00007501809589238C93ECE3F7E0E491E093E2
:102A10007501ECE6F7E0E491F0E0EE0FFF1FE65AF7
:102A2000F84F859194919093740180937301EFE333
:102A3000F7E0E491E09372018CB58C7F8CBD8DB58D
:102A400081608DBD0E942E0BE9EAF6E083EB96E0F3
:102A50008E179F0749F024912EBD00000DB407FE8C
:102A6000FDCF2EB53196F4CFE0917301F091740152
:102A7000808190917201892B8083809164008160B4
:102A800080936400809164008260809364008091F0
:102A90006400806880936400809164008064809307
:102AA0006400809165008160809365000E94260B20
:102AB00087FF1AC080E294E01EBC00000DB407FE40
:102AC000FDCF2EB50197C1F770E060E08AE00E946B
:102AD000A70970E060E083E00E94A70970E060E071
:102AE00089E00E94A709FFCF85E00E94FF0B86E0E6
:102AF0000E94FF0B1092700182E090E00E94F31A96
:102B0000882351F080916400877F809364008091D6
:102B10006500877F809365008CE38093090380E1E3
:102B200080930C03F12C80910401F81608F453C033
:102B30006FE3862E912CA12CB12C91E5492E91E0CA
:102B4000592E25E8622E21E0722E39E0232E312CF9
:102B50002FB7F8948091760190917701A091780138
:102B6000B09179012FBF20911503222391F020917C
:102B70000D03F82FF21BF093160320910A033091F6
:102B80000B032F5F3F4F30930B0320930A031092E8
:102B9000150340911103509112036091130370913A
:102BA000140384179507A607B707A4F5481B4230FE
:102BB00050F083B7817F83BF83B7816083BF8895DF
:102BC00083B78E7F83BF80E090E0892B09F4C0CF6C
:102BD0000E940000B2CF8AE290E00E94781B6C0154
:102BE000CF2DD0E0BE01695F7F4F43E0660F771FB6
:102BF0004A95E1F710E000E026EC36E043E050E0D3
:102C00000E94D206CC0FDD1FC158DE4FD982C88288
:102C1000F39489CF20910C03AC01BD01420F511DEB
:102C2000611D711D409311035093120360931303B0
:102C30007093140380930D0390930E03A0930F03DE
:102C4000B0931003C1E0C093150390E0E7E1F3E017
:102C500091119FEF8FEF9193919391939193815065
:102C6000D0F7809199018111A4C089ED92E00E9472
:102C7000ED0E80910601882391F08CE190E0909315
:102C800018078093170786E390E090931A078093C4
:102C90001907C0931B0784E491E00E945F0F8091A5
:102CA0000A0390910B036EE170E00E945E1B892B7A
:102CB00039F480910601882309F472C0109206014C
:102CC0000E94260B83FF70C081E08093990123E06E
:102CD0002093050180E490E0909314018093130108
:102CE0001092980110929701209304012FEF3FEF6B
:102CF00030930301209302011092960110929501E6
:102D0000109201011092CC0222E330E030930F02C6
:102D100020930E0290930D0280930C0280E390E0CA
:102D2000909339028093380288E590E090933B02BB
:102D300080933A0290933702809336020E949B1A46
:102D4000A50194010E94FB1A6F5F7F4F8F4F9F4F29
:102D500070936302609362020E949B1AA501940122
:102D60000E94FB1A6F5F7F4F8F4F9F4F70938D02B2
:102D700060938C0280919501909196019C01245062
:102D8000310930938B0220938A0281589F4F909390
:102D900061028093600287E193E00E94390B13CFB8
:102DA00081E0809306018CCF0E94260B82FD8CCFA0
:102DB000F2CF0091950110919601E8016096F12CF7
:102DC000E12C21E0A701BE0183E093E00E94AC0D5D
:102DD0002FEFE21AF20A30E4E316F10491F76801EA
:102DE0008EE0C80ED11CF12CE12C21E0A701B60128
:102DF00083E093E00E94AC0D9FEFE91AF90AA0E48A
:102E0000EA16F10491F76801B0E7CB0ED11CF12C62
:102E1000E12C21E0A701B60183E093E00E94AC0D14
:102E2000EFEFEE1AFE0AF0E4EF16F10491F7025903
:102E30001F4FF12CE12C21E0A701B80183E093E0C2
:102E40000E94AC0D2FEFE21AF20A30E4E316F1040F
:102E500091F7E0900201F0900301D7FF02C0D0E0AB
:102E6000C0E0C8010138110514F080E890E0C817EF
:102E7000D9074CF421E0A701BE0183E093E00E9452
:102E8000AC0D2196EECF85E5E816F10434F08CEE1A
:102E90009FEF909303018093020181E080931B07D1
:102EA000809198018F93809197018F935F924F92B9
:102EB0007F926F920E94A21C10921807109217071F
:102EC00010921A071092190785E891E00E945F0F8F
:102ED000A8E7B0E0B0931807A093170710921A075D
:102EE00010921907809101011F928F935F924F9268
:102EF0007F926F920E94A21C85E891E00E945F0F72
:102F0000EDB7FEB73C960FB6F894FEBF0FBEEDBF0F
:102F1000C0E080910401C81760F4EC2FF0E0EE0FE0
:102F2000FF1FE158FE4F808191810E94ED0ECF5F1F
:102F3000F0CF85E892E00E944B0F81E392E00E947F
:102F4000ED0E8BE592E00E944B0F87E092E00E942D
:102F50004B0F10919901113009F091C08AE390E074
:102F60009093180780931707C4E1D0E0D0931A0715
:102F7000C093190702E000931B07809105011F927F
:102F80008F935F924F927F926F920E94A21C85E86E
:102F900091E00E945F0F87E193E00E94390B10934C
:102FA0007E0180918100887F81608093810088EA22
:102FB0009FE190938900809388008BE391E0A0E0EB
:102FC000B0E080937A0190937B01A0937C01B09351
:102FD0007D0180916F00826080936F0068EE73E0E6
:102FE00080E090E00E946F0A8091050181508093FB
:102FF00005010F900F900F900F900F900F9081117F
:10300000E2CD81E390E09093180780931707D09367
:103010001A07C093190700931B0784E591E00E94EB
:103020005F0F87E193E00E94390B10937E0180913E
:103030008100887F81608093810084EB97E1909389
:103040008900809388008EE194E0A0E0B0E0809356
:103050007A0190937B01A0937C01B0937D018091D4
:103060006F00826080936F0068EE73E080E090E014
:103070000E946F0A00934C0200939901A4CD133073
:1030800049F587E193E00E94390B64EF71E080E03D
:1030900090E00E946F0A88E090E090931807809378
:1030A000170782E190E090931A078093190782E056
:1030B00080931B0788E591E00E945F0F87E193E012
:1030C0000E94390B68EB7BE080E090E00E946F0A81
:1030D000109299010E94260B85FF19C080910C0265
:1030E00090910D028A31910594F0C0919501D09193
:1030F0009601019790930D0280930C0287E092E075
:103100000E944B0F2196D0939601C09395010E9487
:10311000260B86FF19C080910C0290910D02873614
:10312000910594F4C0919501D091960101969093E8
:103130000D0280930C0287E092E00E944B0F2197D2
:10314000D0939601C093950180910A0390910B034F
:103150002091010130E04091020150910301420FA2
:10316000531F5093030140930201E0919501F091A8
:103170009601AF0141585F4F509361024093600246
:10318000B1010E945E1B892B39F480915F0281118D
:1031900035C181E080935F02809162029091630269
:1031A000820F931F803591050CF02BC19093630221
:1031B00080936202CF01049790938B0280938A02DE
:1031C00080918C0290918D02820F931F8035910522
:1031D0000CF01AC190938D0280938C0280913A0278
:1031E00090913B02E80FF91FF0933702E09336020B
:1031F00080914C02281B310980913802909139024C
:10320000280F391F223E9FEF39070CF400C130937D
:1032100039022093380280913802909139028C3F14
:10322000AFEF9A0764F11092CC028B3491053CF118
:1032300082EE9FEF90933902809338020E949B1A8E
:103240002CE430E040E050E00E94FB1A665E7F4FC5
:103250008F4F9F4F70933B0260933A020E949B1ADC
:1032600022E030E040E050E00E94FB1A6D5F7F4FAB
:103270008F4F9F4F60934C0281E08093CC028091EE
:103280003A0290913B022091950130919601820F74
:10329000931F9093B5028093B4028091CC0288234F
:1032A000A9F08FEA92E00E94ED0E80910A039091BE
:1032B0000B0364E170E00E945E1B892B39F480915E
:1032C000CB02882309F4AAC01092CB0220910101FD
:1032D00085E021118FE080930001609100018CE373
:1032E000689F602D112470E080910A0390910B0378
:1032F0000E945E1B892B29F4253018F42F5F209340
:103300000101609127027091280280912902909119
:103310002A0220912C02A0915102B0915202E09118
:103320005302F0915402C0915502309156024091DF
:103330002B02460F572F511DA417B5078CF4AC0F65
:10334000B11D6A177B0764F4DC01A20FB11DEA17F7
:10335000FB0734F4E30FF11D8E179F070CF462C0D6
:10336000A091A502B091A602E091A702F091A80257
:10337000C091A9023091AA02A417B5078CF4AC0F32
:10338000B11D6A177B0764F4DC01A20FB11DEA17B7
:10339000FB0734F4E30FF11D8E179F070CF442C0B6
:1033A000A0917B02B0917C02E0917D02F0917E02BF
:1033B00030917F02C0918002A417B50784F4A30F57
:1033C000B11D6A177B075CF4280F392F311DE217F6
:1033D000F3072CF4EC0FF11D8E179F071CF11092D0
:1033E0002602209101018091970190919801820F0E
:1033F000911D9093980180939701CDCC10925F021C
:10340000CBCE81EF9FEFD2CE81EF9FEFE3CE82EE66
:103410009FEF9093390280933802FDCE81E0809334
:10342000CB0254CF80910101882319F08150809301
:103430000101809126028111D4CF81E080937E0129
:1034400080918100887F8160809381008FED9DE174
:1034500090938900809388008BE092E0A0E0B0E038
:1034600080937A0190937B01A0937C01B0937D01BE
:1034700080916F00826080936F00809104018823A7
:1034800019F081508093040181E08093260280919D
:1034900004018111A6CF83E080939901A2CF8F927E
:1034A0009F92AF92BF92CF92DF92EF92FF92CF9313
:1034B000DF93EC01688179818A819B8161157105B7
:1034C0008105910521F464E279ED8BE597E02DE12A
:1034D00033EF41E050E00E94FB1A49015A019B0181
:1034E000AC01A7EAB1E40E941A1B6B017C01ACEEAF
:1034F000B4EFA50194010E94281BC60ED71EE81E3A
:10350000F91EF7FE06C081E0C81AD108E10880E87C
:10351000F80AC882D982EA82FB82C701B6019F7786
:10352000DF91CF91FF90EF90DF90CF90BF90AF9061
:103530009F908F9008958F929F92AF92BF92CF925B
:10354000DF92EF92FF9260911501709116018091C8
:10355000170190911801611571058105910521F4FC
:1035600064E279ED8BE597E02DE133EF41E050E047
:103570000E94FB1A49015A019B01AC01A7EAB1E480
:103580000E941A1B6B017C01ACEEB4EFA501940103
:103590000E94281BC60ED71EE81EF91EF7FE06C0A5
:1035A00081E0C81AD108E10880E8F80AC092150144
:1035B000D0921601E0921701F0921801C701B601EE
:1035C0009F77FF90EF90DF90CF90BF90AF909F904C
:1035D0008F900895609315017093160180931701E1
:1035E000909318010895F999FECF92BD81BDF89A84
:1035F000992780B50895052E97FB1EF400940E942C
:10360000121B57FD07D00E942D1B07FC03D04EF460
:103610000C94121B50954095309521953F4F4F4F7C
:103620005F4F089590958095709561957F4F8F4F6E
:103630009F4F08950E944F1BA59F900DB49F900D22
:10364000A49F800D911D11240895B7FF0C941A1B9F
:103650000E941A1B821B930B0895A1E21A2EAA1B2B
:10366000BB1BFD010DC0AA1FBB1FEE1FFF1FA21732
:10367000B307E407F50720F0A21BB30BE40BF50B2F
:10368000661F771F881F991F1A9469F760957095B8
:10369000809590959B01AC01BD01CF010895A29F3B
:1036A000B001B39FC001A39F700D811D1124911D16
:1036B000B29F700D811D1124911D0895AA1BBB1B83
:1036C00051E107C0AA1FBB1FA617B70710F0A61B22
:1036D000B70B881F991F5A95A9F780959095BC0143
:1036E000CD010895EE0FFF1F0590F491E02D099490
:1036F0000F931F93CF93DF938230910510F482E0F4
:1037000090E0E0911F07F091200730E020E0B0E06A
:10371000A0E0309799F42115310509F44AC0281B1F
:10372000390B24303105D8F58A819B8161157105EB
:1037300089F1FB0193838283FE0111C04081518195
:103740000281138148175907E0F04817590799F487
:10375000109761F012960C93129713961C93329661
:10376000CF01DF91CF911F910F91089500931F0713
:1037700010932007F4CF2115310551F0421753075C
:1037800038F0A901DB019A01BD01DF01F801C1CFC9
:10379000EF01F9CF9093200780931F07CDCFFE0153
:1037A000E20FF31F819391932250310939832883CB
:1037B000D7CF20911D0730911E07232B41F4209174
:1037C0001B0130911C0130931E0720931D0720918F
:1037D000190130911A012115310541F42DB73EB779
:1037E00040911D0150911E01241B350BE0911D07D6
:1037F000F0911E07E217F307A0F42E1B3F0B2817CA
:10380000390778F0AC014E5F5F4F2417350748F059
:103810004E0F5F1F50931E0740931D078193919396
:103820009FCFF0E0E0E09CCFCF93DF930097E9F0EB
:10383000FC01329713821282A0911F07B0912007DA
:10384000ED0130E020E01097A1F420813181820F5A
:10385000931F20911D0730911E072817390709F083
:1038600061C0F0931E07E0931D07DF91CF9108958B
:10387000EA01CE17DF07E8F54A815B819E01411519
:103880005105B1F7E901FB83EA8349915991C40FCE
:10389000D51FEC17FD0761F4808191810296840F9A
:1038A000951FE90199838883828193819B838A8311
:1038B000F0E0E0E012968D919C9113970097B9F596
:1038C0002D913C911197CD010296820F931F20916B
:1038D0001D0730911E072817390739F6309751F523
:1038E0001092200710921F07B0931E07A0931D0788
:1038F000BCCFD383C28340815181840F951FC817E9
:10390000D90761F44E5F5F4F88819981480F591F35
:10391000518340838A819B81938382832115310562
:1039200009F0B0CFF0932007E0931F079ECFFD0171
:10393000DC01C0CF13821282D7CF81E090E0F894EF
:103940000C947A1FAEE0B0E0E8EAFCE10C94511F61
:103950000D891E8986E08C831A8309838FEF9FE788
:103960009E838D83AE01475E5F4F6F89788DCE0158
:1039700001960E94C51C2F813885020F131FF80184
:1039800010822E96E4E00C946D1FABE0B0E0EBECFF
:10399000FCE10C94431F7C013B018A01FC0117826E
:1039A0001682838181FFC8C1CE0101965C01F701B7
:1039B0009381F30193FD859193FF81913F018823CA
:1039C00009F453C1853239F493FD859193FF8191B8
:1039D0003F01853229F4B70190E00E94B51EE7CF80
:1039E000912C212C312CFFE1F31538F08B3211F1A1
:1039F00090F4803209F1833229F137FC3CC020ED8C
:103A0000280F2A3050F536FE20C08AE0989E200DFF
:103A10001124922E06C08D3291F0803371F7689494
:103A200030F8F30193FD859193FF81913F0181115E
:103A3000DACF21C0689431F8689432F8F2CF6894F4
:103A400033F8EFCF689434F8ECCFEAE02E9E200DE7
:103A50001124222E689435F8E4CF8E3229F436FCF6
:103A600004C1689436F8DDCF8C3619F4689437F8C1
:103A7000D8CF8836B1F2982F9F7D95549330E0F0DF
:103A80008336A1F18337C1F1833509F063C0280182
:103A9000F2E04F0E511CF801C080D180692D70E01A
:103AA00036FC02C06FEF7FEFC6010E949F1E4C01E3
:103AB000689437F882010AC00C5F1F4FFFE3F98357
:103AC00088248394912C6501E89437F833FE2DC047
:103AD000522C8114910471F5552009F468CFB70177
:103AE00080E290E00E94B51E5A94F6CFF8018081E2
:103AF00089830E5F1F4FE4CF2801F2E04F0E511C67
:103B0000F801C080D180692D70E036FC02C06FEFF3
:103B10007FEFC6010E94AA1E4C018201D5CFB701DA
:103B200080E290E00E94B51E2A942814190409F03E
:103B3000B0F7CECFF60137FC859137FE81916F014A
:103B4000B70190E00E94B51E51105A94F1E08F1A0F
:103B50009108BFCF843619F0893609F077C0F80193
:103B600037FE6BC060817181828193810C5F1F4F32
:103B7000F32DFF763F2E97FF09C0909580957095A5
:103B800061957F4F8F4F9F4F689437F82AE030E060
:103B9000A5010E94E51EC82ECA188C2C432C36FEA7
:103BA0000CC0E89440F8C91440F434FE05C032FC5F
:103BB00003C0F32DFE7E4F2E892C44FE95C0FE01DE
:103BC000EC0DF11D8081803309F087C0242D297E02
:103BD000422E842D8870582E43FC95C040FE8FC025
:103BE0009C2C821418F42C0C922C981844FE91C032
:103BF000B70180E390E00E94B51E42FE09C088E74D
:103C000090E041FE02C088E590E0B7010E94B51E39
:103C1000C91408F48AC0CA94D12C9FEFC91AD90AD2
:103C2000CA0CDB1CF60182916F01B70190E00E9483
:103C3000B51EAC14BD04B1F74FCF60817181072E62
:103C4000000C880B990B0E5F1F4F92CFD32CE8947A
:103C5000D4F82AE030E0853739F1232D297FD22EA0
:103C60008F3601F148F48835A9F0F70186819781F4
:103C70002B96E2E10C945F1F803749F08837A9F753
:103C8000D4FE02C06894D2F820E130E00DC0689400
:103C9000D4F8F6CF34FE03C0822F8660D82E20E100
:103CA00032E002C028E030E0F801D7FE0FC06081AA
:103CB0007181828193810C5F1F4FA5010E94E51ED7
:103CC000C82ECA183D2CE89437F867CF60817181FF
:103CD00090E080E00E5F1F4FF0CF42FC02C0839463
:103CE00078CF8394839475CF842D867809F471CF2F
:103CF000F6CFB70180E290E00E94B51E8394821453
:103D0000C0F3512C73CF522C5818821408F46ECF84
:103D1000F8CF842D867809F47BCF8BE241FE80E2D8
:103D200047FC8DE2B70190E071CFB70180E390E0EE
:103D30000E94B51E9A946CCF8FEF9FEF99CFFC0134
:103D40000590615070400110D8F7809590958E0FC6
:103D50009F1F0895FC016150704001900110D8F739
:103D6000809590958E0F9F1F08950F931F93CF936B
:103D7000DF93182F092FEB018B8181FD09C01FEF05
:103D80000FEF812F902FDF91CF911F910F91089509
:103D900082FF14C02E813F818C819D8128173907B5
:103DA0003CF4E881F981CF010196998388831083DF
:103DB0008E819F8101969F838E83E3CFE885F9856D
:103DC000812F0995892BA1F3DACFFA01AA27283090
:103DD00051F1203181F1E8946F936E7F6E5F7F4FD8
:103DE0008F4F9F4FAF4FB1E03ED0B4E03CD0670F54
:103DF000781F891F9A1FA11D680F791F8A1F911DA7
:103E0000A11D6A0F711D811D911DA11D20D009F4F6
:103E100068943F912AE0269F11243019305D319338
:103E2000DEF6CF010895462F4770405D4193B3E021
:103E30000FD0C9F7F6CF462F4F70405D4A3318F0C8
:103E4000495D31FD4052419302D0A9F7EACFB4E079
:103E5000A6959795879577956795BA95C9F7009731
:103E60006105710508959B01AC010A2E06945795D2
:103E7000479537952795BA95C9F7620F731F841F29
:103E8000951FA01D08952F923F924F925F926F92BF
:103E90007F928F929F92AF92BF92CF92DF92EF92DA
:103EA000FF920F931F93CF93DF93CDB7DEB7CA1B5B
:103EB000DB0B0FB6F894DEBF0FBECDBF09942A8886
:103EC000398848885F846E847D848C849B84AA842E
:103ED000B984C884DF80EE80FD800C811B81AA81BB
:103EE000B981CE0FD11D0FB6F894DEBF0FBECDBF86
:083EF000ED010895F894FFCFE5
:103EF8000A01FFFF030301FFFFFFFF00E1000000CD
:103F080000000040000100000000002107800000C0
:103F1800C18081000000000000008707A10AA807EF
:103F28009D07EE07AC07CA0700000000D00DCD08BA
:103F3800EA0EE90E5072657373205374617274212E
:103F480000257500474F210047414D45204F5645F4
:023F5800520015
:00000001FF
