:100000000C94D2150C94FA150C94FA150C94FA155C
:100010000C94FA150C94FA150C94FA150C94FA1524
:100020000C94FA150C94FA150C94FA150C94FA1514
:100030000C94FA150C94FA150C94FA150C94FA1504
:100040000C94FA150C94FA150C94FA150C94FA15F4
:100050000C94FA150C94FA150C94FA150C940226CB
:100060000C94FA150C94FA150C94FA150C94FA15D4
:100070000C94FA150C94FA150C94FA150C94FA15C4
:100080000C94A1250C94FA150C94FA150C94FA15FD
:100090000C94FA150C94FA150C94FA150C94FA15A4
:1000A0000C94FA150C94FA150C94FA150B0F97058D
:1000B0008B898B8905411CB0D7BD9B8D110B0954D1
:1000C00030B2486F0B0F2F172C260ED8EB7BDD6C50
:1000D0008C2CD2B70B0F2F172C5C9BBDBED74D229B
:1000E0009345FA160B8F7B8535941B72D223596F7B
:1000F0005A064E286C286630686F8BCF2B1CF5840F
:10010000DC901B3A16596D198C486143614361CAF2
:10011000A02D0B0F2F162C262EA603F67ADFCDC6A8
:100120008805238BF40D0B4FEFE766EEDF3064B2EA
:10013000C77B0B0F2F162C5C585C9BBDDE7793485A
:1001400005239345FA063B073FAC5B7B5B02725984
:1001500069D66549715D56329374BD5CC94CD275E0
:100160005997A02028B93097FC3A3B473F6C0DC007
:10017000E0655D248260F0B22E2BCDBA2C29065F9B
:100180004A04C1E019D7C42ED0DED6000CFE503B85
:10019000073F6495B12E4B406E5558BDACC9655DA7
:1001A000569A75595294BCECAAD9B1B7755969D60B
:1001B0006549C9F8413B073F78091CD765090CC957
:1001C0006509C8CB25204A2E6B72ABC2EA85280888
:1001D0001A2E4B407E38398F5F452EFB82BC4B3048
:1001E000257BE415C3E101821BC4E9E6D1AD8C3562
:1001F000C6E5B47BDB635D6E252069F07773E503AC
:100200005E0A17CA53F4C6953B78E2412E91CBB8EB
:10021000E6D25B8EEB984BE4343E0E398F5F889AC2
:1002200012582370198E22468A79BFBA063D9DD096
:10023000A59175398D35CABA2C3AD638A9BA70AE9F
:1002400071BA2C3AD6B81D1659B3DFF114B9AC63A4
:100250002E91CBF8D4BA604E1ED70573C9711D73A9
:10026000C9711D73895CD631B02002EB72F214B9EA
:10027000A84739CFEF5717ECDBA5738575B8A14BAD
:1002800023EBF2E8F68D0453B2478EA732D618EF6F
:100290005717ECDB657596DE3EBF8EB9E43A2EC487
:1002A0008BD775C15C72CF251FF052B8508E9E223D
:1002B00097F1A975CC25C7F551398F1FE606DD8565
:1002C0001BA7E12862A4980759418415B101D39D69
:1002D000F2E856C61AE372DABDEDB12EB7129034C9
:1002E000F867F0792E91CB78CD11725927E0792EED
:1002F00091CBB8E6D25B8EEB984BE4343E0E3B07D5
:100300003F2428084A4E4B42C6690480044E23000D
:1003100024701A21B85E2E91F63842C838B15608BA
:100320000718A71142C66984397E003B471F5E83C8
:10033000AECB0800819C940090715A57B2249CD691
:1003400022E3E92AD25E46081967B2249C061C46BD
:100350000819A731C9F8053B873F6C09DC609CC6CA
:10036000A25E870034F07215B1C721A1E3C45A21FF
:100370001C609C86848ED35874FC503B073F6409F4
:100380000CC9698490711A938CD308739C4608AE8B
:1003900017AB8C751A012081CB3A8D304798E33426
:1003A00002400227D60AE1C33B473F6C0DBA2E0339
:1003B000365483EBB416194FD7A0EB32024020A776
:1003C0007519938C49C669048040CE6449F8453B51
:1003D000471F5852542F63B23C269939A1012081FE
:1003E0003359124E4A00C838AD976BD075190120A9
:1003F00090D3BA8C49C624E33402402067B2247CEF
:10040000093B8FBFE056026B046E8745D6ECEDB01A
:10041000585939AABA70AE718B5D185DCA89AEAEF3
:1004200072E306DD851B8371FB0BE492E33A7A8A63
:100430005CD4A3A7C8651D73895CD63197C8653C99
:100440005D173EE0F35CF27D3BCF5FBE6D585DB75C
:10045000C3226BF6A4EAC2B9C6E5F6388D095DE69B
:1004600034C61AF4F47475C1BE5D5667E9ED17E63B
:1004700092E33A7A8A5CD4632E91CB3AE692C792A1
:100480000B2017EEE38239F9781D73C971FD083B23
:100490008F5F452EFB82BC60DC2E63AC414FCF8268
:1004A000440493561446C9E6CDEA1AF4745A63DF3D
:1004B000BA4F97D505A1A1E41773E57D2EB98E0B30
:1004C000E6E473E0B42E81238FD70573F2B86E3D56
:1004D000E692E3BAA0A77C0F3B8F7F186ED05DB881
:1004E000711A8E22468AB9AFB20028008BAE41D76E
:1004F0003F239FE712B98CC7C0897211E004FC79D1
:10050000003BCF1FE006DD851BA7E12862A498FB16
:100510002A0B8002B0E81A747D1DB9EC0B721E1D07
:10052000418A4BDEE5089E0080090CA0FE349FE75F
:1005300012B98CC7C0897211E004FC1CAE3C5E1776
:10054000CCC9179C809B003F023B8F076ED05DB8E3
:1005500071A3ABEB742A638D715F65015000165D6A
:1005600083AEAF21977D415E306E9731D6A0A787CD
:1005700039822700600203A89FF25BEBE829721919
:100580008F8113E522C009F83C57DEE792EBB86093
:100590004EBEE004DC04F8181B8FBF83AB57AF5E80
:1005A000FD6D392A38200222540802110431023B21
:1005B000021B301B3025800920602400086EAF6BC1
:1005C000001B8F9FF1CAAD65812A850D85A2541C41
:1005D000CC9EBDF2B11CB5820066A10201040422CA
:1005E000A84009201003E800000402086811003345
:1005F00004B032BCAE011B8F070F085E20AFB97A82
:10060000F5EAD5DF964D1504000041000010A0006A
:1006100020082250365036F5901A7090A086A02AF5
:10062000314EB7070908080C020D0B0D020C080823
:10063000083A3B33333B3A013A110B10001010904B
:10064000100017001D1810101010101000000000EE
:100650000706040404040404000400000027DF3734
:100660009A5DDD2C368BCD62A3B291B0596C169B8E
:10067000C566B1195C2817CA45BA53368B2D63A7D6
:100680007C637FCEF08205BC21C0CC6073CA9D6FB5
:10069000ED2619090909ECEFED2F5806B0000156B7
:1006A0000110D009DC107845189537BCDFE14018FF
:1006B000190CD99FE9B81CBD7A75272A21AAA871FF
:1006C000339C2C17D30BF1EAD5E305EDC8F278196A
:1006D0003D0327DF1776BA6AB9502E940BA509455A
:1006E000004239B0D82C368BCDE240B9500E762579
:1006F000E542B950339BCD17F6E70C2F58C01306CF
:10070000303259DC7CC12736991969424202FB7BA1
:10071000FB0B96012C4080550004747A15DE1132D3
:10072000C20B1EEE32B810460643F6673A2E47AFAC
:100730005EDD894A882A6A3C5037C3C1F6845EBDB3
:10074000669D1487CBE5F1327A06279F2FD8E9AA58
:10075000E542B9502E9402A19441392137E486DC58
:10076000901B72434E3A1BB9A1DDE6C207F7B7B83A
:1007700064B178C20692C9E2414E7C6B931931266E
:10078000B0BFBF1F0B0359808C05202870062EC0F8
:100790000B823D70E22BBB0C06C321FBB31D97A35C
:1007A00057274B63100928A2CA74B05D2EAF868B01
:1007B00057AF5927C5E1625D469F0127DF2756D60F
:1007C000888BCDE042B9509A500420940BE542B991
:1007D000502E940BE542B950BB9A4DB950339BCD86
:1007E00017F6E70C2F58C01B02CC0C36A73CE05381
:1007F000BB4946424202FB7BFB0B96012C408055D5
:100800000004740237045E1146E5091FD8E1401860
:10081000190CD99FE9B81CBD7A75272A21AAA8719D
:10082000339C2C17D30BF1EAD5E305EDC8F2781908
:100830003D030B4F3A9028250C6032D90C93F2708F
:10084000C89883BA5C1EE80A03070B4F5AA5C8660E
:100850000093C96658078B1743C61C24232307320D
:10086000C31E0B8F3180140D41E0821CC19903F02F
:10087000620C9CA5B9AC4DE7620C0B4F2713198293
:100880002200A10806A0A4CF525252128100902D3E
:10089000105A5242030B0F37072A18108100200A02
:1008A00029BB0F52424343350819D5868686A60BCD
:1008B0004F1BAD220A8A008422188092863729298C
:1008C00089894000C8168829293B098FDB13012636
:1008D00050603139A03F0A094F0724202C16D04020
:1008E0008145032ABF08894F6E16308005540C02DB
:1008F00000021188FC2000098FDBD39C9775388C8F
:100900005FC115098F07649CC631A7B1E527700543
:10091000098F6B1CF63CE5CC457E8057000D8F3B64
:1009200007B2C20694A1A0062630601C387002C22D
:10093000048EFBB28E5C628E0D8FBB9331C2069427
:10094000A1A006265080BEE048D8C26D5FF6C983DC
:10095000E90D0D8F133A980D1B5086821A9840B5F9
:100960001F000E81E3BAEC9B9B404F0D8FBB933170
:10097000C20694A1A006265080BEE048D8C26D5F92
:10098000F6C983E90D0D4F3B9B8E4D006100821827
:100990009940491FB280B2806397CB8EA325A407EC
:1009A0000D4FBB9B8E490061008218992C1C2F595A
:1009B0002C8670EB72D97135CE6E0D8FBB9331C220
:1009C0000694A1A006265080BEE048D8C26D5FF60E
:1009D000C983E90D0DCFC7B98E7C2EF311E4705891
:1009E0009775599775D9D90D8FBBF394CFB1E90B92
:1009F0008E635FD6655DD6651D6E0D8F738D5B3E14
:100A0000C7B41FC8E1B22EEBB22E6BD0130D8FBB53
:100A1000F394CFB1E90B8E635FD6655DD6651D6E2D
:100A20000D8F3B87C3387AF59A45DF709AF3B22E63
:100A3000EBB22E6BD0130D8FBBF3D4A357AF393D60
:100A4000E138F6655DD6655DD6E1060D8FBBF394A2
:100A5000CFB1E90B8E635FD6655DD6651D6E8D14D3
:100A6000A1C881CFD9F102AF199F270E84C9980080
:100A70008F0207CB67084042F800671E5064584A4F
:100A8000A650197DC081C5449CEDB3E80AC0211D64
:100A9000CFB973EC29EC24A771600101CD1830E0C7
:100AA00080FE2A6E822B6F5CE38D6EC291EF025145
:100AB000FF0079FF01D8FF005E0000D20000AC1EED
:100AC000320126011201FA00E400D400C400AC0097
:100AD00005030103070301050304060706040703D2
:100AE00001030703050201070304060706050204C4
:100AF0000202030304073E41553E03075F2E140321
:100B000007142E5F08083C42BDADA5BD423C003C29
:100B100042BDAD423C0000003CFFC33C0000003C35
:100B200042A5BD423C0037973F1338010013508067
:100B3000004C112E201C44DC80ADC4600BB8217821
:100B400000E102E20408800213003801BFDEAB5767
:100B5000BE332F000000C08E174787A3C351540730
:100B6000822A451564A8D2E1E8707478311B000030
:100B700000B8CCEF70F5EABB71904CF41200327003
:100B80001C12A10020C010EB0C900110802282509A
:100B9000B0425101280002500004A000084001505A
:100BA0002958A120881420002340A6150780005052
:100BB00030390C1901201765060F030B10000000D7
:100BC000A0F0D0A080000000FC0229202808290203
:100BD000FD02FC0605110A171B0E110605000C1676
:100BE0001F0C00040406090F060A0F0F08090D0F59
:100BF0000A090B0F0F03020F0F070D0D0D0F0A0E41
:100C00000E010D0F030E0B0B0F07050F0F0C083C09
:100C1000428181818181818181423C0B0DC7831B8F
:100C20002363FF03037B030318181B18181F1818EE
:100C30001F1F1FB5018F016A014601B90272021B15
:100C400002D6010F0FB4698619AA4AD765A84435A0
:100C50006B65656D0406B00C1A3182202082204637
:100C60008C187429127404B187AB9C8700147252DB
:100C700004A0E398E1CA69084021CF6195705AB099
:100C8000C7690840214F510168E0B4608FD390D00C
:100C90007159123A002997BF7ACD2CE3093C7A4466
:100CA0004E0C9617FFAEF7EF7204E0001CF6EFE46F
:100CB000B567AE5E7DCE95EF71E6CC99D75EBD721D
:100CC000F635FFFFFFFFFFFFFFFFFFFFFFFFFFFF07
:100CD000FFFFFFFFFFFFFFFFFFFFFFFFFFFFFFFF24
:100CE000FFFFFFFFFFFFFF1F1F1F1F1F1F1F1F1FF4
:100CF0001F1F1F1F1F1F1F1F1F1F1F1F1F1F1F1F04
:100D00001F1F1F1F1F1F1F1F1F1F1F1F250DFFFF3F
:100D1000FFFFFFFFFFFB0303BB0347FFFBC3033FD3
:100D200083FBFFFB0303BB13FF0303FFFFFFFFFF77
:100D3000FFFFFF1F1F1F1F1F1F1F1B18181B181C43
:100D40001F1F1B18181B1F1F1B18181B191F1919F1
:100D50001F1F1F1F1F1F1F1FCF03A8037B03570346
:100D60002B03FE0249050105D8048F044804010441
:100D700012100080403D010101F40404F40101015E
:100D80003D408000F7E8D1C0DCA24158444E5841B4
:100D9000A2DCC0D0E8F7008040BDC1C101F404046A
:100DA000F40161E1FD408000F7E8D7C3DDA25D7684
:100DB00063775F5DA2DCC1D7E8F70080403F15157F
:100DC00001FC7C54D4011F1535408000F7E8D1C0E8
:100DD000DCA241545A5A4041A2DCC0D0E8F7118746
:100DE00061C284EE100830901B7243061008D9854A
:100DF0000993009B0FFF7E01F605C10598053F870B
:100E0000ABB042A9A5D4526A29B5945A4A2DA596E9
:100E1000524BA9A5D4526A29B5945A4A2DA5965287
:100E20004BA9A5D4526A29B5945A4A2DA596524B7E
:100E3000A9A5D4526A29B5945A4A1674010B0D0318
:100E400003BB2323FF03037B030318181B1C181F7A
:100E500018181F1F1F0F0FB469469CE070F596E12C
:100E600000E35A59591B0105582E970B4140044184
:100E70005C2E97AA22414700100EBAB6BE5E3EFE17
:100E80007E7E6E76EE3E5EBEBEB60402221424382E
:100E9000051D252D140C02360A040C0E0C0E0F0A2B
:100EA00000080C0C0E0E0F0E0C00000000000000DD
:100EB000000000000000080C0E0F0E0E0C082404A9
:100EC0000C020402050A00080404020601020C00D8
:100ED00000000000000000000000000008040E01F7
:100EE000060204083221FFF20C6C6C48240000005A
:100EF000008600FFFFFFFB83FD83FBFFEFDF81FB2D
:100F0000F7FFFBF789F7FBFFFFFF00008C000000F5
:100F10000024486C6C0CF3FFFFF30C6C6C4824004D
:100F2000000000CC000181C1C1C1C1C1C10181C1AA
:100F3000C1C1C1C1C10181C1C1C1C1C1C0008C0059
:100F400000000024486C6C0CF3FF3F330C6C6C48C1
:100F50002400000000C0000C8CCCCCCCCCE018C429
:100F6000320A0A0A0A0418EC8CCCCCCCCCC0C800DB
:100F70008C0000000024486C6C0C73BF00000C6CEB
:100F80006C482400000000C0000C8CCCCCCCCCFF02
:100F900000FF00000000000000FF8CCCCCCCCCC0D7
:100FA000C8008C0000000024486C6C0C00FF00009E
:100FB0000000000000000000000000000000000031
:100FC0000000000000000000000000000000000021
:100FD0000000000000000000000000000000000110
:100FE0001512FF7F7FFF0FF70BF3DB4B394ADBF363
:100FF0000BF70FFF7F7FFF00FF0000ABAAA9A8A996
:10100000A9A9A9A9A821220100FF0000000300004E
:1010100002020202020202000000000200000300BD
:1010200000000000000058FCFEFFFFFEFC5800001E
:10103000000080800000C0E0F0F8F8F0E0C00000A0
:1010400080800000000058FCFEFFFFFEFC580000FE
:10105000000000C0E0F0F8FCFEFFFFFFFFFFFFFE16
:10106000FCFCFEFFFFFFFFFEFFFFFFFFFFFFFFFF98
:10107000FEFFFFFFFFFEFCFCFEFFFFFFFFFFFFFE8A
:10108000FCF8F0E0C03210000000000058A45AB58F
:10109000255AA4580000000080800000C020D0A87D
:1010A00028D020C0000080800000000058A45AB55D
:1010B000255AA458000000000040A050A8542A154A
:1010C0008AA4A48A352AB4444241A0AAB5AAB7ADDD
:1010D000A2A5A1A2ADB6AAB5AA404142A4346A1500
:1010E0008AA4A48A152A54A850A040090E07F9869C
:1010F000AA82AA86F907003F20242A26203F00E082
:10110000F0F8FCFCFCFCFEFFFEFCFCF8F0E0010348
:10111000070707070707070707070703010F0BE084
:1011200010E814E4B4947295B6E414E810E00102F7
:10113000050201030202020301020502014B1CFF2A
:10114000FFFFFFFFFFFFFFFFFFFF7FBFFF80FEFEF0
:1011500000FF000060606060676361616161616100
:101160006161616161616161616161616161656963
:1011700001610101010101010101010101010101FF
:10118000010101010303070F6F0FFFFFFFFF7F4303
:10119000BD423C722A262A723C42BD427F000200B8
:1011A0000000FEFE00FF0A0B0A0B8A4B2AABAAAB1B
:1011B000AA4B8A0B0A0B00FEFE0000007732333286
:1011C000333233323332333233323332333200005C
:1011D000000000FFFF07F71717109F1D99919F91BF
:1011E0001F1D19919FF1BF50F003000000FFFF0089
:1011F000FFD3D2D3FE01FC03000000000001FED3A8
:10120000D200FFFF000000773333333333333333FF
:101210003333333333333333330003000000FFFF02
:10122000000F0A040802020200020000000001018F
:101230000F0A050F000000000F0F000F0D0D0D0F1E
:10124000000F000000000000000F0D0D000F0F0048
:101250000000070303030303030303030303030360
:101260000303030300030000000F0FFEFEFEFFFF59
:10127000FFFEFEFEFEFEFEFEFEFEFEFEFEFEFEFE8D
:10128000FFFFFFFEFEFCF87F7F7F7F7FFFFFFFFFFA
:10129000FFFFFFFFFFFFFFFFFFFFFFFFFFFF7F7F5E
:1012A0007F7F7F00000000000303030303030303A9
:1012B0000303030303030303030300000000001CF4
:1012C00012FE02FAF575F57ABA5AAACA3A3A3ABA49
:1012D0003ACAAA5ABA7AF575F5FA0204F87F405F5D
:1012E0005F5BDC1D9A9F9F9F9C98941B1C1F1F1F78
:1012F0001A1D1CDB5F5F40407F0000000000030000
:1013000001010101010101000000000000000003D3
:101310000000000000F8FCFEFFFFFFFFFEFCF800ED
:101320000103010303010301000A0A00F8E4EAFED5
:10133000FEEAE4F800000001000101000100009B4A
:10134000CF39EC79CA6B8FE3304F3DFA9CE3B8ACF0
:10135000C3217F5F1BC733A7358FBECE91CF791CCA
:10136000A71CE73A6502041055A055A075FFD5FFEC
:101370006E00960000000F008300960000000F0032
:101380004A01960000800B024B0000000F000B0288
:101390004B0000800B024B0000000F0070034B005D
:1013A00000000F0093024B00008093028900DC03D1
:1013B000890070038900DC03890010038900DC03C5
:1013C0008900E4028900DC03890093028900DC03C0
:1013D00089006E028900DC03890093028900DC0326
:1013E0008900E4028900DC03890093021301EE0105
:1013F0001301B8011301EE0113014A014C040080EE
:101400000B02850088018500B80185000B020A01E6
:101410008801850088010A014B0285000B028500C6
:10142000700385004B020A010B028500B8010A0116
:101430006E0285006E0285006E020A014B020A01EF
:101440004B0285000B0285000B02150200804A0149
:10145000960000000F008300960000000F006E0051
:1014600096000080DC0364004B026400BA02640052
:10147000008000000A410001052800020523010048
:1014800002140101010F010201140200011E0808EB
:101490001C1422417F0000001C1C3E7F7F002A4953
:1014A000A1CF536421F1DEB2981C330104985E5140
:1014B000800520C0428E28C00200E4D16092061947
:1014C000DD197F588E005C40380113FFAF0C40756A
:1014D00041A2408D12A40E407541A2408D07EA0042
:1014E000821EA807EA813A80A007EA817AA00E0648
:1014F0007A7508C3210C87301CC27080C3810C87A9
:10150000301CE0F0EAD5050C07381CE07020C32140
:101510000C07381CC870315DC070381DE07020C3E6
:10152000E1F4EA028603586E8643180E7078F56A75
:1015300039580E4A806139580E96831260580EC68B
:10154000029AC05205864582C6029AC05205460AD2
:10155000681C101840351844B180C601810154033D
:10156000933081100E9C090093308110BEC04C3323
:10157000F9C47EB7CBA2FBBECB48FCCABE3BD8FBAE
:10158000BEEF3B6C12BA53AAA4F71D66B6EFF67D08
:10159000DF771979CD4C3379094CC204209C39107E
:1015A000024CC284688101816114A828128916182E
:1015B00010184681B680C6018101548341140B681E
:1015C0001C1018403530091308E1C099002F996CA0
:1015D00016892CAC2CAC2C4C586C54AA48B0A2A246
:1015E000202A22A222222A03511114095616561625
:1015F00022A2B259084A102B12AC04B1A222838550
:10160000A0A85891602588092A1B951216561656CF
:1016100054AC2C42511988042B0B2D8B812CAC2CF3
:1016200064B0983C019E702004988409D1020302A2
:10163000C328505124122D3020308C026D018D03AF
:101640000203A806832816D0382030806A6012264C
:1016500010C28133016012260F3797C1CA306F5E06
:101660002664C75853C972355F78F79D9DA935C662
:10167000014F1C6F8ED3B132D77A755FB976DCDF3C
:101680003DBCEDACD567C0244C00C2990321C024F9
:101690004C881618101846818A2291688101816150
:1016A00014680B681C101840351844B180C60181BD
:1016B000015403933081100E9C0900933081F06433
:1016C000E923AF0FDE73140FFE82767F5D7D9B8F63
:1016D000CD676BF9899CA8DB70CBF3C9E936C65C92
:1016E0003E230C26610210CE1C0801266142B4C0C4
:1016F00080C0300A541489440B0C080CA340950B8D
:10170000E542B9502E940BE542B9502E940BE542B8
:10171000B9502E940BE542B9017746C63872A15CE8
:101720002817CA8572A15C2817CAC3BEE042B95007
:101730002E940BE542B9502E940BE542B9502E94ED
:101740000BE542B9502E940BE5C27B8FBCC8EE501E
:10175000DF71A15C2817CA8572A15C2817CA85723F
:10176000A15C2817CA05010000FA00EE01FA00107A
:1017700003FA00E402EE020000FA002A02FA000076
:1017800000FA00EE01FA001003FA00E402EE020093
:1017900000FA002A02FA000000FA00EE01FA00DC6A
:1017A00003FA007003EE020000EE028801FA000B5B
:1017B00002FA004B02F4019302FA000180A187DDD6
:1017C0000D9BBB201BC46B2EBDE43864E33878DC72
:1017D000B75EC04B6FA11BC51B0D0F0CA4C0400A08
:1017E0000CA4C0400A0CA4C0400A0C78C19933670D
:1017F000CE9C7904CD87DDD213C7018702DCBA45C0
:10180000397281E0910B04BFD52D3D71DC9BC53150
:10181000975E7296ECE0730F1838782CDCD6A7C66A
:101820001EA7E04D72EB969E380EDC088D8F11924C
:1018300025244B4896902C215942B204762EEBB2C7
:101840002EEBB22EEBB28E23474D474646F3DB46D6
:10185000B3F839AC741C59E9D864050000250000C0
:101860000000000000000104000000000000001E55
:101870000078003C0001309F0974FF00010106B0B0
:10188000FF00010106F8FF00010106F00000010160
:101890000765FF0001000325010001000425010088
:1018A00001020200FF0001010542FF0001010535B0
:1018B000FF0001010528FF0001010892FF0001015E
:1018C00039063906390639062F0624061D1103107C
:1018D0006688336688338FCF0B591B60C3458005FC
:1018E000DE0039F38D5EBD79EDD59BD79E59100E84
:1018F000060E86C488468E460E468648C48E060E60
:1019000008110C14281502010825102111240A16AB
:1019100009040103070F070B0502010904080C0E57
:101920000F0E0D0A04083F8FAE055CBD7AF5EAD5AF
:10193000AB57AF5EBD7AF5EAD5AB57AF5EBD7AF572
:10194000EAD5AB57AF5EBD7AF5EAD52BB0969D1CB4
:101950002817CA8572A15C2817CA8572A15C28174E
:10196000CA8572A15C2817CA8572A15C2817CA852E
:1019700072A15C2817CA8572A15C2817CA8572A15A
:101980005C2817CA8159298F198370436EC80DB915
:101990002127C6B8AC0570436EC80DB92137E4865F
:1019A000DC901B72436EC80DB901AC2547C285722D
:1019B000A15C2817CA09387B4261436143614361D6
:1019C00043614361436143614361436143614361F7
:1019D0008372122997CC2937E486DC10B7885BC460
:1019E0002DE216718BD885DC10B7885BC42DE2160A
:1019F000718BD885DC901B72C339D97B7AF5EA1CD0
:101A0000EA45BDA817F5A25EF4EA1CEA45BDA81791
:101A1000F5A25EF4EAD5AB73EFB357AF5EBD7AF5CE
:101A2000EAD5AB57AF5EBD7AF5EAD5AB57AF5E3DB1
:101A3000032DDF3F1738817000022C60D16C542ECB
:101A400004592C368BCD62330972201CF963085A75
:101A50009521CC516FECDF3FC2CD0E2C38D0ED3745
:101A600099400018C0E05D8BA0DB8882512480E89B
:101A7000B87A136EE0AD37E106DEBC8A3004109B05
:101A8000091592F2290712100421C8F02314204BE3
:101A9000C41DC029481800805620000508480100D0
:101AA000902200004500000A10810A2A0301C02983
:101AB000E2369052BE030B0D0703FB0307FF07033B
:101AC000FB03071C181B181C1F1C181B181C0703E2
:101AD000FB0307FF8383DB1B1B1C181B181C1F1831
:101AE000181B181CFFFFF70303FF0703FB03071F67
:101AF0001F1F18181F1C181B181CFFFFF70303FFDC
:101B00008383DB1B1B1F1F1F18181F18181B181C93
:101B1000E3633B03C7FF0703FB030719181A1B1BEB
:101B20001F1C181B181CE3633B03C7FF8383DB1BCD
:101B30001B19181A1B1B1F18181B181C6363BB03E7
:101B400047FF0703FB03071C181B18181F1C181B53
:101B5000181C6363BB0347FF8383DB1B1B1C181B21
:101B600018181F18181B181CFF1F870303FF0703F3
:101B7000FB03071C1C1D18181D1C181B181CFF1F1D
:101B8000870303FF8383DB1B1B1C1C1D18181F18F6
:101B9000181B181C8383DB1B1BFF0703FB030718A1
:101BA000181B181C1F1C181B181C8383DB1B1BFF16
:101BB0008383DB1B1B18181B181C1F18181B181CF1
:101BC0000703DB1B33FF0703FB03071C181B181C51
:101BD0001F1C181B181C0703DB1B33FF8383DB1B35
:101BE0001B1C181B181C1F18181B181CFB7B0B83B5
:101BF000F3FF0703FB03071B181C1F1F1F1C181BE9
:101C0000181C07083E7F4377617F3E0D10F008F4F3
:101C10000C24754674240CF408F000013AE7FE0227
:101C2000C7C606FF2E1900E010E81848EA8CE848FD
:101C300018E810E001023DE6FC04CECC0CFE2D1AA3
:101C400001F008F40C24754674240CF408F000012B
:101C50001CF3FE02C7C606FF160D000C1000008024
:101C6000FCD6829646FEBC0000000F081F00181824
:101C7000001F1C0700000000F8AC042C8CFCF800CE
:101C800000000F091F011919001F1C0700000000A8
:101C9000F8AC042C8CFC780000000F091F01191906
:101CA000001F190E000F8F9FE04066CB1C0CBE3842
:101CB0000F3185216010110938A0B7C61CE602E07B
:101CC000F0F8FCFCFCFCFEFFFEFCFCF8F0E001037D
:101CD000070707070707070707070703010F0BE0B9
:101CE00010E814E4B4947295B6E414E810E001022C
:101CF000050201030202020301020502010B10FFAB
:101D0000FFFF5F0F2F5F7FFFFFFF03FDD6DFD7F7DA
:101D1000D6FD02FD031410FFFFFFFFFFFFFFFFFFD3
:101D2000FFFFFFFFFFFFFFFFFFFFFFFFFFFFFFFFC3
:101D3000FFFFFFFFFFFFFFFFFFFFFFFFFFFFFF149E
:101D400010F04C141AFF0033332211000004C0E9D4
:101D500000A0001400FFF0F6F606E6E606F6000026
:101D6000000000F0F0FF001400090E07F986AA82B7
:101D7000AA86F907003F20242A26203F001C10FFD6
:101D8000FFFFFFFFFFFFFF003333221100001A04A3
:101D9000C0E91DC4320A0A0A0A051DF0F6F606E675
:101DA000E606F60000000000F0F0FF04C0FF00FFB0
:101DB000008040A050A8000810FF0033332211001B
:101DC00000FF003333221100001720EFF9063636EA
:101DD00024120000F906363624120000F9063636C1
:101DE00024128A54AA52EA34DA54D45AD42AD2A2F7
:101DF0004A94CAC4CA142A52A21A04C0E967AC534E
:101E00002E272ED3EC67A04C141AFF003333221177
:101E10001A04C0E965A04C141A04C0E965A04C146A
:101E20001AFF0033332211C0E0F0F8FCFEFFFF0878
:101E3000088040A0502814CAC415D7EFBB7FD7DE56
:101E4000BBF73F93737AF5EAD5AB57AF5EBD7AF532
:101E5000EA041597DFC9057008B122A104370447C9
:101E6000B9442E793FA5C04026608B8082145090E3
:101E700085E0AD5B417512000000E733CFFC5ACF1F
:101E80009C010506EDF6C9F6EDFDFDC0EFEFFCFB8C
:101E9000C0FBFCFDC1FEC1FDF7EFC0FDFBFDFBC4B7
:101EA000FBFDEDCDE1ECEDFDACA6F0F98BCF2BAC5D
:101EB000A1DC901B72D223596D1938A1B0A1B0A139
:101EC00098C1A02D01010704041E1405050002029B
:101ED000040404191900001401010503032323005D
:101EE000000006060606061E140202000000190085
:101EF0000B020403095C010023000E0205050B031D
:101F000000041E000B0305050B01010228000E034F
:101F100005071042020832041206080710200004C8
:101F20001E040B0204050B1C010228040E02050509
:101F30000B5000001E040B020505080101022804D5
:101F40000E030507101C030A3C08170508071010AC
:101F5000000023080B020505084201022D080E02AD
:101F600005050B1C000423080B0306050B100104D8
:101F700028080E030607100F040C500C1A0000006E
:101F8000004200050A0505077003190093021900B5
:101F90000B021900E006190000804A01FA007201E4
:101FA000FA009F0177014A017D0072017D009F01C7
:101FB0007D004A01FA007201FA004A01FA00150197
:101FC000FA00EE01FA00B801FA009F01FA0072016E
:101FD000FA009F01F4017201FA007201FA004A014D
:101FE0007D0072017D009F0177014A017D00720131
:101FF0007D009F017D004A01FA007201FA0015017F
:10200000FA001501FA00EE01FA00B801FA009F018A
:10201000FA007201FA004A01F4010000FA0093028A
:10202000FA006E02FA003701FA007201FA00EE01BE
:10203000770137017D007201FA00EE01FA00B80164
:102040007D00EE017D007201FA009F017D007201AA
:102050007D009F017D0072017D009F01770172016B
:102060007D009F01FA007201FA004A01FA00720134
:102070007D004A017D003701FA007201FA00EE018D
:10208000770137017D007201FA00EE01FA00B80114
:102090007D00EE017D007201FA009F01F4012A0229
:1020A000F4019F01F4019302FA006E02FA00370175
:1020B000FA007201FA00EE01770137017D0072012A
:1020C000FA00EE01FA004A01FA0072017D004A01AD
:1020D0007D003701FA007201FA00EE017701370145
:1020E0007D007201FA00EE01FA004A01FA00720165
:1020F0007D004A017D00B8017D009F017D00B8018F
:102100007D009F017D00B80177014A017D00370104
:10211000770172017D0072017D00EE017D003701C3
:10212000FA004A01E8030080258FCF66387AF5EA85
:10213000D5AB57AF5EBD7AF5EAD5AB578F64BEEB32
:10214000A0501010111010111010111010111010BB
:102150001110101110101110101110101110101179
:10216000101011101011101011101011101011106A
:102170001011100A65140000FCFEFEFEFEFEFFFFBB
:10218000FFFEFFFFFFFEFCB8F0FEFFFFFFFFFF7F3B
:102190007F7F7F3F3F7F3F1F1F0F00010303070724
:1021A00007070702000000000000000012130000F3
:1021B000FC06FACA922E9DE5C996CD6549165CB813
:1021C000F00E41AC563B874D4341442E3740221719
:1021D000100F0001020205050405050200000000C1
:1021E0000000000001010000B8FCFEFFFFFFFEFF41
:1021F000FFFFFEFEFEFEFEFC00000F1F1F3F7F3FA5
:102200003F7F7F7F7FFFFFFFFFFFFEF000000000AA
:10221000000000000207070707070303010012136D
:10222000B85C164965CD96C9E59D2E92CAFA06FCA2
:1022300000000F10172240372E4441434D873B5674
:10224000AC410EF000000000000000000205050493
:10225000050502020100010000011F168040A05088
:1022600028D4EA723A9A9A1232F5E191E1F23412E4
:102270009A9A3A72EAD42850A040800700020500DA
:10228000E73F3C1D5CDC3DA420A9A429A0A43DDCC3
:102290005C1D3C3FE700050200070000000002153E
:1022A0002B242D2C2C262A2A2A2A2A2A2A262C2C90
:1022B0002D242B150200000000000102011C0880E3
:1022C00046DFFF07038247DF7F870307070E1E36BF
:1022D0002E546C58B8B8D8B85C631C2060E0E0F0AD
:1022E000F8FBFAFCFFFEFCF0F0F0F0E0000000006C
:1022F00000000107070F0F0F0707070301110C204C
:1023000060E0E0F0F87B6A6C7FFAFCF0F0E050A04F
:1023100000000000000001030305030503010201A2
:10232000000001011E1000000000000000008040BD
:10233000000000800000818202B2F4F8F870307072
:1023400070E0C08020405060E8E8F0E0E1FA7F3FB4
:1023500002070FF50FFFFBFCFF010000000C229F9E
:102360007F0A000001BB074A07D2065D0662084AE1
:10237000083208AF0895087A083C7EFFFFFFFFFF90
:10238000FFFFFF7E3C003C7EFFFFFFFFFFFFFFFFE4
:10239000FFFFFFFFFFFFFFFFFFFFFFFFFFFFFFFF4D
:1023A000FFFFFFFFFFFFFFFFFFFF7E3C33083C42C4
:1023B00081BD89BD81BD9589423C003C42BDA5A53A
:1023C000A5A5A5A5A5A5A5A5A5A5A5A5A5A5A5A5BD
:1023D000A5A5A5A5A5A5A5A5A5A5A5A5A5A5BD42F8
:1023E0003C0904040800070003000804E608D708B5
:1023F000CA0810090309F7080F8F3A33620F6B1EE2
:10240000F95C0A9FC969AFCBBAACCBBACC020F8FCB
:102410003A8101281C1098630202192808443725C4
:1024200085CF0027849CC65E7B5C8DB3BA09A0096A
:1024300085096B09520938091D094B0A360A200A19
:102440000D0AFA09E709D40954415241544F4D414C
:102450004D4F4D454E4F5641534F53494B414B49BC
:102460004D554E5554555355524553455445504579
:10247000504F504950410008085040584455407F43
:10248000000808007F40554458405008080A021AC6
:1024900022AA02FE00080800FE02AA221A020A204E
:1024A0004982802078208053746174BDC680882062
:1024B0003A0A53B3203A0A89203A0A476F6C6420DB
:1024C0003A0A44756E67656F6E73203A80B6205283
:1024D000756E65738020456E656D792053747380C9
:1024E0004E616D653A0A88203A0A89203A0A80537B
:1024F000C4208A0A4E6577208A0A8052C1C2208A87
:1025000080D280B168B921808B20CA666C696374FF
:10251000B880208CBC8D2E80506CCB20616E208EBC
:1025200020808B20CC6761CAB8802068C86C746832
:10253000208F2E80B79020912080206870208F2ED1
:102540008020922C2080208D208C2E809320476527
:102550006C6174CAC9732043756265209120610A59
:10256000B6802094802095209680208B20B3B89050
:1025700020972066CC65640A98207669BE6167CE94
:10258000732095209820637572CD21808B20736312
:102590006F72B880209920636FCA732E80209A20B2
:1025A0008F2E808B206469656421204C6FCD20685C
:1025B000616C66BC9B0AB520992097209A208F21D8
:1025C000804750805350808B209C20804EAE20212D
:1025D0008041535441524F4B80B64865CC206CC566
:1025E0002056616D706972C62E0AB79D2087332010
:1025F0002D209E208632802052C120496E2050C856
:1026000063652046696C6D6F74652E0AB79D2087DF
:1026100031202D209E20863980B650B420506C6128
:1026200079204F6E20546170650AB5446576656CFB
:102630006F70B8323031398057656C636F6D6520CB
:102640007472C4BECE20BA98BB776E806F66204786
:102650007269A3642E2093206576696C209080684F
:102660006173207475726EB8CB2061BE20CABA70D7
:10267000C76BCA8070656F706C652E20506CC8CDBA
:102680002068656C7020CB20646566C874809F20CC
:102690006372617A792077697ACF642180426520FC
:1026A0007375CC20BA6571756970209BCD6C66809E
:1026B00070726F70CE6C792E208B20A02070B420A9
:1026C000222425BB80616363657373209B2069822C
:1026D0002097BB807669657720CAA36D6174C3209B
:1026E0006162C97420A1206F72809B20656E656D48
:1026F000C52E80496E20636F6D6261742C209C2012
:10270000947320BA7363C28027706F6BCE272068E2
:1027100097732E2050B4B920222325207769BE80DC
:102720009C2098209473202D206AC720978074C91C
:10273000636820947320BACD6C65637420986D80B3
:10274000A320CC9CB92E204E6F726D61BE7920A162
:1027500080A0209C20332074696D65732C206275E5
:102760007420A480C06D73206D696768742067BF92
:1027700020A1208E2E804372797374616C20488171
:1027800080486967682048818052C96E642048810A
:1027900080A520A6808820A680537065B8A680A555
:1027A00020426C617A658048C86CB92057CA648041
:1027B000526973B9205374CF8056656E6F6D204D8A
:1027C000BD803520A520A78048C86C203230204825
:1027D000508033352044616D616765803220502E12
:1027E00020A780D246BF8380D246C9728380D2D1CF
:1027F000CC65838054776F2050616972732180D2D9
:102800004675BE2048C9CD21808B207069636BB8A6
:10281000757020A42048502180B620D1616E6B20B5
:10282000A120A320736176B90AB520CB209520980A
:1028300020437572CD2180204F76CE7772C02065FF
:1028400078BDB920A93F0AB5B584B6208580B753B5
:1028500074CF7420D26E657720A93F0AB584B62064
:102860008580B78A20AB2072C1C2642180B6208BDC
:1028700020AC20AD0A20AEBCAF206881732180B7A8
:102880008B20AC20AD2061730A6D616E79BC98CD50
:1028900020706F74C3730AB7617320A120A02063F6
:1028A000CF7279202180B6B0209F20C06D3F0AB63C
:1028B00084B62085808BD0B120AD0AB6B220992194
:1028C00080B68B2061CC2063CF7279B90A20AEBC70
:1028D000AF2094732180B7B0209F20943F0AB78423
:1028E000B6208580208BD0B120AD0AB620B220530F
:1028F000502180B5B641206D6F6E7374CE2092204A
:102900009680D1726F77209820947320616761CA96
:102910002180B78A20AB2073C4642180656C6D650B
:10292000F46E76656E746F72F9206F662061204BCD
:10293000696E64A1222325205965F3222425204EA7
:10294000EF3138B83138B44865616C74E844656675
:10295000656E63E547616DE5596FF57074F3646109
:102960006D6167E565787472E1706F696E74F3414B
:10297000737461726FCB73746F6CE56174746163AF
:102980006BF35468E572756EE566726FED796F757D
:10299000A1616EE47468E5676F6CE4736B696CEC5D
:1029A000796F75F2636173F4426F72EE4465E3749C
:1029B0006869F36361EE796FF572756E65F3666F42
:1029C000F2736F6DE5466972E5506F74696FEE449E
:1029D0004DC74B696E64A167616DE55965F373740A
:1029E0006174E5616C72656164F9686176E56F6ECA
:1029F000E574686F73E54275F96E6FF4656E6F7517
:102A000067E86B696CEC726573F320202020A020CE
:102A100020A020A06564A0696EE7746FA02074EF09
:102A2000206F66A06973F46CEC6976E56974E565FE
:102A300073F46F72E5696FEE6176E56965F369635A
:102A4000F3756DF065E16FF569EE75F372E573E5A9
:102A500065F261F220646FA054E861A003080000F1
:102A600000002F00003C7EC3F5C381B5CB7E3C0047
:102A7000000000030000000000000000000000084B
:102A80001C084020000808080020000000003F212A
:102A90003F223F203329272329371E113F37253D69
:102AA0003F253D3905033F253F07053F1400000042
:102AB00000000000000000000000000229062000C5
:102AC000203C0B3C3F253B3F21333F213E3F25210E
:102AD0003F05013F213B3F043F3F000030203F3F87
:102AE000043B3F20003F0E3F3F023F3F213F3F0955
:102AF0000F1F113F3F053B372D3B013F013F203F5B
:102B00000F300F3F183F330C33033C03312D231894
:102B1000243C3E24183C242418243E183428083E23
:102B20000A5C543C3E04383A0000403A003E083407
:102B3000023E003C083C3C043C3C243C7C241818ED
:102B4000247C3C040C282414041E243C203C1C201F
:102B50001C3C103C3408345C503C34242C010107EC
:102B600004041E14050500020204040419190000DF
:102B700014010105030323230000000606060606D0
:102B80001E1402020000000A41000105280002058F
:102B900023010002140101010F01020114020001CE
:102BA0001E00CD2711241FBECFEFDAE0DEBFCDBF60
:102BB00011E0A0E0B1E0E2E3FFE602C005900D9273
:102BC000AA36B107D9F726E0AAE6B1E001C01D9206
:102BD000AA36B207E1F715E1C2EDD5E104C02197AD
:102BE000FE010E949137C13DD107C9F70E940A2812
:102BF0000C9497370C940000809179010895982FD8
:102C00008091F705923051F0933019F0911107C07F
:102C100008959091FA05990F890F0895880F909162
:102C2000FA05FACFE8E8F1E081E030EB20E146E098
:102C30005C983EBD4A95F1F72EBD20E8239507C06C
:102C4000449140815C9A4EBD8111412D4193449144
:102C50002A95B1F73395383B49F70DB408952F9273
:102C60003F924F925F926F927F928F929F92AF921C
:102C7000BF92CF92DF92EF92FF920F931F93CF9369
:102C8000DF93CDB7DEB760970FB6F894DEBF0FBE07
:102C9000CDBF1C015A8349830B87FA0134913196C9
:102CA00044914E83832F8F778F5F682E712CC301E1
:102CB000820D931D97FD99C150E8251631040CF043
:102CC00094C1842F8F738F5FAB01480F511D57FD47
:102CD0008CC1603471050CF088C1331F3327331F5A
:102CE000388B91E09D833E8136FF1D828B0177FFFB
:102CF00004C000271127061B170B07701127AB0113
:102D000077FF02C0495F5F4FFA01A3E0F595E795B1
:102D1000AA95E1F7F887EF8377FF0CC0011511053D
:102D200049F03197F887EF8348E050E0BA01601B23
:102D3000710B8B01682F669566956695877009F013
:102D40006F5F7B85A30141505109711102C050E0B2
:102D500040E097E0A0E1B0E080E0512C412C912CC4
:102D6000812CE62FF0E0FD87EC876C857D8586164B
:102D700097060CF03AC1EE24E394F12CFD0173E0C8
:102D8000F695E7957A95E1F769817A81E60FF71F65
:102D9000E4916E2F70E0FD01E770FF2702C075958A
:102DA0006795EA95E2F7FD013196FF87EE8760FFB0
:102DB00006C0FFEFEF1AFF0AAE85BF85DFCF31E017
:102DC000E316F10409F0A1C0EE85FF8563E0F695F6
:102DD000E7956A95E1F769817A81E60FF71FE4913B
:102DE000F0E0EE84FF8477E0E722FF2402C0F5954F
:102DF000E795EA94E2F7E170FF27BF016F5F7F4F2D
:102E00007C836B831296F12CE12C6B817C816E1597
:102E10007F0509F4DCC07889772359F0692F70E0C9
:102E20003D81332309F4B9C0645A7E4FFB016081B0
:102E3000862B915008F0C7C0882309F448C0DF8072
:102E4000D80CF7E0FD150CF442C0B101640F751FFA
:102E500060387105E0F590E0002E02C0880F991FE0
:102E60000A94E2F7D7FC15C03D2D60E83603F00167
:102E70001124E20DF31DE40FF51FBF0168577E4FCB
:102E80005B01FB016081222309F48EC0682BF501F0
:102E9000608301151105D9F0F7E0DF16C1F03FEFAF
:102EA000D316ACF0ED2DDD0CFF0B3196F695FE2F11
:102EB000EE27F795E795E20DF31DE40FF51FE857B0
:102EC000FE4F6081222309F473C0692B60836E81F9
:102ED00067FF04C07D8181E078277D839FEF491AD9
:102EE000590A3B85332309F467C041505109461400
:102EF000570444F04FEF841A940AA301415051093A
:102F0000512C412C97E080E05EC0B70161507109FF
:102F10007A876987E1E0F0E0098402C0EE0FFF1FC5
:102F20000A94E2F7BF016F5F7F4F7C836B83D12CE4
:102F3000C12CAE84BF84AC0CBD1CF50133E0F6950A
:102F4000E7953A95E1F769817A81E60FF71FE491F9
:102F50006E2F70E0E7E0AE22BB2402C07595679546
:102F6000AA94E2F760FF0EC061E070E00C2C02C092
:102F7000660F771F0A94E2F7EB81FC81E60FF71FDB
:102F8000FC83EB83FFEFCF1ADF0A69857A85C616CB
:102F9000D7067CF2AE0DBF1D36CFE7E0F0E0E61BB2
:102FA000F70BE45AFE4F43CF782F709567236FCF0E
:102FB000892F809568238ACF461457046CF44F5F9D
:102FC0005F4F80E097E06FEFE61AF60A1ECF71E0E0
:102FD0003889731B788BC9CE5FEF851A950A50E04C
:102FE00040E080E0512C412CEDCF60960FB6F89474
:102FF000DEBF0FBECDBFDF91CF911F910F91FF902C
:10300000EF90DF90CF90BF90AF909F908F907F9088
:103010006F905F904F903F902F9008952F923F9226
:103020004F925F926F927F928F929F92AF92BF92D8
:10303000CF92DF92EF92FF920F931F93CF93DF9384
:1030400000D000D000D0CDB7DEB7DB01411551056F
:1030500009F43AC1FA019490319674914E5F5F4F32
:10306000A92CB12CBA82A982222321F1E1E0F0E05F
:10307000372F377011F4F0E0E0E0C72EC694C69405
:10308000C694CE0EDF2ED11CA980BA80CA9CF00156
:10309000CB9CF00DDA9CF00D112463E0B62EEB1002
:1030A00002C0EE0FFF1F2E9F60012F9FD00C112436
:1030B0004C0D5D1D29813A81280F391F3A832983E0
:1030C000121613060CF000C1803891050CF0FCC0FC
:1030D0009D01270F311D121613060CF0F5C0A03408
:1030E000B1050CF0F1C04115510509F4EDC03A2FBE
:1030F0003770632E9D01B7FF02C0295F3F4FE3E0A9
:1031000035952795EA95E1F7F22FB7FF04C06620C1
:1031100011F0FFEFF20F22273327281B390B97FD01
:1031200002C030E020E0A981BA8160E8F62EF81AEA
:10313000A038B1050CF4F92CF21AAF2F0F2E000CA9
:10314000BB0BFF3F0CF0A1C0EA2FE095E983E1E063
:10315000672F677009F4E0E0769576957695E70F2E
:10316000AE0FB11D199714F0E8E0EF1B79807F0EC8
:10317000772D60E87603D00111248A0F9B1F820F00
:10318000931F262C062C000C330873E0A2E0E712F4
:10319000A1E0B92DBF19BA9FB02D1124AA2EB12CD0
:1031A0006981969E200D311D11242A9DB0012B9D11
:1031B000700D3A9D700D11246A01C60ED71E0115BF
:1031C000110509F48A01950121503109620F731F1D
:1031D000060F171F6FEF70E0062C02C0660F771FF7
:1031E0000A94E2F79B01209530953A8329834E2E6D
:1031F0004F0E4B2F50E0AF9D400D511D1124741404
:1032000009F462C0DC01A857BE4F1E821D82512CFA
:10321000F51409F451C0ED81FE81EC0DFD1D2491E2
:1032200030E0022C02C0220F331F0A94E2F762E062
:10323000E61609F43EC07BEFE71229C0F901E095DC
:10324000F095FC83EB8330E020E077FC05C09C9098
:103250007B819722922A9C92662071F0E6E0E71526
:103260005CF04D01F0E88F0E911CF4012081FC818F
:103270002F23232BF401208353942D813E812A0D8B
:103280003B1D3E832D831196C3CF198260CFED8104
:10329000FE81E00FF11FE491F0E0022C02C0EE0F7E
:1032A000FF1F0A94E2F7BF01609570957C836B83E2
:1032B000CCCF69817A81FACF7394C40ED51E040FE6
:1032C000151F80589F4F9BCF26960FB6F894DEBFF0
:1032D0000FBECDBFDF91CF911F910F91FF90EF9067
:1032E000DF90CF90BF90AF909F908F907F906F9026
:1032F0005F904F903F902F900895E0EEF5E080E0D2
:10330000919191118F5F95E0E63EF907C9F7089515
:10331000482F209103013091040186B52827C90167
:103320009695879520FF02C024EB92279093040185
:1033300080930301641B770B0E946937840F089503
:103340009091DE05981721F08093DE051092D60546
:103350000895E091DF058091D405E43041F094E0D8
:10336000E99FF0011124E957F44DE4918E0F08957F
:10337000E8E9F5E0A08DB0E0AE5ABE4F8C918F3FEA
:1033800049F4838D811107C0349695E0EC3AF90732
:1033900089F7089581E00895EF920F931F93EE242B
:1033A000E394890120E00E940E181F910F91EF9085
:1033B0000895CF92DF92EF92FF920F931F93CF93D6
:1033C000DF93EC017B016A01A90120E00E942F1626
:1033D00021E0A601B701CE010E942F16DF91CF9107
:1033E0001F910F91FF90EF90DF90CF900895209163
:1033F00062063091630627703327232B51F4909196
:10340000AC059F5F891719F09093AC050895109251
:10341000AC05089520918101E0917F01F091800138
:10342000CF0102969093800180937F01222319F0AF
:10343000859194910895808191810895E1E7F0E06C
:1034400080818D7F80831092910046985F981092C2
:103450007E010895CF92DF92EF92FF92CF93DF9398
:103460000E940A1A811520E8920741F4DF91CF915A
:10347000FF90EF90DF90CF900C941E1A21E02093E4
:103480007E01813020E8920751F480917C01909177
:103490007D019093800180937F010E940A1A97FD1D
:1034A00005C020917B01222309F45BC020917A01A1
:1034B000211157C021E020938201EC01DF77209792
:1034C00009F052C081E08093830146983FE9C32E02
:1034D0003FE0D32EE12CF12CCAEFD0E0E09196052D
:1034E000F09197050995811103C081E080938301D4
:1034F00080918201882329F080918301882309F437
:1035000046C05F980E940A1A009709F444C09C01C3
:10351000DE010E944037DC01CB0129E0B595A7957B
:10352000979587952A95D1F7109290002AE02093DD
:103530009100D0929900C09298008093840190935A
:103540008501A0938601B09387018091710082600C
:1035500080937100DF91CF91FF90EF90DF90CF903B
:10356000089510928201A9CF9E0150E040E060E4EE
:1035700072E48FE090E00E94FF3669017A0181E0F9
:10358000C81AD108E108F10810928301A7CF469923
:10359000B8CF5F9AB7CF8FEF9FEFDC01C5CF9C010B
:1035A000E1E7F0E090819D7F908381E0809381014D
:1035B0003093800120937F0130937D0120937C0123
:1035C0000C942A1AEF920F931F933AEFE32E10E018
:1035D00000E00E940E181F910F91EF900895EF9256
:1035E0000F931F933BEFE32E10E000E00E940E18B4
:1035F0001F910F91EF900895CF93DF93C82FCF774E
:1036000060915B06CA3061F480915A068093590636
:1036100080915E06680F60935B06DF91CF910895FD
:103620009091590620EEC13608F02AED2C0FD82FC4
:103630006F5F062E000C770B892F990F990B309135
:103640005C064CE55AE2313079F40E94E21A90911E
:103650005906C03229F0DF75D93411F0C73239F478
:103660009E5F90935906D9CF0E94EF1AF0CFC252B5
:10367000C43010F0DC3411F49D5FF3CF80915D060F
:103680008D5F980FEECF1F93CF93DF93EB01142F35
:103690008823C1F0FE0194912196112321F09038E6
:1036A000C9F78150F5CF97FFF5CFFBCF87FD17C046
:1036B00087FF12C08F7740E06CE179E281500E9471
:1036C000431B2196FE018491112381F3803881F7F9
:1036D000DF91CF911F9108950E94FC1AF2CF8F774E
:1036E000DF91CF911F910C94FC1A41E06FE974E2D5
:1036F0000C94431B0F931F93CF93DF9300D000D004
:10370000CDB7DEB71C82FE0134962AE0622F0E94FC
:103710004F37905D92938111F9CF8F01F80181911C
:103720008F01882319F00E94FC1AF8CF0F900F9098
:103730000F900F90DF91CF911F910F9108950E94EC
:103740007A1B8AE00C94FC1AEF920F931F9332E0DD
:10375000E32E10E000E00E940E181F910F91EF90F1
:103760000895F89487E78093000880930108A8954E
:1037700088E18093600088E080936000FFCFBC0107
:1037800090E080E0AB01FC010E94DA1B415051093E
:10379000E109F10928F068517C4F8F4F9F4FF6CF18
:1037A000AB01FC010E94DA1B641775078E079F07A7
:1037B000C8F30895A5E7B1E02FB7F8947D918D91F6
:1037C0009C9166B52FBFA89B05C06F3F18F47F5F23
:1037D0008F4F9F4F22E0660F771F881F991F2A95F2
:1037E000D1F7089581110AC086EA5C988EBD000069
:1037F0000DB407FEFDCF8EB55C9A089587EAF5CF2C
:10380000109279013E98579808953E9A579A81E010
:10381000809379010895480F592F511D14161506EC
:10382000D4F580389105B9F197FF02C090E080E0AF
:103830004138510514F040E850E0481BFB0177FD8A
:10384000379633E0F595E7953A95E1F7F695FE2F33
:10385000EE27F795E795E80FF91FE857FE4F6770D9
:10386000772781E090E001C0880F6A95EAF7382F4A
:10387000213041F4415078F08191DF011197832B81
:103880008C93F8CF8095415030F09191DF011197E2
:1038900098239C93F8CF089520E191E061FD94E096
:1038A00060FD990F62FD9295687F269FD0011124DB
:1038B000A80FA857BE4F8C91442319F0892B8C93E5
:1038C000089590958923FBCFDF92EF92FF920F939B
:1038D0001F93CF93DF937C01D22E8B01040F111D18
:1038E000EB0177FF02C0D0E0C0E0C8010134110550
:1038F00014F080E490E0C817D9075CF480E8E8167B
:10390000F10428F44D2DBE01C7010E944C1C2196E4
:10391000ECCFDF91CF911F910F91FF90EF90DF904F
:103920000895BF92CF92DF92EF92FF920F931F9371
:10393000CF93DF93C62FD42F082F880F110B680168
:103940007801E60EF11CCE14DF045CF420E04D2F6C
:1039500070E060E0C6010E94641C8FEFC81AD80AAC
:10396000F2CFBB24BA94BD0EC25068019FEFC91AB2
:10397000D90A21E04C2F70E060E0C6010E940B1CC8
:103980008B2D8150990BBC018034910528F421E0E6
:103990004C2FC6010E940B1C21E04B2D70E060E013
:1039A000C6010E94641CC6018C0F911D21E04B2DA5
:1039B00070E060E001970E94641C20E045E954E259
:1039C0006FEF7FEFC8010E94A41B98E0E91AF1088D
:1039D00020E04BE854E26FEF7FEFC7010E94A41B89
:1039E0008D2F8850990BEC0120E041E854E2BC0196
:1039F000C8010E94A41B20E047E754E2BE01C701B2
:103A0000DF91CF911F910F91FF90EF90DF90CF90BA
:103A1000BF900C94A41BEF92FF920F931F93CF9330
:103A2000DF93182F8091D805C091D505882331F0F8
:103A3000E091D905F0E0E25CFE4FC0818091DE05A7
:103A4000982F9D7F01E0913009F000E03091D7057B
:103A5000D0E0E090E605F090E70531114DC02091EF
:103A6000D605823040F08430A8F48091620680FF51
:103A70003AC033E00FC0809162069091630666E021
:103A800070E00E946937892B29F42F5F233041F1C0
:103A90002093D6058091D605830F9927991F880F0B
:103AA000991FFC01E65CFB4D25913491FC01E45D1E
:103AB000FB4D45915491BE01C7010E94D9198091D7
:103AC000DF05843009F445C09091DE05913009F49A
:103AD0007EC000F100E0933009F07EC001E07CC0C0
:103AE0001092D605D7CF2F5F243019F02093D6053A
:103AF000C0CF1092D605BDCF8DEF9FEF002311F000
:103B000081E090E028EF33E24EE054E2BE018E0DFA
:103B10009F1DD3CF0091D605002309F45DC000E0BE
:103B200034E090E0880F991FFC01EE50FC4DA59108
:103B3000B491FC01E451FC4D45915491BE01631BCD
:103B400071098091E6059091E7059D0102960E941A
:103B5000D9198091D805882309F448C08091E605D9
:103B60009091E705029620E041EE53E26EE270E0AC
:103B70001123A1F10E94E21A29E733E24CEA53E251
:103B800070E060E090E080E00E94CC198091D10567
:103B9000883040F420916206309163062F713327FC
:103BA000213130F1853608F084E663E00E945B370E
:103BB000D82FC0E0CD17E0F48C2F90E021E042E058
:103BC00063E070E040960E94641CCE5FF3CF90915A
:103BD000D60501E09111A4CF35E0A3CFDF91CF91BD
:103BE0001F910F91FF90EF900C94EF1A1111C4CF19
:103BF000DF91CF911F910F91FF90EF90089508955D
:103C000066E080E00E948819482F56E0580FE6E0F1
:103C1000451700F5842F6E2F0E944F37892F292FCB
:103C200030E028563A4FD901A85BBF4F9C919923A9
:103C300079F09150843038F44091DF05841303C04B
:103C400044E04093DF05285B3F4FF90190830895DE
:103C50004F5FDECF80E00895CF93C62FC69549E031
:103C6000849F402D1124455F80E48C1B0E94911C91
:103C70008AE48C1BE9E5F6E08083818385E082831A
:103C8000CF910895FC012081222341F01092A705D5
:103C900010929A051092EF051082089580919A056E
:103CA000815080939A0581E08093EF050895CF932A
:103CB000DF93C82FD0915806DD23F9F0D23009F4F4
:103CC0009BC0C5FF06C0DD2309F4C6C0D150D09308
:103CD0005806C6FF08C080915806833009F4BEC05C
:103CE0008F5F80935806C2FF05C0109255068FEF74
:103CF00080935206DF91CF9108950E947D19C7FFEE
:103D00000EC090915006933020F091509093500641
:103D100006C020914F06211113C09111F6CFC4FFA8
:103D200024C090915006282F30E0923068F4215042
:103D3000310992171306CCF49F5F9093500615C07B
:103D4000215020934F06EBCF80914F06482F50E033
:103D5000BA016C5F7F4F62177307E4F0490F511D82
:103D600021503109421753073CF3C3FFAACF80917A
:103D7000500620914F06280FE0EEF5E030E090E08D
:103D80004191442319F0231749F03F5F9F5F96301C
:103D9000B9F797CF8F5F80934F06E7CFEDEFE90F2D
:103DA000E33018F09093DF058CCFE130B1F0E230D2
:103DB000E9F09091F705965F9093F705F0E0ED51EB
:103DC000FA4F90819150908391117BCF882309F411
:103DD00078CF81508093500674CF9091D1059C5E2E
:103DE000953608F094E69093D105E8CF90919E0522
:103DF0009F5F90939E05E2CF87FF11C0909153067D
:103E000083E0890F981758F4282F2370E22FF0E0F1
:103E1000E652FA4F30813323D9F020935306C4FF82
:103E200050CF8091530621E0280F90E00396281789
:103E3000190611F00CF045CF322F3370E32FF0E06C
:103E4000E652FA4F4081442329F03093530639CF8C
:103E50008150D8CF2F5FEBCFD3E039CF80E041CF77
:103E600020939A058093F0056093E8051092EC0585
:103E700081E08093ED054093E9058093EF05089577
:103E8000E8E9F5E01182128291E0938F89E0808F5A
:103E9000978F848F93A380A397A384A393A780A7CE
:103EA0000895CF93C82F883099F080E0CA3089F008
:103EB0000E94401FC33039F008F052C0CC2309F4EF
:103EC00057C0C130F1F580E88093010184E064C0FF
:103ED0008BE680939A053091F3052091F40580914B
:103EE000F505813091F58091F9059091F805930FD2
:103EF0009093F805820F8093F9058091F8058093DF
:103F0000F7058091F9058093F8051092F9058091E5
:103F1000FB058093FA058091FC058093FB051092C8
:103F2000FC051092F5051092F60583E080939E053E
:103F3000CA3039F48091A805843019F481E0809367
:103F4000A605C093A105CF9108958091FC0590919D
:103F5000FB05930F9093FB05820F8093FC05CDCF5B
:103F6000C530A1F0C93069F781E080939A05E9CFA7
:103F700081E08093040680E88093010182E08093D1
:103F800002018AE99FE10E94CF1ADBCF0E941E1A2C
:103F900080E88093010182E080930201D2CF1F93D9
:103FA000CF93DF93C0910006D09101068091E60582
:103FB0009091E705C81BD90B8091A605811116C009
:103FC000809105068C0F9D2F911D0996439718F43B
:103FD00081E00E94511F809106068C0F9D2F911D3C
:103FE0000996439718F483E00E94511F10910B0625
:103FF000112331F1809108069091090603968C0FE8
:104000009D1F4397E8F424E64EE561E088E40E94B2
:10401000301F10920B066FE085E00E948819909186
:10402000D105890F853608F084E68093D10588E8AC
:104030009FE10E94CF1A812FDF91CF911F910895A8
:10404000CE0188599109439728F488E280930001B2
:1040500011E0F1CFA8E3B1E0E2E3F1E030E020E0ED
:10406000822F4D915D914C0F5D1F4D5F5F4F43312E
:10407000510538F424E64EE562E08F5D0E94301F62
:10408000E7CF819191918C0F9D1F0996439730F551
:104090001091A605112339F024E648E662E089E490
:1040A0000E94301FC8CFF901EB57F04E8491F901FF
:1040B000EE57F04EE49198EC90939A05E093EE055C
:1040C00092E09093E8051092EC058093ED0582E86C
:1040D0008093E90581E08093EF05BACF2F5F3F4FD2
:1040E0002330310509F0BCCFC556D10910E06397E4
:1040F00008F0A1CF81E08093A70510929A05A8CF80
:104100008091E6059091E7058C56910985319105DE
:1041100068F42091A1052A3049F463E070E00E9420
:104120007D37660F6B5D6093D505089585E28093BA
:10413000D50508951F93CF93DF93D82FC62F122F45
:1041400085FF0BC080E00E94A019D6FF34C081E03B
:10415000DF91CF911F910C94A01965FF27C080912A
:10416000E6059091E705853F2FEF9207ACF0042E0E
:10417000000C550B4817590744F782E00E94A0191C
:104180008091E6059091E70501979093E70580936C
:10419000E6050E948020D9CF8FE790E09093E70555
:1041A0008093E60580E00E94511FCFCF8091DE050D
:1041B000823059F6C7CFC6FF18C08091E6059091AE
:1041C000E70518171906B4F083E00E94A019809142
:1041D000E6059091E70501969093E7058093E60543
:1041E000DF91CF911F910C9480208091DE05833068
:1041F00009F4ADCFDF91CF911F9108950F93CF9325
:10420000DF93EB0100E021E0AC0161E270E088E0C7
:1042100090E00E942F1621E0AE016DE270E087E091
:1042200090E00E942F16DF91CF910F9108958F9209
:104230009F92AF92BF92CF92DF92EF92FF920F9335
:104240001F93CF93DF939AE0499FA0011124C82FB9
:10425000D0E02396D12CC12CCA018C53914E7C0105
:10426000A62EB12C450194E0890E911CF701EC0DAE
:10427000FD1D149100E021E04CEA5EE1B501CE01A4
:1042800003970E942F16212F42E85EE1B401CE0170
:104290000E94A41B8FEFC81AD80A2D9695E0C91664
:1042A000D10421F7DF91CF911F910F91FF90EF90F3
:1042B000DF90CF90BF90AF909F908F900895CF9355
:1042C000C82F85E68093590680935A0685E380932C
:1042D0005B0610925C0680E00E947A1BC43640F4B4
:1042E00080E00E947A1BCA3018F480E00E947A1B9A
:1042F0008C2F0E947A1B81E080935C06CF910895F9
:10430000CF92DF92EF92FF920F931F93CF93DF93A1
:10431000D82E87E0E82E86E0F82ED70115968C91EE
:104320001597D81227C0C090A605C0910006D0915D
:104330000106EC91E250E830E8F4F0E0EE55FE4D75
:104340000C949137AA21CB2118222622492231220E
:104350003B227622CE0106971196ED91FC9100E06A
:1043600029E33EE142E55EE161E270E08E0F9F1FCE
:104370000E94D919B6E0EB0EF11CEFE4EE16E6E070
:10438000FE0659F6DF91CF911F910F91FF90EF90AC
:10439000DF90CF900895F7018181928127E23EE17D
:1043A0004FE25EE16AE070E08E0105511109800F75
:1043B000911F0E94CC19D7011196ED91FC9120E03C
:1043C00049EC5DE162E070E0CE010D978E0F9F1F1A
:1043D0000E94A41BF7018181928120E047EB5DE1FF
:1043E00062E170E0800F911F0E94A41BD70111961B
:1043F000ED91FC9120E04DE75DE162E270E0CE01DD
:104400004C978E0F9F1F0E94A41BCC2009F4B2CFA3
:10441000CE010997D7011196ED91FC9120E049E674
:104420005DE164E270E08E0F9F1F0E94A41BA2CF8B
:10443000F7018181928125E13DE14FE35DE162E297
:1044400070E08C0F9D1F0E94CC1994CFCE01049771
:104450001196ED91FC9120E04DEF5CE162E270E09D
:10446000E2CFF701818192812FEB3CE14DED5CE1E0
:1044700068E270E0E6CF11968D919C9100E020E01B
:1044800045EA5CE162E270E08C0F9D1F0E942F16EE
:1044900071CFF70123810180F281E02DCE01CC2084
:1044A000E1F004974BE55CE165E270E08E0F9F1F41
:1044B0000E94EF1A80916206909163068770992797
:1044C000892B09F057CFD70113968C9113978F5FE3
:1044D000833049F013968C934DCF05974BE05CE108
:1044E00062E270E0E3CFF701138244CF14968C911F
:1044F0001497882309F43ECF809162069091630659
:104500008F719927813108F435CFCE010597119627
:10451000ED91FC91129713962C9142E05CE16BE2D5
:1045200070E08E0F9F1F0E94EF1A24CFE9E5F6E09E
:1045300082E5808381838AE182838FE10C94751BFD
:10454000CF93C82F682F81E00E942C1EC6958CE463
:104550008C1BE9E5F6E08083818385E082838EE130
:10456000CF910C94751BCF93DF93EC01262F46EB74
:104570005AE163E270E089E590E00E94E21A20E0EF
:10458000AE0163E270E087E690E0DF91CF910C949A
:10459000E21AEF92FF920F93CF937C01C62F00E0B7
:1045A00021E041E35AE162E070E08DE490E00E9496
:1045B0002F1621E0A70168E070E08FE590E00E94EF
:1045C0002F1621E043ED59E161E270E081E590E0D2
:1045D0000E942F1621E046E859E163E370E081E58F
:1045E00090E00E942F1621E046E259E16EE170E072
:1045F00085E090E00E942F168091550681111BC026
:1046000060919F0581E0682770E020E04BE159E16F
:1046100081E290E00E94A41B8091A0056BE370E012
:10462000882311F06CE370E020E040E159E181E281
:1046300090E00E94A41B84E58093590680935A065B
:1046400085E380935B068CE1C11101C08DE1CF91C0
:104650000F91FF90EF900C94751BCF93DF93EC01BB
:1046600085E690E00E94E9368883CE01DF91CF9104
:104670000895CF92DF92EF92FF920F931F93CF9303
:10468000DF9300D000D000D01F92CDB7DEB780916D
:10469000A805843031F11F829DEAE92E95E0F92EBC
:1046A0008E010F5F1F4F6801F70161917F0170E07C
:1046B000660F771F685B7B4D42E050E0C6010E94A9
:1046C000E036F2E0CF0ED11C80EBE81685E0F8066C
:1046D00059F7F80181918F01882331F00E94FC1A6B
:1046E000F8CF80E20E94751B27960FB6F894DEBFC4
:1046F0000FBECDBFDF91CF911F910F91FF90EF9033
:10470000DF90CF9008950F931F93CF938091A805CA
:10471000823009F48EC0C0F5882309F46DC0813061
:1047200009F47FC000E021E048E251E270E060E07F
:1047300089E490E00E942F168091A905883048F402
:1047400020916206309163062F713327213108F4DE
:10475000AEC021E2829FC00111246091AB0570E0E0
:104760000E947D378B01C0E08C2F90E0801791076D
:1047700008F09DC021E042E06AE070E0855B9F4F59
:104780000E94641CCE5FF0CF833009F465C0843092
:1047900049F6E091AC05F0E0E754FD4D649170E01E
:1047A0006B5E7F4F20E04AE552E28DE490E00E948C
:1047B000E21AE091AC05F0E0EA5AFD4D649170E038
:1047C000625E7F4F28EE31E24EE152E281E490E0FA
:1047D0000E94CC19E091AC05F0E0EC51FE4D6491E3
:1047E00070E0625E7F4F26E731E24CEA51E286E6F6
:1047F00090E00E94CC192EC0E091AC05F0E0EE0FE5
:10480000FF1FED58FC4D4591549100E021E062E21C
:1048100070E086E590E00E942F1683E00E94F71971
:1048200081CFE091AC05F0E0EE0FFF1FE359FC4DA6
:10483000EACFE091AC05F0E0EE0FFF1FEB59FC4D25
:104840004591549100E021E062E170E08BE490E05A
:104850000E942F1684E0E2CFE091AC05F0E0EE5923
:10486000FC4D649170E0665E7F4F20E044E253E2CD
:104870008BE490E00E94E21AE091AC05F0E0EF5D7D
:10488000FC4D649170E06B5E7F4F2BED32E24DEF9B
:1048900052E28CE490E00E94CC1920E04DEB52E211
:1048A0006AE270E084E590E00E94E21AB6CF80915F
:1048B000A805843069F080E58093590680935A06F4
:1048C00081E080935B06CF911F910F910C94392367
:1048D0008EE4F2CF0F931F93CF93DF93CDB7DEB764
:1048E0002A970FB6F894DEBF0FBECDBF9AE0899F1E
:1048F000B00111246451714E4AE050E0CE0101969E
:104900000E94E03689818093A8051092AC050DEADB
:1049100015E067E180E00E948819F80181938F011A
:10492000F5E0003B1F07A9F78A818093AA058B81D8
:104930008093A9058093AB052A960FB6F894DEBF45
:104940000FBECDBFDF91CF911F910F910895DF92E0
:10495000EF92FF920F931F93CF93DF93CDB7DEB704
:1049600068970FB6F894DEBF0FBECDBFD090A805F4
:1049700084E0D81699F08FE50EEF1FEFE82EF12CAA
:104980000E151F056CF420E04EEE58E162E370E076
:10499000C8010E94A41B005F1F4FF2CF8FE7ECCF2E
:1049A00084E0D81651F000E021E046ED58E166E3DE
:1049B00070E080E790E00E942F1620E04EEC58E176
:1049C0006BEF7FEF87E790E00E94A41B20E04EECA6
:1049D00058E170E060E08CE790E00E94A41B87E063
:1049E000E8E0F1E0DE011B9601900D928A95E1F777
:1049F00087E0EFE0F1E0DE01529601900D928A959A
:104A0000E1F7809104068150990B2AE0289FB001BC
:104A1000299F700D11246451714E4AE050E0CE017F
:104A200001960E94E03610E000E08A8590E0002EBA
:104A300002C0959587950A94E2F780FF1AC0F801A5
:104A4000EE0FFF1FE054F74E45915491E2E1F0E084
:104A5000EC0FFD1FE00FF11F608170E0EBE0F0E074
:104A6000EC0FFD1FE00FF11F808120E090E00E941D
:104A7000E21A0F5F1F4F08301105B9F668960FB69E
:104A8000F894DEBF0FBECDBFDF91CF911F910F9184
:104A9000FF90EF90DF900895FF920F931F93CF93B5
:104AA000DF931092A70583E68093980508E915E047
:104AB000C5E6D0E0F801F1908F01CE010E94E93601
:104AC000F81621F06F2DCE010E94F1362196C632E4
:104AD000F1E0DF0779F724E648E561E086E5DF915C
:104AE000CF911F910F91FF900C94301F41E550E042
:104AF0006FE678E18EEF95E00E94E036E8E9F5E0B8
:104B00008CE0DF011D928A95E9F783E086830895A2
:104B100080E00E94511F0E9476258FEF80935306FC
:104B200010920B0646E150E069E578E181ED95E0F1
:104B30000E94E0368CE390E09093E7058093E605D1
:104B400008951F920F920FB60F9211242F933F9347
:104B50004F935F936F937F938F939F93AF93BF9385
:104B6000EF93FF938091840190918501A09186013C
:104B7000B0918701892B8A2B8B2B09F440C080913F
:104B8000830181110BC088B190E4892788B9809195
:104B90008201882319F08BB180588BB980918401F0
:104BA00090918501A0918601B09187011816190690
:104BB0001A061B069CF48091840190918501A091B6
:104BC0008601B09187010197A109B1098093840101
:104BD00090938501A0938601B0938701FF91EF9197
:104BE000BF91AF919F918F917F916F915F914F9105
:104BF0003F912F910F900FBE0F901F9018950E941C
:104C00002A1AECCF0F920FB61F9211248F939F9305
:104C1000EF93FF93E1E7F1E08091700191E08D5F08
:104C20008D3710F08D579395809370018081890F97
:104C30009181911D8083918382819381811D911D3A
:104C400082839383E5E7F1E08081918101968083FF
:104C5000918382819381811D911D82839383FF9132
:104C6000EF919F918F911F900FBE0F901895CF934A
:104C7000DF93FC0190E09F5F9F012F5F3F4FD901C1
:104C8000892F861750F44D915081451720F4ED017E
:104C90002197588340838F5FF4CFF9016913EBCFDD
:104CA000DF91CF9108954F925F926F927F928F9292
:104CB0009F92AF92BF92CF92DF92EF92FF920F93AB
:104CC0001F93CF93DF93CDB7DEB763970FB6F894FA
:104CD000DEBF0FBECDBF8C01CE0101965C0186E028
:104CE000D5011D928A95E9F7809105019091060101
:104CF000A0910701898B9A8BAB8BE091DF05512C3A
:104D0000E43021F0EC0FFD2FF11D51888FEFF801F9
:104D1000808311821282138214868091B2058C875F
:104D20008091B6058D878091BA058E878091BE05EA
:104D30008F878091C205888B65E0CE010C960E941A
:104D400037268091DD05882359F18D859C8598173C
:104D500039F19E85891721F18F85981709F1988976
:104D60008917F1F023E0D8012D93CD0144E050E004
:104D700061E87BE20E94E036D801EC91BAE0EB9F5B
:104D8000F0011124EA59F44DE491E50DD8011C9687
:104D9000EC931C9782E014968C93149715968C9341
:104DA0009AED692E95E0792E2DE5C22E2BE2D22EBA
:104DB0004301412CF40181914F01882309F459C02A
:104DC000C6018D559B427C0145E050E0B601CE0105
:104DD00007960E94E03665E0CE0107960E943726CE
:104DE0008985873009F445C02F819C85291341C0EE
:104DF00028859D8529133DC09E8589133AC09A85D3
:104E00008F85981336C09B858889981332C0D80146
:104E10004D92CD01B7016D59744D44E050E00E94B0
:104E2000E036F701EA59F44DE491D8011C96EC9371
:104E30001C97411003C081E014968C93F801818186
:104E4000580E518263960FB6F894DEBF0FBECDBFE9
:104E5000DF91CF911F910F91FF90EF90DF90CF9056
:104E6000BF90AF909F908F907F906F905F904F908A
:104E700008954394FAE0CF0ED11C84E048129ACFF3
:104E8000FE013C969E012F5E3F4FA191AA0DBB2DC6
:104E9000B11D8C918F5F8C93E217F307B1F766E039
:104EA000C5010E9437268DE5C82E8BE2D82EF12C45
:104EB000D3018D913D018823D1F1F601ED55FB42DF
:104EC0005F0145E050E0B601CE0107960E94E03652
:104ED0008985873061F58E81823048F18D818230FD
:104EE00030F18F819D85891719F02F8582131FC09E
:104EF0008A85981719F09F85891319C0D801FD92EA
:104F0000CD01B5016D59744D44E050E00E94E0368A
:104F1000B3E0FB1204C082E0F80184838583D801EA
:104F200011968C911197580E11965C928BCFF39439
:104F3000BAE0CB0ED11CE4E0FE12BACF8E818530F0
:104F400041F483E3D8018C938DE2850D11968C9307
:104F500079CF843039F484E3F80180838EE1850DC4
:104F6000818370CF833069F48D81823029F487E3A7
:104F7000D8018C9389E1E9CF85E3F801808384E14E
:104F8000EECF823009F05ECF8D81823009F05ACFAA
:104F900086E3D8018C938AE0D8CF109264061092F1
:104FA000650680E1809366061092630610926206A1
:104FB0001092680688E691E09093600680935F0601
:104FC00089E080935E0681E080935D0610925A0628
:104FD00010925B061092590680935C062CEF35E127
:104FE000309397052093960520E030E8309395059F
:104FF0002093940546983E9A5F98579A8093DE05D1
:10500000E7E0F6E084831582369696E0EF34F90700
:10501000C9F70895CDB7DEB76897DEBFCDBF11E001
:105020001093E0001092E2001092E10080E2809381
:10503000D8001092D7008091650080688093650049
:10504000789483E084BD83E085BD10936E00E1E831
:10505000F0E083E08083E0E881E08083E3EC81E0BE
:105060008083E2EC81E08083EAE787E080838068E8
:1050700080838C9A84988AE090E00E94BF1B7C9B7E
:105080000E94B11B81EC80937C0081E785B987E6A3
:1050900084B985E38BB98FE38AB9769A6E9880EFED
:1050A00081BB10BA80E58CBD1DBD85E090E00E94FB
:1050B000BF1B599902C0599AF8CF5C98EEE5FAE007
:1050C0009AE085918EBD00000DB407FEFDCF8EB530
:1050D0009A95B9F75C9A81E88093640081E08093A7
:1050E000650089E18093660682E090E00E94E936DF
:1050F000882349F10E94051C8824839411E022240E
:10510000239479E0972EECE36E2E712CFEEDCF2EDA
:10511000F5E0DF2E8FB7F894409171015091720144
:1051200060917301709174018FBF80916706242F85
:10513000281B822F90916806992341F020936906DD
:1051400010926806E7CF0E94001CD6CF90916606A9
:10515000291738F48F5F8917E8F683BE889513BE48
:10516000D9CF20926806409367068091620690919D
:10517000630601969093630680936206209164060D
:10518000209365068FB18095807F669B88601C9B0D
:1051900084608093640690916F01923009F4ACC0F2
:1051A00008F057C0992309F478C0913009F0B2CFC4
:1051B0002095822369F080916E01882319F08CE795
:1051C00080936E0180916E01811106C010936E0173
:1051D00080916E01882341F08F5F80936E018D373F
:1051E00019F482E080936F0100E021E047E458E188
:1051F00061E170E08FE290E00E942F1621E04CE226
:1052000058E16AE170E08BE290E00E942F1621E005
:105210004CE258E16AE170E089E490E00E942F16C8
:10522000F0906E01F1103EC021E04CE258E16AE1DD
:1052300070E08AE390E00E942F1621E044EF57E1EE
:105240006EE270E08AE190E00E942F160E94121632
:1052500061CF943009F4C8C008F459C0953009F002
:1052600059CF009164068091650680958023888FD0
:10527000E091A105EB3008F00BC1F0E0EE5BF64DDC
:105280000C949137FA29942B132C492CB92CE42C2B
:10529000082D882F982F4830783010926E01109387
:1052A0006F0186CF00E021E049ED57E16AE170E04F
:1052B0008AE390E00E942F1621E04DEB57E16EE269
:1052C00070E08CE290E00E942F168F2D6FE00E941C
:1052D0004F378370B82E6FE4E62EF12CB01609F428
:1052E000B5CF41E061E370E0C7010E944C1C0F5F45
:1052F00032E0E30EF11CF2CF10926B0110926A01C2
:1053000087E697E10E94CF1A83E080936F01209196
:105310006406809165068095822390916C019923A3
:1053200019F0915090936C0124FF57C090916A013D
:10533000903108F0A5CE9F5F90936A0190916B0128
:10534000903218F49F5F90936B0183FF03C094E049
:1053500090936F0182FF1AC080917901882309F42C
:105360003FC00E94001C00E0F090790182E090E0D4
:105370000E94E936F81629F06F2D82E090E00E9435
:10538000F13600936D0188E280936C0100E021E02A
:105390004BEC54E166E070E090E080E00E942F1654
:1053A00080916B01803249F421E040EA54E165E3E9
:1053B00070E080E390E00E942F1680916C018823BA
:1053C00009F444CF20916D014EE854E168E370E0A8
:1053D00088E790E00E94A41B39CF10926A01AECFFB
:1053E0000E94051C01E0C0CF0E94882585E08093C3
:1053F0006F0137CF909155069111DAC69091A705AC
:1054000020919A0591111BC1222339F0283C09F4FF
:105410006AC0CE0148960E94421E888D82FD10937C
:10542000550690919A05983C59F085FF66C080E03A
:105430000E94A019888D86FFA5C081E00E94A01956
:10544000888D87FF0CC080919A05883C09F0EEC0DA
:105450008091EC05882319F081508093EC05988D9C
:1054600094FF13C080919A05883C79F48091EC05F3
:10547000282F30E02E5F3F4F4091ED054217130675
:1054800021F01CF08F5F8093EC0593FD0E94CF1FED
:105490008091D805882349F08091D9058F5F80934A
:1054A000D905843111F41092D8058091D70588234D
:1054B00019F081508093D7058091A1058B3010F0B1
:1054C0000C943033E82FF0E0E859F54D0C94913707
:1054D000DB3017331733BC33BC330B340B340B3492
:1054E0000B34783488348C7021F010929A05188E21
:1054F00091E098259093EF0590CF05FF3DC082E0A5
:105500000E94A0198091E6059091E7058D339105E1
:1055100034F001979093E7058093E6058BCF2091B7
:105520000006309101062F3F3105ECF480916206B0
:1055300080FD09C08091FE059091FF050196909332
:10554000FF058093FE058091020690910306029666
:1055500090930306809302062F5F3F4F309301061E
:105560002093000667CF2F3F310509F063CF8330CA
:1055700091050CF45FCFCDCF8091DE05823009F02C
:1055800059CF55CF06FF4CC083E00E94A0198091EF
:10559000E6059091E7058C33910534F401969093DC
:1055A000E7058093E6054CCF209100063091010677
:1055B00022354FEF3407ECF08091620680FD09C080
:1055C0008091FE059091FF0501979093FF058093D0
:1055D000FE058091020690910306029790930306C0
:1055E0008093020621503109309301062093000672
:1055F00027CF2091A605211123CF8038910574F281
:1056000000910406015085EF9FEF9093E70580938A
:10561000E60585E00E94511F802F0E946A2410CF6A
:105620008091DE05833009F00BCF07CF0E94CF1F9A
:10563000811115CF1093D8051092D90510CF2111E3
:1056400056C087FF07C090915406992319F09150D6
:105650009093540684FF10C0CE0101960E942D2322
:1056600080915406882329F09981933629F4823059
:1056700018F48F5F80935406888D82FD1092A705E1
:1056800083FF06CF80915406813061F1E8F08230CB
:1056900009F0FECE48E9A42E45E0B42E55E6E52EED
:1056A000F12CC7010E94E936D5018D935D01BFEF52
:1056B000EB1AFB0AE6E2EE16E1E0FE0691F724E6BD
:1056C00044E661E08CE40BC0CE0101960E942D23DC
:1056D0008981833631F52FEF48E662E08AE40E9443
:1056E000301FD6CE2EEF44E562E08BE4F8CF109366
:1056F000EF0582FF04C01092A70510929A0583FF60
:10570000C7CE80915406882361F0813009F0C0CE65
:105710001092A70510929A051092A6050E9488255E
:10572000B7CE0E944C25B4CE90915506911140C53C
:1057300080919A05882321F0CE0148960E94421E4E
:10574000988D292F221F2227221F41F080919C052E
:10575000882309F43EC0815080939C0520939F05C7
:1057600021E094FD38C020E02093A00592FD109325
:10577000550693FF8DCE60919C05F4E06F9FB001BC
:1057800011246E587B4E44E050E0CE0101960E94F9
:10579000E03689818130A9F140F1823009F4AEC050
:1057A0009C818091D2058917C8F110929A058FE4E7
:1057B0008093F00582E08093E8051092EC05109349
:1057C000ED059CE49093E9051093EF058093A10506
:1057D0005FCE86E0C1CF80919C05863020F48F5F3C
:1057E00080939C05C1CF80E0FBCFEA81F0E0E052DE
:1057F000FA4F80818130A1F624E64EE562E08DE427
:105800006ECFEA81ED5FF0E0E052FA4F80818530A3
:1058100039F624E648E563E08EE461CF24E646E409
:1058200062E080E55CCF1093EF0583FF1FC06091BD
:105830009C0524E0629FB00111246E587B4E44E029
:1058400050E0CE0101960E94E03684E694E10E9489
:10585000CF1A8981882381F08130B1F08091D205FF
:105860009C81891B8093D2051093A105888D82FFAE
:105870000FCE1093A1050CCEEA81F0E0E052FA4F72
:1058800080818F5F8083EACFEA81F0E0ED51FA4FAB
:10589000F7CF9091550691118BC480919A0588237A
:1058A00021F0CE0148960E94421E988D97FF2AC093
:1058B00080919B05882321F1815080939B05109353
:1058C0009F0594FF28C080919B05843010F58F5F61
:1058D00080939B051093A00592FD1093550693FFAE
:1058E000D7CD20919B05822F90E03AE0239FF001D5
:1058F0001124E753F14EE4912430A1F480E0AAC1D1
:1059000084E0DBCF80919F058823D9F210929F0518
:10591000D8CF80E0DDCF8091A0058823E9F21092F6
:10592000A005DACF86529A4FDC018C91811109C013
:105930008091D3058E1750F424E646E462E083E5B7
:10594000CECE24E646E562E081E5C9CE10929A0506
:1059500082E58093F00582E08093E8051092EC05E3
:105960001093ED058AE48093E9051093EF0584E038
:105970002DCF1093EF0583FF22C084E694E10E94AF
:10598000CF1A80919B05A82FB0E02AE0829FF001FA
:105990001124E753F14EE491A652BA4F9C919F5FB8
:1059A0009C939091D3059E1B9093D30593E0909385
:1059B000A105909153069F3F11F480935306888D63
:1059C00082FF66CD83E002CF8091E6059091E705E6
:1059D000059759F462E080E00E94881981110CC09B
:1059E0000E94401F86E08093A10521E344EF602FD1
:1059F000888D0E949A204CCD0E94401F87E08093A2
:105A0000A10524E642E861E084E50E94301FEDCF65
:105A1000909155069111CCC390919A05973609F44F
:105A20004BC108F0DBC0953609F40BC108F022C168
:105A3000913008F06FC382FD1093550621E340E0DA
:105A4000602F0E949A20888D83FF31C08091990534
:105A500090919E05891758F528E9E22E25E0F22E4F
:105A60002CEA35E05701D5015896EC91F0E0EE5A5A
:105A7000FE4F90819F3FD9F4B4E0AB0EB11C2A15C4
:105A80003B0589F7882309F4E9C1CE0101960E94FC
:105A900053260E94B819811102C289818F3F09F0F3
:105AA00012C224E64EE561E085E50E94301F809138
:105AB00099058823E9F190919E058917C8F5A8E911
:105AC000B5E08CEA95E05896EC915897F0E0EE5AE4
:105AD000FE4F20812F3F61F514968A179B0799F797
