:100000000C94AB160C94D3160C94D3160C94D316F4
:100010000C94D3160C94D3160C94D3160C94D316BC
:100020000C94D3160C94D3160C94D7260C94462714
:100030000C94D3160C94D3160C94D3160C94D3169C
:100040000C94D3160C94FC290C94D3160C94D31650
:100050000C94D3160C94D3160C94D3160C94372905
:100060000C94D3160C94D3160C94D3160C94D3166C
:100070000C94D3160C94D3160C94D3160C94D3165C
:100080000C949C290C94D3160C94D3160C94D31670
:100090000C94D3160C94D3160C94D3160C94D3163C
:1000A0000C94D3160C94D3160C94D31600010200B2
:1000B0000000000000000001000000000102030435
:1000C000050403020511902500A18001E39025009D
:1000D000A18001E3904F913E92439337943A953E2D
:1000E00000A100A19056924A0142905292460142CC
:1000F000904F92430142905192450142904F92435A
:100100000142905192450142905292460142904FD5
:100110009143922C955100A1828500A19056914A5D
:10012000924A014290529146820142904F9143017E
:1001300042905191450142904F914301429051911B
:10014000450142905291460142904F913F92439314
:1001500037943A953F00A100A19057924B014290ED
:100160005292460142904F92430142905192450172
:1001700042904F92430142905192450142905292D7
:10018000460142904F9143922E955100A1828500E5
:10019000A19057914B924B0142905291468201425D
:1001A000904F91430142905191450142904F9143AC
:1001B0000142905191450142905291460142904F27
:1001C000913E92439337943A953E01429056924A1B
:1001D0000142905292460142904F92430142905107
:1001E00092450142904F9243014290519245014203
:1001F000905292460142904F914392518500A182C4
:1002000000A19056914A954A01429052914685012B
:1002100042904F91430142905191450142904F913C
:1002200043014290519145014290529146014290C2
:100230004F913F92439337943A953F0142905792A2
:100240004B0142905292460142904F92430142909C
:100250005192450142904F92430142905192450183
:1002600042905292460142904F914392518500A193
:100270008200A19057914B954B0142905291468537
:100280000142904F91430142905191450142904F5C
:100290009143014290519145014290529146014251
:1002A000904D9141933594399541923C014290573C
:1002B000914B850142905491480142904D914101EA
:1002C00042904F9143003C83000682000D8400F170
:1002D000904D9141011A9243000D933C001A904FAA
:1002E0009143005E83000D818200BC92450006931D
:1002F0003C0014901891519445004382838400F18E
:10030000924180000693350006901D914D944D95C5
:100310004100A100A19157954B8284012781001AC9
:10032000915495480142914D954100358385000DCA
:10033000000600F8914F95430142914D95410127E8
:100340009243001A914F95430050828500E49245F4
:10035000000D9151954500288285010C80000D907B
:10036000249230933391379452954600A1850285AB
:100370008000A1902401429022952E03268000A1A6
:10038000902200A18400508500509020952C94511B
:1003900000A18400A18000A1902001428000A190D2
:1003A0002001429020050A9020078F942400289471
:1003B000270028942B0028943000289433820028AA
:1003C0009437830028943C810028943F002894436C
:1003D000002894480028944B0028944F00289454F7
:1003E00000289456002894570028945B0028901FFA
:1003F000913A92439346954A944A0050818283846D
:10040000850050901F913A92439346954A944A0032
:100410005081828384850050901F913A9243934685
:10042000954A94460050818283848500508001E380
:10043000901F913A92439346954A944A0050818284
:10044000838485005000A1800028901D913992413D
:1004500093459548944500508182838485005000DF
:100460005000C98001E3901D0142901F913E9243CC
:10047000934A944F953700A100A19456014294529B
:10048000902A0028818200788000A1901F944F91CB
:100490002C922300A180818200A1901F9451912A67
:1004A000922300A1912C922800A1944F953E912C6B
:1004B00092280028830078818200A1901A9451919B
:1004C0002B953C922E93280050912E005091328211
:1004D00083005091370050901D9452913A953A9272
:1004E0002A932300280028913E850050914382835F
:1004F000005091460050901F944F914A922C9323A4
:100500000050810050828300A19456913E002881C2
:10051000011A9452922A9328913E9543002881858E
:100520000078914680828300A1901F944F922C9373
:10053000239146002881007880828300A1901F9437
:10054000519139922A9328953E0028850078922C63
:10055000932800A1944F9137922C9328953E002820
:10056000850078901A828300A1901D9451922E9359
:100570002800A1828300A1901F9452922A93239570
:100580003E00288500288000509022828300508001
:1005900000509024923F944F932C952300A1838583
:1005A00000A19457932A00A18300A19452932C9503
:1005B0002800288200788385005080005090249481
:1005C0004F932A952300A180838500A19024945104
:1005D000932C952300A1932C8500A1944F913E93D9
:1005E0002A923F9543002882850078901F8300A1BE
:1005F0009451912B923C932E95280050912E0050AF
:10060000902191338385005091370050902294526D
:10061000913A923A9323953F0028850028913F8292
:100620000050914395468300509146005090249489
:100630004F914B932A9223954600288500288100EC
:1006400050828300A19457922C953F002885007812
:100650008200A19452922A9328953F90439146009C
:10066000288081850078828300A19024944F922C69
:10067000932300A180828300A19024945191399208
:100680002A9328953F00288500789024922C93285F
:1006900000A19024944F9137922A953F93430028CC
:1006A0008385007893468200288300789451922EA7
:1006B0009323952800A182838500A19452922893C8
:1006C0003F9543002883850078922800A1901D91D2
:1006D0004192459348944D953500A100A19457004F
:1006E0002882007800A19454922A002881830078FF
:1006F0008200A19018944D922C91230050800050BC
:10070000901B912C8200A1901D944F912A9223005E
:10071000A1912C8200A1944D953C912C923C934147
:10072000002882838500788100A1944F912D953A0D
:10073000922A9328005091300050913582830050C6
:100740009139005090189451913C9539922E9323F1
:10075000002800289141800050901B914582830021
:100760005091480021002F901D944D914D924D9332
:100770002A005081828400508300A19157932C005D
:10078000A18300A19154932A9228943C00288400CC
:1007900078944580828300A1901D914D922C9323E3
:1007A0008400A1922C9445830028840078914F9571
:1007B00037922A93238000A1901D922C83005080B1
:1007C0000050901D914D9535922C9328944100280E
:1007D00084007882830028810078914F922A9328A0
:1007E00000A19228830050800050901F9151922EBA
:1007F000932894410050800050902282838400A16D
:100800009124923093339437953C001480008D00EE
:10081000A1902C00A1902C00A1902E00500050809F
:100820008100A19124902A00A18000A19122902C06
:1008300000A18000A1902A00A1902C00A1902E0080
:10084000500050808100A19122903300A1808183CB
:10085000009A902300069120923093339437953C70
:10086000009A8000068300A1818284850028007898
:100870009120923093339437953C903F00A100A192
:100880008081850035006B9120903C953F005000A1
:1008900050009A00069120903C953F001A003500C8
:1008A000490006046200068082838485009A01E381
:1008B000902C00A18001E39023922C0006912093BC
:1008C0003094339537009A808201E3902C00A18008
:1008D00000A88384850142911F93439446954A90D2
:1008E00043924600508082838485001A81003591AE
:1008F0001F93439446954A904A92430050808283C6
:100900008485001A810035911F93439446954A903F
:1009100043924A00508082838485001A8100359179
:100920001F93439446954A9043924A005080828395
:100930008485001A810035911F93439446954A900F
:100940004A924300508082838485001A8100359149
:100950001F93439446954A904A924300288082838D
:1009600084850028001A810035911D933C9441959F
:10097000459048924100508283848500508000A1B8
:100980008101E393480142934A01429028009A80F2
:1009900000A8933A944B9028009380000D902B0070
:1009A0008D800014E0602800009F9191800E91914D
:1009B0008E801F91110E009E151511000A00000077
:1009C0009F898917001E959511009F11118E001F98
:1009D00095959E000F10909F809E11159D80900808
:1009E0008681801F048A918001021C8281000F9001
:1009F000909F001F090916001E09091F001F010111
:100A00001E00000000000000404F484A4E404F4288
:100A100042404048454245484045404040404040B3
:100A20004F4848474047484847404748484F404F4D
:100A3000484A4E4040404F484848404F44444F4049
:100A40004F40404F404F40404F4047484847404F3D
:100A500040404F4040404040404040404040404087
:100A60004040404040400000DF5100DE45459E00D0
:100A700051DF00000000DF45458200DF505090004C
:100A80009E45459E00875844830040C0401F115139
:100A9000CE40111F9140409E05C55E405F06061F77
:100AA000000E11110E001F02041F001F11110E0075
:100AB00012151509000000000000000000000000F1
:100AC0000000000000000000F7144067F5F56240E8
:100AD00014F7000000002751519000F72141F60063
:100AE000F71111E70003A40402E01017E000F0245E
:100AF00047F400E01314E402F0571505F450100019
:100B000000000000000000000000000000000000E5
:100B100000000000000000000000000000000000D5
:100B200000000000000000007D4510307D7D301089
:100B3000457D0000000039454528007D14146900FA
:100B40007D5545007C444438007C01057C04014807
:100B500054552400010100000100000001000000C4
:100B60000000000000000000000000000000000085
:100B70000000000000000000000000000000000075
:100B8000000000000000005818E0E0F0F0F0F0F085
:100B9000F0F0F0E08000E0F0F8F8F0000080C0E055
:100BA000E0F0F0F0C000E0E0F0F0F0E000E0F0F0A5
:100BB000E00080C0E0E0E0E0E0C0C08060F0F0F085
:100BC000F0E00080E0F0F0E00070F0F0F0F0E0E045
:100BD000C000C0C0E0E0E0F0F0F0F0E0C0000000D5
:100BE0000003FFFFFFFFC1C1E3F3FFFFFFFF7C0135
:100BF000FFFF3FC0FEFFFFE7E3F1FFFFFF3CC3FF46
:100C0000FF7FBFCFBFFFFFFFFF807FFFFFC783C313
:100C1000FFFFFF3FC0FFFFFFFFFFF8C7FFFF1FE31E
:100C2000F9FCFFC7C3E3FFFFFF7F007F7F7979F8FF
:100C3000F0F1F1F1F0E000000000030F0F0F0707E3
:100C40000707030101000F0F0F03000F0F01000042
:100C500000070F0F07080F0F0700070300070F0F0C
:100C60000F0700070F0F0F0F0F07010E0F0F0701E0
:100C7000060F0F0F07010C0F0F0F0F0707030301DC
:100C800001060F0F0F0E0E0F0F0F0F0703000000CE
:100C9000005818E020101010101010101060800084
:100CA000E0100808F0000080402020101030C00044
:100CB000E020101010E000E01010E0008040202044
:100CC0002020204040806090101010E000806010D4
:100CD00010E00070901010102020C000C0402020B4
:100CE000209090101020C00000000003FE00003E85
:100CF000414122120C0000837C01FEC03FC03E0136
:100D000098A4A2910F00C33CC33C8040B0C8B1403E
:100D100000007F807F80384482423C00C03FC03F5B
:100D200000000007380700E01CE219043B4442229F
:100D30001C00807F007F474949881011111110E085
:100D400000000000030C0808040404040201010070
:100D50000F090E03000F0E01000000060908070826
:100D60000F0807000703000708080807000708081E
:100D700008080806010E0908060106080808060109
:100D80000C0B0A0A09050402020101060909090AF5
:100D90000A09080808040300000000303030303031
:100DA0003030303030003030393130303142303056
:100DB0000036413830303030384136003841383034
:100DC00032323038413800384138303232303841F0
:100DD000380036413830303030384136003030421B
:100DE0003130303139303000303030303030303028
:100DF0003030003046323236363232393000303020
:100E00004545454545453030003030303838383874
:100E10003030300030303030313130303030003030
:100E200030303031313030303000303030383838D8
:100E3000383030300030304545454545453030008C
:100E40003039323236363232463000393130303095
:100E5000303030453400423130303030303045456C
:100E600000323333333330303043340032323235B2
:100E70003530303043430032323235353030304156
:100E80003400323333333330303041410044313079
:100E9000303030303038340046313030303030305F
:100EA0003838003730303030303030303700423171
:100EB0003030303030303143004144313030303028
:100EC00031414300414332323030323241430041FC
:100ED00043323230303232414300414331303030DE
:100EE0003031424300413130303030303031440015
:100EF00037303030303030303037003232353045F6
:100F000033363446340032323330453330303030CB
:100F10000032323330453330303030003333333009
:100F20004533303838380030303030453330434383
:100F300043003131303045333031313100393130D7
:100F4000304533303130300044313030303530319D
:100F500030300030303130303030313030003030EF
:100F60004130303030453030003141413642463634
:100F7000454531003030303232323230303000309E
:100F8000303032323232303030003545453646422C
:100F9000364141340030304530303030413030005F
:100FA0003030313030303031303000454530303243
:100FB0003230304545003036413030303041363007
:100FC0000030304231303031463030003230303055
:100FD000303030303032003230303030303030303D
:100FE000320030304631303031423030003036451A
:100FF00030303030453630004141303032323030E0
:1010000041410042413030454530303031003537C4
:1010100030304539303030310030303030454530B7
:10102000303031003233323332303030303600330A
:1010300032333233303030303600303030303838C0
:1010400030303031003437303038463030303100D5
:101050004141303038383030303100363230303085
:10106000303030323600323730413131453037326E
:10107000003030304139443530303000303141417A
:10108000303045453130003031383830304343312D
:101090003000303030344246433030300032373068
:1010A0003831314330373200363230303030303042
:1010B000323600303030303032364343300030305A
:1010C00030303241384338390030303032413843E3
:1010D000384331003030324138433843313000300A
:1010E000324136433843313030003241384338439F
:1010F00031303030004243433843313030303000FB
:1011000030434437313030303030003631303030D9
:1011100030303031360031303030323230303031F2
:1011200000303030394545453030300030303245C0
:1011300030303832303000303032453030383230B4
:1011400030003030303838384630303000313030D0
:1011500030323230303031003631303030303030B3
:1011600031360031303030313530303031003030D0
:10117000303046353030303000303030303541306E
:10118000303030003145453432323138393800356D
:101190004545453232343134380030303030314119
:1011A0003030303000303030304234303030300089
:1011B000313030304141303030310030303030303B
:1011C000303030303000303030303232303030304B
:1011D000003030303146453130303000303031442D
:1011E000434343313030003031424141414141318C
:1011F00030003639454545383838383700364543AC
:1012000041303041434536003032323030303032B8
:10121000323000303030303230383043300030300F
:1012200030303031303830430036303030303031CB
:1012300030383000303930303030303130380043E1
:1012400030313030303030443000304330313030A5
:1012500030303036003830433031303030303000CC
:101260003038304330323030303000364545303061
:101270003030414136004545303032323030414126
:101280000045303039313144303041003030323275
:101290003030313130300030303131303032323076
:1012A0003000433030423131463030380043433033
:1012B0003032323030383800364343303030303816
:1012C000383600323232433030303838460032322D
:1012D000323330303036363600333333333030301B
:1012E0004141410045454545304343434339004270
:1012F00038384530433030303000383838453043A6
:1013000030313131004545454530433031303000D2
:1013100036363645304430313030003630304530A6
:1013200030304530360030303045303030453037A1
:1013300000333333463131314430410032323232BE
:1013400030303032304100323232323030303230B0
:101350004100323232443131314630410030303593
:101360004330303043304100423035433030304339
:101370003436004545303039443030414100453045
:10138000303232323230304100453030313030315D
:10139000303041003030373030303036303000308F
:1013A000303630303030373030004330303130304C
:1013B0003130303800433030323232323030380061
:1013C00043433030424630303838003038383231DC
:1013D00031324545300045454530303030383838B9
:1013E0000032393030303030304632003131303038
:1013F000303030303136003631303030303030310E
:101400003100324630303030303039320038383800
:101410003030303045454500304545323131323885
:1014200038300030304130303030433030003041DF
:10143000413630303743433000323030343030348E
:1014400030303200323041423131444330320032A8
:101450003041423131444330320032303035303067
:101460003530303200304141373030364343300080
:101470003030413030303043303000383830383858
:1014800043433043430038323046323242303243F5
:1014900000303030303030303030300038313030A3
:1014A000363730303143004131303037363030312B
:1014B0004500303030303030303030300041323064
:1014C00044323239303245004141304141454530A6
:1014D000454500363030303030303030360037302F
:1014E000303031393030303700363030303832300B
:1014F0003030360037303030313830303037003629
:1015000030303038323030303600373030303138EB
:10151000303030370036303030383230303036000E
:1015200037303030303030303030003030373830D5
:101530003038373030003638303039433030433689
:101540000030304545303043453030003643303090
:101550004431303043360030304531303031433063
:10156000300036453030314630303236003030379A
:10157000453030373830300036323030323230306B
:101580003236003236323846383632363200303073
:101590003030303030303030003137364144413334
:1015A000333333003030303030303030303000338F
:1015B000333333434243363731003030303030300C
:1015C000303030300031373645394533333333002E
:1015D0003030303030303030303000314545303010
:1015E00030303846430030313835303038444330BD
:1015F0000030303136323236433030003030303225
:1016000032323230303000303030323232323030FC
:1016100030003030313632323638303000303141FF
:101620004130303438383000314241303030303998
:1016300038380030454230303030314132003045AA
:101640003130303030464132003045363030303085
:1016500031413200304531303030303641320030A7
:101660004542303030303141320030453130303059
:101670003046413200304536303030303141320072
:10168000304531303030303641320042443631302E
:101690003730304132003131453030433030413223
:1016A000003030453030433030413200303045304A
:1016B00030433030413200303045303043303041FB
:1016C0003200303045303043303041320030304528
:1016D00030304330304132003130373030313646EF
:1016E0004132003130303037324630303800373018
:1016F00030303632393030450036303030373246CF
:1017000030303800373030303632393030450036FE
:1017100030303037324630303800373030303632C3
:1017200039303045003630303037324630303800CE
:1017300037303030303030303036003030304136B5
:1017400033303030330030333030333030333041A9
:1017500000303033303730334133410033323233AD
:101760003633414141410042323233363331313137
:1017700031003033333037303331333100303330B0
:101780003033303033303100303030313633303078
:101790003033003030303830303132394200303080
:1017A0003038303030323434003030313530303051
:1017B0003231310034383838303030323030003067
:1017C0003031383030303230300030303042413516
:1017D000414135410030303041303030303031001F
:1017E000303030353030303031340030303030301F
:1017F0003030303030003030313131313131303013
:1018000000303038364141364130300030303841D8
:1018100032323841303000303038413232384130A5
:1018200030003030383638383641303000303039DA
:1018300031313131423030003030303030303030C2
:1018400030300032303035303031303034003230EA
:1018500030333030313030360032303036303031A5
:1018600030303300323030333030313030360032C7
:101870003030363030313030330032303033303089
:1018800031303036003230303630303030303300A6
:101890003230303330303030303600303042313159
:1018A0003131313030003030454531414141303007
:1018B0000030303131314431463030003030453144
:1018C0003232313130300030304531323231413016
:1018D000300030304531313131313938003030313C
:1018E0004145434145383800303031414543414559
:1018F00038380030303245454141323030003045D3
:1019000039313030314441300045453130303030AC
:1019100031414100323130303637303031320032EF
:1019200031303037363030313200434331303030AF
:1019300030313838003043423130303146383000B1
:101940003030324343383832303000303046313076
:10195000303642303000413032363030313230456E
:1019600000433030303030303030380041303038A3
:1019700045414330304500413030414338453030F7
:101980004500433030303030303030380041303274
:101990003130303632304500303044363030313935
:1019A000303000303030304638303032320045315F
:1019B000303031383030323200453930303030312B
:1019C0003830300030304536303037383030003045
:1019D00030453730303638303000303045313030F7
:1019E0003030463800323230304531303031380016
:1019F00032323030453930303030003630313030EE
:101A000030303130320032304330313130433032D7
:101A100000323041304141304130320036303030D8
:101A2000414430303037003730303042433030308E
:101A3000360032304130434330413032003230439F
:101A400030313130433032003230313030303031AB
:101A5000303600324330304238303045460043346F
:101A6000303038353030343100303045313030327C
:101A70004530300030304532303043313030003680
:101A80004530304132303034360035383030324134
:101A90003030383800303043353030344130300069
:101AA0003030443130303935303000304545383011
:101AB00030434141300030314538303043413130DE
:101AC0000030303030303030303030003239303665
:101AD00030303130443200324230313030363046EE
:101AE0003200303030303030303030300030314340
:101AF0004130304538313000304343413030453893
:101B00003830004530303041303030323000303500
:101B100030313039304330410030304530303041A1
:101B200030303000303130363031304630430032E2
:101B300030303032303030383000303630313044B0
:101B400030313036003030383030303830303000DE
:101B5000303230423034303630310031353131328C
:101B6000324530303000313838463232453030304E
:101B70000031383834323245303030003138383185
:101B80003232453030300035353131313139303055
:101B90003000343845454545453030300030303030
:101BA0003030303030303100303030303030303064
:101BB0003134003032303041303032303000323069
:101BC0003035303034303630003030313030413024
:101BD0003030320030353030463030423030004125
:101BE00030304130304530313000303036303045E3
:101BF0003030304500313030343030313045300015
:101C000030323030373030453030003130304530D0
:101C100030453030320030363030313830304230BC
:101C200000323030433030313030320030443030E8
:101C300041313030363000323030313030413030A8
:101C400032003036303031433030393000323030CD
:101C50003830303830303100304630304531303077
:101C600036300032323031303035303030003230C2
:101C70003130304130303036003031303036303075
:101C8000304130003130304130303042303000307F
:101C90003042303030413030310030413030303639
:101CA0003030313000363030304130303130320079
:101CB0003030303430303130323200304343304312
:101CC00045303030300030453230434530303030F0
:101CD000003032443031313036373000303132303C
:101CE00031313043303000303045304345303231CF
:101CF00030003037363043453043323000303030FA
:101D000030434530324630003030303031313045AC
:101D100045300032303030414130303032004645BD
:101D2000303043313030414100303435304336308B
:101D300031343000303045324141324330300030B0
:101D40003045453445454330300030434330313130
:101D50003044373000313530304245303031350095
:101D6000323030303643303030320030304245305F
:101D70003045453030003030444130304143303020
:101D80000030304641303043413030003030313661
:101D9000303036313030003631303041373030314C
:101DA00036004543303041413030434500454330F3
:101DB0003032323030434500323230303131303021
:101DC000323200323130303630303130300032365D
:101DD00030303130303630300032313030454341F0
:101DE0004543410032313030443030313030003200
:101DF0004230303130304630300032454341454387
:101E00004131303000323630303130303630300011
:101E100032313030363030313030003831303031DE
:101E2000383030434100384630303435303044416A
:101E300000353530303636303034310030303232E3
:101E400030303232303000303032323030323230B6
:101E500030003534303036363030343100434230A3
:101E60003034353030394500433130303143303053
:101E70004545004338433843384338433800383009
:101E8000304430303130304300433030313030393D
:101E90003030380031313132323236303043003177
:101EA0003030363232324541450036303031303014
:101EB0004230303100313030463030313030310056
:101EC0004541454145414541454100373032303279
:101ED0000037333833310037334332310037333052
:101EE0003231004235383331003331383331003745
:101EF0003338303200423536323200333438333101
:101F000000423538333100423545303200423536F3
:101F10003232003730383331004235383331004205
:101F200032303231004235383331003733363231D6
:101F300000463130323100423245303200383037DD
:101F400032310046313230320042353833310037D9
:101F50003341313200423538333100373345303187
:101F600000373034313200463443323100373034B8
:101F700031310033343230320037303230320042C7
:101F8000353833310042353233310033313230327B
:101F9000004631343132004631323331003035447D
:101FA0003231003331363232004631383331003786
:101FB000303032310038333830320042353230324E
:101FC0000034343632320031353333310037303873
:101FD0003331004634343131003933323032003756
:101FE0003038333100373038333100373332333221
:101FF00000333132333100480F00FC020202C222AA
:102000009292B2026212F252521202221212F21290
:10201000120A020202026212F252B202026212F2C8
:1020200052521202022212D2B2F2026212F21212C0
:10203000E2026212628262120202C232020202FCF6
:1020400000001F202020212A2A27202022232222AC
:102050002221202022232220202020202020222371
:1020600022202126282A2322222221202222212046
:10207000202320222322222221202828262120203A
:10208000202220202020201F00480F00FC020202F6
:10209000C2229292B2022212D2B2F2026212D23260
:1020A000C242A26212126212F252521202020202E0
:1020B0000202C2221212E2026212F20282621A02C8
:1020C0006212F2525212026212F252B20202020280
:1020D00002FC00001F202020212A2A272022222162
:1020E00020202320222221202020232220202223DE
:1020F00022222221202020202020212222212020D3
:1021000020202321202020202223222222212022BD
:102110002322202126282820201F008040FEFF03A4
:10212000030303030303030303030303030303037F
:10213000030303030303030303030303030303036F
:10214000030303030303030303030303030303035F
:10215000030303030303030303030303030303034F
:10216000030303030303030303030303030303033F
:10217000030303030303030303030303030303FF33
:10218000FE00000000000000000000000000000051
:1021900000000000000000000000000000FFFF0041
:1021A000000000000000000000000000000000002F
:1021B000000000000000000000000000000000001F
:1021C000000000000000000000000000000000000F
:1021D00000000000000000000000000000000000FF
:1021E00000000000000000000000000000000000EF
:1021F000000000000000000000000000000000FFE0
:10220000FF00F4040404048444448404C404C404A7
:1022100084040404040404040404040404FFFF000C
:1022200000000000000000000000000000000000AE
:10223000000000000000000000000000000000009E
:10224000000000000000000000000000000000008E
:10225000000000000000000000000000000000007E
:10226000000000000000000000000000000000006E
:10227000000000000000000000000000000000FF5F
:10228000FF00D75454941013959515109394931000
:1022900012901010901010909090101010FFFF00EE
:1022A000000000000000000000000000000000002E
:1022B000000000000000000000000000000000001E
:1022C000000000000000000000000000000000000E
:1022D00000000000000000000000000000000000FE
:1022E00000000000000000000000000000000000EE
:1022F000000000000000000000000000000000FFDF
:10230000FF00CFE9E9E6E0E7E8E8E7E0EFE0E0EF4B
:10231000E0E7E8E8EFE0E9EAEAE4E0E0C0FFFF0038
:1023200000000000000000000000000000000000AD
:10233000000000000000000000000000000000009D
:10234000000000000000000000000000000000008D
:10235000000000000000000000000000000000007D
:10236000000000000000000000000000000000006D
:10237000000000000000000000000000000000FF5E
:10238000FF00C425252525252525252525C5050549
:1023900005FD0505050505050505050504FFFF0007
:1023A000000000000000000000000000000000002D
:1023B000000000000000000000000000000000001D
:1023C000000000000000000000000000000000000D
:1023D00000000000000000000000000000000000FD
:1023E00000000000000000000000000000000000ED
:1023F000000000000000000000000000000000FFDE
:10240000FF0023A424A42424242424A424A320A05F
:1024100020BF20A020A020A020A020A020FFFF00FF
:1024200000000000000000000000000000000000AC
:10243000000000000000000000000000000000009C
:10244000000000000000000000000000000000008C
:10245000000000000000000000000000000000007C
:10246000000000000000000000000000000000006C
:10247000000000000000000000000000000000FF5D
:10248000FF0055285008050A542A1120512A5502E8
:10249000112A0122552A152A45021102457FFFC043
:1024A000C0C0C0C0C0C0C0C0C0C0C0C0C0C0C0C02C
:1024B000C0C0C0C0C0C0C0C0C0C0C0C0C0C0C0C01C
:1024C000C0C0C0C0C0C0C0C0C0C0C0C0C0C0C0C00C
:1024D000C0C0C0C0C0C0C0C0C0C0C0C0C0C0C0C0FC
:1024E000C0C0C0C0C0C0C0C0C0C0C0C0C0C0C0C0EC
:1024F000C0C0C0C0C0C0C0C0C0C0C0C0C0C0C0FF9D
:102500007F00387C7C7C380000387C7C7C38000084
:10251000387C7C7C380000387C7C7C38000C0800DF
:1025200000000000000000000000001E2121212109
:102530002121212121211E1E3F3F33210000213373
:102540003F3F1E1E3F3B3F373F3F3B3F373F1E1E37
:10255000332D2D2D333B3B233B231E1E3F3F272393
:10256000252523273F3F1E1E3F33250D20200D2507
:10257000333F1E1E3B31203B3B37370123371E1EA6
:10258000212D2D2D2D2D2D2D2D211E1E212D2D2DBD
:102590002D2D213F3F3F1E1E2B352B352B352B3547
:1025A0002B351E1E2B352B352B35213F3F3F1E1E55
:1025B000213F213F21213F213F211E1E213F213F5D
:1025C0002121213F3F3F1E1E39392727393927272F
:1025D00039391E1E393927273939213F3F3F1E3FE0
:1025E0003F3F3F3F3F3F3F3F3F3F3F1E3F3F3F3F1C
:1025F0003F3F3F3F3F3F1E1E2121212121213F3FE1
:102600003F3F1E00000000003E5B4F5B3E3E6B4FB5
:102610006B3E1C3E7C3E1C183C7E3C181C577D5774
:102620001C1C5E7F5E1C00183C1800FFE7C3E7FF20
:102630000018241800FFE7DBE7FF30483A060E26B3
:1026400029792926407F050507407F05253F5A3C0B
:10265000E73C5A7F3E1C1C08081C1C3E7F14227F4E
:1026600022145F5F005F5F06097F017F0066899526
:102670006A606060606094A2FFA29408047E04080F
:1026800010207E201008082A1C08081C2A08081E92
:10269000101010100C1E0C1E0C30383E3830060E78
:1026A0003E0E06000000000000005F000000070072
:1026B0000700147F147F14242A7F2A12231308642E
:1026C0006236495620500008070300001C224100D2
:1026D0000041221C002A1C7F1C2A08083E08080012
:1026E00080703000080808080800006060002010B2
:1026F0000804023E5149453E00427F40007249496C
:1027000049462141494D331814127F10274545454C
:10271000393C4A494931412111090736494949366D
:10272000464949291E000014000000403400000002
:102730000814224114141414140041221408020134
:102740005909063E415D594E7C1211127C7F494960
:1027500049363E414141227F4141413E7F494949FD
:10276000417F090909013E414151737F0808087FF3
:1027700000417F41002040413F017F081422417FFA
:10278000404040407F021C027F7F0408107F3E4192
:1027900041413E7F090909063E4151215E7F0919E9
:1027A0002946264949493203017F01033F40404001
:1027B0003F1F2040201F3F4038403F6314081463F0
:1027C00003047804036159494D43007F41414102AC
:1027D00004081020004141417F04020102044040EE
:1027E000404040000307080020545478407F2844AC
:1027F00044383844444428384444287F3854545496
:102800001800087E090218A4A49C787F08040478A4
:1028100000447D40002040403D007F1028440000DF
:10282000417F40007C047804787C080404783844B4
:10283000444438FC1824241818242418FC7C080468
:102840000408485454542404043F44243C40402089
:102850007C1C2040201C3C4030403C442810284434
:102860004C9090907C4464544C44000836410000E5
:1028700000770000004136080002010204023C26F5
:1028800023263C1EA1A161123A4040207A385454BC
:102890005559215555794121545478412155547841
:1028A0004020545579400C1E5272123955555559D5
:1028B000395454545939555454580000457C4100FA
:1028C00002457D420001457C40F0292429F0F02892
:1028D0002528F07C545545002054547C547C0A092A
:1028E0007F4932494949323248484832324A484899
:1028F000303A4141217A3A42402078009DA0A07DA3
:1029000039444444393D4040403D3C24FF24244860
:102910007E4943662B2FFC2F2BFF0929F620C08808
:102920007E090320545479410000447D41304848D9
:102930004A32384040227A007A0A0A727D0D1931F3
:102940007D2629292F28262929292630484D40204F
:10295000380808080808080808382F10C8ACBA2F2B
:10296000102834FA00007B000008142A14222214D4
:102970002A14089500220095AA005500AAAA55AA73
:1029800055AA000000FF00101010FF00141414FFDF
:10299000001010FF00FF1010F010F0141414FC00D1
:1029A0001414F700FF0000FF00FF1414F404FC14DB
:1029B0001417101F10101F101F1414141F001010D4
:1029C00010F0000000001F101010101F1010101049
:1029D000F010000000FF101010101010101010FF69
:1029E00010000000FF140000FF00FF00001F101780
:1029F0000000FC04F414141710171414F404F40069
:102A000000FF00F714141414141414F700F714142E
:102A100014171410101F101F141414F4141010F0B5
:102A200010F000001F101F0000001F14000000FC29
:102A3000140000F010F01010FF10FF141414FF1415
:102A40001010101F00000000F010FFFFFFFFFFF04C
:102A5000F0F0F0F0FFFFFF0000000000FFFF0F0F9D
:102A60000F0F0F38444438447C2A2A3E147E020259
:102A70000606027E027E0263554941633844443CA7
:102A800004407E201E2006027E020299A5E7A59939
:102A90001C2A492A1C4C7201724C304A4D4D303070
:102AA00048784830BC625A463D3E494949007E015B
:102AB00001017E2A2A2A2A2A44445F444440514A7A
:102AC000444040444A51400000FF0103E080FF00C1
:102AD0000008086B6B083612362436060F090F06FD
:102AE000000018180000001010003040FF01010025
:102AF0001F01011E00191D1712003C3C3C3C000048
:102B000000000000000000240027002A002D0030F3
:102B10000000000000250028002B002E00310004DA
:102B200008020110408040102040804080080204CC
:102B30000180402010020110801020404020040439
:102B40000404040304050202020204030202020256
:102B5000060606060606040402020204040601151F
:102B600001260137014A015D01720188019F01B808
:102B700001D201EE010B022A024B026E029302BA4D
:102B800002E40210033F037003A403DC031704559F
:102B9000049704DD0427057505C80520067D06E0B9
:102BA000064907B8072D08A9082D09B9094D0AEAF1
:102BB0000A900B400CFA0CC00D910E6F0F5A105377
:102BC000115B1272139A14D41520178018F519800E
:102BD0001B231DDE1EB420A622B524E4263429A71B
:102BE0002B402E0031EA330037453ABC3D68414C5A
:102BF000456B49C84D68524F57805C0062101112F6
:102C000013151617181A1C1D1F21232527292C2ED2
:102C10003134373A3E4145494E52575C62686E75D1
:102C20007B838B939CA5AFB9C4D0DCE9F70000008F
:102C30000000000000000018BCFEC6C2C2C6FE3C78
:102C400000FCFEC6C2C2C6FE3C0000D8C800207010
:102C5000F8F8202000F8FCFEF67E3E3C3800F8FC38
:102C6000FEC6C2C2C6FEFC00FEFEFE0606060CFC48
:102C7000F000FCFEC6C2C20200000000000000001E
:102C80000000000000000000000000000000000E36
:102C90001F1F101010191F0E001F1F181010101DDD
:102CA0001F06001F1F0000001F1F1808000F1F1F16
:102CB0001F1E1E1E0C000F1F1F000000001F1F0004
:102CC0001F1F1F1818181C0F03001F1F10101010B3
:102CD000000000000000000000000000008D14A1B2
:102CE000C881CFD9F102AF080B000202020100092E
:102CF0000400000102020000052400100105240167
:102D000001010424020605240600010705810310C1
:102D1000004009040100020A000000070502024009
:102D200000000705830240000004030904120100AB
:102D300002EF0201404123368000010102030141FC
:102D4000726475696E6F204C4C43004142413131D1
:102D500030360000E52A11241FBECFEFDAE0DEBFD7
:102D6000CDBF11E0A0E0B1E0EEE5F2E602C00590D3
:102D70000D92A039B107D9F726E0A0E9B1E001C072
:102D80001D92A63DB207E1F716E1CBEAD6E104C0F9
:102D90002197FE010E94342ECA3AD107C9F70E943A
:102DA0001C2B0C942D310C94000080912D02089561
:102DB0009091C906982329F49091C806982381E040
:102DC00009F480E008954F925F926F927F928F9204
:102DD0009F92AF92BF92CF92DF92EF92FF920F93AA
:102DE0001F93CF93DF936C01B0E0A0E0FA0180E085
:102DF00035911591211511F48115B1F047E0410F7E
:102E0000479546954695033009F4440F439FA0012A
:102E1000249FE00DF11D259FF00D109629F0849F51
:102E2000A00DB11D859FB00D11240F3F21F4109608
:102E300002E009F001E07D01AF01C32FD0E0C6013F
:102E40008C0F9D1F009709F444C020E8C216D104DE
:102E50000CF03FC0DB01A10FB11DAB2BD1F16034F1
:102E60007105BCF53097A9F1262F2770922E23E02B
:102E7000759567952A95E1F7262F803891050CF412
:102E800073C190E89C1931E0812F877009F430E01C
:102E9000169516951695310FDB01A30FB11D1997E5
:102EA00014F038E0361BDB01B695BA2FAA27B79588
:102EB000A795AC0DBD1DC92C092C000CDD080330F5
:102EC00009F40AC1B8F4013009F4CAC0023009F4A7
:102ED00047C0DF91CF911F910F91FF90EF90DF904E
:102EE000CF90BF90AF909F908F907F906F905F90AA
:102EF0004F9008950A3F09F479C00B3F51F7822F94
:102F0000861B831730F78D0103591D4FF12CE12CDF
:102F1000E91608F098C0FA01EE0DFF1DA490B12C3F
:102F20000C2C02C0AA0CBB1C0A94E2F727FD07C0B8
:102F3000F8018081EA2DE0958E23F80180839920A5
:102F400049F027303CF4F801E058FF4FB0948081FD
:102F50008B218083FFEFEF1AFF0A0F5F1F4FD8CF3F
:102F600066246A94712C092C02C0660C771C0A94A2
:102F7000E2F760947094572C822F861B831708F019
:102F8000A8CF8D0103591D4FF12CE12CE91618F53E
:102F9000FA01EE0DFF1DA490B12C0C2C02C0AA0C5E
:102FA000BB1C0A94E2F727FD05C0F8018081862149
:102FB0008A298083992049F027303CF4F801E058B1
:102FC000FF4F808185218B298083FFEFEF1AFF0A55
:102FD0000F5F1F4FDBCF4C0F5D1FA058BF4F2F5F00
:102FE000CBCF4C0F5D1FA058BF4F2F5F822F861B8A
:102FF000831708F06ECF8D0103591D4FF12CE12C82
:10300000E91678F7FA01EE0DFF1DA490B12C0C2CF7
:1030100002C0AA0CBB1C0A94E2F727FD04C0F80109
:1030200080818A298083992041F0273034F4F80187
:10303000E058FF4F80818B298083FFEFEF1AFF0A52
:103040000F5F1F4FDDCF4C0F5D1FA058BF4F2F5F8D
:1030500056CF4C0F5D1FEC0EFD1EA058BF4F2F5FCB
:10306000822F861B831708F034CF8D0103591D4F23
:10307000B12CA12CA91668F7F701EA0DFB1D64908D
:10308000712C0C2C02C0660C771C0A94E2F7609439
:103090007094FA01EA0DFB1D4490512C0C2C02C0D7
:1030A000440C551C0A94E2F727FD05C0F801808105
:1030B000862184298083992049F027303CF4F80147
:1030C000E058FF4F8081872185298083FFEFAF1A69
:1030D000BF0A0F5F1F4FCECF092F10E0A359BD4F7E
:1030E00040E850E0401B510BC01BD10B8E01000F7C
:1030F000111FC1E0D0E07E01092C01C0EE0C0A9442
:10310000EAF7292F892ECF93DF93ED01EF96EF9603
:103110002296A590C590992059F0AE9C5001CE9C66
:10312000600167302CF4F880D094FD20FB28F992E0
:1031300066233AF0FC90C094FC20FA28FD920C948F
:10314000A21811962A9529F73A9551F0282D6395E2
:103150001124E00FF11DA40FB11DC40FD11DD9CF53
:10316000DF91CF911124B5CE932F8DCE0F9302E036
:1031700020E00E94E3160F91089590E0EDE6F2E062
:1031800091119FEF8FEF9193919391939193815030
:10319000D0F70895EDE6F2E030EB20E146E05C98F0
:1031A0003EBD4A95F1F72EBD20E8239507C0449116
:1031B00040815C9A4EBD8111412D419344912A95E5
:1031C000B1F73395383B49F70DB40895FC01809170
:1031D0006C02882311F13FB7F89482E08093E900F4
:1031E0002091F200822F90E01816190614F481E065
:1031F00090E0882339F0289844E640936B02409190
:10320000F1004083222339F02091F200211103C004
:103210002BE62093E8003FBF08958FEF9FEF0895BE
:103220002FB7F89483E08093E9009091E800892F0C
:10323000807295FF04C09091F20080E4891B2FBF3B
:1032400008958091630281110DC082E080935F0236
:1032500084E080936002109262021092610281E029
:10326000809363028FE592E00895CF93DF931F92DE
:10327000CDB7DEB76983DC01ED91FC910280F3816B
:10328000E02D41E050E0BE016F5F7F4F09950F9048
:10329000DF91CF91089583E08093E9008091F2005F
:1032A000882319F08AE38093E80008950E9410199A
:1032B00090E00895CF93DF931F92CDB7DEB7FC0166
:1032C0008485958597FD08C02FEF3FEF35872487CC
:1032D0000F90DF91CF910895CE0101960E94E618DC
:1032E000019719F4898190E0F3CF8FEF9FEFF0CF32
:1032F0000F931F93CF93DF931F92CDB7DEB78C014F
:10330000FC018485958597FF0BC0CE0101960E9434
:10331000E618019771F4898190E0F8019587848718
:10332000F801848595850F90DF91CF911F910F91C2
:1033300008958FEF9FEFF1CFFC018485958597FD70
:103340000BC09FB7F89482E08093E9008091F2006F
:103350009FBF90E0019608959FB7F89482E0809314
:10336000E9008091F2009FBF90E0089540915902DA
:1033700050915A0220915702309158024217530738
:10338000B4F49091E8009570E1F39091E80092FD1B
:1033900019C08093F1008091590290915A020196D0
:1033A0008F739927892B19F48EEF8093E800809111
:1033B000590290915A02019690935A0280935902B1
:1033C00081E0089580E00895DF92EF92FF920F93DD
:1033D0001F93CF93DF93D82E8A01EB017B01E40E7C
:1033E000F51ECE15DF0559F0D7FE12C0FE018491FF
:1033F0000E94B61921968111F4CF0FEF1FEFC8017B
:10340000DF91CF911F910F91FF90EF90DF90089582
:103410008881EECF0F931F93CF93DF931F92CDB789
:10342000DEB782E0898342E450E067EE7CE280E828
:103430000E94E4190E942119DC0112960D911C9141
:103440000115110589F0D801ED91FC910280F381FD
:10345000E02DBE016F5F7F4FC801099597FD04C045
:10346000F80100851185ECCF89810F90DF91CF9114
:103470001F910F910895615030F02091F100FC01EF
:1034800020830196F8CF289884E680936B020895F4
:10349000AF92BF92CF92DF92EF92FF920F931F9362
:1034A000CF93DF936C017B018B01040F151FEB01A0
:1034B0005E01AE18BF08C017D10759F06991D60157
:1034C000ED91FC910190F081E02DC6010995892BC9
:1034D00079F7C501DF91CF911F910F91FF90EF9088
:1034E000DF90CF90BF90AF900895FC010E940C1B1D
:1034F000319728F068517C4F8F4F9F4FF9CFAB0128
:10350000FC010E940C1B641775078E079F07C8F308
:1035100008958F929F92AF92BF92CF92DF92EF92D7
:10352000FF920F931F93CF93DF936C017B018A016E
:1035300080910D01882309F45AC080916C02882380
:1035400009F455C080915E0280FF05C08091E000C3
:1035500082608093E000E801B12C8AEFA82E93E00E
:10356000892E2AE3922E209711F4BB20C9F10E94E4
:103570001019811108C0AA94AA20C9F181E090E035
:103580000E94751AF0CF8C171D0611F00CF08C2FCD
:103590009FB7F8948092E9002091E80025FD02C0D1
:1035A0009FBFE1CF282F30E0C21BD30BF701815022
:1035B00020F041914093F100FACFE20EF31EBB20C0
:1035C00021F09092E800B12CEBCF8091E80085FDCE
:1035D000E7CF9092E800BB24B394209709F3F3CF90
:1035E0005D9884E680935D02101611063CF081E040
:1035F00090E0F6019383828310E000E0C801DF9140
:10360000CF911F910F91FF90EF90DF90CF90BF90DF
:10361000AF909F908F900895AFE4B2E02FB7F894E9
:103620007D918D919C9166B52FBFA89B05C06F3F82
:1036300018F47F5F8F4F9F4F22E0660F771F881F20
:10364000991F2A95D1F70895CF92DF92EF92FF92BA
:103650001F93CF93DF93E82FF0E0EE5EFE4F1081D3
:10366000E62FF0E0603398F5E350F44DE491CE2F6F
:10367000D0E0F12CE12C60E074E284EF90E0A7014F
:103680009E010E94BD2D215031094109510991E04F
:103690002115310581E0480751056CF060E970EDB6
:1036A00083E090E0A7019E010E94BD2D21503109C9
:1036B0004109510993E0113089F0133039F1DF915C
:1036C000CF911F91FF90EF90DF90CF900895EE0F74
:1036D000FF1FE350F54DC591D491CBCF80914A02A5
:1036E0008111EDCF80918100887F892B80938100AB
:1036F00030938900209388001092850010928400F6
:1037000080916F00826080936F00D9CF809191008B
:10371000887F892B809391003093990020939800A3
:103720001092950010929400D0934902C0934802E1
:1037300081E08093470280917100826080937100E4
:10374000BECFE82FF0E0EE5EFE4F8081813019F0B1
:103750008330A9F0089580914A0281110FC08091B1
:103760006F008D7F80936F0080913802E091360268
:10377000F09137029081809589238083089510927B
:103780004702809146028111F9CF80914402E09175
:103790004202F0914302EECFCF93DF93D1E0E0916C
:1037A0003402F0913502AF014F5F5F4F5093350205
:1037B000409334022491822F807FC22FCF708038B3
:1037C00021F48C2F0E94A11BEACF803919F5E091DA
:1037D000BD06F091BE0609958D2780934502E091C4
:1037E0003402F0913502CF01019690933502809317
:1037F0003402649180913102C81788F6C13021F4F7
:10380000809130028111CBCF67FDC9CF8C2F0E94F0
:10381000241BC5CF87FD3CC03296F0933502E09360
:103820003402FA014491A0914802B0914902322F2A
:10383000242F0E94112E6C507E4F8F4F9F4F28EEE9
:1038400033E040E050E00E94EF2D20933D023093A2
:103850003E0240933F025093400280913D0290917E
:103860003E02A0913F02B0914002892B8A2B8B2B04
:1038700061F481E090E0A0E0B0E080933D0290939D
:103880003E02A0933F02B0934002DF91CF91089592
:10389000803E49F480913202909133029093350238
:1038A000809334027CCF803F09F079CF109241029F
:1038B000ECCF90913102923009F471C0292F30E0A1
:1038C000F901EE5EFE4F4081225D3D4FF90180839C
:1038D000913031F420912E02281302C090933002CF
:1038E0009F5F9093310290E0FC01E25CF44D2491E3
:1038F000815E944DFC01849130E0220F331FF90169
:10390000EF5EF44D65917491F901ED5FF44DA59171
:10391000B4919C91982B9C93413019F04330D9F08D
:10392000089590916400977F9093640010928000B6
:103930001092810090918100986090938100909105
:1039400081009160909381007093370260933602FA
:1039500080933802089590916500977F9093650059
:103960001092900010929100909191009860909325
:103970009100909191009160909391007093430217
:10398000609342028093440280913102882321F0A7
:103990006CE380E00E94241B80E00C94A11B08953E
:1039A0002D9A08950C94751A0E94942908951092E6
:1039B0002D023E98579808953E9A579A81E0809339
:1039C0002D02089520E191E061FD94E060FD990FE2
:1039D00062FD9295687F269FD0011124A80FA359FC
:1039E000BD4F8C9140FF03C0892B8C930895909517
:1039F0008923FBCF8F929F92AF92BF92CF92DF929B
:103A0000EF92FF920F93CF93DF935B01EC014C0198
:103A1000840E911C6B01C20ED11CC815D905ECF4A3
:103A20007501B7FE02C0F12CE12CC60121E4C216DB
:103A3000D10414F080E490E0E816F90664F4C0388C
:103A4000D10528F4402FB701CE010E94E21C8FEF70
:103A5000E81AF80AEACF2196E0CFDF91CF910F91D3
:103A6000FF90EF90DF90CF90BF90AF909F908F909E
:103A700008952F923F924F925F926F927F928F9212
:103A80009F92AF92BF92CF92DF92EF92FF920F93ED
:103A90001F93CF93DF93CDB7DEB728970FB6F89477
:103AA000DEBF0FBECDBF9E838D836A3061F5DC0122
:103AB00055968C91B8E08B9F90011124ED81FE8189
:103AC00081899289820F931F928B818B108A17862E
:103AD00081E090E028960FB6F894DEBF0FBECDBF10
:103AE000DF91CF911F910F91FF90EF90DF90CF90DA
:103AF000BF90AF909F908F907F906F905F904F900E
:103B00003F902F9008956D3019F32D813E813887B5
:103B10002F83D9011F960D911C91509700381105E4
:103B20000CF07CC05196AD90BC90B0E4AB16B104E3
:103B30000CF074C0F901258825E0C801229E800D93
:103B4000911D1124181619060CF068C0622C712CF6
:103B5000C30133E0880F991F3A95E1F78A0D9B1D49
:103B6000181619060CF05AC0F489FB83AF81B8858A
:103B70005396BC91BC83629FB0011124FB01ED5FA1
:103B8000F94D2F011982F2018491F981F53009F480
:103B900080E0450128E02A83A82FB0E0BE83AD83F2
:103BA0003C8080FF3B80311004C0BB81EC81BE179C
:103BB000F9F078018E2D801B8215D0F4D12CC12C08
:103BC000C21490F4F0E8EF16F10450F4B601680D59
:103BD000791D6034710520F4432DC7010E94E21C59
:103BE0002FEFC21AD20AECCF3FEFE31AF30AE2CF6B
:103BF0008D819E81959587959A8191509A83860CA7
:103C0000971C9111C9CFA981AF5FA983BFEF4B1A50
:103C10005B0A060D171DA63009F0B5CFEF81F885B8
:103C20002589422F50E087859089F6E02F9F800DEF
:103C3000911D1124AF81B88550969C938E931F9748
:103C400056962C915697222309F442CF6AEF6403CB
:103C50009001659F300D112420583F4F28173907D8
:103C60000CF036CFED91FC9111970190F081E02D91
:103C70006AE0CD0109952CCF0895089590E080E089
:103C80000895AF92BF92CF92DF92EF92FF920F937F
:103C9000CF93DF9320912C02211164C00AEF21E021
:103CA0004DE155E265E270E085E690E00E94E316A2
:103CB00034EBC32E31E0D32EC2E0D0E0560122E037
:103CC000E22EF12C0AEFF50123854DE155E2B70113
:103CD000CE010E94E316FAE0AF0EB11C86E0E80EBA
:103CE000F11CEEE3EE16F10469F7FFEFCF1ADF0ADD
:103CF0002C96C236D10511F7E090B201F090B301D5
:103D0000F7FE03C08FE0E80EF11C94E0F594E79411
:103D10009A95E1F7C091B001D091B101D7FD2F96EE
:103D200084E0D595C7958A95E1F7BE016350710986
:103D300001E023E045E0C7010A970E94FA1CBE019A
:103D40006450710925E043E0C70109970E94FA1CFD
:103D5000DF91CF910F91FF90EF90DF90CF90BF90C8
:103D6000AF9008952D5F220F0AEF9ACF0E940C1B8F
:103D70002091900130919101620F731FCB01880F48
:103D8000991F880F991F68277927CB01880F892FE2
:103D9000881F990B919568277927CB019695982FC5
:103DA00088279795879586279727909391018093E9
:103DB00090010895FC0101900020E9F73197AF01CF
:103DC000481B590BBC018FEB96E00C94481A0C94DD
:103DD000A72DCF92DF92FF920F931F93CF93DF9384
:103DE000CDB7DEB7CA50D1400FB6F894DEBF0FBED4
:103DF000CDBF4BE151E270E060E090E080E00E94D6
:103E0000B61841E95CE070E060E087E090E00E9475
:103E1000B6184AE051E067E87BE0CE0101960E94C7
:103E20009E2D8E010F5F1F4F6E0127EFC21A2EEFDE
:103E3000D20AF801F2800E94B61E8F21F801828317
:103E40000F5F1F4F0C151D05A1F790E080E0FE01EC
:103E50003396ADE6B2E0AC014C585D4FBF01685AF5
:103E60007F4F6F01FA013191AF018F0101501109AC
:103E7000F60121916F01232BF8012083C616D70686
:103E800089F7F60180589F4F803821E0920709F7A3
:103E900017968C911797836017968C9317971196A6
:103EA00082E0A53CB807A1F70AEF20E045EA59E017
:103EB00066E170E082E090E00E94E31688E00E94F4
:103EC000D816882389F01092A6011092A5011092AD
:103ED000A8011092A7018CE896E2909301018093CB
:103EE000000181E08093A40184E00E94D816882319
:103EF00079F081E090E09093A8018093A7018CE88D
:103F000096E2909301018093000181E08093A401E7
:103F100080E80E94D8168823A1F080912D02882382
:103F200009F449C00E94D71C10912D0282E090E054
:103F30000E94A72D181729F0612F82E090E00E94BF
:103F4000AF2D80E10E94D816882331F085EB95E2F1
:103F5000909301018093000180912D0200E025E003
:103F6000882361F14CE062E370E08EE290E00E9411
:103F7000FA1C8091410281110FC084EC90E0909373
:103F800033028093320290933502809334020E9470
:103F9000CC1B81E080934102C65FDE4F0FB6F894E0
:103FA000DEBF0FBECDBFDF91CF911F910F91FF906C
:103FB000DF90CF9008950E94DC1CB6CF49E062E309
:103FC00070E084E290E0D3CFDF92EF92FF920F9304
:103FD0001F93CF93DF93CDB7DEB72F970FB6F8942B
:103FE000DEBF0FBECDBF6091AF0126E06202B0011F
:103FF00011246553714E8E01055F1F4F45E050E05F
:10400000C8010E949E2D8C85082E000C990BC0972C
:1040100044E0880F991F4A95E1F72B85820F911D87
:1040200027FD9A95C5976CE070E00E94202E709352
:104030009D0160939C018E85082E000C990BC09702
:1040400054E0880F991F5A95E1F72D85820F911D35
:1040500027FD9A95C59766E070E00E94202E709328
:104060009B0160939A01109299011092980110920D
:1040700097011092960184EB91E043E0FC0130E05F
:1040800020E040832F5F3F4F3A962C303105C9F72F
:10409000019621E08E3B920789F7F12CE12C3BE061
:1040A000D32E8091AF0128E08202C00111248E0D31
:1040B0009F1DD89EB001D99E700D11246556724F78
:1040C0004AE050E0CE0101960E949E2D409196015B
:1040D000509197012091980130919901FE013196FC
:1040E000D701AC54BE4F8191082E000C990BBC0136
:1040F000605371096A30710508F4CB01BC01615449
:1041000071096630710508F4C7978830910509F484
:1041100059C00CF04DC08130910509F453C0823074
:10412000910509F452C01B968C931B971A960E1793
:104130001F07C9F68FEFE81AF80A509397014093CA
:104140009601309399012093980128E0E216F1043A
:1041500009F0A7CF80919A0190919B01DC01119603
:1041600020919C0130919D012F5F3F4F4F855AE078
:104170005A9FF0015B9FF00D1124EC54FE4FE20FAB
:10418000F31F60816623D9F1589FF001599FF00D0C
:104190001124EC54FE4FE20FF31F50814133C1F460
:1041A000511116C0019790939B0180939A0127C0EB
:1041B0008C30910539F08E30910521F08A309105CF
:1041C00009F0B1CF2F5F3F4FAECF4F5F5F4FABCF07
:1041D000BC016E5F7F4F1AE0169FF001179FF00D34
:1041E0001124EC54FE4FE20FF31FE081423309F03B
:1041F00056C0E11154C0B0939B01A0939A018091E5
:104200009A0190919B01019650E6589FB001599FE9
:10421000700D11245CE0529FC001539F900D11243A
:10422000039624E0880F991F2A95E1F79093B30134
:104230008093B2017093B1016093B00180EF9FEF62
:10424000413311F080E190E09093A1018093A001AF
:1042500088E690E19093AA018093A90110922C0224
:10426000109295011092940181E080939301109235
:104270009F0110929E0188E790E09093AC0180939B
:10428000AB012F960FB6F894DEBF0FBECDBFDF9106
:10429000CF911F910F91FF90EF90DF900895EE2343
:1042A00009F4A9CF552309F47DCFDC0113965AE018
:1042B0005A9FF0015B9FF00D1124EC54FE4FE20F6A
:1042C000F31FE081E11105C070939B0160939A0197
:1042D00096CFBC0161507109569FF001579FF00DB8
:1042E0001124EC54FE4FE20FF31F5081511187CF80
:1042F000029759CF2AE0269FF001279FF00D112445
:10430000EC54FE4FE80FF91FE081E150E03108F076
:1043100070C10E2E000CFF0BE057FE4D0C94342E96
:10432000A021F621C421442268228B22A622B82291
:10433000DD22E122E722E922EF22F122F722C42145
:1043400020912C02211120C02091980130919901D7
:104350002150310930939901209398012091A501B2
:104360003091A6012D5F3F4F3093A6012093A50108
:104370004AE0469F9001479F300D11242C543E4F38
:10438000820F931FDC011C92E091BD06F091BE06E6
:104390000995882341F180913102823020F181E03A
:1043A00080934A028091A40180934602809181000B
:1043B000887F8160809381008AE09EE890938900E5
:1043C0008093880087E090E0A0E0B0E0809339021D
:1043D00090933A02A0933B02B0933C0280916F000D
:1043E000826080936F0081E090E0089520919801B1
:1043F00030919901232B41F6E091A501F091A6019E
:10440000F296F093A601E093A5014AE0469F900141
:10441000479F300D11242C543E4F820F931FDC0117
:104420001C9280919601909197010197909397012A
:1044300080939601892B09F0A7CF8091A9019091D3
:10444000AA016CE370E00E94202E29E1269FC001A2
:10445000279F900D1124E80FF91FF093A601E09318
:10446000A5018091AF018F5F8093AF010E94E41F8F
:1044700084B58F7D589884BD809180008F752E9A69
:104480002D9A8093800080CF2091940130919501E6
:10449000232B09F079CF2091A5013091A601275E49
:1044A0003F4F3093A6012093A50121E030E03093E7
:1044B0009501209394014AE0469F9001479F300D5B
:1044C00011242C543E4F820F931FFC0110825CCFAD
:1044D00020919401309195012130310509F054CF9C
:1044E0002091A5013091A6012E5C3F4F3093A6018B
:1044F0002093A5014AE0469F9001479F300D11246B
:104500002C543E4F820F931FDC011C921092950198
:104510001092940139CF84B58F7D589A84BD8091D3
:1045200080008F752E982D9A809380008091AD0128
:104530009091AE0101979093AE018093AD01181652
:1045400019060CF021CF0E94E41F1ECF4AE0469FBF
:104550009001479F300D11242C543E4F820F931F22
:10456000FC011082809193018195809393010CCF7F
:1045700020912C02213009F007CF20919801309131
:1045800099012150310930939901209398014AE013
:10459000469F9001479F300D11242C543E4F820FAF
:1045A000931FDC011C928091A5019091A6010396B6
:1045B0009093A6018093A501E7CE81E080932C0221
:1045C000E3CE20912C02223009F0DECED6CF82E05D
:1045D000F5CF20912C02233009F0D6CECECF83E048
:1045E000EDCF20912C02243009F0CECEC6CF84E04E
:1045F000E5CF90E080E008958F929F92AF92BF92B6
:10460000CF92DF92EF92FF920F931F93CF93DF939E
:10461000CDB7DEB7A3970FB6F894DEBF0FBECDBF00
:104620004BE151E270E060E090E080E00E94B6185B
:104630008091AF01082E000C990B01969F938F93E8
:1046400081E491E09F938F938E010F5D1F4F1F9325
:104650000F930E94552E85E790E09093CF068093AC
:10466000CE068CE090E09093D1068093D006C801EE
:104670000E94DA1E0E94411E0F900F900F900F9023
:104680000F900F908091AD019091AE01892B09F0B0
:10469000B6C049E850E268E170E08EE090E00E9428
:1046A000B6182091A9013091AA0188E690E1821BF9
:1046B000930B68EA70E00E94202EFB0100E022E0EC
:1046C000462F6EE170E08FE790E08E1B9F0B0E94FB
:1046D000FA1C2091AD013091AE0184E090E0821B84
:1046E000930B47E0849F402D11249C0153E0220F3F
:1046F000331F5A95E1F7821B930B25E06AE370E0C4
:104700008F579F4F0E94FA1C8091A7019091A8019A
:104710008E010F5F1F4F892B09F401C285E690E0DF
:104720009093CF068093CE0682E090E09093D106DE
:104730008093D00666E471E0C8010E944E2EC80145
:104740000E94DA1E80E80E94D816882381F08091AA
:10475000A7019091A801892B51F08091AF01181603
:104760000CF0FEC181508093AF010E94E41F80E1F4
:104770000E94D816882381F08091A7019091A8010A
:10478000892B51F08091AF0181330CF0EBC18F5F29
:104790008093AF010E94E41F84E00E94D816882312
:1047A00041F089EE9EE19093010180930001109207
:1047B000A40188E00E94D816882371F08091AD0191
:1047C0009091AE01892B41F489EE9EE19093010115
:1047D000809300011092A401A3960FB6F894DEBF57
:1047E0000FBECDBFDF91CF911F910F91FF90EF9042
:1047F000DF90CF90BF90AF909F908F9008950091E1
:10480000AB011091AC0110161106ECF40150110926
:104810001093AC010093AB0147EF5FE168E170E0FA
:104820008EE090E00E94B618012B09F03ACF84B5D3
:104830008F7D589A84BD809180008F752E9A2D9A15
:10484000809380002ECF8091A9019091AA01181623
:1048500019062CF401979093AA018093A9010E9454
:10486000D41C0091A2011091A30186FF89C088E1A8
:1048700090E00115110509F4B2C017FF0CC0C80182
:10488000019797FDC80195958795081B190B109303
:10489000A3010093A201E090B001F090B1018091DA
:1048A000A0019091A101E80EF91E8091B2019091B2
:1048B000B3018090A2019090A301880E991EC701B8
:1048C00060E670E00E94202E5B01C40160EC70E0A5
:1048D0000E94202E6B01B501C6010E947A218C0135
:1048E000C40197FC0F96A4E095958795AA95E1F7EA
:1048F00005966CE070E00E94202E4B01B501C401CA
:104900000E947A215C01F7FE03C08FE0E80EF11CE3
:1049100064E0F594E7946A95E1F7C701049666E0D0
:1049200070E00E94202E7B01C4010E947A214C017C
:10493000B701C6010E947A21000F111F0A0D1B1D2D
:10494000000F111F080D191D000F111F800F911F5F
:10495000FC013197EE30F10508F074C0EE54FB4DC8
:104960000C94342EF4245225012548255C256F250E
:104970005C250B257C255C255C2518255C255C25A4
:104980000E94D41C85FF0DC088EE9FEF0115110514
:1049900031F10CF480CFC801019697FF74CF0196D6
:1049A00072CF1016110664F4C801019697FD0196A6
:1049B00095958795081B190B1093A3010093A201ED
:1049C0008091A2019091A30197FF65CF9C01215096
:1049D000310937FD9C0135952795821B930B9093E8
:1049E000A3018093A20157CF2091A2013091A3018E
:1049F00037FF03C03195219531093093A3012093EE
:104A0000A2012091A0013091A10137FF64C031952E
:104A10002195310960C02091A2013091A30137FF97
:104A200003C03195219531093093A3012093A20150
:104A30002091A0013091A10137FD4DC03093A1011B
:104A40002093A001009719F00F9709F060C0109211
:104A50009F0110929E018091B2019091B30120912B
:104A6000A2013091A301820F931F9093B301809311
:104A7000B2018091B0019091B1012091A0013091DB
:104A8000A101820F931F9093B1018093B00109CED1
:104A90002091A2013091A30137FFC3CF3195219519
:104AA0003109BFCF2091A2013091A30137FFA2CFDE
:104AB0003195219531099ECF2091A2013091A3011A
:104AC0003195219531093093A3012093A2012091C2
:104AD000A0013091A101319521953109AFCF2091ED
:104AE000A2013091A30137FF03C03195219531090F
:104AF00031952195310906C02091A2013091A30181
:104B000037FDF6CF3093A3012093A2019BCF809174
:104B10009E0190919F01892B09F4C3CD9CCF89E61A
:104B200090E09093CF068093CE0682E090E0909341
:104B3000D1068093D0068091A6018F938091A50124
:104B40008F938BE491E09F938F931F930F930E9419
:104B5000552E0F900F900F900F900F900F90EFCD5C
:104B600081E301CE1092AF0115CECF92DF92FF927A
:104B70000F931F93CF93DF93CDB7DEB7CA50D140C9
:104B80000FB6F894DEBF0FBECDBF0E94BD181092C5
:104B9000D1061092D0061092CF061092CE068091C8
:104BA000C60680FD05C0809192018F5F80939201BF
:104BB00080919201883010F010929201E091920160
:104BC000F0E0E454FF4F649170E041E95CE084E17F
:104BD00090E00E94B6184AE051E067E87BE0CE0121
:104BE00001960E949E2D8E010F5F1F4F6E0127EFD1
:104BF000C21A2EEFD20AD8011296FC900E94B61E5D
:104C00008F21F80182830F5F1F4F0C151D0599F747
:104C100090E080E0FE0133968C010F571D4FAF01ED
:104C2000485A5F4FD8013D918D01BD016150710916
:104C30002191232BDB012C93E417F50799F780587A
:104C40009F4F8038B1E09B0739F788E00E94D81663
:104C5000182F84E00E94D816182B80E80E94D816DE
:104C6000182B80E10E94D816111102C0882331F060
:104C700089EE9EE1909301018093000104E010E031
:104C80001093CF060093CE0680E290E09093D10679
:104C90008093D00680E591E00E94DA1E1093CF0643
:104CA0000093CE0688E290E09093D1068093D006E0
:104CB00085E691E00E94DA1E1093CF060093CE069F
:104CC00082E390E09093D1068093D0068AE791E04A
:104CD0000E94DA1E8091410281110FC084EC90E0A5
:104CE0009093330280933202909335028093340282
:104CF0000E94CC1B81E080934102C65FDE4F0FB65D
:104D0000F894DEBF0FBECDBFDF91CF911F910F9101
:104D1000FF90DF90CF9008950F931F93CF93DF9371
:104D2000809164008E7F8093640080917A0080641B
:104D300080937A0080917A0086FDFCCFC091780044
:104D4000D09179000E940C1BAB01BC01CE01B0E0F8
:104D5000A0E0DC01992788278C019D01040F151F15
:104D6000261F371FC901B8012091640021602093DC
:104D70006400611571058105910511F00E94952D62
:104D800084E090E09093AE018093AD011092AF016A
:104D90000E94E41F0E94411E8CEF92E29093010159
:104DA00080930001DF91CF911F910F9108951F9281
:104DB0000F920FB60F9211248F939F938091E10071
:104DC0009091E100937F9093E10083FF0FC01092D8
:104DD000E90091E09093EB001092EC0092E3909345
:104DE000ED0010926C0298E09093F00082FF22C0D8
:104DF00093E09093E9009091F200992319F09AE3DF
:104E00009093E80090915D02992341F090915D02AA
:104E1000915090935D02911101C05D9A90916B0247
:104E2000992341F090916B02915090936B029111F4
:104E300001C0289A84FF18C08091E2008E7E8160B4
:104E40008093E2008091E1008F7E8093E100809169
:104E50005E028E7E806180935E029F918F910F90A3
:104E60000FBE0F901F90189580FFF7CF8091E20042
:104E70008E7E80618093E2008091E1008E7E80933F
:104E8000E10080915E028E7E8160E5CF1F920F92DD
:104E90000FB60F921124CF92DF92EF92FF920F93F1
:104EA0001F932F933F934F935F936F937F938F93B2
:104EB0009F93AF93BF93EF93FF93CF93DF93CDB7C0
:104EC000DEB76C97DEBFCDBF1092E9008091E8009D
:104ED00083FF25C068E0CE0145960E943B1A82EF11
:104EE0008093E8008D8987FF39C09091E80090FF9A
:104EF000FCCF982F907609F034C19E894F89588D48
:104F00002F89F88C911131C0803861F580915C0255
:104F10008093F1001092F1008EEF8093E8006C9680
:104F20000FB6F894DEBF0FBECDBFDF91CF91FF91DA
:104F3000EF91BF91AF919F918F917F916F915F9111
:104F40004F913F912F911F910F91FF90EF90DF9024
:104F5000CF900F900FBE0F901F9018959EEF9093DB
:104F6000E800C7CF1092F100D5CF913059F48111EC
:104F7000D3CF4130510581F680915C028D7F8093C3
:104F80005C02CACF933049F48111C6CF413051053C
:104F900019F680915C028260F2CF953041F48091E5
:104FA000E80080FFFCCF20682093E300B5CF963067
:104FB00009F0A9C00B8D1C8D22E01092E90010921F
:104FC0005A0210925902F2122EC0109258021092F8
:104FD00057020E940A1A1F8299E09983FA8291E08F
:104FE0009E8390EA98879AEF998720915902309191
:104FF0005A02275F3F4F3C832B838D831092E90039
:1050000010925A02109259021093580200935702BC
:1050100049E050E0BE016F5F7F4F80E00E94E419DD
:105020000E940A1A79CF10935802009357020E94E7
:105030002119DC0112960D911C910115110509F43D
:1050400010C1D801ED91FC910480F581E02DBE01E5
:105050006B5E7F4FC8010995009709F0FDC0F8010C
:1050600000851185EACFF3E0FF120EC08F898823F7
:1050700009F440C0823061F440E867E08BE49DE2CF
:105080000E946D2A811148CF81E28093EB0047CFC7
:10509000813029F440E86BE08FE39DE2F1CF83306B
:1050A00099F70E942119DC011296ED90FC908E0177
:1050B0000F5F1F4F6801E114F10479F0D701ED9102
:1050C000FC910680F781E02DB801C7010995080F12
:1050D000111DF701E084F184EECFD8011C92F60196
:1050E00001900020E9F73197BF016C197D0940E07C
:1050F000C601C6CF69E27DE2FB01449150E080E841
:105100000E94E41909CF973009F4BECF983021F4FA
:1051100081E08093F10000CF993009F0FDCE8370DB
:1051200009F0B2CFE5E1F1E081E031E096E32191D1
:10513000222371F08093E9003093EB00DF01119797
:105140002C912093EC009093ED008F5F873079F7DE
:105150008EE78093EA001092EA008F8980936C02B8
:10516000DBCE8B8D9C8D1092E90010925A0210922A
:1051700059029093580280935702898D811151C032
:105180008E899D89913A49F4813209F07DCF47E0BB
:1051900050E066E071E080E0B3CF913209F074CF67
:1051A000833269F48F89988DB0E0A0E0809302018A
:1051B00090930301A0930401B0930501ADCE80321A
:1051C00069F48091E80082FFFCCF67E086E091E01F
:1051D0000E943B1A8BEF8093E8009ECE823209F04A
:1051E0009BCE8F8980930D018091060190910701DC
:1051F000A0910801B0910901803B9440A105B1053F
:1052000069F480910D0180FD09C088E780935B02FD
:10521000809164008F7D809364007ECE10925B024B
:105220007BCE0E942119DC0112960D911C91011573
:10523000110509F429CFD801ED91FC910190F0817D
:10524000E02DBE016B5E7F4FC8010995811164CED0
:10525000F80100851185EBCF181619060CF45CCE09
:1052600013CFF1E0FF12FFCE6DE27DE245CF0F9349
:105270000FB70F931F9211248F939F93EF93FF9378
:10528000E3E5F2E080914E0291E08D5F8D3710F002
:105290008D57939580934E028081890F80839181F1
:1052A000911D91830281011D02838381811D83836E
:1052B00009270F700927029500934D0235D08111FF
:1052C00000934B02803989F400914C02901B963078
:1052D00070F087E7809300088093010888E198E0E8
:1052E0008093600090936000FFCF90934C02809178
:1052F0005B02815018F080935B0259F3EFE4F2E017
:105300008081918101968083918382819381811D27
:10531000911D82839383FF91EF919F918F911F90B5
:105320000F910FBF0F9118958FB18095807F669B6D
:1053300088601C9B846008951F920F920FB60F9295
:1053400011242F933F934F935F936F937F938F938A
:105350009F93AF93BF93EF93FF938091470288236E
:1053600089F08091460281110DC080914502811122
:1053700009C090914402E0914202F0914302808181
:105380008927808380914102882329F180913D0201
:1053900090913E02A0913F02B0914002892B8A2B4E
:1053A0008B2BC9F080913D0290913E02A0913F026B
:1053B000B09140020197A109B10980933D029093F9
:1053C0003E02A0933F02B0934002892B8A2B8B2B85
:1053D00011F40E94CC1BFF91EF91BF91AF919F916F
:1053E0008F917F916F915F914F913F912F910F908E
:1053F0000FBE0F901F9018951F920F920FB60F922D
:1054000011248F939F93AF93BF93EF93FF9380915A
:105410004A02882309F454C08091390290913A02DB
:10542000A0913B02B0913C02892B8A2B8B2BA1F1DE
:1054300090913802E0913602F091370280818927FD
:1054400080838091390290913A02A0913B02B09101
:105450003C02181619061A061B069CF480913902A4
:1054600090913A02A0913B02B0913C020197A109B0
:10547000B1098093390290933A02A0933B02B09312
:105480003C02FF91EF91BF91AF919F918F910F904F
:105490000FBE0F901F9018951092460210924A026C
:1054A00080916F008D7F80936F0080913802E09132
:1054B0003602F09137029081809589238083E1CF75
:1054C000809145028111DDCF90913802E091360242
:1054D000F091370280818927F1CFEF92FF920F93ED
:1054E0001F93CF93DF93F82E192FE62E042F81E020
:1054F000860F880F0E94B61983E00E94B619CF2D3F
:10550000D12FEC0EFD2EF11CCE15DF05B9F007FFF3
:1055100013C0FE0184910E94B619182F80E00E94EA
:10552000B619812321968111EFCFDF91CF911F9181
:105530000F91FF90EF9008958881EDCF81E0F5CF36
:105540000F931F93CF93DF938C0181E090E00E9433
:10555000E71E80FF32C08AE090E00E94E71E9FEFC6
:10556000980F9E3F50F522E330E0D80150963C93CF
:105570002E931F9728E330E052963C932E93519739
:10558000CBE0D0E0D801ED91FC910190F081E02DCD
:10559000682FC8010995CE010E94E71E2196C131EE
:1055A000D10581F780E00E94CA1888EE93E0DF9170
:1055B000CF911F910F910C94D21CDF91CF911F912D
:1055C0000F91089504970C94A02AEDE6F6E013825B
:1055D000128288EE93E0A0E0B0E084839583A683F6
:1055E000B7838FE191E0918380838FEF9FEF958761
:1055F0008487EFEBF6E0138212821186128680E137
:10560000838710861782158681E391E091838083DA
:105610008FE391E095838483108A1786128A118A1A
:1056200081E0838B148A858B168A85ED96E19093B1
:10563000BE068093BD060895789483E084BD83E020
:1056400085BD81E080936E00E1E8F0E083E0808337
:10565000E0E881E08083E1E983E08083E0E981E0C4
:105660008083E1EC87E08083E3EC81E08083E0EC01
:1056700082E08083E2EC81E08083EAE787E0808358
:105680008068808310926C0210925C0210925E021D
:105690008091D70081608093D70080EA8093D80002
:1056A00089B5806189BD89B5826089BD09B400FE74
:1056B000FDCF81E090E00E94751A8091D8008F7C28
:1056C00080618093D8008091E000807F8093E0002B
:1056D0008091E1008E7E8093E1008DE08093E20076
:1056E000559A209A81EC80937C0081E785B987E602
:1056F00084B985E38BB98FE38AB9769A6E9880EF87
:1057000081BB10BA80E58CBD81E08DBD85E090E065
:105710000E94D21C599902C0599AF8CF5C98EDEDBD
:10572000FCE29AE085918EBD00000DB407FEFDCF2E
:105730008EB59A95B9F75C9A81E88093640081E010
:10574000809365000E94CA180E94D41C87FF11C074
:105750005C9885EA8EBD00000DB407FEFDCF8EB5C6
:105760005C9A2E9858982D9881E083BF889513BE37
:10577000FCCF0E94D41C82FF48C02D980E94D41CEC
:1057800084788438E1F40E94D01C88EC90E00E9478
:10579000D21C589882E090E00E94A72D8F3F29F0FC
:1057A0006FEF82E090E00E94AF2D84EF91E00E94C5
:1057B000D21C589A0E94D41C84788438D9F30E9451
:1057C000D41C84718431E1F40E94D01C88EC90E0F8
:1057D0000E94D21C2E9882E090E00E94A72D882380
:1057E00029F060E082E090E00E94AF2D84EF91E02C
:1057F0000E94D21C2E9A0E94D41C84718431D9F349
:1058000088EC90E00E94D21CB4CF0E94D01C82E0B1
:1058100090E00E94E71E882309F44DC00E94DC1C22
:1058200081E090E00E94E71E182F147081FF0CC0E9
:1058300011112E98C0EFDFEF0E94D41C86FF3EC0EE
:105840002E9A589A0E94D01C82E390E00E94D21CAB
:105850000E94D41C8111F8CF80E18093CA0681E0B8
:105860008093D4060E94BD181092D1061092D006E3
:105870001092CF061092CE0685E00E94591C86E059
:105880000E94591C11E0C0E0D0E001E09091530269
:105890008091CB06F92FF81B8F2F2091CC06222365
:1058A00009F47EC0F093CD061092CC06209771F3D8
:1058B0000E940000EBCF0E94D71CB2CF112329F029
:1058C000C430D10511F42E9A589881E00E94CA186C
:1058D0000C2F0770A02EAE0183E0559547958A9551
:1058E000E1F7CA019695982F882797958795835950
:1058F0009D4F70E060E04E3F2FEF520769F130E0BE
:1059000020E0DB01A35DB34D7C01E0E8EE0EF11C6D
:10591000FD01E20FF31FE491F0E04F010A2C02C0F9
:10592000880C991C0A94E2F74F3F540739F06C0138
:10593000C20ED31EF601B488B828B48AAA2039F062
:105940006701C20ED31EF60104890929048B2F5F5B
:105950003F4F28353105E1F64F5F5F4F80589F4F2D
:10596000685A7F4F603B710531F680E00E94CA188B
:105970008FE090E00E94D21C2196C931D10509F038
:105980005BCF112311F0589A2D9880E991E00E9485
:10599000D21C0E94D01C8FEB96E00E94A02A54CF0C
:1059A0002091CA06F21740F48F5F821708F07ECF6D
:1059B00013BF889513BE7ACF0093CC069093CB0685
:1059C0008091C6069091C70601969093C706809372
:1059D000C6068091C8068093C9060E94D41C809395
:1059E000C806E0910001F0910101099580E00E9454
:1059F000CA185CCF8F929F92AF92BF92CF92DF92E4
:105A0000EF92FF92CF93DF93EC01688179818A81D5
:105A10009B81611571058105910521F464E279EDA1
:105A20008BE597E02DE133EF41E050E00E94BD2D82
:105A300049015A019B01AC01A7EAB1E40E94DC2DA7
:105A40006B017C01ACEEB4EFA50194010E94EA2D3C
:105A5000C60ED71EE81EF91EF7FE06C081E0C81A62
:105A6000D108E10880E8F80AC882D982EA82FB827C
:105A7000C701B6019F77DF91CF91FF90EF90DF9044
:105A8000CF90BF90AF909F908F9008958F929F92EC
:105A9000AF92BF92CF92DF92EF92FF9260910E0190
:105AA00070910F01809110019091110161157105A4
:105AB0008105910521F464E279ED8BE597E02DE114
:105AC00033EF41E050E00E94BD2D49015A019B0196
:105AD000AC01A7EAB1E40E94DC2D6B017C01ACEEC5
