:100000000C94DD060C9405070C9405070C94050769
:100010000C9405070C9405070C9405070C94050730
:100020000C9405070C9405070C94F2150C946116BA
:100030000C9405070C9405070C9405070C94050710
:100040000C9405070C9405070C9405070C94050700
:100050000C9405070C9405070C9405070C94521892
:100060000C9405070C9405070C9405070C940507E0
:100070000C9405070C9405070C9405070C940507D0
:100080000C94B7180C9405070C9405070C940507FD
:100090000C9405070C9405070C9405070C940507B0
:1000A0000C9405070C9405070C9405070800000044
:1000B000BE922449123EABAAAA2ABECDCCCC4C3E5D
:1000C00000000080BEABAAAAAA3E00000000BF004C
:1000D0000000803F0000000000084178D3BB438748
:1000E000D1133D190E3CC3BD4282AD2B3E68EC825C
:1000F00076BED98FE1A93E4C80EFFFBE01C4FF7FE1
:100100003F00000000000000C0410000C0410000AE
:100110007042000000420000984200005C4206036A
:100120000F0F07030F06E0E0EE0EEEE0E00060D0F8
:10013000F66D7FD6F06080E098869EF8E08070C80B
:10014000E4F4F4F4F870000000000000000018343B
:100150006EEEEE6E34187EFFC1F5F5FDFF7E6CFE8F
:10016000B97B7FB9FA6C2070D8FCDCF850202050A5
:10017000F8DCFCD8702024243C7E6666BD9999BDCD
:1001800066667E3C242410287CAA7C28100020B0BF
:10019000A8F8F8B8BC1E1EBCB8F8F8A8B0201C32ED
:1001A000797D7F7F3E1C3C72F9FDFFFF7E3C1C7613
:1001B0006AF776EB763C3C76EB76F76A361C1C26C3
:1001C0007B5D773E2A551C267B5D773E552A552A56
:1001D0003E775D7B261C2A553E775D7B261C0040C2
:1001E00062186C181408340A54AC60B100000200A4
:1001F000451A3D04AA041029142A160D42100000C5
:1002000030D868ECF85CDCE87CD8F0200000000016
:100210000B143F2936173B1F2F121E0B0000306CAA
:1002200074BA6A7E4C300101010101010101010132
:100230000101000000001088FE7D7DFE8810000096
:100240000000003E5B4F5B3E3E6B4F6B3E1C3E7CB6
:100250003E1C183C7E3C181C577D571C1C5E7F5E64
:100260001C00183C1800FFE7C3E7FF001824180023
:10027000FFE7DBE7FF30483A060E262979292640BA
:100280007F050507407F05253F5A3CE73C5A7F3EE6
:100290001C1C08081C1C3E7F14227F22145F5F0078
:1002A0005F5F06097F017F006689956A6060606014
:1002B0006094A2FFA29408047E040810207E2010FF
:1002C00008082A1C08081C2A08081E101010100C08
:1002D0001E0C1E0C30383E3830060E3E0E06000056
:1002E00000000000005F00000007000700147F14FA
:1002F0007F14242A7F2A1223130864623649562069
:10030000500008070300001C2241000041221C008D
:100310002A1C7F1C2A08083E08080080703000084C
:1003200008080808000060600020100804023E5120
:1003300049453E00427F40007249494946214149B2
:100340004D331814127F1027454545393C4A494919
:100350003141211109073649494936464949291E83
:100360000000140000004034000000081422411472
:1003700014141414004122140802015909063E41C4
:100380005D594E7C1211127C7F494949363E4141EC
:1003900041227F4141413E7F494949417F09090945
:1003A000013E414151737F0808087F00417F4100B1
:1003B0002040413F017F081422417F404040407F60
:1003C000021C027F7F0408107F3E4141413E7F09AD
:1003D0000909063E4151215E7F09192946264949EE
:1003E000493203017F01033F4040403F1F2040202E
:1003F0001F3F4038403F631408146303047804032C
:100400006159494D43007F414141020408102000D9
:100410004141417F0402010204404040404000034A
:1004200007080020545478407F2844443838444416
:100430004428384444287F385454541800087E090E
:100440000218A4A49C787F0804047800447D40002E
:100450002040403D007F1028440000417F40007C48
:10046000047804787C080404783844444438FC1840
:1004700024241818242418FC7C0804040848545424
:10048000542404043F44243C4040207C1C20402051
:100490001C3C4030403C44281028444C9090907CB8
:1004A0004464544C440008364100000077000000CA
:1004B0004136080002010204023C2623263C1EA10C
:1004C000A161123A4040207A38545455592155556B
:1004D000794121545478412155547840205455791C
:1004E000400C1E52721239555555593954545459AD
:1004F00039555454580000457C410002457D420066
:1005000001457C40F0292429F0F0282528F07C546E
:100510005545002054547C547C0A097F493249498E
:1005200049323248484832324A4848303A414121FB
:100530007A3A42402078009DA0A07D394444443955
:100540003D4040403D3C24FF2424487E4943662BE7
:100550002FFC2F2BFF0929F620C0887E0903205489
:100560005479410000447D413048484A3238404087
:10057000227A007A0A0A727D0D19317D2629292FE7
:1005800028262929292630484D40203808080808FF
:1005900008080808382F10C8ACBA2F102834FA0001
:1005A000007B000008142A142222142A1408950043
:1005B000220095AA005500AAAA55AA55AA00000033
:1005C000FF00101010FF00141414FF001010FF00A3
:1005D000FF1010F010F0141414FC001414F700FFB6
:1005E0000000FF00FF1414F404FC141417101F1073
:1005F000101F101F1414141F00101010F000000022
:10060000001F101010101F10101010F0100000002C
:10061000FF101010101010101010FF10000000FF3D
:10062000140000FF00FF00001F10170000FC04F47E
:1006300014141710171414F404F40000FF00F71436
:10064000141414141414F700F714141417141010BD
:100650001F101F141414F4141010F010F000001FD9
:10066000101F0000001F14000000FC140000F01018
:10067000F01010FF10FF141414FF141010101F00BE
:10068000000000F010FFFFFFFFFFF0F0F0F0F0FFC0
:10069000FFFF0000000000FFFF0F0F0F0F0F384497
:1006A0004438447C2A2A3E147E02020606027E0258
:1006B0007E0263554941633844443C04407E201E19
:1006C0002006027E020299A5E7A5991C2A492A1C48
:1006D0004C7201724C304A4D4D303048784830BC35
:1006E000625A463D3E494949007E0101017E2A2A5F
:1006F0002A2A2A44445F444440514A444040444AE0
:1007000051400000FF0103E080FF000008086B6B10
:10071000083612362436060F090F06000018180096
:1007200000001010003040FF0101001F01011E00F9
:10073000191D1712003C3C3C3C000000000000006A
:100740000000250028002B002E00310004040404C2
:100750000403040502020202040302020202060666
:10076000060606060404020202040404080201103C
:1007700040804010204080408008020401804020DA
:1007800010020110801020404020000000020009EB
:100790000F0000030401000C000000000000000036
:1007A0000000000000000000008D14A1C881CFD916
:1007B000F102AF0000000000000000000018BCFEC5
:1007C000C6C2C2C6FE3C00FCFEC6C2C2C6FE3C009B
:1007D00000D8C8002070F8F8202000F8FCFEF67E53
:1007E0003E3C3800F8FCFEC6C2C2C6FEFC00FEFE5F
:1007F000FE0606060CFCF000FCFEC6C2C2020000AB
:1008000000000000000000000000000000000000E8
:1008100000000000000E1F1F101010191F0E001FF7
:100820001F181010101D1F06001F1F0000001F1FA3
:100830001808000F1F1F1F1E1E1E0C000F1F1F0079
:100840000000001F1F001F1F1F1818181C0F030097
:100850001F1F10101010000000000000000000001A
:100860000000000000000000000000000000000088
:100870000000000007FFFFFFFFFFFFFFFFFFFFFF7C
:10088000FFF0000007FFFFFFFFFFFFFFFFFFFFFF7D
:10089000FFF0000007C00B40170007C007F8017801
:1008A0000170000007400FC01F800BA007F401F883
:1008B0000370100007400FC017800BA005F801F867
:1008C00003F0000007400FC03F800BA007E801E8DD
:1008D00006F0000007400FC03F800BA007F001E8C2
:1008E00007F00000071863C00F1043A007C001E81D
:1008F00021F0800007FFFF7FF3EF9F9FFDDFFF6F79
:10090000DFF0800007E85F4007E03FC001C00178EA
:100910001FF0000007EFDF7FF7CF9F9FFDBFFF6F46
:10092000DFF0000087E85F4007E03FC00D800178FE
:100930001FF0040007F87FC3F3D05FA07B0081E8BD
:100940003FF0000007407FC03FD05FA0BE81E1E8DC
:1009500005F0000007407FC00FD05FA0BF02E1E8B4
:1009600003F0000007407FC01FD05FA0BD03E1E897
:1009700002F0000007407FC017D05FA0BE07E1E88B
:1009800001F00000073FDFBFFFDFDFBFB9F5DEFF8B
:10099000FE70200007007F0003C01F8038038078AE
:1009A0000070000807FFFFFFFFFFFFFFFFFFFFFFD3
:1009B000FFF0000007FFFFFFFFFFFFFFFFFFFFFF4C
:1009C000FFF0000000000000000000000000000038
:1009D0000000040000000000000000000000000013
:1009E00000004000000000000000002000000000A7
:1009F00000000000000000080008000000020001E4
:100A00000000000000000010000000000000004096
:100A100000000000400200100400C000030070004D
:100A200001030000000004080000C0020700D80114
:100A3000E005000000000A000001608007809800C7
:100A4000700D80000000040001C360001B813407AA
:100A5000B409840000800000034260003AE22C07E1
:100A60007431800001C0000005CCD000D9F42A0701
:100A70007461400003E0000209D8B81F35E82B83F9
:100A8000E603C00806E0300015E0BFE0257427C08B
:100A90000603A00005D0580025E0AE0044F42781ED
:100AA000EA03600009B09C00E5F09F0044B4228B8B
:100AB0002E02F0001159160385F09700846A218BED
:100AC0002A03F8FF9FFF9FF9FFCFFE7F9F9F9F9C08
:100AD0002E0058FF9FFF9FF9FFCFFE7F9F9F9F83B0
:100AE000DA002C00425C0B8005EE2686043C0001F7
:100AF000DE007C00824E0DC004F715C0083B081FC5
:100B0000BC087601822F07E0047F83E0082F041FD2
:100B10009408DD01042F83F0043F41F0102D841868
:100B20002A08FF02083781F8021FC1DC102EC2001C
:100B30003E09D7061817C0FE021FE0BF0017C338D2
:100B400000001704101BA07F010BE04EC00BE13822
:100B50002A040B08210FD03FC187F037F00DD000D9
:100B600044041F084109F81FB083F8197807F800FA
:100B700014041F104105F80FFC40FC069602F80013
:100B8000280434106102FC07EE207F01FD8174000F
:100B9000028462202101BA027BA07F80FE40BA005D
:100BA000140441602100DD01FEE07FC03FB07E1CE7
:100BB0000004004021105FC07FF82BE01DD83D01EC
:100BC0000004208041102DE01FE426F01EFC0FC021
:100BD0008004208081082EF007BE1F680F7E0770FA
:100BE00040082001020816F8076E0FBC06B30098F3
:100BF0002308400204080B7C13B303940148C06629
:100C00000180440400000BEE09DF006600CFF031E4
:100C100080408400000000F70C2B80330067181F11
:100C2000C0B0840000000012061C400DC013000478
:100C30006008840000000008020C0000000D0000A5
:100C40003C060000000000000100000000068000DB
:100C50000003000000000000000000000000000091
:100C60000000000C3A56BC5AAC360C147EA876DC58
:100C7000B65A14FF1F407F7F401FFFE38E39FFFFEE
:100C8000388CE3C0B04CFFFF0C30C0CFF0DF3A3FF0
:100C9000DFFFCFFA0DFAADFAFDFAFF80F088F7FF1B
:100CA000F8F080FC423F1C0F7FF00F0000FF24DBB8
:100CB000FF00FF0000F8D6FFFF02FCFF1F647B7BF4
:100CC000641FFFE0F00FFFFF0FF0E000006E6F6F9A
:100CD0006E0000426F7E0DAD46B85F426F7E0D4DD7
:100CE000A6589F426F7E0D2D46985F5FB846AD0DAA
:100CF0007E6F429F58A64D0D7E6F425F98462D0D28
:100D00007E6F4282C3E23D3DB6D89F0283C2FDBDE5
:100D1000E6D81F020382DDDD06181F00800ADADE36
:100D20008C70F89FD8B63D3DE2C3821FD8E6BDFD6A
:100D3000C283021F1806DDDD820302F8708CDEDA42
:100D40000A80000204030705020B0303080B0002DC
:100D50000202010009040000010202000005240053
:100D600010010524010101042402060524060001E6
:100D70000705810310004009040100020A00000079
:100D8000070502024000000705830240000004033B
:100D9000090412010002EF020140412336800001E4
:100DA0000102030141726475696E6F204C4C43006F
:100DB00041424131313036008F1911241FBECFEF2F
:100DC000DAE0DEBFCDBF11E0A0E0B1E0ECEAF1E691
:100DD00002C005900D92AC3AB107D9F728E0ACEA11
:100DE000B1E001C01D92A032B207E1F716E0CDEDEF
:100DF000D6E004C02197FE010E94CE30CC3DD10741
:100E0000C9F70E94D0190C94D4300C940000809142
:100E1000C2010895E5EAF3E030EB20E146E05C989A
:100E20003EBD4A95F1F72EBD20E8239507C04491B9
:100E300040815C9A4EBD8111412D419344912A9588
:100E4000B1F73395383B49F70DB4089580E00C9421
:100E50000A0790E0E5EAF3E091119FEF8FEF91939D
:100E60009193919391938150D0F7E9E0F8E0128A41
:100E7000118A108A178608954F925F926F927F921F
:100E80008F929F92AF92BF92CF92DF92EF92FF929A
:100E90000F931F93CF93DF9330E0F901E80FF91F11
:100EA000F7FD77C0803891050CF073C0602E712C6F
:100EB000F301E60FF71FF7FD6CC0603471050CF00D
:100EC00068C0E62FE7705E2EE3E075946794EA95BC
:100ED000E1F7F3E075956795FA95E1F7062E000CBA
:100EE000770BDB01B695BA2FAA27B795A795A80F60
:100EF000B91FAB55BC4FEA01F12CE12C6701C60EBE
:100F0000D71E48E0C416D1040CF043C0EFEFCE1654
:100F1000DE06A4F18C0150E040E04D01E0E88E0EC9
:100F2000911C17FD21C0FA01EC0FFD1FA490B12CFC
:100F3000052C02C0AA0CBB1C0A94E2F7EFEFCE16F8
:100F4000DE06C1F1FD01E40FF51F40804A28408212
:100F5000552051F0E7E0CE16D10431F0F401E40F52
:100F6000F51FA080BA28B0824F5F5F4F0F5F1F4F01
:100F7000421753071CF40038110599F64FEFE41A95
:100F8000F40AA058BF4FC20FD31F6E147F0409F09C
:100F9000B5CFDF91CF911F910F91FF90EF90DF9030
:100FA000CF90BF90AF909F908F907F906F905F9009
:100FB0004F9008955110D2CFD7CF662301F16138F9
:100FC00008F060E8AC014770552721E001C0220F0E
:100FD0004A95EAF7FC0183E0F595E7958A95E1F7F4
:100FE000F695FE2FEE27F795E795EB55FC4F6150F0
:100FF00030F08191DF011197822B8C93F8CF089507
:10100000FC018091A403882311F13FB7F89482E09A
:101010008093E9002091F200822F90E018161906C3
:1010200014F481E090E0882339F0289844E6409356
:10103000A3034091F1004083222339F02091F20074
:10104000211103C02BE62093E8003FBF08958FEFE6
:101050009FEF08952FB7F89483E08093E900909173
:10106000E800892F807295FF04C09091F20080E41F
:10107000891B2FBF089580919B0381110DC082E0D1
:101080008093970384E08093980310929A031092C0
:10109000990381E080939B0387E993E00895CF93C0
:1010A000DF931F92CDB7DEB76983DC01ED91FC9130
:1010B0000280F381E02D41E050E0BE016F5F7F4F81
:1010C00009950F90DF91CF91089583E08093E90017
:1010D0008091F200882319F08AE38093E800089554
:1010E0000E942A0890E00895CF93DF931F92CDB716
:1010F000DEB7FC018485958597FD08C02FEF3FEF93
:10110000358724870F90DF91CF910895CE01019606
:101110000E940008019719F4898190E0F3CF8FEFC6
:101120009FEFF0CF0F931F93CF93DF931F92CDB715
:10113000DEB78C01FC018485958597FF0BC0CE013D
:1011400001960E940008019771F4898190E0F801EE
:1011500095878487F801848595850F90DF91CF91DD
:101160001F910F9108958FEF9FEFF1CFFC018485C0
:10117000958597FD0BC09FB7F89482E08093E900B6
:101180008091F2009FBF90E0019608959FB7F89478
:1011900082E08093E9008091F2009FBF90E0089583
:1011A000409191035091920320918F0330919003CD
:1011B00042175307B4F49091E8009570E1F39091D1
:1011C000E80092FD19C08093F10080919103909105
:1011D000920301968F739927892B19F48EEF8093D0
:1011E000E80080919103909192030196909392036D
:1011F0008093910381E0089580E00895DF92EF925B
:10120000FF920F931F93CF93DF93D82E8A01EB01A8
:101210007B01E40EF51ECE15DF0559F0D7FE12C096
:10122000FE0184910E94D00821968111F4CF0FEF26
:101230001FEFC801DF91CF911F910F91FF90EF90A9
:10124000DF9008958881EECF0F931F93CF93DF93A4
:101250001F92CDB7DEB782E0898342E450E06CE4B0
:101260007DE080E80E94FE080E943B08DC011296A7
:101270000D911C910115110589F0D801ED91FC919A
:101280000280F381E02DBE016F5F7F4FC801099599
:1012900097FD04C0F80100851185ECCF89810F907E
:1012A000DF91CF911F910F910895615030F02091FF
:1012B000F100FC0120830196F8CF289884E6809302
:1012C000A3030895AF92BF92CF92DF92EF92FF9265
:1012D0000F931F93CF93DF936C017B018B01040F5E
:1012E000151FEB015E01AE18BF08C017D10759F0FA
:1012F0006991D601ED91FC910190F081E02DC6013C
:101300000995892B79F7C501DF91CF911F910F9135
:10131000FF90EF90DF90CF90BF90AF900895282F6F
:1013200030E0F901E657F84F9491F901E559F84F8B
:101330008491245B384FF9012491222309F430C0B1
:101340009923E9F091509F30D0F4E92FF0E0E55572
:10135000F64F0C94CE30D909DD09BA09D109D50967
:10136000BF09BF09BF09E009E609EA09EE09F40966
:10137000BF09F809909180009F7790938000E22F39
:10138000F0E0EE0FFF1FE25CF84FA591B4919FB71C
:10139000F894EC91611132C080958E238C939FBF9D
:1013A0000895909180009F7DE8CF90918000977F75
:1013B000E4CF94B59F7794BDE2CF94B59F7DFBCFEA
:1013C000909190009F7790939000D9CF909190004A
:1013D0009F7DF9CF90919000977FF5CF9091C000BD
:1013E0009F779093C000CBCF9091C0009F7DF9CFA5
:1013F0009091C200977F9093C200C1CF8E2BCECF29
:10140000FC010E94970A319728F068517C4F8F4F5A
:101410009F4FF9CFAB01FC010E94970A6417750733
:101420008E079F07C8F308958F929F92AF92BF9245
:10143000CF92DF92EF92FF920F931F93CF93DF93A0
:101440006C017B018A0180911C01882309F45AC038
:101450008091A403882309F455C08091960380FFEE
:1014600005C08091E00082608093E000E801B12C2B
:101470008AEFA82E93E0892E2AE3922E209711F46A
:10148000BB20C9F10E942A08811108C0AA94AA2091
:10149000C9F181E090E00E94000AF0CF8C171D0690
:1014A00011F00CF08C2F9FB7F8948092E9002091F6
:1014B000E80025FD02C09FBFE1CF282F30E0C21B0E
:1014C000D30BF701815020F041914093F100FACF06
:1014D000E20EF31EBB2021F09092E800B12CEBCF7E
:1014E0008091E80085FDE7CF9092E800BB24B3949B
:1014F000209709F3F3CF5D9884E680939503101647
:1015000011063CF081E090E0F6019383828310E0C5
:1015100000E0C801DF91CF911F910F91FF90EF90F4
:10152000DF90CF90BF90AF909F908F900895AEEBDB
:10153000B1E02FB7F8947D918D919C9166B52FBF46
:10154000A89B05C06F3F18F47F5F8F4F9F4F22E02D
:10155000660F771F881F991F2A95D1F70895AB0151
:10156000FC010E94970A41505109E109F10928F054
:1015700068517C4F8F4F9F4FF6CFAB01FC010E940B
:10158000970A641775078E079F07C8F308952FB74A
:10159000F8946091C3017091C4018091C50190914C
:1015A000C6012FBF08952091B301E091B101F091E0
:1015B000B201CF0102969093B2018093B101222330
:1015C00019F0859194910895808191810895CF9229
:1015D000DF92EF92FF92CF93DF930E94D30A81159F
:1015E00020E8920791F4809171008D7F80937100C3
:1015F0001092910046985F981092B001DF91CF91C0
:10160000FF90EF90DF90CF90089521E02093B001FC
:10161000813020E8920751F48091AE019091AF01A2
:101620009093B2018093B1010E94D30A97FD05C047
:101630002091AD01222309F454C02091AC01211165
:1016400050C021E02093B401EC01DF77209709F02E
:101650004BC081E08093B50146983FE9C32E3FE03F
:10166000D32EE12CF12CCAEFD0E0E0910708F091E5
:1016700008080995811103C081E08093B50180912C
:10168000B401882329F08091B501882309F43FC073
:101690005F980E94D30A0097F1F19C01DE010E943D
:1016A0001C2EDC01CB0129E0B595A7959795879570
:1016B0002A95D1F7109290002AE020939100D092C1
:1016C0009900C09298008093B6019093B701A093BF
:1016D000B801B093B901809171008260809371006C
:1016E0008DCF1092B401B0CF9E0150E040E060E495
:1016F00072E48FE090E00E94C82D69017A0181E0D8
:10170000C81AD108E108F1081092B501AECF469988
:10171000BFCF5F9ABECF8FEF9FEFDC01CBCFEF92B1
:10172000FF920F931F93DC01E1E7F0E090819D7F32
:1017300090831092B301E9EFF7E0F093B201E093E8
:10174000B101F093AF01E093AE01B183A083738345
:101750006283558344833783268311870087F3860A
:10176000E2861F910F91FF90EF900C94E70A2D9A5B
:1017700008950C94000A0E94AF1808958EBD0000D1
:101780000DB407FEFDCF8EB5089580389105B8F4ED
:1017900060347105A0F420E191E061FD94E060FD0A
:1017A000990F62FD9295687F269FD0011124A80FA2
:1017B000AB55BC4F8C9140FF03C0892B8C9308958F
:1017C00090958923FBCFEF92FF920F931F93CF93B6
:1017D000DF937C018B01040F111DEB0177FF02C029
:1017E000D0E0C0E0C8010134110514F080E490E0BD
:1017F000C817D9073CF441E0BE01C7010E94C50BE0
:101800002196F0CFDF91CF911F910F91FF90EF9034
:1018100008953F924F925F926F927F928F929F9224
:10182000AF92BF92CF92DF92EF92FF920F931F93EE
:10183000CF93DF935C01BC016350710947E08DE0F9
:1018400090E00E94E30BEE24E394F12C10E000E022
:10185000C3E0D0E09AEF492E55245A942EEFC22EC1
:10186000DD24DA940F5F1F4F82E0E80EF11CCE0CEE
:10187000DF1C3C2E330C3394432D35016C1A7D0A4A
:10188000B301C8010D960E94E30B4501801A910A2D
:101890004E2DB401CE010D960E94E30B432DB301F2
:1018A0008DE090E0801B910B0E94E30B4E2DB40164
:1018B0008DE090E08C1B9D0B0E94E30B0C171D0725
:1018C00094F0DF91CF911F910F91FF90EF90DF90F7
:1018D000CF90BF90AF909F908F907F906F905F90D0
:1018E0004F903F9008958FEFC816D80609F4BACFED
:1018F000219782E0480E511CC40CD51CB3CF2F9207
:101900003F924F925F926F927F928F929F92AF928F
:10191000BF92CF92DF92EF92FF920F931F93CF93DC
:10192000DF93CDB7DEB72A970FB6F894DEBF0FBEB0
:10193000CDBF9A8389836A3061F5DC0155968C911D
:10194000B8E08B9F90011124E981FA818189928905
:10195000820F931F928B818B108A178681E090E013
:101960002A960FB6F894DEBF0FBECDBFDF91CF91A0
:101970001F910F91FF90EF90DF90CF90BF90AF90AD
:101980009F908F907F906F905F904F903F902F909F
:1019900008956D3019F329813A813A872987D90151
:1019A0001F96AD90BC90B0E8AB16B1040CF07BC0B4
:1019B000F901C188D288F0E4CF16D1040CF073C0CD
:1019C000D90155966C90559745E09501649E200D80
:1019D000311D1124121613060CF065C0262C312C73
:1019E000910153E0220F331F5A95E1F72C0D3D1D55
:1019F000121613060CF057C05496BC91BB83E985B0
:101A0000FA85F389FC83649FB00111249B01225C59
:101A10003D4F3A832983712CE981FA818491F5E065
:101A20007F1201C080E0460138E0532E282F30E0BD
:101A30003E832D834C8080FF4B80411004C03B814E
:101A40008C813817E1F010E000E00615C0F4D501F4
:101A5000A00FB11FB887AF83F12CE12CE61460F41E
:101A6000B701680D791D442D8F8198850E94C50BA3
:101A7000BFEFEB1AFB0AF2CF0F5F1F4FE6CF8D814E
:101A80009E81959587955A94820C931C5110CECFC8
:101A90007394E981FA813196FA83E983A20CB31C2D
:101AA000F6E07F12B9CFA985BA8555962C91559746
:101AB000422F50E01F968D919C91B6E02B9F800D98
:101AC000911D1124E985FA85908B87872689222329
:101AD00009F444CF6AEF64039001659F300D11242F
:101AE00020583F4F281739070CF038CFDF010190FD
:101AF000F081E02D0190F081E02D6AE0CD010995A3
:101B00002DCF0895089590E080E00895CF92DF9260
:101B1000EF92FF920F931F93CF93DF93CFE8D2E022
:101B20001881112349F11230A9F11330F1F111306C
:101B300051F46A8170E0898108E028E04EE152E0CA
:101B400090E00E943C070E94C70ACB80DC80ED80B9
:101B5000FE806C197D098E099F0965367105810526
:101B6000910550F01F5F143048F518830E94C70A92
:101B70006B837C838D839E83279682E0CE3CD8073F
:101B800079F6DF91CF911F910F91FF90EF90DF9049
:101B9000CF9008956A816450770B898100E120E13C
:101BA0004EEF51E08450990BCCCF6A816450770B93
:101BB000898100E120E14EED51E0F4CF1882D6CFCB
:101BC0004F925F926F927F928F929F92AF92BF924D
:101BD000CF92DF92EF92FF920F931F93CF93DF93F9
:101BE00010E0812C912C80EAA82E81ECB82E8091F7
:101BF0000F01181708F06FC281E1189FF00111243E
:101C0000E952FD4FC080D180E280F380648175810C
:101C100086819781C0892091D60221111EC0209112
:101C20008C032170CC2391F0C6EDD1E0222311F07A
:101C3000CEECD1E00E949D2E2B01C701B6010E947F
:101C40009D2ECB0108E028E0AE012EC0C6ECD1E00D
:101C5000222381F3CEEBD1E0EDCF213049F4209166
:101C60008C03C6EBD1E020FFE5CFCEEAD1E0E2CF96
:101C7000223009F00AC220918C03C6EAD1E020FF8D
:101C8000D9CFCEE9D1E0D6CF0E949D2E2B01C7013E
:101C9000B6010E949D2ECB0108E028E046E951E004
:101CA000C11102C04EE851E0B2010E943C076091B0
:101CB00003017091040180910501909106010E9439
:101CC0009D2E6B0160918002709181028091820251
:101CD000909183020E949D2ECB0108E028E046E50A
:101CE00051E0B6010E943C078091C701813009F4A0
:101CF000EAC008F4ADC0823009F41CC1833009F495
:101D000050C180918D038B3009F072C080918C039B
:101D1000CBE6DCE080FF02C0C3E6DCE0C090C90196
:101D2000D090CA01E090CB01F090CC0120E030E0EF
:101D300040E051E4C701B6010E942C2E0E949D2E66
:101D40003091890208E028E0AE01832F90E00E94E4
:101D50003C072DEC3CEC4CE45EE360918402709116
:101D6000850280918602909187020E942B2E6093BB
:101D700084027093850280938602909387022DECF3
:101D80003CEC4CE45EE360918A0270918B0280919E
:101D90008C0290918D020E942B2E60938A02709388
:101DA0008B0280938C0290938D022DEC3CEC4CE4E2
:101DB0005EE3C701B6010E942B2E6093C9017093A8
:101DC000CA018093CB019093CC018092070190923D
:101DD0000801A0920901B0920A0120E030E040E041
:101DE00051EC0E94982E87FF03C083E0809310017E
:101DF00080918B03882369F080918503823009F4F8
:101E000036C108F005C1882309F40EC1813009F4F8
:101E100014C11F5FECCE253009F04AC10E949D2EEF
:101E20002B01C701B6010E949D2ECB0108E028E0DE
:101E30004EE751E0C11138CF46E751E035CF209150
:101E40008C03CEE6D1E020FFF5CEC6E6D1E0F2CE9F
:101E50006091840270918502809186029091870240
:101E60000E949D2E3091880208E028E04BEC5CE057
:101E7000832F90E00E943C0760918A0270918B0250
:101E800080918C0290918D020E949D2E30918E0245
:101E900028E043EC5CE0832F90E00E943C076091D7
:101EA000C9017091CA018091CB019091CC010E942F
:101EB0009D2E3091890228E04BEB5CE0832F90E06F
:101EC0000E943C071ECF6091840270918502809130
:101ED0008602909187020E949D2E3091880208E030
:101EE00028E043EB5CE0832F90E00E943C07609188
:101EF0008A0270918B0280918C0290918D020E94D7
:101F00009D2E30918E0228E04BEA5CE0832F90E01A
:101F10000E943C076091C9017091CA018091CB0178
:101F20009091CC010E949D2E3091890228E043EAD5
:101F30005CE0C4CF6091840270918502809186023A
:101F4000909187020E949D2E3091880208E028E03F
:101F50004BE95CE0832F90E00E943C0760918A028D
:101F600070918B0280918C0290918D020E949D2E27
:101F700030918E0228E043E95CE0832F90E00E94DC
:101F80003C076091C9017091CA018091CB01909189
:101F9000CC010E949D2E3091890228E04BE85CE044
:101FA0008DCF60918402709185028091860290911C
:101FB00087020E949D2E3091880208E028E043E8C5
:101FC0005CE0832F90E00E943C0760918A02709150
:101FD0008B0280918C0290918D020E949D2E3091F7
:101FE0008E0228E04BE75CE0832F90E00E943C07E4
:101FF0006091C9017091CA018091CB019091CC018F
:102000000E949D2E3091890228E043E75CE056CF84
:102010008330A1F1843009F0FCCE80918C03C6E2BC
:10202000D1E080FF10C006C080918C03CEE4D1E0E7
:1020300080FF09C0C6E4D1E006C080918C03CEE3E6
:10204000D1E080FDF7CF6091860370918703809186
:102050008803909189030E949D2E30918A0308E0A5
:1020600028E0AE01832F90E00E943C07D2CE809101
:102070008C03C6E3D1E080FFE6CFDCCF80918C03F8
:10208000CEE2D1E080FFDFCFD5CF233009F4FCCD05
:10209000243009F0C0CE0E949D2E2B01C701B6014D
:1020A0000E949D2ECB0108E028E046E851E0FCCDDF
:1020B000263009F4C4CE273009F0F9CD0E949D2EB8
:1020C0002B01C701B6010E949D2ECB0108E028E03C
:1020D0004EE551E0E9CDDF91CF911F910F91FF9037
:1020E000EF90DF90CF90BF90AF909F908F907F90B8
:1020F0006F905F904F900895DF92EF92FF920F9351
:102100001F93CF93DF93C3E4DDE084E4E82E8DE0FA
:10211000F82EFE013296D49010E01D15A9F0FE01B4
:102120008491F7016491660F660F660F70E0810F6E
:10213000880F880F880F08E028E04EE151E090E01A
:102140000E943C071F5FE9CF2396F3E0EF0EF11CDE
:102150008DE0CC34D807E9F6DF91CF911F910F9134
:10216000FF90EF90DF900895E6E0F1E065917591C2
:10217000859194910E94A42E60938802EAE0F1E098
:1021800085919591A591B491809384029093850255
:10219000A0938602B0938702EEE0F1E0659175911D
:1021A000859194910E94A42E60938E02E2E1F1E069
:1021B00085919591A591B49180938A0290938B0219
:1021C000A0938C02B0938D02E6E1F1E065917591E8
:1021D000859194910E94A42E60938902EAE1F1E036
:1021E00085919591A591B4918093C9019093CA016D
:1021F000A093CB01B093CC01089581E080931001AE
:1022000040E050E060E772E440930B0150930C0112
:1022100060930D0170930E0140E050E06CE372E4B6
:1022200040930701509308016093090170930A01DC
:102230008093020110927C0210927D0210927E0225
:1022400010927F02109278021092790210927A0214
:1022500010927B0290E080E027E0289FF001299F08
:10226000F00D1124E157FD4FDF01322F1D923A95F9
:10227000E9F701968930910581F790E080E028E048
:10228000FC0133E0EE0FFF1F3A95E1F7EE52FE4FEF
:10229000DF01322F1D923A95E9F7019683319105BE
:1022A00079F70895CF93DF9380E192E00E94B22DF9
:1022B000C5EAD7E0888381E192E00E94B22D89834C
:1022C00082E192E00E94B22D8A8383E192E00E9433
:1022D000B22D8B83CE01DF91CF9108950C94B22D56
:1022E000DF92EF92FF920F931F93CF93DF937C01C6
:1022F0008C01C0E1D2E0F801D1908F01CE010E94A3
:10230000B22DD81621F06D2DCE010E94BA2D219646
:10231000C431F2E0DF0779F7C701DF91CF911F9158
:102320000F91FF90EF90DF9008950F931F93CF933D
:10233000DF93809164008E7F8093640080917A00A7
:10234000806480937A0080917A0086FDFCCFC091F2
:102350007800D09179000E94970AAB01BC01CE01B0
:10236000B0E0A0E0DC01992788278C019D01040FD3
:10237000151F261F371FC901B80120916400216075
:1023800020936400611571058105910531F0DF919D
:10239000CF911F910F910C94A92DDF91CF911F9197
:1023A0000F9108958F929F92AF92BF920F931F93B8
:1023B000CF93DF93CDB7DEB7A1970FB6F894DEBF0A
:1023C0000FBECDBF19A2423008F44AE08E010F5D66
:1023D0001F4F842E912CB12CA12CA50194010E9499
:1023E000FA2DE62FB901CA01EA3044F5E05DD801C3
:1023F000EE938D01232B242B252B79F790E080E0A1
:10240000109769F0FD0101900020E9F73197AF01C5
:102410004A1B5B0BBD0189E098E00E946209A1960E
:102420000FB6F894DEBF0FBECDBFDF91CF911F91E5
:102430000F91BF90AF909F908F900895E95CD7CF98
:10244000FC0101900020E9F73197AF01481B590BBF
:10245000BC0189E098E00C946209CF92DF92EF9280
:10246000FF92C0900F0185E0C89E600111248AE5AB
:10247000C80ED11C0D2C000CEE08FF080E945A2D2E
:10248000A70196010E94C82D24E630E040E050E00C
:102490000E94C82DCA01B9010E94D52E2AE939E946
:1024A00049E15EE30E942C2EFF90EF90DF90CF90E9
:1024B00008950E945A2D22E030E040E050E00E9452
:1024C000C82D672B682B692B79F00E945A2D20E3C9
:1024D00030E040E050E00E94C82D605F7F4F8F4F9A
:1024E0009F4F0E94D52E08950E945A2D20E130E082
:1024F00040E050E00E94C82D685A7F4F8F4F9F4F99
:10250000F0CF0E945A2D6DEC7CEC8CE49EEB08958C
:102510002F923F924F925F926F927F928F929F92F3
:10252000AF92BF92CF92DF92EF92FF920F931F93E1
:10253000CF93DF93CDB7DEB766970FB6F894DEBFC3
:102540000FBECDBF82ED282E81E0382E90E4892E7B
:10255000912CA12CB12CD10112968C91882309F4D5
:1025600081C18A83893010F0B8E0BA83712C612C64
:102570001982F101F381FB83D1011196BC91BE83D5
:102580004B2E512CF101F081FC838F2F90E0D10173
:1025900012962C91253008F407C1B981B43008F0A7
:1025A00003C1EB812FEF3FEFEE2311F021E030E08C
:1025B000269DF001279DF00D369DF00D112408E0B9
:1025C00028E04EE252E0B2018E0F9F1F0E943C07AE
:1025D0002B8181E0211101C08FEF3C81869D300D60
:1025E00011243B8300E0832F90E09C8B8B8B8091A8
:1025F0000F01081708F0FCC0A02FB0E0BD83AC832A
:1026000021E12A9FF0012B9FF00D1124E952FD4F8B
:10261000F887EF8364817581868197810E94A42E5B
:10262000162F3E81361708F4BDC0862F90E007961E
:10263000841595050CF4B6C0AF81B8856D917D9178
:102640008D919C910E94A42EBB81B61708F4AAC05C
:10265000862F90E00796EB89FC898E179F070CF474
:10266000A1C0F090D50237E03F9D90011124215781
:102670003D4F38872F83E1E0D901EC9311966C939D
:10268000119712961C930E94C70AAF81B8851396C2
:102690006D937D938D939C93169781E08F0D8A3077
:1026A00008F095C08093D5028091CD019091CE0124
:1026B000A091CF01B091D0014996A11DB11D809389
:1026C000CD019093CE01A093CF01B093D0010E9491
:1026D0005A2D22E030E040E050E00E94C82D11E089
:1026E000611571058105910509F410E0672B682BD0
:1026F000692B09F46FC00E945A2DA50194010E9414
:10270000C82D60587F4F8F4F9F4F0E94D52E6B0171
:102710007C010E945A2D6F87788B898B9A8B0E943F
:102720002D126F83788789879A870E9481126B8721
:102730007C878D879E8741E12C813D81429FF001FE
:10274000439FF00D1124E952FD4FFD83EC83C082BD
:10275000D182E282F3826F85788989899A8920E320
:1027600030E040E050E00E94C82D685F7F4F8F4FFF
:102770009F4F0E94D52EEC81FD81648375838683F3
:1027800097838F819885A985BA8580879187A2874D
:10279000B3878B859C85AD85BE8584879587A68705
:1027A000B787108B0F5F23CFFB812FEF3FEFFF2306
:1027B00011F021E030E0269DF001279DF00D369DBF
:1027C000F00D112408E028E046E252E0FCCE109221
:1027D000D5026ACF0E945A2DA50194010E94C82DEE
:1027E00090958095709561957F4F8F4F9F4F8DCFBE
:1027F000F981FF5FF98328E0620E711C3A81F317BB
:1028000008F4B7CE0E94C70AD10114960D911D910C
:102810002D913C911797601B710B820B930B6531C7
:10282000710581059105F0F012968C9112978F5FDA
:1028300012968C931297893060F09C9113962C918C
:10284000222391F128E0920FF1019083813108F069
:1028500012820E94C70AD10114966D937D938D93C5
:102860009C931797B8E02B0E311CE2E7F2E0E215DB
:10287000F30509F070CE66960FB6F894DEBF0FBE72
:10288000CDBFDF91CF911F910F91FF90EF90DF901F
:10289000CF90BF90AF909F908F907F906F905F9000
:1028A0004F903F902F90089528EFCDCF4F925F9299
:1028B0006F927F928F929F92AF92BF92CF92DF9250
:1028C000EF92FF921F93CF93DF93CDB7DEB72A9796
:1028D0000FB6F894DEBF0FBECDBF87ED92E09A87AA
:1028E000898780E4882E912CA12CB12C0E945A2D2E
:1028F00022E030E040E050E00E94C82D11E0611578
:1029000071058105910509F410E0672B682B692B8F
:1029100009F467C00E945A2DA50194010E94C82D98
:1029200060587F4F8F4F9F4F0E94D52E6B017C01C7
:102930000E945A2D2B013C010E942D1269837A833B
:102940008B839C830E9481126D837E838F83988703
:10295000A985BA85CD92DD92ED92FC921397C301C1
:10296000B20120E330E040E050E00E94C82D685FF3
:102970007F4F8F4F9F4F0E94D52EE985FA85648344
:1029800075838683978389819A81AB81BC81808797
:102990009187A287B3878D819E81AF81B885848717
:1029A0009587A687B787108B7196FA87E987E057D6
:1029B000F34009F09BCF2A960FB6F894DEBF0FBE06
:1029C000CDBFDF91CF911F91FF90EF90DF90CF901F
:1029D000BF90AF909F908F907F906F905F904F903F
:1029E00008950E945A2DA50194010E94C82D90952A
:1029F0008095709561957F4F8F4F9F4F95CFCF9268
:102A0000DF92EF92FF920F931F93CF93DF930E9479
:102A100052110E94290781E080931E08C1E0D0E096
:102A2000D0931908C0931808D0931B08C0931A08B4
:102A300083E591E00E94201206E410E0109319084B
:102A400000931808D0931B08C0931A086091CD0119
:102A50007091CE018091CF019091D0014AE00E9407
:102A6000D211D0931908C0931808CEE0D0E0D093CB
:102A70001B08C0931A088EE491E00E942012109364
:102A8000190800931808D0931B08C0931A08C09027
:102A9000CD01D090CE01E090CF01F090D0016091B7
:102AA000A5077091A6078091A7079091A8074AE013
:102AB0006C157D058E059F0510F4C701B6010E94B7
:102AC000D21108E028E046E352E06BE170E081E0DB
:102AD00090E00E943C078CE090E09093190880936E
:102AE00018088BE190E090931B0880931A08C0901F
:102AF00001010C2C000CDD08EE08FF084AE0C701BC
:102B0000B601F7FE0DC06DE289E098E00E947F0CEF
:102B100066277727CB016C197D098E099F094AE04A
:102B20000E94D21182E080931E088CE090E0909386
:102B30001908809318088EE290E090931B08809308
:102B40001A088BE591E00E9420126091000170E06C
:102B500090E080E04AE00E94D2110E9426070E9485
:102B6000BB0B83FD04C00E94BB0B82FFF8CF80919A
:102B700071008D7F809371001092B30189EF97E00F
:102B80009093B2018093B1019093AF018093AE0115
:102B900088EE93E09093FA078093F90788EC90E031
:102BA0009093FC078093FB0780E090E89093FE07EA
:102BB0008093FD070E94E70A64EF71E080E090E0F7
:102BC0000E94AF0A0E94561481E080931001109277
:102BD0008B03DF91CF911F910F91FF90EF90DF90CA
:102BE000CF9008951F920F920FB60F9211248F93DA
:102BF0009F938091E1009091E100937F9093E10099
:102C000083FF0FC01092E90091E09093EB001092C7
:102C1000EC0092E39093ED001092A40398E090935F
:102C2000F00082FF22C093E09093E9009091F200BF
:102C3000992319F09AE39093E800909195039923D2
:102C400041F090919503915090939503911101C09B
:102C50005D9A9091A303992341F09091A303915021
:102C60009093A303911101C0289A84FF18C080910A
:102C7000E2008E7E81608093E2008091E1008F7E91
:102C80008093E100809196038E7E8061809396030D
:102C90009F918F910F900FBE0F901F90189580FFFE
:102CA000F7CF8091E2008E7E80618093E200809178
:102CB000E1008E7E8093E100809196038E7E81609C
:102CC000E5CF1F920F920FB60F921124CF92DF9291
:102CD000EF92FF920F931F932F933F934F935F9326
:102CE0006F937F938F939F93AF93BF93EF93FF93D4
:102CF000CF93DF93CDB7DEB76C97DEBFCDBF109219
:102D0000E9008091E80083FF25C068E0CE01459688
:102D10000E94550982EF8093E8008D8987FF39C0B2
:102D20009091E80090FFFCCF982F907609F034C185
:102D30009E894F89588D2F89F88C911131C0803828
:102D400061F5809194038093F1001092F1008EEF71
:102D50008093E8006C960FB6F894DEBF0FBECDBF2F
:102D6000DF91CF91FF91EF91BF91AF919F918F91A3
:102D70007F916F915F914F913F912F911F910F9193
:102D8000FF90EF90DF90CF900F900FBE0F901F90AD
:102D900018959EEF9093E800C7CF1092F100D5CF21
:102DA000913059F48111D3CF4130510581F6809192
:102DB00094038D7F80939403CACF933049F481119B
:102DC000C6CF4130510519F6809194038260F2CF4D
:102DD000953041F48091E80080FFFCCF206820937B
:102DE000E300B5CF963009F0A9C00B8D1C8D22E011
:102DF0001092E9001092920310929103F2122EC0E9
:102E00001092900310928F030E9424091F8299E070
:102E10009983FA8291E09E8390EA98879AEF998746
:102E20002091910330919203275F3F4F3C832B8386
:102E30008D831092E90010929203109291031093E7
:102E4000900300938F0349E050E0BE016F5F7F4F16
:102E500080E00E94FE080E94240979CF109390031D
:102E600000938F030E943B08DC0112960D911C9188
:102E70000115110509F410C1D801ED91FC910480F0
:102E8000F581E02DBE016B5E7F4FC801099500976B
:102E900009F0FDC0F80100851185EACFF3E0FF12CB
:102EA0000EC08F89882309F440C0823061F440E865
:102EB00067E080EB9DE00E941819811148CF81E204
:102EC0008093EB0047CF813029F440E86BE084EA3F
:102ED0009DE0F1CF833099F70E943B08DC01129608
:102EE000ED90FC908E010F5F1F4F6801E114F1041B
:102EF00079F0D701ED91FC910680F781E02DB801C2
:102F0000C7010995080F111DF701E084F184EECF88
:102F1000D8011C92F60101900020E9F73197BF011A
:102F20006C197D0940E0C601C6CF6EE87DE0FB016B
:102F3000449150E080E80E94FE0809CF973009F4E0
:102F4000BECF983021F481E08093F10000CF99301A
:102F500009F0FDCE837009F0B2CFE2E2F1E081E04A
:102F600031E096E32191222371F08093E9003093C0
:102F7000EB00DF0111972C912093EC009093ED0072
:102F80008F5F873079F78EE78093EA001092EA002E
:102F90008F898093A403DBCE8B8D9C8D1092E900EA
:102FA00010929203109291039093900380938F0359
:102FB000898D811151C08E899D89913A49F4813260
:102FC00009F07DCF47E050E065E171E080E0B3CFEC
:102FD000913209F074CF833269F48F89988DB0E013
:102FE000A0E08093110190931201A0931301B0937C
:102FF0001401ADCE803269F48091E80082FFFCCFED
:1030000067E085E191E00E9455098BEF8093E8002D
:103010009ECE823209F09BCE8F8980931C018091D5
:10302000150190911601A0911701B0911801803BF4
:103030009440A105B10569F480911C0180FD09C08F
:1030400088E780939303809164008F7D8093640070
:103050007ECE109293037BCE0E943B08DC01129639
:103060000D911C910115110509F429CFD801ED919D
:10307000FC910190F081E02DBE016B5E7F4FC80195
:103080000995811164CEF80100851185EBCF1816E2
:1030900019060CF45CCE13CFF1E0FF12FFCE62E90B
:1030A0007DE045CF0F930FB70F931F9211248F939D
:1030B0009F93EF93FF93E3ECF1E08091BD0191E0EA
:1030C0008D5F8D3710F08D5793958093BD01808172
:1030D000890F80839181911D91830281011D02835B
:1030E0008381811D838309270F700927029500932F
:1030F000BC0135D081110093BA01803989F4009167
:10310000BB01901B963070F087E780930008809396
:10311000010888E198E08093600090936000FFCF01
:103120009093BB0180919303815018F08093930397
:1031300059F3EEEBF1E080819181019680839183D8
:1031400082819381811D911D82839383FF91EF91F1
:103150009F918F911F900F910FBF0F9118958FB175
:103160008095807F669B88601C9B846008951F9279
:103170000F920FB60F9211242F933F934F935F93AB
:103180006F937F938F939F93AF93BF93EF93FF932F
:103190008091B6019091B701A091B801B091B901A9
:1031A000892B8A2B8B2B09F440C08091B5018111AA
:1031B0000BC088B190E4892788B98091B401882335
:1031C00019F08BB180588BB98091B6019091B701FD
:1031D000A091B801B091B901181619061A061B067C
:1031E0009CF48091B6019091B701A091B801B09183
:1031F000B9010197A109B1098093B6019093B70174
:10320000A093B801B093B901FF91EF91BF91AF9135
:103210009F918F917F916F915F914F913F912F91EE
:103220000F900FBE0F901F9018950E94E70AECCFE9
:10323000EF92FF920F931F93CF93DF93F82E192FE6
:10324000E62E042F81E0860F880F0E94D00883E0CD
:103250000E94D008CF2DD12FEC0EFD2EF11CCE15E3
:10326000DF05B9F007FF13C0FE0184910E94D0086A
:10327000182F80E00E94D008812321968111EFCF82
:10328000DF91CF911F910F91FF90EF90089588816A
:10329000EDCF81E0F5CF0F931F93CF93DF938C0198
:1032A00081E090E00E946E1180FF31C08AE090E0E2
:1032B0000E946E119FEF980F9E3F48F522E330E089
:1032C000D80150963C932E931F9728E330E05296F6
:1032D0003C932E935197CBE0D0E0D801ED91FC9137
:1032E0000190F081E02D682FC8010995CE010E9460
:1032F0006E112196C131D10581F70E94260788EE13
:1033000093E0DF91CF911F910F910C94B90BDF9156
:10331000CF911F910F91089504970C944B19E9EAEE
:10332000F7E01382128288EE93E0A0E0B0E084839D
:103330009583A683B7838CE291E0918380838FEF9E
:103340009FEF95878487E9E0F8E013821282118667
:10335000128680E183871086178215868EE391E0BE
:10336000918380838CE491E095838483108A17860F
:10337000128A118A81E0838B148A858B168A87E0F2
:1033800097E0909308088093070880E090E8909376
:1033900006088093050846983E9A5F98579A0895C4
:1033A000CDB7DEB7A197DEBFCDBF789483E084BDF3
:1033B00083E085BD81E080936E00E1E8F0E083E08A
:1033C0008083E0E881E08083E1E983E08083E0E9D5
:1033D00081E08083E1EC87E08083E3EC81E080831F
:1033E000E0EC82E08083E2EC81E08083EAE787E042
:1033F0008083806880831092A403109294031092BB
:1034000096038091D70081608093D70080EA8093F3
:10341000D80089B5806189BD89B5826089BD09B44C
:1034200000FEFDCF81E090E00E94000A8091D8006C
:103430008F7C80618093D8008091E000807F8093B2
:10344000E0008091E1008E7E8093E1008DE080932A
:10345000E200559A209A81EC80937C0081E785B93F
:1034600087E684B985E38BB98FE38AB9769A6E983B
:1034700080EF81BB10BA80E58CBD21E02DBD85E0D9
:1034800090E00E94B90B599902C0599AF8CF5C9804
:10349000E9EAF7E09AE085910E94BE0B9A95D9F788
:1034A0005C9A81E88093640031E03093650040E2EB
:1034B00054E05A83498380E00E94BE0B89819A813F
:1034C00001979A838983892BB1F70E94BB0B87FFF1
:1034D0000DC05C9885EA0E94BE0B5C9A2E985898A5
:1034E0002D9881E083BF889513BEFCCF0E94BB0B53
:1034F00082FF48C02D980E94BB0B84788438E1F489
:103500000E94B70B88EC90E00E94B90B589882E0BB
:1035100090E00E94B22D8F3F29F06FEF82E090E0A3
:103520000E94BA2D84EF91E00E94B90B589A0E9434
:10353000BB0B84788438D9F30E94BB0B847184312F
:10354000E1F40E94B70B88EC90E00E94B90B2E9832
:1035500082E090E00E94B22D882329F060E082E0B2
:1035600090E00E94BA2D84EF91E00E94B90B2E9A50
:103570000E94BB0B84718431D9F388EC90E00E94E7
:10358000B90BB4CF0E94B70B81E090E00E946E119E
:10359000182F147081FF0EC011112E98A0EFBFEFED
:1035A000BA83A9830E94BB0B86FF82C02E9A589AC9
:1035B0000E94B70B3E9A579A81E08093C2010E9405
:1035C00029070E94951180E1809314080E94C70A80
:1035D00060938103709382038093830390938403A9
:1035E0000E94C70A609373027093740280937502FD
:1035F000909376020E94B410F12CE12C10E000E0D0
:1036000050E8C52ED12C1A821982E981FA8143E053
:10361000F595E7954A95E1F7EE0DFF1DED59F74F4A
:10362000E49189819A8187709927A60102C05595F6
:1036300047958A95E2F7CA01F0E0E423F923EF2BDE
:1036400031F041E0B80189819A810E94C50B8981DE
:103650009A8101969A83898380389105B1F60F5F2C
:103660001F4F90E1E90EF11C0034110561F60E9434
:10367000260768E873E180E090E00E94AF0A0E94AC
:1036800052119091C30180911508A92FA81B8A2F70
:1036900020911608222309F43FC0A0931708109226
:1036A000160880E090E0892B61F30E940000E9CFCA
:1036B000112331F0E981FA81349711F42E9A589848
:1036C00081E00E940A0700E128E543EB57E06981A9
:1036D0007A8184E190E00E943C070E9426078FE0F7
:1036E00090E00E94B90B29813A812F5F3F4F3A83C6
:1036F00029832931310509F055CF112311F0589A4A
:103700002D9880E991E00E94B90B0E94B70B89E0E7
:1037100098E00E944B194ECF20911408A21748F44C
:103720008F5F821708F0BDCF81E083BF889513BEFD
:10373000B8CF81E080931608909315088091100807
:1037400090911108019690931108809310080E949F
:10375000290780911001823011F40C94292948F432
:10376000882311F40C941A2A813031F10E94260723
:1037700098CF833011F40C94272AFF24F39408E2A5
:1037800010E0843099F70E94BB0BE82EEE1CEE246B
:10379000EE1C19F00E942907FE2C0E94BB0B84FD31
:1037A00002C00C94692C0E9429078BE290E00E94D1
:1037B000090CF12C0C94732C60E88FE390E00E94CC
:1037C000DD0760918E03B0918D03B983662371F09C
:1037D000BB3060F480918C0380FD60C0643609F0DA
:1037E0005DC060E890E080E00E94DD070E947C10F0
:1037F0000E94E00DE981EB3008F0C8C2F091770239
:10380000FD83F11169C0C0900701D0900801E090DC
:103810000901F0900A01C701B6010E949D2E69833B
:103820007A838B839C8360910B0170910C01809152
:103830000D0190910E010E949D2E2B0180907C0223
:1038400090907D02A0907E02B0907F028091020154
:1038500008E028E0882309F4D2C14BE35DE06981E8
:103860007A81C2010E943C0720E030E0A901C50135
:10387000B4010E94982E811122C020E030E040E087
:1038800051E4C701B6010E942C2E0E949D2E28E013
:1038900043E35DE0C2010E943C071EC0643608F0AD
:1038A000A5CF70E090E080E00E94D52E2AE037EDB1
:1038B00043EA5FE30E943A300E94A42E93CF8091A6
:1038C0008C03813009F48CC108F46FC1823009F493
:1038D00078C1833009F484C12D8121502230A0F5B4
:1038E00030918C0339838090070190900801A0905B
:1038F0000901B0900A01C501B4010E949D2E2B015F
:1039000060910B0170910C0180910D0190910E015D
:103910000E949D2E6B018091020108E028E088231F
:1039200009F4EFC14BE35DE0B201C6010E943C0720
:103930004981413009F4C7C108F4B3C1423009F4E8
:10394000D1C1433009F4BFC11D8207E0C02EDD2480
:10395000D394412C512C80E7682E82E4782E812C60
:10396000912C9CE3A92E92E4B92E22E0222E36E07F
:10397000332E80910F019D81981708F007C2A1E1B5
:10398000A99F8001112409521D4FF80160817181A6
:10399000828193810E94A42EE62ED80114966D9107
:1039A0007D918D919C9117970E94A42E162F609166
:1039B0000B0170910C0180910D0190910E010E94FC
:1039C000A42E69836091070170910801809109011B
:1039D00090910A010E94A42EF62E8E2D90E0B981BE
:1039E0002B2F30E0BE1580F4A9014A5F5F4F4817C6
:1039F000590754F0F11640F44F2D50E0425F5F4FED
:103A000014171506D9F0D4F00696821793070CF414
:103A1000C8C0E981EE1608F0C4C0812F90E02F2DB8
:103A200030E0AC014A5F5F4F421753070CF4B9C056
:103A3000295F3F4F281739070CF4B3C080918D03DD
:103A4000883011F430928D03E090D502CE9C800135
:103A5000112401571D4FD801DC92E9811196EC9396
:103A6000119784E08F0D12968C930E94C70AD8019B
:103A700013966D937D938D939C93169781E08E0D95
:103A80008A3008F07AC18093D502E090D502CE9CAE
:103A90008001112401571D4FF801D0828981845083
:103AA0008183F2820E94C70AD80113966D937D9399
:103AB0008D939C93169781E08E0D8A3008F060C13B
:103AC0008093D502E090D502CE9C8001112401574D
:103AD0001D4FF801D08229812C5F2183F2820E9440
:103AE000C70AD80113966D937D938D939C93169777
:103AF00081E08E0D8A3008F046C18093D502109285
:103B0000100140920B0150920C0160920D017092D5
:103B10000E018092070190920801A0920901B092D3
:103B20000A01D092020110927C0210927D02109242
:103B30007E0210927F021092780210927902109207
:103B40007A0210927B0280910101815080930101E1
:103B500087FD2092100110E9E12EFF24F39408EC78
:103B600010E028EC30E048E552E068EC70E080E2DC
:103B700093E00E948F0B0CE211E00E94290760E89D
:103B80008FE390E00E94DD070E947C100E94E00D10
:103B90000E94860D0E9488120E942607015011097A
:103BA00061F7BD81BF5FBD83E4CE20E030E040E03F
:103BB00051E4C701B6010E942C2E0E949D2E08E000
:103BC00066CE20E030E040E051E4C701B6010E943B
:103BD0002C2E0E949D2E08E028E043E25DE05ACEA4
:103BE00020E030E040E051E4C701B6010E942C2EF5
:103BF0000E949D2E08E028E04BE25DE04BCE4BE1B9
:103C00005DE069817A81C2010E943C0720E030E0DA
:103C1000A901C501B4010E94982E81110EC020E0B7
:103C200030E040E051E4C701B6010E942C2E0E9412
:103C30009D2E28E043E15DE02DCE80918C03813004
:103C400031F0A0F08230F1F0833009F045CE20E071
:103C500030E040E051E4C701B6010E942C2E0E94E2
:103C60009D2E08E028E04BE05DE014CE20E030E03F
:103C700040E051E4C701B6010E942C2E0E949D2E07
:103C800008E0D7CF20E030E040E051E4C701B601C2
:103C90000E942C2E0E949D2E08E028E043E05DE06B
:103CA000F9CD20E030E040E051E4C501B4010E94CC
:103CB0002C2E0E949D2E08E028E04BEF5CE0C60110
:103CC0000E943C0741CE20E030E040E051E4C501D5
:103CD000B4010E942C2E0E949D2E08E028E043EFA4
:103CE0005CE0EDCF20E030E040E051E4C501B401FC
:103CF0000E942C2E0E949D2E08E028E04BEE5CE0F6
:103D0000DECF4BE15DE0B201C6010E943C07598164
:103D1000513031F0A0F0523009F1533009F014CE97
:103D200020E030E040E051E4C501B4010E942C2EB7
:103D30000E949D2E08E028E04BED5CE0C0CF20E023
:103D400030E040E051E4C501B4010E942C2E0E94F5
:103D50009D2E08E028E043EE5CE0B1CF20E030E0AB
:103D600040E051E4C501B4010E942C2E0E949D2E1A
:103D700008E028E043ED5CE0A2CF1092D50285CEAA
:103D80001092D5029FCE1092D502B9CE0E94860D18
:103D90000E9488128090070190900801A09009016C
:103DA000B0900A0120E030E040E051E4C501B401E8
:103DB0000E942C2E0E94A42EC62E20E030E040E768
:103DC00051E4C501B4010E942C2E0E94A42E6983E7
:103DD00080900B0190900C01A0900D01B0900E010D
:103DE000C501B4010E94A42ED62E20E030E040EEA2
:103DF00050E4C501B4010E942C2E0E94A42E6D83B4
:103E000080918B03882309F449C0809086039090A9
:103E10008703A0908803B090890320E030E040EE53
:103E200050E4C501B4010E942C2E0E94A42E6C15F2
:103E3000A8F1C501B4010E94A42EE981E61770F132
:103E400080918A0397E0980F9D1540F1FD81F81746
:103E500028F110928B038091CD019091CE01A09119
:103E6000CF01B091D00186509F4FAF4FBF4F80938D
:103E7000CD019093CE01A093CF01B093D001B4E6D1
:103E8000EB2EF12C00EC1DE022E330E040EE56E09A
:103E900062E370E080E793E00E948F0B80918D03D6
:103EA00081114AC080908A0290908B02A0908C026F
:103EB000B0908D0220E030E040EE50E4C501B40146
:103EC0000E942C2E0E94A42E6C15B0F1C501B401E5
:103ED0000E94A42E2981261778F180918E0297E006
:103EE000980F9D1548F13D81381730F181E080939E
:103EF0008D038091CD019091CE01A091CF01B09121
:103F0000D0018C599F4FAF4FBF4F8093CD019093FD
:103F1000CE01A093CF01B093D001A4E6EA2EF12CFC
:103F200000EE16E022E330E040E753E062E370E0A9
:103F300088EB91E00E948F0B80918D03833009F014
:103F40004AC08090840290908502A0908602B09032
:103F5000870220E030E040EE50E4C501B4010E9449
:103F60002C2E0E94A42E6C15B0F1C501B4010E9444
:103F7000A42E4981461778F18091880297E0980F26
:103F80009D1548F15D81581730F184E080938D03D1
:103F90008091CD019091CE01A091CF01B091D0013F
:103FA0008C599F4FAF4FBF4F8093CD019093CE015F
:103FB000A093CF01B093D001F4E6EF2EF12C00EEE8
:103FC00016E022E330E040E753E062E370E088EB84
:103FD00091E00E948F0B80918D038650823008F013
:103FE0005EC08090030190900401A0900501B09004
:103FF000060120E030E040EE50E4C501B4010E942B
:104000002C2E0E94A42E6C1508F449C0C501B401E1
:104010000E94A42E8981861708F441C080908002F6
:1040200090908102A0908202B090830220E030E064
:1040300040EE50E4C501B4010E942C2E0E94A42E33
:104040006D1568F1C501B4010E94A42E9D819617DB
:1040500030F188E080938D038091CD019091CE0165
:10406000A091CF01B091D0018C599F4FAF4FBF4F5E
:104070008093CD019093CE01A093CF01B093D00156
:10408000E4E6EE2EF12C00EE16E022E330E040E70D
:1040900053E062E370E088EB91E00E948F0B809127
:1040A0008D038A3009F0BFC08090C9019090CA0189
:1040B000A090CB01B090CC0120E030E040EE50E485
:1040C000C501B4010E942C2E0E94A42E6C1508F488
:1040D000AAC0C501B4010E94A42EF62EA981A6177C
:1040E00008F4A1C0B0918902B9838B2F895F8D1527
:1040F00008F499C0ED81EB1708F495C08BE080932C
:104100008D03F091D502FD8327E0F29F80011124F9
:1041100001571D4F81E0D8018C93E9811196EC93F2
:1041200020E030E040E850E4C501B4010E942C2EAC
:104130000E94A42ED80112966C930E94C70AF8011F
:104140006383748385839683FD81FF5FFA3008F073
:10415000C3C0F093D5022091D5022D8337E0239F71
:104160008001112401571D4F81E0D8018C93898172
:10417000845011968C9311971296FC920E94C70A54
:10418000F8016383748385839683FD81FF5FFA3032
:1041900008F0A5C0F093D5022091D5022D8337E019
:1041A000239F8001112401571D4F81E0D8018C937A
:1041B000E981EC5F1196EC9311971296FC920E94A4
:1041C000C70AD80113966D937D938D939C93169790
:1041D000BD81BF5FB983BA3008F084C0B093D50207
:1041E00074E6E72EF12C00EE16E022E330E040E723
:1041F00053E062E370E088EB91E00E948F0B8091C6
:10420000CD019091CE01A091CF01B091D0018C5001
:104210009E4FAF4FBF4F8093CD019093CE01A0939F
:10422000CF01B093D0010E94BB0B83FF5EC021E0A1
:104230002093770240E050E060E87FEB4093780203
:104240005093790260937A0270937B029091D1012E
:1042500091113EC060910B0170910C0180910D0194
:1042600090910E01C0900701D0900801E0900901E3
:10427000F0900A011091D50237E0139FF00111244C
:10428000E157FD4FFA83E98320830E94A42EA98180
:10429000BA8111966C9320E030E040E051E4C70110
:1042A000B6010E942C2E0E94A42EE981FA8162831D
:1042B0000E94C70AA981BA8113966D937D938D934D
:1042C0009C9316971F5F1A3008F0FAC31093D5021B
:1042D00081E08093D1010DC01092D5023CCF1092A5
:1042E000D5025ACF1092D5027BCF0E94BB0B87FD1F
:1042F0009ECF0E94BB0B83FD19C00E94BB0B87FDA4
:1043000015C080917702813079F482E08093770242
:1043100080E090E0A0E0BFE3809378029093790280
:10432000A0937A02B0937B021092D1010E94BB0B42
:1043300086FD08C010927C0210927D0210927E02CF
:1043400010927F020E94BB0B85FD08C010927C0278
:1043500010927D0210927E0210927F020E94BB0B8F
:1043600086FF0FC080E090E0A0E8BFE380937C026E
:1043700090937D02A0937E02B0937F0281E08093B0
:1043800002010E94BB0B85FF0EC080E090E0A0E818
:10439000BFE380937C0290937D02A0937E02B09352
:1043A0007F021092020180918D038B30C0F40E9435
:1043B000BB0B82FF88C30E94C70A00917302109151
:1043C00074022091750230917602601B710B820B92
:1043D000930B653671058105910508F079C36091ED
:1043E0007C0270917D0280917E0290917F022091EB
:1043F0000201211101C0905820910B0130910C0154
:1044000040910D0150910E010E942C2E4B015C0138
:1044100080920B0190920C01A0920D01B0920E01BE
:10442000209178023091790240917A0250917B027A
:1044300060910701709108018091090190910A0132
:104440000E942C2E6B017C01C0920701D0920801C2
:10445000E0920901F0920A0120E030E04EEE52E4D1
:10446000C501B4010E94DD2F1816A4F410927C023D
:1044700010927D0210927E0210927F0280E090E006
:10448000AEEEB2E480930B0190930C01A0930D016A
:10449000B0930E0120E030E0A90160910B01709112
:1044A0000C0180910D0190910E010E94982E87FFC2
:1044B00010C010927C0210927D0210927E02109227
:1044C0007F0210920B0110920C0110920D011092BC
:1044D0000E0120E030E0A901C701B6010E94982E2C
:1044E00087FF10C0109278021092790210927A021F
:1044F00010927B021092070110920801109209019C
:1045000010920A0120E030E04CE352E46091070190
:10451000709108018091090190910A010E94DD2F9C
:1045200087FD16C0109278021092790210927A02DA
:1045300010927B0280E090E0ACE3B2E4809307014C
:1045400090930801A0930901B0930A011092770299
:10455000509177025E878091070190910801A091A8
:104560000901B0910A018D839E83AF83B887809043
:104570000B0190900C01A0900D01B0900E01C09025
:104580007802D0907902E0907A02F0907B0220E0ED
:1045900030E040EC50E4C501B4010E942C2E698744
:1045A0007A878B879C87A3E4BDE0BA83A9838D01BA
:1045B000F8013296B491F8017490770C770C770C6F
:1045C00031963490BB0FBB0FBB0FB70DBD87FE8577
:1045D000F1112BC020E030E04CE352E46D817E818C
:1045E0008F8198850E94982E87FF1FC0672D70E0ED
:1045F00090E080E00E94D52E29853A854B855C8528
:104600000E94DD2F18160CF4E1C22D85622F70E098
:1046100090E080E00E94D52E9B01AC01C501B40161
:104620000E94DD2F18160CF4D9C2672D70E090E0BF
:1046300080E00E94D52E9B01AC0169857A858B852F
:104640009C850E94DD2F87FDD1C220E030E040E84C
:1046500050E4C501B4010E942C2E2B013C015D8564
:10466000652F70E090E080E00E94D52E9B01AC01A8
:10467000C301B2010E94982E18160CF4B7C2632D24
:10468000660F660F660F6051770B072E000C880BC4
:10469000990B0E94D52E2B013C01AC019B016D8131
:1046A0007E818F8198850E94982E81119FC21092E1
:1046B00077024092070150920801609209017092BE
:1046C0000A0110927C0210927D0210927E021092DA
:1046D0007F02109278021092790210927A02109260
:1046E0007B0200E080910F01081708F0C1C2202E64
:1046F000312CA1E1A29DF001A39DF00D1124E952FE
:10470000FD4FB089BF87208531854285538544841C
:104710005584668477846081718182819381B1112F
:1047200001C050580E942C2E4B015C01E1E1E29D3A
:10473000C001E39D900D11249C0129523D4F3A8701
:104740002987D9018D929D92AD92BD92BE83AD8392
:10475000F9012481358146815781C301B2010E944C
:104760002C2E6B017C01A985BA851496CD92DD9221
:10477000ED92FC9217970E94A42E6D8720E030E006
:1047800040EE50E4C701B6010E942C2E0E94A42ED8
:10479000688BC501B4010E94A42E6E8720E030E032
:1047A00040EE50E4C501B4010E942C2E0E94A42EBC
:1047B000698BE3E4FDE0F9A3E8A3A984BA84950139
:1047C000245F3F4F3A87298777FA709477F870947F
:1047D000450130E1830E911CA501485F5F4F5F8F5B
:1047E0004E8FE8A1F9A132968491E8A1F9A19491A4
:1047F00031962491220F220F220F33E0320FFD85D4
:104800003F1708F4A0C04889421708F49CC0990FCC
:10481000990F990FE82FEE0FEE0FEE0FE90F5E855F
:10482000E51708F490C08989891708F48CC0809135
:10483000D602811102C21091D502A7E0A19FC0014A
:104840001124FC01E157FD4F7F0121E020835183BA
:104850003D8532830E94C70AD70113966D937D93DD
:104860008D939C9316971F5F1A3008F0D3C1109355
:10487000D5020E945A2D22E030E040E050E00E9434
:10488000C82D11E0611571058105910509F410E04D
:10489000672B682B692B09F4C0C10E945A2D20E4B4
:1048A00030E040E050E00E94C82D60587F4F8F4FAD
:1048B0009F4F0E94D52E6B017C010E945A2D6A8F5A
:1048C0007B8F8C8F9D8F0E942D126A8B7B8B8C8BA4
:1048D0009D8B0E9481126E8B7F8B888F998FF50143
:1048E000C082D182E282F3826A8D7B8D8C8D9D8D18
:1048F00020E330E040E050E00E94C82D685F7F4F29
:104900008F4F9F4F0E94D52EAD81BE816D937D93B9
:104910008D939C9313972A893B894C895D89AE8D31
:10492000BF8D2D933D934D935C9313972E893F89B3
:10493000488D598DA985BA852D933D934D935C93F0
:104940001397F4011083E8A1F9A13396F9A3E8A322
:104950002CE43DE02E173F0709F043CF31E1329DB3
:10496000F001339DF00D1124E952FD4FC080D1803C
:10497000E280F38020E030E04EEF52E4C701B60160
:104980000E94DD2F181654F020E030E040EE50EC8D
:10499000C701B6010E94982E87FF23C04F8580E093
:1049A00090E0A0EEB0EC411104C080E090E0AEEFEA
:1049B000B2E421E1229DF001239DF00D1124E95282
:1049C000FD4FFE83ED8380839183A283B3830E9496
:1049D0002D12AD81BE8118966D937D938D939C931E
:1049E0001B97B1E1B29DF001B39DF00D1124E95286
:1049F000FD4FC480D580E680F78020E030E044E6BB
:104A000052E4C701B6010E94DD2F181654F020E0D1
:104A100030E040EE50E4C701B6010E94982E87FFB7
:104A200011C021E1229DF001239DF00D1124E952D6
:104A3000FD4F84859585A685B785B0588487958771
:104A4000A687B7870E945A2D28EB3BE040E050E054
:104A50000E94C82D6C3D75408105910581F48091BF
:104A6000D602882361F041E1429DF001439DF00DA3
:104A70001124E952FD4F808951E08527808B0E94E7
:104A80005A2D28EE33E040E050E00E94C82D643FEC
:104A900071408105910591F48091D602882371F0CF
:104AA0000E948112B1E1B29DF001B39DF00D11247D
:104AB000E952FD4F64877587868797870F5F12CE0F
:104AC0001092D50205CC0E94BB0B84FD74CC87CC20
:104AD0000091020160E070E080E291E4011104C005
:104AE00060E070E080E291EC1091720228E0129F89
:104AF000F0011124EE52FE4FFA83E98320910B015D
:104B000030910C0140910D0150910E010E942C2E0C
:104B10000E94A42EA981BA816C9381E012968C9395
:104B200020E030E040E151E460910701709108011C
:104B30008091090190910A010E942C2E0E94A42EBE
:104B4000E981FA81618303830E94C70AA981BA813E
:104B500014966D937D938D939C9317971F5F1431DB
:104B600090F510937202E3ECF0E0FA83E98361E0E0
:104B700082E00E948F0960E085E00E948F098981B0
:104B80009A810197F1F760E082E00E948F0961E06D
:104B900085E00E948F0989819A810197F1F7298127
:104BA0003A812C5F3F4F3A8329832F3E3140F9F6FB
:104BB0000E94C70A60937302709374028093750217
:104BC000909376020CCC10927202CDCFC12CD12CD6
:104BD000E12C6FE3F62E32E03E8727CDC12CD12C9D
:104BE000E12C5FE3F52E42E04E871FCD0D5F1F4F96
:104BF0008CE49DE08017910709F0DACC9E859093B4
:104C00007702C0927802D0927902E0927A02F09212
:104C10007B0267CD1092D5022CCE0E945A2D20E443
:104C200030E040E050E00E94C82D9095809570954E
:104C300061957F4F8F4F9F4F3CCEFE85F91718F03F
:104C40004989E41730F4D4018C91B1E08B27F40149
:104C50008083F8893F1720F03D85321708F073CE26
:104C6000A985BA854D925D926D927C9213976BCE19
:104C700080918B03882309F46BC000918A0310E0B4
:104C80007801E6E0EE0EF11C0F5F1F4F8090860367
:104C900090908703A0908803B090890323E43DE0BF
:104CA0003E832D83ED81FE813296D490ED81FE818D
:104CB000C49031967490C501B4010E94A42E70E096
:104CC000E72DEE0FEE0FEE0FE850FF0B6E177F078C
:104CD00009F054C0CC0CCC0CCC0CCE141F0411F039
:104CE0000CF04CC0DD0CDD0CDD0CDC0CD01611061C
:104CF00009F00CF443C0072E000C880B990B0E949E
:104D0000D52E4B015C0120E030E04CE552E40E94DE
:104D1000DD2F181634F4812C912C4CE5A42E42E49E
:104D2000B42E2D813E812D5F3F4F3E832D834CE479
:104D30005DE04217530709F0B5CF80928603909249
:104D40008703A0928803B092890381E080938B034C
:104D500050918D035987E52FE150E93008F0BCC12F
:104D6000F0E0EB54F94D0C94CE30C726FE266C28AB
:104D700055278A27CF276C28AE28E5282DEC3CEC58
:104D80004CEC5DE3C501B4010E942C2EBACFC0905B
:104D90000B01D0900C01E0900D01F0900E01C701C5
:104DA000B6010E94A42E60938E0220E030E040E025
:104DB00051E460910701709108018091090190917F
:104DC0000A010E942C2E60938A0270938B028093BA
:104DD0008C0290938D026091890270E090E080E0F7
:104DE0000E94D52E9B01AC01C701B6010E94982EEE
:104DF000811124C082E080938D036EC12DEC3CECC8
:104E00004CE45EE360918A0270918B0280918C0287
:104E100090918D020E942C2E6B017C0120E030E0ED
:104E20004CE352E40E94DD2F87FF31C0C0928A021A
:104E3000D0928B02E0928C02F0928D020E94C70AFF
:104E400000918103109182032091830330918403A8
:104E5000601B710B820B930B633371058105910508
:104E600010F40C94B61B80918C038F5F843008F093
:104E7000EDC180938C030E94C70A609381037093F5
:104E8000820380938303909384030C94B61B80E089
:104E900090E0ACE3B2E480938A0290938B02A093FB
:104EA0008C02B0938D0283E0A6CFC0900B01D0900E
:104EB0000C01E0900D01F0900E01C701B6010E94B7
:104EC000A42E6093880220E030E040E051E460913D
:104ED0000701709108018091090190910A010E94D7
:104EE0002C2E6093840270938502809386029093A7
:104EF00087026091890270E090E080E00E94D52EE8
:104F00009B01AC01C701B6010E94982E811196CF7A
:104F100085E071CF2DEC3CEC4CE45EE360918402C3
:104F20007091850280918602909187020E942C2EBA
:104F30006B017C0120E030E04CE152E40E94DD2F67
:104F400087FF09C0C0928402D0928502E092860257
:104F5000F092870273CF80E090E0ACE1B2E48093FE
:104F6000840290938502A0938602B09387020E94E8
:104F70005912609380027093810280938202909311
:104F8000830280E090E0A0E0B1EC80930301909375
:104F90000401A0930501B093060186E02CCF809018
:104FA000030190900401A0900501B090060140908B
:104FB0008002509081026090820270908302E981A9
:104FC000FA813296F490E981FA81E4903196249145
:104FD0002D83C501B4010E94A42EC62ED12CED81D3
:104FE000EE0FEE0FEE0FE850FF0BCE16DF0609F0C6
:104FF000AAC0EE0CEE0CEE0C20E030E040EC50E4E9
:10500000C301B2010E942C2E6D837E838F8398870B
:105010006E2D70E090E080E00E94D52E9B01AC01E7
:105020006D817E818F8198850E94DD2F87FD8BC0E9
:1050300020E030E040E050E4C301B2010E942C2E99
:105040006D837E838F8398876F2D660F660F660F43
:10505000E60E6E2D70E090E080E00E94D52E9B0160
:10506000AC016D817E818F8198850E94982E1816E3
:105070000CF469C0B601DD0C880B990B0E94D52E8B
:105080004B015C0137E0398720E030E04CE552E429
:10509000C501B4010E94DD2F181644F447E049878A
:1050A000812C912C3CE5A32E32E4B32E89819A8188
:1050B00003969A838983ACE4BDE0A817B90709F089
:1050C0007ECF8092030190920401A0920501B092DC
:1050D0000601B985B0938D0380918D03873008F464
:1050E000ADCE80918B038111A9CE0E945A2D24EF61
:1050F00031E040E050E00E94C82D6A3F7105810513
:10510000910509F09BCE0E9459120E94A42E609333
:105110008A0380E090E0A0E0B1EC80938603909356
:105120008703A0938803B093890381E080938B0366
:105130000E945A2D25E030E040E050E00E94C82D4A
:10514000609385037BCE2DEC3CEC4CEC5DE3C5011C
:10515000B4010E942C2E4B015C0196CFC0900B0134
:10516000D0900C01E0900D01F0900E01C0928002F1
:10517000D0928102E0928202F092830220E030E03D
:1051800040E051E4609107017091080180910901AC
:1051900090910A010E942C2E6093030170930401E8
:1051A00080930501909306016091890270E090E080
:1051B00080E00E94D52E9B01AC01C701B6010E9480
:1051C000982E81118ECF89E016CE2DEC3CEC4CE46C
:1051D0005EE360910301709104018091050190915B
:1051E00006010E942C2E60930301709304018093AA
:1051F00005019093060120E030E04CE552E40E9466
:10520000DD2F87FD6ECF0E9459126093800270934C
:105210008102809382029093830280E090E0A0E07C
:10522000B1EC8093030190930401A0930501B09326
:10523000060180918E03875E80938E03843620F46E
:1052400086E080938D03FACD8AE0D5CD10928C0351
:1052500012CE4091CD015091CE016091CF0170915D
:10526000D0018091A5079091A607A091A707B091C2
:10527000A80784179507A607B70720F48DEC91E0DF
:105280000E94701164E670E080E090E00E94AF0A36
:105290000E94290782E080931E0888E090E09093A6
:1052A00019088093180888E290E090931B08809377
:1052B0001A0882E691E00E94201281E080931E0885
:1052C00086E190E0909319088093180882E090E0BE
:1052D00090931B0880931A084091CD015091CE0104
:1052E0006091CF017091D0018091A5079091A607A0
:1052F000A091A707B091A80784179507A607B7073D
:1053000008F09CC08DE691E00E942012C090CD0173
:10531000D090CE01E090CF01F090D001C701B6014E
:105320000E94D32E0E94E22F0E94102F20E030E036
:1053300040E85FE30E942C2E0E94A42E8EE190E0B4
:10534000861B9109880F991F90931908809318085C
:1053500082E190E090931B0880931A084AE0C7010D
:10536000B6010E94D2110E94260768E873E180E02E
:1053700090E00E94AF0A81E08093000192E0909358
:105380000F011092C8011092C7011092D60210921C
:10539000100110928D0394E0909301011092CD01C1
:1053A0001092CE011092CF011092D00140E050E057
:1053B00060E071EC40930301509304016093050198
:1053C0007093060110928E0340E050E060E772E4B3
:1053D00040930B0150930C0160930D0170930E01EB
:1053E00040E050E06CE372E4409307015093080101
:1053F0006093090170930A0110927C0210927D0261
:1054000010927E0210927F0210927802109279021E
:1054100010927A0210927B0280930201109277021E
:105420001092D5021092D1010E94FD100E94B4107A
:105430000E9456140E94FF140C94B61B80E390E067
:10544000909319088093180885EA91E05DCF0E9437
:10545000FD1010928D03809100018F5F80930001F9
:105460008091D6028F5F883009F476C18093D6028E
:105470000E94FF148091C8018F5F8093C80185301E
:1054800009F416C20E9429074090840250908502B8
:10549000609086027090870280908A0290908B02C2
:1054A000A0908C02B0908D02C090C901D090CA012A
:1054B000E090CB01F090CC01E0918902E9832E2E9F
:1054C000312C8091C701813009F478C108F450C1B2
:1054D000823009F496C1833009F4B6C110918C036F
:1054E00010FDD5C12BE63CE03E832D8320E030E06B
:1054F00040E051E4C701B6010E942C2E0E949D2E6F
:1055000008E028E04D815E81C1010E943C072DEC3E
:105510003CEC4CE45EE3C301B2010E942C2E60938C
:1055200084027093850280938602909387022DEC0B
:105530003CEC4CE45EE3C501B4010E942C2E609368
:105540008A0270938B0280938C0290938D022DECD3
:105550003CEC4CE45EE3C701B6010E942C2E6B01CB
:105560007C01C092C901D092CA01E092CB01F092B5
:10557000CC0180E090E0A0EAB1EC80930701909329
:105580000801A0930901B0930A0160E88FE390E05D
:105590000E94DD070E947C100E9426070E94C70A15
:1055A0008090810390908203A0908303B090840345
:1055B000681979098A099B09633371058105910589
:1055C00080F01F5F143008F067C110938C030E94B5
:1055D000C70A60938103709382038093830390933F
:1055E000840320E030E04CE552E4C701B6010E949C
:1055F000982E18160CF046CF1091D502E7E01E9FAA
:10560000D0011124A157BD4FBE83AD8381E08C939F
:10561000F9811196FC9320E030E040E850E4C701A6
:10562000B6010E942C2E0E94A42EAD81BE8112963E
:105630006C930E94C70AED81FE8163837483858326
:1056400096831F5F1A3008F02AC11093D50210917B
:10565000D50247E0149F9001112421573D4F3E830E
:105660002D8381E0D9018C938981845011968C938C
:10567000C701B6010E94A42E062FED81FE81628330
:105680000E94C70AAD81BE8113966D937D938D9361
:105690009C9316971F5F1A3008F004C11093D5022F
:1056A0001091D50227E0129FF0011124E157FD4F20
:1056B000FE83ED8381E0808389818C5F8183028317
:1056C0000E94C70AAD81BE8113966D937D938D9321
:1056D0009C9316971F5F1A3008F0E7C01093D5020D
:1056E00080E090E0A0E7B2E480930B0190930C017E
:1056F000A0930D01B0930E0180E090E0ACE3B2E422
:105700008093070190930801A0930901B0930A01C7
:1057100081E08093100110928E030E9459126093D1
:10572000800270938102809382029093830280E0D2
:1057300090E0A0E0B1EC8093030190930401A0936A
:105740000501B093060186E080938D0310928E03CD
:105750000E9495110C94B61B1092D60280910F01F5
:105760008F5F8B3018F480930F0182CE8AE0FBCFDD
:10577000C301B2010E949D2E3091880208E028E00A
:105780004BEC5CE0832F90E00E943C07C501B40124
:105790000E949D2E30918E0228E043EC5CE0832F26
:1057A00090E00E943C07C701B6010E949D2E28E0B0
:1057B0004BEB5CE0C1010E943C0790CEC301B201FB
:1057C0000E949D2E3091880208E028E043EB5CE0C7
:1057D000832F90E00E943C07C501B4010E949D2EDA
:1057E00030918E0228E04BEA5CE0832F90E00E942B
:1057F0003C07C701B6010E949D2E28E043EA5CE009
:10580000D9CFC301B2010E949D2E3091880208E0D9
:1058100028E04BE95CE0832F90E00E943C07C50143
:10582000B4010E949D2E30918E0228E043E95CE095
:10583000832F90E00E943C07C701B6010E949D2E75
:1058400028E04BE85CE0B6CFC301B2010E949D2E78
:105850003091880208E028E043E85CE0832F90E084
:105860000E943C07C501B4010E949D2E30918E021A
:1058700028E04BE75CE0832F90E00E943C07C701E3
:10588000B6010E949D2E28E043E75CE093CF43E6FB
:105890005CE05E834D832ACE10928C0398CE1092EA
:1058A000D502D5CE1092D502FBCE1092D50218CFDC
:1058B0000E94B41010928D031092C8018091C7010C
:1058C0008F5F843019F08093C70140CF1092C701D9
:1058D0003DCFFF2011F40C94D51B87E190E00E948E
:1058E000090CFF24F3940E94BB0B83FF77C066E989
:1058F00070E080E090E0FF2019F00E94AF0A3DC008
:105900000E94AF0A0E942907F12C08E210E00E94D1
:10591000BB0BE82EEE1CEE24EE1C19F00E942907AA
:10592000FE2C0E94BB0B84FF08C00E9429078BE25B
:1059300090E00E94090CF12C08C0FF20C1F387E120
:1059400090E00E94090CFF24F3940E94BB0B83FF9C
:1059500018C066E970E080E090E0FF2071F20E94DC
:10596000AF0A1092A5071092A6071092A7071092EF
:10597000A80785EA97E00E947011109210010C941C
:10598000B61BE4E1F0E0F0931908E09318081092D8
:105990001B0810921A088CE791E00E94201224E163
:1059A00030E0309319082093180830931B08209397
:1059B0001A088AE891E00E94201244E150E05093D6
:1059C00019084093180810931B0800931A088EE8D2
:1059D00091E00E9420120E94260799CF84E190E076
:1059E000909319088093180890931B0880931A08C5
:1059F00081E991E00E942012A4E1B0E0B09319087F
:105A0000A093180810931B0800931A088AE991E0E4
:105A10000E9420120E9426070C94C31B8F929F9213
:105A2000AF92BF92CF92DF92EF92FF92CF93DF932C
:105A3000EC01688179818A819B81611571058105FD
:105A4000910521F464E279ED8BE597E02DE133EFE8
:105A500041E050E00E94C82D49015A019B01AC0170
:105A6000A7EAB1E40E94E72D6B017C01ACEEB4EF34
:105A7000A50194010E94F52DC60ED71EE81EF91E41
:105A8000F7FE06C081E0C81AD108E10880E8F80AEC
:105A9000C882D982EA82FB82C701B6019F77DF9173
:105AA000CF91FF90EF90DF90CF90BF90AF909F90FD
:105AB0008F9008958F929F92AF92BF92CF92DF9274
:105AC000EF92FF9260911D0170911E0180911F0164
:105AD00090912001611571058105910521F464E221
