:100000000C948F090C94B7090C94B7090C94B70998
:100010000C94B7090C94B7090C94B7090C94B70960
:100020000C94B7090C94B7090C944B150C94BA15A1
:100030000C94B7090C94B7090C94B7090C94B70940
:100040000C94B7090C94B7090C94B7090C94B70930
:100050000C94B7090C94B7090C94B7090C94AB171E
:100060000C94B7090C94B7090C94B7090C94B70910
:100070000C94B7090C94B7090C94B7090C94B70900
:100080000C94B7090C94B7090C94B7090C94B709F0
:100090000C94B7090C94B7090C94B7090C94B709E0
:1000A0000C94B7090C94B7090C94B7090800000028
:1000B000BE922449123EABAAAA2ABECDCCCC4C3E5D
:1000C00000000080BEABAAAAAA3E00000000BF004C
:1000D0000000803F0000000000084178D3BB438748
:1000E000D1133D190E3CC3BD4282AD2B3E68EC825C
:1000F00076BED98FE1A93E4C80EFFFBE01C4FF7FE1
:100100003F000000000014140000E8F4B0BCBC9CE8
:10011000FC0000F4F4B4F4F004E800000000B9B905
:10012000010101B9B90000F1E959B959E0F1000044
:1001300000000303000000030300000102030303A7
:10014000020100000F0F00564A545666BAACBA6658
:1001500056544A5600002D2D212E2C2B032B2C2ECD
:10016000212D2D00F80402A64949A60204F8000139
:10017000010301010301010000F8FC58B6B658FC68
:10018000F800000000000000000000000302060C60
:10019000183060C0000000000000000000010FF8EF
:1001A0000A030000000000000000030A0000000035
:1001B0000000000032001800000020002000200095
:1001C00020002000200000000000000000000000CF
:1001D00000000000003E5B4F5B3E3E6B4F6B3E1CE1
:1001E0003E7C3E1C183C7E3C181C577D571C1C5EF8
:1001F0007F5E1C00183C1800FFE7C3E7FF001824CF
:100200001800FFE7DBE7FF30483A060E2629792978
:1002100026407F050507407F05253F5A3CE73C5AAD
:100220007F3E1C1C08081C1C3E7F14227F22145F8A
:100230005F005F5F06097F017F006689956A6060E5
:1002400060606094A2FFA29408047E040810207EDF
:10025000201008082A1C08081C2A08081E10101064
:10026000100C1E0C1E0C30383E3830060E3E0E06AA
:10027000000000000000005F0000000700070014FD
:100280007F147F14242A7F2A1223130864623649BC
:100290005620500008070300001C224100004122A4
:1002A0001C002A1C7F1C2A08083E080800807030A9
:1002B0000008080808080000606000201008040218
:1002C0003E5149453E00427F40007249494946211E
:1002D00041494D331814127F1027454545393C4A92
:1002E00049493141211109073649494936464949A9
:1002F000291E0000140000004034000000081422F1
:10030000411414141414004122140802015909065E
:100310003E415D594E7C1211127C7F494949363E5F
:10032000414141227F4141413E7F494949417F0945
:100330000909013E414151737F0808087F00417F50
:1003400041002040413F017F081422417F4040404E
:10035000407F021C027F7F0408107F3E4141413EE6
:100360007F090909063E4151215E7F091929462668
:100370004949493203017F01033F4040403F1F206C
:1003800040201F3F4038403F631408146303047843
:1003900004036159494D43007F4141410204081063
:1003A00020004141417F040201020440404040409E
:1003B000000307080020545478407F28444438380C
:1003C00044444428384444287F385454541800087E
:1003D0007E090218A4A49C787F0804047800447D58
:1003E00040002040403D007F1028440000417F40F5
:1003F000007C047804787C08040478384444443849
:10040000FC1824241818242418FC7C080404084828
:100410005454542404043F44243C4040207C1C2079
:1004200040201C3C4030403C44281028444C9090D4
:10043000907C4464544C440008364100000077002E
:1004400000004136080002010204023C2623263C3B
:100450001EA1A161123A4040207A385454555921C6
:1004600055557941215454784121555478402054B0
:100470005579400C1E5272123955555559395454FC
:10048000545939555454580000457C410002457D6B
:10049000420001457C40F0292429F0F0282528F06D
:1004A0007C545545002054547C547C0A097F4932C1
:1004B000494949323248484832324A4848303A413C
:1004C00041217A3A42402078009DA0A07D394444E1
:1004D00044393D4040403D3C24FF2424487E49436C
:1004E000662B2FFC2F2BFF0929F620C0887E0903DD
:1004F00020545479410000447D413048484A323804
:100500004040227A007A0A0A727D0D19317D26292F
:10051000292F28262929292630484D402038080827
:10052000080808080808382F10C8ACBA2F1028345B
:10053000FA00007B000008142A142222142A14084E
:100540009500220095AA005500AAAA55AA55AA000E
:100550000000FF00101010FF00141414FF00101012
:10056000FF00FF1010F010F0141414FC001414F726
:1005700000FF0000FF00FF1414F404FC1414171013
:100580001F10101F101F1414141F00101010F00063
:100590000000001F101010101F10101010F010009D
:1005A0000000FF101010101010101010FF100000AD
:1005B00000FF140000FF00FF00001F10170000FCE8
:1005C00004F414141710171414F404F40000FF00BA
:1005D000F714141414141414F700F7141414171443
:1005E00010101F101F141414F4141010F010F00049
:1005F000001F101F0000001F14000000FC1400006A
:10060000F010F01010FF10FF141414FF141010104D
:100610001F00000000F010FFFFFFFFFFF0F0F0F000
:10062000F0FFFFFF0000000000FFFF0F0F0F0F0F94
:1006300038444438447C2A2A3E147E0202060602CC
:100640007E027E0263554941633844443C04407E47
:10065000201E2006027E020299A5E7A5991C2A49C0
:100660002A1C4C7201724C304A4D4D30304878484B
:1006700030BC625A463D3E494949007E0101017E37
:100680002A2A2A2A2A44445F444440514A4440408A
:10069000444A51400000FF0103E080FF00000808C9
:1006A0006B6B083612362436060F090F0600001849
:1006B000180000001010003040FF0101001F010170
:1006C0001E00191D1712003C3C3C3C0000000000BD
:1006D00000B00000A170E150964F26900F1D070C4E
:1006E000009669004AE44A004844400080681000CF
:1006F0000F99FB8F9DBDBBFB77D4D4DF1F1A1AFE69
:100700007F5D5DFF805A0000A0A4AA0010BA3400EB
:10071000FF5953F3FF9B9B9EFFB9B996FF9595D167
:100720009FF4940FFC295F91FF1838F8FF9294FF13
:10073000FF95D5F7BFB5DDD7F18F81F1F788C8F701
:1007400079C6467909FD9B090196F800828182806D
:10075000507162007756560076763700A2B7730163
:1007600007720600782750007334740077517600C2
:100770007F55F700477110003247720073647300B1
:1007800015A2750061679400009F6060F4F2F6F2B4
:100790000000000000000000000018BCFEC6C2C23D
:1007A000C6FE3C00FCFEC6C2C2C6FE3C0000D8C865
:1007B000002070F8F8202000F8FCFEF67E3E3C3861
:1007C00000F8FCFEC6C2C2C6FEFC00FEFEFE060627
:1007D000060CFCF000FCFEC6C2C2020000000000D5
:1007E0000000000000000000000000000000000009
:1007F00000000E1F1F101010191F0E001F1F1810D1
:1008000010101D1F06001F1F0000001F1F180800EA
:100810000F1F1F1F1E1E1E0C000F1F1F00000000B9
:100820001F1F001F1F1F1818181C0F03001F1F1069
:100830001010100000000000000000000000000088
:100840008D14A1C881CFD9F102AF0000C0E0C00073
:1008500080E08000E080E0F000E0F8E0C080F08020
:100860002060E0C0C0E0E000C08080800080C080E8
:10087000C080E0C0000000C0C08080C080000000D8
:10088000E0E0F0F8E0C0F0E080007E7E7F7F7F7FD8
:100890007F7F7F7F7F7F7F7F7F7F7F7F7F7F7F7F68
:1008A0007E7F7F7F7F7F7F7E7F7F7F7F7F7F7F7F5A
:1008B0007F7F7F7F7E7E7F7F7F7F7F7F7F7F7E7F4B
:1008C0007F7F7F7F7F7F7F7F7F7E3064FFFFFFFFA3
:1008D000FFFFFFFFFFFFFFFF3F7FBFFFFFFFFFFFA8
:1008E000FFFFFFFFFFFFFFFFFFFFFFFFFFFFC7CF80
:1008F000D7FFFFFFFFFFFFFFFFFFFFFFFFFFFFFF30
:10090000FFFFFFFFFFFFFFFFFEFEFEFFFFFFFFFFFA
:10091000FFFFFFF1F3F5FFFFFFFFFFFFFFFFFFFF0B
:10092000FFFFFF7FFF7FFFFFFFFFFFFFFFFFFFFFD7
:10093000FFFFFFF8F9FAFFFFFFFFFFFF3F7FBFFF59
:10094000FFFFFFFFFFFFFFC7CFD7FFFFFFFFFFFF47
:10095000FFFFFFFCFCFDFFFFFFFFFFFFFFFFFFFFAF
:10096000FFFFFFFFC7CFD7FFFFFFFFFFFEFEFEFF2A
:10097000FFFFFFFFFFFFFFFFFFFFFFFFFFFFFFC7BF
:10098000CFD7FFFFFFFFFFFFFFFFFFFFFFFF3FC1CD
:10099000039FBF7F01FF3F430B278F7F7FFFFF7FB9
:1009A0007F3F7F7F1FFF3F7FFFFFFF3F1F2FAF1F57
:1009B000EF8F1F7F8F079F3F3F0FFFFFC6C080C392
:1009C000FEF10FF13C031C39C23AE0FE1003F1F8CE
:1009D000E40E9FE0FC022C9EE0FBFCFEF8E71033E7
:1009E000012971F4E7FCC31F80FFFCF3E7F3833FA9
:1009F000FF3F000F0F00DCFF7F180323FCB6018FC1
:100A000093FCFFF8B400923F1F077FBF2F0DE0E07B
:100A100000FE1E863FFFFEFEF08117BFFFFFFF981E
:100A20000410FDC6CC003A0B70F8FFFFFFBD90002C
:100A3000BDFFFF3F8780E2FCAA001F47F0FFFF1FBA
:100A40008082B8F6E00E4F7FFFFDFCF9FF9F4F8FCD
:100A5000E0E2FFFFFEEC00459FBFBFFFFFF9AC08DF
:100A6000020240FCFFFF7F7F7979800D0780C09EE6
:100A7000FFFFFFFFE6E8E00F4F07CFFF0180ECFF2D
:100A8000FEFFFFFFFDF9C58024FDFFFF7F6C0860BE
:100A9000C1FDFEFDFFFFFFFF3E650400645D5FFFDB
:100AA000FFFFFFFFFFFFFFFFFFFCE103F8FFFFFF7A
:100AB000FFFFFFFFFFFFFF5998900113FAF9FFFFB7
:100AC000FFFFFFFFFFFFDFBD9504000069FFFFFF91
:100AD000FFFFFFFFFFFFFFFF7F8F27F1FFFFFFFFFC
:100AE000FFFFFFFFFFFFFDFAB0240000000CCDFD6B
:100AF000FFFFFFFFFFFFFB63020060F2F8FFFFFF55
:100B0000FFFFFFFFFFFFFF0F00C0FEFF0F0F0F0FE4
:100B10000F0F0F0F0F0F0F0F0F0D0C08090000071D
:100B20000F0F0F0F0F0E0A00080C0D0C0F0F0F0FF9
:100B30000F0F0F0F0F0F0108000F0F0FFFFFFFFF29
:100B4000FFFFFFFF0808003C5A66665A3C00001091
:100B5000B8FCFEFFFFFFFFFFFFFEFCF8FCFEFEFF00
:100B60007F3E60F1FBFFFFFFFFFFFFFFFFFFFFFF87
:100B7000FFFFFFFE3C1C0001030703030301030703
:100B80000F0F0F0F0F07010100000000FCFCFCFC21
:100B9000FCFC000000000000000000000000FFFF5F
:100BA000030303030303FFFF03030303030303031D
:100BB0000303080890652ADA6456BB481E007800D3
:100BC00002013801C2010802260258028A029E026E
:100BD000BC02D002E402EE02F802020302030C039C
:100BE0000C0316039D039D034C04B0044C04B00495
:100BF0004C04B004B0041405CEFF4000030008000C
:100C000028001E00080001008C00100002000200F5
:100C1000AC00200002000400CC00300002000600FE
:100C2000DC00100001000200FA0010000A000200BF
:100C300002013200080001005E01300003000600DE
:100C40009001180003000300C20118000C0003000B
:100C500080022000140004006B031800030003004E
:100C6000B603300003000600E80318000300030089
:100C7000576F7765652C20796F75206265617420E8
:100C80006D792067616D652E200000000000000076
:100C90000000000000000000000000000000000054
:100CA0000000000000000000000000000000000044
:100CB0000000000000000000000000000000000034
:100CC0000000000000000000000000000000000024
:100CD00000000000492063616E2774207361792051
:100CE00049276D207375727072697365642E2000D8
:100CF00000000000000000000000000000000000F4
:100D000000000000000000000000000000000000E3
:100D100000000000000000000000000000000000D3
:100D200000000000000000000000000000000000C3
:100D3000000000000000000057656C6C20756D2CF1
:100D400020696620796F7527726520202020202079
:100D500020206665656C696E6720736164697374D1
:100D600069632E2E2E20000000000000000000000D
:100D70000000000000000000000000000000000073
:100D80000000000000000000000000000000000063
:100D90000000000000000000000000005468656EC4
:100DA00020636F6E74696E7565206B696C6C696E1B
:100DB0006720202020202020207374756666212063
:100DC0000000000000000000000000000000000023
:100DD0000000000000000000000000000000000013
:100DE0000000000000000000000000000000000003
:100DF00000000000000000000000000000000000F3
:100E0000576F772C20796F75207375636B2E2000D8
:100E100000000000000000000000000000000000D2
:100E200000000000000000000000000000000000C2
:100E300000000000000000000000000000000000B2
:100E400000000000000000000000000000000000A2
:100E50000000000000000000000000000000000092
:100E600000000000492063616E27742062656C6990
:100E700065766520796F7520202020202020616311
:100E80007475616C6C7920646965642E20000000C3
:100E90000000000000000000000000000000000052
:100EA0000000000000000000000000000000000042
:100EB0000000000000000000000000000000000032
:100EC000000000000000000049742773206E6F745A
:100ED000206C696B652065766572797468696E67E8
:100EE000206F6E652D73686F747320796F7520693C
:100EF0006E207468697320202020202067616D6552
:100F00002E20000000000000000000000000000093
:100F100000000000000000000000000000000000D1
:100F2000000000000000000000000000486168614F
:100F300068612049276D20736F2066756E6E792E6B
:100F40002000000000000000000000000000000081
:100F50000000000000000000000000000000000091
:100F60000000000000000000000000000000000081
:100F70000000000000000000000000000000000071
:100F80000000000000000000000000000000000061
:100F900057656C6C20756D2C2067657420626163E9
:100FA0006B20696E2020202020202020746865722C
:100FB000652C206275642E200000000000000000F7
:100FC0000000000000000000000000000000000021
:100FD0000000000000000000000000000000000011
:100FE0000000000000000000000000000000000001
:100FF00000000000546865726527732073706F6F7E
:101000006B7920616C69656E73206F7574207468EC
:101010006572652E20000000000000000000000046
:1010200000000000000000000000000000000000C0
:1010300000000000000000000000000000000000B0
:1010400000000000000000000000000000000000A0
:101050000000000000000000476F20616E64206BFC
:10106000696C6C207468656D2E2000000000000023
:101070000000000000000000000000000000000070
:101080000000000000000000000000000000000060
:101090000000000000000000000000000000000050
:1010A0000000000000000000000000000000000040
:1010B00000000000000000000000000059656168A9
:1010C0002E200000000000000000000000000000D2
:1010D0000000000000000000000000000000000010
:1010E0000000000000000000000000000000000000
:1010F00000000000000000000000000000000000F0
:1011000000000000000000000000000000000000DF
:1011100000000000000000000000000000000000CF
:10112000546865726527732061206C6F74206F6648
:101130002070617373697665206F6E65732E200071
:10114000000000000000000000000000000000009F
:10115000000000000000000000000000000000008F
:10116000000000000000000000000000000000007F
:10117000000000000000000000000000000000006F
:1011800000000000546865206F74686572206F6EFF
:10119000657320617265206B696E642020206F6624
:1011A0002062727574616C2E200000000000000047
:1011B000000000000000000000000000000000002F
:1011C000000000000000000000000000000000001F
:1011D000000000000000000000000000000000000F
:1011E000000000000000000044696420796F752051
:1011F0006B6E6F772074686174206120202020203E
:101200002020206865616C74687920616D6F756E4F
:1012100074206F6620736C656570202020206973D0
:1012200020362D3820686F7572733F200000000053
:1012300000000000000000000000000000000000AE
:101240000000000000000000000000004920707550
:1012500074207468617420696E20666F72207468EF
:1012600065202020202022656475636174696F6E9B
:1012700022207468656D652E2000000000000000CB
:10128000000000000000000000000000000000005E
:10129000000000000000000000000000000000004E
:1012A000000000000000000000000000000000003E
:1012B000080B000202020100090400000102020002
:1012C0000005240010010524010101042402060583
:1012D00024060001070581031000400904010002F3
:1012E0000A000000070502024000000705830240D3
:1012F00000000403090412010002EF02014041232F
:10130000368000010102030141726475696E6F202D
:101310004C4C430041424131313036008818112491
:101320001FBECFEFDAE0DEBFCDBF12E0A0E0B1E03C
:10133000EAEEF1E502C005900D92AA32B107D9F7A5
:1013400029E0AAE2B2E001C01D92A433B207E1F79E
:1013500019E0CFE8D9E004C02197FE010E94ED28F2
:10136000CE38D107C9F70E94EF190C94F3280C94DA
:10137000000090E0E2EAF2E091119FEF8FEF91938D
:101380009193919391938150D0F70895E2EAF2E01E
:1013900030EB20E146E05C983EBD4A95F1F72EBD6A
:1013A00020E8239507C0449140815C9A4EBD81118D
:1013B000412D419344912A95B1F73395383B49F734
:1013C0000DB408956F927F928F929F92AF92BF92C9
:1013D000CF92DF92EF92FF920F931F93CF93DF9301
:1013E0007C014115510509F4A2C090E0B0E0A0E0F5
:1013F000FA0182E015910591911511F49115B1F062
:1014000047E0400F479546954695833009F4440FD1
:10141000419FA001949FE00DF11D959FF00D109646
:1014200029F0949FA00DB11D959FB00D11248F3F01
:1014300021F4109682E009F081E0C12FD0E0A701ED
:101440004C0F5D1F141615060CF071C090E8E916DC
:10145000F1040CF06CC09B01200F311D1216130615
:101460000CF065C0603471050CF061C0309709F470
:101470005EC0362F37706B0177FF03C097E0C90E4F
:10148000D11C93E0D594C7949A95E1F72C2D77FF62
:1014900004C0332311F02FEF2C0DAA24BB24AE1867
:1014A000BF08F7FC02C0B12CA12C90E89E1940386F
:1014B00051050CF4912F9A19622F022E000C770B14
:1014C000562F50952F3F0CF050E0CC24C394402F62
:1014D000477009F4C12CD02ED694D694D694DC0C47
:1014E0006D0D711D693071051CF048E0D42ED21AC3
:1014F000D51A250F40E82403B00111246E0D7F1D7D
:101500006A0D7B1D159FA00CB11C1124AF014A0D63
:101510005B1D032F032E000C110B833009F416C141
:10152000A8F4813009F4C7C0823009F473C0DF9198
:10153000CF911F910F91FF90EF90DF90CF90BF90D0
:10154000AF909F908F907F906F9008958A3F99F110
:10155000BD2CB20E8B3F59F72B1549F3DB01AE556D
:10156000BD4FF12CE12CE91608F09FC0FA01EE0DF9
:10157000FF1DE491F0E0002E02C0EE0FFF1F0A9461
:10158000E2F727FD05C08C91DE2ED0948D218C933F
:10159000332361F0273054F46D0180E8C80ED11C6C
:1015A000AF2EA094F60180818A218083FFEFEF1A8D
:1015B000FF0A1196D8CFBD2CB20E2B1509F4B7CF68
:1015C000DB01AE55BD4FF12CE12CE91608F067C0E8
:1015D000FA01EE0DFF1DE491F0E04F01002E02C074
:1015E000880C991C0A94E2F727FD03C08C91882986
:1015F0008C93332351F0273044F46D01E0E8CE0E94
:10160000D11CF601808189298083FFEFEF1AFF0A40
:101610001196DBCFAFEFB0E0032E02C0AA0FBB1FC5
:101620000A94E2F7A095B0959B2E8D2C820E28157A
:1016300009F47DCFFB01EE55FD4F7F01D12CC12C6C
:10164000C91638F5FA01EC0DFD1DE491F0E03F01FB
:10165000002E02C0660C771C0A94E2F727FD05C035
:10166000F70180818A2386298083332359F027302C
:101670004CF45701F0E8AF0EB11CF50180818921CF
:1016800087298083FFEFCF1ADF0A8FEFE81AF80A65
:10169000D7CF2F5F4C0F5D1F60587F4FC8CF2F5F94
:1016A0004C0F5D1F60587F4F88CF2F5F4C0F5D1F21
:1016B00060587F4F51CFAA0DBB1D8D2D820F28176B
:1016C00009F435CFFB01EE55FD4F7F01D12CC12C24
:1016D000C916A0F5FD01EC0DFD1DA490B12C002E46
:1016E00002C0AA0CBB1C0A94E2F7A094B094FA01C1
:1016F000EC0DFD1D8490912C002E02C0880C991CCD
:101700000A94E2F727FD08C0F7017080E72DEA216F
:101710007E2E7828F7017082332349F027303CF47D
:10172000F701E058FF4FA080BA20B928B082FFEF40
:10173000CF1ADF0AEFEFEE1AFE0ACACF2F5F4C0F67
:101740005D1FAC0FBD1F60587F4FB9CFE92EF12C44
:10175000A40EB51EDB01AE55BD4F00E810E00E191A
:101760001F09CE19DF09BE01660F771F41E050E067
:101770007A01032E01C0EE0C0A94EAF7592F4D2D81
:10178000892EF501932ECF93DF93ED01EF96EF961F
:101790002296A590C590992059F0AE9C5001CE9C00
:1017A000600127302CF4F880D094FD20FB28F992BA
:1017B00022233AF0FC90C094FC20FA28FD920C946D
:1017C000E20B11965A9529F74A9551F0582D239519
:1017D0001124E60FF11DA00FB11DC00FD11DD9CFEF
:1017E000DF91CF911124A3CE20914E028091C206A9
:1017F000922F981B8091C306882331F09093C406E2
:101800001092C30680E008953091C106931740F40A
:101810009F5F9317A0F491E093BF889513BE08953E
:1018200081E08093C3062093C2068091BD0690910B
:10183000BE0601969093BE068093BD0681E0089592
:101840004F925F927F928F929F92AF92BF92CF9270
:10185000DF92EF92FF920F931F93CF93DF93A22F0C
:10186000B0E0FC01EA0FFB1F309709F497C0803805
:1018700091050CF093C0EB01C00FD11DCD2B09F4E5
:101880008DC0603471050CF089C04115510509F413
:1018900085C0162F1770C3E075956795CA95E1F757
:1018A000362FE038F10514F020E8281BF1E0E02F96
:1018B000E77009F4F0E00695069506950F0FFB0119
:1018C000E00FF11D399714F008E0061BFB01F695B7
:1018D000FE2FEE27F795E7958E0F9F1FEE2059F00C
:1018E000C22FD0E0FE0131976D01CC1ADD0AEC0D5C
:1018F000FD1D4E0F5F1FC12E012E000CDD088E5501
:101900009D4FE22FF0E05D01AE1ABF0AAE0FBF1F80
:10191000E32FE61BE01708F041C0D0E0C0E0C2179B
:1019200090F5FA01F490FF2029F1EF2DF0E02F015E
:101930000C2C02C0440C551C0A94E2F737FD09C078
:101940004C018C0E9D1EF4017080F42CF094F72055
:10195000F082112379F037306CF44E01F0E88F0EED
:10196000911C880E991EF401F080E52DE095FE2271
:10197000F401F082EE2021F0415051092196CFCFA1
:101980004F5F5F4FFBCF3F5FEE2029F04A0F5B1F99
:1019900080589F4FBDCF4A0D5B1DFACFDF91CF918D
:1019A0001F910F91FF90EF90DF90CF90BF90AF907D
:1019B0009F908F907F905F904F900895FC01809151
:1019C0004D02882311F13FB7F89482E08093E9003B
:1019D0002091F200822F90E01816190614F481E08D
:1019E00090E0882339F0289844E640934C024091D7
:1019F000F1004083222339F02091F200211103C02D
:101A00002BE62093E8003FBF08958FEF9FEF0895E6
:101A10002FB7F89483E08093E9009091E800892F34
:101A2000807295FF04C09091F20080E4891B2FBF63
:101A300008958091440281110DC082E0809340029C
:101A400084E080934102109243021092420281E0AE
:101A50008093440280E492E00895CF93DF931F9235
:101A6000CDB7DEB76983DC01ED91FC910280F38193
:101A7000E02D41E050E0BE016F5F7F4F09950F9070
:101A8000DF91CF91089583E08093E9008091F20087
:101A9000882319F08AE38093E80008950E94080DD6
:101AA00090E00895CF93DF931F92CDB7DEB7FC018E
:101AB0008485958597FD08C02FEF3FEF35872487F4
:101AC0000F90DF91CF910895CE0101960E94DE0C18
:101AD000019719F4898190E0F3CF8FEF9FEFF0CF5A
:101AE0000F931F93CF93DF931F92CDB7DEB78C0177
:101AF000FC018485958597FF0BC0CE0101960E945D
:101B0000DE0C019771F4898190E0F8019587848754
:101B1000F801848595850F90DF91CF911F910F91EA
:101B200008958FEF9FEFF1CFFC018485958597FD98
:101B30000BC09FB7F89482E08093E9008091F20097
:101B40009FBF90E0019608959FB7F89482E080933C
:101B5000E9008091F2009FBF90E0089540913A0221
:101B600050913B02209138023091390242175307BD
:101B7000B4F49091E8009570E1F39091E80092FD43
:101B800019C08093F10080913A0290913B02019636
:101B90008F739927892B19F48EEF8093E800809139
:101BA0003A0290913B02019690933B0280933A0255
:101BB00081E0089580E00895DF92EF92FF920F9305
:101BC0001F93CF93DF93D82E8A01EB017B01E40EA4
:101BD000F51ECE15DF0559F0D7FE12C0FE01849127
:101BE0000E94AE0D21968111F4CF0FEF1FEFC801B7
:101BF000DF91CF911F910F91FF90EF90DF900895AB
:101C00008881EECF0F931F93CF93DF931F92CDB7B1
:101C1000DEB782E0898342E450E060EB72E180E865
:101C20000E94DC0D0E94190DDC0112960D911C9191
:101C30000115110589F0D801ED91FC910280F38125
:101C4000E02DBE016F5F7F4FC801099597FD04C06D
:101C5000F80100851185ECCF89810F90DF91CF913C
:101C60001F910F910895615030F02091F100FC0117
:101C700020830196F8CF289884E680934C0208953B
:101C8000AEE2B2E02FB7F8947D918D919C9166B54C
:101C90002FBFA89B05C06F3F18F47F5F8F4F9F4FEA
:101CA00022E0660F771F881F991F2A95D1F70895A4
:101CB000AF92BF92CF92DF92EF92FF920F931F935A
:101CC000CF93DF936C017B018B01040F151FEB0198
:101CD0005E01AE18BF08C017D10759F06991D6014F
:101CE000ED91FC910190F081E02DC6010995892BC1
:101CF00079F7C501DF91CF911F910F91FF90EF9080
:101D0000DF90CF90BF90AF900895FC010E94400EED
:101D1000319728F068517C4F8F4F9F4FF9CFAB011F
:101D2000FC010E94400E641775078E079F07C8F3D9
:101D300008958F929F92AF92BF92CF92DF92EF92CF
:101D4000FF920F931F93CF93DF936C017B018A0166
:101D500080910D01882309F45AC080914D02882397
:101D600009F455C080913F0280FF05C08091E000DA
:101D700082608093E000E801B12C8AEFA82E93E006
:101D8000892E2AE3922E209711F4BB20C9F10E94DC
:101D9000080D811108C0AA94AA20C9F181E090E041
:101DA0000E94850EF0CF8C171D0611F00CF08C2FC1
:101DB0009FB7F8948092E9002091E80025FD02C0C9
:101DC0009FBFE1CF282F30E0C21BD30BF70181501A
:101DD00020F041914093F100FACFE20EF31EBB20B8
:101DE00021F09092E800B12CEBCF8091E80085FDC6
:101DF000E7CF9092E800BB24B394209709F3F3CF88
:101E00005D9884E680933E02101611063CF081E056
:101E100090E0F6019383828310E000E0C801DF9137
:101E2000CF911F910F91FF90EF90DF90CF90BF90D7
:101E3000AF909F908F9008956F927F928F929F9214
:101E4000AF92BF92CF92DF92EF92FF920F931F93C8
:101E5000CF93DF934C017B01C22F102F98E0A92E66
:101E6000B12C642E669466946694712CCA018770B6
:101E70009927892B79F5D40117962D913C91C701AB
:101E80009927B9010E94C528269DF001279DF00DD4
:101E9000369DF00D11248E0F9F1FD4011596ED91E4
:101EA000FC91E80FF91F2081111112C0C095C223C7
:101EB000C083DF91CF911F910F91FF90EF90DF9042
:101EC000CF90BF90AF909F908F907F906F9008952C
:101ED000C22BEECFD0E04770C42ED12C83E0660C2D
:101EE000771C8A95E1F79E0101C0220F4A95EAF717
:101EF000012FA301B701C4010E941C0FA301485F79
:101F00005F4FC5018C199D0902C0D595C7958A956B
:101F1000E2F7A7CF5F926F927F928F929F92AF92DC
:101F2000BF92CF92DF92EF92FF920F931F93CF93C6
:101F3000DF93EC016A30F1F48D859E859C878B8759
:101F40008B892F853889820F932F911D988B8F87CE
:101F500081E090E0DF91CF911F910F91FF90EF9082
:101F6000DF90CF90BF90AF909F908F907F906F90B9
:101F70005F900895AB84BC84693031F429E0A20EEF
:101F8000B11CBC86AB86E4CF3DEFA3163FEFB30692
:101F90000CF459C08F819885A816B9060CF053C06F
:101FA000CF84D8888DEFC8168FEFD8060CF44BC0BD
:101FB00089859A85C816D9060CF045C0603208F4A8
:101FC0006FE780EE860F9FE9960F9A3118F49FEF26
:101FD000C91AD90A8C3011F08B3119F42FEFC21ABB
:101FE000D20A869534E0839FC00111249C012053BE
:101FF000394F7901912C812C6170562EF701E80D33
:10200000F91D1491511029C01F703501680C791CFD
:102010008C81882351F001E08989811100E02FE053
:10202000A601B301CE010E941C0F0989212FA60130
:10203000B301CE010E941C0F3FEF831A930A84E084
:1020400088169104D9F68A8990E004962B853C8500
:10205000820F931F9C878B877BCF1295D5CF2D9AAC
:1020600008950C94850E0E940818089520E191E0CF
:1020700061FD94E060FD990F62FD9295687F269F57
:10208000D0011124A80FAE55BD4F8C9140FF03C065
:10209000892B8C93089590958923FBCF8F929F92E3
:1020A000AF92BF92CF92DF92EF92FF920F93CF93B6
:1020B000DF935B01EC014C01840E911C6B01C20E9D
:1020C000D11CC815D905ECF47501B7FE02C0F12C7E
:1020D000E12CC60121E4C216D10414F080E490E0A2
:1020E000E816F90664F4C038D10528F4402FB7018A
:1020F000CE010E9436108FEFE81AF80AEACF219637
:10210000E0CFDF91CF910F91FF90EF90DF90CF90D4
:10211000BF90AF909F908F9008952F923F924F92D3
:102120005F926F927F928F929F92AF92BF92CF9267
:10213000DF92EF92FF920F931F93CF93DF93CDB770
:10214000DEB728970FB6F894DEBF0FBECDBF9E83D3
:102150008D836A3061F5DC0155968C91B8E08B9FD8
:1021600090011124ED81FE8181899289820F931F54
:10217000928B818B108A178681E090E028960FB6AB
:10218000F894DEBF0FBECDBFDF91CF911F910F91AD
:10219000FF90EF90DF90CF90BF90AF909F908F9087
:1021A0007F906F905F904F903F902F9008956D308B
:1021B00019F32D813E8138872F83D9011F960D9108
:1021C0001C915097003811050CF07CC05196AD90D1
:1021D000BC90B0E4AB16B1040CF074C0F9012588D2
:1021E00025E0C801229E800D911D112418161906A4
:1021F0000CF068C0622C712CC30133E0880F991F6A
:102200003A95E1F78A0D9B1D181619060CF05AC075
:10221000F489FB83AF81B8855396BC91BC83629FE0
:10222000B0011124FB01E053FE4F2F011982F2018E
:102230008491F981F53009F480E0450128E02A8392
:10224000A82FB0E0BE83AD833C8080FF3B8031107F
:1022500004C0BB81EC81BE17F9F078018E2D801B84
:102260008215D0F4D12CC12CC21490F4F0E8EF16F2
:10227000F10450F4B601680D791D6034710520F445
:10228000432DC7010E9436102FEFC21AD20AECCF9D
:102290003FEFE31AF30AE2CF8D819E8195958795F2
:1022A0009A8191509A83860C971C9111C9CFA9816C
:1022B000AF5FA983BFEF4B1A5B0A060D171DA6304F
:1022C00009F0B5CFEF81F8852589422F50E0878549
:1022D0009089F6E02F9F800D911D1124AF81B88564
:1022E00050969C938E931F9756962C915697222327
:1022F00009F442CF6AEF64039001659F300D112409
:1023000020583F4F281739070CF036CFED91FC913C
:1023100011970190F081E02D6AE0CD0109952CCF55
:102320002F923F924F925F926F927F928F929F92E5
:10233000AF92BF92CF92DF92EF92FF920F931F93D3
:10234000CF93DF93CDB7DEB72A970FB6F894DEBFF1
:102350000FBECDBF30E0F901E80FF91FF7FDAAC0AD
:10236000803891050CF0A6C0602E712CF301E60FA9
:10237000F71FF7FD9FC0603471050CF09BC0E62F7E
:10238000E770FE2EE3E075946794EA95E1F7DA01D1
:10239000F3E075956795FA95E1F7462F660F550BB3
:1023A0005A8749875695542F442757954795480F84
:1023B000591F1E821D8210E000E0BA016E557D4F4C
:1023C0007A836983BA016E5D7C4F7C836B83601670
:1023D000710609F46FC0C984DA84C00ED11E78E09A
:1023E000C716D1040CF066C0EFEFCE16DE060CF473
:1023F00053C049805A804D815E81440E551E8B80AA
:102400009C80840E951E50E040E0421753070CF06C
:1024100043C0FA01E80FF91FE038F1050CF03CC0A9
:10242000F7FD2FC0FD01E40FF51FE491F0E0BF01BF
:102430000F2C02C0660F771F0A94E2F778876F832C
:102440007FEFC716D70699F15201A40EB51EF5010C
:102450003080F1E0EF1218C0362AF5013082FF20FB
:1024600081F0F7E0CF16D10461F05401A40EB51E3F
:10247000F5013080F1E0EF120BC06885362AF501D6
:1024800030824F5F5F4FC1CF2F8020943220E5CF45
:10249000E885E0953E22F3CF0F5F1F4FA20FB31FD9
:1024A0004D815E8140585F4F5E834D8390CFF11028
:1024B000DCCFE7CF2A960FB6F894DEBF0FBECDBFB4
:1024C000DF91CF911F910F91FF90EF90DF90CF9010
:1024D000BF90AF909F908F907F906F905F904F9044
:1024E0003F902F9008950895089590E080E008951A
:1024F000CF93C0E00E94331083FD04C00E943310CC
:1025000082FFC1E00E94331083FF04C0C13091F705
:10251000CF9108950E94331082FDF8CFEBCFCF9377
:10252000DF93ADECB6E02CEB3BE042EB51E061E039
:1025300056966C93569754961C92549755961C92A7
:102540005597F90185919491F9013296C591D491ED
:102550008C0F9D1F969587951D969C938E931C9727
:10256000FA01859194911F969C938E931E971996CC
:102570008D919C911A9753969C938E93529718968F
:102580008C91189790E091958195910951969C9323
:102590008E93509757962C5F3F4F4E5F5F4F88E06A
:1025A000A632B80709F0C4CFDF91CF9108958F927A
:1025B0009F92AF92BF92CF92DF92EF92FF920F93D2
:1025C000CF93DF93EC017B015A01690100E021E028
:1025D0004CE00E944E1023E041E0B701CE010E9482
:1025E0004E10B7016E5F7F4F21E04CE0CE010E949C
:1025F0004E1023E041E0B701CE010C960E944E1030
:102600008FEFE81AF80A219601E021E04AE0B701CD
:10261000CE010E944E10B501BB0C880B990B0E9495
:1026200016274B015C01B601DD0C880B990B0E944B
:1026300016279B01AC01C501B4010E946C2620E065
:1026400030E040E251E40E9423280E94E526462F14
:1026500000E021E0B701CE010E944E10DF91CF9142
:102660000F91FF90EF90DF90CF90BF90AF909F9031
:102670008F900895CF92DF92EF92FF920F931F9366
:10268000CF93DF93A0913502B0913602BD0193E064
:10269000660F771F9A95E1F76850744FC5E4D0E054
:1026A0002091330230913402A217B3070CF04CC0D2
:1026B000FB0145915491FB01349625913491FB0126
:1026C0003296C590D490FB013696E590F490009137
:1026D0000E0110910F01401B510B455C5F4FE091C3
:1026E0001001F09111014534510504F5220F220F1C
:1026F000220F240F352F311D2C333105BCF0EC197E
:10270000FD09B896E233F1058CF4EE0CEE0CEE0CFC
:10271000EE0DF11DB99754F0813061F02B53310962
:10272000200F311F30930F0120930E011196685F27
:102730007F4FB6CF9E01241B350B021B130B10934A
:102740000F0100930E01F2CFDF91CF911F910F91F6
:10275000FF90EF90DF90CF9008958F929F92AF926D
:10276000BF920F931F93CF93DF93CDB7DEB7A1979F
:102770000FB6F894DEBF0FBECDBF19A2423008F4E9
:102780004AE08E010F5D1F4F842E912CB12CA12C9D
:10279000A50194010E94C925E62FB901CA01EA30BA
:1027A00044F5E05DD801EE938D01232B242B252BDE
:1027B00079F790E080E0109769F0FD01019000202A
:1027C000E9F73197AF014A1B5B0BBD0182EA96E046
:1027D0000E94580EA1960FB6F894DEBF0FBECDBF73
:1027E000DF91CF911F910F91BF90AF909F908F90ED
:1027F0000895E95CD7CFCF92DF92EF92FF92CF930B
:10280000DF936C01990FEE08FF08F7FE19C06DE227
:1028100082EA96E00E948A0FEC0166277727CB01B7
:102820006C197D098E099F094AE00E94AD138C0F37
:102830009D1FDF91CF91FF90EF90DF90CF90089593
:102840004AE0C701B601DF91CF91FF90EF90DF9092
:10285000CF900C94AD138F929F92AF92BF92CF9274
:10286000DF92EF92FF920F931F93CF93DF93D82FB6
:10287000C92F4B0100E023E441E870E060E090E004
:1028800080E00E944E10ED2EFC2EB12CA12C00E019
:1028900010E0D0E0C0E06701CC0EDD1EF6018491AF
:1028A000882309F45CC00E94F40B8823B9F380E00C
:1028B0000E94C6091937F0F0F60184918E3219F0A2
:1028C0008491813251F4F601649186EB96E00E9486
:1028D0008D10219680E00E94C609065FFE01EE0D74
:1028E000FF1D8491803219F0E491EE3211F42196AB
:1028F000F5CF10E00733E0F00E94781200E023E407
:1029000041E870E060E090E080E00E944E1010929C
:10291000C6061092C5061092C8061092C70641E07E
:1029200050E061E072E086EB96E00E94580E15E000
:10293000812F90E09093C6068093C506802F90E08B
:102940009093C8068093C706F701EC0FFD1F6491B2
:1029500086EB96E00E948D101B5F21969CCF0E9413
:10296000781200E023E441E870E060E090E080E06D
:102970000E944E10FFEFAF1ABF0A84E6E80EF11C6A
:102980008A149B0409F083CFDF91CF911F910F919F
:10299000FF90EF90DF90CF90BF90AF909F908F907F
:1029A00008950C948125AF92BF92CF92DF92EF925F
:1029B000FF920F931F93CF93DF93EC017B018A016A
:1029C000809164008E7F8093640080917A0080649F
:1029D00080937A0080917A0086FDFCCFC0907800C9
:1029E000D09079000E94400EAB01BC01C601B0E05E
:1029F000A0E0DC01992788275C016D01A40EB51EBB
:102A0000C61ED71EC601B501209164002160209327
:102A10006400611571058105910511F00E9478250A
:102A20008C89811111C00E94292522E030E040E00C
:102A300050E00E9497252885822F90E0672B21F592
:102A4000998B888B89E18C8B8C859D852889398928
:102A5000820F931F8E159F05DCF09D878C878C85D8
:102A60009D850817190714F41D870C878C898150E0
:102A70008C8BDF91CF911F910F91FF90EF90DF90A2
:102A8000CF90BF90AF900895919581959109D8CF3F
:102A9000FD86EC86E4CF1F920F920FB60F921124A1
:102AA0008F939F938091E1009091E100937F9093A9
:102AB000E10083FF0FC01092E90091E09093EB00DA
:102AC0001092EC0092E39093ED0010924D0298E08A
:102AD0009093F00082FF22C093E09093E9009091E0
:102AE000F200992319F09AE39093E80090913E0246
:102AF000992341F090913E02915090933E029111A2
:102B000001C05D9A90914C02992341F090914C0242
:102B1000915090934C02911101C0289A84FF18C0E3
:102B20008091E2008E7E81608093E2008091E100DE
:102B30008F7E8093E10080913F028E7E8061809342
:102B40003F029F918F910F900FBE0F901F9018958D
:102B500080FFF7CF8091E2008E7E80618093E2005B
:102B60008091E1008E7E8093E10080913F028E7E15
:102B70008160E5CF1F920F920FB60F921124CF9272
:102B8000DF92EF92FF920F931F932F933F934F93F8
:102B90005F936F937F938F939F93AF93BF93EF93C5
:102BA000FF93CF93DF93CDB7DEB76C97DEBFCDBF7A
:102BB0001092E9008091E80083FF25C068E0CE0113
:102BC00045960E94330E82EF8093E8008D8987FF3F
:102BD00039C09091E80090FFFCCF982F907609F0D3
:102BE00034C19E894F89588D2F89F88C911131C03D
:102BF000803861F580913D028093F1001092F100E0
:102C00008EEF8093E8006C960FB6F894DEBF0FBE8F
:102C1000CDBFDF91CF91FF91EF91BF91AF919F9188
:102C20008F917F916F915F914F913F912F911F9164
:102C30000F91FF90EF90DF90CF900F900FBE0F900D
:102C40001F9018959EEF9093E800C7CF1092F10067
:102C5000D5CF913059F48111D3CF4130510581F650
:102C600080913D028D7F80933D02CACF933049F41D
:102C70008111C6CF4130510519F680913D02826025
:102C8000F2CF953041F48091E80080FFFCCF2068BE
:102C90002093E300B5CF963009F0A9C00B8D1C8DB1
:102CA00022E01092E90010923B0210923A02F212D6
:102CB0002EC010923902109238020E94020E1F821A
:102CC00099E09983FA8291E09E8390EA98879AEF3F
:102CD000998720913A0230913B02275F3F4F3C8316
:102CE0002B838D831092E90010923B0210923A02DE
:102CF000109339020093380249E050E0BE016F5F43
:102D00007F4F80E00E94DC0D0E94020E79CF10936D
:102D10003902009338020E94190DDC0112960D91C0
:102D20001C910115110509F410C1D801ED91FC9118
:102D30000480F581E02DBE016B5E7F4FC8010995CF
:102D4000009709F0FDC0F80100851185EACFF3E096
:102D5000FF120EC08F89882309F440C0823061F4CD
:102D600040E867E084E193E10E941018811148CFA8
:102D700081E28093EB0047CF813029F440E86BE09B
:102D800088E093E1F1CF833099F70E94190DDC01BF
:102D90001296ED90FC908E010F5F1F4F6801E114B9
:102DA000F10479F0D701ED91FC910680F781E02DD7
:102DB000B801C7010995080F111DF701E084F184DE
:102DC000EECFD8011C92F60101900020E9F731976F
:102DD000BF016C197D0940E0C601C6CF62EF72E108
:102DE000FB01449150E080E80E94DC0D09CF973050
:102DF00009F4BECF983021F481E08093F10000CF38
:102E0000993009F0FDCE837009F0B2CFEBE3F1E029
:102E100081E031E096E32191222371F08093E90073
:102E20003093EB00DF0111972C912093EC009093ED
:102E3000ED008F5F873079F78EE78093EA0010927C
:102E4000EA008F8980934D02DBCE8B8D9C8D109292
:102E5000E90010923B0210923A029093390280935B
:102E60003802898D811151C08E899D89913A49F42A
:102E7000813209F07DCF47E050E066E071E080E00C
:102E8000B3CF913209F074CF833269F48F89988D72
:102E9000B0E0A0E08093020190930301A0930401AD
:102EA000B0930501ADCE803269F48091E80082FFD5
:102EB000FCCF67E086E091E00E94330E8BEF8093B9
:102EC000E8009ECE823209F09BCE8F8980930D015F
:102ED0008091060190910701A0910801B09109012C
:102EE000803B9440A105B10569F480910D0180FDFE
:102EF00009C088E780933C02809164008F7D8093B5
:102F000064007ECE10923C027BCE0E94190DDC0143
:102F100012960D911C910115110509F429CFD801C4
:102F2000ED91FC910190F081E02DBE016B5E7F4F31
:102F3000C8010995811164CEF80100851185EBCF98
:102F4000181619060CF45CCE13CFF1E0FF12FFCE79
:102F500066EF72E145CF0F930FB70F931F921124C5
:102F60008F939F93EF93FF93EEE4F2E080912D0215
:102F700091E08D5F8D3710F08D57939580932D02E2
:102F80008081890F80839181911D91830281011D30
:102F900002838381811D838309270F70092702958E
:102FA00000932C0235D0811100932A02803989F4D4
:102FB00000912B02901B963070F087E780930008F9
:102FC0008093010888E198E080936000909360000E
:102FD000FFCF90932B0280913C02815018F0809398
:102FE0003C0259F3EEE2F2E0808191810196808308
:102FF000918382819381811D911D82839383FF91AF
:10300000EF919F918F911F900F910FBF0F91189586
:103010008FB18095807F669B88601C9B846008953B
:10302000EF92FF920F931F93CF93DF93F82E192FF8
:10303000E62E042F81E0860F880F0E94AE0D83E0FC
:103040000E94AE0DCF2DD12FEC0EFD2EF11CCE1512
:10305000DF05B9F007FF13C0FE0184910E94AE0D99
:10306000182F80E00E94AE0D812321968111EFCFB1
:10307000DF91CF911F910F91FF90EF90089588817C
:10308000EDCF81E0F5CF0F931F93CF93DF938C01AA
:1030900081E090E00E94D11480FF32C08AE090E08D
:1030A0000E94D1149FEF980F9E3F50F522E330E02D
:1030B000D80150963C932E931F9728E330E0529608
:1030C0003C932E935197CBE0D0E0D801ED91FC9149
:1030D0000190F081E02D682FC8010995CE010E9472
:1030E000D1142196C131D10581F780E00E94C60933
:1030F00088EE93E0DF91CF911F910F910C943110E6
:10310000DF91CF911F910F91089504970C9443186C
:10311000E2E5F2E01382128288EE93E0A0E0B0E0F4
:1031200084839583A683B78385E491E0918380832C
:103130008FEF9FEF9587848783E1EEEEF1E0A3E2C6
:10314000B1E001900D928A95E1F782E1ECEDF1E0BA
:10315000A6E2B8E001900D928A95E1F782E1ECEDEC
:10316000F1E0A8E3B8E001900D928A95E1F782E1E1
:10317000ECEDF1E0AAE4B8E001900D928A95E1F758
:1031800082E1EAECF1E0ACE5B8E001900D928A95BD
:10319000E1F782E1ECEDF1E0AEE6B8E001900D92EE
:1031A0008A95E1F782E1ECEDF1E0A0E8B8E001906A
:1031B0000D928A95E1F782E1EAECF1E0A2E9B8E04C
:1031C00001900D928A95E1F782E1ECEDF1E0A4EA3D
:1031D000B8E001900D928A95E1F782E1ECEDF1E023
:1031E000A6EBB8E001900D928A95E1F782E1ECED53
:1031F000F1E0A8ECB8E001900D928A95E1F782E148
:10320000EAECF1E0AAEDB8E001900D928A95E1F7C1
:1032100082E1E8EBF1E0ACEEB8E001900D928A9526
:10322000E1F782E1E8EBF1E0AEEFB8E001900D925A
:103230008A95E1F782E1E8EBF1E0A0E1B9E00190E5
:103240000D928A95E1F782E1E8EBF1E0A2E2B9E0C4
:1032500001900D928A95E1F787E1E1EAF1E0ADECAA
:10326000B6E001900D928A95E1F787E1E1EAF1E09D
:10327000A4EEB6E001900D928A95E1F787E1E1EACC
:10328000F1E0ABEFB6E001900D928A95E1F787E1AE
:10329000EAE8F1E0A2E1B7E001900D928A95E1F74A
:1032A00087E1E1EAF1E0A9E2B7E001900D928A95A9
:1032B000E1F787E1E1EAF1E0A0E4B7E001900D92E7
:1032C0008A95E1F787E1EAE8F1E0A7E5B7E0019048
:1032D0000D928A95E1F787E1E1EAF1E0AEE6B7E029
:1032E00001900D928A95E1F787E1E1EAF1E0A5E826
:1032F000B7E001900D928A95E1F787E1E1EAF1E00C
:10330000ACE9B7E001900D928A95E1F787E1EAE830
:10331000F1E0A3EBB7E001900D928A95E1F787E128
:10332000E3E7F1E0AAECB7E001900D928A95E1F7AE
:1033300087E1E3E7F1E0A1EEB7E001900D928A9515
:10334000E1F787E1E3E7F1E0A8EFB7E001900D9244
:103350008A95E1F787E1E3E7F1E0AFE0B8E00190BB
:103360000D928A95E1F7E6EBF6E013821282118660
:10337000128680E1838710861782158683E691E0A6
:103380009183808381E791E095838483108A1786F7
:10339000128A118A81E0838B148A858B168AE2EA6D
:1033A000F6E01382128227E531E03183208322EA9E
:1033B00032E03683258320E830E03087278320E41D
:1033C00030E03287218795E0938B828B16861586B5
:1033D000108A178614861386818B14820895CDB7C0
:1033E000DEB76997DEBFCDBF789483E084BD83E00C
:1033F00085BD81E080936E00E1E8F0E083E08083AA
:10340000E0E881E08083E1E983E08083E0E981E036
:103410008083E1EC87E08083E3EC81E08083E0EC73
:1034200082E08083E2EC81E08083EAE787E08083CA
:103430008068808310924D0210923D0210923F02EC
:103440008091D70081608093D70080EA8093D80074
:1034500089B5806189BD89B5826089BD09B400FEE6
:10346000FDCF81E090E00E94850E8091D8008F7C96
:1034700080618093D8008091E000807F8093E0009D
:103480008091E1008E7E8093E1008DE08093E200E8
:10349000559A209A81EC80937C0081E785B987E674
:1034A00084B985E38BB98FE38AB9769A6E9880EFF9
:1034B00081BB10BA80E58CBD81E08DBD85E090E0D8
:1034C0000E943110599902C0599AF8CF5C98E0E4F3
:1034D000F8E09AE085918EBD00000DB407FEFDCFA7
:1034E0008EB59A95B9F75C9A81E88093640081E083
:1034F000809365000E94C6090E94331087FF11C0A7
:103500005C9885EA8EBD00000DB407FEFDCF8EB538
:103510005C9A2E9858982D9881E083BF889513BEA9
:10352000FCCF0E94331082FF48C02D980E943310B8
:1035300084788438E1F40E942F1088EC90E00E9497
:103540003110589882E090E00E9481258F3F29F049
:103550006FEF82E090E00E94892584EF91E00E9465
:103560003110589A0E94331084788438D9F30E941D
:10357000331084718431E1F40E942F1088EC90E0C4
:103580000E9431102E9882E090E00E9481258823CD
:1035900029F060E082E090E00E94892584EF91E0CC
:1035A0000E9431102E9A0E94331084718431D9F315
:1035B00088EC90E00E943110B4CF0E942F1082E07E
:1035C00090E00E94D114882309F455C03E9A579A7E
:1035D00081E090E00E94D114182F147081FF0EC07A
:1035E00011112E9820EF3FEF3A8329830E94331068
:1035F00086FF44C02E9A589A0E942F1082E390E0D2
:103600000E9431100E9433108111F8CF81E2809323
:10361000C1060E94B9091092C8061092C7061092FE
:10362000C6061092C5060E94F40B8823E9F00E949A
:10363000B9091092C8061092C7061092C6061092D9
:10364000C506709137027983713009F46DC008F4B2
:103650004DC0723011F40C94C624733011F40C94E4
:10366000CC2480E00E94C60980E090E0892BD9F24A
:103670000E940000D8CF3E985798AACF112339F066
:1036800049815A814430510511F42E9A589881E0AD
:103690000E94C609EE24E39400E128E540E957E0E2
:1036A00069817A8184E190E00E94901180E00E941B
:1036B000C6098FE090E00E94311069817A816F5FC6
:1036C0007F4F7A8369836931710509F08FCF1123A8
:1036D00011F0589A2D9880E991E00E9431100E94D3
:1036E0002F1086EB96E00E94431888CF67E070E0C9
:1036F00084EF9FE00E942B1481E0809337021092A8
:103700000F0110920E018AE090E0909311018093D6
:10371000100180911B0190911C0190931E018093D8
:103720001D010E948F129DCF0E94331086FF13C08F
:1037300080910E0190910F01049690930F01809358
:103740000E0181E00E943A1380912201811103C091
:10375000898180931F010E94331085FF12C08091E0
:103760000E0190910F01049790930F0180930E0129
:1037700080E00E943A1380912201811102C01092D0
:103780001F010E94331084FF22C0C0901201D0900C
:103790001301E0901401F090150120E030E040ECBE
:1037A00050ECC701B6010E94C627181684F420E029
:1037B00030E040E050E4C701B6010E94FA25609372
:1037C00012017093130180931401909315010E94CC
:1037D000331083FF10C08091160181110CC080E06E
:1037E00090E0A0E2B1E48093120190931301A093C2
:1037F0001401B09315010E94331082FF08C080911C
:103800002201811104C080912F01809322018091B7
:103810001D0190911E01181619061CF082E080937C
:103820003702A0910E01B0910F01BA83A983A93785
:10383000B5401CF083E080933702C0901201D09015
:103840001301E0901401F090150120E030E040EC0D
:1038500050ECC701B6010E94C62718169CF420E060
:1038600030E040E85FE3C701B6010E94FA256093AB
:10387000120170931301809314019093150181E05C
:1038800080931601C0901201D0901301E0901401B2
:10389000F09015016091100170911101072E000C3C
:1038A000880B990B0E941627A70196010E94FB2501
:1038B0000E94DE2670931101609310016A30710539
:1038C000FCF420E030E040E450ECC701B6010E9477
:1038D000672687FF05C0809122018695809322018B
:1038E00010921201109213011092140110921501FE
:1038F0008AE090E0909311018093100110921601DC
:103900008FE090E090933402809333026090220124
:10391000709016018090120190901301A0901401F4
:10392000B0901501E0901001F090110108EF1BE03C
:10393000312C212C512C412CF801259134913C83C0
:103940002B83F8013496259134914B815C816981F8
:103950007A81461B570B455C5F4F598B488B41382A
:1039600051050CF45EC2F0921101E09210016092D8
:1039700022018092120190921301A0921401B09240
:103980001501309236022092350270921601509243
:1039900034024092330280912201882319F0815031
:1039A00080932201509128014091290120912D01FD
:1039B00030912E01609130016983709131017B83D8
:1039C0002090320130903301409034015090350105
:1039D00080911F01882309F4CAC2813051F4842FD9
:1039E00090E09D878C873F872E87A6E4B0E0BB8759
:1039F000AA877DEC672E76E0772E7986688610E0C0
:103A000000E0EA84FB849E85E90EF11CCC84DD8411
:103A1000AF85CA0ED11CE885F9858689813009F009
:103A2000B4C084859585CB9620910E0130910F010D
:103A3000821B930B813891050CF0A7C0248130E0E4
:103A4000319521953109821793070CF49EC0858921
:103A5000882311F08150858BA885B98555968C9166
:103A60005597811192C0F801E254F44F4591549159
:103A7000F801E454F44F659174911696ED91FC9120
:103A80001797CD010995E885F98584859585CB96AD
:103A900020910E0130910F01821B930B8E159F0513
:103AA0000CF052C02481820F911D2A853B85281776
:103AB00039070CF049C08685978528E230E0281B3D
:103AC000390B8091100190911101820F931F258174
:103AD000AC01421B51094C155D05B4F56C857D8523
:103AE000681779078CF5809122017981781760F148
:103AF0009B81891748F162897389072E000C880B16
:103B0000990B0E9416274B015C0160912001709176
:103B10002101072E000C880B990B0E941627A20189
:103B200091010E9423289B01AC01C501B4010E94B0
:103B3000FA250E94DE26A885B98553967C936E935C
:103B40005297E4E05596EC93A885B98552968D91ED
:103B50009C91539718161906C4F0E2E05696EC9320
:103B600056971B968C9190E02091190130911A0183
:103B7000280F391F30931A012093190190930101E6
:103B800080930001F6E1F093320228853985295EA1
:103B90003F4F398728870C5F1F4F0C33110509F001
:103BA0003ACF20910E0130910F018090100190903A
:103BB000110140911D0150911E015C834B83EDEC7E
:103BC000F6E046E2242E48E0342E58E0C52ED12CF3
:103BD0006DEFE62EFF24FA9403E010E0D101149675
:103BE000BC901497BB2089F18689813071F544859A
:103BF000558516964D905C90C901841B950B97FFD7
:103C000003C09195819591094816590684F0D10118
:103C10001E968D919C91BC01641B750B77FF03C0B0
:103C2000719561957109461657060CF0AEC1D10128
:103C300019961C9219971F965C934E931E97868532
:103C4000978551969C938E93509772E1270E311C65
:103C5000779684E3281689E0380609F0BFCFAB8158
:103C6000BC81B0931E01A0931D0101E020E440E857
:103C700070E060E090E080E00E944E10E0910E0164
:103C8000F0910F01FA83E983E3E0F0E089819A8102
:103C9000BF010E94C528CB0160E370E00E94C528E7
:103CA0009C0140911001509111015C834B83CA012A
:103CB000BF010E94C5288B010852110980ED9FEFBA
:103CC0007C01E21AF30A60EC70E0621B730B7987E7
:103CD00068874AEC58E0B801C7010E94E20970E326
:103CE000E70EF11C88859985E816F90691F7698138
:103CF0007A81719561957109072E000C880B990BDB
:103D00000E94162723E333E343EB5FE30E946C2614
:103D10000E94DE26CB0160E470E00E94C528AB80E3
:103D2000BC80ACE1AA0EB11C6C01B0E4CB1AD10886
:103D3000FC01E054FF4FF987E887E12C0FE020E415
:103D40004AE458E0B501C6010E949011F0E4CF0E9C
:103D5000D11C28853985C216D30679F740903502E3
:103D600050903602A20123E0440F551F2A95E1F737
:103D70004850544F598F488F8091330290913402AC
:103D8000481659060CF0D1C1E88DF98D369665912B
:103D900074917B8B6A8BE88DF98D34968591949123
:103DA0009D8B8C8BE88DF98D329685919491E88D61
:103DB000F98DC590D490A981BA81CA1ADB0AB12CB9
:103DC000A12CEB81FC81E81BF90BFF8BEE8B2C897E
:103DD0003D89A216B3060CF0A0C1A601455C5F4F59
:103DE000598B488B6E897F89912C812CCB01089649
:103DF00099878887AA89BB898A169B060CF086C199
:103E0000685D7F4FE12C08E028E04CE35BE08889A7
:103E100099890E949011BFEF8B1A9B0A688579855A
:103E2000E5CFC901E3E0880F991FEA95E1F7A8897A
:103E3000B9898A0F9B1F97FF22C0BFEF2B1A3B0A3D
:103E40003FEF431A530A085F1F4F4FE044165104D7
:103E500009F072CDF0921101E092100160922201FE
:103E60008092120190921301A0921401B092150158
:103E70003092360220923502709216018CCDF801F4
:103E8000329645915491F801369685919491670147
:103E9000C41AD50AE8E2CE0ED11CF22FFF0FFF0F95
:103EA000FF0FFB83282F220F220F220F288720E0ED
:103EB00030E0A901C501B4010E94672687FF2EC02A
:103EC00048895989453451050CF0BACFCA015B8144
:103ED000850F911DCC970CF465C562E3C616D1041D
:103EE0000CF060C5C6017885870F911D89970CF489
:103EF00059C520E030E040E450ECC501B4010E9417
:103F0000672687FD669482E390E08C199D09E80E90
:103F1000F91E712C812C912C540192CF20E030E0BD
:103F2000A901C501B4010E94C62718160CF088CF5C
:103F300088899989853491050CF082CFA889B9893F
:103F4000EB81AE0FB11DDC970CF47ACFF2E3CF1604
:103F5000D1040CF075CFC6012885820F911D8932DE
:103F600091050CF46DCF8897E81AF90AD3CF8AE34C
:103F700090E0FC01E51BF109FB87EA87642F70E004
:103F80007D876C873F872E8734CDD1011996AC9001
:103F90001997A3941996AC92199718966C91189743
:103FA000A61608F452CEA6120BC01F965C934E9331
:103FB0001E978685978551969C938E9350970BC03C
:103FC00015964C91A41263C0B1E0BB1681F142E09A
:103FD000B41609F446C0D1011E968D919C911F978D
:103FE000821B930B0796419708F02FCE50968D9128
:103FF0009C91519748E250E0481B590BCA01880D2B
:10400000991DC097419708F020CE15968C91159771
:104010008A1508F01ACE8D919C9111976B817C8145
:10402000681B790B7C836B8319961C920ECED10191
:104030001D961C921E921C97A901481B590BCA0180
:10404000181619063CF464E070E01B967C936E939E
:104050001A97C1CF4CEF5FEF1B965C934E931A9764
:10406000BACFD1011D96DC92CE921C97A901481BB4
:10407000590BCA01181619062CF41B961C930E93A3
:104080001A97A9CF1B96FC92EE921A97A4CF4A15C5
:1040900008F0A1CFB1E0BB1619F142E0B4129BCFFA
:1040A000D1011C964D915C911D97415051091D966F
:1040B0005C934E931C971A966D917C911B97860F7B
:1040C000971F1F969C938E931E9750968D919C914F
:1040D0005197480F591F51965C934E9350977BCF41
:1040E000D1011A964D915C911B97840F951F1F96D5
:1040F0009C938E931E9750968D919C9151971C96F0
:104100004D915C911D97840F951F55CFEFEFAE1A1F
:10411000BE0AF8E0CF0ED11C5ACE2FEF421A520A37
:10412000488D598D485F5F4F25CE96E2492E98E025
:10413000592ED30156968C915697813009F066C15D
:104140004D915C911197C0901001D090110115967E
:104150000C9115971E968D919C911F9768E270E0C7
:10416000681B790B6C0D7D1D601B7109E0910E01C0
:10417000F0910F01FA83E9831C968D919C911D9714
:10418000CB968E1B9F0B19962D913C911A9725303B
:10419000310509F07EC3EE24E39414962C910E941D
:1041A0009011D30115960C91159712964D915C9133
:1041B00013971E968D919C911F9768E270E0681B83
:1041C000790B6C0D7D1D601B71091C968D919C9166
:1041D0001D97CB96E12C14962C91E981FA818E1BC8
:1041E0009F0B0E949011D30155968C91559788236F
:1041F00009F47BC01C968D919C911D97CB962091C4
:104200000E0130910F01FC01E21BF30BFA83E983ED
:104210001E968D919C9168E270E0681B790B20914D
:10422000100130911101260F371F398728876091BF
:10423000200170912101072E000C880B990B0E9420
:104240001627209132013091330140913401509171
:1042500035010E9423284B015C010E94CB276B0192
:104260007C0169817A816F5F7F4F072E000C880B7C
:10427000990B0E9416276B837C838D839E8320E09D
:1042800030E040E450E4C701B6010E9423289B01BE
:10429000AC016B817C818D819E810E94FA250E94F8
:1042A000DE267093B0066093AF067093AE066093FF
:1042B000AD06888599850D979093B2068093B106D7
:1042C0006885798564517109E12C04E124E14EE4AB
:1042D0005BE089819A8108970E949011C501B40121
:1042E0000E94DE26CB010E94FB13D20114968C9112
:1042F0001497882309F451C0F3018689813009F0AD
:104300004CC01E968D919C9124853585821B930B04
:1043100097FF03C0919581959109D20116962D9131
:104320003C91179728173907C4F119969C91199752
:1043300018968C91981788F1E6E2F8E0FA83E98301
:10434000A981BA8114968C9114978823F1F0509624
:104350008D919C91519768E270E0681B790B809178
:10436000100190911101680F791F6F5071091E960D
:104370008D919C91CB9620910E0130910F0144E4D8
:104380005BE0821B930B0E94E209E981FA8172963D
:10439000FA83E9832E163F0699F6D30152964D9182
:1043A0005C91539719962D913C911A974217530798
:1043B0006CF555968C915597811128C01E968D915C
:1043C0009C911F9768E270E0681B790B8091100147
:1043D00090911101680F791F15968C911597681BA4
:1043E0007109645071091C968D919C911D97CB9613
:1043F000E0910E01F0910F018E1B9F0B1496EC9132
:10440000E6958E0F911D06970E94D712B7E16B0EAD
:10441000711CE2E14E0E511C26E238E026153705EC
:1044200009F087CEE12C0AE02AE04EE95BE068E281
:1044300070E08BE390E00E949011EE24E3942AE078
:104440004AE85BE068E270E08BE390E00E94901144
:1044500040911D0150911E0120911B0130911C01C2
:104460004217530734F462E270E08AE390E00E945E
:10447000D712909129012091220180911F01309142
:104480003001692F70E0321708F413C23091310106
:10449000231708F40EC240912501509126015A833A
:1044A000498310912A0140912B0150912C012091B8
:1044B0002D0100912E01882309F4EEC1813041F4D1
:1044C000E12C86E490E00E94200C912F56E45F835B
:1044D000692F70E049815A81AF818A2F90E00E9454
:1044E000E20980910E0190910F0168E070E00E9456
:1044F000C5284C0100911001109111019801285D0F
:104500003F4F3A832983085B1F4F88EFA82EBB24B7
:10451000BA9480E990E06C01C818D9087501E818D0
:10452000F90842EB5BE069817A81C7010E94E209E8
:1045300038E0E30EF11CCE14DF0499F749815A816B
:10454000485F5F4F5A8349830417150739F700E026
:104550002AE048E370E060E090E080E00E944E10C6
:104560001092B0061092AF061092AE061092AD06F1
:104570001092B2061092B10644E050E063E072E09F
:1045800082EA96E00E94580E80911D0190911E01D2
:104590000E94FB1341E050E068E072E082EA96E09E
:1045A0000E94580E80911B0190911C010E94FB13E8
:1045B0001092B0061092AF061092AE061092AD06A1
:1045C00085E090E09093B2068093B10644E050E01D
:1045D0006AE072E082EA96E00E94580E809119012A
:1045E00090911A010E94FB1341E050E068E072E0F4
:1045F00082EA96E00E94580E6091170170911801AE
:104600007A8369836F5F7F4F072E000C880B990BAD
:104610000E9416276B017C01A981BA81BD01BB0FE5
:10462000880B990B0E9416274B015C01A70196018C
:10463000C701B6010E9423286B017C01A5019401EA
:10464000C501B4010E9423289B01AC01C701B6013A
:104650000E94FA250E94DE26CB010E94FB1325E072
:1046600046E270E060E08AE590E00E944E108BE543
:1046700090E09093B0068093AF069093AE0680933F
:10468000AD061092B2061092B10644E050E06FE021
:1046900072E082EA96E00E94580E80911701909194
:1046A00018010E94FB13E0910001F0910101FA83CF
:1046B000E983319611F40C94311B0091170110918C
:1046C0001801B8016F5F7F4F072E000C880B990B04
:1046D0000E9416274B015C01B801110F880B990B42
:1046E0000E9416276B017C016091190170911A01DB
:1046F000072E000C880B990B0E9416272B013C01FA
:10470000A5019401C501B4010E9423284B015C015D
:10471000A7019601C701B6010E9423289B01AC01A5
:10472000C501B4010E94FA259B01AC01C301B2018D
:104730000E94C62787FDD1C06091190170911A01AE
:10474000072E000C880B990B0E9416276B017C0129
:1047500040911701509118015A8349838A010F5FD4
:104760001F4FB801012E000C880B990B0E941627D1
:104770004B015C01A981BA81BD01BB0F880B990B6C
:104780000E9416272B013C01A5019401C501B4012B
:104790000E9423284B015C01A3019201C301B201D5
:1047A0000E9423289B01AC01C501B4010E94FA2597
:1047B0004B015C01AC019B01C701B6010E94C627F9
:1047C00087FDD7C080911B0190911C0105969093A5
:1047D0001C0180931B0120912001309121012E5F4B
:1047E0003F4F309321012093200190931E0180932D
:1047F0001D01A5019401C701B6010E94FA250E947E
:10480000DE2670931A01609319011093180100932A
:10481000170100E028E042E36EE170E089E290E0F9
:104820000E944E10EBE2F0E0F093B006E093AF068A
:10483000F093AE06E093AD0620E230E03093B2068E
:104840002093B10649E050E064E172E082EA96E02C
:104850000E94580E80E00E94C6096EEE72E080E071
:1048600090E0AB01FC010E94400E41505109E1096A
:10487000F10928F068517C4F8F4F9F4FF6CFAB0165
:10488000FC010E94400E641775078E079F07C8F34E
:1048900053CF0E94E209A7CC809128019AE3981B8C
:1048A0009F83EE24E394892F90E00E94200C912FA7
:1048B0000FCE90912701882349F0813059F0409123
:1048C000230150912401EF818E2F08CE8AE3891BAA
:1048D0008F83F5CFB6E4BF83F2CFA981BA81BD0142
:1048E000BB0F880B990B0E9416270E94CB2720E054
:1048F00030E040E850E40E94232820E030E040E728
:1049000052E40E94FB250E94E526462F00E028E0A5
:104910006EE170E082E290E00E944E1084E290E04E
:104920009093B0068093AF069093AE068093AD0649
:10493000E0E2F0E0F093B206E093B10647E050E029
:104940006EE172E082EA96E00E94580E80910001CA
:10495000909101010E94FB1343E050E066E272E097
:1049600082EA96E00E94580E809132028150809334
:1049700032028091320281110C94311B8FEF9FEF34
:1049800090930101809300010C94311B65E070E06D
:1049900080E09EE00C947A1B64E070E080E79CE08D
:1049A0000C947A1B20E030E0A901C501B4010E94FB
:1049B000C62718160CF4C2CA43CA8F929F92AF92B0
:1049C000BF92CF92DF92EF92FF92CF93DF93EC01F1
:1049D000688179818A819B816115710581059105C5
:1049E00021F464E279ED8BE597E02DE133EF41E0CE
:1049F00050E00E94972549015A019B01AC01A7EAAA
:104A0000B1E40E94B6256B017C01ACEEB4EFA501C8
:104A100094010E94C425C60ED71EE81EF91EF7FE9B
:104A200006C081E0C81AD108E10880E8F80AC88207
:104A3000D982EA82FB82C701B6019F77DF91CF91CD
:104A4000FF90EF90DF90CF90BF90AF909F908F90AE
:104A500008958F929F92AF92BF92CF92DF92EF9282
:104A6000FF926091360170913701809138019091E9
:104A70003901611571058105910521F464E279ED33
:104A80008BE597E02DE133EF41E050E00E94972560
:104A900049015A019B01AC01A7EAB1E40E94B62585
:104AA0006B017C01ACEEB4EFA50194010E94C4251A
:104AB000C60ED71EE81EF91EF7FE06C081E0C81A12
:104AC000D108E10880E8F80AC0923601D092370197
:104AD000E0923801F0923901C701B6019F77FF904B
:104AE000EF90DF90CF90BF90AF909F908F90089500
:104AF00060933601709337018093380190933901A8
:104B00000895F999FECF92BD81BDF89A992780B595
:104B10000895262FF999FECF1FBA92BD81BD20BD01
:104B20000FB6F894FA9AF99A0FBE01960895052ED9
:104B300097FB1EF400940E94AE2557FD07D00E94FB
:104B4000C92507FC03D04EF40C94AE255095409532
:104B5000309521953F4F4F4F5F4F08959095809529
:104B6000709561957F4F8F4F9F4F08950E94EB2561
:104B7000A59F900DB49F900DA49F800D911D1124B1
:104B80000895B7FF0C94B6250E94B625821B930B9F
:104B90000895A1E21A2EAA1BBB1BFD010DC0AA1F7E
:104BA000BB1FEE1FFF1FA217B307E407F50720F096
:104BB000A21BB30BE40BF50B661F771F881F991F11
:104BC0001A9469F760957095809590959B01AC015A
:104BD000BD01CF010895A29FB001B39FC001A39F63
:104BE000700D811D1124911DB29F700D811D112426
:104BF000911D08955058BB27AA270E9412260C9495
:104C00008C270E947E2738F00E94852720F039F4F7
:104C10009F3F19F426F40C947B270EF4E095E7FBF4
:104C20000C947527E92F0E949D2758F3BA17620745
:104C300073078407950720F079F4A6F50C94BF2735
:104C40000EF4E0950B2EBA2FA02D0B01B9019001A7
:104C50000C01CA01A0011124FF27591B99F0593FEB
:104C600050F4503E68F11A16F040A22F232F342F33
:104C70004427585FF3CF469537952795A795F04081
:104C80005395C9F77EF41F16BA0B620B730B840B96
:104C9000BAF09150A1F0FF0FBB1F661F771F881F4E
:104CA000C2F70EC0BA0F621F731F841F48F48795A6
:104CB00077956795B795F7959E3F08F0B0CF939598
:104CC000880F08F09927EE0F9795879508950E9411
:104CD000512708F481E008950E9480260C948C27C7
:104CE0000E94852758F00E947E2740F029F45F3FFC
:104CF00029F00C94752751110C94C0270C947B2734
:104D00000E949D2768F39923B1F3552391F3951BD6
:104D1000550BBB27AA2762177307840738F09F5FDC
:104D20005F4F220F331F441FAA1FA9F335D00E2E49
:104D30003AF0E0E832D091505040E695001CCAF7B6
:104D40002BD0FE2F29D0660F771F881FBB1F261779
:104D500037074807AB07B0E809F0BB0B802DBF0150
:104D6000FF2793585F4F3AF09E3F510578F00C941F
:104D700075270C94C0275F3FE4F3983ED4F38695E3
:104D800077956795B795F7959F5FC9F7880F911D40
:104D90009695879597F90895E1E0660F771F881F2C
:104DA000BB1F621773078407BA0720F0621B730BDF
:104DB000840BBA0BEE1F88F7E09508950E94E52654
:104DC0006894B1110C94C02708950E94A52788F01B
:104DD0009F5798F0B92F9927B751B0F0E1F0660FBF
:104DE000771F881F991F1AF0BA95C9F714C0B13000
:104DF00091F00E94BF27B1E008950C94BF27672F60
:104E0000782F8827B85F39F0B93FCCF3869577952E
:104E10006795B395D9F73EF4909580957095619517
:104E20007F4F8F4F9F4F0895E89409C097FB3EF442
:104E300090958095709561957F4F8F4F9F4F9923E7
:104E4000A9F0F92F96E9BB279395F6958795779565
:104E50006795B795F111F8CFFAF4BB0F11F460FF25
:104E60001BC06F5F7F4F8F4F9F4F16C0882311F07D
:104E700096E911C0772321F09EE8872F762F05C091
:104E8000662371F096E8862F70E060E02AF09A952C
:104E9000660F771F881FDAF7880F9695879597F921
:104EA0000895990F0008550FAA0BE0E8FEEF1616BB
:104EB0001706E807F907C0F012161306E407F5070E
:104EC00098F0621B730B840B950B39F40A2661F082
:104ED000232B242B252B21F408950A2609F4A14025
:104EE000A6958FEF811D811D089597F99F6780E832
:104EF00070E060E008959FEF80EC089500240A942C
:104F00001616170618060906089500240A941216A4
:104F10001306140605060895092E0394000C11F4D7
:104F2000882352F0BB0F40F4BF2B11F460FF04C084
:104F30006F5F7F4F8F4F9F4F089557FD9058440FDD
:104F4000551F59F05F3F71F04795880F97FB991FE8
:104F500061F09F3F79F087950895121613061406A5
:104F6000551FF2CF4695F1DF08C016161706180632
:104F7000991FF1CF86957105610508940895E8940D
:104F8000BB2766277727CB0197F908950E94512701
:104F900008F48FEF08950E94DB2729ED3BE54EEDE5
:104FA0005EE30C94232816F00C9490280C947B2735
:104FB00068940C9475270E94A527A8F39923C1F340
:104FC000AEF3DF93CF931F930F93FF92C92FDD278B
:104FD00088232AF02197660F771F881FDAF720E0D1
:104FE00030E040E85FEB9FE3883920F0803E38F006
:104FF00021968F770E94FB25ECEAF0E004C00E9426
:10500000FB25E9EDF0E00E949E288B01BE01EC013A
:10501000FB2E6F5771097595771F880B990B0E94AE
:10502000162728E132E741E35FE30E943628AF2DDF
:105030009801AE01FF900F911F91CF91DF910E94D7
:1050400012260C948C270E9436280C948C270E94E0
:105050007E2738F00E94852720F0952311F00C94CC
:1050600075270C947B2711240C94C0270E949D2740
:1050700070F3959FC1F3950F50E0551F629FF001AB
:10508000729FBB27F00DB11D639FAA27F00DB11DC4
:10509000AA1F649F6627B00DA11D661F829F22274D
:1050A000B00DA11D621F739FB00DA11D621F839FD4
:1050B000A00D611D221F749F3327A00D611D231FAA
:1050C000849F600D211D822F762F6A2F11249F57F8
:1050D00050409AF0F1F088234AF0EE0FFF1FBB1FFB
:1050E000661F771F881F91505040A9F79E3F5105BA
:1050F00080F00C9475270C94C0275F3FE4F3983E32
:10510000D4F3869577956795B795F795E7959F5F63
:10511000C1F7FE2B880F911D9695879597F90895F5
:105120009F3F31F0915020F4879577956795B7951B
:10513000880F911D9695879597F90895DF93CF93E2
:105140001F930F93FF92EF92DF927B018C01689483
:1051500006C0DA2EEF010E943628FE01E894A591E0
:105160002591359145915591A6F3EF010E941226A4
:10517000FE019701A801DA9469F7DF90EF90FF90A4
:105180000F911F91CF91DF91089597FB072E16F491
:10519000009407D077FD09D00E94D92807FC05D0DC
:1051A0003EF4909581959F4F0895709561957F4F3E
:1051B0000895AA1BBB1B51E107C0AA1FBB1FA6175E
:1051C000B70710F0A61BB70B881F991F5A95A9F7B0
:1051D00080959095BC01CD010895EE0FFF1F0590BD
:0A51E000F491E02D0994F894FFCF3C
:1051EA00FFFFFFFFFFFF00E10000000000000000DA
:1051FA000A000000000001010000000C000C000180
:10520A000400000000000000000000000000000090
:10521A000000000000000100000000C180810000C1
:10522A0000000000002D0D990E4E0D430D940D52F5
:10523A000D700D000000008A0F580E7512741200CE
:10524A000000008D10580E751274124318FCFF00EE
:10525A00008518060100001414D31402C8001900AE
:10526A0000000000000000000000440100000F0FD1
:10527A00D314010C000A0000000000000000000026
:10528A0000780164010A0AD3140105000200000033
:10529A000000000000000000640008080228C8009E
:1052AA00140000000000000000000A000808013C89
:1052BA0064001E0000000000000000000000000062
:1052CA000000000000000000000000000000AA0129
:1052DA00A001030A242F8C010A100F0907000000FD
:1052EA003F2D0048503A20002F0058503A20004CD9
:1052FA00563A20004C6576656C205570210047614E
:0A530A00696E656420002058500011
:00000001FF
