:100000000C9413100C943B100C943B100C943B106C
:100010000C943B100C943B100C943B100C943B1034
:100020000C943B100C943B100C941B270C948A27C7
:100030000C943B100C943B100C943B100C943B1014
:100040000C943B100C943B100C943B100C943B1004
:100050000C943B100C943B100C943B100C94BC295A
:100060000C943B100C943B100C943B100C943B10E4
:100070000C943B100C943B100C943B100C943B10D4
:100080000C94062A0C943B100C943B100C943B10DF
:100090000C943B100C943B100C943B100C943B10B4
:1000A0000C943B100C943B100C943B100D09000871
:1000B000200024882054201240040000000000008A
:1000C00000000000000000000D0900082288000860
:1000D00080042002900400000000000000000000E6
:1000E000000000000D0901900208000004000080DB
:1000F00011000800000000010000000000000100E5
:100100000D0902400000000400004001000002014F
:10011000000000000000000000000001F7000900DE
:10012000A5000A0000001E00F7000900A5000A0053
:1001300000001E00F7000900A5000A0000001E00D4
:10014000F7000900A5000A000080F7000900A500DB
:100150000A0000001E00F7000900A5000A000000C8
:100160001E00F7000900A5000A000080F700090042
:10017000A5000A0000001E00F7000900A5000A0003
:100180000080F7000900A5000A0000800B080E9807
:100190007D363C3C3C367D980E0B0870187DB6BC15
:1001A0003CBCB67D18700104B504020202050104CE
:1001B000B00E020202050104C70E0202020504028B
:1001C000B5370202020D02B54B0202020D034B3796
:1001D000FE02020D034B4BFE02020D0402B50402A7
:1001E00002020502B51802020205034B04FE0202D8
:1001F00005034B18FE020205020339320202020D0A
:1002000003B00E4602020D020239320202020D0252
:10021000B00E4602020D0203390E0202020503B0BF
:100220000E020202050201390E0202020501B00EA1
:10023000020202050203B00E3202020D03C746029B
:1002400002020D0202B00E3202020D02C746020285
:10025000020D0203B00E0202020503C70E020202E3
:10026000050202B00E0202020502C70E02020205DA
:100270000403B52D0202010D03B5410202010D0276
:100280004B2DFE02010D024B41FE02010D0402B591
:100290002D0202010D02B5410202010D034B2DFE9C
:1002A00002010D034B41FE02010D0403B5040202DD
:1002B000010503B51802020105024B04FE02010507
:1002C000024B18FE0201050402B5040202010502F8
:1002D000B51802020105034B04FE020105034B1889
:1002E000FE020105020339410202010D03B00E2D89
:1002F00002010D020239410202010D02B00E2D026F
:10030000010D0203390E0202010503B00E020201C3
:10031000050202390E0202010502B00E02020105B9
:100320000203B00E3202010D03C7410202010D02A9
:1003300002B00E3202010D02C7410202010D02039A
:10034000B00E0202010503C70E020201050202B04F
:100350000E0202010502C70E020201050401B00EE1
:100360003202000D01D1460202000D0350182D0289
:10037000000D037150FD02000D0402B00E320200A8
:100380000D02D1460202000D03B0182D02000D032C
:10039000D1500202000D0403B00E0202000503D189
:1003A0000E02020005035018FD020005037118FD3E
:1003B0000200050402B00E0202000503D10E020283
:1003C000000502B0180202000503D1180202000560
:1003D0000400B5370202020D00B54B0202020D0106
:1003E0004B37FE02020D014B4BFE02020D0400B51D
:1003F000040202020500B51802020205014B04FEC8
:10040000020205014B18FE02020502013932020206
:10041000020D01B00E4602020D0200393202020244
:100420000D00B00E4602020D0201390E0202020555
:1004300001B00E020202050200390E02020205009E
:10044000B00E020202050201B00E3202020D01C717
:10045000460202020D0200B00E3202020D00C74633
:100460000202020D0201B00E0202020501C70E02D5
:100470000202050200B00E0202020500C70E0202CF
:1004800002050401B52D0202010D01B54102020170
:100490000D024B2DFE02010D024B41FE02010D0427
:1004A00000B52D0202010D00B5410202010D014B04
:1004B0002DFE02010D014B41FE02010D0401B504A8
:1004C0000202010501B51802020105024B04FE02F9
:1004D0000105024B18FE0201050400B504020201E9
:1004E0000500B51802020105014B04FE02010501D9
:1004F0004B18FE020105020139410202010D01B053
:100500000E2D02010D020039410202010D00B00E54
:100510002D02010D0201390E0202010501B00E0289
:100520000201050200390E0202010500B00E0202AE
:1005300001050201B00E3202010D01C741020201A4
:100540000D0200B00E3202010D00C7410202010D82
:100550000201B00E0202010501C70E0202010502EE
:1005600000B00E0202010500C70E020201050402DE
:10057000B00E3202000D02D1410202000D005018EF
:100580002D02000D007150FD02000D0400B00E326E
:1005900002000D00D1410202000D01B0182D020031
:1005A0000D01D1500202000D0402B00E020200053E
:1005B00002D10E02020005005018FD020005007174
:1005C00018FD0200050400B00E0202000500D10E65
:1005D0000202000501B0180202000501D118020252
:1005E00000050B084281A991A981A5B5AD814221E1
:1005F000100101F929291101F12929F101798181DC
:10060000790191A9A94901F9A9A98901F9898971F2
:1006100001010404040404040404040404040404A0
:10062000040404040404040404040404040404048A
:10063000040404830028000000F40100800B023C45
:10064000000000F4010080330B01017189A9E90168
:10065000F9A9A989010909F9090901010101F92982
:1006600029D101F9A9A98901F12929F101F989897A
:10067000710199A1A179010101B9010104040404E6
:10068000040404040404040404040404040404042A
:10069000040404040404040404040404040404041A
:1006A0000404040404040404040404040404042CE2
:1006B0000B0101010101798141817901F12929F1C0
:1006C000017981611901F9A9A989010101010101DA
:1006D0000101010101010101010101010104040401
:1006E00004040404040404040404040404040404CA
:1006F00004040404040404040404040404040404BA
:100700000404040404040404044C14010101010160
:1007100001798141817901F12929F10179816119F9
:1007200001F9A9A989010101718989510171898999
:100730007101F9112111F901F949493101F9818159
:100740008101F9A9A9890109F9090901F9A9A98969
:10075000010101010101010000F82828080078804A
:10076000807800F8A8A88800F88080800000F8A8A9
:10077000A850007088887000F81020F800788080F9
:10078000780090A8A8480050000000000000000079
:100790000000000000000000000000000000000059
:1007A00000000008080808080808080808080808E1
:1007B00008080808080808080808080808080808B9
:1007C00008080808080808080808080808080808A9
:1007D0000808080808080808080808080808080899
:1007E000080808080808080808080808080808078A
:1007F00019008C5E56529E0000FE00AA00FE00000A
:100800007F80AA807F0000000000000000071F001A
:10081000A2129612A60000FF00AA00FF0000FF002F
:10082000AA00FF00001F202A201F000505151F0A2F
:100830000E040504060D0909060E040406040F0241
:10084000040906060904090604040F05060708073B
:10085000010F0609070106020204080F060906092E
:100860000603040A09060E4000FF00000000000015
:1008700000000000000000FF000000000000000079
:100880000000000000FF0000000000000000000069
:10089000000000FF00000000000000000000000059
:1008A00000FF00000000000000000000000000FF4A
:1008B00000000000000000000000000000FF000039
:1008C0000000000000000000000000FF0000000029
:1008D00000000000000000000108000000E0F0E05F
:1008E000E0F0F8F0E0E0F0E00000040F0F6FFF6FC1
:1008F0003F7F3F6FFF6F0F0F040F10000000E000FD
:1009000080E030E08000E0000000000407026B039C
:100910000C260C036B020704000000E0F0E0E0F09E
:10092000F8F0E0E0F0E00000040F2F7F7F7F3F7FD2
:100930003F7F7F7F2F0F040F10000000E00080E05A
:1009400030E08000E0000000000407222B230C268A
:100950000C232B220704000000E0F0E0E0F0F8F0A8
:10096000E0E0F0E00000040F0F0F1F0F1F0F1F0F3C
:100970001F0F0F0F040F10000000E00080E030E0B8
:100980008000E0000000000407020B030C060C03CB
:100990000B02070400BAFFFAF0E4EEF6FFF6EEE40D
:1009A000F0FAFFBA040F0F0F1F0F1F0F1F0F1F0FBB
:1009B0000F0F040F1000BA00E00084E032E0840062
:1009C000E000BA00000407020B030C060C030B0244
:1009D00007040068FCE8F0E8FCFCFEFCFCE8F0E83A
:1009E000FC68040F0F0F1F0F1F0F1F0F1F0F0F0F9C
:1009F000040F10006800E00088E034E08800E000A8
:100A00006800000407020B030C060C030B0207042A
:100A100000FFFF000000000000000000000000FFD9
:100A2000010100000000000000000000000001FFC4
:100A3000FF0000000000000000000000FFFF0101B7
:100A400000000000000000000000000101FFFFFFA7
:100A5000000000000000000000FFFFFF0101010096
:100A60000000000000000000010101FFFFFFFF0087
:100A7000000000000000FFFFFFFF01010101000076
:100A8000000000000001010101FFFFFFFFFF000067
:100A9000000000FFFFFFFFFF010101010100000056
:100AA00000000101010101FFFFFFFFFFFFFF00FF49
:100AB000FFFFFFFFFFFF0101010101010100010133
:100AC0000101010101FFFFFFFFFFFFFF00FFFFFF2B
:100AD000FFFFFFFF0101010101010100010101010F
:100AE000010101FFFFFFFFFFFFFFFFFFFFFFFFFF10
:100AF000FFFF0101010101010101010101010101EA
:100B000001FF00000000000000FFFFFF00000000E8
:100B100000FFFFFFFFFF000000FFFFFFFFFFFFFFE1
:100B200000FFFFFFFFFFFFFFFFFFFFFFFFFFFFFFD4
:100B3000FFFFFFFFFFFFFFFFFFFFFFFFFFFFFFFFC5
:100B4000FFFFFFFFFFFFFFFFFF0F09FF0000000097
:100B5000000000000000000000FF01000000000095
:100B600000000000000000000100FF000000000085
:100B7000000000000000FF00000100000000000075
:100B8000000000000001000000FF00000000000065
:100B9000000000FF00000000010000000000000055
:100BA0000000010000000000FF0000000000000045
:100BB000FF00000000000001000000000000000134
:100BC00000000000000000FF0000000000FF000027
:100BD0000000000000000100000000000100000013
:100BE000000000000000FF000000FF000000000007
:100BF00000000000000100000001000000000000F3
:100C00000000000000FF00FF0000000000000000E6
:100C100000000000010001000000000000000000D2
:100C200000000000FF0000000000000000000000C5
:100C300000000001000000000000000908FF0000A3
:100C40000000000000FF00FF0000000000FF0000A7
:100C500000FF000000FF0000000000FF00FF000098
:100C60000000000000FF0000000000000000000085
:100C700000000000000000000000000038FE7DFEC3
:100C8000FEFEFEFEFEFE7DFF2F00000100000000C4
:100C900000000001000054FE7CFE7CFEFFFE7CFE96
:100CA0007C7C280000000000000100000000000023
:100CB00012BFFFFFFEFCFCFCFEFFFFBF12000001A5
:100CC0000000000100000001000070FAFFFFFEFFBD
:100CD0007EFFFEFFFFFA7000000001000000000030
:100CE00001000000FFFFFFFFFFFFFFFFFFFFFFFF0F
:100CF000000F0F0F0F0F0F0F0F0F0F0F0F00000040
:100D0000FFFFFFFFFFFFFFFF0000000000070707D6
:100D100007070707070000002A5D3E3E3E5D2A00E8
:100D2000143E3E7F3E1C08002A7F3E7C3E7F2A0008
:100D30002A7F3E7C3E7F2A00183C7EFFFF7E3C18C7
:100D400000FFFFFFFFFF0000387C7CFEFEFEFEFE82
:100D5000FEFE7C7C38000000000000000000000067
:100D60000000287C7CFE7CFEFFFE7CFE7CFE5400A6
:100D7000000000000001000000000000143EFEFF23
:100D8000FEFC7CFCFEFFFE3E1400000001000000A3
:100D9000000001000000307CFEFFFEFFFEFFFEFFB2
:100DA000FE7C300000000001000000010000000097
:100DB000FFFFFFFFFFFFFFFFFFFFFFFF000F0F0F12
:100DC0000F0F0F0F0F0F0F0F0F000000FFFFFFFFA0
:100DD000FFFFFFFF000000000007070707070707E6
:100DE00007000000081C3E3E3E1C0800081C3E7F19
:100DF0003E3E14000C3E7E3C7E3E0C001C3E7E3F80
:100E00007E3E1C00183C7EFFFF7E3C1800FFFFFF6B
:100E1000FFFF00000A1F0E1F0A010808002A1C1409
:100E20001C2A000000141C2A1C080000002A143888
:100E3000142A0000002A1438142A00000018244A3A
:100E4000422418000000543A54000000080800082A
:100E50001C141C08000000081C221C140000000CBC
:100E60003418340C0000001C341A341C0000001824
:100E7000244A422418000000543A540000000101A2
:100E800001AF001600AF001600AF0016000080DCB6
:100E900000090093000A0083000600AF000A00006A
:100EA00080830028000000140006012800000014C0
:100EB000000B022800000014000080DC00090093F1
:100EC000000A0083000600AF000A00F7000900A531
:100ED000000A00DC00090093000A0083000600AF4E
:100EE000000A00F7000900A5000A00DC00090093D1
:100EF000000A0083000600AF000A00F7000900A501
:100F0000000A000080AF00030026010400B80104BD
:100F100000A50001000080DC00090000800505003C
:100F20000A040A00DC00090093000A00830006009E
:100F3000AF000A00F7000900A5000A00DC00090064
:100F400093000A0083000600AF000A00F7000900C2
:100F5000A5000A00DC00090093000A0083000600D7
:100F6000AF000A00F7000900A5000A0000800B028C
:100F70003200830064004100C800008000000000CF
:100F8000003E5B4F5B3E3E6B4F6B3E1C3E7C3E1C0F
:100F9000183C7E3C181C577D571C1C5E7F5E1C0055
:100FA000183C1800FFE7C3E7FF0018241800FFE70C
:100FB000DBE7FF30483A060E2629792926407F05CF
:100FC0000507407F05253F5A3CE73C5A7F3E1C1CE5
:100FD00008081C1C3E7F14227F22145F5F005F5FA5
:100FE00006097F017F006689956A60606060609491
:100FF000A2FFA29408047E040810207E2010080896
:101000002A1C08081C2A08081E101010100C1E0CA0
:101010001E0C30383E3830060E3E0E060000000032
:101020000000005F00000007000700147F147F1419
:10103000242A7F2A1223130864623649562050005E
:1010400008070300001C2241000041221C002A1C4A
:101050007F1C2A08083E0808008070300008080835
:101060000808000060600020100804023E51494555
:101070003E00427F400072494949462141494D3373
:101080001814127F1027454545393C4A49493141DA
:10109000211109073649494936464949291E0000A8
:1010A00014000000403400000008142241141414FD
:1010B0001414004122140802015909063E415D59E9
:1010C0004E7C1211127C7F494949363E41414122F2
:1010D0007F4141413E7F494949417F090909013E1C
:1010E000414151737F0808087F00417F4100204043
:1010F000413F017F081422417F404040407F021C55
:10110000027F7F0408107F3E4141413E7F0909096B
:10111000063E4151215E7F09192946264949493237
:1011200003017F01033F4040403F1F2040201F3FFD
:101130004038403F63140814630304780403615982
:10114000494D43007F4141410204081020004141C4
:10115000417F040201020440404040400003070870
:101160000020545478407F2844443838444444286C
:10117000384444287F385454541800087E09021813
:10118000A4A49C787F0804047800447D400020409B
:10119000403D007F1028440000417F40007C0478DF
:1011A00004787C080404783844444438FC18242427
:1011B0001818242418FC7C080404084854545424A7
:1011C00004043F44243C4040207C1C2040201C3C24
:1011D0004030403C44281028444C9090907C44641B
:1011E000544C4400083641000000770000004136AE
:1011F000080002010204023C2623263C1EA1A16134
:10120000123A4040207A3854545559215555794165
:101210002154547841215554784020545579400C3C
:101220001E5272123955555559395454545939551D
:101230005454580000457C410002457D4200014560
:101240007C40F0292429F0F0282528F07C545545CD
:10125000002054547C547C0A097F49324949493260
:101260003248484832324A4848303A4141217A3A75
:1012700042402078009DA0A07D39444444393D403F
:1012800040403D3C24FF2424487E4943662B2FFCEC
:101290002F2BFF0929F620C0887E0903205454799A
:1012A000410000447D413048484A32384040227A6B
:1012B000007A0A0A727D0D19317D2629292F2826E8
:1012C0002929292630484D402038080808080808F0
:1012D0000808382F10C8ACBA2F102834FA00007B49
:1012E000000008142A142222142A1408950022004F
:1012F00095AA005500AAAA55AA55AA000000FF0009
:10130000101010FF00141414FF001010FF00FF1045
:1013100010F010F0141414FC001414F700FF000077
:10132000FF00FF1414F404FC141417101F10101FF6
:10133000101F1414141F00101010F0000000001FE4
:10134000101010101F10101010F010000000FF10EF
:101350001010101010101010FF10000000FF1400EB
:1013600000FF00FF00001F10170000FC04F414141D
:101370001710171414F404F40000FF00F7141414E9
:1013800014141414F700F7141414171410101F1069
:101390001F141414F4141010F010F000001F101F8C
:1013A0000000001F14000000FC140000F010F010FA
:1013B00010FF10FF141414FF141010101F00000071
:1013C00000F010FFFFFFFFFFF0F0F0F0F0FFFFFF75
:1013D0000000000000FFFF0F0F0F0F0F38444438CC
:1013E000447C2A2A3E147E02020606027E027E0207
:1013F00063554941633844443C04407E201E200626
:10140000027E020299A5E7A5991C2A492A1C4C7262
:1014100001724C304A4D4D303048784830BC625AE9
:10142000463D3E494949007E0101017E2A2A2A2A79
:101430002A44445F444440514A444040444A514055
:101440000000FF0103E080FF000008086B6B083616
:1014500012362436060F090F060000181800000087
:101460001010003040FF0101001F01011E00191D76
:101470001712003C3C3C3C0000000000080B00023E
:10148000020201000904000001020200000524001C
:1014900010010524010101042402060524060001AF
:1014A0000705810310004009040100020A00000042
:1014B0000705020240000007058302400000040304
:1014C000090412010002EF020140412336800001AD
:1014D0000102030141726475696E6F204C4C430038
:1014E00041424131313036008D14A1C881CFD9F14C
:1014F00002AF1F08031C700F00304870007C08709A
:10150000087000F848300074007810007A00304805
:1015100000586816077F090175007F007C08700875
:101520007000304830027F02304858050A0104102C
:101530004000000000000100041040000000000016
:101540000101001040000000000001010400400003
:101550000000000001010410000000000000010173
:101560000410400000000000000D0A000001071FE9
:101570007CFF3F077168C81C0000000000000000ED
:1015800003010100003510000080E0781E0703030E
:101590000383E37C0F0909FFFB00F8FFFF1F19011C
:1015A00000FF010101F2FC003FFCF101033FFDF1EE
:1015B00080020F1919191B1A70E08000082EAFADB8
:1015C000ACACACA4802CAF03000000AFAF00AEAF5A
:1015D000AFAFACACAC00AFACACACAFA70000AFAF42
:1015E000AE0000AFAFAF2C0003AB06AEAEAEAF2F78
:1015F0000603061F0E040306040E1F03071F051F24
:101600001F151B1F11111F110E1F15111F05011F83
:10161000111D1F041F001F0010101F1F041B1F108F
:10162000101F061F1F011F1F111F1F05071F311F3E
:101630001F051B17151D011F011F101F0F100F1F66
:101640000C1F1B041B071C071915131F111F001F5C
:10165000001D151711151F07041F17151D1F151D38
:1016600001011F1F151F17151F0017000020005D27
:10167000120000000080C0F0383C3EB2F0781CC67A
:10168000F27C0E82E0781C06C6E6E6E60682F87E6C
:10169000363030F0FE06000000903C26262626E676
:1016A000CE8C00FCF606060606060C000CFEF28246
:1016B0000202063CF0C61E7AE2E2627C7060C28ED4
:1016C0001E7EE6E6E6644000000000000000001810
:1016D0005C4E030100185C4F03185C5F4F03005E13
:1016E0005F5F5C5C5C5C0C07005C5F070000005F98
:1016F0005F03000000004F5F585858585F5F4F006D
:101700000F5F5C58585858585E5C00070F5858587F
:1017100058585F5E0001475E18000000034F5C11DF
:10172000034F5E5C5C5C5C5C5810000000000100D4
:1017300000000000010000000101010000010101A2
:101740000101010000000101000000000101000092
:10175000000000000101010101010101000001017F
:10176000010101010101000000000101010101016D
:101770000000010100000000000101000001010162
:1017800001010101010000007D1C000000000000BB
:1017900000000000C0F07C1E0E0606060626363E3F
:1017A0001E06C0F83E06060606C6FEFEFE0E00F049
:1017B000FEFEFEFEF8800080C0F0FCFEFEFE000093
:1017C000FEFEFE060606060606000000FCFEFEFE05
:1017D000020202067E7EFCE0001E7EFEFEFCE000B1
:1017E0000000FEFEFE0000003EFEFEC606060600ED
:1017F00000063EFAE2820202041C78C0808080006B
:10180000000000000000000000000000C0E0F83E02
:101810000F070100000486E6FEFE7E0EC0F8FEFF04
:10182000070606060606FFFFFF0300FCFFFF7F0713
:10183000FFFFFFFE7F0FFFFFFFFFFF0000FFFFFF27
:101840000E0E0E0E0C00000000FFFFFFFF00000058
:10185000000000FFFFFC0000030F7FFFFFF8E0FF28
:10186000FFFFF80000007FFFFFFE8E0E0E0C000051
:10187000033FFFFEFEE282020303030F7FFFFEF839
:10188000E00000000000505C5F5F595858585858FD
:1018900058585E5F5F4F03185E5F5F4700000000AF
:1018A00000005F5F5F03005F5F5F5F00005F5F5F7F
:1018B000070000015F5F5F5F00005F5F5F5858587F
:1018C0005858580000000F5F5F5F585858585858D4
:1018D0005F5F0F0000000000034F5F5F5F5F5F5FAF
:1018E000000000004F5F5F5F5C5858585858000177
:1018F0004F5F5F5F1C0000000000475F5F5F5F1C81
:10190000000000000105050505050505050505059F
:101910000505050504000105050504000000000596
:10192000050500000505050500000505050000008A
:101930000005050505000005050505050505050566
:101940000000000005050505050505050505050060
:10195000000000000000050505050501000000006D
:10196000000505050505050505010004050505013A
:10197000000000000004050505050100000020101E
:10198000007828380078283840007868480058687F
:1019900068005868680000FC02722A2A7202FC0083
:1019A0000000000000000000000000000000000037
:1019B0000000000000000000010101010101000021
:1019C0000B05110A040A110000121915120D0C0062
:1019D00038287C6C7C6C7C6C7C2838000000000013
:1019E00000000000000000000000282844386CC6F9
:1019F0006C38442854000000000000000000000083
:101A000000000000142CF25428282854F22C140052
:101A10000000000000000000000000000000304C4A
:101A20001AE47E6C7EE41A4C3000000000000000D6
:101A3000000000000000000060D824140A0A04041A
:101A4000986000000000010202040402020100008C
:101A500000000000402CFAF22C40000000000000C2
:101A600000020100000102000000000D0C1028BA65
:101A70006C7C6C7C6C7C6CBA281000000000000050
:101A80000000000000000000542844386CD66C3878
:101A900044282800000000000000000000000000B2
:101AA000000012AA725428A8285472AA120000003A
:101AB000000000000000000000000000700ADA24AE
:101AC0007E2C7E24DA0A7000000000000000000076
:101AD00000000000000060D824140A0A0404986082
:101AE00000000000010202040402020100000000E4
:101AF0000000402CFAF22C40000000000000000220
:101B000001000001020000000004050E11190E0082
:101B1000121F10121915120A11150A06051F0417B3
:101B20001515090E151508011905030A15150A12D0
:101B30001509060B088000000000800000000080EE
:101B4000550F0000800030382C26E2E2E202CEE49D
:101B5000180C02020282E2300C0202E27E06F0FE63
:101B600022223AFCC000FE262222020000000002CF
:101B7000020E7EFEF202007CFAF2121EF8861AF2C3
:101B8000F2B23438C28E3EF8E2861E3E76E2E2A021
:101B90002000000000000000030A2A2A2A2A2B2B1A
:101BA0002920010B2B2B2B2B21082B2A2A2A2A2B0D
:101BB0002B002B2B2B00282B2B03282B2B2A2A2AFC
:101BC00000000000000000002B2B2B00002B2B003E
:101BD00000002B2A08232B2A2A2B0B22282B2B2A06
:101BE0002A0A22292B2B2A2A2A0A02001D0801026E
:101BF00002020202020202020202020202020202C5
:101C0000020202020202020202020125080102028D
:101C100002020202020202020202020202020202A4
:101C20000202020202020202020202020202020294
:101C3000020117080102020202020202020202026B
:101C400002020202020202020202011D080201391E
:101C50004545017D1569017D5545017D4539017D6C
:101C600001057D05014955350102250802017D1157
:101C70007D017D017D4575017D117D014955350150
:101C800039454501394539017D1569017D554501C4
:101C9000021708020149553501057D0501791579BD
:101CA000017D156901057D0501025E30000000001F
:101CB0000000000000000000000000000000000024
:101CC00000000000000000000000C0F0FCFE1EC08C
:101CD000F0FC0EA000000000000000FEFE00FEFE72
:101CE000C2820A2AAAAA82063EF8E61EFAE2820AFE
:101CF00022A2A68E9C3870E0C08000000000000088
:101D000000000000000000000000000000000000D3
:101D1000000000000000000000000000000C2EAFDA
:101D2000ADACACACACACACAFAF870320A6AFAFAF43
:101D3000AEACACACACACACACACAF07A0AFAFAFA38F
:101D4000A80000020AAAA0A0AFAF0003AFAEACACDF
:101D5000ACACACACACACAD2F0F060000000000008A
:101D60000000000000000000000000000000000073
:101D70000000000000000000000000000000020A57
:101D80000A2A2A2A2A2A2A2A2A280002020A0A2A8F
:101D90002A2A2A2A2A2A2A2A002A2A2A2A2A2A00F7
:101DA0000000002A2A2A2A2A00002A2A2A2A2A2A65
:101DB0000A02020000000000000000000000000015
:101DC000000000000000000000000000C0E0F0F88B
:101DD000FC7E67636363636363636323030383F16D
:101DE000FCFFFFC7000080E0FCFFE3636363636305
:101DF0006363637F7E6060E0C080003C7F7F6363DD
:101E0000636363636363636363E3E3EFEEE4C1838C
:101E10001313531303474F1F3B73E3C3C3820000E5
:101E2000000000000010181C1E1F1F0F47415050DB
:101E300044041454545454540501181E1F1F1F1FEA
:101E4000074100181F1F1F1F034050400014545427
:101E50005454540000001F1F1F004F1F1C18191955
:101E600019191919191918181F1F1F1F1F1F4E00A4
:101E700000505555555554545153474F1F1E1C186B
:101E8000100000000000000000000000010101013E
:101E900001000001050504041101051555555440C4
:101EA000010505151514504105155450410505054A
:101EB00005000055555501000055555555555555CA
:101EC00055555555555555555515050110040505DC
:101ED00005010101010100000000000000000000F8
:101EE00083005601000055008B005500000055008E
:101EF0008B005500000055008B0055000000550078
:101F000083005601000055008B005500000055006D
:101F10008B005500000055008B0055000000550057
:101F2000830056010080060155000000550006019F
:101F3000550000005500060155000000550006013F
:101F40005500000055001501550000005500060120
:101F500055000000AC0106015500000055000601C7
:101F6000550000005500060155000000550006010F
:101F700055000000550015015500000055000601F0
:101F800055000000AC010601AB000000AB000601EB
:101F9000AB000000AB00150156010000AC010601CA
:101FA00055000000550006015500000055000601CF
:101FB00055000000550006015500000055001501B0
:101FC000550000005500060155000000AC01060157
:101FD000550000005500060155000000550006019F
:101FE0005500000055000601550000005500150180
:101FF000550000005500060155000000AC01060127
:10200000550000005500150155000000550026013F
:10201000550000005500150155000000550006014F
:1020200055000080AC2A11241FBECFEFDAE0DEBFDE
:10203000CDBF12E0A0E0B1E0EEEEF7E602C0059001
:102040000D92A83EB107D9F728E0A8EEB2E001C092
:102050001D92A633B207E1F710E1C3E1D0E104C05D
:102060002197FE010E94EA33C231D107C9F70E94CD
:10207000F92A0C94F5330C94000080910103089523
:102080008091A7078F3FA9F034F48C3F59F08E3F21
:1020900071F080E00895813099F074F08230C9F7D2
:1020A00084E001C08EEF8093A70781E008958FEF51
:1020B000FACF1092A707F9CF81E08093A707089580
:1020C00082E0F1CF8091A7078823A9F034F48E3FF6
:1020D00059F08F3F71F080E00895823089F06CF004
:1020E0008430C9F782E001C08CEF8093A70781E0BC
:1020F00008958EEFFACF8FEFF8CF1092A707F7CFA2
:1021000081E08093A707089590912908982329F4E6
:1021100090912808982381E009F480E0089594B50F
:102120009F7D61110CC0589A94BD909180009F755D
:1021300081110DC02E9A2D9A9093800008956F3FC3
:1021400011F45898F1CF9062609568BDEDCF906220
:1021500010928B00809580938A00EDCFE0E2F3E04F
:1021600030EB20E146E05C983EBD4A95F1F72EBD8C
:1021700020E8239507C0449140815C9A4EBD8111AF
:10218000412D419344912A95B1F73395383B49F756
:102190000DB40895FC0180911F03882311F13FB70E
:1021A000F89482E08093E9002091F200822F90E081
:1021B0001816190614F481E090E0882339F0289865
:1021C00044E640931E034091F1004083222339F0FE
:1021D0002091F200211103C02BE62093E8003FBFBD
:1021E00008958FEF9FEF08952FB7F89483E08093C1
:1021F000E9009091E800892F807295FF04C09091CA
:10220000F20080E4891B2FBF08958091160381118D
:102210000DC082E08093120384E080931303109238
:1022200015031092140381E08093160382E193E07A
:1022300008954091FB025091FC022091F9023091E7
:10224000FA0242175307B4F49091E8009570E1F355
:102250009091E80092FD19C08093F1008091FB02FB
:102260009091FC0201968F739927892B19F48EEFB8
:102270008093E8008091FB029091FC02019690937C
:10228000FC028093FB0281E0089580E00895EF92C4
:10229000FF920F931F93CF93DF93F82E192FE62E03
:1022A000042F81E0860F880F0E94191183E00E949D
:1022B0001911CF2DD12FEC0EFD2EF11CCE15DF05FF
:1022C000B9F007FF13C0FE0184910E941911182F65
:1022D00080E00E941911812321968111EFCFDF91B7
:1022E000CF911F910F91FF90EF9008958881EDCFCE
:1022F00081E0F5CFDF92EF92FF920F931F93CF9380
:10230000DF93D82E8A01EB017B01E40EF51ECE157A
:10231000DF0559F0D7FE12C0FE0184910E94191109
:1023200021968111F4CF0FEF1FEFC801DF91CF91FC
:102330001F910F91FF90EF90DF9008958881EECF6D
:102340000F931F93CF93DF931F92CDB7DEB782E039
:10235000898342E450E06CE774E180E80E947A11DE
:102360000E940511DC0112960D911C9101151105B9
:1023700089F0D801ED91FC910280F381E02DBE013E
:102380006F5F7F4FC801099597FD04C0F801008574
:102390001185ECCF89810F90DF91CF911F910F9123
:1023A0000895615030F02091F100FC0120830196E6
:1023B000F8CF289884E680931E030895AF92BF92C9
:1023C000CF92DF92EF92FF920F931F93CF93DF9301
:1023D0006C017B018B01040F151FEB015E01AE1830
:1023E000BF08C017D10759F06991D601ED91FC9152
:1023F0000190F081E02DC6010995892B79F7C5017F
:10240000DF91CF911F910F91FF90EF90DF90CF90D0
:10241000BF90AF900895CF93DF931F92CDB7DEB7F3
:102420006983DC01ED91FC910280F381E02D41E0B4
:1024300050E0BE016F5F7F4F09950F90DF91CF9104
:10244000089583E08093E9008091F200882319F0D9
:102450008AE38093E80008950E94F41090E00895C4
:10246000CF93DF931F92CDB7DEB7FC0184859585AE
:1024700097FD08C02FEF3FEF358724870F90DF913E
:10248000CF910895CE0101960E94CA10019719F4C8
:10249000898190E0F3CF8FEF9FEFF0CF0F931F93E1
:1024A000CF93DF931F92CDB7DEB78C01FC018485FB
:1024B000958597FF0BC0CE0101960E94CA10019727
:1024C00071F4898190E0F80195878487F80184850B
:1024D00095850F90DF91CF911F910F9108958FEF08
:1024E0009FEFF1CFFC018485958597FD0BC09FB7C9
:1024F000F89482E08093E9008091F2009FBF90E021
:10250000019608959FB7F89482E08093E900809146
:10251000F2009FBF90E008953FB7F8948091F502D4
:102520009091F602A091F702B091F80226B5A89B0F
:1025300005C02F3F19F00196A11DB11D3FBFBA2F55
:10254000A92F982F8827BC01CD01620F711D811D15
:10255000911D42E0660F771F881F991F4A95D1F79A
:1025600008958F929F92AF92BF92CF92DF92EF9297
:10257000FF926B017C010E948C124B015C01C11423
:10258000D104E104F104B9F00E948C1268197909B0
:102590008A099B09683E73408105910580F321E01B
:1025A000C21AD108E108F10888EE880E83E0981E6F
:1025B000A11CB11CE4CFFF90EF90DF90CF90BF90B3
:1025C000AF909F908F9008958F929F92AF92BF92FD
:1025D000CF92DF92EF92FF920F931F93CF93DF93EF
:1025E0006C017B018A0180910B01882309F45CC096
:1025F00080911F03882309F457C08091FF0280FF58
:1026000005C08091E00082608093E000E801B12C79
:102610008AEFA82E93E0892E2AE3922E209711F4B8
:10262000BB20D9F10E94F41081110AC0AA94AA20FB
:10263000D9F161E070E080E090E00E94B112EECF4D
:102640008C171D0611F00CF08C2F9FB7F894809218
:10265000E9002091E80025FD02C09FBFDFCF282FB1
:1026600030E0C21BD30BF701815020F04191409321
:10267000F100FACFE20EF31EBB2021F09092E800A9
:10268000B12CEBCF8091E80085FDE7CF9092E80078
:10269000BB24B394209709F3F3CF5D9884E680932D
:1026A000FE02101611063CF081E090E0F6019383E3
:1026B000828310E000E0C801DF91CF911F910F915C
:1026C000FF90EF90DF90CF90BF90AF909F908F9052
:1026D000089520910A03E0910803F0910903CF01C6
:1026E00002969093090380930803222319F08591A1
:1026F00094910895808191810895E1E7F0E08081CF
:102700008D7F80831092910046985F981092ED0221
:102710000895CF92DF92EF92FF92CF93DF930E94C2
:102720006913811520E8920741F4DF91CF91FF9062
:10273000EF90DF90CF900C947D1321E02093ED0279
:10274000813020E8920751F48091060390910703AD
:1027500090930903809308030E94691397FD05C0B5
:102760002091EC02222309F45BC02091EB0221119D
:1027700057C021E02093EE02EC01DF77209709F0AB
:1027800052C081E08093EF0246983FE9C32E3FE0BC
:10279000D32EE12CF12CCAEFD0E0E0910708F091A4
:1027A00008080995811103C081E08093EF028091B0
:1027B000EE02882329F08091EF02882309F446C0B5
:1027C0005F980E946913009709F444C09C01DE01E0
:1027D0000E94A733DC01CB0129E0B595A795979519
:1027E00087952A95D1F7109290002AE020939100C6
:1027F000D0929900C09298008093F0029093F102D9
:10280000A093F202B093F3028091710082608093F2
:102810007100DF91CF91FF90EF90DF90CF900895FE
:102820001092EE02A9CF9E0150E040E060E472E415
:102830008FE090E00E94533369017A0181E0C81A69
:10284000D108E108F1081092EF02A7CF4699B8CF5E
:102850005F9AB7CF8FEF9FEFDC01C5CF9C01E1E717
:10286000F0E090819D7F908381E080930A03309314
:1028700009032093080330930703209306030C9465
:1028800089136F927F928F929F92AF92BF92CF9255
:10289000DF92EF92FF920F931F93CF93DF935C0130
:1028A000D801FA018C2DF590C590211511F4E11491
:1028B000B1F047E04C0D479546954695833009F4B5
:1028C000440F4F9DA001249FE00DF11D259FF00DA9
:1028D000109629F0E49EA00DB11DE59EB00D1124C7
:1028E0008F3F21F4109682E009F081E0CF2DD0E0F7
:1028F000A5014C0F5D1F141615060CF06FC090E873
:10290000A916B1040CF06AC09B012C0D311D1216E2
:1029100013060CF063C0603471050CF05FC0309793
:1029200009F45CC0362F37708B0177FF02C0095F56
:102930001F4F93E0159507959A95E1F7202F77FFA4
:1029400004C0332311F02FEF200F002711270A199D
:102950001B09B7FC02C010E000E090E89A1940386B
:1029600051050CF49F2D901B422F022E000C550B8D
:10297000E42EE0942F3F0CF0E12CDD24D3946C2D59
:10298000677009F4D12CC694C694C694DC0C4D0D26
:10299000511D493051051CF048E0D42ED21ADE18E2
:1029A0002E0D40E82403B00111246A0D7B1D600F39
:1029B000711FFE9C000D111D1124AF01400F511F0E
:1029C000E32E032E000CFF08833009F410C1A8F495
:1029D000813009F4C3C0823009F471C0DF91CF9116
:1029E0001F910F91FF90EF90DF90CF90BF90AF902D
:1029F0009F908F907F906F9008958A3F91F1BD2CAA
:102A0000B20E8B3F59F72B1549F3DB01A05EBC4F8B
:102A100010E000E0091708F09BC0FA01E00FF11F79
:102A2000E491F0E00E2C02C0EE0FFF1F0A94E2F7D3
:102A300027FD05C08C91DE2ED0948D218C933323FD
:102A400061F0273054F46D0180E8C80ED11CAF2E20
:102A5000A094F60180818A2180830F5F1F4F119619
:102A6000D9CFBD2CB20E2B1509F4B8CFDB01A05E77
:102A7000BC4F10E000E0091708F064C0FA01E00F55
:102A8000F11FE491F0E04F010E2C02C0880C991C5C
:102A90000A94E2F727FD03C08C9188298C93332395
:102AA00051F0273044F46D0180E8C80ED11CF601C6
:102AB0008081892980830F5F1F4F1196DCCFAFEF94
:102AC000B0E0032E02C0AA0FBB1F0A94E2F7A09544
:102AD000B0959B2E8D2C820E281509F47FCF8B018B
:102AE000005E1C4FD12CC12CC91630F5FA01EC0D3B
:102AF000FD1DE491F0E03F010E2C02C0660C771C36
:102B00000A94E2F727FD05C0F80180818A2386290F
:102B10008083332359F027304CF45801F0E8AF0E8E
:102B2000B11CF5018081892187298083FFEFCF1AAD
:102B3000DF0A0F5F1F4FD8CF2F5F4C0F5D1F60580C
:102B40007F4FCACF2F5F4C0F5D1F60587F4F8BCFD9
:102B50002F5F4C0F5D1F60587F4F55CFA00FB11FE7
:102B60008D2D820F281709F439CF8B01005E1C4F81
:102B7000D12CC12CC91698F5FD01EC0DFD1DA490BA
:102B8000B12C0E2C02C0AA0CBB1C0A94E2F7A09434
:102B9000B094FA01EC0DFD1D8490912C0E2C02C016
:102BA000880C991C0A94E2F727FD08C0F801708090
:102BB000E72DEA217E2E7828F8017082332349F030
:102BC00027303CF4F801E058FF4FA080BA20B92824
:102BD000B082FFEFCF1ADF0A0F5F1F4FCBCF2F5FFF
:102BE0004C0F5D1FAC0FBD1F60587F4FBBCFE92E50
:102BF000F12CFA01E00FF11FDB01A05EBC4F00E8F1
:102C000010E00E191F09CE19DF09BE01660F771FEC
:102C100041E050E07A01032E01C0EE0C0A94EAF77D
:102C2000592F4D2D892E932ECF93DF93ED01EF96E3
:102C3000EF962296A590C590992059F0AE9C500130
:102C4000CE9C600127302CF4F880D094FD20FB2826
:102C5000F99222233AF0FC90C094FC20FA28FD92CD
:102C60000C94331611965A9529F74A9551F0582D20
:102C700023951124E60FF11DA00FB11DC00FD11D2A
:102C8000D9CFDF91CF911124A9CECF92EF920F939C
:102C90001F934115510539F03AEFC32EE12C10E096
:102CA00000E00E9441141F910F91EF90CF90089582
:102CB000CF92EF920F931F934115510539F032E0F7
:102CC000C32EE12C10E000E00E9441141F910F91EF
:102CD000EF90CF900895CF92EF920F931F93F90149
:102CE0004115510531F0202F8F01CC24C3940E944F
:102CF00041141F910F91EF90CF900895BC0190E087
:102D000080E00C94B1128FB18095807F669B8860C3
:102D10001C9B846008955C988EBD00000DB407FE76
:102D2000FDCF8EB55C9A0895480F592F511D14168A
:102D30001506D4F580389105BCF597FF02C090E0E8
:102D400080E04138510514F040E850E0481BFB0199
:102D500077FD379633E0F595E7953A95E1F7F695E7
:102D6000FE2FEE27F795E795E80FF91FE05EFC4F81
:102D70006770772781E090E001C0880F6A95EAF7D5
:102D8000382F213041F4415078F08191DF011197C3
:102D9000832B8C93F8CF8095415030F09191DF01D7
:102DA000119798239C93F8CF08950F931F93CF9377
:102DB000DF93D0E0C0E000E810E020E040910C019B
:102DC000BE0190E080E00E94941680910C01BE014B
:102DD0006F5F7F4F20E0482FF801E81BF109CF011A
:102DE0000E9494162296C034D10539F7DF91CF9115
:102DF0001F910F91089520E191E061FD94E060FD45
:102E0000990F62FD9295687F269FD0011124A80F2B
:102E1000A05EBC4F8C9140FF03C0892B8C9308951A
:102E200090958923FBCF8038910528F46034710593
:102E300010F40C94FB160895DF92EF92FF920F931B
:102E40001F93CF93DF937C01EB01D22E8B01040FF4
:102E5000111DC8010134110514F080E490E0C81779
:102E6000D9073CF44D2DBE01C7010E9413172196CE
:102E7000F0CFDF91CF911F910F91FF90EF90DF90F6
:102E80000895CF92DF92EF92FF920F931F93CF930B
:102E9000DF936B01122FEC017C01E40EF11CCE15C7
:102EA000DF0544F4202F412FB601CE010E941C17EC
:102EB0002196F5CFDF91CF911F910F91FF90EF9069
:102EC000DF90CF9008956F927F928F929F92AF92F2
:102ED000BF92CF92DF92EF92FF920F931F93CF9307
:102EE000DF934C016B018B0197E7692E712CC7E7CB
:102EF000D0E06815790549F03401EB0168157905D2
:102F000014F03B01E40107E710E05301AC1ABD0ADD
:102F10007501B7FE03C08FEFE81AF80AF594E7943D
:102F20006C167D0694F040E0BE01C801C814D904B7
:102F300011F4B801CE010E941317F7FE04C001502E
:102F40001109EA0CFB1C2196EBCFDF91CF911F9169
:102F50000F91FF90EF90DF90CF90BF90AF909F9038
:102F60008F907F906F9008952F923F924F925F9233
:102F70006F927F928F929F92AF92BF92CF92DF9289
:102F8000EF92FF920F931F93CF93DF93CDB7DEB7EE
:102F90002A970FB6F894DEBF0FBECDBF9A83898300
:102FA0006A3061F5DC0155968C91B8E08B9F9001F9
:102FB0001124E981FA8181899289820F931F928B72
:102FC000818B108A178681E090E02A960FB6F894DC
:102FD000DEBF0FBECDBFDF91CF911F910F91FF904C
:102FE000EF90DF90CF90BF90AF909F908F907F90A9
:102FF0006F905F904F903F902F9008956D3019F330
:1030000029813A813A872987D9011F96AD90BC90D2
:10301000B0E8AB16B1040CF07BC0F901C188D288CE
:10302000F0E4CF16D1040CF073C0D90155966C9022
:10303000559745E09501649E200D311D112412160F
:1030400013060CF065C0262C312C910153E0220FA1
:10305000331F5A95E1F72C0D3D1D121613060CF087
:1030600057C05496BC91BB83E985FA85F389FC83EC
:10307000649FB00111249B012458304F3A83298367
:10308000712CE981FA818491F5E07F1201C080E022
:10309000460138E0532E282F30E03E832D834C80AC
:1030A00080FF4B80411004C03B818C813817E1F0D8
:1030B00010E000E00615C0F4D501A00FB11FB887DD
:1030C000AF83F12CE12CE61460F4B701680D791D93
:1030D000442D8F8198850E941317BFEFEB1AFB0ACE
:1030E000F2CF0F5F1F4FE6CF8D819E81959587951B
:1030F0005A94820C931C5110CECF7394E981FA81BB
:103100003196FA83E983A20CB31CF6E07F12B9CFA3
:10311000A985BA8555962C915597422F50E01F9658
:103120008D919C91B6E02B9F800D911D1124E98516
:10313000FA85908B87872689222309F444CF6AEF8A
:1031400064039001659F300D112420583F4F2817CC
:1031500039070CF038CFDF010190F081E02D0190AC
:10316000F081E02D6AE0CD0109952DCF08950895F5
:1031700090E080E00895FC0183818A3334F4843345
:1031800054F4883164F480E00895803434F08B374F
:10319000D4F78DE0089585E0089587E0089581E0F3
:1031A0000895FC0183818A3334F4843354F48831E4
:1031B00064F480E00895803434F08B37D4F789E0EC
:1031C000089585E0089588E0089581E00895FC0160
:1031D0008381803310F08053089580E00895FC01CE
:1031E0002381418152812403C001259F900D112428
:1031F00060E670E00E94D633CB01C99620342CF4EF
:103200002A334CF4243324F408952B373CF00895EA
:10321000CB01C7960895CB01C6960895CB01C396FE
:1032200008950F931F93CF93DF938C010E94EF18A3
:10323000EC01C8010E94D1188C0F9D2F911D97FDA4
:1032400004C081E0C837D1050CF080E0DF91CF9158
:103250001F910F910895FC019481907F67FD04C038
:103260006F70692B6483089598606770FACFFC01D2
:10327000948180E16802900111249F7067FD03C072
:10328000922B9483089590682077FACFFC01848173
:1032900083FF02C0806F08958F700895FC019481B0
:1032A000892F82958F7097FD806F0895CF92DF925E
:1032B000EF92FF920F931F93CF93DF93EB017B016C
:1032C00024E0E20EF11C8B016C01C61AD70AC6017C
:1032D000800F911F0E943D33F80181938F01EE15FD
:1032E000FF05A9F7CE01DF91CF911F910F91FF90BC
:1032F000EF90DF90CF9008950C943D33EF92FF92C2
:103300000F931F93CF93DF9300D000D0CDB7DEB7DC
:103310008B0198E0899F70011124C701825C9E4F48
:103320000E947C19F8018083C701815C9E4F0E9436
:103330007C19F8018183C701805C9E4F0E947C1933
:10334000F8018283C7018F5B9E4F0E947C19F801B0
:10335000838319821A821B821C82BE016F5F7F4F9A
:10336000C7018E5B9E4F0E94561989819A81AB815D
:10337000BC81F80184839583A683B7830F900F9057
:103380000F900F90DF91CF911F910F91FF90EF90D1
:103390000895E1E4F7E081EA97E015821682389615
:1033A0008E179F07D1F710922407109227071092CB
:1033B0002A0710922D0710923007109233071092AF
:1033C00036071092390710923C0710923F0710926F
:1033D00021071092140882E080930E0810921908B9
:1033E00010921B0810921A080E94E53223E030E088
:1033F00040E050E00E9453336E5F7F4F8F4F9F4FEE
:1034000060931D0810921E080895FC010190002091
:10341000E9F73197AF01481B590BBC0189EA97E0E6
:103420000C94E4128F929F92AF92BF920F931F93CE
:10343000CF93DF93CDB7DEB7A1970FB6F894DEBF79
:103440000FBECDBF19A2423008F44AE08E010F5DD5
:103450001F4F842E912CB12CA12CA50194010E9408
:103460008533E62FB901CA01EA30F4F4E05DD801F2
:10347000EE938D01232B242B252B79F790E080E010
:10348000109719F0CD010E94051AA1960FB6F89475
:10349000DEBF0FBECDBFDF91CF911F910F91BF90C7
:1034A000AF909F908F900895E95CE1CFAF92BF926B
:1034B000CF92DF92EF92FF920F931F93CF93DF9300
:1034C00060911D0870E090E080E04AE00E94121ACE
:1034D00083EE92E00E94051A60911E0870E090E071
:1034E00080E04AE00E94121A80911E088F5F80934C
:1034F0001E0890911D08891381C00E94E53222E0C8
:1035000030E040E050E00E94533324E3C22EC60E68
:1035100083EE92E00E94051A6C2D70E090E080E04E
:103520004AE00E94121A85EE92E00E94051AEC2DE4
:10353000F0E0EE0FFF1FE15BFD4FE080F180F7014F
:10354000A490809114088A0D8093140880911C081F
:10355000863330F48E5F873309F486E380931C084A
:10356000B12C01E010E081EAC82E87E0D82EAB1420
:1035700009F45DC0C1E4D7E08D81811152C0F7012B
:10358000E00FF11F8491E881E07FE82BE883F801E8
:103590003196EE0DFF1DE4910E2E000CFF0BFA8309
:1035A000E983F8013296EE0DFF1DE491EB83F801FB
:1035B0003396EE0DFF1D6491CE010E943719F8017C
:1035C0003496EE0DFF1D6491CE010E942B19F80177
:1035D0003596EE0DFF1D849198819F7120E2829FA8
:1035E000F0011124E92BE883F8013696EE0DFF1D5A
:1035F000095F1F4FE491ED83B394B9CFC0901C08CD
:10360000D12CF12CE12CC114D104E104F10409F412
:103610007FCF0E94E532A70196010E9453336B01D0
:1036200077CF2896CC16DD0609F0A6CFE5CF80919E
:103630000F0896EF899F802D11248C598536B8F09C
:1036400084E690E0909316088093150880911908FD
:103650008B0D809319088B2DDF91CF911F910F91C6
:10366000FF90EF90DF90CF90BF90AF90089582339E
:1036700040F782E3E6CF2F923F924F925F926F9294
:103680007F928F929F92AF92BF92CF92DF92EF92F2
:10369000FF920F931F93CF93DF93CDB7DEB7EB97D6
:1036A0000FB6F894DEBF0FBECDBF86EA0E948B1620
:1036B00085E0E1E1F1E0DE019F9601900D928A95AF
:1036C000E1F7109111031D3009F4DCC02091A70728
:1036D000822F022E000C990B97FF03C091958195C4
:1036E0009109FE01E80FF11D87FDFA959091EA021C
:1036F00087A598133DC081E012160CF08FEF309132
:103700000E08082E000C990B830F911D37FD9A951A
:1037100065E070E00E94D63387FD8DC080930E086F
:103720001092EA02822F27FD8F5F8595E1E4F7E092
:103730009581953041F49381980F99370CF098E773
:1037400097FD90E09383389627E0E13AF20781F7FE
:10375000E3E2F7E021E437E09181992329F0980F23
:10376000913408F06AC0918333962E173F07A1F772
:103770008091EA028F5F8093EA02812F8D7F8430EF
:1037800009F480C080911A0890911B08009729F0D5
:10379000019790931B0880931A0820912608909116
:1037A0002708822F6CE370E00E94C233892B39F422
:1037B0008091A507882319F081508093A50720FDEB
:1037C00061C071E4E72E77E0F72ED70115968C9152
:1037D0001597853009F04DC016968C911697882361
:1037E00019F0815016968C93F701808190E065E086
:1037F000959587956A95E1F7813009F4B6C1F8F09F
:10380000823009F4F3C1833009F42BC2C7010E944E
:103810004E19F70121813281280F311D87FD3A951C
:1038200032832183C7010E944619D70113969C91C8
:103830001397890F97C18B5F71CF118295CFC70105
:103840000E944E1987FF5FC1D70111962D913C91BF
:10385000213B3F4F0CF460C1D70111962D913C9153
:103860001297280F311D87FD3A9512963C932E939F
:103870001197B8E0EB0EF11CE1EAEE16E7E0FE0668
:1038800009F0A3CF83E2E6E1F1E0DE0111960190B9
:103890000D928A95E1F7A0900E08F7E0AF9E5001D7
:1038A000112452E0E52EF12CF501EE0DFF1D3297AB
:1038B00021E030E02C0F3D1FE20FF31F20812C5F31
:1038C0009E2CC70195958795082FC22ED12C41E0DB
:1038D000B601802F90E00E941317090D0138B8F34C
:1038E0003FEFE31AF30A69E0E616F104E9F681E432
:1038F00097E09FAB8EAB6C013EE1232E312CD601BD
:103900001596FC901597FF20B9F013960C9108516D
:10391000083508F0F5C2C6010E941119882309F480
:10392000EFC2B5E0FB1609F41CC2BF1508F4DFC1F5
:10393000E1E0FE1608F086C2E8E0CE0ED11C21EAD6
:1039400037E02C153D05D9F685E0E9E3F1E0DE012D
:103950009A9601900D928A95E1F7E091A807EF30D1
:1039600009F0D9C38091A707282F082E000C330B2C
:1039700037FF03C0319521953109FE01E20FF11D9A
:1039800027FDFA9522A5882309F4B4C30CF075C36A
:103990008C3F0CF08DC360912107662341F070E0ED
:1039A0008091200721E045E090E00E941C1763E22F
:1039B00077E07DAB6CAB81E4682E87E0782E7B01ED
:1039C000D70111968C911197882321F1882E912C83
:1039D000AC90B12C803430F421E042E0B401C50158
:1039E0000E949416B4016F5F7F4F603471052CF410
:1039F00021E042E0C5010E94941621E042E0B401BA
:103A0000C5010E941C1721E042E0B401C5010196E6
:103A10000E941C17B3E0EB0EF11C6E147F0481F6BC
:103A2000173049F48091260880FD05C080910F036E
:103A30008F5F80930F0320E046E658E070E060E07F
:103A400082E790E00E945816FE01B49686E0DF01FE
:103A50001D928A95E9F76091100870911108809184
:103A60001208909113085F014E01BAE28B0E911C6F
:103A70000AE0402E512C612C712CA30192010E946E
:103A80008533F50161935F01B901CA018E169F0666
:103A9000A1F7540188248394912CD5012E915D01C6
:103AA00042E358E0B4018BE790E00E945816B5E07D
:103AB0008B0E911CEFE18E16910479F70091A1070E
:103AC000812F8D7F843009F055C38091100380FFD2
:103AD00037C3802F880F880FB02EB81ABB0CF0E4C4
:103AE000BF0E10160CF060C36B2D0B2C000C770B67
:103AF00020E04BE258E08BE790E00E94581601501E
:103B000026E0B20EEECF882339F0F7012181328111
:103B1000203531050CF4A0CE682F6195C7010E94B5
:103B20003719C7010E94461987FF0AC0F701938120
:103B300019166CF0682F6195C7010E942B1999CE58
:103B40008823C1F3D70113969C9198379CF7F7010E
:103B500063819091A70719161CF487FD8F5F8595E7
:103B6000860FD70113968C9384CEC7010E944E19FD
:103B700087FF0CC0F70121813281213B3F4F7CF44C
:103B8000682F6195C7010E94371912C08823C1F3BD
:103B9000D70111962D913C91203531058CF7F70115
:103BA00021813281280F311D87FD3A95328321838F
:103BB000C7010E94461987FF0AC0D70113966C916E
:103BC00016160CF0B7CF860FF701838352CE8823E9
:103BD00009F4B0CFD70113966C9168370CF0AACFD7
:103BE0009091A70719167CF78595EDCFC7010E9424
:103BF0004E1987FF0DC0D70111962D913C91213BA5
:103C00003F4F74F4682F6195C7010E94371915C0A2
:103C10008823C1F3F701218132812035310594F7E2
:103C2000D70111962D913C911297280F311D87FDD8
:103C30003A9512963C932E931197C7010E9446190C
:103C4000181624F4F7019381983724F0D7011396BE
:103C50001C920FCE2091A70712160CF48595890FA0
:103C6000B3CF87818F5F8330B9F08783D7011796F1
:103C70008C918111FECDC7010E944E1987FF0EC0A5
:103C8000F70121813281213B3F4F8CF4682F6195F0
:103C9000C7010E94371914C01782E8CF8823B1F3F7
:103CA000D70111962D913C91203531057CF7F70114
:103CB00021813281280F311D87FD3A95328321837E
:103CC000C7010E94461987FF06C0D70113969C9131
:103CD0001397191644F0F70115828091140881504A
:103CE00080931408C6CD980F13969C93C2CDFDE027
:103CF000FF1508F421CEFAEFFF0ED6018C918F70DC
:103D00008CAB083258F4E02FF0E0E25CFE4F80818B
:103D1000823009F4ADC0833009F0CCC08091260810
:103D200090912708B1010E94C233E1E18E2EEAE0B2
:103D30009E2EF9E4AF2EFBE0BF2E6CE7462E6CE022
:103D4000562E7BE6672E7AE1772E8F3008F4BAC0C4
:103D500028E4422E2DE0522E3DEC632E39E1732EE5
:103D6000B1C0083208F050C0E02FF0E0E25CFE4F36
:103D7000808100E094E1892E9EE0992E2DE1A22E13
:103D80002FE0B22E8130A1F000E079E1872E7EE0B5
:103D9000972EEEE7AE2EEEE0BE2E813048F0823058
:103DA000B1F0833089F100E0912C812CB12CA12C51
:103DB000C6010E94E718F82EC6010E94EF186F2D69
:103DC00070E0E02E9401A5010E946B16B5CDD601DE
:103DD0000C910F708091260890912708B1010E94E4
:103DE000C23354EE852E5DE0952E6CE4A62E6EE077
:103DF000B62E8F30E8F6B8E18B2EBDE09B2E8AE11F
:103E0000A82E8EE0B82ED4CFF60100810F708091DD
:103E1000260890912708B1010E94C233FCE78F2E3B
:103E2000FCE09F2EABE6AA2EAAE1BA2E8F3008F452
:103E3000BFCF38E4832E3DE0932E4DECA42E49E114
:103E4000B42EB6CFC6010E94E718082FC6010E9403
:103E5000EF18FA94EF2DF0E0EE0FFF1FEA59FE4F36
:103E600040815181602F70E020E00E94451664CDB2
:103E70008091260890912708B1010E94C23301E089
:103E8000802E0BE0902E9BE3A92E9CE0B92EA8E19A
:103E90004A2EADE05A2EBAE16B2EBEE07B2E8F305B
:103EA00088F044EE442E4DE0542E5CE4652E5EE036
:103EB000752E08C0912C812CB12CA12C512C412C99
:103EC000712C612CC6010E94E718082FC6010E94C0
:103ED000EF18602F70E0ECA80E2D9201A3010E9454
:103EE0006B16C6010E94E718082FC6010E94EF1842
:103EF000602F70E0EF2C0F2D9401A501019764CF86
:103F0000B5E0FB1219CDC6010E94E718082FC601C3
:103F10000E94EF1820EC200F223308F046C097FFD4
:103F20001EC040E06BE370E090E080E00E94FB1672
:103F300021E043E06CE370E090E080E00E941C1719
:103F400021E043E06FE370E090E080E00E9494168F
:103F500040E06FE370E084E090E00E94FB16C60151
:103F60000E94EF1840E0823791050CF46DC06BE3BE
:103F700070E081E790E00E94FB1621E043E06CE3F3
:103F800070E081E790E00E941C1721E043E06FE3BE
:103F900070E08EE690E00E94941640E06FE370E0DF
:103FA0008DE690E00E94FB16C7CC97FF22C0602FE1
:103FB00070E06E5F7F4F40E090E080E00E9413175A
:103FC000C6010E94E718682F70E06D5F7F4F21E007
:103FD00046E090E080E00E941C17C6010E94E718AE
:103FE000682F70E0675F7F4F40E090E080E00E94C4
:103FF0001317C6010E94EF18823791050CF49CCC70
:10400000C6010E94E718682F70E06E5F7F4F40E0A6
:1040100081E790E00E941317C6010E94E718682FFD
:1040200070E06D5F7F4F21E046E081E790E00E9405
:104030001C17C6010E94E718682F70E0675F7F4F6A
:1040400040E081E790E016C06FE370E002960E94C6
:104050001317C6010E94EF1821E046E06FE370E0FD
:1040600003960E949416C6010E94EF1840E06FE389
:1040700070E009960E9413175FCC85300CF08BCC52
:10408000E091A207F0E0622F70E080912608909105
:1040900027080E94C233622F0E94B6332695E12C76
:1040A00000E0921798F529E139E047E359E017C09D
:1040B000E091A207F0E0622F70E0809126089091D5
:1040C00027080E94C233622F0E94B6332695E12C46
:1040D00000E0921750F423ED39E041EF59E060E33E
:1040E00070E0CF010E946B1656CC25E939E043EB16
:1040F00059E0F5CF8091A207E12C00E027E539E0F7
:1041000045E759E060E370E090E0ECCF2BED38E05C
:1041100049EF58E0E4CFEB5048ED58E0E43038F494
:10412000F0E0EE0FFF1FEA59FE4F40815181809170
:10413000A20720E060E370E090E00E9445162BCCDF
:104140000150802F880F880FB02EB81ABB0C30E4B6
:10415000B30E10164CF56B2D0B2C000C770B20E0DA
:104160004BE258E08BE790E00E945816015066E061
:10417000B60EEFCF0150802F880F880FB02EB81ADF
:10418000BB0C70E4B70E10167CF46B2D0B2C000CDE
:10419000770B20E04BE258E08BE790E00E94581646
:1041A000015086E0B80EEFCF20E04DE058E070E01F
:1041B00060E084E790E00E9458166091A50770E0E7
:1041C0006A5F7F4F8CE190E00E9463176091A307C4
:1041D000062F000F20E04FEE57E067E270E084E723
:1041E00090E00E945816602F70E0625D7F4F8DE373
:1041F00090E00E946317163009F0F3C08091260802
:10420000909127086CE070E00E94C233892BE9F49A
:1042100080910E039091E9028917B8F48F5F809323
:104220000E038091100890911108A0911208B0918E
:1042300013088C509E4FAF4FBF4F80931008909340
:104240001108A0931208B093130800E026E14EE491
:1042500062E170E083E190E00E94411720E049E0D4
:1042600057E063E170E084E190E00E944516109110
:104270000E03212F30E03595279549E05BE16EE193
:1042800070E08AE490E00E944516A5E01A9FC00104
:1042900011246AE070E00E94D633282F49E05BE1E8
:1042A0006EE170E08FE490E00E94451620E049E066
:1042B0005BE16EE170E084E590E00E94451620E04D
:1042C00049E05BE16EE170E089E590E00E9445160F
:1042D000109111031D3091F400E02DE041E265E101
:1042E00070E08CE290E00E94411720E04FEE55E034
:1042F00066E170E089E290E00E9445168091E80254
:104300008F5F813608F0D2C08093E80280911A084E
:1043100090911B08892B09F4D1C00091E802003369
:1043200008F0C7C0602F70E06E5F7F4F759567958E
:1043300080E00E948F10003348F420E042EE55E008
:104340006FE170E085E790E00E9445168091A80734
:104350008F3009F0D9C01D3009F4BDC40E94831606
:1043600084FF05C00E94621081111092EA020E942F
:10437000831687FF05C00E94401081111092EA0247
:104380000E94831685FF07C08091A207882319F039
:1043900081508093A2070E94831686FF07C08091F8
:1043A000A207863618F48F5F8093A2071D7F143012
:1043B00009F493C088E00E948410882309F483C024
:1043C00080912107811189C08DE28093210780911E
:1043D000A207895F809320078EE69FE00E942E143B
:1043E0007CC0143009F074CF80911003823009F43E
:1043F0004DC0982F9D7F943009F451C0883009F446
:104400004EC080910F0800E02DE0813021F48091B2
:10441000A107843061F14EE265E170E083E290E053
:104420000E94411720E04FEA56E066E170E084E226
:1044300090E00E94451680910F081AE0612F0E94BB
:10444000B633282F49E05BE169E170E083E490E056
:104450000E94451680910F08612F0E94B633292FC4
:1044600049E05BE169E170E088E490E02FCF45E34B
:1044700065E170E08EE190E00E94411720E047E4A2
:1044800056E066E170E08FE190E020CF8091ED0290
:1044900081111ECF8DE396E00E942E1419CF8091DA
:1044A000ED02811115CF83E396E0F6CF1092E8027A
:1044B0002DCF802F869562E3681B3ACF60E080E0C5
:1044C0000E948F1043CF80911A0890911B08892B6E
:1044D00021F00E94831683FD73CF0E94831684FD12
:1044E00013C00E94831687FD0FC08091260890910B
:1044F00027088F709927892B39F48091A707181600
:104500000CF0BAC00E94621010911103812F8D7FB0
:10451000843059F084E00E948410882331F08DE0CB
:10452000173009F087E08093110380911103982FD1
:104530009D7F943009F44FC38D3009F44CC39091A2
:1045400021079B3008F49EC095509093210740911D
:10455000A707E3E28E2EE7E09E2EF40121812223BD
:10456000F1F08281382F3595359535953595508107
:10457000350F3083382F387014160CF487C033236E
:1045800009F482C0806F820FD40111968C93D401FC
:1045900011968C911197813410F011961C92B3E012
:1045A0008B0E911CE814F904C1F6992309F416C185
:1045B00060902007712CF3013197F9AFE8AF492ED5
:1045C000512C7201F5E0EF1AF10801E417E09301B4
:1045D0002E5F3F4F3BAF2AAFD80115968C911597B0
:1045E000853009F0C1C016968C918111BDC0C801FB
:1045F0000E94EF185C01C8010E94E718282EC8012C
:104600000E94D118382EC8010E94BB18EAADFBAD3C
:10461000AE16BF060CF0A8C0A30CB11C28AD39AD76
:104620002A153B050CF0A0C0312C241435040CF0E5
:104630009BC0280E311CE214F3040CF095C0E4E09A
:10464000D8011596EC9384E29FE00E942E142091ED
:104650001A0830911B08D8018C91982F9F709230C6
:1046600009F463C0F8F4992309F453C0913009F4B4
:1046700057C090E080E064C0882309F445CF0E94D1
:10468000401042CF90E061CF8F707DCF332341F057
:10469000806F87FD8F5F8595820FF401818377CFCF
:1046A0008F70F7CF933009F447C0E1E4F7E0B12C05
:1046B000A12C9430F1F695819111CFC173E0AA0C31
:1046C000BB1C7A95E1F7F501EF5BF84F5F01808144
:1046D00080718566808325E02583D80111968D91B0
:1046E0009C9112979283818313968C9183836FEFB1
:1046F000CF010E942B192AE0F50126838091190829
:104700008F5F80931908809114088F5F809314083D
:1047100010C086E990E0232B99F08CE291E010C064
:10472000232BD9F388E592E00BC084E893E0232B98
:1047300039F482EC91E004C080EB94E0232B91F3F8
:10474000409110085091110860911208709113085F
:10475000480F591F611D711D409310085093110897
:104760006093120870931308085F1F4FC016D1069C
:1047700009F032CF03E217E022E0620E711CD8018B
:1047800011962C911197222321F18C9190E086159E
:104790009705FCF4AC014E5F5F4FE8ADF9ADE4174F
:1047A000F507BCF430E0241535059CF42E5F3F4F2F
:1047B000E216F30674F411961C9220E04DE15FE0DE
:1047C0006EEF7FEF02970E94451687E19FE00E94FF
:1047D0002E140D5F1F4F8016910689F68091A80751
:1047E0008F3009F090C0A090A207B12C7501FFEFA7
:1047F000EF1AFF0A01E417E015012EE0220E311C2A
:10480000D80115967C901597772009F441C013962E
:104810008C9188518835E0F5C8010E9411198823D0
:10482000B9F1B5E07B1234C0C8010E94E718482EE8
:10483000E4E1E81768F5C8010E94EF1801963C0111
:10484000C8010E94D118582EC8010E94BB18D80177
:104850009C915A945A949301250D311DE216F3064A
:10486000A4F4621473048CF4512CBFEF4B1A5B0A4E
:104870002EEF280F240D352D311D253331052CF059
:10488000ECE34E1651040CF401C19F7ED8019C93B9
:10489000085F1F4FC016D10609F0B2CF03E217E040
:1048A000FEE0AF0EB11C50E1752E6EE0662ED80111
:1048B00011968C911197882309F12C9130E0A90170
:1048C0004E5F5F4FE416F506CCF42A153B05B4F4B1
:1048D0008353893098F487EA0E948B1670928A007D
:1048E0008091A307F8011182882309F408C181503F
:1048F0008093A3078FE89EE00E942E140D5F1F4F48
:1049000080169106A1F64091260850912708CA0109
:1049100083709927892B51F520911408E1E4F7E081
:1049200095819150943020F49583911101C02150CC
:104930003896CE16DF06A1F7209314089091A807A9
:1049400091509E3098F49093A80791110FC09091C8
:10495000A107992319F091509093A1078091A10785
:10496000882309F4D1C083E080931103CA0163E076
:1049700070E00E94C233892B91F4AEA9BFA91596AD
:104980008C911597863018F0815015968C93EEA96E
:10499000FFA93896FFABEEABCE16DF0671F780911C
:1049A0000F08835E880FC82ED12CF12CE12C09F062
:1049B000ADC0F12CE12C3CE0432E512C612C712C2C
:1049C0004CE0842E912CACA9BDA911968C9181113B
:1049D00035C00E94E532A30192010E945333D12CCD
:1049E000C12CA62EB12CC5018C0D9D1DB4010E94B9
:1049F000D6338C0123E0000F111F2A95E1F70F5BDE
:104A0000184FF80180818F70843088F4C8010E94AB
:104A1000461987FD0CC0D80115968C9115978530E5
:104A200031F413968C918B538D3108F4EDC0BFEFA8
:104A3000CB1ADB0AECE0CE16D104A9F6FFEFEF1A91
:104A4000FF0A2CA93DA92D5F3F4F3DAB2CAB3AE0AF
:104A5000E316F10409F0B7CF64C03FEFA31AB30A1D
:104A600038966CE0A616B10409F025CE80718566F3
:104A7000D8018C93E5E01596EC931597F5E0169622
:104A8000FC936FEFC8010E942B1953CE892F8F70B2
:104A90008530B0F0853009F0FBCED80115961C9218
:104AA00081EA9EE00E942E14E4EFF1E0F0931B08EF
:104AB000E0931A0880911408815080931408E8CE7E
:104AC00094FDE6CE9061F801908324E0258387EA87
:104AD0000E948B1630E130938A008091A3078823CF
:104AE00041F081508093A30785E09FE00E942E143F
:104AF000CFCE6EE06093A8078BEB9EE0F7CF60927D
:104B0000A8078BEB9EE0F8CE88E02ECF0E94E5321E
:104B1000A70196010E945333672B682B692B09F478
:104B200048CF8091A50781110BC08091A8078F30D5
:104B300039F48EE08093A8078BEB9EE00E942E1440
:104B40008091150890911608009729F0019790938D
:104B50001608809315088091150890911608892BE6
:104B6000D1F4809114088930B0F480910F088B5FE4
:104B7000880F90911908981770F40E94561A682FA0
:104B80006150770BFB01EE0FFF1FE259FE4F808152
:104B900091810E942E14809111038730E1F480915D
:104BA0001408811118C080910F0895E0980F990F93
:104BB00020911908291778F09091A5079A3008F0EC
:104BC00099E09093E90210920E038F5F80930F0893
:104BD00085E080931103EB960FB6F894DEBF0FBE0D
:104BE000CDBFDF91CF911F910F91FF90EF90DF909C
:104BF000CF90BF90AF909F908F907F906F905F907D
:104C00004F903F902F900895C8010E94EF18B82E42
:104C1000C8010E94D1188695B80E6701CC0CDD1C26
:104C2000C6018E0D9F1D9C012D5D384F4901D90194
:104C3000BC92C8010E94E718A82EC8010E94BB18A8
:104C40008A0DF4018183C8010E9446198F5FD40147
:104C500012969C9187FD30C0907F8F70792E782AB4
:104C6000C6018E0D9F1DFC01ED5DF84F4F01728254
:104C70008091A20790E007969C012B1931095901F8
:104C8000C8010E94E718272D2F7060E370E0681BB1
:104C90007109C5010E94D6336115710589F077FD50
:104CA00003C067307140A4F0F601EE0DFF1DED5D0D
:104CB000F84F206F228307C0977098608770CECF1F
:104CC000D40112962C9381E89EE00E942E1429CFE5
:104CD0002061F401EFCF109111031CCC0E94F0333E
:104CE0001F93CF93DF93EC01162F0E943D331817CB
:104CF00039F0612FCE01DF91CF911F910C94453394
:104D0000DF91CF911F9108959F92AF92BF92CF9262
:104D1000DF92EF92FF920F931F93CF93DF935C018B
:104D20007B018B01D0E0C0E0F80191908F0165011B
:104D3000CC0EDD1EC6010E943D33981621F0692D70
:104D4000C6010E9445332196C430D10569F7C701D9
:104D5000DF91CF911F910F91FF90EF90DF90CF9057
:104D6000BF90AF909F900895CF92DF92EF92FF9205
:104D70000F931F93CF93DF9300D000D0CDB7DEB752
:104D8000082F8CE391E00E947C19182F8DE391E0AD
:104D90000E947C19011105C01A3419F4863409F4F3
:104DA0003DC019821A821B821C826AE48CE391E066
:104DB0000E94702666E48DE391E00E94702688E8E8
:104DC000C82E83E1D82EE12CF12C0EE311E060E037
:104DD000C8010E94702660E0C80101960E947026FA
:104DE00060E0C80102960E94702660E0C801039648
:104DF0000E947026C982DA82EB82FC82BE016F5F5C
:104E00007F4FC80104960E948426085F1F4F88EEDA
:104E1000C81A83E0D80AE108F108C9F60F900F908C
:104E20000F900F90DF91CF911F910F91FF90EF9016
:104E3000DF90CF9008951F920F920FB60F9211241A
:104E40008F939F938091E1009091E100937F9093E5
:104E5000E10083FF0FC01092E90091E09093EB0016
:104E60001092EC0092E39093ED0010921F0398E0F3
:104E70009093F00082FF22C093E09093E90090911C
:104E8000F200992319F09AE39093E8009091FE02C2
:104E9000992341F09091FE0291509093FE0291115E
:104EA00001C05D9A90911E03992341F090911E03D9
:104EB000915090931E03911101C0289A84FF18C04D
:104EC0008091E2008E7E81608093E2008091E1001B
:104ED0008F7E8093E1008091FF028E7E80618093BF
:104EE000FF029F918F910F900FBE0F901F9018950A
:104EF00080FFF7CF8091E2008E7E80618093E20098
:104F00008091E1008E7E8093E1008091FF028E7E91
:104F10008160E5CF1F920F920FB60F921124CF92AE
:104F2000DF92EF92FF920F931F932F933F934F9334
:104F30005F936F937F938F939F93AF93BF93EF9301
:104F4000FF93CF93DF93CDB7DEB76C97DEBFCDBFB6
:104F50001092E9008091E80083FF25C068E0CE014F
:104F600045960E94D11182EF8093E8008D8987FFDA
:104F700039C09091E80090FFFCCF982F907609F00F
:104F800034C19E894F89588D2F89F88C911131C079
:104F9000803861F5809100038093F1001092F10058
:104FA0008EEF8093E8006C960FB6F894DEBF0FBECC
:104FB000CDBFDF91CF91FF91EF91BF91AF919F91C5
:104FC0008F917F916F915F914F913F912F911F91A1
:104FD0000F91FF90EF90DF90CF900F900FBE0F904A
:104FE0001F9018959EEF9093E800C7CF1092F100A4
:104FF000D5CF913059F48111D3CF4130510581F68D
:10500000809100038D7F80930003CACF933049F4D1
:105010008111C6CF4130510519F68091000382609D
:10502000F2CF953041F48091E80080FFFCCF2068FA
:105030002093E300B5CF963009F0A9C00B8D1C8DED
:1050400022E01092E9001092FC021092FB02F21290
:105050002EC01092FA021092F9020E94A0111F8233
:1050600099E09983FA8291E09E8390EA98879AEF7B
:1050700099872091FB023091FC02275F3F4F3C83D0
:105080002B838D831092E9001092FC021092FB0298
:105090001093FA020093F90249E050E0BE016F5FFD
:1050A0007F4F80E00E947A110E94A01179CF109367
:1050B000FA020093F9020E940511DC0112960D918B
:1050C0001C910115110509F451C1D801ED91FC9114
:1050D0000480F581E02DBE016B5E7F4FC80109950C
:1050E000009709F03EC1F80100851185EACFF3E091
:1050F000FF120EC08F89882309F440C0823061F40A
:1051000040E867E080EE94E10E944711811148CFAA
:1051100081E28093EB0047CF813029F440E86BE0D7
:1051200084ED94E1F1CF833099F70E940511DC0101
:105130001296ED90FC908E010F5F1F4F6801E114F5
:10514000F10479F0D701ED91FC910680F781E02D13
:10515000B801C7010995080F111DF701E084F1841A
:10516000EECFD8011C92F60101900020E9F73197AB
:10517000BF016C197D0940E0C601C6CF6EEB74E13A
:10518000FB01449150E080E80E947A1109CF9730EA
:1051900009F4BECF983021F481E08093F10000CF74
:1051A000993009F0FDCE837009F0B2CFE7E7F1E066
:1051B00081E031E096E32191222371F08093E900B0
:1051C0003093EB00DF0111972C912093EC0090932A
:1051D000ED008F5F873079F78EE78093EA001092B9
:1051E000EA008F8980931F03DBCE8B8D9C8D1092FC
:1051F000E9001092FC021092FB029093FA02809355
:10520000F902898D811192C08E899D89913A49F464
:10521000813209F07DCF47E050E064E071E080E04A
:10522000B3CF913209F074CF833269F48F89988DAE
:10523000B0E0A0E08093000190930101A0930201EF
:10524000B0930301ADCE803269F48091E80082FF13
:10525000FCCF67E084E091E00E94D1118BEF809356
:10526000E8009ECE823209F09BCE8F8980930B019D
:10527000EEEFFFE7859194918B3F9C4D51F1E0E07B
:10528000F8E08091040190910501A0910601B09190
:105290000701803B9440A105B105F1F480910B0119
:1052A00080FD1AC0EE3F8AE0F80789F587E797E7A7
:1052B00091838083809160008093FD0288E19BE070
:1052C0000FB6F894A895809360000FBE909360008D
:1052D00067CEEEEFFAE0D5CF80819181873797478F
:1052E00009F05ECEA895809160008861809360008F
:1052F0008091FD0280936000EE3F2AE0F20789F082
:105300008091FE0A9091FF0A9183808349CE80812B
:1053100091818737980751F29093FF0A8093FE0A94
:10532000C5CF1092FF0A1092FE0A3ACE0E940511D4
:10533000DC0112960D911C910115110509F4E8CEBE
:10534000D801ED91FC910190F081E02DBE016B5EE2
:105350007F4FC8010995811123CEF8010085118581
:10536000EBCF181619060CF41BCED2CEF1E0FF12CB
:10537000BECE62EC74E104CF1F920F920FB60F9273
:1053800011242F933F938F939F93AF93BF9380915B
:10539000020390910303A0910403B091050330919F
:1053A000F40223E0230F2D3758F50196A11DB11DFE
:1053B0002093F4028093020390930303A0930403C9
:1053C000B09305038091F5029091F602A091F70247
:1053D000B091F8020196A11DB11D8093F502909342
:1053E000F602A093F702B093F802BF91AF919F919C
:1053F0008F913F912F910F900FBE0F901F90189596
:1054000026E8230F0296A11DB11DD2CF1F920F9245
:105410000FB60F9211242F933F934F935F936F9387
:105420007F938F939F93AF93BF93EF93FF9380915D
:10543000F0029091F102A091F202B091F302892B57
:105440008A2B8B2B09F440C08091EF0281110BC095
:1054500088B190E4892788B98091EE02882319F0F9
:105460008BB180588BB98091F0029091F102A0919C
:10547000F202B091F302181619061A061B069CF4E4
:105480008091F0029091F102A091F202B091F302AA
:105490000197A109B1098093F0029093F102A093C2
:1054A000F202B093F302FF91EF91BF91AF919F9100
:1054B0008F917F916F915F914F913F912F910F90BD
:1054C0000FBE0F901F9018950E948913ECCF0F9379
:1054D0001F93CF93DF938C0181E090E00E947C19B1
:1054E00080FF32C08AE090E00E947C199FEF980F05
:1054F0009E3F50F522E330E0D80150963C932E9326
:105500001F9728E330E052963C932E935197CBE0BF
:10551000D0E0D801ED91FC910190F081E02D682F51
:10552000C8010995CE010E947C192196C131D1058F
:1055300081F780E00E94AE1088EE93E0DF91CF917A
:105540001F910F910C947E16DF91CF911F910F91B7
:10555000089504970C94672AE9EAF7E0138212820F
:1055600088EE93E0A0E0B0E084839583A683B783C0
:1055700081EC92E0918380838FEF9FEF9587848702
:10558000EFE1F8E0138212821186128680E18387B0
:10559000108617821586108A1786128A118A81E072
:1055A000838B148A858B168A83ED92E091838083A6
:1055B00081EE92E0958384838DE390E190930808D7
:1055C0008093070880E090E8909306088093050890
:1055D00046983E9A5F98579A10921B0810921A08A4
:1055E000E9E0F8E08FEF8083118212821382148247
:1055F0000895CF93DF93CDB7DEB763970FB6F894D6
:10560000DEBF0FBECDBF789484B5826084BD84B503
:10561000816084BD85B5826085BD85B5816085BDAD
:1056200080916E00816080936E0010928100809165
:1056300081008260809381008091810081608093ED
:105640008100809180008160809380008091910032
:10565000826080939100809191008160809391009D
:10566000809190008160809390008091C10084605F
:105670008093C1008091C10082608093C1008091BD
:10568000C10081608093C1008091C30081608093DC
:10569000C3008091C00082608093C0008091C200EE
:1056A00081608093C20080917A00846080937A0048
:1056B00080917A00826080937A0080917A00816084
:1056C00080937A0080917A00806880937A001092AB
:1056D0001F03109200031092FF028091D700816097
:1056E0008093D70080EA8093D80089B5806189BD16
:1056F00089B5826089BD09B400FEFDCF61E070E02C
:1057000080E090E00E94B1128091D8008F7C80618F
:105710008093D8008091E000807F8093E0008091AA
:10572000E1008E7E8093E1008DE08093E200559A47
:10573000209A81EC80937C0081E785B987E684B963
:1057400085E38BB98FE38AB9769A6E9880EF81BB37
:1057500010BA80E58CBD81E08DBD85E090E00E94AF
:105760007E16599902C0599AF8CF5C98E8EEF4E198
:105770009AE085918EBD00000DB407FEFDCF8EB579
:105780009A95B9F75C9A81E88093640081E08093F0
:1057900065000E94831687FF10C085EA0E948B1661
:1057A0002E9858982D9880916400806280936400B0
:1057B00081E083BF889513BEFCCF0E94831682FFD1
:1057C0003AC02D980E94831684788438A9F42D9AC3
:1057D00088EC90E00E947E1658986FEF82E090E08F
:1057E0000E94702684EF91E00E947E16589A0E94D3
:1057F000831684788438D9F30E94831684718431A7
:10580000A9F42D9A88EC90E00E947E162E9860E014
:1058100082E090E00E94702684EF91E00E947E1664
:105820002E9A0E94831684718431D9F388EC90E01B
:105830000E947E16C2CF2D9A84E180932A0880911F
:1058400064008E7F8093640080917A0080648093EE
:105850007A0080917A0086FDFCCF0091780010914B
:1058600079000E948C12AB01BC01C801B0E0A0E03D
:10587000DC01992788278C019D01040F151F261F25
:10588000371FC901B8012091640021602093640092
:10589000611571058105910511F00E94343382E094
:1058A00090E00E947C19882399F13E9A579A81E0F2
:1058B0008093010380E00E94B4265E0119E0A10EEE
:1058C000B11C1E012FE0220E311C89EF482E87E00B
:1058D000582E8FB7F89440910203509103036091C2
:1058E0000403709105038FBF80912B08342F381B60
:1058F000832F90912C08992381F030932D081092DA
:105900002C0880E090E0892B21F30E940000DDCF7D
:10591000109201033E985798CDCF90912A083917DD
:1059200040F48F5F891768F781E083BF889513BEC5
:10593000E8CF81E080932C0840932B0880912608C3
:1059400090912708019690932708809326088091CC
:105950002808809329080E94831680932808E091E4
:105960001103EE3008F070C0F0E0E754F34D0C94F2
:10597000EA33C72CD42C832DE52E0E2F292F3D2F53
:10598000262F522F632F852F27302D32262F84E18B
:1059900080932A0880E880930C0181E080931103B2
:1059A00086E29FE10E942E1420E04AEA5CE161E079
:1059B00070E082E190E00E94581680910C018823EB
:1059C00049F00E94D51680910C01882319F081506E
:1059D00080930C01809110038C33D0F58F5F8093FE
:1059E000100380E20E948410882339F080910D0317
:1059F000882319F0815080930D0380E40E94841065
:105A0000882339F080910D03823018F48F5F8093E2
:105A10000D0388E00E948410882351F080910D03CB
:105A2000813009F459C008F451C0823009F458C0DB
:105A30000E94831684FF64C080910C03803108F0BB
:105A400051C08F5F80930C0381E00E94AE1059CF4C
:105A500020E041E95CE167E370E08CE090E00E94C7
:105A6000581620E04AE65CE167E370E08DE290E0E2
:105A70000E94581620E04BE45CE167E370E088E5A3
:105A800090E00E94581680910D0381110AC020E019
:105A900042E35CE16EE370E08CE090E00E94581617
:105AA000A0CF813041F420E04BE05CE16EE370E098
:105AB0008DE290E0F3CF823009F093CF20E04CEEFE
:105AC0005BE16EE370E088E590E0E8CF82E08093F0
:105AD000110310921003ACCF8BE080931103A8CF79
