:100000000C94DD0F0C9405100C9405100C94051045
:100010000C9405100C9405100C9405100C9405100C
:100020000C9405100C9405100C94811B0C94F01B7F
:100030000C9405100C9405100C9405100C940510EC
:100040000C9405100C9405100C9405100C940510DC
:100050000C9405100C9405100C9405100C94221EA1
:100060000C9405100C9405100C9405100C940510BC
:100070000C9405100C9405100C9405100C940510AC
:100080000C9405100C9405100C9405100C9405109C
:100090000C9405100C9405100C9405100C9405108C
:1000A0000C9405100C9405100C94051023232323A5
:1000B0002323232323232323232323232323232310
:1000C00023232F2323234C49494949494949494975
:1000D000494949522E2E2A2E582F2323234C494971
:1000E00049494949494949494949522E432323230A
:1000F0002F2323234C4949494949494949522E4C08
:10010000522E432E2323232F2323234C494949498D
:1001100049494949522E2E4C522E432323232F2343
:1001200023234C4949494949522E4C522E4C522EB8
:10013000432E2323232F2323234C49494949495242
:100140002E2E4C522E522E4C522323232F23232368
:100150004C4949522E4C522E4C522E4C522E432E6C
:100160002323232F2323234C4949522E2E4C522E36
:10017000432E4C522E4C522323232F232323432E32
:100180004C522E4C522E4C522E4C522E432E232388
:10019000232F232323432E2E4C522E432E4C522EFC
:1001A0004C522E4C522323232F502E2B2E2E2E2EEC
:1001B0002E2E2E2E2E2E2E2E2E2E2E2E2323232F7F
:1001C00023232323232323232323232323232323FF
:1001D0002323232323230023232323232323232312
:1001E000232323232323232F502E2B2E432E4C5205
:1001F0002E432E2E2E2A2E582F232323432E432EDA
:100200004C49522E4C522323232F2323232E2E439B
:100210002E432E432E2E2E2323232F2323232E4CF7
:10022000522E4C522E4C49522323232F2323232E6C
:100230002E432E432E432E432E2323232F232323CB
:100240002E4C522E432E4C49522E2323232F232350
:10025000232E2E432E4C49522E432E2323232F236D
:100260002323232323232323232323232323230081
:10027000232323232323232323232323232323234E
:10028000232F502E2B2E2E2E2E2E2E2E2E2E2E2E79
:100290002323232F2323234C4949494949494949C9
:1002A000522E2323232F2323234C49522E4C4949DA
:1002B000522E2E2E2323232F232323432E432E4C33
:1002C000522E432E2E2E2323232F2323232E2E2E56
:1002D0002E432E4C4949522E2323232F2323234CD4
:1002E000494949522E4C522E2E2E2323232F2323AD
:1002F000232E4C49522E4C522E4C522E2323232F68
:100300002323232E2E2E2E4C522E2E4C49522323A5
:10031000232F2323232E4C4949494949494949520E
:100320002323232F2323232E2E2E2E2E2E2E2E2E2E
:100330002E2E2A2E582F2323232323232323232324
:1003400023232323232323002323232323232323A0
:10035000232323232323232F2323232E432E2E4CF7
:10036000522E2E2E2323232F502E2B2E4C522E4333
:100370002E432E432323232F232323432E432E4C6C
:10038000522E2E2E2323232F2323232E4C4949493B
:10039000494949522323232F2323232E2E432E4C16
:1003A0004949522E2A2E582F232323432E4C522EB6
:1003B0002E432E2E2323232F2323232E432E4C4341
:1003C000522E2E2E2323232F2323232323232323A1
:1003D0002323232323232300232323232323232310
:1003E00023232323232323232323232F2323232EC6
:1003F0002E2E2E2E2E2E2E2E2E2E432E2A2E582FE1
:100400002323232E4C49494949494949522E2E4319
:100410002323232F2323232E4C49522E2E2E2E2EE0
:100420002E4C522E2323232F2323232E432E4C499D
:1004300049494949522E432E2323232F2323232E78
:100440004C49522E4C49522E2E4C522E2323232FF0
:100450002323232E432E432E2E2E432E2E4C522E5C
:100460002323232F2323232E432E4C49494949522A
:100470002E4C522E2323232F502E2B2E432E432E31
:10048000432E2E2E4C49522E2323232F2323232E5B
:100490004C494949494949494949522E2323232F67
:1004A0002323232E2E2E2E2E2E2E2E2E2E2E2E2E8D
:1004B0002323232F23232323232323232323232300
:1004C000232323232323230023232323232323231F
:1004D00023232323232F502E2B2E432E2E4C522EFC
:1004E0002A2E582F2323232E432E4C522E2E2323E5
:1004F000232F2323234C4949522E432E2323232FDA
:100500002323232E2E2E432E4C522323232F23230B
:1005100023432E4C4949522E2323232F2323232EBA
:100520002E2E2E2E2E2E2323232F2323232323234D
:1005300023232323232323002323232323232323AE
:10054000232323232323232F2323232E432E2E4C05
:100550004949522E2323232F2323232E432E2E4378
:100560002E4C522E2323232F2323232E432E4C495C
:1005700049522E432A2E582F232323432E4C522EEA
:100580002E432E2E2323232F2323232E2E432E2EA2
:100590002E4C49522323232F2323232E4C494949F0
:1005A00049522E2E2323232F502E2B2E2E432E2E18
:1005B0002E2E2E2E2323232F2323232323232323D3
:1005C000232323232323230023232323232323231E
:1005D000232323232323232F2323232E432E2E2E93
:1005E000432E2E2E2A2E582F2323234C522E4C4995
:1005F00049522E2E2323232F2323234C49522E4CA2
:10060000522E2E2E2323232F502E2B2E432E432EBD
:100610002E2E2E2E2323232F232323232323232372
:1006200023232323232323002323232323232323BD
:100630002323232323232F2323232E2E432E2E4C09
:1006400049522323232F2323232E2E2E4C522E2E8A
:10065000432A2E582F2323232E432E4C49522E4318
:100660002323232F502E2B2E432E432E4C522E234A
:1006700023232F2323232E432E2E432E4C5223237A
:10068000232F23232323232323232323232323232E
:10069000002323232323232323232323232323234D
:1006A00023232F502E2B2E4C49522E4C522E2E2EC1
:1006B0002E2323232F2323232E4C522E2E4C522E17
:1006C000432E432323232F232323432E2E4C4949F8
:1006D000522E4C522E2A2E582F232323432E4C5277
:1006E0002E2E2E2E2E2E2E2323232F232323232381
:1006F00023232323232323232323232300232323ED
:1007000023232323232323232323232F232323438D
:100710002E432E4C522E2E2323232F2323234C52A1
:100720002E432E4C522E2323232F502E2B2E2E2E93
:10073000432E432E432A2E582F232323432E4C4946
:1007400049522E2E2323232F2323232E2E2E432EB6
:10075000432E2E2323232F23232323232323232327
:10076000232323232300232323232323232323237C
:1007700023232323232323232323232F2323232E32
:100780004C4949522E2E4C4949522E2E4C522A2E5B
:10079000582F2323232E432E4C522E4C522E432EC1
:1007A0004C522E2E2323232F502E2B2E432E4C52D1
:1007B0002E4C4949522E4C522E2E2323232F2323D5
:1007C000232E432E4C522E2E4C4949522E2E432E70
:1007D0002323232F232323232323232323232323DD
:1007E00023232323232323232300232323232323FC
:1007F000232323232323232F2323232E432E432E5C
:100800002E2E2323232F2323232E4C522E4C522EC5
:100810002323232F502E2B2E2E432E432E432323D0
:10082000232F2323232E432E2E4C49522A2E582F7A
:1008300023232323232323232323232323002323AB
:100840002323232323232323232F2323232E2E4336
:100850002E2E2A2E582F2323232E432E4C52232371
:10086000232F2323232E4C522E2E2323232F2323C7
:1008700023432E432E2E2323232F2323232E432EA5
:10088000432E2323232F2323232E4C49522E23236D
:10089000232F232323432E432E2E2323232F2323AF
:1008A000232E432E432E2323232F2323232E432E75
:1008B000432E2323232F232323432E4C522E232343
:1008C000232F502E2B2E432E2E2E2323232F232354
:1008D000232323232323232323002323232323230B
:1008E000232323232323232F502E2B2E4C522E43FE
:1008F0002E2E2323232F2323232E432E2E432E431A
:100900002323232F232323432E4C49522E2E2323EC
:10091000232F2323232E2E432E2E432E2A2E582FD1
:1009200023232323232323232323232323002323BA
:1009300023232323232323232323232323232F504E
:100940002E2B2E2E4C522E432E432E2E2323232F7E
:100950002323234C49522E432E4C522E2E23232345
:100960002F2323232E4C522E2E432E432E432A2E4A
:10097000582F2323234C522E4C49522E432E2E23E4
:1009800023232F232323232323232323232323232B
:10099000232323002323232323232323232323234A
:1009A0002F502E2B2E2E432E432E2323232F232353
:1009B00023432E432E432E2323232F2323232E2E64
:1009C000432E432E2323232F232323432E4C522E07
:1009D0002E2323232F232323432E4C522E2E232337
:1009E000232F2323232E2E432E4C522A2E582F23DF
:1009F00023232323232323232323230023232323EA
:100A0000232323232323232323232F2323232E2E94
:100A10004C49522E2E2E2323232F2323232E2E4CBC
:100A2000522E4C49522323232F502E2B2E2E4C492D
:100A3000522E432E2323232F2323232E432E432EB4
:100A40002E2E2E2A2E582F23232323232323232302
:100A50002323232323002323232323232323232389
:100A600023232F2323232E432E2E2E2E2323232FE7
:100A70002323232E4C522E2E432A2E582F2323235A
:100A80002E4C522E432E2323232F502E2B2E432E1B
:100A90004C49522323232F2323232E2E432E2E2E45
:100AA0002323232F2323232323232323232323230A
:100AB0000023232323232323232323232323232329
:100AC000232323232F502E2B2E2E2E4C49494952BF
:100AD0002E2E2E2E2E2A2E582F232323432E4C49E2
:100AE0004949522E2E4C49522E2323232F232323B0
:100AF0002E432E4C49522E4C4949522E2E2323234D
:100B00002F232323432E432E2E4C49494949495232
:100B10002E2323232F2323232E4C49522E432E2EC4
:100B20002E4C522E2E2323232F232323432E432EBA
:100B3000432E4C522E2E432E2E2323232F232323AA
:100B40002323232323232323232323232323232375
:100B500000232323232323232323232323232F237C
:100B600023232E4C522E4C522E2323232F502E2B38
:100B70002E432E432E432E2A2E582F2323232E433B
:100B80002E4C49522E2323232F2323232E2E2E4C4B
:100B9000522E2E2323232F232323232323232323D4
:100BA0002323232300232323232323232323232338
:100BB0002323232323232323232F2323232E4C499F
:100BC0004949522E4C522E4C522E2E2323232F5065
:100BD0002E2B2E2E2E4C522E2E4C522E2E4C522E72
:100BE0002323232F2323234C522E2E432E4C522ECD
:100BF0004C49522E2E2323232F2323232E2E2E4CDB
:100C0000494949494949522E2E432A2E582F232318
:100C100023232323232323232323232323232323A4
:100C200023230023232323232323232323232323B7
:100C30002F2323232E2E432E432E2E2323232F50C8
:100C40002E2B2E4C522E4C522E2323232F23232384
:100C50002E432E432E432E2A2E582F232323432E5A
:100C60004C49522E2E2323232F23232323232323B4
:100C70002323232323230023232323232323232367
:100C800023232323232F232323432E432E2E2E2EB1
:100C90002E2323232F2323232E2E432E432E4C5249
:100CA0002323232F502E2B2E4C522E4C49522E2ACA
:100CB0002E582F23232323232323232323232323B8
:100CC0002300232323232323232323232323232F0B
:100CD000502E2B2E2E4C49522E432323232F2323D9
:100CE000232E2E432E432E2E2323232F2323232E46
:100CF0002E432E4C49522323232F232323432E43B9
:100D00002E432E432323232F2323232E2E432E2E05
:100D1000432E2A2E582F2323232323232323232325
:100D200023232300232323232323232323232323B6
:100D3000232F502E2B2E432E432E432E2323232F9F
:100D4000232323432E4C49522E2E2323232F2323A8
:100D5000232E432E432E4C522323232F2323232E93
:100D6000432E2E432E2E2A2E582F23232323232394
:100D70002323232323232300232323232323232366
:100D80002323232F2323232E432E2E2E2323232FCF
:100D90002323232E432E4C522323232F2323232E7E
:100DA000432E432E2323232F502E2B2E432E2E4310
:100DB0002A2E582F232323232323232323232300D3
:100DC00023232323232323232323232323232F23E7
:100DD00023232E2E432E2E4C49522323232F23230D
:100DE000232E2E432E432E432E2A2E582F502E2BA9
:100DF0002E432E432E432E2E2323232F2323232320
:100E000023232323232323232323002323232323D5
:100E100023232323232323232F502E2B2E4C522EE8
:100E20002E4C522323232F2323232E432E432E43A2
:100E30002E2A2E582F2323232E4C522E432E2E2380
:100E400023232F2323232323232323232323232366
:100E500000232323232323232323232323232F504C
:100E60002E2B2E432E2E4C522E2323232F2323238F
:100E70002E432E2E432E2E2A2E582F232323232378
:100E80002323232323232323002323232323232355
:100E9000232323232F2323232E432E432E2A2E586E
:100EA0002F502E2B2E432E2E2E2323232F2323236E
:100EB00023232323232323230032323300313335EA
:100EC00000313635003135330031303300313332C3
:100ED00000363200363900383700393000373900F3
:100EE00038320038310038300037390038310036B8
:100EF00034003836003535003638003638003831A1
:100F000000343900353100363800343900353600C8
:100F10003336003335003231003900202020537041
:100F200065616B696E67204672616E6B6C7900203B
:100F300020202020546865204265617374002020C1
:100F400020204261636B20746F2046726F6E7400C4
:100F500020202020446F75626C65204465636B65BA
:100F600072002020202020496E73696465204F752F
:100F7000740020202020205A656E2047617264652D
:100F80006E0020202020446F75626C652043726FD4
:100F90007373004D69736D61746368204D6164659E
:100FA00020696E2048656176656E00202020204310
:100FB0006C656172207468652057617900205468FF
:100FC000652053656372657420537461697263614F
:100FD00073650020202020204A75737420456E6FB1
:100FE00075676800205468726F75676820616E6469
:100FF000205468726F756768002020202047726552
:101000006174205468696E67730020202055702C2D
:1010100020557020616E6420417761790020202086
:101020002020426C7565204D65616E696500202049
:10103000205261636B20616E642050696E696F6E2F
:101040000020202020204B6E6F74205468656F7242
:1010500079002020486F6C6420596F757220486FAA
:1010600072736573002020202052616767656420D9
:1010700052617363616C002020202020546F206136
:101080006E642046726F00202020204E75646765D4
:101090002D6E7564676500202020204C6F6F702DC9
:1010A00064652D4C6F6F70002020204F70656E6955
:1010B0006E672047616D62697400202020202054F3
:1010C0006865204E7564676500202020202020532D
:1010D000687574746C65730020202020204C656155
:1010E000702D66726F6700202020204C6974746C2C
:1010F000652052617363616C00202020204561737C
:101100007920446F657320497400202020202042FC
:101110006162792053746570730020202048756DDA
:10112000626C65204F726967696E730020204669A2
:10113000727374205072696E6369706C6573008994
:101140000E510E0B0EC00D780D240DC20C770C2322
:101150000CA50B510BB10A560AFC0994092E09DAA9
:10116000083E08EA076607FD0691062806C8053806
:1011700005C804D80348037002D701AC00474E5598
:10118000205075626C6963204C6963656E736500FD
:101190004161726F6E2057696C6C69616D730041BB
:1011A0007374657220477265656E626C6174740059
:1011B00041726475626F793A004D616C636F6C6D5A
:1011C0002054797272656C6C004F726967696E6148
:1011D000746F723A00000000000000000000000080
:1011E00000000000000000000000000000000000FF
:1011F0000000000000000080E0F0F8FCFEFEFF1F91
:101200001F9F9F3F7FFFFEFEFCF8F0E08000008004
:10121000C0E0F0F0F8F8F8F8F8F8F8F8F0F0E0C00E
:101220008000000000000000000000000000003FFF
:10123000FFFFFFFFFFFFFF80809999C0E6FFFFFFE0
:10124000FFFFFFFF3FFCFFFFFFFFFFFFFF070399CB
:10125000990307FFFFFFFFFFFFFFFC0000000000F6
:101260000000000000000000000103070F0F1F1F17
:101270001F1F1F1F1F1F0F0F070301000001070F74
:101280001F3F7F7FFFFCFCFFFFFCFCFF7F7F3F1FBA
:101290000F07010000000000000000000000000037
:1012A000000000000000000000000000000000003E
:1012B0000000000000423A204D656E7500413A2062
:1012C000556E646F0000000000003E5B4F5B3E3EC9
:1012D0006B4F6B3E1C3E7C3E1C183C7E3C181C57E2
:1012E0007D571C1C5E7F5E1C00183C1800FFE7C386
:1012F000E7FF0018241800FFE7DBE7FF30483A0655
:101300000E2629792926407F050507407F05253FC0
:101310005A3CE73C5A7F3E1C1C08081C1C3E7F14AC
:10132000227F22145F5F005F5F06097F017F0066F6
:1013300089956A606060606094A2FFA29408047E50
:10134000040810207E201008082A1C08081C2A08FF
:10135000081E101010100C1E0C1E0C30383E3830B9
:10136000060E3E0E06000000000000005F000000B8
:1013700007000700147F147F14242A7F2A122313E6
:1013800008646236495620500008070300001C22FA
:1013900041000041221C002A1C7F1C2A08083E082C
:1013A000080080703000080808080800006060002D
:1013B00020100804023E5149453E00427F40007221
:1013C000494949462141494D331814127F10274598
:1013D0004545393C4A4949314121110907364949B6
:1013E0004936464949291E000014000000403400D7
:1013F000000008142241141414141400412214088B
:1014000002015909063E415D594E7C1211127C7F42
:10141000494949363E414141227F4141413E7F4950
:101420004949417F090909013E414151737F08083B
:10143000087F00417F41002040413F017F08142286
:10144000417F404040407F021C027F7F0408107FA4
:101450003E4141413E7F090909063E4151215E7FDF
:1014600009192946264949493203017F01033F40B2
:1014700040403F1F2040201F3F4038403F6314083A
:10148000146303047804036159494D43007F4141CB
:10149000410204081020004141417F04020102047E
:1014A0004040404040000307080020545478407FEB
:1014B000284444383844444428384444287F385425
:1014C00054541800087E090218A4A49C787F0804CC
:1014D000047800447D40002040403D007F102844B7
:1014E0000000417F40007C047804787C0804047884
:1014F0003844444438FC1824241818242418FC7C4C
:1015000008040408485454542404043F44243C4030
:1015100040207C1C2040201C3C4030403C44281093
:1015200028444C9090907C4464544C4400083641CC
:1015300000000077000000413608000201020402AA
:101540003C2623263C1EA1A161123A4040207A3855
:1015500054545559215555794121545478412155B8
:1015600054784020545579400C1E5272123955550A
:101570005559395454545939555454580000457CE0
:10158000410002457D420001457C40F0292429F0BC
:10159000F0282528F07C545545002054547C547C78
:1015A0000A097F4932494949323248484832324A69
:1015B0004848303A4141217A3A42402078009DA083
:1015C000A07D39444444393D4040403D3C24FF2403
:1015D00024487E4943662B2FFC2F2BFF0929F62038
:1015E000C0887E090320545479410000447D413075
:1015F00048484A32384040227A007A0A0A727D0D01
:1016000019317D2629292F28262929292630484DB8
:101610004020380808080808080808382F10C8AC07
:10162000BA2F102834FA00007B000008142A142274
:1016300022142A14089500220095AA005500AAAA8F
:1016400055AA55AA000000FF00101010FF00141446
:1016500014FF001010FF00FF1010F010F01414140D
:10166000FC001414F700FF0000FF00FF1414F40442
:10167000FC141417101F10101F101F1414141F0037
:10168000101010F0000000001F101010101F10109C
:101690001010F010000000FF1010101010101010AB
:1016A00010FF10000000FF140000FF00FF00001FEB
:1016B00010170000FC04F414141710171414F40489
:1016C000F40000FF00F714141414141414F700F7B6
:1016D000141414171410101F101F141414F41410E1
:1016E00010F010F000001F101F0000001F14000079
:1016F00000FC140000F010F01010FF10FF14141480
:10170000FF141010101F00000000F010FFFFFFFF7B
:10171000FFF0F0F0F0F0FFFFFF0000000000FFFF1F
:101720000F0F0F0F0F38444438447C2A2A3E147E92
:1017300002020606027E027E026355494163384476
:10174000443C04407E201E2006027E020299A5E74A
:10175000A5991C2A492A1C4C7201724C304A4D4DE5
:10176000303048784830BC625A463D3E49494900CD
:101770007E0101017E2A2A2A2A2A44445F444440E9
:10178000514A444040444A51400000FF0103E08078
:10179000FF000008086B6B083612362436060F0966
:1017A0000F06000018180000001010003040FF0164
:1017B00001001F01011E00191D1712003C3C3C3C9A
:1017C0000000000000080B000202020000090400F3
:1017D000000102020000052400100105240101019E
:1017E00004240206052406000107058103100040B9
:1017F00009040100020A000000070502024000007F
:10180000070583024000000403090412010002EFEF
:10181000020140412336800001010203014172644C
:1018200075696E6F204C4C43004142413131303676
:10183000000000000000000000000018BCFEC6C24E
:10184000C2C6FE3C00FCFEC6C2C2C6FE3C0000D8BA
:10185000C8002070F8F8202000F8FCFEF67E3E3C20
:101860003800F8FCFEC6C2C2C6FEFC00FEFEFE0644
:1018700006060CFCF000FCFEC6C2C202000000001E
:101880000000000000000000000000000000000058
:101890000000000E1F1F101010191F0E001F1F1830
:1018A0001010101D1F06001F1F0000001F1F18082A
:1018B000000F1F1F1F1E1E1E0C000F1F1F00000009
:1018C000001F1F001F1F1F1818181C0F03001F1FC9
:1018D00010101010000000000000000000000000C8
:1018E000008D14A1C881CFD9F102AF7FBF9FF1EB6A
:1018F0007EDDAFFB75AF5EBD7AF5B557AF5EBDFA65
:10190000DAAB57AF5EFDBA5FF7EBBEF6EAD5ABAF29
:10191000FDBAAFBD7AF5EAD5CBA5D60ACB05D6DAA6
:10192000CB933B5EACCB7A91FB934BAD15960BAC56
:10193000B597275C5D2EAB565DDA4BEE0FAAD6AAA3
:10194000F5EA953B5797CBAA5597F69227975A2BCE
:101950002C17586B2F4FEE78B12EEB45EE77AECEAD
:10196000FBF4CAFD8E177B7972BF3FB85AB556ADEE
:101970005D5D6B5DBD7A5D6BDCC71ADF1B6BDCC721
:101980005A57AF5ED71A0FBA0ABA94B85C2E97CBE3
:1019900027638DB85C2E97CBE5F24D574197129790
:1019A000CBE572F964AC75F5EA75AD711F6B7C6FB0
:1019B000ACF1C4E5725D96CBE593B1C69D2B7891F1
:1019C000B1C67DAC1197CBE57299B1C6BBEE7DF285
:1019D000CA73AF63EF4F7B85EC9893573E981DB366
:1019E0006376CC8ED9313B74EFB7DD7BC7EC981DA5
:1019F000B36376CC8E799C1DB36376CC8ED9313BA4
:101A000074EF4F7B85EC989357BED7BD4F5E79EE50
:101A100075ECFDAD97B71ED2ACE8ADEBDDBBD59B49
:101A2000DEFADA5BD7EAED97E4B266569A436FBE08
:101A30007B37D6655DD68FCF65CDAC3487DE7CB77E
:101A40007AD35B5F7BEB5ABDBD7C79EB21CD8ADE1F
:101A5000BADE7DE7DDEF78F7EEE9655DD6655DD648
:101A600078F76EAC4B9266A5B7DE7AEBADAFDFAD23
:101A7000DE7AEBADB7DEFA7AAC4B9266A5B7DE7ACA
:101A8000EBADAF9F5ED6655DD6658D77EFDEFD8EE3
:101A9000779FF3CACFF1CA73AFFC1CAF3CF7EAD50E
:101AA000AB57AF5EBDF2DCAB57AF5EBD7AF5CA7324
:101AB000AF5EBD7AF5EAD52BCFBDF273BCF2DC2B5D
:101AC0003FC72BFF7B00FFBF9FF1EB7EDDAFFB75B8
:101AD000AF5EBD7AF5B557AF5EBDFADAAB57AF5E14
:101AE000FDBA5FF7EBBEF6EAD5ABAFFDBAAFBD7A94
:101AF000F5EAD5CBA5D60ACB05D6DACB933B5EACBF
:101B0000CB7A91FB934BAD15960BACB597275C5DEB
:101B10002EAB565DDA4BEE0FAAD6AAF5EA953B57E7
:101B200097CBAA5597F69227975A2B2C17586B2FBD
:101B30004FEE78B12EEB45EE77AECEFBF4CAFD8EBC
:101B4000177B7972BF3FB85AB556AD5D5D6B5DBD11
:101B50007A5D6BDCC71ADF1B6BDCC75A57AF5ED7E9
:101B60001A0FBA0ABA94B85C2E97CB27638DB85C6B
:101B70002E97CBE5F24D5741971297CBE572F9645A
:101B8000AC75F5EA75AD711F6B7C6FACF1C4E57295
:101B90005D96CBE593B1C69D2B7891B1C67DAC1116
:101BA00097CBE57299B1C6BBEE7DF2CA73AF63EF16
:101BB0004F7B85EC9893573E981DB36376CC8ED9B6
:101BC000313B74EFB7DD7BC7EC981DB36376CC8EE9
:101BD000799C1DB36376CC8ED9313B74EF4F7B85F6
:101BE000EC989357BED7BD4F5E79EE75ECFDAD977F
:101BF000B71ED2ACE8ADEBDDBBD59BDEFADA5BD726
:101C0000EAED97E4B266569A436FBE7B37D6655DC0
:101C1000D68FCF65CDAC3487DE7CB77AD35B5F7B64
:101C2000EB5ABDBD7C79EB21CD8ADEBADE7DE7DDE6
:101C3000EF78F7EEE9655DD6655DD678F76EAC4B6B
:101C40009266A5B7DE7AEBADAFDFADDE7AEBADB76E
:101C5000DEFA7AAC4B9266A5B7DE7AEBADAF9F5E4B
:101C6000D6655DD6658D77EFDEFD8E779FF3CACFA3
:101C7000F1CA73AFFC1CAF3CF7EAD5AB57AF5EBD02
:101C8000F2DCAB57AF5EBD7AF5CA73AF5EBD7AF5D5
:101C9000EAD52BCFBDF273BCF2DC2B3FC72BFF7B09
:101CA00000190F160F130F100F0D0F0A0F070F0457
:101CB0000F010FFE0EFB0EF80EF50EF20EEF0EECFE
:101CC0000EE90EE60EE30EE00EDD0EDA0ED70ED4B0
:101CD0000ED10ECD0EC90EC50EC10EBD0EB90E2C05
:101CE000111A110A11F910E710D810C910BA10A86A
:101CF000109710871077106510521041102E101D8C
:101D0000100A10F90FE40FD30FBD0FAB0F930F8222
:101D10000F720F620F500F3E0F2F0F1B0F7FBFEF81
:101D2000B8FA73B8FA9F3BAEFE1CAE7EEE9D5969C1
:101D300092CB9A5969F2EEA3EB92A45999EB924F88
:101D4000A65969569A9566A55969B27A7BB97A6B94
:101D5000569A9566A55969569A95C769569A956691
:101D6000A55969569AACDE3EBB2E499A95B92EF913
:101D7000DE3BB3D2249735B3D2E4DD77DEFD8E7738
:101D8000EFDEADDE7AEBADB7975FED4DB3D22497C2
:101D9000F5D17749B3D2AC343FB437CD4A935CD652
:101DA00047DFADDE7AEBADB797EFDEFD8E771FBA7A
:101DB0003A7FC8D5F9F0EABE7AF5EAD57D753E5C82
:101DC0002E1724262666C7EC981DB3631E5F9D8DD3
:101DD000D9313B66C7EC981DF378B95C9098989818
:101DE0001DB36376CC8E797C755FBD7AF5EABE3A19
:101DF0001F5E9D3FE4EAFC7F0F00FFFFFF7DF4962E
:101E0000D33EE5E67F9B19A2A230128AC1C6BC88E8
:101E100049E8228D282AD6CDEFA6B7A22ADDE4E62E
:101E20001665CFB37B6FEB651CACE3FA91C3F0A0F2
:101E30005E34DB3D0ED6C3B84EE77D3A8F73E33890
:101E4000E43670CBD83DCE8DE390F7E01665CFB386
:101E5000F332FD9531DB3A446134E58277B9D074D1
:101E600020E230D9F9F5924BB056528793B12E98B3
:101E70004B8E984BE4E82978915C828F398E8B7A6F
:101E8000910CDA652365606E1CD7CB75F414B9A884
:101E9000DBAC2245DA264C072372510757A783B1E2
:101EA0002E984BEE193452AF5EF93E57AF3EE0220A
:101EB00019F711BCF0C0AB5FF3EBBEEBD8466B4734
:101EC00056D2DCEF6F5EB46BDEB8AED5F1E0D92947
:101ED0009E72F5EA35277379734E4666C829CFEEB0
:101EE0004F2FC78CC13426B3C94830F9DC8BE1E8E9
:101EF0004874328EA7E4308E5E3D8E43720A573CA2
:101F00009253AE5E735AC7FB983390248771E441B5
:101F1000669BBA6D32E63CAEAE4BB2565FAF597AB5
:101F2000E2DEB5920BB7E8745AB7755BA75373E35B
:101F3000BEBADE731C8730C6FAA2B36933ADC58C56
:101F4000C3215FBA5DB8EDD191DA1C6A962B755B3F
:101F5000B77566C41E72CFA17474A46EEBB6599E99
:101F600056D739A7D0D191FAEF8EEC22B7664995B2
:101F7000356E831641FAA583C4A012173BB0000446
:101F800058EB42C7229417970BA3877170F87671AC
:101F900069DB0E33EC0A8B18D6B8DFF7FD90B90079
:101FA00056404FB30882B43058612C00C9F43F53F7
:101FB000923F7E2E940BE6A3E31E11241FBECFEFAB
:101FC000DAE0DEBFCDBF12E0A0E0B1E0E0E4F9E589
:101FD00002C005900D92AA31B107D9F727E0AAE116
:101FE000B2E001C01D92AD3FB207E1F71FE0CDEDB9
:101FF000DFE004C02197FE010E94932CCC3DD10765
:10200000C9F70E94141F0C949E2C0C940000E6E962
:10201000F3E030EB20E146E05C983EBD4A95F1F7F5
:102020002EBD20E8239507C0449140815C9A4EBDA7
:102030008111412D419344912A95B1F73395383B55
:1020400049F70DB4089580E00C9407109091F007C3
:10205000982329F49091EF07982381E009F480E018
:102060000895480F592F511D4115510571F18038C0
:1020700091055CF54138510514F040E850E0481BEB
:10208000FB01E770FF2721E030E001C0220FEA9555
:10209000EAF7209577FF02C0695F7F4FFB0133E0CD
:1020A000F595E7953A95E1F7F695FE2FEE27F7952A
:1020B000E795E80FF91FEA56FC4F415030F0819147
:1020C000DF01119782238C93F8CF089590E0E6E921
:1020D000F3E091119FEF8FEF9193919391939193EF
:1020E0008150D0F7E6EEF7E0128A118A108A17863F
:1020F00008952F923F924F925F926F927F928F92AC
:102100009F92AF92BF92CF92DF92EF92FF920F9386
:102110001F93CF93DF93CDB7DEB72C970FB6F8940C
:10212000DEBF0FBECDBF1A01FA01549131967490F3
:10213000452F4F774F5F372D3F733F5F21FF04C01F
:10214000E42FE6958E1B910923FF04C0232F2695CB
:10215000621B7109E42EF12CFD82EC82F701E80F7D
:10216000F91FF7FD76C1FB01E30FF11DF7FD71C10A
:10217000551F5527551F5B836624639476FE612C9B
:102180006B0177FF04C0CC24DD24C61AD70A07E010
:10219000C022DD24AB0177FF02C0495F5F4FDA0147
:1021A00053E0B595A7955A95E1F7BA83A98377FFD0
:1021B0000CC0C114D10449F01197BA83A98348E037
:1021C00050E0FA01EC19FD096F01232F26952695A1
:1021D0002695377009F02F5F47E0842E40E150E0EC
:1021E000912C70E060E0512C412CE22EF12CF9860C
:1021F000E88608851985401651060CF02AC121E0B1
:1022000030E03B872A87FA0133E0F695E7953A9567
:10221000E1F7E20DF31DE491F0E09A012770332716
:1022200002C0F595E7952A95E2F7DA011196E0FFED
:1022300008C04A855B854F5F5F4F5B874A87AD016A
:10224000E2CF0A851B850130110581F5FD0123E0F0
:10225000F695E7952A95E1F7E20DF31D249130E01C
:10226000A770BB2702C035952795AA95E2F7217084
:1022700033272F5F3F4F4E5F5F4FF0E0E0E011E00C
:10228000121B1C87E217F30708F0DDC05901AE1AD4
:10229000BF0AA82DB0E0EB80E110A4C0AA15BB05D1
:1022A00008F045C0EA0FFB1F812C45C02A853B85FD
:1022B000215031093F832E8321E030E00E8002C09F
:1022C000220F331F0A94E2F72F5F3F4F10E000E028
:1022D0007801EA0EFB1EF701F695E795F695E7956E
:1022E000F695E795E20DF31DE491AE2EB12CE7E0F3
:1022F000EE22FF2402C0B594A794EA94E2F7A0FE70
:102300000AC0E1E0F0E0002E02C0EE0FFF1F0A94C9
:10231000E2F72E0F3F1F0F5F1F4FEE80FF800E155D
:102320001F05B4F20A851B85400F511FA6CFFC8400
:102330008F0C8E0EF9018A94FF24FA948F1050C0EE
:102340009920D9F11981140D1830BCF57C01E60EE5
:10235000F71E00E8E016F10480F5A92CB12C0C2C36
:1023600002C0AA0CBB1C0A94E2F717FD0DC000E8DE
:102370001003D0011124A80FB91FA60FB71FAA562A
:10238000BC4FFC90FA28FC92C114D104B1F0173074
:10239000A1F01F3F94F0A12F110FBB0B1196B69522
:1023A000BA2FAA27B795A795A80FB91FA60FB71FD1
:1023B000AA56BC4FFC90FB28FC9277FE02C011E0AD
:1023C00061266F5F7F4FAC81BD816A177B072CF060
:1023D000BFEF4B1A5B0A70E060E0A7E08A2E912CF9
:1023E000319650CFAA15BB0500F507E08016D1F055
:1023F000662071F007E010E00A1B1B0BAA24AA94C8
:10240000B12C02C0B594A7940A95E2F79A284ACF56
:1024100010E8A12EBB24BA9402C0B694A7948A9463
:10242000E2F7F4CF99249A943DCF662029F0AC5E70
:10243000BE4FAC919A2A7FCF07E0E02EF12CEA1A2A
:10244000FB0AD701F4CFEE24E394FB80EF18EB8274
:10245000D0CE2C960FB6F894DEBF0FBECDBFDF9165
:10246000CF911F910F91FF90EF90DF90CF90BF9091
:10247000AF909F908F907F906F905F904F903F9024
:102480002F9008952FB7F89483E08093E9009091FE
:10249000E800892F807295FF04C09091F20080E4DB
:1024A000891B2FBF08954F925F926F927F928F92F8
:1024B0009F92AF92BF92CF92DF92EF92FF920F93D3
:1024C0001F93CF93DF93802E912CF401E60FF71F1B
:1024D000F7FD6BC0603471050CF067C030E0E62F8B
:1024E000E7707E2EE3E095948794EA95E1F7F3E0B8
:1024F00075956795FA95E1F7062E000C770BDB01D1
:10250000B695BA2FAA27B795A795A80FB91FAA56AF
:10251000BC4FEA0150E040E0E0E8F0E07F01E81A5B
:10252000F90A8A01060F171F083011050CF03DC08B
:102530000F3FFFEF1F077CF190E080E05D01E0E8D6
:10254000AE0EB11CFC01EC0FFD1FE491F0E02F0179
:10255000072C02C0440C551C0A94E2F70F3F1007E9
:10256000A9F16D01C80ED91EF60160806428608251
:10257000772051F00730110539F06501C80ED91EDA
:10258000F6016080652860820196821793071CF42B
:10259000E816F906B9F64F5F5F4FA058BF4FC20F5C
:1025A000D31F8416950609F0BCCFDF91CF911F9100
:1025B0000F91FF90EF90DF90CF90BF90AF909F90E2
:1025C0008F907F906F905F904F9008957110D5CF4E
:1025D000DBCFFC0180919503882311F13FB7F8947C
:1025E00082E08093E9002091F200822F90E018169B
:1025F000190614F481E090E0882339F0289844E625
:10260000409394034091F1004083222339F02091BC
:10261000F200211103C02BE62093E8003FBF08958C
:102620008FEF9FEF089580918C0381110DC082E0A0
:102630008093880384E08093890310928B03109227
:102640008A0381E080938C0388E893E008954091A9
:1026500021025091220220911F0230912002421744
:102660005307B4F49091E8009570E1F39091E8007D
:1026700092FD19C08093F100809121029091220275
:1026800001968F739927892B19F48EEF8093E800B8
:1026900080912102909122020196909322028093D0
:1026A000210281E0089580E00895DF92EF92FF9289
:1026B0000F931F93CF93DF93D82E8A01EB017B01F9
:1026C000E40EF51ECE15DF0559F0D7FE12C0FE014F
:1026D00084910E94271321968111F4CF0FEF1FEFF1
:1026E000C801DF91CF911F910F91FF90EF90DF9084
:1026F00008958881EECF0F931F93CF93DF931F929E
:10270000CDB7DEB782E0898342E450E065EC77E143
:1027100080E80E9455130E941313DC0112960D915C
:102720001C910115110589F0D801ED91FC910280F1
:10273000F381E02DBE016F5F7F4FC801099597FDC2
:1027400004C0F80100851185ECCF89810F90DF91DD
:10275000CF911F910F910895615030F02091F100B9
:10276000FC0120830196F8CF289884E68093940397
:102770000895AF92BF92CF92DF92EF92FF920F93A4
:102780001F93CF93DF936C017B018B01040F151F07
:10279000EB015E01AE18BF08C017D10759F069916F
:1027A000D601ED91FC910190F081E02DC6010995D3
:1027B000892B79F7C501DF91CF911F910F91FF9080
:1027C000EF90DF90CF90BF90AF900895CF93DF93BD
:1027D0001F92CDB7DEB76983DC01ED91FC910280D9
:1027E000F381E02D41E050E0BE016F5F7F4F09951E
:1027F0000F90DF91CF91089583E08093E90080915D
:10280000F200882319F08AE38093E80008950E947B
:10281000421290E00895CF93DF931F92CDB7DEB7B9
:10282000FC018485958597FD08C02FEF3FEF358724
:1028300024870F90DF91CF910895CE0101960E94D9
:10284000E912019719F4898190E0F3CF8FEF9FEFA0
:10285000F0CF0F931F93CF93DF931F92CDB7DEB7C7
:102860008C01FC018485958597FF0BC0CE010196F4
:102870000E94E912019771F4898190E0F80195872F
:102880008487F801848595850F90DF91CF911F9102
:102890000F9108958FEF9FEFF1CFFC01848595850F
:1028A00097FD0BC09FB7F89482E08093E900809178
:1028B000F2009FBF90E0019608959FB7F89482E0E0
:1028C0008093E9008091F2009FBF90E008953FB7A8
:1028D000F89480911B0290911C02A0911D02B0916E
:1028E0001E0226B5A89B05C02F3F19F00196A11D19
:1028F000B11D3FBFBA2FA92F982F8827BC01CD014A
:10290000620F711D811D911D42E0660F771F881FA8
:10291000991F4A95D1F708958F929F92AF92BF92D7
:10292000CF92DF92EF92FF926B017C010E946714BD
:102930004B015C01C114D104E104F104B9F00E941F
:102940006714681979098A099B09683E73408105F3
:10295000910580F321E0C21AD108E108F10888EE60
:10296000880E83E0981EA11CB11CE4CFFF90EF906D
:10297000DF90CF90BF90AF909F908F9008958F92EF
:102980009F92AF92BF92CF92DF92EF92FF920F93FE
:102990001F93CF93DF936C017B018A0180910B0120
:1029A000882309F45CC080919503882309F457C0FB
:1029B0008091250280FF05C08091E00082608093B5
:1029C000E000E801B12C8AEFA82E93E0892E2AE3DB
:1029D000922E209711F4BB20D9F10E94421281114E
:1029E0000AC0AA94AA20D9F161E070E080E090E0EA
:1029F0000E948C14EECF8C171D0611F00CF08C2F5A
:102A00009FB7F8948092E9002091E80025FD02C06C
:102A10009FBFDFCF282F30E0C21BD30BF7018150BF
:102A200020F041914093F100FACFE20EF31EBB205B
:102A300021F09092E800B12CEBCF8091E80085FD69
:102A4000E7CF9092E800BB24B394209709F3F3CF2B
:102A50005D9884E680932402101611063CF081E014
:102A600090E0F6019383828310E000E0C801DF91DB
:102A7000CF911F910F91FF90EF90DF90CF90BF907B
:102A8000AF909F908F9008952D9A0895BC0190E08B
:102A900080E00C948C148FB18095807F669B886059
:102AA0001C9B84600895CF93DF93C6EED7E08985A1
:102AB0008A870E944B158987DF91CF9108958038CE
:102AC0009105B8F460347105A0F420E191E061FD56
:102AD00094E060FD990F62FD9295687F269FD0017A
:102AE0001124A80FAA56BC4F8C9140FF03C0892B1C
:102AF0008C93089590958923FBCF8F929F92AF92EC
:102B0000BF92CF92DF92EF92FF920F93CF93DF931A
:102B10005B01EC014C01840E911C6B01C20ED11CB7
:102B2000C815D905D4F47501B7FE02C0F12CE12C0B
:102B3000C60121E4C216D10414F080E490E0E81646
:102B4000F9064CF4402FB701CE010E945F158FEFBC
:102B5000E81AF80AEDCF2196E3CFDF91CF910F91DC
:102B6000FF90EF90DF90CF90BF90AF909F908F90AD
:102B700008952F923F924F925F926F927F928F9221
:102B80009F92AF92BF92CF92DF92EF92FF920F93FC
:102B90001F93CF93DF93CDB7DEB72A970FB6F89484
:102BA000DEBF0FBECDBF9A8389836A3061F5DC0139
:102BB00055968C91B8E08B9F90011124E981FA81A0
:102BC00081899289820F931F928B818B108A17863D
:102BD00081E090E02A960FB6F894DEBF0FBECDBF1D
:102BE000DF91CF911F910F91FF90EF90DF90CF90E9
:102BF000BF90AF909F908F907F906F905F904F901D
:102C00003F902F9008956D3019F329813A813A87CA
:102C10002987D9011F96AD90BC90B0E8AB16B104DE
:102C20000CF07BC0F901C188D288F0E4CF16D10442
:102C30000CF073C0D90155966C90559745E09501FD
:102C4000649E200D311D1124121613060CF065C070
:102C5000262C312C910153E0220F331F5A95E1F7B6
:102C60002C0D3D1D121613060CF057C05496BC9146
:102C7000BB83E985FA85F389FC83649FB001112445
:102C80009B012B533D4E3A832983712CE981FA81B4
:102C90008491F5E07F1201C080E0460138E0532EB8
:102CA000282F30E03E832D834C8080FF4B804110E5
:102CB00004C03B818C813817E1F010E000E006157C
:102CC000C0F4D501A00FB11FB887AF83F12CE12C60
:102CD000E61460F4B701680D791D442D8F81988545
:102CE0000E945F15BFEFEB1AFB0AF2CF0F5F1F4F79
:102CF000E6CF8D819E81959587955A94820C931C81
:102D00005110CECF7394E981FA813196FA83E98329
:102D1000A20CB31CF6E07F12B9CFA985BA855596EF
:102D20002C915597422F50E01F968D919C91B6E0C3
:102D30002B9F800D911D1124E985FA85908B878743
:102D40002689222309F444CF6AEF64039001659F2A
:102D5000300D112420583F4F281739070CF038CF79
:102D6000DF010190F081E02D0190F081E02D6AE01B
:102D7000CD0109952DCF0F931F93CF93DF938C0136
:102D8000D0E0C0E0F801EC0FFD1F6491662341F034
:102D900086EE97E00E94B915892B11F02196F2CFAB
:102DA000CE01DF91CF911F910F910895089508955D
:102DB00090E080E00895FC01A081B1819C91828126
:102DC000982381E009F480E008952F923F924F927A
:102DD0005F926F927F928F929F92AF92BF92CF92AB
:102DE000DF92EF92FF920F931F93CF93DF9300D068
:102DF00000D0CDB7DEB7B82E10912C02C12ED12C49
:102E0000260F3327331F2C9DC0012D9D900D3C9D17
:102E1000900D11249A838983202F240F3327331F89
:102E20002C9D70012D9DF00C3C9DF00C112400E0B8
:102E3000212F412F69817A81C7010E947D1531E0E0
:102E4000B316D9F082E0B81609F462C00F900F9063
:102E50000F900F90DF91CF911F910F91FF90EF9006
:102E6000DF90CF90BF90AF909F908F907F906F90AA
:102E70005F904F903F902F90089501E0212F412FB8
:102E800069817A81C7010E947D1529813A812034A8
:102E900031052CF4412FB901C7010E943110A980DE
:102EA000BA80AC0CBD1CB50161507109603471056C
:102EB00020F4412FC7010E94311089809A8085013A
:102EC00031E4A316B10414F000E410E0801691067A
:102ED0004CF440E0B401C7010E945F158FEF881ADF
:102EE000980AEDCFCE0CDF1C91E0C91AD1082981D8
:102EF0003A81201731070CF0A9CF40E0B901C60193
:102F00000E945F1589819A8101969A838983EFCF08
:102F1000812F86950FEF080F163008F401E090E03E
:102F200029813A81280F391F3C832B83E80EF91E33
:102F300010E081E090E05C01A01AB10A2224332461
:102F4000201A310A220C331CB901600F711F41E0B5
:102F5000C7010E945F156B817C81601B710B41E092
:102F6000C7010E945F1541E06B817C81C701800F22
:102F7000911F0E945F1541E06B817C81C701801B1E
:102F8000910B0E945F1581E090E09A838983D12C98
:102F9000C12CB7FC07C00150110992E0290E311C69
:102FA000A20CB31C2FEFC21AD20A89819A81029611
:102FB0009A838983A80EB91E37016C0C7D1C41E0F1
:102FC0008B809C80800E911EB401C3010E945F150E
:102FD00027014C185D0841E0B401C2010E945F1551
:102FE00041E08B809C80801A910AB401C3010E9449
:102FF0005F1541E0B401C2010E945F158B809C8087
:103000008C0C9D1C41E0B4013701600E711EC301A0
:103010000E945F1541E0B4012701401A510AC20124
:103020000E945F158B809C808C189D0841E0B40144
:10303000C3010E945F1541E0B401C2010E945F1507
:10304000C016D1060CF4A5CF01CF0E94531588E01D
:103050000E942610811104C084E00E942610811174
:1030600010928403909184038FEF890F80938403DF
:1030700081E0911180E008950F938091840387FD92
:1030800002C08130A9F58FEF809384030E946610FF
:103090001092F6071092F50785E190E09093F807FB
:1030A0008093F7078DEB92E10E94BB161092F60712
:1030B0001092F5078AE290E09093F8078093F70763
:1030C00085EB92E10E94BB160FE128E345ED51E14B
:1030D00060E170E080E490E00E94531240E054E030
:1030E00066E973E086E997E00E94BF140E9423100E
:1030F0000F910C942518CF93DF938091840387FD63
:1031000003C0813009F063C08FEF809384030E9475
:1031100066101092F6071092F5071092F8071092B9
:10312000F70789EC91E10E94BB16CCE0D0E0D09388
:10313000F607C093F50789E090E09093F807809335
:10314000F70789EB91E10E94BB161092F6071092E7
:10315000F50788E190E09093F8078093F70780EBFC
:1031600091E10E94BB16D093F607C093F50781E268
:1031700090E09093F8078093F7078FE991E10E9420
:10318000BB16D093F607C093F5078AE290E09093C0
:10319000F8078093F70780E991E10E94BB1610922F
:1031A000F6071092F50789E390E09093F807809373
:1031B000F7078DE791E10E94BB1640E054E066E915
:1031C00073E086E997E00E94BF140E942310DF910C
:1031D000CF910C9425182F923F925F926F927F921D
:1031E0008F929F92AF92BF92CF92DF92EF92FF9217
:1031F0000F931F93CF93DF9300D01F92CDB7DEB70D
:1032000050904602252D2150330B7901AA24A39416
:10321000B12C811149C0D12CC12CAA24A394B12C6A
:10322000CE14DF040CF081C000914A02509E800150
:1032300011244601FFEF8F1A9F0AC801880D991DBE
:103240009C0193E0369527959A95E1F787701501D3
:1032500001C0220C8A95EAF7C901825D9D4F3C01AD
:103260009A8389832B82CE0101960E94DB168823E4
:10327000C1F00C0D1D1DF80183E0F695E7958A95C8
:10328000E1F7E25DFD4F0770950101C0220F0A953D
:10329000EAF78081822B80832094F30180812822A9
:1032A00020826401BDCF74011E141F04F4F5009147
:1032B0004A02509E80011124470131E0831A91088F
:1032C000C801880D991D9C0143E0369527954A95C4
:1032D000E1F78770350101C0660C8A95EAF7C901EC
:1032E000825D9D4F6C019A8389836B82CE0101962A
:1032F0000E94DB168823B9F20E0D1F1DF80123E092
:10330000F695E7952A95E1F7E25DFD4F0770950187
:1033100001C0220F0A95EAF78081822B8083609496
:10332000F601808168226082BECF0F900F900F90CF
:10333000DF91CF911F910F91FF90EF90DF90CF9091
:10334000BF90AF909F908F907F906F905F903F90D5
:103350002F9008958F929F92AF92BF920F931F93D9
:10336000CF93DF93CDB7DEB7A1970FB6F894DEBF4A
:103370000FBECDBF19A2423008F44AE08E010F5DA6
:103380001F4F842E912CB12CA12CA50194010E94D9
:10339000AB2AE62FB901CA01EA3044F5E05DD80155
:1033A000EE938D01232B242B252B79F790E080E0E1
:1033B000109769F0FD0101900020E9F73197AF0106
:1033C0004A1B5B0BBD0186EE97E00E94B913A196E4
:1033D0000FB6F894DEBF0FBECDBFDF91CF911F9126
:1033E0000F91BF90AF909F908F900895E95CD7CFD9
:1033F000CF92DF92EF92FF92CF93DF936B017C012C
:103400006DE286EE97E00E94B915EC0166277727FA
:10341000CB016C197D098E099F094AE00E94AA1907
:103420008C0F9D1FDF91CF91FF90EF90DF90CF9099
:103430000895FC0101900020E9F73197AF01481B86
:10344000590BBC0186EE97E00C94B913BC01990F9F
:10345000880B990B97FD0C94F8194AE00C94AA1963
:103460001F93CF93DF93E82FF0E0EE0FFF1FE15C97
:10347000FE4E6591749185E592E00E948E2A70E07F
:1034800030E020E090E060E0A5E5B2E041E050E00F
:10349000FD0101900020E9F7E655F2402E173F07A5
:1034A00008F05DC0711159C0F901EB5AFD4F8081E0
:1034B0008F3271F4611104C08AEF820F809346024B
:1034C0006F5F8FEF860F809347022F5F3F4FE0CFF4
:1034D0008E32B1F4E92FF0E0C3E0F695E795CA9596
:1034E000E1F7E25DFD4F892F8770EA0101C0CC0F43
:1034F0008A95EAF7C0958081C823C0839F5FE1CF9A
:10350000833431F08C3421F0893411F08235A1F408
:10351000E92FF0E083E0F695E7958A95E1F7E25D23
:10352000FD4F892F8770EA0101C0CC0F8A95EAF719
:1035300080818C2B8083E2CFEFEFE60F8B3219F482
:10354000E0932B02BECF8A3221F4E0932D0271E08A
:10355000B8CF71E0803509F4B4CF70E0B2CF1092EB
:10356000490280912B0280934A02109281031092AB
:103570008003EBE4F2E085E592E011928E179F075D
:10358000E1F7DF91CF911F9108950E94992C0C943F
:10359000952AFF920F931F93CF93DF93EC01F62EA2
:1035A00008811981C8010E94952AF81621F06F2D13
:1035B000C8010E949D2ACE01DF91CF911F910F91EA
:1035C000FF9008950F931F93CF93DF9300D0CDB753
:1035D000DEB78B019A838983FB016081CE0101965E
:1035E0000E94C91AC8010F900F90DF91CF911F91CF
:1035F0000F910895EF92FF920F931F93CF93DF9354
:1036000000D0CDB7DEB78C017B019A838983FB01A3
:103610006081CE0101960E94C91A0F5F1F4F1A8365
:103620000983F7016181CE0101960E94C91AC70181
:103630000F900F90DF91CF911F910F91FF90EF901E
:1036400008950F931F93CF93DF9300D0CDB7DEB7CC
:103650001DE41983BE016F5F7F4F8EE092E00E94F0
:10366000E21A1983BE016F5F7F4F8FE092E00E94E4
:10367000E21A1983BE016F5F7F4F80E192E00E94E2
:10368000E21A01E112E01A821982BE016F5F7F4FD8
:10369000C8010E94FA1A0E5F1F4F0F3482E018070C
:1036A00091F71A821982BE016F5F7F4FC8010E9495
:1036B000FA1A0F5F1F4F0B3582E0180791F71A8235
:1036C0001982BE016F5F7F4F8BE592E00E94FA1A6C
:1036D0001A821982BE016F5F7F4F8CE592E00E94D3
:1036E000FA1A1A821982BE016F5F7F4F8DE592E050
:1036F0000E94FA1A0F900F90DF91CF911F910F91B6
:1037000008951F920F920FB60F9211248F939F93DB
:103710008091E1009091E100937F9093E10083FF1D
:103720000FC01092E90091E09093EB001092EC0032
:1037300092E39093ED001092950398E09093F0003F
:1037400082FF22C093E09093E9009091F2009923C8
:1037500019F09AE39093E80090912402992341F0A4
:1037600090912402915090932402911101C05D9A8E
:1037700090919403992341F09091940391509093E8
:103780009403911101C0289A84FF18C08091E2002F
:103790008E7E81608093E2008091E1008F7E809335
:1037A000E100809125028E7E8061809325029F91A9
:1037B0008F910F900FBE0F901F90189580FFF7CF3D
:1037C0008091E2008E7E80618093E2008091E10032
:1037D0008E7E8093E100809125028E7E8160E5CF10
:1037E0001F920F920FB60F921124CF92DF92EF9299
:1037F000FF920F931F932F933F934F935F936F937A
:103800007F938F939F93AF93BF93EF93FF93CF9348
:10381000DF93CDB7DEB76C97DEBFCDBF1092E90066
:103820008091E80083FF25C068E0CE0145960E94A4
:10383000AC1382EF8093E8008D8987FF39C09091A7
:10384000E80090FFFCCF982F907609F034C19E8954
:103850004F89588D2F89F88C911131C0803861F5CE
:10386000809126028093F1001092F1008EEF8093F8
:10387000E8006C960FB6F894DEBF0FBECDBFDF91A7
:10388000CF91FF91EF91BF91AF919F918F917F91D8
:103890006F915F914F913F912F911F910F91FF90E9
:1038A000EF90DF90CF900F900FBE0F901F90189564
:1038B0009EEF9093E800C7CF1092F100D5CF9130E2
:1038C00059F48111D3CF4130510581F68091260200
:1038D0008D7F80932602CACF933049F48111C6CFE1
:1038E0004130510519F6809126028260F2CF953061
:1038F00041F48091E80080FFFCCF20682093E30032
:10390000B5CF963009F0A9C00B8D1C8D22E0109226
:10391000E9001092220210922102F2122EC010929F
:10392000200210921F020E947B131F8299E099834C
:10393000FA8291E09E8390EA98879AEF9987209186
:10394000210230912202275F3F4F3C832B838D83DE
:103950001092E9001092220210922102109320028C
:1039600000931F0249E050E0BE016F5F7F4F80E08F
:103970000E9455130E947B1379CF1093200200936D
:103980001F020E941313DC0112960D911C91011568
:10399000110509F451C1D801ED91FC910480F58124
:1039A000E02DBE016B5E7F4FC8010995009709F0BD
:1039B0003EC1F80100851185EACFF3E0FF120EC089
:1039C0008F89882309F440C0823061F440E867E0C1
:1039D00089E298E10E946C1E811148CF81E28093B8
:1039E000EB0047CF813029F440E86BE08DE198E1AE
:1039F000F1CF833099F70E941313DC011296ED90FA
:103A0000FC908E010F5F1F4F6801E114F10479F003
:103A1000D701ED91FC910680F781E02DB801C70137
:103A20000995080F111DF701E084F184EECFD8014C
:103A30001C92F60101900020E9F73197BF016C1943
:103A40007D0940E0C601C6CF67E078E1FB01449103
:103A500050E080E80E94551309CF973009F4BECF9B
:103A6000983021F481E08093F10000CF993009F083
:103A7000FDCE837009F0B2CFEEE0F1E081E031E0FD
:103A800096E32191222371F08093E9003093EB00BB
:103A9000DF0111972C912093EC009093ED008F5F44
:103AA000873079F78EE78093EA001092EA008F89D9
:103AB00080939503DBCE8B8D9C8D1092E900109244
:103AC0002202109221029093200280931F02898D7E
:103AD000811192C08E899D89913A49F4813209F011
:103AE0007DCF47E050E064E071E080E0B3CF9132F9
:103AF00009F074CF833269F48F89988DB0E0A0E02B
:103B00008093000190930101A0930201B0930301FF
:103B1000ADCE803269F48091E80082FFFCCF67E08F
:103B200084E091E00E94AC138BEF8093E8009ECE7E
:103B3000823209F09BCE8F8980930B01EEEFFFE775
:103B4000859194918B3F9C4D51F1E0E0F8E080919C
:103B5000040190910501A0910601B0910701803BFD
:103B60009440A105B105F1F480910B0180FD1AC0CC
:103B7000EE3F8AE0F80789F587E797E7918380832E
:103B8000809160008093230288E19BE00FB6F89457
:103B9000A895809360000FBE9093600067CEEEEF13
:103BA000FAE0D5CF808191818737974709F05ECEC3
:103BB000A8958091600088618093600080912302C5
:103BC00080936000EE3F2AE0F20789F08091FE0AC0
:103BD0009091FF0A9183808349CE808191818737BC
:103BE000980751F29093FF0A8093FE0AC5CF109276
:103BF000FF0A1092FE0A3ACE0E941313DC011296BD
:103C00000D911C910115110509F4E8CED801ED9133
:103C1000FC910190F081E02DBE016B5E7F4FC801E9
:103C20000995811123CEF80100851185EBCF181677
:103C300019060CF41BCED2CEF1E0FF12BECE6BE023
:103C400078E104CF1F920F920FB60F9211242F9399
:103C50003F938F939F93AF93BF938091270290914F
:103C60002802A0912902B0912A0230911A0223E081
:103C7000230F2D3758F50196A11DB11D20931A026F
:103C80008093270290932802A0932902B0932A02DE
:103C900080911B0290911C02A0911D02B0911E0206
:103CA0000196A11DB11D80931B0290931C02A0934D
:103CB0001D02B0931E02BF91AF919F918F913F91D2
:103CC0002F910F900FBE0F901F90189526E8230F8D
:103CD0000296A11DB11DD2CFEF92FF920F931F93B9
:103CE000CF93DF93F82E192FE62E042F81E0860F55
:103CF000880F0E94271383E00E942713CF2DD12F16
:103D0000EC0EFD2EF11CCE15DF05B9F007FF13C038
:103D1000FE0184910E942713182F80E00E94271330
:103D2000812321968111EFCFDF91CF911F910F91C8
:103D3000FF90EF9008958881EDCF81E0F5CF0F934C
:103D40001F93CF93DF938C0181E090E00E94C71A0C
:103D500080FF31C08AE090E00E94C71A9FEF980F61
:103D60009E3F48F522E330E0D80150963C932E93D5
:103D70001F9728E330E052963C932E935197CBE067
:103D8000D0E0D801ED91FC910190F081E02D682FF9
:103D9000C8010995CE010E94C71A2196C131D105EB
:103DA00081F70E94231088EE93E0DF91CF911F915D
:103DB0000F910C944615DF91CF911F910F910895AB
:103DC00004970C949F1EE6E9F7E01382128288EEB6
:103DD00093E0A0E0B0E084839583A683B78380E27C
:103DE00091E0918380838FEF9FEF95878487E6EE44
:103DF000F7E0138212821186128680E18387108693
:103E00001782158682E391E09183808380E491E0BC
:103E100095838483108A1786128A118A81E0838BA6
:103E2000148A858B168A0895CF93DF93CDB7DEB7BA
:103E300061970FB6F894DEBF0FBECDBF789484B5FE
:103E4000826084BD84B5816084BD85B5826085BD96
:103E500085B5816085BD80916E00816080936E0024
:103E60001092810080918100826080938100809116
:103E700081008160809381008091800081608093C7
:103E800080008091910082608093910080919100E8
:103E90008160809391008091900081608093900078
:103EA0008091C10084608093C1008091C1008260D4
:103EB0008093C1008091C10081608093C100809196
:103EC000C30081608093C3008091C00082608093B2
:103ED000C0008091C20081608093C20080917A000E
:103EE000846080937A0080917A00826080937A0067
:103EF00080917A00816080937A0080917A00806856
:103F000080937A0010929503109226021092250257
:103F10008091D70081608093D70080EA8093D80099
:103F200089B5806189BD89B5826089BD89B5282F31
:103F300021702F8780FFFACF61E070E080E090E091
:103F40000E948C148091D8008F7C80618093D8006F
:103F50008091E000807F8093E0008091E1008E7E80
:103F60008093E1008DE08093E200559A209A1092B0
:103F70008503109283038FEF80938403109248028D
:103F800081EC80937C0081E785B987E684B985E37D
:103F90008BB98FE38AB9769A6E9880EF81BB10BA9D
:103FA00080E58CBD81E08DBD85E090E00E944615E6
:103FB000599902C0599AF8CF5C98E1EEF8E19AE07D
:103FC00085918EBD00000DB407FEFDCF8EB59A958C
:103FD000B9F75C9A81E88093640081E08093650082
:103FE0000E9407100E944B1502E010E087FF16C0E8
:103FF0005C9885EA8EBD00000DB407FEFDCF8EB53E
:104000005C9A2E9858982D988091640080628093D5
:10401000640081E083BF889513BEFCCF0E944B15DE
:1040200082FF40C02D980E944B1584788438C1F4DB
:104030000E94441588EC90E00E94461558981A8317
:1040400009836FEFCE0101960E94C91A84EF91E0B7
:104050000E944615589A0E944B1584788438D9F3EB
:104060000E944B1584718431C1F40E94441588EC80
:1040700090E00E9446152E981A83098360E0CE01D5
:1040800001960E94C91A84EF91E00E9446152E9A6B
:104090000E944B1584718431D9F388EC90E00E9422
:1040A0004615BCCF0E94441582E090E00E94C71ADA
:1040B000882309F47EC03E9A579A81E090E00E94DE
:1040C000C71A182F147081FF0EC011112E9840EFDF
:1040D000E42EFF24FA940E944B1586FF6DC02E9AA1
:1040E000589A0E94441582E390E00E9446150E946F
:1040F0004B158111F8CF82E48093F1078FEF9FEF8A
:104100009093A3078093A2071092870310928603CF
:104110008EE092E00E94C71A8D3461F48FE092E045
:104120000E94C71A8D3431F480E192E00E94C71AD0
:104130008D3411F00E94211B10E031E1E32E32E0BA
:10414000F32EC7010E94C71A90E0909381038093D9
:10415000800321E0210F892B31F082E0E80EF11C71
:104160001E3109F05AC020938203109281031092ED
:1041700080038FB7F89440912702509128026091F4
:10418000290270912A028FBF8091F207942F981B09
:10419000892F9091F307992309F441C08093F40784
:1041A0001092F30780E090E0892B19F30E94000041
:1041B000E0CF3E98579881CF112331F034E0E316D9
:1041C000F10411F42E9A589881E00E94071000E142
:1041D00028E541E358E1B70184E190E00E945312E1
:1041E0000E9423108FE090E00E9446154FEFE41AE2
:1041F000F40A59E1E516F10409F06DCF112311F02D
:10420000589A2D9880E991E00E9446150E94441525
:1042100086EE97E00E949F1E66CF122F92CF90915C
:10422000F107891748F48F5F891708F0BBCF81E049
:1042300083BF889513BEB6CF81E08093F307409388
:10424000F2078091ED079091EE0701969093EE07AB
:104250008093ED077090870326E0271508F4A2CF1E
:10426000E72DF0E0EA5CFE4D0C94932C3D215C219F
:1042700006240924A2242625562A8091840387FD3A
:1042800002C00C94772A8EE1809384030E9466100A
:104290002AE04AEF5DE16FE170E08FE390E00E9479
:1042A000791040E054E066E973E086E997E00E9407
:1042B000BF140E94231076CF8FE492E00E94C71AA9
:1042C000809386038BE592E00E94C71A811191C00A
:1042D0008CE592E00E94C71A81118BC080E592E0C4
:1042E0000E94C71A811185C01092830310E0A0E1DB
:1042F000AA2EB12CB8E24B2E512C05E1E02EF12C68
:1043000083E2882E912C99E1C92ED12C24E2222E11
:10431000312C0E94661020E04DE15DE170E060E02C
:1043200090E080E00E947910B092F607A092F50725
:104330005092F8074092F70782E491E00E94191A20
:10434000B092F607A092F50748E350E05093F807C3
:104350004093F70787E491E00E94191A8CE490E0FB
:104360009093F6078093F5075092F8074092F7076D
:104370008DE491E00E94191A2CE430E03093F607A6
:104380002093F50748E350E05093F8074093F70770
:1043900082E591E00E94191A0E94531580E10E9463
:1043A0002610882351F110FD28C01F5F88E290E09D
:1043B00010FF02C088E390E02AE030E0123010F0F5
:1043C00026E430E03093F6072093F5079093F80742
:1043D0008093F7078EE691E00E94191A40E054E0BE
:1043E00066E973E086E997E00E94BF140E942310FB
:1043F00090CF81E08093830379CF80E80E942610DC
:10440000882311F010FD19C080E40E94261081114C
:1044100016C080E20E942610811115C088E00E941B
:104420002610882319F2111112C01092860383E01E
:104430008093870310928303B5CE1150B7CF12300B
:1044400040F71E5FB3CF123048F31250AFCF113098
:1044500009F07BC001E00E946610D092F607C0927E
:10446000F5078CE090E09093F8078093F70788E5D4
:1044700091E00E94191AD092F607C092F5072CE13C
:1044800030E03093F8072093F70781E691E00E942F
:10449000191AD092F607C092F5074CE250E05093FB
:1044A000F8074093F70789E691E00E94191A83E123
:1044B00090E09093F6078093F50720E1029FC001FA
:1044C000112404979093F8078093F7078EE691E004
:1044D0000E94191A40E054E066E973E086E997E02B
:1044E0000E94BF140E9423100E94531580E80E946E
:1044F0002610882311F00130B9F480E10E942610C3
:10450000811114C084E00E94261081114FCF88E0F1
:104510000E942610882309F49ECF013059F40E948E
:104520003C188823E1F397CF015095CF033050F723
:104530000F5F91CF023029F40E947B188823E1F3AA
:104540008ACF033009F087CF31CF123009F0AAC0EB
:1045500080918303811199C00E946610B092F60782
:10456000A092F507F092F807E092F70786E891E04D
:104570000E94191A40E054E066E973E086E997E08A
:104580000E94BF140E9423100E94531588E00E94CD
:10459000261081110BCF84E00E9426108823A1F3FE
:1045A00005CF02E080918303882309F470C00E9444
:1045B0006610D092F607C092F507F092F807E092E5
:1045C000F70780E791E00E94191A8091860390E036
:1045D00001960E94261A84EB91E00E94191A46E285
:1045E00050E05093F6074093F5073092F807209279
:1045F000F7078CE791E00E94191A802F8150990BE0
:104600009C014AE2429FC001439F900D1124809675
:104610009093F6078093F5073092F8072092F707FA
:104620008EE691E00E94191A40E054E066E973E0DA
:1046300086E997E00E94BF140E9423100E94531540
:1046400080E40E942610882319F0013009F4A9CFD4
:1046500080E20E942610882311F00230B1F088E039
:104660000E942610682E882311F0023081F084E029
:104670000E94261081110BC0662009F493CF0130EF
:1046800009F08FCF109283038DCF072D8BCF8091B0
:10469000830381118BCE85E08093870381E0809333
:1046A000830380CD133009F081CE80918203813065
:1046B00009F0A8C0809183038111A4C00E946610F4
:1046C000F092F607E092F507F092F807E092F7070C
:1046D00086E991E00E94191A40E054E066E973E02F
:1046E00086E997E00E94BF140E9423100E94531590
:1046F00088E00E942610811159CE84E00E94261085
:104700008823A1F353CE00E00E9466108CE090E075
:104710009093F6078093F507F092F807E092F70779
:1047200084EA91E00E94191A9092F6078092F507A8
:104730009092F8078092F7078CE791E00E94191A8F
:10474000069DC00111244D969093F6078093F507BE
:104750009092F8078092F7078EE691E00E94191A6E
:1047600040E054E066E973E086E997E00E94BF14F8
:104770000E9423100E94531580E20E94261081118E
:10478000C2CF80E40E94261081113AC084E00E94CA
:10479000261081110BCE88E00E942610882309F490
:1047A000B3CF013009F402CE0E94211B81E0809337
:1047B0008203109283030E946610D092F607C09283
:1047C000F507F092F807E092F70786EB91E00E9478
:1047D000191A40E054E066E973E086E997E00E9428
:1047E000BF140E9423100E94531588E00E942610D7
:1047F0008111DCCD84E00E9426108823E1F2D6CD21
:10480000072D82CF072DFAE26F2E7ECF0E947B18F4
:1048100070C60E946610D12CEFE0CE2EED2CF12C4C
:1048200000918203002E000C110BE016F106F4F546
:10483000C70173E0959587957A95E1F7C89E400189
:10484000C99E900C11248D2D87708C9D50011124D0
:1048500080918603D8120AC001E022E04CE0B40146
:10486000665F7F4FC50104960E947D1592E0890E18
:10487000911C28E08AE090E02D1510F484E090E08F
:10488000A80EB91EB092F607A092F5079092F8070D
:104890008092F707B7016F5F7F4F072E000C880BE0
:1048A000990B4AE00E94AA19D394B8CF40E054E093
:1048B00066E973E086E997E00E94BF140E94231026
:1048C0000E94531580E80E942610882341F08091B1
:1048D0008603883020F088508093860317C080E1DB
:1048E0000E942610882341F0809186039801285069
:1048F0003109821713068CF080E40E942610811182
:104900000EC080E20E942610811112C088E00E9431
:104910002610882399F084E0F1C5885FDDCF80916F
:10492000860301501109801711065CF78F5FD4CF01
:1049300080918603882351F38150CECF84E00E947A
:104940002610D7C5E09086038091840387FF77C047
:104950008EE180938403F12C8701000F111FC801A1
:104960008F5E9D4F0E94C71A90E0909381038093C1
:1049700080030E9466108091800390918103892BAF
:10498000A9F01092F6071092F5071092F80710920E
:10499000F70783EC91E00E94191A609180037091EF
:1049A000810390E080E04AE00E94AA198BE290E047
:1049B0009093F6078093F50784E190E09093F807D1
:1049C0008093F7078FEC91E00E94191AC7010196B6
:1049D0000E94261A1092F6071092F5078CE190E0DB
:1049E0009093F8078093F707F801E152F34E659131
:1049F000749185E592E00E948E2A85E592E00E94FE
:104A0000191A8DE090E09093F6078093F5078EE2F7
:104A100090E09093F8078093F70786ED91E00E946D
:104A2000191AF801EF55F34E6591749185E592E0FE
:104A30000E948E2A85E592E00E94191A32CC0E94CB
:104A40002518882309F4AECB85E058C580918603EC
:104A50000E94301A80918303882309F46DC010925C
:104A60004A0280914A0200914602909147028917BA
:104A700008F04BC090E0805B9D4F0E94C71AF82E53
:104A80008017E8F5109249021091490220914A02DC
:104A90001017A8F5812F90E0029F800D911D112421
:104AA0009C0153E0369527955A95E1F7225D3D4FDD
:104AB0003A832983877041E050E002C0440F551FBC
:104AC0008A95E2F74B83CE0101960E94DB1688237C
:104AD00029F01F1548F481E00E94EB1880914902EB
:104AE0008F5F80934902D0CFF11648F480E00E9496
:104AF000EB1880914902825080934902EFCF809158
:104B00004A028F5F80934A02ACCF8BE592E00E940D
:104B1000C71A80934A028CE592E00E94C71A8093DC
:104B200049028DE592E00E94C71A90E090938103BC
:104B300080938003109283030E946610C090470206
:104B40002C2D30E020904602822D90E09E838D83B4
:104B5000B9016E5F7F4F80E490E00E947F2C362E7B
:104B60006D817E816E5F7F4F80E890E00E947F2C98
:104B7000631508F4362E30922C02832C912C80E49D
:104B800090E0B4010E947F2C621B730B77FF02C080
:104B90006F5F7F4F9B013595279538872F83B9012C
:104BA000330F880B990B0E94722B2B013C0180E87C
:104BB00090E0B4010E947F2C4D815E81641B750BD7
:104BC00077FF02C06F5F7F4FCB01959587959A87DE
:104BD0008987BC01990F880B990B0E94722B6B87F8
:104BE0007C878D879E8710E000E0DD24D394F12C34
:104BF000E12C4D2DB701C8010E945F1581E08D2584
:104C00003FEFE31AF30A40E4E416F104A9F50F5F5D
:104C10001F4F0038110559F7222D30E0398B288BB2
:104C200010E0B12CA12CC11679F17501D12C2D14F5
:104C300029F1C70123E0969587952A95E1F7825DD2
:104C40009D4F9A8389838E2D877021E030E002C0CA
:104C5000220F331F8A95E2F72B83CE0101960E9423
:104C6000DB1609852F814D2D612F0E94E516D39407
:104C70003FEFE31AF30ADBCFD82EBBCF1F5F488983
:104C80005989A40EB51ECFCF09852F8140914902C5
:104C900060914A0282E00E94E516B401990C880BEB
:104CA000990B0E94722B6B017C01AC019B016B85FF
:104CB0007C858D859E850E94FE2B4B015C01A701A2
:104CC0009601C301B2010E94FE2B2B013C01C501DC
:104CD000B4010E94412B162F60912B02369EB00129
:104CE0001124072E000C880B990B0E94722BA30134
:104CF00092010E94CE2A0E943A2B00E0232D412FE0
:104D000090E080E00E947D152D813E81B901330F36
:104D1000880B990B0E94722B2B853C854D855E85F7
:104D20000E94CE2A9B01AC0160E070E080E093E439
:104D30000E94CD2AA70196010E94FE2B0E94412BC2
:104D4000162F60912D02369EB0011124072E000C03
:104D5000880B990B0E94722BA30192010E94CE2A0C
:104D60000E943A2B6B01239CB0011124072E000CEA
:104D7000880B990B0E94722BA50194010E94CE2AE8
:104D80000E943A2BCB01232D412FB6010E947D15A5
:104D9000809148028823B1F01092F6071092F5072F
:104DA0001092F8071092F7076091800370918103C9
:104DB00090E080E04AE00E94AA1980914802815068
:104DC0008093480240E054E066E973E086E997E0AA
:104DD0000E94BF140E9423100E94531580E80E9475
:104DE0002610882309F447C010914A02112309F4C0
:104DF00015C140914602212F2150330BC901489F14
:104E00009001499F300D112480914902820F932F08
:104E1000911D9C0103E0369527950A95E1F7225DE7
:104E20003D4F3A832983877041E050E002C0440F30
:104E3000551F8A95E2F74B83CE0101960E94DB163F
:104E40008111ECC0115010934A028091800390911F
:104E50008103019690938103809380036AE070E060
:104E60000E946B2CFC01E55BFD4F51E050838DE20D
:104E700080934802D3C080E10E942610882309F461
:104E800048C010914A02812F90E0209147022150A2
:104E9000330B821793070CF0C1C040914602019674
:104EA000489F9001499F300D112480914902820F43
:104EB000932F911D9C01B3E036952795BA95E1F7A4
:104EC000225D3D4F3A832983877021E030E002C0A4
:104ED000220F331F8A95E2F72B83CE0101960E94A1
:104EE000DB1681119BC01F5F10934A0280918003E3
:104EF00090918103019690938103809380036AE0EF
:104F000070E00E946B2CFC01E55BFD4F83E0808329
:104F1000AECF80E40E942610882309F464C1D090AB
:104F200049028D2D90E020914602422F4150550BB1
:104F30008A01E0904A02841795070CF068C02E9D04
:104F40007001112401968E0D9F1D9C01A3E03695E2
:104F50002795AA95E1F7225D3D4F3A832983877013
:104F600021E030E002C0220F331F8A95E2F72B8345
:104F7000CE0101960E94DB168130A9F0D394D09225
:104F8000490280918003909181030196909381035F
:104F9000809380036AE070E00E946B2CFC01E55B6B
:104FA000FD4F82E0B4CF0E0D1F1DC801F3E09695B2
:104FB0008795FA95E1F7825D9D4F9A838983077003
:104FC00081E090E001C0880F0A95EAF78B83CE015B
:104FD00001960E94DB16811121C081E00E94EB182E
:104FE000809149028F5F8093490280918003909164
:104FF0008103019690938103809380036AE070E0BF
:105000000E946B2CFC01E55BFD4F85E080CF809119
:105010002D02E81203C031E03093850384E00E9442
:105020002610882309F473C05F8400E110E028E0B3
:10503000622E712C35E1E32EF12C42E2C42ED12CEC
:105040005FE2A52EB12C66E0862E912C0E945315AE
:105050000E9466101093F6070093F5077092F80708
:105060006092F70786EE91E00E94191A1093F607F6
:105070000093F507F092F807E092F70788E591E0D2
:105080000E94191A1093F6070093F507D092F807BB
:10509000C092F70782EF91E00E94191A1093F60769
:1050A0000093F507B092F807A092F70780E092E02E
:1050B0000E94191A9092F6078092F50730E4539EE9
:1050C000C001112465E070E00E947F2C64507109DA
:1050D0007093F8076093F7078EE691E00E94191A23
:1050E00040E054E066E973E086E997E00E94BF146F
:1050F0000E94231088E00E942610882309F487C1AB
:1051000041E05412E7C0809186030E94301A8091DA
:105110008703813009F458C088E00E942610882354
:1051200081F180918003909181036AE070E00E9498
:105130006B2CFC01E55BFD4F8081833009F49BC142
:1051400008F080C1813009F48AC1823009F48DC130
:105150002091800330918103C9016AE070E00E94D0
:105160006B2CFC01E55BFD4F8081882351F01082A0
:105170002150310930938103209380038DE2809385
:10518000480280918503882309F4D6CC10928503C8
:10519000F09086030F2D10E0000F111F0F5E1D4FC2
:1051A000C8010E94C71A882309F476C120918003A0
:1051B000309181038217130611F008F071C18091BC
:1051C00086038F5F8093860380918703813011F47B
:1051D0000C94D220809186038E3109F09CCB1092E2
:1051E000860386E08BC180E20E942610882309F4A2
:1051F00015CFF0904902FF2009F410CF009146022C
:1052000080914A02089F800111244F2D4150550B77
:10521000CA01800F911F9C01E3E036952795EA951E
:10522000E1F7225D3D4F3A832983877021E030E02A
:1052300002C0220F331F8A95E2F72B83CE0101961D
:105240000E94DB168130A9F0FA94F0924902809115
:105250008003909181030196909381038093800352
:105260006AE070E00E946B2CFC01E55BFD4F84E07E
:105270004ECEC80173E0969587957A95E1F7825DE9
:105280009D4F9A838983077081E090E001C0880F69
:105290000A95EAF78B83CE0101960E94DB168111F5
:1052A000BDCE0E94EB188091490281508093490243
:1052B0008091800390918103019690938103809364
:1052C00080036AE070E00E946B2CFC01E55BFD4FFF
:1052D00086E01DCE52E0551205C00E943C1888237E
:1052E000E1F3B4CE83E058128BC00E94661066E8EA
:1052F00073E08FE492E00E94E21A6AE472E08BE5C8
:1053000092E00E94E21A69E472E08CE592E00E9469
:10531000E21A60E873E08DE592E00E94FA1A412CEF
:1053200080914702481608F042C01C823C802091C0
:105330004602822F90E0321668F5832D90E0249D7E
:10534000800D911D11249C0193E0369527959A9527
:10535000E1F7225D3D4F3A832983877021E030E0F9
:1053600002C0220F331F8A95E2F72B83CE010196EC
:105370000E94DB16882359F0842D90E0BE016C5FFB
:105380007F4F805B9D4F0E94E21A4394C9CF3394B4
:105390003C82CCCF01969A838983842D90E0BE0114
:1053A0006F5F7F4F815B9D4F0E94FA1AEECF0E9484
:1053B000661086E190E09093F6078093F5078BE105
:1053C00090E09093F8078093F7078AE092E00E94BC
:1053D000191A40E054E066E973E086E997E00E941C
:1053E000BF140E9423100E94531588E00E942610CB
:1053F00081112CCE84E00E9426108823A1F326CEB2
:1054000034E0531223CE41E04093870380CE84E002
:105410000E94261081117BCE80E80E9426108823EE
:1054200019F051E055120CC080E10E94261088232B
:1054300009F40CCE83E0851508F408CE539406CE0B
:105440005A9404CE8530F9F0D0F0863009F080CE41
:10545000809149028F5F8093490281E01AC0809158
:105460004A028F5F80934A0273CE80914902815035
:10547000809349026DCE80914A028150F3CF809192
:1054800049028F5FF5CF8091490281508093490294
:1054900080E00E94EB185CCEF394F394F0928203C8
:1054A00060E873E0C8010E94FA1A89CE80918403F3
:1054B00087FD02C08130D9F40E94661080910C01F2
:1054C00020E08823F9F046EC5AE170E060E090E0DB
:1054D00080E00E94791010920C0140E054E066E9EF
:1054E00073E086E997E00E94BF140E9423100E9497
:1054F0002518882311F40C94D22081E0809387032F
:105500000C94D2204BEE58E170E060E090E080E037
:105510000E94791081E080930C01DFCFFB01DC0158
:1055200005900D920020E1F70895F999FECF92BD04
:1055300081BDF89A992780B50895262FF999FECF55
:105540001FBA92BD81BD20BD0FB6F894FA9AF99AA0
:105550000FBE01960895A1E21A2EAA1BBB1BFD01E6
:105560000DC0AA1FBB1FEE1FFF1FA217B307E40742
:10557000F50720F0A21BB30BE40BF50B661F771F9A
:10558000881F991F1A9469F760957095809590957A
:105590009B01AC01BD01CF0108955058BB27AA273C
:1055A0000E94E52A0C94C42B0E94B62B38F00E946E
:1055B000BD2B20F039F49F3F19F426F40C94B32B43
:1055C0000EF4E095E7FB0C94AD2BE92F0E94D52B50
:1055D00058F3BA17620773078407950720F079F428
:1055E000A6F50C94F72B0EF4E0950B2EBA2FA02DF8
:1055F0000B01B90190010C01CA01A0011124FF2780
:10560000591B99F0593F50F4503E68F11A16F0407A
:10561000A22F232F342F4427585FF3CF4695379579
:105620002795A795F0405395C9F77EF41F16BA0B3E
:10563000620B730B840BBAF09150A1F0FF0FBB1FEC
:10564000661F771F881FC2F70EC0BA0F621F731F35
:10565000841F48F4879577956795B795F7959E3F92
:1056600008F0B0CF9395880F08F09927EE0F979523
:10567000879508950E94412B6894B1110C94F82BE2
:1056800008950E94DD2B88F09F5798F0B92F992735
:10569000B751B0F0E1F0660F771F881F991F1AF01D
:1056A000BA95C9F714C0B13091F00E94F72BB1E060
:1056B00008950C94F72B672F782F8827B85F39F05F
:1056C000B93FCCF3869577956795B395D9F73EF4B6
:1056D00090958095709561957F4F8F4F9F4F08955E
:1056E000E89409C097FB3EF490958095709561957C
:1056F0007F4F8F4F9F4F9923A9F0F92F96E9BB2732
:105700009395F695879577956795B795F111F8CFAD
:10571000FAF4BB0F11F460FF1BC06F5F7F4F8F4F18
:105720009F4F16C0882311F096E911C0772321F00E
:105730009EE8872F762F05C0662371F096E8862FA6
:1057400070E060E02AF09A95660F771F881FDAF7FD
:10575000880F9695879597F9089597F99F6780E840
:1057600070E060E008959FEF80EC089500240A94B3
:105770001616170618060906089500240A9412162C
:105780001306140605060895092E0394000C11F45F
:10579000882352F0BB0F40F4BF2B11F460FF04C00C
:1057A0006F5F7F4F8F4F9F4F089557FD9058440F65
:1057B000551F59F05F3F71F04795880F97FB991F70
:1057C00061F09F3F79F0879508951216130614062D
:1057D000551FF2CF4695F1DF08C0161617061806BA
:1057E000991FF1CF86957105610508940895E89495
:1057F000BB2766277727CB0197F908950E94112CC4
:105800000C94C42B0E94B62B38F00E94BD2B20F0C4
:10581000952311F00C94AD2B0C94B32B11240C9404
:10582000F82B0E94D52B70F3959FC1F3950F50E094
:10583000551F629FF001729FBB27F00DB11D639F42
:10584000AA27F00DB11DAA1F649F6627B00DA11DE8
:10585000661F829F2227B00DA11D621F739FB00D8E
:10586000A11D621F839FA00D611D221F749F3327FE
:10587000A00D611D231F849F600D211D822F762F97
:105880006A2F11249F5750409AF0F1F088234AF074
:10589000EE0FFF1FBB1F661F771F881F91505040E0
:1058A000A9F79E3F510580F00C94AD2B0C94F82B7A
:1058B0005F3FE4F3983ED4F3869577956795B79567
:1058C000F795E7959F5FC1F7FE2B880F911D969581
:1058D000879597F90895AA1BBB1B51E107C0AA1F22
:1058E000BB1FA617B70710F0A61BB70B881F991F81
:1058F0005A95A9F780959095BC01CD01089597FB25
:10590000072E16F4009407D077FD09D00E946B2C67
:1059100007FC05D03EF4909581959F4F08957095B2
:1059200061957F4F0895EE0FFF1F0590F491E02DD4
:10593000099481E090E0F8940C949E2CF894FFCFA9
:10594000FFFFFFFF00E10000000000000100C18038
:1059500081000000010204081020408000000000C7
:10596000E613BF140714FC134D140B142914000084
:105970000000B915B913D816D7169F1EFCFF0000FA
:10598000E01E506C61790041626F7574004C6F616C
:105990006400457261736500436F6E74726F6C735F
:1059A0000043726564697473004261636B003E007A
:1059B0004C6F6164206C6576656C200059657320BE
:1059C0002020204E6F004E6F7468696E6720746FE0
:1059D000206C6F6164004E6F7468696E672073613C
:1059E0007665640045726173652073617665642035
:1059F000646174613F004461746120657261736524
:105A0000642E00596F757220626573743A20004CE1
:105A10006576656C20004D696E696D756D206D6FE2
:105A20007665733A20005265736574204C6576651F
:105A30006C00536176652050726F677265737300F6
:105A40004D61696E204D656E750050726F677265AD
:0A5A50007373205361766564000053
:00000001FF
