:100000000C9435040C945D040C945D040C945D0414
:100010000C945D040C945D040C945D040C945D04DC
:100020000C945D040C945D040C941C130C948B13C1
:100030000C945D040C945D040C945D040C945D04BC
:100040000C945D040C945D040C945D040C945D04AC
:100050000C945D040C945D040C945D040C94BD152B
:100060000C945D040C945D040C945D040C945D048C
:100070000C945D040C945D040C945D040C945D047C
:100080000C9407160C945D040C945D040C945D04B0
:100090000C945D040C945D040C945D040C945D045C
:1000A0000C945D040C945D040C945D040C1F1E0CF8
:1000B0000C13120C1E182A45EA180E1C183452C5CF
:1000C00041C23C0012365AC541C23C0000FE020249
:1000D000724A42E22202860CF8F040C08080C040A2
:1000E000C0C08080C0C0404040C0C0808080C04050
:1000F000C080C04040C0C080C0C0404040C0808080
:100100000000000000FF000000F0F0717171787CC9
:10011000FFF0C0C08787000000FF870100000000DB
:100120000000000187FF000000F1F8FCFCFE8701E1
:10013000000000000000000187FEF800007FF0E0F2
:10014000F0FF7F00000000000F1D18181818181885
:100150001C1F0F060C1C1818181C1C1E0F0F1C1837
:100160001C1F1F0F000103060C1C1818181C1C0E66
:100170000F07010000000000000000000000000068
:10018000000000000000000000000000000000006F
:10019000000000000000000000000000000000005F
:1001A0000000000000000000000000000E0A0E0029
:1001B0000A000A0000000000003E5B4F5B3E3E6B01
:1001C0004F6B3E1C3E7C3E1C183C7E3C181C577DF1
:1001D000571C1C5E7F5E1C00183C1800FFE7C3E73D
:1001E000FF0018241800FFE7DBE7FF30483A060E4F
:1001F0002629792926407F050507407F05253F5A96
:100200003CE73C5A7F3E1C1C08081C1C3E7F142205
:100210007F22145F5F005F5F06097F017F006689B0
:10022000956A606060606094A2FFA29408047E04F6
:100230000810207E201008082A1C08081C2A08081C
:100240001E101010100C1E0C1E0C30383E383006DC
:100250000E3E0E06000000000000005F00000007D8
:10026000000700147F147F14242A7F2A1223130806
:10027000646236495620500008070300001C2241E2
:10028000000041221C002A1C7F1C2A08083E080886
:100290000080703000080808080800006060002036
:1002A000100804023E5149453E00427F4000724919
:1002B0004949462141494D331814127F10274545BD
:1002C00045393C4A494931412111090736494949D3
:1002D00036464949291E0000140000004034000041
:1002E00000081422411414141414004122140802AA
:1002F000015909063E415D594E7C1211127C7F491D
:100300004949363E414141227F4141413E7F494971
:1003100049417F090909013E414151737F0808089D
:100320007F00417F41002040413F017F081422416E
:100330007F404040407F021C027F7F0408107F3EC8
:100340004141413E7F090909063E4151215E7F0935
:10035000192946264949493203017F01033F40409C
:10036000403F1F2040201F3F4038403F6314081487
:100370006303047804036159494D43007F414141BF
:100380000204081020004141417F040201020440A0
:1003900040404040000307080020545478407F2824
:1003A0004444383844444428384444287F3854541A
:1003B000541800087E090218A4A49C787F0804043D
:1003C0007800447D40002040403D007F10284400DC
:1003D00000417F40007C047804787C08040478386D
:1003E00044444438FC1824241818242418FC7C089D
:1003F000040408485454542404043F44243C40401A
:10040000207C1C2040201C3C4030403C44281028CC
:10041000444C9090907C4464544C44000836410015
:100420000000770000004136080002010204023C8F
:100430002623263C1EA1A161123A4040207A38545E
:1004400054555921555579412154547841215554D9
:10045000784020545579400C1E527212395555552A
:1004600059395454545939555454580000457C4115
:100470000002457D420001457C40F0292429F0F02E
:10048000282528F07C545545002054547C547C0A7F
:10049000097F4932494949323248484832324A484C
:1004A00048303A4141217A3A42402078009DA0A04C
:1004B0007D39444444393D4040403D3C24FF2424A0
:1004C000487E4943662B2FFC2F2BFF0929F620C0BD
:1004D000887E090320545479410000447D4130480E
:1004E000484A32384040227A007A0A0A727D0D1951
:1004F000317D2629292F28262929292630484D40B3
:1005000020380808080808080808382F10C8ACBAAE
:100510002F102834FA00007B000008142A1422222D
:10052000142A14089500220095AA005500AAAA557D
:10053000AA55AA000000FF00101010FF00141414A8
:10054000FF001010FF00FF1010F010F0141414FC46
:10055000001414F700FF0000FF00FF1414F404FC63
:10056000141417101F10101F101F1414141F001044
:100570001010F0000000001F101010101F101010BD
:1005800010F010000000FF101010101010101010CC
:10059000FF10000000FF140000FF00FF00001F100C
:1005A000170000FC04F414141710171414F404F4C6
:1005B0000000FF00F714141414141414F700F714B7
:1005C0001414171410101F101F141414F414101006
:1005D000F010F000001F101F0000001F14000000AA
:1005E000FC140000F010F01010FF10FF141414FFA2
:1005F000141010101F00000000F010FFFFFFFFFF9D
:10060000F0F0F0F0F0FFFFFF0000000000FFFF0F30
:100610000F0F0F0F38444438447C2A2A3E147E02C0
:10062000020606027E027E02635549416338444455
:100630003C04407E201E2006027E020299A5E7A50A
:10064000991C2A492A1C4C7201724C304A4D4D307B
:100650003048784830BC625A463D3E494949007EA0
:100660000101017E2A2A2A2A2A44445F4444405137
:100670004A444040444A51400000FF0103E080FFEB
:10068000000008086B6B083612362436060F090F77
:1006900006000018180000001010003040FF010193
:1006A000001F01011E00191D1712003C3C3C3C00BC
:1006B000000000008D14A1C881CFD9F102AF000065
:1006C00080C02020202020E000A0000060800000EA
:1006D000000000E00000000000000000000000003A
:1006E00000000000809090909090908000000000AA
:1006F00000101010101010000000000020408000BA
:10070000000000008000000000027E02007E0870F1
:100710000030481000244A3400304830007E002069
:100720004830047E007E427E0001002021120C0C25
:100730001300000000000021201008040300000046
:10074000000101010101010101010100000000009F
:1007500020201008040300000001010121190701F5
:10076000010101000000202010100808040201000F
:100770000000000000000000000000000000000079
:100780000000000000000000000000000000000069
:100790000000000000000000000000000000000059
:1007A0000000000000000000000000000000000049
:1007B0000000000000000000000000000000000039
:1007C0000000000000000000000000000000000029
:1007D0000000000000000000000000000000000019
:1007E0000000000000000000000000000000000009
:1007F000000000000000000000000000080B0002E4
:1008000002020100090400000102020000052400A8
:10081000100105240101010424020605240600013B
:100820000705810310004009040100020A000000CE
:100830000705020240000007058302400000040390
:10084000090412010002EF02014041233680000139
:100850000102030141726475696E6F204C4C4300C4
:100860004142413131303600AC1611241FBECFEF6A
:10087000DAE0DEBFCDBF11E0A0E0B1E0E0E1F4E3FB
:1008800002C005900D92A439B107D9F726E0A4E97A
:10089000B1E001C01D92A53CB207E1F714E0C5E349
:1008A000D4E004C02197FE010E94F419C433D1079B
:1008B000C9F70E94ED160C94061A0C940000809162
:1008C00035020895EEE4F2E080E030EB20E146E00E
:1008D0005C983EBD4A95F1F72EBD20E8239507C0F0
:1008E000449140815C9A4EBD8111412D41934491C8
:1008F0002A95B1F73395383B49F70DB408956F92B7
:100900007F928F929F92AF92BF92CF92DF92EF929F
:10091000FF920F931F93CF93DF9330E0F901E80F1D
:10092000F91FF7FD6FC0803891050CF06BC0A02E49
:10093000B12CF501E60FF71FF7FD64C060347105B7
:100940000CF060C0E62FE7709E2EE3E0759567958A
:10095000EA95E1F7DB01B695BA2FAA27B795A795D7
:10096000A80FB91FA25BBD4FEA0113E0B594A7948D
:100970001A95E1F7A60EB71E6F3FFFEF7F07ACF1A8
:100980008C0150E040E07D01E0E8EE0EF11C17FD27
:1009900022C0FA01EC0FFD1FE491F0E03F01092CA9
:1009A00002C0660C771C0A94E2F76F3F7607C9F124
:1009B0006D01C40ED51EF6018080862880829920A4
:1009C00051F06730710539F06701C40ED51EF6018C
:1009D0008080872880824F5F5F4F0F5F1F4F4217D5
:1009E00053071CF40038110591F66F5F7F4FA05834
:1009F000BF4FC20FD31F6A157B0521F06830710508
:100A000009F0BACFDF91CF911F910F91FF90EF9036
:100A1000DF90CF90BF90AF909F908F907F906F901E
:100A200008959110D1CFD7CF90E0EEE4F2E091118C
:100A30009FEF8FEF91939193919391938150D0F782
:100A400008959C01CB018770992791E001C0990F0F
:100A50008A95EAF777FF02C0695F7F4FFB0183E069
:100A6000F595E7958A95E1F7F695FE2FEE27F79530
:100A7000E795E20FF31FE25BFD4F25E6215031F0D1
:100A80008191DF011197892B8C93F8CF0895FC0198
:100A900080914D02882311F13FB7F89482E0809352
:100AA000E9002091F200822F90E01816190614F444
:100AB00081E090E0882339F0289844E640934C0286
:100AC0004091F1004083222339F02091F20021115E
:100AD00003C02BE62093E8003FBF08958FEF9FEF00
:100AE00008952FB7F89483E08093E9009091E8008F
:100AF000892F807295FF04C09091F20080E4891BD9
:100B00002FBF08958091440281110DC082E080932F
:100B1000400284E08093410210924302109242020C
:100B200081E08093440280E492E00895CF93DF93C4
:100B30001F92CDB7DEB76983DC01ED91FC91028095
:100B4000F381E02D41E050E0BE016F5F7F4F0995DA
:100B50000F90DF91CF91089583E08093E900809119
:100B6000F200882319F08AE38093E80008950E9438
:100B7000710590E00895CF93DF931F92CDB7DEB754
:100B8000FC018485958597FD08C02FEF3FEF3587E1
:100B900024870F90DF91CF910895CE0101960E9496
:100BA0004705019719F4898190E0F3CF8FEF9FEF0C
:100BB000F0CF0F931F93CF93DF931F92CDB7DEB784
:100BC0008C01FC018485958597FF0BC0CE010196B1
:100BD0000E944705019771F4898190E0F80195879B
:100BE0008487F801848595850F90DF91CF911F91BF
:100BF0000F9108958FEF9FEFF1CFFC0184859585CC
:100C000097FD0BC09FB7F89482E08093E900809134
:100C1000F2009FBF90E0019608959FB7F89482E09C
:100C20008093E9008091F2009FBF90E00895409189
:100C30003A0250913B02209138023091390242171A
:100C40005307B4F49091E8009570E1F39091E800B7
:100C500092FD19C08093F10080913A0290913B027D
:100C600001968F739927892B19F48EEF8093E800F2
:100C700080913A0290913B02019690933B028093BF
:100C80003A0281E0089580E00895EF92FF920F9379
:100C90001F93CF93DF93F82E192FE62E042F81E0B8
:100CA000860F880F0E94170683E00E941706CF2D3B
:100CB000D12FEC0EFD2EF11CCE15DF05B9F007FF8C
:100CC00013C0FE0184910E941706182F80E00E9435
:100CD0001706812321968111EFCFDF91CF911F91CC
:100CE0000F91FF90EF9008958881EDCF81E0F5CFCF
:100CF000DF92EF92FF920F931F93CF93DF93D82E43
:100D00008A01EB017B01E40EF51ECE15DF0559F0DB
:100D1000D7FE12C0FE0184910E9417062196811110
:100D2000F4CF0FEF1FEFC801DF91CF911F910F910B
:100D3000FF90EF90DF9008958881EECF0F931F937F
:100D4000CF93DF931F92CDB7DEB782E0898342E471
:100D500050E06CEF77E080E80E9478060E94820500
:100D6000DC0112960D911C910115110589F0D80135
:100D7000ED91FC910280F381E02DBE016F5F7F4F0A
:100D8000C801099597FD04C0F80100851185ECCFD5
:100D900089810F90DF91CF911F910F91089561503C
:100DA00030F02091F100FC0120830196F8CF2898C3
:100DB00084E680934C020895AF92BF92CF92DF9267
:100DC000EF92FF920F931F93CF93DF936C017B0100
:100DD0008B01040F151FEB015E01AE18BF08C01791
:100DE000D10759F06991D601ED91FC910190F08104
:100DF000E02DC6010995892B79F7C501DF91CF91C7
:100E00001F910F91FF90EF90DF90CF90BF90AF9028
:100E100008953FB7F8948091310290913202A091E9
:100E20003302B091340226B5A89B05C02F3F19F0BC
:100E30000196A11DB11D3FBFBA2FA92F982F88275A
:100E4000BC01CD01620F711D811D911D42E0660F35
:100E5000771F881F991F4A95D1F708958F929F9207
:100E6000AF92BF92CF92DF92EF92FF926B017C0123
:100E70000E9409074B015C01C114D104E104F10493
:100E8000B9F00E940907681979098A099B09683E27
:100E900073408105910580F321E0C21AD108E10871
:100EA000F10888EE880E83E0981EA11CB11CE4CFE7
:100EB000FF90EF90DF90CF90BF90AF909F908F907A
:100EC00008958F929F92AF92BF92CF92DF92EF924E
:100ED000FF920F931F93CF93DF936C017B018A01E5
:100EE00080910E01882309F45CC080914D02882313
:100EF00009F457C080913F0280FF05C08091E00057
:100F000082608093E000E801B12C8AEFA82E93E084
:100F1000892E2AE3922E209711F4BB20D9F10E944A
:100F2000710581110AC0AA94AA20D9F161E070E08C
:100F300080E090E00E942E07EECF8C171D0611F086
:100F40000CF08C2F9FB7F8948092E9002091E80074
:100F500025FD02C09FBFDFCF282F30E0C21BD30B7F
:100F6000F701815020F041914093F100FACFE20E59
:100F7000F31EBB2021F09092E800B12CEBCF8091C2
:100F8000E80085FDE7CF9092E800BB24B39420975A
:100F900009F3F3CF5D9884E680933E0210161106A4
:100FA0003CF081E090E0F6019383828310E000E062
:100FB000C801DF91CF911F910F91FF90EF90DF90CB
:100FC000CF90BF90AF909F908F9008952091250271
:100FD000E0912302F0912402CF0102969093240223
:100FE00080932302222319F08591949108958081A2
:100FF00091810895CF92DF92EF92FF92CF93DF938A
:101000000E94E607811520E8920791F48091710013
:101010008D7F809371001092910046985F98109296
:101020002202DF91CF91FF90EF90DF90CF90089553
:1010300021E020932202813020E8920751F4809130
:1010400020029091210290932402809323020E9417
:10105000E60797FD05C020911F02222309F454C022
:1010600020911E02211150C021E020932602EC01A4
:10107000DF77209709F04BC081E0809327024698E4
:101080003FE9C32E3FE0D32EE12CF12CCAEFD0E094
:10109000E091AC06F091AD060995811103C081E0A5
:1010A0008093270280912602882329F080912702CD
:1010B000882309F43FC05F980E94E6070097F1F18A
:1010C0009C01DE010E94B119DC01CB0129E0B5953C
:1010D000A795979587952A95D1F7109290002AE0C9
:1010E00020939100D0929900C0929800809328029A
:1010F00090932902A0932A02B0932B028091710051
:101100008260809371008DCF10922602B0CF9E0135
:1011100050E040E060E472E48FE090E00E945D19EE
:1011200069017A0181E0C81AD108E108F10810923A
:101130002702AECF4699BFCF5F9ABECF8FEF9FEF0A
:10114000DC01CBCFBC0190E080E00C942E078FB186
:101150008095807F669B88601C9B846008958EBD0F
:1011600000000DB407FEFDCF8EB5089580389105BF
:10117000B8F460347105A0F420E191E061FD94E0E1
:1011800060FD990F62FD9295687F269FD001112422
:10119000A80FA25BBD4F8C9140FF03C0892B8C939D
:1011A000089590958923FBCF0F931F93CF93DF93DF
:1011B000EC0166E070E00E9421056DE370E0CE0175
:1011C0000E94210506E010E041E0B801CE010E9436
:1011D000B6080F5F1F4F0E331105B1F7CD59DF4F22
:1011E00006E010E041E0B801CE010E94B6080F5FB2
:1011F0001F4F0E331105B1F7DF91CF911F910F9162
:1012000008952F923F924F925F926F927F928F92AA
:101210009F92AF92BF92CF92DF92EF92FF920F9385
:101220001F93CF93DF93CDB7DEB72A970FB6F8940D
:10123000DEBF0FBECDBF9A8389836A3061F5DC01C2
:1012400055968C91B8E08B9F90011124E981FA8129
:1012500081899289820F931F928B818B108A1786C6
:1012600081E090E02A960FB6F894DEBF0FBECDBFA6
:10127000DF91CF911F910F91FF90EF90DF90CF9072
:10128000BF90AF909F908F907F906F905F904F90A6
:101290003F902F9008956D3019F329813A813A8754
:1012A0002987D9011F96AD90BC90B0E8AB16B10468
:1012B0000CF07BC0F901C188D288F0E4CF16D104CC
:1012C0000CF073C0D90155966C90559745E0950187
:1012D000649E200D311D1124121613060CF065C0FA
:1012E000262C312C910153E0220F331F5A95E1F740
:1012F0002C0D3D1D121613060CF057C05496BC91D0
:10130000BB83E985FA85F389FC83649FB0011124CE
:101310009B012C543E4F3A832983712CE981FA8139
:101320008491F5E07F1201C080E0460138E0532E41
:10133000282F30E03E832D834C8080FF4B8041106E
:1013400004C03B818C813817E1F010E000E0061505
:10135000C0F4D501A00FB11FB887AF83F12CE12CE9
:10136000E61460F4B701680D791D442D8F819885CE
:101370000E94B608BFEFEB1AFB0AF2CF0F5F1F4FB8
:10138000E6CF8D819E81959587955A94820C931C0A
:101390005110CECF7394E981FA813196FA83E983B3
:1013A000A20CB31CF6E07F12B9CFA985BA85559679
:1013B0002C915597422F50E01F968D919C91B6E04D
:1013C0002B9F800D911D1124E985FA85908B8787CD
:1013D0002689222309F444CF6AEF64039001659FB4
:1013E000300D112420583F4F281739070CF038CF03
:1013F000DF010190F081E02D0190F081E02D6AE0A5
:10140000CD0109952DCF0895089590E080E00895CD
:101410009C0150E0CB01841B950B2817390730F055
:10142000460F571F81E04217530708F480E00895E4
:10143000282F30E0803108F12F50310981E090E011
:1014400002C0880F991F2A95E2F7662359F0209170
:1014500010023091110282279327909311028093FA
:101460001002089520911C0230911D0282279327BB
:1014700090931D0280931C02089521E030E0A901A1
:1014800002C0440F551F8A95E2F7CA01662359F03E
:1014900020910E0230910F028227932790930F0222
:1014A00080930E02089520911A0230911B02822728
:1014B000932790931B0280931A020895282F30E0FF
:1014C0008031D8F0C9010F9720911C0230911D0284
:1014D000082E02C0369527950A94E2F720FD1EC01B
:1014E000209110023091110202C0369527958A95FD
:1014F000E2F720FF15C082E0089520911A02309192
:101500001B02082E02C0369527950A94E2F720FDAB
:1015100005C020910E0230910F02E6CF81E00895C0
:1015200080E008951F93CF93DF93EC01188180E151
:1015300090E00E944719181729F0612F80E190E090
:101540000E944F19198181E190E00E9447191817F4
:1015500029F0612F81E190E00E944F19CE01DF91C7
:10156000CF911F9108950C9447198F929F92AF923B
:10157000BF920F931F93CF93DF93CDB7DEB7A197A1
:101580000FB6F894DEBF0FBECDBF19A2423008F4EB
:101590004AE08E010F5D1F4F842E912CB12CA12C9F
:1015A000A50194010E948F19E62FB901CA01EA3002
:1015B00044F5E05DD801EE938D01232B242B252BE0
:1015C00079F790E080E0109769F0FD01019000202C
:1015D000E9F73197AF014A1B5B0BBD018EEA96E03C
:1015E0000E94DC06A1960FB6F894DEBF0FBECDBFF9
:1015F000DF91CF911F910F91BF90AF909F908F90EF
:101600000895E95CD7CFFC0101900020E9F73197FC
:10161000AF01481B590BBC018EEA96E00C94DC0626
:10162000EF92FF920F931F93CF93DF9300D0CDB72C
:10163000DEB70E9414051092C0061092BF061092E9
:10164000BE061092BD060CE010E086E0E82EF12CFC
:1016500040E0B701C8010E94B6088FEFE81AF80A07
:101660008EE3E816F104A1F70F5F1F4F0037110555
:1016700061F78CE090E00E94D4080EE010E0109337
:10168000BE060093BD0688E090E09093C00680936C
:10169000BF0680E491E00E94030B1093BE06009306
:1016A000BD0680E190E09093C0068093BF0680E580
:1016B00091E00E94030B8DE290E09093BE06809330
:1016C000BD0682E390E09093C0068093BF068DE54F
:1016D00091E00E94030B62E082E190E00E944F19CA
:1016E0001A821982CE0101960E94920A0E94620417
:1016F0006CE271E080E090E00E942E0788E29CE0BE
:1017000090930201809301010F900F90DF91CF9190
:101710001F910F91FF90EF9008950F931F93CF9318
:10172000DF930E9414051092C0061092BF0610921B
:10173000BE061092BD06D0E0C0E008E028E04CEA0A
:1017400051E06CE370E0CE010E947F042496C03823
:10175000D10599F709E128E34CEC50E068E070E02E
:1017600088E090E00E947F0408E028E04CEB50E025
:1017700064E370E084E190E00E947F04CCE3D0E079
:101780000CE310E040E0B801CE010E94B6080F5F04
:101790001F4F00341105B1F72196C434D10581F7EC
:1017A00008E028E044EB50E06CE170E08AE390E070
:1017B0000E947F0428E04CEA51E064E270E08CE390
:1017C00090E00E947F04CBE4D0E0D093BE06C093AB
:1017D000BD0680E190E09093C0068093BF0688E646
:1017E00091E00E94030BD093BE06C093BD068EE12C
:1017F00090E09093C0068093BF0681E791E00E943D
:10180000030B8EE490E09093BE068093BD0688E2C1
:1018100090E09093C0068093BF066091360270916D
:10182000370290E080E04AE00E94B50A0E9462041C
:1018300083EA92E190930201809301016CE271E0EE
:1018400080E090E0DF91CF911F910F910C942E07D3
:101850000E94A70883FD0C948D0B08950E94FA192D
:10186000CF92DF92EF92FF92CF9380911C029091E2
:101870001D02019631F480911A0290911B0201968B
:1018800011F18FE1C82ED12CE12CF12C0E94BA1855
:10189000A70196010E945D19862FC62F0E945E0A3D
:1018A0008111F4CF21E02C0FE2E1F2E090E080E042
:1018B000422F022E000C550B319131110AC08E5E61
:1018C0009D4FFC012083CF91FF90EF90DF90CF9050
:1018D000089534171506B9F301968830910561F71C
:1018E000F2CF2F923F924F925F926F927F928F92A0
:1018F0009F92AF92BF92CF92DF92EF92FF920F939F
:101900001F93CF93DF93CDB7DEB760970FB6F894F0
:10191000DEBF0FBECDBF0E9414051092C00610920C
:10192000BF061092BE061092BD068091B706809346
:10193000B8060E94A7088093B70680910C02909188
:101940000D0224E630E0B9010E94CC19F62EE62EF5
:1019500080910A0290910B02B9010E94CC198B016F
:10196000D0900902D110E5C528E0260F2B832F0D5A
:101970002C8335E33F193D83809107029091080243
:101980009F838E830E94A7085801BB2483FF0DC04C
:1019900093E39E1550F0AF2DEB81AE0FBB27BB1F1D
:1019A000A038B10564F0D110C9C50E94A70885FD13
:1019B0006CC00E94A70886FD9AC0198229C0FB81CD
:1019C000EF1610F0D110F1CF80910602882321F09C
:1019D000809105028111E9CF809103029091040268
:1019E000880F991F20910C0230910D02AC01420F1B
:1019F000531F4130524320F080E092E3821B930B4F
:101A0000820F931F90930D0280930C0281E08983D3
:101A10002091090281E0282780910C0290910D020B
:101A2000E4ECF0E0892B11F4ECEBF0E030E8A316E5
:101A3000B10408F096C030E8301B48E7A416B104A2
:101A400008F438E0211137968501025B1A4F60E0F7
:101A5000361709F486C08491882379F0A0E18A9F23
:101A6000C0011124D8014C91842B8C93A8014058BB
:101A70005F4FDA018C91892B8C93222309F46FC07C
:101A800031976F5F0F5F1F4FE3CFC0900A02D09076
:101A90000B02C114D10409F48CCF909105029983F3
:101AA000911187CFE0900C02F0900D02E114F10447
:101AB00009F07FCFC50104969595879595958795F3
:101AC0000E945E0A882309F474CF809103029091EA
:101AD0000402C816D90618F07601E81AF90AF0923D
:101AE0000B02E0920A0281E08093090291CFE0901C
:101AF0000A02F0900B02A0EEEA16AEE2FA0608F037
:101B00005CCFB0910502B983B11157CF80910C021F
:101B100090910D02892B09F07BCFC5010896959510
:101B20008795959587950E945E0A882309F470CF62
:101B300080910302909104029701280F391F213EE2
:101B40003E4220F080EE9EE28E199F09E80EF91EBB
:101B5000F0920B02E0920A021092090259CF3196DC
:101B600090CF8091B80683FD37C08091B70683FF80
:101B700033C0809171008D7F809371001092250297
:101B80008EE996E0909324028093230290932102A1
:101B90008093200286E091E890939F0680939E06B2
:101BA0008EE190E09093A1068093A00628E831E0B2
:101BB0003093A3062093A2069093A5068093A406D3
:101BC0002BE032E03093A7062093A6069093A90657
:101BD0008093A8060E94FA0723EBE22E21E0F22E62
:101BE000FD81EF2FF0E0F987E88795012E5F3F4FE9
:101BF0003B872A873EE9232E36E0332E42E3842EAC
:101C0000912C9C81892F90E09D878C87D701149619
:101C10002C911497222309F410C23C9112968D91B5
:101C20009C911397830F911D37FD9A9513969C9362
:101C30008E93129764E670E00E94E019788B6F87AC
:101C4000F701818108E020FD3DC128E04CEA50E029
:101C5000082E000C990B0E947F0443E0688579856B
:101C60008F8598890E94080A882309F45BC0D701F0
:101C700011968C9142E06C857D85082E000C990BA5
:101C80000E94080A882309F44DC0B981BB2309F4D6
:101C900049C0809171008D7F809371001092250260
:101CA00030922402209223023092210220922002BC
:101CB0008BE092E890939F0680939E069092A106F7
:101CC0008092A00680E193E09093A3068093A20601
:101CD0009092A5068092A40680E090E89093A706D3
:101CE0008093A6060E94FA07F70122813381809132
:101CF000070290910802213AFFE03F070CF4E8C088
:101D0000C2969093080280930702D70114968C9193
:101D1000823009F4EDC01CF085300CF4ECC0F70102
:101D200014821982D70112968D919C918037B7E168
:101D30009B070CF405C1F7011482F181FE87F7FFC0
:101D400002C0FD5FFE872E85259525952F5F2E8786
:101D5000822F0E945E0A813041F460E08E850E94ED
:101D6000180A61E08E850E94180AD70111968C919D
:101D700048E06A857B85082E000C990B0E94080AB2
:101D8000882309F4E1C0E8E2FCE0F0930201E0936B
:101D900001010E9462042CE130E0388B2F8706E0BD
:101DA00010E040E0B8018F8598890E94B6080F5F67
:101DB0001F4F0E331105A9F78F8598890196988BCF
:101DC0008F878038910559F78CE190E00E94D40804
:101DD000AEE1B0E0B093BE06A093BD06E8E0F0E04F
:101DE000F093C006E093BF068BE791E00E94030BDF
:101DF0002EE130E03093BE062093BD0684E190E0F2
:101E00009093C0068093BF0660910702709108020C
:101E100090E080E04AE00E94B50A209107023091EC
:101E20000802809136029091370282179307D0F40E
:101E300087E092E00E94920A809107029091080246
:101E40009093370280933602AEE1B0E0B093BE06C5
:101E5000A093BD06B093C006A093BF0685E891E0AD
:101E60000E94030B809171008D7F8093710010920E
:101E700025023092240220922302309221022092E5
:101E80002002E6E0F1E8F0939F06E0939E06909230
:101E9000A1068092A00684EC90E89093A30680931C
:101EA000A20624E630E03093A5062093A40680E045
:101EB00090E89093A7068093A6060E94FA070E94D6
:101EC000620442C028E040EB50E06F857889C0CEC4
:101ED000213649E034071CF08C599F4F12CF293E20
:101EE00033401CF08C509E4F0CCF88519C4F09CF33
:101EF0000E94300C14CF0E94300C0E94300C0E94C3
:101F0000300C0E94300C0E94300C0E94300C0E9459
:101F1000300C0E94300C8091070290910802E3EB94
:101F2000F1E02481222311F01482C2963596B2E0AA
:101F3000E330FB07B1F79093080280930702EFCEDE
:101F4000883893410CF011CFD70114968C911497D7
:101F5000833009F06BC084E014968C93B5E0EB0EEF
:101F6000F11CE3E0EE16E2E0FE0609F04FCE8091B0
:101F7000B1019091B20101979093B2018093B101A8
:101F80002BE931E03987288788248394AAE1EA2E57
:101F9000A2E0FA2EB4E2DB2E15E0C12E07E0B02E4F
:101FA0008AE0A82E96E0992EA885B98511961C91F5
:101FB000112309F4B1C115303CF5123009F4C8C041
:101FC0000CF0BEC0113009F4C9C03A81632F70E033
:101FD000685F7F4FA885B9858C9108E028E04CEABE
:101FE00051E0B4E08B02C00111240E947F04809173
:101FF0009A016A2D0E94C019911106C0442443948D
:10200000410EE885F9854182A885B98511968C91A4
:102010001197853009F0A5C060E08C910E94180AE4
:10202000E885F9859182F4E3FA83A1C0843009F050
:1020300095CF83E0F701848391CF8091B101909196
:10204000B201892B09F08ACF0E94BA1823E630E04A
:1020500040E050E00E945D196F5F82E06F300CF449
:102060006BC08091AF019091B001833E944008F421
:1020700062C064310CF05FC083E0F70184830E948A
:10208000BA1828E730E040E050E00E945D19F701FF
:10209000618313821282A090AD01B090AE01C501A0
:1020A0000396B0E0A0E0F3E0AF1AB1082501712C6F
:1020B000612C481659066A067B069CF45C016D018A
:1020C000A418B508C608D70841F00E94BA18A6019E
:1020D00095010E945D195B016C014A0C5B1C6C1C34
:1020E0007D1CD7014C924090AB015090AC01A201F5
:1020F000465F5F4F70E060E0712C612C441655061E
:10210000660677069CF45A016B01A418B508C60848
:10211000D70841F00E94BA18A60195010E945D19E6
:102120005B016C014A0C5B1C6C1C7D1C5092B20163
:102130004092B10113CF81E0D70114968C939FCFC9
:10214000133049F0143009F040CFF0E3FA833DCF6B
:10215000B8E1BA833ACFE8E2EA8337CF22E02A83B4
:1021600034CF863009F4C2C0873009F4CDC03A813B
:10217000632F70E0A885B9858C91B4E08B02C00113
:10218000112408E028E044EB50E002970E947F040D
:10219000288539852E5F3F4F398728872B5A314054
:1021A00009F002CF80911202882329F0809100016A
:1021B0008150809300011986188688850E945E0AE6
:1021C000813009F0C5C008E028E04CEA51E06CE33A
:1021D00070E088859985880F991F880F991F0E9444
:1021E0007F0488859985019699878887809729F744
:1021F00080910C0290910D02892B09F42FC1BD81B1
:10220000AB2FB0E0B987A887EC810E2F10E0FB81DF
:102210008F2F90E06D0125E3C21AD108D7FE03C0CD
:10222000D194C194D1084801881A990A97FE03C035
:1022300091948194910835E3E32EF12C8C149D0444
:102240004CF03885298519870887032F122F7C01C8
:1022500085E390E0A885B985AE15BF055CF0302F09
:10226000212F8C01832F922F38852985F986E886C6
:10227000E32EF22E1701E885F9852E1A3F0A2C016C
:10228000401A510A57FE03C051944194510831013C
:1022900037FE03C0FFEF6F1A7F0A75946794081723
:1022A00019070CF06BC081E0A82E880FBB082885A9
:1022B0003985E216F3060CF463C041E0B901C801A8
:1022C0008C149D041CF0B801888599850E94B6087D
:1022D0006418750877FE04C00A0D1B1D620C731C80
:1022E00088859985019699878887E1CF80919A01A1
:1022F0006C2D0E94C01991110CC0A885B98511964A
:10230000BC92B8E2BA8333CFE885F9851182FAE04E
:102310008BCE28E22A832BCF80911202882309F4E6
:1023200037CF90910001911133CFE885F9858182F3
:1023300081508083E2E1F2E08191DF0112978C937A
:10234000EE16FF06C9F710921902D092000120CFB5
:10235000823009F046CF08E028E040EB51E06CE322
:1023600070E088859985880F991F880F991F0E94B2
:102370007F0461E088850E94180A33CF8FEF94CFE5
:102380009981911111C080910C0290910D02883CAD
:10239000910508F460C0885C910990930D028093C8
:1023A0000C0281E080930502A981A093060280912E
:1023B0009A018F5F80939A011092BE061092BD061B
:1023C0001092C0061092BF068091070290910802F9
:1023D000EE81FF818E179F0709F459C04AE064E936
:1023E00071E00E941219A0910702B0910802609159
:1023F000AF017091B0018091AB019091AC0120913F
:10240000AD013091AE0140910302509104020EE102
:1024100010E0A617B70758F1FC01FC97803591052D
:1024200010F0E4E1F0E08E1B9F0BF90131967597F7
:10243000C0F0E4E1F0E0E21BF30B2E0F3F1FFA01C6
:1024400031967F9788F0F801E41BF50B4E0F5F1F64
:102450006C507E4FDECF90E080E09FCF109205025F
:10246000A3CFE1E0F0E0E9CFE1E0F0E0EFCF50937F
:102470000402409303027093B0016093AF01309364
:10248000AE012093AD019093AC018093AB0184E940
:1024900091E00E94030B0E9462048FB7F894409170
:1024A0002D0250912E0260912F02709130028FBF49
:1024B0008091BA06F42FF81B8F2F9091BB069923B9
:1024C000E9F0F093BC061092BB0660960FB6F89444
:1024D000DEBF0FBECDBFDF91CF911F910F91FF9057
:1024E000EF90DF90CF90BF90AF909F908F907F90B4
:1024F0006F905F904F903F902F9008959091B90604
:10250000F91740F48F5F891700F781E083BF889542
:1025100013BEDBCF81E08093BB064093BA06809167
:10252000B5069091B60601969093B6068093B506CF
:10253000CCCF262F2F192C836B831BCA3B81E3162C
:1025400008F442CA32CA0E94A70883FF6BC081E721
:102550009CE0909302018093010188EC90E09093BD
:102560000B0280930A0210920D0210920C0210923C
:1025700005028FEF9FEF90931D0280931C029093B2
:102580001B0280931A0210921102109210021092F4
:102590000F0210920E028CE291E09093AC018093B6
:1025A000AB0188E090E09093AE018093AD01109272
:1025B0000802109207028AEF90E09093B001809396
:1025C000AF018AE090E0909304028093030261E9F6
:1025D00071E084E991E00E94FF1990E080E025E03D
:1025E000289FF001299FF00D1124ED54FE4FDF01CB
:1025F000322F1D923A95E9F701968031910581F7C6
:10260000A2E1B2E0EBE9F1E01D9210821182329674
:1026100082E0AA31B807C1F76CE271E080E090E097
:102620000C942E070E94A70887FF05C00E94A708E8
:1026300082FD0C94100B08951F920F920FB60F920B
:1026400011248F939F938091E1009091E100937FFB
:102650009093E10083FF0FC01092E90091E0909306
:10266000EB001092EC0092E39093ED0010924D027B
:1026700098E09093F00082FF22C093E09093E900ED
:102680009091F200992319F09AE39093E8009091C9
:102690003E02992341F090913E02915090933E0268
:1026A000911101C05D9A90914C02992341F0909153
:1026B0004C02915090934C02911101C0289A84FFD2
:1026C00018C08091E2008E7E81608093E20080914C
:1026D000E1008F7E8093E10080913F028E7E8061D9
:1026E00080933F029F918F910F900FBE0F901F908C
:1026F000189580FFF7CF8091E2008E7E80618093F5
:10270000E2008091E1008E7E8093E10080913F02A3
:102710008E7E8160E5CF1F920F920FB60F9211242B
:10272000CF92DF92EF92FF920F931F932F933F93DD
:102730004F935F936F937F938F939F93AF93BF93C9
:10274000EF93FF93CF93DF93CDB7DEB76C97DEBFE8
:10275000CDBF1092E9008091E80083FF25C068E0BA
:10276000CE0145960E94CF0682EF8093E8008D89C6
:1027700087FF39C09091E80090FFFCCF982F9076AA
:1027800009F034C19E894F89588D2F89F88C911199
:1027900031C0803861F580913D028093F100109244
:1027A000F1008EEF8093E8006C960FB6F894DEBFD0
:1027B0000FBECDBFDF91CF91FF91EF91BF91AF9150
:1027C0009F918F917F916F915F914F913F912F9149
:1027D0001F910F91FF90EF90DF90CF900F900FBE61
:1027E0000F901F9018959EEF9093E800C7CF10921E
:1027F000F100D5CF913059F48111D3CF413051053B
:1028000081F680913D028D7F80933D02CACF933047
:1028100049F48111C6CF4130510519F680913D022E
:102820008260F2CF953041F48091E80080FFFCCFC8
:1028300020682093E300B5CF963009F0A9C00B8D36
:102840001C8D22E01092E90010923B0210923A0295
:10285000F2122EC010923902109238020E949E0687
:102860001F8299E09983FA8291E09E8390EA98878B
:102870009AEF998720913A0230913B02275F3F4FB0
:102880003C832B838D831092E90010923B021092BF
:102890003A02109339020093380249E050E0BE0139
:1028A0006F5F7F4F80E00E9478060E949E0679CF7E
:1028B00010933902009338020E948205DC011296BF
:1028C0000D911C910115110509F451C1D801ED912B
:1028D000FC910480F581E02DBE016B5E7F4FC80145
:1028E0000995009709F03EC1F80100851185EACFEE
:1028F000F3E0FF120EC08F89882309F440C08230B4
:1029000061F440E867E080E698E00E9445068111A6
:1029100048CF81E28093EB0047CF813029F440E833
:102920006BE084E598E0F1CF833099F70E9482054F
:10293000DC011296ED90FC908E010F5F1F4F680135
:10294000E114F10479F0D701ED91FC910680F78153
:10295000E02DB801C7010995080F111DF701E084AA
:10296000F184EECFD8011C92F60101900020E9F726
:102970003197BF016C197D0940E0C601C6CF6EE3F7
:1029800078E0FB01449150E080E80E94780609CF8E
:10299000973009F4BECF983021F481E08093F100A4
:1029A00000CF993009F0FDCE837009F0B2CFE4E199
:1029B000F1E081E031E096E32191222371F08093F0
:1029C000E9003093EB00DF0111972C912093EC008C
:1029D0009093ED008F5F873079F78EE78093EA0060
:1029E0001092EA008F8980934D02DBCE8B8D9C8DF7
:1029F0001092E90010923B0210923A029093390231
:102A000080933802898D811192C08E899D89913A77
:102A100049F4813209F07DCF47E050E067E071E092
:102A200080E0B3CF913209F074CF833269F48F899B
:102A3000988DB0E0A0E08093030190930401A093EF
:102A40000501B0930601ADCE803269F48091E800B3
:102A500082FFFCCF67E087E091E00E94CF068BEF1A
:102A60008093E8009ECE823209F09BCE8F898093BE
:102A70000E01EEEFFFE7859194918B3F9C4D51F154
:102A8000E0E0F8E08091070190910801A091090130
:102A9000B0910A01803B9440A105B105F1F4809109
:102AA0000E0180FD1AC0EE3F8AE0F80789F587E73E
:102AB00097E7918380838091600080933C0288E156
:102AC0009BE00FB6F894A895809360000FBE90939A
:102AD000600067CEEEEFFAE0D5CF80819181873735
:102AE000974709F05ECEA895809160008861809339
:102AF000600080913C0280936000EE3F2AE0F20784
:102B000089F08091FE0A9091FF0A9183808349CEDB
:102B1000808191818737980751F29093FF0A8093C3
:102B2000FE0AC5CF1092FF0A1092FE0A3ACE0E940A
:102B30008205DC0112960D911C910115110509F415
:102B4000E8CED801ED91FC910190F081E02DBE011D
:102B50006B5E7F4FC8010995811123CEF801008576
:102B60001185EBCF181619060CF41BCED2CEF1E06E
:102B7000FF12BECE62E478E004CF1F920F920FB630
:102B80000F9211242F933F938F939F93AF93BF93F3
:102B900080912D0290912E02A0912F02B0913002CF
:102BA00030912C0223E0230F2D3758F50196A11DFB
:102BB000B11D20932C0280932D0290932E02A0939E
:102BC0002F02B09330028091310290913202A09195
:102BD0003302B09134020196A11DB11D80933102E0
:102BE00090933202A0933302B0933402BF91AF911D
:102BF0009F918F913F912F910F900FBE0F901F903B
:102C0000189526E8230F0296A11DB11DD2CF1F9261
:102C10000F920FB60F9211242F933F934F935F9310
:102C20006F937F938F939F93AF93BF93EF93FF9394
:102C30008091280290912902A0912A02B0912B0242
:102C4000892B8A2B8B2B09F440C08091270281119C
:102C50000BC088B190E4892788B980912602882327
:102C600019F08BB180588BB980912802909129027C
:102C7000A0912A02B0912B02181619061A061B06FB
:102C80009CF48091280290912902A0912A02B0918F
:102C90002B020197A109B109809328029093290280
:102CA000A0932A02B0932B02FF91EF91BF91AF91B5
:102CB0009F918F917F916F915F914F913F912F9154
:102CC0000F900FBE0F901F9018950E94FA07ECCF3F
:102CD0000F931F93CF93DF938C0181E090E00E94CC
:102CE000B30A80FF31C08AE090E00E94B30A9FEFF0
:102CF000980F9E3F48F522E330E0D80150963C9370
:102D00002E931F9728E330E052963C932E935197D1
:102D1000CBE0D0E0D801ED91FC910190F081E02D65
:102D2000682FC8010995CE010E94B30A2196C131CE
:102D3000D10581F70E94620488EE93E0DF91CF9184
:102D40001F910F910C94A208DF91CF911F910F91C9
:102D5000089504970C946816EEE4F6E0138212824C
:102D600088EE93E0A0E0B0E084839583A683B783E8
:102D70008EE191E0918380838FEF9FEF9587848729
:102D8000EEEAF6E0138212821186128680E18387D2
:102D900010861782158680E391E0918380838EE30D
:102DA00091E095838483108A1786128A118A81E0C4
:102DB000838B148A858B168A8FE594E09093AD06F9
:102DC0008093AC0680E090E89093AB068093AA06CF
:102DD00046983E9A5F98579A0895789484B5826091
:102DE00084BD84B5816084BD85B5826085BD85B5AF
:102DF000816085BD80916E00816080936E0010922D
:102E000081008091810082608093810080918100A7
:102E10008160809381008091800081608093800038
:102E200080919100826080939100809191008160F7
:102E300080939100809190008160809390008091B8
:102E4000C10084608093C1008091C1008260809342
:102E5000C1008091C10081608093C1008091C30056
:102E600081608093C3008091C00082608093C00025
:102E70008091C20081608093C20080917A0084605A
:102E800080937A0080917A00826080937A008091AA
:102E90007A00816080937A0080917A0080688093C4
:102EA0007A0010924D0210923D0210923F028091E2
:102EB000D70081608093D70080EA8093D80089B5DD
:102EC000806189BD89B5826089BD09B400FEFDCFEE
:102ED00061E070E080E090E00E942E078091D800D1
:102EE0008F7C80618093D8008091E000807F809308
:102EF000E0008091E1008E7E8093E1008DE0809380
:102F0000E200559A209A81EC80937C0081E785B994
:102F100087E684B985E38BB98FE38AB9769A6E9890
:102F200080EF81BB10BA80E58CBDC1E0CDBD85E0EE
:102F300090E00E94A208599902C0599AF8CF5C9873
:102F4000E4EBF6E09AE085910E94AF089A95D9F7F4
:102F50005C9A81E880936400C0936500C0E2D4E08D
:102F600080E00E94AF082197D9F70E94A70887FF49
:102F700012C05C9885EA0E94AF085C9A2E98589817
:102F80002D988091640080628093640081E083BF0B
:102F9000889513BEFCCF0E94A70882FF46C02D98DB
:102FA0000E94A70884788438D9F42D9A88EC90E0A0
:102FB0000E94A208589882E090E00E9447198F3F33
:102FC00029F06FEF82E090E00E944F1984EF91E0CA
:102FD0000E94A208589A0E94A70884788438D9F3DE
:102FE0000E94A70884718431D9F42D9A88EC90E06E
:102FF0000E94A2082E9882E090E00E944719882340
:1030000029F060E082E090E00E944F1984EF91E0A7
:103010000E94A2082E9A0E94A70884718431D9F3D5
:1030200088EC90E00E94A208B6CF2D9A82E090E052
:103030000E94B30A882309F449C03E9A579A81E056
:10304000809335020E9414051092C0061092BF06AC
:103050001092BE061092BD0602E12AE64EEB56E043
:1030600068E170E08CE090E00E947F040E946204BE
:1030700060ED77E080E090E00E942E0782E390E030
:103080000E94A2080E94A7088111F8CF82E190E077
:103090000E94B30A8230F9F480E190E00E9447195F
:1030A0008093360281E190E00E94471980933702B5
:1030B0000E948D0BC0E0D0E0E0910101F09102018F
:1030C00009952097C9F30E940000F6CF10923502AF
:1030D0003E985798B7CF0E94100BECCF8F929F92DB
:1030E000AF92BF92CF92DF92EF92FF92CF93DF9396
:1030F000EC01688179818A819B8161157105810567
:10310000910521F464E279ED8BE597E02DE133EF51
:1031100041E050E00E945D1949015A019B01AC0158
:10312000A7EAB1E40E947C196B017C01ACEEB4EF1C
:10313000A50194010E948A19C60ED71EE81EF91E29
:10314000F7FE06C081E0C81AD108E10880E8F80A55
:10315000C882D982EA82FB82C701B6019F77DF91DC
:10316000CF91FF90EF90DF90CF90BF90AF909F9066
:103170008F9008958F929F92AF92BF92CF92DF92DD
:10318000EF92FF9260910F017091100180911101F7
:1031900090911201611571058105910521F464E298
:1031A00079ED8BE597E02DE133EF41E050E00E94AF
:1031B0005D1949015A019B01AC01A7EAB1E40E94E3
:1031C0007C196B017C01ACEEB4EFA50194010E9467
:1031D0008A19C60ED71EE81EF91EF7FE06C081E04A
:1031E000C81AD108E10880E8F80AC0920F01D0920D
:1031F0001001E0921101F0921201C701B6019F7710
:10320000FF90EF90DF90CF90BF90AF909F908F9006
:10321000089560930F0170931001809311019093B2
:1032200012010895BB274A3031F4992322F4BDE2FC
:10323000909581959F4F0C941E19BB27FB01552734
:10324000AA27880F991FAA1FA41710F0A41B839503
:103250005051B9F7A05DAA3308F0A95DA19300977A
:1032600079F7B111B1931192CB010C943719DC01AC
:10327000FC01672F71917723E1F7329704C07C91AD
:103280006D9370836291AE17BF07C8F30895F999E3
:10329000FECF92BD81BDF89A992780B50895262F5B
:1032A000F999FECF1FBA92BD81BD20BD0FB6F8942B
:1032B000FA9AF99A0FBE01960895052E97FB1EF40F
:1032C00000940E94741957FD07D00E948F1907FCC3
:1032D00003D04EF40C947419509540953095219577
:1032E0003F4F4F4F5F4F0895909580957095619532
:1032F0007F4F8F4F9F4F08950E94B119A59F900D4A
:10330000B49F900DA49F800D911D11240895B7FFC7
:103310000C947C190E947C19821B930B0895A1E2E6
:103320001A2EAA1BBB1BFD010DC0AA1FBB1FEE1F3F
:10333000FF1FA217B307E407F50720F0A21BB30B8A
:10334000E40BF50B661F771F881F991F1A9469F706
:1033500060957095809590959B01AC01BD01CF0162
:103360000895A29FB001B39FC001A39F700D811D5E
:103370001124911DB29F700D811D1124911D08957E
:10338000991B79E004C0991F961708F0961B881FB7
:103390007A95C9F780950895AA1BBB1B51E107C018
:1033A000AA1FBB1FA617B70710F0A61BB70B881FD5
:1033B000991F5A95A9F780959095BC01CD01089564
:1033C00097FB072E16F4009407D077FD09D00E94D2
:1033D000CC1907FC05D03EF4909581959F4F089538
:1033E000709561957F4F0895EE0FFF1F0590F49142
:1033F000E02D099481E090E0F8940C94061AFB010A
:10340000DC0101900D920020E1F70895F894FFCFC0
:103410000FA312FFFFFFFF00E1000000000000010A
:1034200000000000C180810000000000000096053F
:103430006107B705AC05FD05BB05D9050000000017
:103440000109DC06050A040A6816FCFF0000A9163B
:1034500041206E657720736176652066696C650032
:1034600077617320637265617465642E00507265C4
:10347000737320412E2E2E005072657373204121EC
:103480000048492053434F52453A0047414D45209B
:103490004F564552004E4557205245434F52442106
:0434A00000300000F8
:00000001FF
