:100000000C9419040C9441040C9441040C94410484
:100010000C9441040C9441040C9441040C9441044C
:100020000C9441040C9441040C94D00C0C943F0D9E
:100030000C9441040C9441040C9441040C9441042C
:100040000C9441040C9482100C9441040C944104CF
:100050000C9441040C9441040C9441040C94710FD1
:100060000C9441040C9441040C9441040C944104FC
:100070000C9441040C9441040C9441040C944104EC
:100080000C94BB0F0C9441040C9441040C94410457
:100090000C9441040C9441040C9441040C944104CC
:1000A0000C9441040C9441040C94410400000000A1
:1000B000003E5B4F5B3E3E6B4F6B3E1C3E7C3E1CEE
:1000C000183C7E3C181C577D571C1C5E7F5E1C0034
:1000D000183C1800FFE7C3E7FF0018241800FFE7EB
:1000E000DBE7FF30483A060E2629792926407F05AE
:1000F0000507407F05253F5A3CE73C5A7F3E1C1CC4
:1001000008081C1C3E7F14227F22145F5F005F5F83
:1001100006097F017F006689956A6060606060946F
:10012000A2FFA29408047E040810207E2010080874
:100130002A1C08081C2A08081E101010100C1E0C7F
:100140001E0C30383E3830060E3E0E060000000011
:100150000000005F00000007000700147F147F14F8
:10016000242A7F2A1223130864623649562050003D
:1001700008070300001C2241000041221C002A1C29
:100180007F1C2A08083E0808008070300008080814
:100190000808000060600020100804023E51494534
:1001A0003E00427F400072494949462141494D3352
:1001B0001814127F1027454545393C4A49493141B9
:1001C000211109073649494936464949291E000087
:1001D00014000000403400000008142241141414DC
:1001E0001414004122140802015909063E415D59C8
:1001F0004E7C1211127C7F494949363E41414122D1
:100200007F4141413E7F494949417F090909013EFA
:10021000414151737F0808087F00417F4100204021
:10022000413F017F081422417F404040407F021C33
:10023000027F7F0408107F3E4141413E7F0909094A
:10024000063E4151215E7F09192946264949493216
:1002500003017F01033F4040403F1F2040201F3FDC
:100260004038403F63140814630304780403615961
:10027000494D43007F4141410204081020004141A3
:10028000417F04020102044040404040000307084F
:100290000020545478407F2844443838444444284B
:1002A000384444287F385454541800087E090218F2
:1002B000A4A49C787F0804047800447D400020407A
:1002C000403D007F1028440000417F40007C0478BE
:1002D00004787C080404783844444438FC18242406
:1002E0001818242418FC7C08040408485454542486
:1002F00004043F44243C4040207C1C2040201C3C03
:100300004030403C44281028444C9090907C4464F9
:10031000544C44000836410000007700000041368C
:10032000080002010204023C2623263C1EA1A16112
:10033000123A4040207A3854545559215555794144
:100340002154547841215554784020545579400C1B
:100350001E527212395555555939545454593955FC
:100360005454580000457C410002457D420001453F
:100370007C40F0292429F0F0282528F07C545545AC
:10038000002054547C547C0A097F4932494949323F
:100390003248484832324A4848303A4141217A3A54
:1003A00042402078009DA0A07D39444444393D401E
:1003B00040403D3C24FF2424487E4943662B2FFCCB
:1003C0002F2BFF0929F620C0887E09032054547979
:1003D000410000447D413048484A32384040227A4A
:1003E000007A0A0A727D0D19317D2629292F2826C7
:1003F0002929292630484D402038080808080808CF
:100400000808382F10C8ACBA2F102834FA00007B27
:10041000000008142A142222142A1408950022002D
:1004200095AA005500AAAA55AA55AA000000FF00E7
:10043000101010FF00141414FF001010FF00FF1024
:1004400010F010F0141414FC001414F700FF000056
:10045000FF00FF1414F404FC141417101F10101FD5
:10046000101F1414141F00101010F0000000001FC3
:10047000101010101F10101010F010000000FF10CE
:100480001010101010101010FF10000000FF1400CA
:1004900000FF00FF00001F10170000FC04F41414FC
:1004A0001710171414F404F40000FF00F7141414C8
:1004B00014141414F700F7141414171410101F1048
:1004C0001F141414F4141010F010F000001F101F6B
:1004D0000000001F14000000FC140000F010F010D9
:1004E00010FF10FF141414FF141010101F00000050
:1004F00000F010FFFFFFFFFFF0F0F0F0F0FFFFFF54
:100500000000000000FFFF0F0F0F0F0F38444438AA
:10051000447C2A2A3E147E02020606027E027E02E5
:1005200063554941633844443C04407E201E200604
:10053000027E020299A5E7A5991C2A492A1C4C7241
:1005400001724C304A4D4D303048784830BC625AC8
:10055000463D3E494949007E0101017E2A2A2A2A58
:100560002A44445F444440514A444040444A514034
:100570000000FF0103E080FF000008086B6B0836F5
:1005800012362436060F090F060000181800000066
:100590001010003040FF0101001F01011E00191D55
:1005A0001712003C3C3C3C00000000000601150115
:1005B000260137014A015D01720188019F01B801DE
:1005C000D201EE010B022A024B026E029302BA0222
:1005D000E40210033F037003A403DC031704550473
:1005E0009704DD0427057505C80520067D06E0068D
:1005F0004907B8072D08A9082D09B9094D0AEA0AC3
:10060000900B400CFA0CC00D910E6F0F5A10531145
:100610005B1272139A14D41520178018F519801BD9
:10062000231DDE1EB420A622B524E4263429A72BE0
:10063000402E0031EA330037453ABC3D68414C4515
:100640006B49C84D68524F57805C006210111213FD
:10065000151617181A1C1D1F21232527292C2E318A
:1006600034373A3E4145494E52575C62686E757B5D
:10067000838B939CA5AFB9C4D0DCE9F700000002DE
:1006800000090F0000030401000C0000000000003E
:10069000000000000000000000000000000000005A
:1006A000000000000018BCFEC6C2C2C6FE3C00FC32
:1006B000FEC6C2C2C6FE3C0000D8C8002070F8F8D2
:1006C000202000F8FCFEF67E3E3C3800F8FCFEC61A
:1006D000C2C2C6FEFC00FEFEFE0606060CFCF000D2
:1006E000FCFEC6C2C20200000000000000000000C4
:1006F000000000000000000000000000000E1F1FAE
:10070000101010191F0E001F1F181010101D1F06AB
:10071000001F1F0000001F1F1808000F1F1F1F1EB3
:100720001E1E0C000F1F1F000000001F1F001F1FB8
:100730001F1818181C0F03001F1F101010100000A6
:100740000000000000000000000000000000002485
:100750000027002A002D0030008D14A1C881CFD9B8
:10076000F102AF140213021202150207020802047A
:10077000010101020100080B00020202000009044D
:1007800000000102020000052400100105240101FF
:100790000104240206052406000107058103100058
:1007A0004009040100020A0000000705020240009F
:1007B000000705830240000004030904120100023F
:1007C000EF02014041233680000101020301417222
:1007D0006475696E6F204C4C4300414241313130A9
:1007E0003600040802011040804010204080408004
:1007F00008020401804020100201108010204040B7
:100800002000000000250028002B002E00310004ED
:1008100004040404030405020202020403020202A7
:100820000206060606060604040202020404030188
:10083000ED1011241FBECFEFDAE0DEBFCDBF11E017
:10084000A0E0B1E0E2E2FCE302C005900D92A43B1F
:10085000B107D9F728E0A4EBB1E001C01D92A9309F
:10086000B207E1F714E0C9E1D4E004C02197FE012A
:100870000E942C1BC831D107C9F70E9427110C9484
:100880000F1E0C940000CF92DF92EF92FF92CF9355
:10089000DF93EC0181E080939C03E1E8F0E080814C
:1008A000887F81608083DE01AA0FBB1F9A01AB01A4
:1008B0000E94E81A28EE33E040E050E00E94FB1A64
:1008C00069017A019E0150E040E060E072E18AE750
:1008D00090E00E94C91A2150310941095109309311
:1008E000890020938800C0929803D0929903E092E7
:1008F0009A03F0929B03EFE6F0E0808182608083B0
:10090000DF91CF91FF90EF90DF90CF90089590E02E
:10091000E3E0F4E091119FEF8FEF91939193919326
:1009200091938150D0F70895FC0180919003882322
:1009300011F13FB7F89482E08093E9002091F20032
:10094000822F90E01816190614F481E090E08823B5
:1009500039F0289844E640938F034091F10040839A
:10096000222339F02091F200211103C02BE62093BD
:10097000E8003FBF08958FEF9FEF08952FB7F894D9
:1009800083E08093E9009091E800892F807295FFC1
:1009900004C09091F20080E4891B2FBF08958091DC
:1009A000870381110DC082E08093830384E08093EC
:1009B0008403109286031092850381E0809387035D
:1009C00083E893E00895CF93DF931F92CDB7DEB70E
:1009D0006983DC01ED91FC910280F381E02D41E01F
:1009E00050E0BE016F5F7F4F09950F90DF91CF916F
:1009F000089583E08093E9008091F200882319F044
:100A00008AE38093E80008950E94BE0490E0089570
:100A1000CF93DF931F92CDB7DEB7FC018485958518
:100A200097FD08C02FEF3FEF358724870F90DF91A8
:100A3000CF910895CE0101960E949404019719F474
:100A4000898190E0F3CF8FEF9FEFF0CF0F931F934B
:100A5000CF93DF931F92CDB7DEB78C01FC01848565
:100A6000958597FF0BC0CE0101960E9494040197D3
:100A700071F4898190E0F80195878487F801848575
:100A800095850F90DF91CF911F910F9108958FEF72
:100A90009FEFF1CFFC018485958597FD0BC09FB733
:100AA000F89482E08093E9008091F2009FBF90E08B
:100AB000019608959FB7F89482E08093E9008091B1
:100AC000F2009FBF90E0089540917D0350917E0316
:100AD00020917B0330917C0342175307B4F490912B
:100AE000E8009570E1F39091E80092FD19C08093C1
:100AF000F10080917D0390917E0301968F73992779
:100B0000892B19F48EEF8093E80080917D039091FA
:100B10007E03019690937E0380937D0381E0089588
:100B200080E00895EF92FF920F931F93CF93DF938E
:100B3000F82E192FE62E042F81E0860F880F0E94D1
:100B4000640583E00E946405CF2DD12FEC0EFD2EAD
:100B5000F11CCE15DF05B9F007FF13C0FE0184912B
:100B60000E946405182F80E00E946405812321966D
:100B70008111EFCFDF91CF911F910F91FF90EF90F7
:100B800008958881EDCF81E0F5CFDF92EF92FF925B
:100B90000F931F93CF93DF93D82E8A01EB017B0134
:100BA000E40EF51ECE15DF0559F0D7FE12C0FE018A
:100BB00084910E94640521968111F4CF0FEF1FEFFD
:100BC000C801DF91CF911F910F91FF90EF90DF90BF
:100BD00008958881EECF0F931F93CF93DF931F92D9
:100BE000CDB7DEB782E0898342E450E066E777E084
:100BF00080E80E94C5050E94CF04DC0112960D9189
:100C00001C910115110589F0D801ED91FC9102802C
:100C1000F381E02DBE016F5F7F4FC801099597FDFD
:100C200004C0F80100851185ECCF89810F90DF9118
:100C3000CF911F910F910895615030F02091F100F4
:100C4000FC0120830196F8CF289884E680938F03D7
:100C50000895AF92BF92CF92DF92EF92FF920F93DF
:100C60001F93CF93DF936C017B018B01040F151F42
:100C7000EB015E01AE18BF08C017D10759F06991AA
:100C8000D601ED91FC910190F081E02DC60109950E
:100C9000892B79F7C501DF91CF911F910F91FF90BB
:100CA000EF90DF90CF90BF90AF900895282F30E065
:100CB000F901E458F94F9491F901EE51F84F8491FC
:100CC000215F374FF9012491222309F430C0992381
:100CD000E9F091509F30D0F4E92FF0E0EE58F94F51
:100CE0000C942C1BA006A406810698069C0686067A
:100CF00086068606A706AD06B106B506BB068606BD
:100D0000BF06909180009F7790938000E22FF0E0E3
:100D1000EE0FFF1FEF5FF74FA591B4919FB7F894C7
:100D2000EC91611132C080958E238C939FBF089502
:100D3000909180009F7DE8CF90918000977FE4CFD5
:100D400094B59F7794BDE2CF94B59F7DFBCF9091F2
:100D500090009F7790939000D9CF909190009F7DC5
:100D6000F9CF90919000977FF5CF9091C0009F7739
:100D70009093C000CBCF9091C0009F7DF9CF909110
:100D8000C200977F9093C200C1CF8E2BCECFCF935E
:100D9000DF9390E0FC01EE51F84F2491815F974F73
:100DA000FC0184918823C9F090E0880F991FFC0111
:100DB000E55BF84FA591B491FC01EF5FF74FC5914A
:100DC000D49161110DC09FB7F8948C912095822326
:100DD0008C938881282328839FBFDF91CF9108952A
:100DE000623051F49FB7F8943C91822F8095832311
:100DF0008C93E8812E2BEFCF8FB7F894EC912E2BAC
:100E00002C938FBFEACF1F93CF93DF93182FEB0163
:100E100061E00E94C706209739F460E0812FDF91DE
:100E2000CF911F910C945606CF3FD10511F461E08C
:100E3000F5CFE12FF0E0E458F94FE491E150EF30C5
:100E400008F07FC0F0E0E95DF84F0C942C1B3607EA
:100E50003E0743074D075707A107A107A1076107F1
:100E60006B0775077F078C07A107940784B5806817
:100E700084BDC7BDDF91CF911F91089584B5806275
:100E800084BDC8BDF7CF80918000806880938000CA
:100E9000D0938900C0938800EDCF8091800080625C
:100EA00080938000D0938B00C0938A00E3CF809121
:100EB0008000886080938000D0938D00C0938C0068
:100EC000D9CF80919000806880939000D093990052
:100ED000C0939800CFCF8091900080628093900063
:100EE000D0939B00C0939A00C5CF809190008860FA
:100EF00080939000D0939D00C0939C00BBCF8091C5
:100F0000C00080688093C0008091C0008F7B809378
:100F1000C000C093CF00AECF8091C00080628093AC
:100F2000C000C093D000A6CF8091C200886080939B
:100F3000C2008091C2008B7F8093C200C093D20018
:100F400099CFC038D1050CF072CF67CF3FB7F89476
:100F50008091BE019091BF01A091C001B091C101EB
:100F600026B5A89B05C02F3F19F00196A11DB11D04
:100F70003FBFBA2FA92F982F8827BC01CD01620F40
:100F8000711D811D911D42E0660F771F881F991FFB
:100F90004A95D1F708958F929F92AF92BF92CF92C8
:100FA000DF92EF92FF926B017C010E94A6074B013A
:100FB0005C01C114D104E104F104B9F00E94A60758
:100FC000681979098A099B09683E73408105910572
:100FD00080F321E0C21AD108E108F10888EE880EFA
:100FE00083E0981EA11CB11CE4CFFF90EF90DF902E
:100FF000CF90BF90AF909F908F9008958F929F92C7
:10100000AF92BF92CF92DF92EF92FF920F931F9316
:10101000CF93DF936C017B018A0180910D018823BE
:1010200009F45CC080919003882309F457C0809133
:10103000820380FF05C08091E00082608093E00021
:10104000E801B12C8AEFA82E93E0892E2AE3922E94
:10105000209711F4BB20D9F10E94BE0481110AC06F
:10106000AA94AA20D9F161E070E080E090E00E94AB
:10107000CB07EECF8C171D0611F00CF08C2F9FB70D
:10108000F8948092E9002091E80025FD02C09FBFFE
:10109000DFCF282F30E0C21BD30BF701815020F0A7
:1010A00041914093F100FACFE20EF31EBB2021F0F4
:1010B0009092E800B12CEBCF8091E80085FDE7CF5E
:1010C0009092E800BB24B394209709F3F3CF5D9886
:1010D00084E680938103101611063CF081E090E0D5
:1010E000F6019383828310E000E0C801DF91CF9185
:1010F0001F910F91FF90EF90DF90CF90BF90AF9036
:101100009F908F9008958FB18095807F669B8860B7
:101110001C9B84600895E091C501F091C601908107
:101120008091C40180958923808308950F931F9334
:10113000CF93DF93182FD92FC0EB00E10E948B08CB
:10114000CEBD0DB407FEFDCF0EBD0DB407FEFDCF25
:10115000E091C501F091C60180819091C401892B75
:101160008083E12FFD2FCF0180589F4F21912EBD0D
:101170000DB407FEFDCF8E179F07C1F7182FD92F8B
:10118000CF5FC83BD9F6DF91CF911F910F910895A2
:10119000CF92DF92EF92FF920F931F93CF93E82F9E
:1011A000F0E0E25DF74FC491E62FF0E0603398F590
:1011B000E45BF94FE4910E2F10E0F12CE12C60E09C
:1011C00074E284EF90E0A70198010E94C91A2150AF
:1011D00031094109510991E02115310581E04807A4
:1011E00051056CF060E970ED83E090E0A701980193
:1011F0000E94C91A215031094109510993E0C130B7
:1012000089F0C330F9F0CF911F910F91FF90EF90CB
:10121000DF90CF900895EE0FFF1FE45BFA4F05912A
:101220001491CBCF80918100887F892B809381009E
:10123000309389002093880080916F0082608093B2
:101240006F00E1CF80919100887F892B809391007E
:1012500030939900209398001093BC010093BB0138
:1012600081E08093BA018091710082608093710067
:10127000CACFE82FF0E0E25DF74FE491E13019F0DA
:10128000E33089F0089580916F008D7F80936F0027
:1012900080919403E0919503F0919603908180955D
:1012A0008923808308951092BA0180919103E0917F
:1012B0009203F0919303F2CFCF93DF939091970332
:1012C000923081F0C82FE92FF0E0E25DF74FD49122
:1012D0009F5F9093970361E00E94C706D13029F089
:1012E000D33049F1DF91CF91089510928000109290
:1012F00081008091810088608093810080918100CD
:101300008160809381008C2F90E0FC01E15FF74FBA
:10131000E491F0E0EE0FFF1FEF5FF74F259134915E
:1013200030939603209395038E51984FFC0184913E
:1013300080939403D7CF10929000109291008091E7
:1013400091008860809391008091910081608093EA
:1013500091008C2F90E0FC01E15FF74FE491F0E009
:10136000EE0FFF1FEF5FF74F2591349130939303FA
:10137000209392038E51984FFC01849180939103A6
:1013800080919703882321F06CE380E00E94C808D5
:1013900080E0DF91CF910C94390960387105E8F451
:1013A00040345105D0F4342F369536953695A0E863
:1013B0003A9FF0011124E60FF71FE80FF91F348957
:1013C000CA018770992741E050E001C0440F8A9517
:1013D000EAF7222319F0432B448B089540954323C9
:1013E000FBCFEF92FF920F931F93CF93DF937C017C
:1013F0008B01040F111DEB0177FF02C0D0E0C0E0AC
:10140000C8010134110514F080E490E0C817D90731
:101410004CF421E0AE01B7018FEE93E00E94CD09BC
:101420002196EECFDF91CF911F910F91FF90EF901A
:1014300008952F923F924F925F926F927F928F9278
:101440009F92AF92BF92CF92DF92EF92FF920F9353
:101450001F93CF93DF9300D01F92CDB7DEB79B834E
:101460008A837B016A0109838901061B170B17FF19
:1014700003C011950195110956018A819B81A81A13
:10148000B90AB7FE03C0B194A194B108A016B10681
:101490005CF49C2D8D2D6901292F382F9A818B8129
:1014A000FB82EA82E92EF82E8A819B81C816D90632
:1014B0005CF49E2D8F2D7901292F382F9A818B81F5
:1014C000DB82CA82C92ED82E16018A819B81281AF6
:1014D000390A29014E185F0857FE03C05194419400
:1014E0005108310137FE03C09FEF691A790A7594DC
:1014F00067948FEFE216F3060CF481E0882E880FD4
:1015000099088A819B81C816D906DCF02981AC0133
:10151000B701A016B1061CF0A7016A817B818FEE8E
:1015200093E00E94CD096418750877FE04C0E80CAA
:10153000F91C620C731C8A819B8101969B838A83B0
:10154000E0CF0F900F900F90DF91CF911F910F91EF
:10155000FF90EF90DF90CF90BF90AF909F908F90D3
:101560007F906F905F904F903F902F9008957F9263
:101570008F929F92AF92BF92CF92DF92EF92FF92A3
:101580000F931F93CF93DF936C017B01722E8C011D
:10159000040F111DEC0197FF02C0D0E0C0E05E0116
:1015A0004801013811051CF080E8882E912CA81400
:1015B000B9045CF421E0A701B5018FEE93E00E942D
:1015C000CD098FEFA81AB80AEBCF5701A70CB11CB1
:1015D00081E0A81AB108C815D9054CF421E0A5018D
:1015E000BE018FEE93E00E94CD092196F4CF472DE6
:1015F000B701C6010E94F109472DB701C801019743
:10160000DF91CF911F910F91FF90EF90DF90CF90DE
:10161000BF90AF909F908F907F900C94F1092F9284
:101620003F924F925F926F927F928F929F92AF9272
:10163000BF92CF92DF92EF92FF920F931F93CF93BF
:10164000DF93CDB7DEB72D970FB6F894DEBF0FBE90
:10165000CDBF6A3069F5FC01EA5EFB4FDC01A85E94
:10166000BB4F2C9148E0249F90011124408151816F
:10167000240F351F3183208314971D921C922D96C1
:101680000FB6F894DEBF0FBECDBFDF91CF911F9193
:101690000F91FF90EF90DF90CF90BF90AF909F9011
:1016A0008F907F906F905F904F903F902F90089514
:1016B0006D3029F39D878C878C5E9B4F9A8389833D
:1016C000FC01808091802C853D85285E3B4F3C83CA
:1016D0002B8330E8831691040CF071C0EC85FD85F6
:1016E000EA5EFB4F6080718040E4641671040CF088
:1016F00066C0AB81BC814C9045E09401449E200DB6
:10170000311D1124121613060CF059C0242C312C53
:10171000910153E0220F331F5A95E1F7260D371D33
:10172000121613060CF04BC0649FB001112410E098
:1017300000E0FB01E455FF4FFB87EA87E0E005305E
:1017400029F0EA85FB85E00FF11FE491530198E051
:10175000592E2E2F30E03E832D83E170EF83F12C44
:10176000E12CE414D8F4C4018E0D9F1D998788875D
:10177000D12CC12CC41470F4A6014A0D5B1D2F811D
:10178000688579858C859D850E94CD099FEFC91A52
:10179000D90AF0CFAFEFEA1AFA0AE3CFED81FE8162
:1017A000F595E7955A94A20CB31C5110D2CF0F5F58
:1017B0001F4F820C931C0630110509F0BFCFEB813F
:1017C000FC812081422F50E0A981BA818D919C91AA
:1017D000B6E02B9F800D911D1124E981FA81918340
:1017E0008083EC85FD85E75EFB4F2081222309F491
:1017F00046CF6AEF64039001659F300D1124205895
:101800003F4F281739070CF03ACFAC85BD85ED91D5
:10181000FC9111970190F081E02D6AE0CD012D96A9
:101820000FB6F894DEBF0FBECDBFDF91CF911F91F1
:101830000F91FF90EF90DF90CF90BF90AF909F906F
:101840008F907F906F905F904F903F902F90099472
:10185000682F8FEE93E00C940F0B089590E080E0DA
:1018600008958F929F92AF92BF920F931F93CF9341
:10187000DF93CDB7DEB7A1970FB6F894DEBF0FBEEA
:10188000CDBF19A2423008F44AE08E010F5D1F4F10
:10189000842E912CB12CA12CA50194010E94FB1A3D
:1018A000E62FB901CA01EA3044F5E05DD801EE93B4
:1018B0008D01232B242B252B79F790E080E01097C6
:1018C00069F0FD0101900020E9F73197AF014A1B53
:1018D0005B0BBD018FEE93E00E942906A1960FB627
:1018E000F894DEBF0FBECDBFDF91CF911F910F9156
:1018F000BF90AF909F908F900895E95CD7CFFC0187
:1019000001900020E9F73197AF01481B590BBC014A
:101910008FEE93E00C9429060E94321B0C94B31AAC
:10192000CF93DF930E945B1AC8E5D3E024E230E056
:1019300040E050E00E94C91A6C5F7F4F8F4F9F4F6D
:10194000262F220F620F68830E945B1A20E130E08D
:1019500040E050E00E94C91A6C5F7F4F8F4F9F4F4D
:10196000262F220F620F6983DF91CF910895FF9296
:101970000F931F93CF93DF93EC01F62E088119810B
:10198000C8010E94B31AF81621F06F2DC8010E94F9
:10199000BB1ACE01DF91CF911F910F91FF90089557
:1019A0001F920F920FB60F9211248F939F938091E5
:1019B000E1009091E100937F9093E10083FF0FC0DD
:1019C0001092E90091E09093EB001092EC0092E30A
:1019D0009093ED001092900398E09093F00082FFB6
:1019E00022C093E09093E9009091F200992319F0BE
:1019F0009AE39093E80090918103992341F09091AC
:101A00008103915090938103911101C05D9A90914F
:101A10008F03992341F090918F03915090938F03FE
:101A2000911101C0289A84FF18C08091E2008E7E37
:101A300081608093E2008091E1008F7E8093E100DD
:101A4000809182038E7E8061809382039F918F912B
:101A50000F900FBE0F901F90189580FFF7CF8091C9
:101A6000E2008E7E80618093E2008091E1008E7EB4
:101A70008093E100809182038E7E8160E5CF1F928A
:101A80000F920FB60F921124CF92DF92EF92FF9236
:101A90000F931F932F933F934F935F936F937F9376
:101AA0008F939F93AF93BF93EF93FF93CF93DF9366
:101AB000CDB7DEB76C97DEBFCDBF1092E900809145
:101AC000E80083FF25C068E0CE0145960E941C0611
:101AD00082EF8093E8008D8987FF39C09091E800FC
:101AE00090FFFCCF982F907609F034C19E894F89E2
:101AF000588D2F89F88C911131C0803861F5809113
:101B000080038093F1001092F1008EEF8093E80043
:101B10006C960FB6F894DEBF0FBECDBFDF91CF91AC
:101B2000FF91EF91BF91AF919F918F917F916F91B5
:101B30005F914F913F912F911F910F91FF90EF90E7
:101B4000DF90CF900F900FBE0F901F9018959EEFD3
:101B50009093E800C7CF1092F100D5CF913059F49F
:101B60008111D3CF4130510581F6809180038D7F63
:101B700080938003CACF933049F48111C6CF41309E
:101B8000510519F6809180038260F2CF953041F4BF
:101B90008091E80080FFFCCF20682093E300B5CF60
:101BA000963009F0A9C00B8D1C8D22E01092E9003F
:101BB00010927E0310927D03F2122EC010927C03CD
:101BC00010927B030E94EB051F8299E09983FA82B1
:101BD00091E09E8390EA98879AEF998720917D0300
:101BE00030917E03275F3F4F3C832B838D83109280
:101BF000E90010927E0310927D0310937C03009302
:101C00007B0349E050E0BE016F5F7F4F80E00E94A0
:101C1000C5050E94EB0579CF10937C0300937B03ED
:101C20000E94CF04DC0112960D911C910115110543
:101C300009F451C1D801ED91FC910480F581E02DAA
:101C4000BE016B5E7F4FC8010995009709F03EC148
:101C5000F80100851185EACFF3E0FF120EC08F89ED
:101C6000882309F440C0823061F440E867E08AEDDF
:101C700097E00E949205811148CF81E28093EB00AA
:101C800047CF813029F440E86BE08EEC97E0F1CF4C
:101C9000833099F70E94CF04DC011296ED90FC90FE
:101CA0008E010F5F1F4F6801E114F10479F0D70135
:101CB000ED91FC910680F781E02DB801C7010995EF
:101CC000080F111DF701E084F184EECFD8011C92BA
:101CD000F60101900020E9F73197BF016C197D09E9
:101CE00040E0C601C6CF68EB77E0FB01449150E0CD
:101CF00080E80E94C50509CF973009F4BECF98301F
:101D000021F481E08093F10000CF993009F0FDCEFD
:101D1000837009F0B2CFE4E1F1E081E031E096E3D5
:101D20002191222371F08093E9003093EB00DF01D1
:101D300011972C912093EC009093ED008F5F8730EA
:101D400079F78EE78093EA001092EA008F898093FA
:101D50009003DBCE8B8D9C8D1092E90010927E0358
:101D600010927D0390937C0380937B03898D811176
:101D700092C08E899D89913A49F4813209F07DCFD4
:101D800047E050E066E071E080E0B3CF913209F0C7
:101D900074CF833269F48F89988DB0E0A0E080938E
:101DA000020190930301A0930401B0930501ADCE0D
:101DB000803269F48091E80082FFFCCF67E086E022
:101DC00091E00E941C068BEF8093E8009ECE823249
:101DD00009F09BCE8F8980930D01EEEFFFE785918F
:101DE00094918B3F9C4D51F1E0E0F8E08091060129
:101DF00090910701A0910801B0910901803B9440A6
:101E0000A105B105F1F480910D0180FD1AC0EE3FEE
:101E10008AE0F80789F587E797E7918380838091C7
:101E2000600080937F0388E19BE00FB6F894A8954B
:101E3000809360000FBE9093600067CEEEEFFAE0F3
:101E4000D5CF808191818737974709F05ECEA895DD
:101E50008091600088618093600080917F0380930F
:101E60006000EE3F2AE0F20789F08091FE0A90912F
:101E7000FF0A9183808349CE8081918187379807BB
:101E800051F29093FF0A8093FE0AC5CF1092FF0A89
:101E90001092FE0A3ACE0E94CF04DC0112960D91F8
:101EA0001C910115110509F4E8CED801ED91FC91C2
:101EB0000190F081E02DBE016B5E7F4FC801099556
:101EC000811123CEF80100851185EBCF1816190674
:101ED0000CF41BCED2CEF1E0FF12BECE6CEB77E05D
:101EE00004CF1F920F920FB60F9211242F933F939E
:101EF0008F939F93AF93BF9380915A0390915B030D
:101F0000A0915C03B0915D033091BD0123E0230FEC
:101F10002D3758F50196A11DB11D2093BD01809369
:101F20005A0390935B03A0935C03B0935D0380918D
:101F3000BE019091BF01A091C001B091C101019675
:101F4000A11DB11D8093BE019093BF01A093C0015C
:101F5000B093C101BF91AF919F918F913F912F910C
:101F60000F900FBE0F901F90189526E8230F029632
:101F7000A11DB11DD2CF1F920F920FB60F92112447
:101F80002F933F934F935F936F937F938F939F9381
:101F9000AF93BF93EF93FF938091BA01882349F0E9
:101FA00080919103E0919203F091930390818927AE
:101FB00080838091C201882309F456C08091B601C4
:101FC0009091B701A091B801B091B901892B8A2BEA
:101FD0008B2B09F449C08091B6019091B701A09173
:101FE000B801B091B9010197A109B1098093B60177
:101FF0009093B701A093B801B093B901892B8A2BB4
:102000008B2B91F5E091B401F091B501BF016F5FA9
:102010007F4F7093B5016093B4012491922F907F0C
:10202000822F8F70903819F40E943909EBCF9039C4
:1020300081F43296F093B501E093B401FB01649111
:10204000909197038917F0F667FDDCCF0E94C808CE
:10205000D9CF903E29F41092B5011092B401D2CF9D
:10206000903F99F41092C201FF91EF91BF91AF910F
:102070009F918F917F916F915F914F913F912F91A0
:102080000F900FBE0F901F90189597FDBBCF329603
:10209000F093B501E093B401FB016491A091BB0101
:1020A000B091BC01322F262F0E941D1B6C507E4F19
:1020B0008F4F9F4F28EE33E040E050E00E94FB1A24
:1020C0002093B6013093B7014093B8015093B90102
:1020D0008091B6019091B701A091B801B091B9017A
:1020E000892B8A2B8B2B09F0BFCF81E090E0A0E0F9
:1020F000B0E08093B6019093B701A093B801B0937C
:10210000B901B2CF1F920F920FB60F9211248F9385
:102110009F93AF93BF93EF93FF9380919C0388238A
:1021200009F452C08091980390919903A0919A0369
:10213000B0919B03892B8A2B8B2BA1F19091940357
:10214000E0919503F09196038081892780838091A7
:10215000980390919903A0919A03B0919B0318164C
:1021600019061A061B069CF4809198039091990316
:10217000A0919A03B0919B030197A109B1098093A3
:10218000980390939903A0939A03B0939B03FF91B4
:10219000EF91BF91AF919F918F910F900FBE0F90D4
:1021A0001F90189510929C0380916F008D7F8093F3
:1021B0006F0080919403E0919503F09196039081D4
:1021C000809589238083E3CF90919403E0919503D8
:1021D000F091960380818927F5CFEDE9F3E0138232
:1021E000128288EE93E0A0E0B0E084839583A6831A
:1021F000B7838EE191E0918380838FEF9FEF958786
:102200008487EFEEF3E01382128280E391E0918302
:1022100080838CE3868380E181871086178216860F
:102220001786108A118A128A1092040810920308E5
:10223000109206081092050881E0809307088091AB
:102240000E0190E09093EE038093ED030895CF93F9
:10225000DF9300D000D01F92CDB7DEB7789484B55D
:10226000826084BD84B5816084BD85B5826085BD92
:1022700085B5816085BD80916E00816080936E0020
:102280001092810080918100826080938100809112
:1022900081008160809381008091800081608093C3
:1022A00080008091910082608093910080919100E4
:1022B0008160809391008091900081608093900074
:1022C0008091C10084608093C1008091C1008260D0
:1022D0008093C1008091C10081608093C100809192
:1022E000C30081608093C3008091C00082608093AE
:1022F000C0008091C20081608093C20080917A000A
:10230000846080937A0080917A00826080937A0062
:1023100080917A00816080937A0080917A00806851
:1023200080937A001092900310928003109282039F
:102330008091D70081608093D70080EA8093D80095
:1023400089B5806189BD89B5826089BD09B400FE07
:10235000FDCF61E070E080E090E00E94CB078091CB
:10236000D8008F7C80618093D8008091E000807FCE
:102370008093E0008091E1008E7E8093E1008DE00B
:102380008093E200559A209A1FB7F8948091C30178
:10239000811127C0E0E2F8E08491E3EFF7E0949147
:1023A000E82FF0E0EE0FFF1FE55BF84FA591B49129
:1023B000EC91E92321F461E081E10E94560661E09D
:1023C00081E10E94C7068CB580618CBD8CB58064AC
:1023D0008CBD61E08FE00E94C70661E080E10E9451
:1023E000C7068091C3018F5F8093C3011FBF03E6BF
:1023F00017E0B801F80184916F5F7F4F0E5F1F4FA8
:10240000FB016491882319F00E94C706F2CF61E0B6
:1024100082E00E94560661E070E080E090E00E9459
:10242000CB0760E082E00E9456066AE070E080E040
:1024300090E00E94CB0761E082E00E945606E0E156
:10244000F8E0E491F0E0EE0FFF1FEF5FF74FA5918A
:10245000B4919C918091C701809589238C93E3EE80
:10246000F7E0E491E093C701E3E1F8E0E491F0E004
:10247000EE0FFF1FEF5FF74F859194919093C60188
:102480008093C501E6EEF7E0E491E093C4018CB5DA
:102490008C7F8CBD8DB581608DBD0E948B08E9E578
:1024A000F7E083E697E08E179F0749F024912EBD51
:1024B00000000DB407FEFDCF2EB53196F4CFE091AC
:1024C000C501F091C60180819091C401892B808360
:1024D00080916400816080936400809164008260D8
:1024E0008093640080916400806880936400809190
:1024F00064008064809364008091650081608093B3
:1025000065000E94830887FF1AC080E294E01EBC29
:1025100000000DB407FEFDCF2EB50197C1F770E0A6
:1025200060E08AE00E94030770E060E083E00E94C0
:10253000030770E060E089E00E940307FFCF0EEE22
:102540001FEF78E0A72EB12CB80169517F4F8AE0C8
:102550000E9403076FEF70E083E00E9403076FEFB4
:1025600070E089E00E9403070E948704302EF0EF9C
:102570000F170CF476C0980117FF04C022273327E9
:10258000201B310B27703327C80117FD079663E026
:10259000959587956A95E1F717FF05C00197A50105
:1025A000421B530B9A01BC017695762F66277795CF
:1025B0006795F12CE12C2501421A530A8F3F5FEFFA
:1025C00095070CF447C0E8E5EE9D4001EF9D900CA7
:1025D0001124DB01A151BC4F50E040E0F401E5566D
:1025E000F94F4F01FB01E159FB4F3F018F3F980726
:1025F00081F0F401E40FF51FE491022E01C0EE0F0B
:102600000A94EAF79896FC919897EF2B9896EC939A
:10261000989721153105C1F0F401E40FF51F2490BE
:102620006301C40ED51EE22DF0E0042C02C0F59526
:10263000E7950A94E2F7FC83EB83F601F0A5FD83AE
:102640002B802F2AF60120A64F5F5F4F1196483549
:10265000510561F6019660587F4FEA94EF2809F022
:10266000A3C083E094E00E9496086BE170E080E0F4
:1026700090E00E94CB0780EF282E321006C06AEF50
:1026800070E080E090E00E94CB070F5F1F4F0931A0
:10269000110509F059CF6EEE72E080E090E00E94E3
:1026A000CB076FEF70E08AE00E9403076FEF70E0E6
:1026B00083E00E9403076FEF70E089E00E94030748
:1026C00085E00E945C0986E00E945C091092C201CC
:1026D00082E090E00E948E0C882351F0809164008B
:1026E000877F8093640080916500877F8093650079
:1026F00040EA50E060E070E08BED93E00E9443041C
:1027000060EA70E080E090E00E94CB0740E951E091
:1027100060E070E086E295E00E94430460ED77E0BF
:1027200080E090E00E94CB0781E0809307088091D1
:102730007403909175032091760330917703309361
:1027400004082093030890930608809305088EE1FF
:1027500090E090935F0380935E033090010180913D
:102760007A038111BDC13110BBC120E440E870E0A3
:1027700060E090E080E00E94B70AE0907403F0907F
:1027800075030091760310917703680123E0C20E70
:10279000D11C0C151D0561F043E0B701C8010E9472
:1027A000F1090F5F1F4FF5CFEE24E394F12C06CF14
:1027B00080E490E0909304088093030883E090E025
:1027C0009093060880930508C0907803D090790311
:1027D0000D2C000CEE08FF084AE0C701B601F7FE19
:1027E0000BC08DE20E94280C66277727CB016C195D
:1027F0007D098E099F094AE00E94310CA090730365
:10280000AA2019F1B12C4A2D4150550B4A01EB2D4C
:10281000F0E0E815F905CCF4EE0FFF1FE853FE4F8A
:10282000E180F12CC08010E000E0D12CC601800FC7
:10283000911F0F5F1F4F0430110529F043E0B701CE
:102840000E94F109F3CFB394E2CFE0905903F12C49
:1028500080905803912C23E043E0B701C4010E940B
:10286000B70AA70141505109B4016F5F7F4F21E0C2
:102870008FEE93E00E94CD09A7014250510921E05B
:10288000B4018FEE93E00E94CD0983E094E00E94B2
:1028900096080E9487040E9483089091000192305C
:1028A00029F086FF03C081E0809300010E94830825
:1028B00090910001913029F085FF03C082E0809360
:1028C00000010E94830890910001933029F084FF59
:1028D00003C084E0809300010E948308909100016E
:1028E000943029F087FF03C083E08093000180913A
:1028F000ED039091EE0301979093EE038093ED0327
:1029000097FF2CC020917603309177038091740358
:102910009091750340910E0150E05093EE03409367
:10292000ED03AA2079F0E8ECF1E048E553E0682FE8
:10293000722FB081A181708361833296BD014E17E1
:102940005F07B9F740910001423009F459C008F01F
:102950004CC02D5F3F4F413009F454C0C090760306
:10296000D090770300917403109175035EE7C5164C
:10297000D10418F40E33110548F064EF71E080E0E3
:1029800090E00E94CB0781E080937A03AA2009F4AB
:1029900040C0712C8A2D8150990B5C016624639490
:1029A000E72DF0E0EA15FB05A4F5EE0FFF1FE85355
:1029B000FE4F808190E0C816D906ACF00396C81689
:1029C000D9068CF4818190E00817190764F003960A
:1029D0000817190744F464EF71E080E090E00E946A
:1029E000CB0760927A037394DBCF433081F0039678
:1029F000443009F0B3CF9093750380937403AECF46
:102A0000235031093093770320937603A7CF0397A0
:102A1000F2CFC4010396C816D90674F593E0C90E27
:102A2000D11C8C149D0444F5C7010396081719079F
:102A30001CF50D5F1F4FE016F106F4F448EC50E072
:102A400060E070E080E293E00E94430480910E0118
:102A50008031A1F580917803909179030596909348
:102A60007903809378030E94900C809173038F5FA9
:102A7000893CA0F580937303809174039091750352
:102A80002091760330917703309304082093030854
:102A900090930608809305086091ED037091EE0312
:102AA000072E000C880B990B0E94CB0780E090E06A
:102AB000892B09F452CE0E9400004FCE8C3031F4A5
:102AC00080917803909179030A96C9CF883059F69E
:102AD00080917803909179034496C1CF88ECCACF56
:102AE000332009F466C20E94870488E090E0909346
:102AF00004088093030880E190E090930608809397
:102B0000050882E08093070888E391E00E947F0C2B
:102B100011E0109307080E94830883FF19C10E94E7
:102B2000870420E440E870E060E090E080E00E94EC
:102B3000B70A8EE090E090930408809303088EE13A
:102B400090E0909306088093050882E491E00E944B
:102B50007F0C22E14EE16AE170E08AE090E00E94A1
:102B6000B70A8CE190E0909304088093030885E015
:102B700090E090930608809305081093070884E579
:102B800091E00E947F0C83E094E00E94960860E24E
:102B900073E080E090E00E94CB0710E000E04AE0A4
:102BA000E42E5EE0452E512C6EE1662E712C7CE108
:102BB000A72EB12CE5E08E2E912CF0E12F2E0E9455
:102BC000870420E440E870E060E090E080E00E944C
:102BD000B70A509204084092030870920608609267
:102BE000050882E491E00E947F0CF12C22E14EE185
:102BF0006AE170E0C7010E94B70AB0920408A0928F
:102C000003089092060880920508E1E0E093070827
:102C100084E591E00E947F0C83E094E00E94960896
:102C20000E94830886FF15C00F5F1F4F03301105F8
:102C300011F410E000E048EC50E060E070E080E962
:102C400091E00E9443046CE271E080E090E00E9419
:102C5000CB070E94830885FF13C00150110910F4AF
:102C600002E010E048EC50E060E070E080E991E0C4
:102C70000E9443046CE271E080E090E00E94CB0788
:102C80000E94830883FFC3C301151105A1F420929C
:102C90000E01D12CC12CC7018C0D9D1D4FEFC41A04
:102CA000D40A5FE1C516D10489F042E16AE170E01F
:102CB0000E94F109F0CF0130110521F42CE020939E
:102CC0000E01E7CF38E030930E01E3CF83E094E0CC
:102CD0000E94960860E971E080E090E00E94CB07D6
:102CE0000E94870483E094E00E9496080115110574
:102CF00069F0832D32E3E32E0130110521F002E06B
:102D000010E098E5E92E882309F459CF10920101CB
:102D10002FB7F89460915A0370915B0380915C0324
:102D200090915D032FBF611571058105910511F02B
:102D30000E94AA1A0E94900C8CE090E09093770376
:102D40008093760388E190E09093750380937403F9
:102D50000E94830882FFC4C06CE271E080E090E0D2
:102D60000E94CB0781E0809307080E94870480E2DD
:102D700090E0909304088093030810920608109244
:102D8000050881E691E00E947F0C83E094E00E94B8
:102D9000960808EC10E0AAE0CA2ED12CF12CE12C08
:102DA000BDE66B2EB1E07B2E80E6A82E83E0B82E28
:102DB00098E1892E912CEFEFEE1AFE0AFF92EF9226
:102DC0007F926F92BF92AF920E94371B909204083D
:102DD00080920308D0920608C092050880E693E02E
:102DE0000E947F0C83E094E00E949608C8010E9434
:102DF0008E0C582EC80101960E948E0C0F900F90D9
:102E00000F900F900F900F90FFEF5F12ADC08F3FAC
:102E100009F0AAC01092790310927803C8010296B3
:102E20000E948E0C582E80937003C80103960E9456
:102E30008E0C482E80937103C80104960E948E0C5C
:102E40008093720320917803309179031216130650
:102E50007CF53F932F93282F082E000C330B3F93C4
:102E60008F93842D042C000C990B9F934F92852DEA
:102E7000052C000C990B9F935F9221E731E03F9363
:102E80002F93BF92AF920E94371B80E390E0909304
:102E9000040880930308D0920608C092050880E6D3
:102EA00093E00E947F0C0FB6F894DEBF0FBECDBF3B
:102EB00088E0C80ED11C0B5F1F4F9AE0E916F104A1
:102EC00009F079CF83E094E00E9496080E9483087D
:102ED00082FFFCCF6CE271E080E090E00E94CB07C3
:102EE00080910101882309F4E1CD80915E039091E6
:102EF0005F03019790935F0380935E031816190692
:102F0000CCF580E190E0909304088093030888E278
:102F100090E090930608809305088BE791E00E946B
:102F20007F0C89E090E0909304088093030882E38B
:102F300090E090930608809305088CE891E00E9449
:102F40007F0C83E094E00E94960880915E0390914C
:102F50005F03823E9F4F0CF0A9CD8EE190E09093ED
:102F60005F0380935E03A2CD952D909379038093A8
:102F7000780354CF892B49F30E94870488E090E0BE
:102F8000909304088093030880E190E090930608F2
:102F90008093050882E08093070888E391E00E940F
:102FA0007F0C81E08093070883E094E00E949608FC
:102FB000C8CF68EE73E080E090E00E94CB070E94EB
:102FC00087048CE090E0909304088093030888E1E4
:102FD00090E0909306088093050882E080930708AC
:102FE0008FE991E00E947F0C83E094E00E949608B4
:102FF00060EA7FE080E090E00E94CB0781E0809370
:103000000708E0907803F090790308EC10E0512C69
:10301000C8010E948E0CD82EC80101960E948E0C09
:1030200022242A94D21003C08F3F09F44BC19D2D56
:1030300021E0250D8E159F0508F0E2C10E9487044E
:1030400080E280937003809371038093720310E099
:1030500050E1652E712C64E1E62EF12C70E4272EF0
:10306000312CE8E4CE2ED12CF1E48F2E30E2932ED9
:103070004FE2442E83E094E00E9496080E94870469
:1030800070920408609203081092060810920508D6
:1030900089EA91E00E947F0C809179038F9380915F
:1030A00078038F9328E731E03F932F9380E693E0F6
:1030B0009F938F930E94371B28E530E030930408DC
:1030C00020930308109206081092050880E693E00A
:1030D0000E947F0C48E350E050930408409303089B
:1030E000F0920608E0920508809170030E94280C77
:1030F0003092040820920308F0920608E092050836
:10310000809171030E94280CD0920408C092030899
:10311000F0920608E0920508809172030E94280C44
:1031200001E02BE130E04EE350E06BE170E088E33A
:1031300090E00E94190A2BE130E046E450E06BE198
:1031400070E080E490E00E94190A2BE130E04EE448
:1031500050E06BE170E088E490E00E94190A00E022
:103160002CE130E048E550E06CE170E088E390E06D
:103170000E94190A812F012E000C990B079623E05B
:10318000880F991F2A95E1F7AC014A5F5F4F01E074
:103190002CE130E06CE170E00E94190A66E970E011
:1031A00080E090E00E94CB070E9483080F900F9070
:1031B0000F900F900F900F9086FF0BC0115008F4E6
:1031C00084C04AEF50E060E070E086E194E00E9445
:1031D00043040E94830885FF0CC01F5F133008F072
:1031E00076C04AEF50E060E070E086E194E00E9433
:1031F00043040E94830887FF28C0812F012E000C02
:10320000990BFC01E059FC4F5F0100810F5F0083C7
:103210004AEF50E060E070E08BE092E00E944304EF
:10322000003311F4F5019082F5018081813209F4B7
:103230008082F50180818B3511F420E32083F50134
:103240008081803411F421E220830E94830884FF6E
:1032500029C0812F012E000C990BAC0140595C4F05
:103260005A01FA010081015000834AEF50E060E00A
:1032700070E08BE092E00E944304003219F48FE387
:10328000F5018083F50180818F3211F48AE5808316
:10329000F50180818F3109F44082F501808180340D
:1032A00009F490820E94830883FFE4CE12308CF4EC
:1032B0001F5F4AEF50E060E070E086E194E00E941A
:1032C0004304D4CE90E080E0B3CE10E082CF12E091
:1032D00090CF4AEF50E060E070E086E194E00E9419
:1032E0004304F5E05F9E8001112408531F4FC8017D
:1032F0000E948E0C682E48012FEF821A920AC40198
:103300000E948E0C3FEF631203C08F3F09F475C01B
:10331000762C682E580142E0A40EB11CC5010E9413
:103320008E0C282E680153E0C50ED11CC6010E94E8
:103330008E0C382E780184E0E80EF11CC7010E9443
:103340008E0C482E609179031A830983CE01019671
:103350000E94B70C609178039A828982CE0101960F
:103360000E94B70C60917003BA82A982CE010196C7
:103370000E94B70C60917103DA82C982CE01019676
:103380000E94B70C60917203FA82E982CE01019625
:103390000E94B70C709279036092780320927003B8
:1033A000309271034092720353940B5F1F4F9AE067
:1033B00059129DCF80E280937003809371038093B4
:1033C000720310927903109278030E94900C8CE0A3
:1033D00090E0909377038093760388E190E0909358
:1033E00075038093740381E080930001109273034E
:1033F0008093010110927A0359CB712C612C8ACFF2
:103400000B5F1F4F522EEAE02E1302CEDACF80E080
:103410000115110509F06ECC2AE0E22ED0CB8F9277
:103420009F92AF92BF92CF92DF92EF92FF92CF9393
:10343000DF93EC01688179818A819B816115710537
:103440008105910521F464E279ED8BE597E02DE1AA
:1034500033EF41E050E00E94C91A49015A019B0133
:10346000AC01A7EAB1E40E94E81A6B017C01ACEE62
:10347000B4EFA50194010E94F61AC60ED71EE81EED
:10348000F91EF7FE06C081E0C81AD108E10880E8FD
:10349000F80AC882D982EA82FB82C701B6019F7707
:1034A000DF91CF91FF90EF90DF90CF90BF90AF90E2
:1034B0009F908F9008958F929F92AF92BF92CF92DC
:1034C000DF92EF92FF9260910F0170911001809155
:1034D000110190911201611571058105910521F489
:1034E00064E279ED8BE597E02DE133EF41E050E0C8
:1034F0000E94C91A49015A019B01AC01A7EAB1E433
:103500000E94E81A6B017C01ACEEB4EFA5019401B6
:103510000E94F61AC60ED71EE81EF91EF7FE06C058
:1035200081E0C81AD108E10880E8F80AC0920F01CA
:10353000D0921001E0921101F0921201C701B60180
:103540009F77FF90EF90DF90CF90BF90AF909F90CC
:103550008F90089560930F01709310018093110173
:10356000909312010895F999FECF92BD81BDF89A0A
:10357000992780B50895262FF999FECF1FBA92BDDD
:1035800081BD20BD0FB6F894FA9AF99A0FBE019644
:103590000895052E97FB1EF400940E94E01A57FD33
:1035A00007D00E94FB1A07FC03D04EF40C94E01ADB
:1035B00050954095309521953F4F4F4F5F4F08955F
:1035C00090958095709561957F4F8F4F9F4F08958F
:1035D0000E941D1BA59F900DB49F900DA49F800D70
:1035E000911D11240895B7FF0C94E81A0E94E81A5F
:1035F000821B930B0895A1E21A2EAA1BBB1BFD018F
:103600000DC0AA1FBB1FEE1FFF1FA217B307E407C1
:10361000F50720F0A21BB30BE40BF50B661F771F19
:10362000881F991F1A9469F76095709580959095F9
:103630009B01AC01BD01CF010895A29FB001B39FD2
:10364000C001A39F700D811D1124911DB29F700DAB
:10365000811D1124911D0895EE0FFF1F0590F49117
:10366000E02D099481E090E0F8940C940F1EAEE0F8
:10367000B0E0EDE3FBE10C94E61D0D891E8986E0C8
:103680008C831A8309838FEF9FE79E838D83AE011E
:10369000475E5F4F6F89788DCE0101960E945A1B5D
:1036A0002F813885020F131FF80110822E96E4E057
:1036B0000C94021EABE0B0E0E0E6FBE10C94D81DF8
:1036C0007C013B018A01FC0117821682838181FF04
:1036D000C8C1CE0101965C01F7019381F30193FD0E
:1036E000859193FF81913F01882309F453C185326D
:1036F00039F493FD859193FF81913F01853229F43F
:10370000B70190E00E944A1DE7CF912C212C312C6B
:10371000FFE1F31538F08B3211F190F4803209F1AA
:10372000833229F137FC3CC020ED280F2A3050F5B8
:1037300036FE20C08AE0989E200D1124922E06C0ED
:103740008D3291F0803371F7689430F8F30193FD76
:10375000859193FF81913F018111DACF21C0689457
:1037600031F8689432F8F2CF689433F8EFCF689468
:1037700034F8ECCFEAE02E9E200D1124222E68941E
:1037800035F8E4CF8E3229F436FC04C1689436F85B
:10379000DDCF8C3619F4689437F8D8CF8836B1F27B
:1037A000982F9F7D95549330E0F08336A1F18337B5
:1037B000C1F1833509F063C02801F2E04F0E511CBE
:1037C000F801C080D180692D70E036FC02C06FEF37
:1037D0007FEFC6010E94341D4C01689437F88201C6
:1037E0000AC00C5F1F4FFFE3F98388248394912C58
:1037F0006501E89437F833FE2DC0522C81149104F2
:1038000071F5552009F468CFB70180E290E00E947D
:103810004A1D5A94F6CFF801808189830E5F1F4FAD
:10382000E4CF2801F2E04F0E511CF801C080D18096
:10383000692D70E036FC02C06FEF7FEFC6010E9479
:103840003F1D4C018201D5CFB70180E290E00E947C
:103850004A1D2A942814190409F0B0F7CECFF601B6
:1038600037FC859137FE81916F01B70190E00E948E
:103870004A1D51105A94F1E08F1A9108BFCF843637
:1038800019F0893609F077C0F80137FE6BC0608106
:103890007181828193810C5F1F4FF32DFF763F2E44
:1038A00097FF09C090958095709561957F4F8F4FD8
:1038B0009F4F689437F82AE030E0A5010E947A1DF6
:1038C000C82ECA188C2C432C36FE0CC0E89440F845
:1038D000C91440F434FE05C032FC03C0F32DFE7E53
:1038E0004F2E892C44FE95C0FE01EC0DF11D808108
:1038F000803309F087C0242D297E422E842D8870C4
:10390000582E43FC95C040FE8FC09C2C821418F4A6
:103910002C0C922C981844FE91C0B70180E390E0E3
:103920000E944A1D42FE09C088E790E041FE02C0A5
:1039300088E590E0B7010E944A1DC91408F48AC0C6
:10394000CA94D12C9FEFC91AD90ACA0CDB1CF60104
:1039500082916F01B70190E00E944A1DAC14BD0432
:10396000B1F74FCF60817181072E000C880B990B46
:103970000E5F1F4F92CFD32CE894D4F82AE030E0AA
:10398000853739F1232D297FD22E8F3601F148F466
:103990008835A9F0F701868197812B96E2E10C9496
:1039A000F41D803749F08837A9F7D4FE02C0689427
:1039B000D2F820E130E00DC06894D4F8F6CF34FEA0
:1039C00003C0822F8660D82E20E132E002C028E0BA
:1039D00030E0F801D7FE0FC0608171818281938150
:1039E0000C5F1F4FA5010E947A1DC82ECA183D2CDE
:1039F000E89437F867CF6081718190E080E00E5FD6
:103A00001F4FF0CF42FC02C0839478CF83948394FD
:103A100075CF842D867809F471CFF6CFB70180E297
:103A200090E00E944A1D83948214C0F3512C73CFFE
:103A3000522C5818821408F46ECFF8CF842D867853
:103A400009F47BCF8BE241FE80E247FC8DE2B701B7
:103A500090E071CFB70180E390E00E944A1D9A94F4
:103A60006CCF8FEF9FEF99CFFC01059061507040B4
:103A70000110D8F7809590958E0F9F1F0895FC0137
:103A80006150704001900110D8F7809590958E0F8D
:103A90009F1F08950F931F93CF93DF93182F092F24
:103AA000EB018B8181FD09C01FEF0FEF812F902F5C
:103AB000DF91CF911F910F91089582FF14C02E8145
:103AC0003F818C819D81281739073CF4E881F98179
:103AD000CF0101969983888310838E819F810196FF
:103AE0009F838E83E3CFE885F985812F0995892B04
:103AF000A1F3DACFFA01AA27283051F1203181F160
:103B0000E8946F936E7F6E5F7F4F8F4F9F4FAF4FE5
:103B1000B1E03ED0B4E03CD0670F781F891F9A1FF8
:103B2000A11D680F791F8A1F911DA11D6A0F711DAC
:103B3000811D911DA11D20D009F468943F912AE0B8
:103B4000269F11243019305D3193DEF6CF010895A0
:103B5000462F4770405D4193B3E00FD0C9F7F6CFD1
:103B6000462F4F70405D4A3318F0495D31FD405299
:103B7000419302D0A9F7EACFB4E0A695979587952F
:103B800077956795BA95C9F700976105710508950E
:103B90009B01AC010A2E06945795479537952795BA
:103BA000BA95C9F7620F731F841F951FA01D089552
:103BB0002F923F924F925F926F927F928F929F923D
:103BC000AF92BF92CF92DF92EF92FF920F931F932B
:103BD000CF93DF93CDB7DEB7CA1BDB0B0FB6F894DC
:103BE000DEBF0FBECDBF09942A88398848885F841C
:103BF0006E847D848C849B84AA84B984C884DF808D
:103C0000EE80FD800C811B81AA81B981CE0FD11D70
:103C10000FB6F894DEBF0FBECDBFED010895F89446
:023C2000FFCFD4
:103C22000101FFFFFFFF00E10000000000000501AD
:103C320000000000C1808100000000000000E304D9
:103C4200FE070405F9044A050805260500000000E0
:103C52000F0B29062E0C2D0C534E414B454C494E51
:103C62004700536C6F772020204D6564202020464A
:103C72006173740053706565642053656C65637489
:103C820000484947482053434F5245530025326468
:103C92000025632563256320257500505245535343
:103CA200204120546F205374617274005052455366
:103CB20053204220466F722053636F726573004730
:103CC200616D65204F76657200484947482053432D
:043CD2004F52450008
:00000001FF
