:100000000C949B080C94C3080C94C3080C94C3086C
:100010000C94C3080C94C3080C94C3080C94C30834
:100020000C94C3080C94C3080C9469100C94D81059
:100030000C94C3080C94C3080C94C3080C94C30814
:100040000C94C3080C94C3080C94C3080C94C30804
:100050000C94C3080C94C3080C94C3080C940A13A2
:100060000C94C3080C94C3080C94C3080C94C308E4
:100070000C94C3080C94C3080C94C3080C94C308D4
:100080000C94C3080C94C3080C94C3080C94C308C4
:100090000C94C3080C94C3080C94C3080C94C308B4
:1000A0000C94C3080C94C3080C94C308000000000F
:1000B000003E5B4F5B3E3E6B4F6B3E1C3E7C3E1CEE
:1000C000183C7E3C181C577D571C1C5E7F5E1C0034
:1000D000183C1800FFE7C3E7FF0018241800FFE7EB
:1000E000DBE7FF30483A060E2629792926407F05AE
:1000F0000507407F05253F5A3CE73C5A7F3E1C1CC4
:1001000008081C1C3E7F14227F22145F5F005F5F83
:1001100006097F017F006689956A6060606060946F
:10012000A2FFA29408047E040810207E2010080874
:100130002A1C08081C2A08081E101010100C1E0C7F
:100140001E0C30383E3830060E3E0E060000000011
:100150000000005F00000007000700147F147F14F8
:10016000242A7F2A1223130864623649562050003D
:1001700008070300001C2241000041221C002A1C29
:100180007F1C2A08083E0808008070300008080814
:100190000808000060600020100804023E51494534
:1001A0003E00427F400072494949462141494D3352
:1001B0001814127F1027454545393C4A49493141B9
:1001C000211109073649494936464949291E000087
:1001D00014000000403400000008142241141414DC
:1001E0001414004122140802015909063E415D59C8
:1001F0004E7C1211127C7F494949363E41414122D1
:100200007F4141413E7F494949417F090909013EFA
:10021000414151737F0808087F00417F4100204021
:10022000413F017F081422417F404040407F021C33
:10023000027F7F0408107F3E4141413E7F0909094A
:10024000063E4151215E7F09192946264949493216
:1002500003017F01033F4040403F1F2040201F3FDC
:100260004038403F63140814630304780403615961
:10027000494D43007F4141410204081020004141A3
:10028000417F04020102044040404040000307084F
:100290000020545478407F2844443838444444284B
:1002A000384444287F385454541800087E090218F2
:1002B000A4A49C787F0804047800447D400020407A
:1002C000403D007F1028440000417F40007C0478BE
:1002D00004787C080404783844444438FC18242406
:1002E0001818242418FC7C08040408485454542486
:1002F00004043F44243C4040207C1C2040201C3C03
:100300004030403C44281028444C9090907C4464F9
:10031000544C44000836410000007700000041368C
:10032000080002010204023C2623263C1EA1A16112
:10033000123A4040207A3854545559215555794144
:100340002154547841215554784020545579400C1B
:100350001E527212395555555939545454593955FC
:100360005454580000457C410002457D420001453F
:100370007C40F0292429F0F0282528F07C545545AC
:10038000002054547C547C0A097F4932494949323F
:100390003248484832324A4848303A4141217A3A54
:1003A00042402078009DA0A07D39444444393D401E
:1003B00040403D3C24FF2424487E4943662B2FFCCB
:1003C0002F2BFF0929F620C0887E09032054547979
:1003D000410000447D413048484A32384040227A4A
:1003E000007A0A0A727D0D19317D2629292F2826C7
:1003F0002929292630484D402038080808080808CF
:100400000808382F10C8ACBA2F102834FA00007B27
:10041000000008142A142222142A1408950022002D
:1004200095AA005500AAAA55AA55AA000000FF00E7
:10043000101010FF00141414FF001010FF00FF1024
:1004400010F010F0141414FC001414F700FF000056
:10045000FF00FF1414F404FC141417101F10101FD5
:10046000101F1414141F00101010F0000000001FC3
:10047000101010101F10101010F010000000FF10CE
:100480001010101010101010FF10000000FF1400CA
:1004900000FF00FF00001F10170000FC04F41414FC
:1004A0001710171414F404F40000FF00F7141414C8
:1004B00014141414F700F7141414171410101F1048
:1004C0001F141414F4141010F010F000001F101F6B
:1004D0000000001F14000000FC140000F010F010D9
:1004E00010FF10FF141414FF141010101F00000050
:1004F00000F010FFFFFFFFFFF0F0F0F0F0FFFFFF54
:100500000000000000FFFF0F0F0F0F0F38444438AA
:10051000447C2A2A3E147E02020606027E027E02E5
:1005200063554941633844443C04407E201E200604
:10053000027E020299A5E7A5991C2A492A1C4C7241
:1005400001724C304A4D4D303048784830BC625AC8
:10055000463D3E494949007E0101017E2A2A2A2A58
:100560002A44445F444440514A444040444A514034
:100570000000FF0103E080FF000008086B6B0836F5
:1005800012362436060F090F060000181800000066
:100590001010003040FF0101001F01011E00191D55
:1005A0001712003C3C3C3C00000000000000000032
:1005B0002300260029002C002F0000000002000963
:1005C0000F0000030401000C000000000000000008
:1005D000000000000000000000000000000000001B
:1005E00000000018BCFEC6C2C2C6FE3C00FCFEC62F
:1005F000C2C2C6FE3C0000D8C8002070F8F8202017
:1006000000F8FCFEF67E3E3C3800F8FCFEC6C2C296
:10061000C6FEFC00FEFEFE0606060CFCF000FCFE1C
:10062000C6C2C2020000000000000000000000007E
:1006300000000000000000000000000E1F1F10104E
:1006400010191F0E001F1F181010101D1F06001F6D
:100650001F0000001F1F1808000F1F1F1F1E1E1E57
:100660000C000F1F1F000000001F1F001F1F1F187E
:1006700018181C0F03001F1F10101010000000009E
:100680000000000000000000008D14A1C881CFD937
:10069000F102AF00000000000000000000000000B8
:1006A000000000000000000000000000000000004A
:1006B000000000000000000000000000000000003A
:1006C000000000000000000000000000000000002A
:1006D000000000000000000000000000000000001A
:1006E00000000000000000E030101010101018187A
:1006F00018F880C040C00080C04060202060C0006A
:10070000F0101010101010101010F08080808080F9
:1007100000000080C06020202020E0C000E0F01831
:10072000180808080C0C04FC80C0406020206040C1
:10073000C08000E02060404040C0800F0808F80002
:10074000000000FC04FF000000FF03010000E03097
:1007500030101F000704FC00000000FCCCFC03016B
:10076000008000031EF80F010000E0301030203F31
:10077000001F1018FC000000007CFE1F0100C0F0EC
:100780003030E0000007FE3F0000107050D01F0026
:100790000000FF800000000FFCFF000000FFE08071
:1007A00000000304040402FE00F03F00000000FF0C
:1007B000030000000787C00000071CE0800003065C
:1007C0000404E47C000000001FF8000000E03FF09B
:1007D000800001070C0C070000F03F0000000C1423
:1007E00016D3600000000107040606020307060C8A
:1007F0000C0F0001030206060406020100030606B0
:100800000404060F181018180F01070C08080C0C28
:1008100007010302060407000000000000030606AB
:100820000303000001030606040406060301030394
:10083000020606040603000000000000000000009D
:1008400000000000000000000000000000000000A8
:100850000000000000000000000000000000000098
:100860000000000000000000000000000000000088
:100870000000000000000000000000000000000078
:100880000000000000000000000000000000000068
:100890000000000000000000000000000000000058
:1008A0000000000000000000000000000000000048
:1008B0000000000000000000000000000000000038
:1008C0000000000000000000000000000000000028
:1008D0000000000000000000000000000000000018
:1008E00000000000000000C0C0C0C0C0C0C0C0C048
:1008F00080800000000000C0C0C0C0C0C0C0C0C038
:1009000080000000000000000080C0C0C0C00000E7
:10091000000000C0C0C000000000000080C0C08017
:1009200000000000000000C0C0C000000000000087
:100930000000000000000000000000FFFFFF0000BA
:100940000101010307FFFFFCE00000FFFFFFE0E003
:10095000E0E1F1FF3F1F0000000000E0FC7F1F030B
:100960000F7FFEF0800000011FFFFEE00000C0F8D6
:10097000FF0F0FFFFCC0000080F0FE3F0F010000E2
:100980000000000000000000000000000000007FE8
:100990007F7F6060607070703C3F1F070000007FC9
:1009A0007F7F00000001071F7F7C7000607C7F1F3D
:1009B000070707070707071F7F7C60000000077F06
:1009C0007E787F1F010000011F7F7E787F0F03006C
:1009D0000000000000000000000000000000000017
:1009E0000000000000000000000000000000000007
:1009F00000000000000000000000000000000000F7
:100A000000000000000000000000000000000000E6
:100A100000000000000000000000000000000000D6
:100A200000000000000000000000000000000000C6
:100A300000000000000000000000000000000000B6
:100A400000000000000000000000000000000000A6
:100A50000000000000000000000000000000000096
:100A60000000000000000000000000000000000086
:100A70000000000000000000000000000000000076
:100A80000000000000000080808000000000008066
:100A90008080000000000080808000808080000056
:100AA00080808080000000000080808000008080C6
:100AB00080800000000000808080000080808080B6
:100AC00080808080800000808080808080000000A6
:100AD0000000000000000000000000010FFFFCC04B
:100AE00000C0FCFF0FFFFCC000C0FCFF0F0100FFB7
:100AF000FFFF0000FFFFFF0F3FFCF0C000FFFFFF04
:100B00000000FFFFFF1F3FFCF0C000FFFFFF0000E1
:100B1000FFFFFF6161616161010000FFFF6161E34F
:100B2000E3FF3F0C00000000000000000000000098
:100B30000000071F1E1F07000000071F1E1F0700E1
:100B40000000001F1F1F00001F1F1F0000000307E1
:100B50001F1F1F1F00001F1F1F00000003071F1F74
:100B60001F1F00001F1F1F18181818181800001F3B
:100B70001F000000010F1F1C1800000000000000F3
:100B80000000000000000000000000000000000065
:100B9000000000000000000000FCFCFC0000F0F879
:100BA000FC8C0C0C1C18000000000000E0F0F83C6D
:100BB0001C0C0C1C3CF8F0E00000000000000000E1
:100BC0000000000000000000000000000000000025
:100BD0000000000000000000000000000000000015
:100BE00000000000000000000000000000FFFFFF08
:100BF0000000E0C1C3C3C7C7FE7E3800000000008C
:100C00003F7FF8E0C08080C0E0F87F3F0000000038
:100C100000000000000000000000000000000000D4
:100C200000000000000000000000000000000000C4
:100C300000000000000000000000000000000000B4
:100C400000000000000000000001010000000000A2
:100C5000000000000000000101010101010000008E
:100C60000000000000000000000000000000000084
:100C70000000000000000000000000609090901054
:100C80000080404000804040408000C08040408064
:100C900000804040408000304080403000800000B4
:100CA0000000000000000000000000000000FF0045
:100CB0000000000000000000000000000000FF0035
:100CC0000000000000000000000000000000000420
:100CD00004040403000304040003040404030007E1
:100CE00000000000000305050501000601000106E3
:100CF0000004008080808080808080808080808070
:100D00008080FF8080808080808080808080808064
:100D10008080FF8080808080808080808080808054
:100D20008080800000000000000000000000000043
:100D300000000000000000000000000000000000B3
:100D400000000000000000000000000000000000A3
:100D5000000000000000FF00000000000000000094
:100D6000000000000000FF00000000000000000084
:100D7000000000000000008C92929262007088884F
:100D800000708888887000F8100808100070A8A803
:100D9000A830007C8282827C00900000000000006D
:100DA00000000000000000000000FF000000000044
:100DB00000000000000000000000FF000000000034
:100DC0000000000000000000000000000000000023
:100DD0000000000000000000000000000000000013
:100DE0000000000000000000000000000000000102
:100DF0000101010101010101010101010101FF01E5
:100E00000101010101010101010101010101FF01D4
:100E100001010101010101010101010101010100C3
:100E200000000000000000000000000000000000C2
:100E300000000000000000000000000000000000B2
:100E400000000000000000000000000000000000A2
:100E50000000FF0000000000000000000000000093
:100E60000000FF0000000000000000000000000083
:100E70000000000000000080808000000000008072
:100E80008080000000000080808000808080000062
:100E900080808080000000000080808000008080D2
:100EA00080800000000000808080000080808080C2
:100EB00080808080800000808080808080000000B2
:100EC0000000000000000000000000010FFFFCC057
:100ED00000C0FCFF0FFFFCC000C0FCFF0F0100FFC3
:100EE000FFFF0000FFFFFF0F3FFCF0C000FFFFFF10
:100EF0000000FFFFFF1F3FFCF0C000FFFFFF0000EE
:100F0000FFFFFF6161616161010000FFFF6161E35B
:100F1000E3FF3F0C000000000000000000000000A4
:100F20000000071F1E1F07000000071F1E1F0700ED
:100F30000000001F1F1F00001F1F1F0000000307ED
:100F40001F1F1F1F00001F1F1F00000003071F1F80
:100F50001F1F00001F1F1F18181818181800001F47
:100F60001F000000010F1F1C1800000000000000FF
:100F70000000000000000000000000000000000071
:100F8000000000000000000000FCFCFC0000F0F885
:100F9000FC8C0C0C1C18000000000000041C7CF8E9
:100FA000E080C0F07C1C0400000000000000000095
:100FB0000000000000000000000000000000000031
:100FC0000000000000000000000000000000000021
:100FD00000000000000000000000000000FFFFFF14
:100FE0000000E0C1C3C3C7C7FE7E38000000000098
:100FF00080E0F07C1F071F7CF8E08000000000000C
:1010000000000000000000000000000000000000E0
:1010100000000000000000000000000000000000D0
:1010200000000000000000000000000000000000C0
:1010300000000000000000000001010000000000AE
:1010400000000000000000000000000000000000A0
:101050000000000000000000000000000000000090
:101060000000000000000000000000080B00020269
:101070000200000904000001020200000524001023
:1010800001052401010104240206052406000107CC
:1010900005810310004009040100020A0000000756
:1010A0000502024000000705830240000004030916
:1010B0000412010002EF02014041233680000101C9
:1010C00002030141726475696E6F204C4C4300410C
:1010D0004241313130360000000000250028002B4D
:1010E000002E00310000000000240027002A002DFF
:1010F0000030000404040404030405020202020494
:1011000003020202020606060606060404020202A2
:1011100004040408020110408040102040804080F8
:10112000080204018040201002011080102040407D
:101130002000CB13C01B11241FBECFEFDAE0DEBFAF
:10114000CDBF11E0A0E0B1E0E8EAFCE302C0059009
:101150000D92A036B107D9F726E0A0E6B1E001C0B4
:101160001D92AC31B207E1F718E0CAE9D8E004C03B
:101170002197FE010E944A1CC939D107C9F70E9474
:1011800019140C94471E0C940000E5EAF1E030EBD2
:1011900020E146E05C983EBD4A95F1F72EBD20E87F
:1011A000239507C0449140815C9A4EBD8111412D29
:1011B000419344912A95B1F73395383B49F70DB4E3
:1011C000089580E00C94C5086F927F928F929F9251
:1011D000AF92BF92CF92DF92EF92FF920F931F9345
:1011E000CF93DF93A02EB12CF501E60FF71FF7FD8B
:1011F00062C0603471050CF05EC030E0E62FE7702D
:101200009E2EE3E0B594A794EA95E1F7F3E0759597
:101210006795FA95E1F7062E000C770BFB01F69522
:10122000FE2FEE27F795E7958E0F9F1F8B559E4F4C
:10123000DA01D0E0C0E08E01060F171F083011055B
:10124000D4F50F3FFFEF1F076CF150E040E07C0149
:10125000E0E8EE0EF11CFA01EA0FFB1FE491F0E06A
:101260003F01092C02C0660C771C0A94E2F70F3F7D
:10127000100781F16C01C40ED51EF601808086280E
:101280008082992051F00730110539F06701C40EB2
:10129000D51EF6018080872880824F5F5F4F4217FE
:1012A0005307CCF2219680589F4FA20FB31FAC1664
:1012B000BD0609F0C0CFDF91CF911F910F91FF9034
:1012C000EF90DF90CF90BF90AF909F908F907F90E6
:1012D0006F900895992009F3D9CF90E0E5EAF1E005
:1012E00091119FEF8FEF91939193919391938150EF
:1012F000D0F7E1E0F6E0128A118A108A1786089585
:10130000CF93DF9390E0FC01EE5EFE4E24918D5072
:101310009F4EFC0184918823C1F090E0880F991FB3
:10132000FC01EB51FF4EC591D491FC01E952FF4EF7
:10133000A591B4919FB7F8943881822F809583232B
:101340008883EC91E22BEC939FBFDF91CF910895BE
:10135000FC018091A401882311F13FB7F89482E049
:101360008093E9002091F200822F90E01816190670
:1013700014F481E090E0882339F0289844E6409303
:10138000A3014091F1004083222339F02091F20023
:10139000211103C02BE62093E8003FBF08958FEF93
:1013A0009FEF08952FB7F89483E08093E900909120
:1013B000E800892F807295FF04C09091F20080E4CC
:1013C000891B2FBF089580919B0181110DC082E080
:1013D0008093970184E08093980110929A01109273
:1013E000990181E080939B0187E991E00895CF9373
:1013F000DF931F92CDB7DEB76983DC01ED91FC91DD
:101400000280F381E02D41E050E0BE016F5F7F4F2D
:1014100009950F90DF91CF91089583E08093E900C3
:101420008091F200882319F08AE38093E800089500
:101430000E94D20990E00895CF93DF931F92CDB719
:10144000DEB7FC018485958597FD08C02FEF3FEF3F
:10145000358724870F90DF91CF910895CE010196B3
:101460000E94A809019719F4898190E0F3CF8FEFCA
:101470009FEFF0CF0F931F93CF93DF931F92CDB7C2
:10148000DEB78C01FC018485958597FF0BC0CE01EA
:1014900001960E94A809019771F4898190E0F801F2
:1014A00095878487F801848595850F90DF91CF918A
:1014B0001F910F9108958FEF9FEFF1CFFC0184856D
:1014C000958597FD0BC09FB7F89482E08093E90063
:1014D0008091F2009FBF90E0019608959FB7F89425
:1014E00082E08093E9008091F2009FBF90E0089530
:1014F000409191015091920120918F013091900182
:1015000042175307B4F49091E8009570E1F390917D
:10151000E80092FD19C08093F100809191019091B3
:10152000920101968F739927892B19F48EEF80937E
:10153000E80080919101909192010196909392011F
:101540008093910181E0089580E00895DF92EF9209
:10155000FF920F931F93CF93DF93D82E8A01EB0155
:101560007B01E40EF51ECE15DF0559F0D7FE12C043
:10157000FE0184910E94780A21968111F4CF0FEF29
:101580001FEFC801DF91CF911F910F91FF90EF9056
:10159000DF9008958881EECF0F931F93CF93DF9351
:1015A0001F92CDB7DEB782E0898342E450E06BE65C
:1015B00070E180E80E94A60A0E94E309DC0112960D
:1015C0000D911C910115110589F0D801ED91FC9147
:1015D0000280F381E02DBE016F5F7F4FC801099546
:1015E00097FD04C0F80100851185ECCF89810F902B
:1015F000DF91CF911F910F910895615030F02091AC
:10160000F100FC0120830196F8CF289884E68093AE
:10161000A30108950895AF92BF92CF92DF92EF9207
:10162000FF920F931F93CF93DF936C017B018B018C
:10163000040F151FEB015E01AE18BF08C017D107DC
:1016400059F06991D601ED91FC910190F081E02D66
:10165000C6010995892B79F7C501DF91CF911F91BB
:101660000F91FF90EF90DF90CF90BF90AF900895D3
:10167000282F30E0F901E654FA4F9491F901EE5E1B
:10168000FE4E84912D503F4EF9012491222309F4FE
:101690005BC09923E9F091509F30D0F4E92FF0E03E
:1016A000EC5AF44F0C944A1C7F0B830B630B770BA3
:1016B0007B0B680B680B680B860B8C0B900B940BE9
:1016C0009A0B680B9E0B909180009F7790938000FF
:1016D000E22FF0E0EE0FFF1FE455FA4FA591B49111
:1016E000EC91E82381E090E089F580E00895909105
:1016F00080009F7DEBCF90918000977FE7CF94B5DE
:101700009F7794BDE5CF94B59F7DFBCF90919000DE
:101710009F7790939000DCCF909190009F7DF9CFC0
:1017200090919000977FF5CF9091C0009F77909314
:10173000C000CECF9091C0009F7DF9CF9091C200A4
:10174000977F9093C200C4CF80E090E008953FB7A8
:10175000F8948091610190916201A0916301B09130
:10176000640126B5A89B05C02F3F19F00196A11D65
:10177000B11D3FBFBA2FA92F982F8827BC01CD01DB
:10178000620F711D811D911D42E0660F771F881F3A
:10179000991F4A95D1F708958F929F92AF92BF9269
:1017A000CF92DF92EF92FF926B017C010E94A70B18
:1017B0004B015C01C114D104E104F104B9F00E94B1
:1017C000A70B681979098A099B09683E734081054E
:1017D000910580F321E0C21AD108E108F10888EEF2
:1017E000880E83E0981EA11CB11CE4CFFF90EF90FF
:1017F000DF90CF90BF90AF909F908F9008958F9281
:101800009F92AF92BF92CF92DF92EF92FF920F938F
:101810001F93CF93DF936C017B018A0180910B01B1
:10182000882309F45CC08091A401882309F457C07F
:101830008091960180FF05C08091E00082608093D6
:10184000E000E801B12C8AEFA82E93E0892E2AE36C
:10185000922E209711F4BB20D9F10E94D209811158
:101860000AC0AA94AA20D9F161E070E080E090E07B
:101870000E94CC0BEECF8C171D0611F00CF08C2FB4
:101880009FB7F8948092E9002091E80025FD02C0FE
:101890009FBFDFCF282F30E0C21BD30BF701815051
:1018A00020F041914093F100FACFE20EF31EBB20ED
:1018B00021F09092E800B12CEBCF8091E80085FDFB
:1018C000E7CF9092E800BB24B394209709F3F3CFBD
:1018D0005D9884E680939501101611063CF081E036
:1018E00090E0F6019383828310E000E0C801DF916D
:1018F000CF911F910F91FF90EF90DF90CF90BF900D
:10190000AF909F908F9008952D9A0895BC0190E01C
:1019100080E00C94CC0B8FB18095807F669B8860B3
:101920001C9B846008952F923F924F925F926F921A
:101930007F928F929F92AF92BF92CF92DF92EF925F
:10194000FF920F931F93CF93DF9300D000D01F928D
:10195000CDB7DEB79C838B836A3059F5DC01559691
:101960008C91B8E08B9F90011124EB81FC818189DF
:101970009289820F931F928B818B108A178681E048
:1019800090E00F900F900F900F900F90DF91CF91FC
:101990001F910F91FF90EF90DF90CF90BF90AF908D
:1019A0009F908F907F906F905F904F903F902F907F
:1019B00008956D3021F3AB81BC811F968D919C9170
:1019C0005097803891050CF087C05196CD90DC90EF
:1019D000B0E4CB16D1040CF07FC0EB81FC8195887C
:1019E000E5E09C019E9E200D311D11241216130668
:1019F0000CF072C0E92CF12C9701B3E0220F331FD9
:101A0000BA95E1F72C0D3D1D121613060CF064C0BB
:101A1000AB81BC8154965C90549753964C906E9FCA
:101A2000F0011124E455FF4F70E02491753009F462
:101A300020E05601A8E06A2E222E312C642D20FFD2
:101A4000652D611103C0541409F437C0AC016170F5
:101A50006A834983242F281B291578F510E000E0BC
:101A6000091540F54038510510F598012A0D3B1D28
:101A700020343105E0F460E1762E898061E021FDBB
:101A800064E020FD660F22FD6295287F729ED001E2
:101A90001124A80D6D83AB55BE4F2C913A81862E33
:101AA000822A311103C08D80809482228C920F5F34
:101AB0001F4FD6CF4F5F5F4FCCCF91013595279504
:101AC0006A94AE0CBF1C6110B7CF7F5F31968E0D4C
:101AD0009F1D763009F0A9CFAB81BC8155962C9122
:101AE0005597422F50E01F968D919C91B6E02B9F09
:101AF000800D911D1124EB81FC81908B87872689B5
:101B0000222309F43CCF6AEF64039001659F300DF6
:101B1000112420583F4F281739070CF030CFCF0140
:101B20000190F081E02D0190F081E02D6AE00995AF
:101B300026CF089590E080E00895809183019091F0
:101B40008401099769F48091690190916A011816DE
:101B5000190634F488E090E0909384018093830127
:101B60008091830190918401089769F480916B01C1
:101B700090916C011816190634F487E090E0909368
:101B80008401809383018091830190918401079760
:101B900069F480916D0190916E011816190634F464
:101BA00086E090E09093840180938301809183018B
:101BB00090918401069769F480916F019091700172
:101BC0001816190634F485E090E090938401809310
:101BD00083018091830190918401059769F480913C
:101BE0007101909172011816190634F484E090E0A6
:101BF000909384018093830180918301909184016B
:101C0000049769F480917301909174011816190674
:101C100034F483E090E09093840180938301809179
:101C2000830190918401039769F4809175019091EB
:101C300076011816190634F482E090E0909384013E
:101C4000809383018091830190918401029769F4CC
:101C500080917701909178011816190634F481E08B
:101C600090E090938401809383018091830190910F
:101C70008401019769F48091790190917A01181695
:101C8000190634F489E090E09093840180938301F5
:101C90008091830190918401099769F48091690191
:101CA00090916A011816190634F488E090E0909338
:101CB000840180938301809183019091840108972E
:101CC00069F480916B0190916C011816190634F437
:101CD00087E090E090938401809383018091830159
:101CE00090918401079769F480916D0190916E0144
:101CF0001816190634F486E090E0909384018093DE
:101D000083018091830190918401069769F4809109
:101D10006F01909170011816190634F485E090E077
:101D20009093840180938301809183019091840139
:101D3000059769F480917101909172011816190646
:101D400034F484E090E09093840180938301809147
:101D5000830190918401049769F4809173019091BB
:101D600074011816190634F483E090E0909384010E
:101D7000809383018091830190918401039769F49A
:101D800080917501909176011816190634F482E05D
:101D900090E09093840180938301809183019091DE
:101DA0008401029769F48091770190917801181667
:101DB000190634F481E090E09093840180938301CC
:101DC0008091830190918401019769F48091790158
:101DD00090917A011816190634F489E090E09093F6
:101DE00084018093830108958091830190918401FF
:101DF000019769F48091790190917A01181619067A
:101E000034F482E090E09093840180938301809188
:101E1000830190918401029769F4809177019091F8
:101E200078011816190634F483E090E09093840149
:101E3000809383018091830190918401039769F4D9
:101E400080917501909176011816190634F484E09A
:101E500090E090938401809383018091830190911D
:101E60008401049769F480917301909174011816AC
:101E7000190634F485E090E0909384018093830107
:101E80008091830190918401059769F4809171019B
:101E9000909172011816190634F486E090E0909340
:101EA000840180938301809183019091840106973E
:101EB00069F480916F01909170011816190634F43D
:101EC00087E090E090938401809383018091830167
:101ED00090918401079769F480916D0190916E0152
:101EE0001816190634F488E090E0909384018093EA
:101EF00083018091830190918401089769F4809116
:101F00006B0190916C011816190634F489E090E089
:101F10009093840180938301809183019091840147
:101F2000099769F48091690190916A011816190660
:101F300034F481E090E090938401809383010895CC
:101F4000FC0101900020E9F73197AF01481B590BC4
:101F5000BC0181E096E00C940B0B0C94FD1B0E94DD
:101F6000321EFC0180819181009711F00C94EC1CD1
:101F700008950F931F93CF93DF938C01EB01FC0126
:101F8000808191810097E1F0688179816115710507
:101F9000A9F0428153812C813D814217530770F093
:101FA0000E94401E8C819D81F801958384831D824F
:101FB0001C82DF91CF911F910F9108950E94EC1C1C
:101FC00088819981F801918380838A819B819383A1
:101FD00082838C819D8195838483198218821B82E0
:101FE0001A82E5CFEF92FF920F931F93CF93DF9367
:101FF000EC017B018A0188819981009729F02A816F
:102000003B812417350788F4B8016F5F7F4F0E942A
:10201000751D009791F0998388831B830A832C8117
:102020003D81232B11F4FC0110821D830C83B70129
:10203000888199810E94401E0CC0888199810097F7
:1020400011F00E94EC1C198218821D821C821B82D6
:102050001A82CE01DF91CF911F910F91FF90EF90E7
:102060000895EF92FF920F931F93CF93DF93CDB715
:10207000DEB762970FB6F894DEBF0FBECDBF8C01FE
:10208000CB01F80111821082138212821582148210
:102090004AE09E012F5F3F4F7901B9010E94C81BA2
:1020A000F70101900020E9F73197AF014E195F0960
:1020B000B701C8010E94F20F62960FB6F894DEBF16
:1020C0000FBECDBFDF91CF911F910F91FF90EF9089
:1020D00008951F920F920FB60F9211248F939F9322
:1020E0008091E1009091E100937F9093E10083FF64
:1020F0000FC01092E90091E09093EB001092EC0079
:1021000092E39093ED001092A40198E09093F00078
:1021100082FF22C093E09093E9009091F20099230E
:1021200019F09AE39093E80090919501992341F07A
:1021300090919501915090939501911101C05D9AF4
:102140009091A301992341F09091A3019150909314
:10215000A301911101C0289A84FF18C08091E20068
:102160008E7E81608093E2008091E1008F7E80937B
:10217000E100809196018E7E8061809396019F910F
:102180008F910F900FBE0F901F90189580FFF7CF83
:102190008091E2008E7E80618093E2008091E10078
:1021A0008E7E8093E100809196018E7E8160E5CFE6
:1021B0001F920F920FB60F921124CF92DF92EF92DF
:1021C000FF920F931F932F933F934F935F936F93C0
:1021D0007F938F939F93AF93BF93EF93FF93CF938F
:1021E000DF93CDB7DEB76C97DEBFCDBF1092E900AD
:1021F0008091E80083FF25C068E0CE0145960E94EB
:10220000FD0A82EF8093E8008D8987FF39C09091A5
:10221000E80090FFFCCF982F907609F034C19E899A
:102220004F89588D2F89F88C911131C0803861F514
:10223000809194018093F1001092F1008EEF8093D1
:10224000E8006C960FB6F894DEBF0FBECDBFDF91ED
:10225000CF91FF91EF91BF91AF919F918F917F911E
:102260006F915F914F913F912F911F910F91FF902F
:10227000EF90DF90CF900F900FBE0F901F901895AA
:102280009EEF9093E800C7CF1092F100D5CF913028
:1022900059F48111D3CF4130510581F680919401D9
:1022A0008D7F80939401CACF933049F48111C6CFBA
:1022B0004130510519F6809194018260F2CF95303A
:1022C00041F48091E80080FFFCCF20682093E30078
:1022D000B5CF963009F0A9C00B8D1C8D22E010926D
:1022E000E9001092920110929101F2122EC0109208
:1022F000900110928F010E94CC0A1F8299E099836D
:10230000FA8291E09E8390EA98879AEF99872091CC
:10231000910130919201275F3F4F3C832B838D8346
:102320001092E90010929201109291011093900185
:1023300000938F0149E050E0BE016F5F7F4F80E066
:102340000E94A60A0E94CC0A79CF109390010093B4
:102350008F010E94E309DC0112960D911C91011579
:10236000110509F451C1D801ED91FC910480F5816A
:10237000E02DBE016B5E7F4FC8010995009709F003
:102380003EC1F80100851185EACFF3E0FF120EC0CF
:102390008F89882309F440C0823061F440E867E007
:1023A0008FEC90E10E945413811148CF81E2809319
:1023B000EB0047CF813029F440E86BE083EC90E1FB
:1023C000F1CF833099F70E94E309DC011296ED907A
:1023D000FC908E010F5F1F4F6801E114F10479F04A
:1023E000D701ED91FC910680F781E02DB801C7017E
:1023F0000995080F111DF701E084F184EECFD80193
:102400001C92F60101900020E9F73197BF016C1989
:102410007D0940E0C601C6CF6DEA70E1FB01449141
:1024200050E080E80E94A60A09CF973009F4BECF99
:10243000983021F481E08093F10000CF993009F0C9
:10244000FDCE837009F0B2CFE3E1F1E081E031E04D
:1024500096E32191222371F08093E9003093EB0001
:10246000DF0111972C912093EC009093ED008F5F8A
:10247000873079F78EE78093EA001092EA008F891F
:102480008093A401DBCE8B8D9C8D1092E90010927D
:102490009201109291019093900180938F01898D08
:1024A000811192C08E899D89913A49F4813209F057
:1024B0007DCF47E050E064E071E080E0B3CF91323F
:1024C00009F074CF833269F48F89988DB0E0A0E071
:1024D0008093000190930101A0930201B093030146
:1024E000ADCE803269F48091E80082FFFCCF67E0D6
:1024F00084E091E00E94FD0A8BEF8093E8009ECE7D
:10250000823209F09BCE8F8980930B01EEEFFFE7BB
:10251000859194918B3F9C4D51F1E0E0F8E08091E2
:10252000040190910501A0910601B0910701803B43
:102530009440A105B105F1F480910B0180FD1AC012
:10254000EE3F8AE0F80789F587E797E79183808374
:10255000809160008093930188E19BE00FB6F8942E
:10256000A895809360000FBE9093600067CEEEEF59
:10257000FAE0D5CF808191818737974709F05ECE09
:10258000A89580916000886180936000809193019C
:1025900080936000EE3F2AE0F20789F08091FE0A06
:1025A0009091FF0A9183808349CE80819181873702
:1025B000980751F29093FF0A8093FE0AC5CF1092BC
:1025C000FF0A1092FE0A3ACE0E94E309DC0112963D
:1025D0000D911C910115110509F4E8CED801ED917A
:1025E000FC910190F081E02DBE016B5E7F4FC80130
:1025F0000995811123CEF80100851185EBCF1816BE
:1026000019060CF41BCED2CEF1E0FF12BECE61EB68
:1026100070E104CF1F920F920FB60F9211242F93E7
:102620003F938F939F93AF93BF9380916501909158
:102630006601A0916701B09168013091600123E0CB
:10264000230F2D3758F50196A11DB11D2093600170
:102650008093650190936601A0936701B093680130
:102660008091610190916201A0916301B091640138
:102670000196A11DB11D8093610190936201A09309
:102680006301B0936401BF91AF919F918F913F918E
:102690002F910F900FBE0F901F90189526E8230FD3
:1026A0000296A11DB11DD2CFEF92FF920F931F93FF
:1026B000CF93DF93F82E192FE62E042F81E0860F9B
:1026C000880F0E94780A83E00E94780ACF2DD12FCC
:1026D000EC0EFD2EF11CCE15DF05B9F007FF13C07F
:1026E000FE0184910E94780A182F80E00E94780AE7
:1026F000812321968111EFCFDF91CF911F910F910F
:10270000FF90EF9008958881EDCF81E0F5CF0F9392
:102710001F93CF93DF938C0181E090E00E94AD0F77
:1027200080FF31C08AE090E00E94AD0F9FEF980FCC
:102730009E3F48F522E330E0D80150963C932E931B
:102740001F9728E330E052963C932E935197CBE0AD
:10275000D0E0D801ED91FC910190F081E02D682F3F
:10276000C8010995CE010E94AD0F2196C131D10556
:1027700081F70E94E10888EE93E0DF91CF911F91ED
:102780000F910C94860CDF91CF911F910F910895BA
:1027900004970C948713E5EAF5E01382128288EE21
:1027A00093E0A0E0B0E084839583A683B7838DE1B6
:1027B00091E0918380838FEF9FEF95878487E1E09D
:1027C000F6E0138212821186128680E183871086DA
:1027D000178215868FE291E0918380838DE391E0EB
:1027E00095838483108A1786128A118A81E0838BED
:1027F000148A858B168AEBEFF5E011821082138222
:1028000012821582148241E050E06FE371E0CF0143
:102810000E94F20FE5EFF5E011821082138212821E
:102820001582148241E050E06FE371E0CF010C9417
:10283000F20FCF93DF9300D000D000D0CDB7DEB73A
:10284000789484B5826084BD84B5816084BD85B58B
:10285000826085BD85B5816085BD80916E00816097
:1028600080936E001092810080918100826080933D
:10287000810080918100816080938100809180003F
:1028800081608093800080919100826080939100AC
:10289000809191008160809391008091900081608F
:1028A000809390008091C10084608093C1008091EA
:1028B000C10082608093C1008091C10081608093DB
:1028C000C1008091C30081608093C3008091C000EB
:1028D00082608093C0008091C20081608093C200BA
:1028E00080917A00846080937A0080917A0082607F
:1028F00080937A0080917A00816080937A00809141
:102900007A00806880937A001092A401109294015A
:10291000109296018091D70081608093D70080EA61
:102920008093D80089B5806189BD89B5826089BDF1
:1029300009B400FEFDCF61E070E080E090E00E940D
:10294000CC0B8091D8008F7C80618093D8008091DF
:10295000E000807F8093E0008091E1008E7E809394
:10296000E1008DE08093E200559A209A81EC8093FB
:102970007C0081E785B987E684B985E38BB98FE36D
:102980008AB9769A6E9880EF81BB10BA80E58CBDCB
:1029900081E08DBD85E090E00E94860C599902C0CF
:1029A000599AF8CF5C98E9E8F6E09AE085918EBDF7
:1029B00000000DB407FEFDCF8EB59A95B9F75C9A6D
:1029C00081E88093640081E0809365000E94C508DF
:1029D0000E948B0C87FF16C05C9885EA8EBD0000B4
:1029E0000DB407FEFDCF8EB55C9A2E9858982D98A1
:1029F0008091640080628093640081E083BF889549
:102A000013BEFCCF0E948B0C82FF48C02D980E9401
:102A10008B0C84788438E1F40E94840C88EC90E07C
:102A20000E94860C589882E090E00E94FD1B8F3F28
:102A300029F06FEF82E090E00E94051C84EF91E0A6
:102A40000E94860C589A0E948B0C84788438D9F3A3
:102A50000E948B0C84718431E1F40E94840C88EC18
:102A600090E00E94860C2E9882E090E00E94FD1B70
:102A7000882329F060E082E090E00E94051C84EF4A
:102A800091E00E94860C2E9A0E948B0C84718431F6
:102A9000D9F388EC90E00E94860CB4CF0E94840C9D
:102AA00082E090E00E94AD0F882309F4A4C03E9A12
:102AB000579A81E090E00E94AD0F182F147081FFAB
:102AC0000EC011112E9870EFE72EFF24FA940E9489
:102AD0008B0C86FF93C02E9A589A0E94840C82E336
:102AE00090E00E94860C0E948B0C8111F8CF88E246
:102AF00080930C060E946D0983E10E94800984E1A5
:102B00000E94800987E00E94800981E090E0909314
:102B100084018093830190937E0180937D01809353
:102B200016068093140668E873E180E090E00E9446
:102B3000CC0B00E324E543E956E070E060E084E17B
:102B400090E00E94E408109211061092100682E3B1
:102B500090E0909313068093120681E491E00E9426
:102B6000A00F0E94E10868E873E180E090E00E9415
:102B7000CC0B0E946D0924E54BE75CE070E060E05F
:102B800090E080E00E94E4080E94E10827E3422EE2
:102B9000512C34E2E32EF12C66246394712C59E01D
:102BA000252E312C67E4C62ED12C87E2A82EB12C1D
:102BB00094E1892E912C8FB7F89440916501509142
:102BC000660160916701709168018FBF80910D0669
:102BD000942F981B892F90910E06992309F43FC0DA
:102BE00080930F0610920E0680E090E0892B19F377
:102BF0000E940000DACF3E9857985BCF112331F046
:102C000084E0E816F10411F42E9A589881E00E94AD
:102C1000C50800E128E549ED55E0B70184E190E001
:102C20000E94E4080E94E1088FE090E00E94860C78
:102C30009FEFE91AF90A89E1E816F10409F047CF94
:102C4000112311F0589A2D9880E991E00E94860C8A
:102C50000E94840C81E096E00E94871340CF9091FF
:102C60000C06891748F48F5F891708F0BDCF81E003
:102C700083BF889513BEB8CF81E080930E06409342
:102C80000D06809108069091090601969093090619
:102C90008093080660918D0170918E01CE0101969E
:102CA0000E943110BE016F5F7F4F8BEF95E00E9455
:102CB000B90FCE0101960E94B10F60918B01709106
:102CC0008C01CE0101960E943110BE016F5F7F4FD3
:102CD00085EF95E00E94B90FCE0101960E94B10FD9
:102CE00083E10E94380B90938A018093890184E1EB
:102CF0000E94380B909388018093870187E00E949F
:102D0000380B909386018093850180918301909187
:102D10008401019771F48091790190917A011816DC
:102D200019060CF0DFC382E090E090938401809359
:102D300083018091830190918401029771F48091C5
:102D4000770190917801181619060CF0E4C383E01E
:102D500090E090938401809383018091830190910E
:102D60008401039771F48091750190917601181692
:102D700019060CF0E9C384E090E0909384018093FD
:102D800083018091830190918401049771F4809173
:102D9000730190917401181619060CF0EEC385E0CA
:102DA00090E09093840180938301809183019091BE
:102DB0008401059771F48091710190917201181648
:102DC00019060CF0F1C386E090E0909384018093A3
:102DD00083018091830190918401069771F4809121
:102DE0006F0190917001181619060CF0F4C387E07A
:102DF00090E090938401809383018091830190916E
:102E00008401079771F480916D0190916E011816FD
:102E100019060CF0F7C388E090E09093840180934A
:102E200083018091830190918401089761F48091DE
:102E30006B0190916C01181619060CF0FAC33092D0
:102E400084012092830180918301909184010997EC
:102E500061F48091690190916A01181619060CF0CD
:102E6000FFC37092840160928301209179013091B7
:102E70007A012130310569F48091770190917801D0
:102E8000019739F48091750190917601019709F4C9
:102E900077C060917301709174016130710569F4BC
:102EA0008091710190917201019739F480916F01C5
:102EB00090917001019709F463C080916D01909128
:102EC0006E018130910579F440916B0150916C0154
:102ED0004130510541F44091690150916A014130FE
:102EE000510509F44DC02130310571F44091710153
:102EF000509172014130510539F44091690150916E
:102F00006A0141305105E1F140917501509176011E
:102F10004130510549F4E0917101F091720131970E
:102F200019F48130910561F12130310529F46130C6
:102F3000710511F4019721F1809177019091780149
:102F4000019761F48091710190917201019731F4C0
:102F500080916B0190916C01019791F04130510586
:102F600009F060C080916F0190917001019709F0A4
:102F700059C08091690190916A01019709F052C08E
:102F800068EE73E080E090E00E94CC0B00E324E563
:102F900043E75EE070E060E090E080E00E94E408DB
:102FA0000E94E10880918D0190918E01019690938D
:102FB0008E0180938D0168E873E180E090E00E94CB
:102FC000CC0B10927A011092790110927801109234
:102FD000770110927601109275011092740110928F
:102FE000730110927201109271011092700110928F
:102FF0006F0110926E0110926D0110926C0110928F
:103000006B0110926A011092690124E54BE75CE0C4
:1030100070E060E090E080E00E94E408709284013B
:10302000609283012091790130917A01223031053B
:1030300069F48091770190917801029739F4809139
:10304000750190917601029709F477C06091730140
:10305000709174016230710569F4809171019091F1
:103060007201029739F480916F019091700102977B
:1030700009F463C080916D0190916E0182309105D9
:1030800079F440916B0150916C014230510541F44B
:103090004091690150916A014230510509F44DC0D7
:1030A0002230310571F4409171015091720142302A
:1030B000510539F44091690150916A01423051053E
:1030C000E1F140917501509176014230510549F48A
:1030D000E0917101F0917201329719F482309105FB
:1030E00061F12230310529F46230710511F4029743
:1030F00021F18091770190917801029761F480919C
:10310000710190917201029731F480916B0190915D
:103110006C01029791F04230510509F060C0809136
:103120006F0190917001029709F059C08091690177
:1031300090916A01029709F052C068EE73E080E056
:1031400090E00E94CC0B00E324E543E85AE070E0F5
:1031500060E090E080E00E94E4080E94E108809135
:103160008B0190918C01019690938C0180938B013F
:1031700068E873E180E090E00E94CC0B10927A0145
:1031800010927901109278011092770110927601D5
:1031900010927501109274011092730110927201D5
:1031A000109271011092700110926F0110926E01D5
:1031B00010926D0110926C0110926B0110926A01D5
:1031C0001092690124E54BE75CE070E060E090E07C
:1031D00080E00E94E40870928401609283018091F3
:1031E000790190917A01181619060CF089C0809126
:1031F000770190917801181619060CF081C0809122
:10320000750190917601181619060CF079C080911D
:10321000730190917401181619060CF071C0809119
:10322000710190917201181619060CF069C0809115
:103230006F0190917001181619060CF061C0809111
:103240006D0190916E01181619060CF059C080910D
:103250006B0190916C01181619060CF051C0809109
:10326000690190916A01181619060CF049C068EEC0
:1032700073E080E090E00E94CC0B00E324E54BE893
:1032800058E070E060E090E080E00E94E4080E9476
:10329000E10868E873E180E090E00E94CC0B1092B6
:1032A0007A011092790110927801109277011092B0
:1032B00076011092750110927401109273011092B0
:1032C0007201109271011092700110926F011092B0
:1032D0006E0110926D0110926C0110926B011092B0
:1032E0006A011092690124E54BE75CE070E060E060
:1032F00090E080E00E94E408709284016092830173
:1033000010921106109210068DE090E09093130633
:10331000809312064091FF05509100066091FB05D5
:103320007091FC0581E096E00E940B0B1092110653
:1033300010921006F0921306E09212064091F905E1
:103340005091FA056091F5057091F60581E096E0DF
:103350000E940B0B8091870190918801892B69F560
:10336000809181019091820120917F0130918001B3
:1033700040918301509184013093110620931006EF
:10338000909313068093120689E591E04130510530
:1033900009F47DC10E94A00F809183019091840166
:1033A000019790938401809383010E949D0D6CE2AC
:1033B00071E080E090E00E94CC0B809189019091B7
:1033C0008A01892B69F58091810190918201209178
:1033D0007F013091800140918301509184013093AD
:1033E000110620931006909313068093120689E528
:1033F00091E04930510509F451C10E94A00F80911C
:1034000083019091840101969093840180938301BC
:103410000E94F40E6CE271E080E090E00E94CC0B20
:103420008091850190918601892B09F0DDCB8091F7
:103430007D0190917E0181309105C1F490937C01D2
:1034400080937B01809181019091820120917F0185
:10345000309180013093110620931006909313064B
:10346000809312068BE591E00E94A00F80917D0170
:1034700090917E0182309105C1F490937C018093FC
:103480007B01809181019091820120917F01309197
:1034900080013093110620931006909313068093B9
:1034A00012068DE591E00E94A00F8091830190911A
:1034B00084018130910509F0F8C020917B013091A1
:1034C0007C0130937A01209379018630910509F0CF
:1034D00003C180917B0190917C0190937001809356
:1034E0006F0129C1B0928001A0927F0184E090E039
:1034F0009093820180938101B0921106A0921006F0
:10350000909313068093120687E591E00E94A00F26
:103510000E94E1080ECC5092800140927F0184E02D
:1035200090E0909382018093810150921106409225
:103530001006909313068093120687E591E00E948F
:10354000A00F0E94E10809CCD0928001C0927F01B7
:1035500084E090E09093820180938101D0921106E3
:10356000C0921006909313068093120687E591E0AF
:103570000E94A00F0E94E10804CCB0928001A092AA
:103580007F019092820180928101B0921106A092F7
:103590001006909213068092120687E591E00E9431
:1035A000A00F0E94E10801CC5092800140927F015F
:1035B00090928201809281015092110640921006F1
:1035C000909213068092120687E591E00E94A00F68
:1035D0000E94E108FECBD0928001C0927F019092C0
:1035E000820180928101D0921106C09210069092C1
:1035F00013068092120687E591E00E94A00F0E94B8
:10360000E108FBCBB0928001A0927F01F092820191
:10361000E0928101B0921106A0921006F09213067A
:10362000E092120687E591E00E94A00F0E94E10857
:10363000F8CB5092800140927F01F0928201E0929B
:1036400081015092110640921006F0921306E0920A
:10365000120687E591E00E94A00F0E94E108F3CBDB
:10366000D0928001C0927F01F0928201E0928101AC
:10367000D0921106C0921006F0921306E092120644
:1036800087E591E00E94A00F0E94E108EECB0E9426
:10369000A00F309284012092830187CE0E94A00F58
:1036A0007092840160928301B3CE8230910549F417
:1036B00020917B0130917C01309378012093770138
:1036C00004CF83309105A1F420917B0130917C01DE
:1036D000309376012093750187309105A1F4809194
:1036E0007B0190917C0190936E0180936D0123C0CA
:1036F00084309105A1F420917B0130917C013093BD
:103700007401209373018830910551F580917B01FC
:1037100090917C0190936C0180936B010CC085307B
:10372000910509F0D2CE80917B0190917C0190931C
:103730007201809371010E94E10864EF71E080E002
:1037400090E00E94CC0B80917D0190917E010196CA
:103750008330910581F090937E0180937D0144CA6E
:10376000099749F780917B0190917C0190936A01C0
:1037700080936901E0CF70927E0160927D0134CA2E
:1037800085EF95E00E94B10F8BEF95E00C94B10F9F
:10379000BB274A3031F4992322F4BDE290958195FC
:1037A0009F4F0C94D41BBB27FB015527AA27880FDA
:1037B000991FAA1FA41710F0A41B83955051B9F7A5
:1037C000A05DAA3308F0A95DA193009779F7B11124
:1037D000B1931192CB010C94ED1BDC01FC01672F1E
:1037E00071917723E1F7329704C07C916D937083D8
:1037F0006291AE17BF07C8F30895F999FECF92BD45
:1038000081BDF89A992780B50895262FF999FECFA2
:103810001FBA92BD81BD20BD0FB6F894FA9AF99AED
:103820000FBE019608952F923F924F925F926F9232
:103830007F928F929F92AF92BF92CF92DF92EF9240
:10384000FF920F931F93CF93DF93CDB7DEB7CA1BC1
:10385000DB0B0FB6F894DEBF0FBECDBF09942A88EC
:10386000398848885F846E847D848C849B84AA8494
:10387000B984C884DF80EE80FD800C811B81AA8121
:10388000B981CE0FD11D0FB6F894DEBF0FBECDBFEC
:10389000ED010895EE0FFF1F0590F491E02D0994BE
:1038A0000F931F93CF93DF938230910510F482E042
:1038B00090E0E0911A06F0911B0630E020E0B0E0C5
:1038C000A0E0309799F42115310509F44AC0281B6E
:1038D000390B24303105D8F58A819B81611571053A
:1038E00089F1FB0193838283FE0111C040815181E4
:1038F0000281138148175907E0F04817590799F4D6
:10390000109761F012960C93129713961C933296AF
:10391000CF01DF91CF911F910F91089500931A0667
:1039200010931B06F4CF2115310551F042175307B0
:1039300038F0A901DB019A01BD01DF01F801C1CF17
:10394000EF01F9CF90931B0680931A06CDCFFE01AD
:10395000E20FF31F81939193225031093983288319
:10396000D7CF2091180630911906232B41F42091CE
:103970000E0130910F013093190620931806209103
:103980000C0130910D012115310541F42DB73EB7E1
:103990004091100150911101241B350BE091180644
:1039A000F0911906E217F307A0F42E1B3F0B28171E
:1039B000390778F0AC014E5F5F4F2417350748F0A8
:1039C0004E0F5F1F509319064093180681939193F1
:1039D0009FCFF0E0E0E09CCFCF93DF930097E9F03A
:1039E000FC01329713821282A0911A06B0911B0635
:1039F000ED0130E020E01097A1F420813181820FA9
:103A0000931F20911806309119062817390709F0DD
:103A100061C0F0931906E0931806DF91CF910895E5
:103A2000EA01CE17DF07E8F54A815B819E01411567
:103A30005105B1F7E901FB83EA8349915991C40F1C
:103A4000D51FEC17FD0761F4808191810296840FE8
:103A5000951FE90199838883828193819B838A835F
:103A6000F0E0E0E012968D919C9113970097B9F5E4
:103A70002D913C911197CD010296820F931F2091B9
:103A80001806309119062817390739F6309751F57D
:103A900010921B0610921A06B0931906A0931806EE
:103AA000BCCFD383C28340815181840F951FC81737
:103AB000D90761F44E5F5F4F88819981480F591F84
:103AC000518340838A819B819383828321153105B1
:103AD00009F0B0CFF0931B06E0931A069ECFFD01CC
:103AE000DC01C0CF13821282D7CFB0E0A0E0EBE7B9
:103AF000FDE10C94151C8C01009751F4CB010E9440
:103B0000501C8C01C801CDB7DEB7E0E10C94311C2C
:103B1000FC01E60FF71F9C0122503109E217F30761
:103B200008F49DC0D901CD91DC911197C617D70734
:103B300098F0C530D10530F3CE010497861797076A
:103B400008F3C61BD70B2297C193D1936D937C9337
:103B5000CF010E94EC1CD6CF5B01AC1ABD0A4C0110
:103B60008C0E9D1EA0911A06B0911B06512C412C63
:103B7000F12CE12C109731F58091180690911906DF
:103B80008815990509F05CC04616570608F058C01C
:103B900080910C0190910D01009741F48DB79EB773
:103BA0004091100150911101841B950BE817F90702
:103BB00008F055C0F0931906E0931806F9017183D7
:103BC0006083A0CF8D919C91119712966C90129763
:103BD00013967C901397A815B90559F56C0142E02E
:103BE000C40ED11CCA14DB0420F1AC014A195B09D4
:103BF000DA011296159780F06282738251834083B6
:103C0000D9016D937C93E114F10471F0D7011396FF
:103C1000FC93EE93129776CF22968C0F9D1FF9019D
:103C200091838083F301EFCFF0931B06E0931A0694
:103C300069CF4816590608F42C017D01D3019ACFAB
:103C4000CB010E94501C7C01009749F0AE01B801E5
:103C50000E94371EC8010E94EC1C870153CF10E060
:103C600000E050CF81E090E0F8940C94471EFB01F7
:103C7000DC0102C001900D9241505040D8F70895E8
:103C8000FB01DC0101900D920020E1F7089518E09E
:103C9000CAE9D8E004C0FE010E944A1C2196CB3933
:083CA000D107C9F7F894FFCF2A
:103CA800FFFFFFFF00E100000000000000001C060D
:103CB800800000C1808100000000000000F709FFBB
:103CC8000B180A0D0A5E0A1C0A3A0A000000009343
:103CD8000C0B0B9A0D0A0B8713FCFF0000C813305E
:103CE80000436F6E74726F6C73203C203E204275E7
:103CF80074746F6E2041005F00200058004F000070
:00000001FF
