:100000000C94B8050C94E0050C94E0050C94E00504
:100010000C94E0050C94E0050C94E0050C94E005CC
:100020000C94E0050C94E0050C940D170C947C17CF
:100030000C94E0050C94E0050C94E0050C94E005AC
:100040000C94E0050C942A1A0C94E0050C94E0053D
:100050000C94E0050C94E0050C94E0050C946D19EB
:100060000C94E0050C94E0050C94E0050C94E0057C
:100070000C94E0050C94E0050C94E0050C94E0056C
:100080000C94D2190C94E0050C94E0050C94E00556
:100090000C94E0050C94E0050C94E0050C94E0054C
:1000A0000C94E0050C94E0050C94E00505A84CCDFB
:1000B000B2D44EB93836A9020C50B9918688083CA2
:1000C000A6AAAA2ABE000000803F000242D66CF415
:1000D00094D8F06040400000080C060702020300BC
:1000E000000000000002466CDCE82878E0C04040D8
:1000F000000008080D0605050301000000000000CF
:100100000000000000002030F0F8FC20202000005B
:1001100040C0E7E70040C0E0E0C06060E0E0C00051
:100120002060E0E0E0A00020E0602000000000008F
:10013000000000000000000000000F1F1F10D0C8CA
:100140000000101F1F1F10101F1F1F1000101F1F67
:100150001F1000000003CFFF0C0300000000000090
:10016000000000000000000000000000000000008F
:1001700003033F3FFCFC3030CCCCF0F03F3FF0F0CD
:10018000CCCC3030FCFC3F3F0303000000000000FB
:10019000000000000000000000000000000000005F
:1001A0000000000000000F0F0C0C3F3FF0F0CCCC23
:1001B000F0F03F3F0C0C0F0F0000000000000000AB
:1001C00000000000000000001C3C7EF2E2C2C69C61
:1001D000000002FEFFFFC06060E0E0C0000040C021
:1001E000EFEF0040C0E0E0402020E0C0800000C011
:1001F000C0E0A02060E0000000000E0C18101011FC
:100200001F0F0700101F1F1F1000101F1F1F1000BF
:10021000101F1F1F1000FFFFFF1010101F0F0700FF
:10022000001D1913131F1F0E000000000000000026
:1002300000000000000000000000000000000000BE
:10024000000000000000000203030302020000009F
:100250000000000000000000000000000001435604
:10026000EEB4145CB0E04040000010180D0E05051F
:1002700007010000000000000000003E5B4F5B3EF5
:100280003E6B4F6B3E1C3E7C3E1C183C7E3C181C5B
:10029000577D571C1C5E7F5E1C00183C1800FFE752
:1002A000C3E7FF0018241800FFE7DBE7FF30483AF8
:1002B000060E2629792926407F050507407F05255A
:1002C0003F5A3CE73C5A7F3E1C1C08081C1C3E7FE2
:1002D00014227F22145F5F005F5F06097F017F00A9
:1002E0006689956A606060606094A2FFA2940804C9
:1002F0007E040810207E201008082A1C08081C2AEA
:1003000008081E101010100C1E0C1E0C30383E3841
:1003100030060E3E0E06000000000000005F0000E8
:100320000007000700147F147F14242A7F2A122359
:100330001308646236495620500008070300001C69
:100340002241000041221C002A1C7F1C2A08083E72
:100350000808008070300008080808080000606085
:100360000020100804023E5149453E00427F4000F3
:1003700072494949462141494D331814127F1027CB
:10038000454545393C4A494931412111090736491A
:10039000494936464949291E0000140000004034EE
:1003A00000000008142241141414141400412214F3
:1003B0000802015909063E415D594E7C1211127C1A
:1003C0007F494949363E414141227F4141413E7F7B
:1003D000494949417F090909013E414151737F085B
:1003E00008087F00417F41002040413F017F081401
:1003F00022417F404040407F021C027F7F04081062
:100400007F3E4141413E7F090909063E4151215E3F
:100410007F09192946264949493203017F01033FD3
:100420004040403F1F2040201F3F4038403F631462
:1004300008146303047804036159494D43007F4164
:1004400041410204081020004141417F04020102A1
:1004500004404040404000030708002054547840C6
:100460007F284444383844444428384444287F385A
:100470005454541800087E090218A4A49C787F08DC
:1004800004047800447D40002040403D007F102857
:10049000440000417F40007C047804787C08040418
:1004A000783844444438FC1824241818242418FCB0
:1004B0007C08040408485454542404043F44243C55
:1004C0004040207C1C2040201C3C4030403C4428C4
:1004D0001028444C9090907C4464544C440008365E
:1004E00041000000770000004136080002010204CC
:1004F000023C2623263C1EA1A161123A4040207AEC
:100500003854545559215555794121545478412135
:100510005554784020545579400C1E52721239556A
:100520005555593954545459395554545800004567
:100530007C410002457D420001457C40F029242990
:10054000F0F0282528F07C545545002054547C5464
:100550007C0A097F49324949493232484848323297
:100560004A4848303A4141217A3A42402078009D39
:10057000A0A07D39444444393D4040403D3C24FFE7
:100580002424487E4943662B2FFC2F2BFF0929F694
:1005900020C0887E090320545479410000447D41E5
:1005A0003048484A32384040227A007A0A0A727D3E
:1005B0000D19317D2629292F282629292926304859
:1005C0004D4020380808080808080808382F10C8C7
:1005D000ACBA2F102834FA00007B000008142A144B
:1005E0002222142A14089500220095AA005500AA78
:1005F000AA55AA55AA000000FF00101010FF001411
:100600001414FF001010FF00FF1010F010F014146D
:1006100014FC001414F700FF0000FF00FF1414F492
:1006200004FC141417101F10101F101F1414141F93
:1006300000101010F0000000001F101010101F100C
:10064000101010F010000000FF101010101010100B
:100650001010FF10000000FF140000FF00FF00005A
:100660001F10170000FC04F414141710171414F4CE
:1006700004F40000FF00F714141414141414F70009
:10068000F7141414171410101F101F141414F4145A
:100690001010F010F000001F101F0000001F1400C9
:1006A0000000FC140000F010F01010FF10FF1414F4
:1006B00014FF141010101F00000000F010FFFFFFC7
:1006C000FFFFF0F0F0F0F0FFFFFF0000000000FF80
:1006D000FF0F0F0F0F0F38444438447C2A2A3E1472
:1006E0007E02020606027E027E026355494163389D
:1006F00044443C04407E201E2006027E020299A54E
:10070000E7A5991C2A492A1C4C7201724C304A4DAB
:100710004D303048784830BC625A463D3E494949E0
:10072000007E0101017E2A2A2A2A2A44445F444489
:1007300040514A444040444A51400000FF0103E018
:1007400080FF000008086B6B083612362436060F4F
:10075000090F06000018180000001010003040FFBC
:100760000101001F01011E00191D1712003C3C3C35
:100770003C000000000006011501260137014A0176
:100780005D01720188019F01B801D201EE010B02E7
:100790002A024B026E029302BA02E40210033F03E4
:1007A0007003A403DC03170455049704DD04270534
:1007B0007505C80520067D06E0064907B8072D081F
:1007C000A9082D09B9094D0AEA0A900B400CFA0C48
:1007D000C00D910E6F0F5A1053115B1272139A14C1
:1007E000D41520178018F519801B231DDE1EB42098
:1007F000A622B524E4263429A72B402E0031EA3363
:100800000037453ABC3D68414C456B49C84D68527C
:100810004F57805C006210111213151617181A1C1E
:100820001D1F21232527292C2E3134373A3E4145DF
:10083000494E52575C62686E757B838B939CA5AF63
:10084000B9C4D0DCE9F70000000200090F00000382
:100850000401000C00000000000000000000000087
:100860000000000000000000000000000000001870
:10087000BCFEC6C2C2C6FE3C00FCFEC6C2C2C6FE6C
:100880003C0000D8C8002070F8F8202000F8FCFEDA
:10089000F67E3E3C3800F8FCFEC6C2C2C6FEFC0036
:1008A000FEFEFE0606060CFCF000FCFEC6C2C202FE
:1008B0000000000000000000000000000000000038
:1008C000000000000000000E1F1F101010191F0E66
:1008D000001F1F181010101D1F06001F1F00000012
:1008E0001F1F1808000F1F1F1F1E1E1E0C000F1FAA
:1008F0001F000000001F1F001F1F1F1818181C0FCB
:1009000003001F1F10101010000000000000000066
:10091000000000000000000000240027002A002D35
:100920000030008D14A1C881CFD9F102AF14021399
:10093000021202150207020802040101010201006D
:1009400090439124007E81007E80007E9046007E50
:10095000912480007E819046007E80007E9045003C
:100960007E9124007E8081904A007E809043007EAC
:1009700080007E91249043007E8180007E90430021
:100980007E80007E91249043007E81007E80007EE8
:100990009046007E912480007E819046007E8000FB
:1009A0007E9045007E9124007E8081904A007E806A
:1009B0009043007E80007E91249043007E818000E1
:1009C0007E9043007E80007E91249043007E8100D3
:1009D0007E80F090439124007E81007E80007E9096
:1009E00046007E912480007E819046007E80007EBD
:1009F0009045007E9124007E8081904A007E809008
:100A000043007E80007E91249043007E8180007EA2
:100A10009043007E80F09043017780007D904301F9
:100A20007780007D9043017780007D903F007D803E
:100A3000007D9046007D80007D904301F480903FD2
:100A400000FA80904600FA809043036B80007D900E
:100A50004A017780007D904A017780007D904A01AD
:100A60007780007D904B00FA80904600FA8090439A
:100A7000017780007D903F017780007D904601776F
:100A800080007D9043017780F0004040E0A058084E
:100A9000A8F848440400000000000003020203021A
:100AA00004040002070707029055002880905A00AE
:100AB0007780F0080B000202020100090400000127
:100AC0000202000005240010010524010101042494
:100AD00002060524060001070581031000400904F1
:100AE0000100020A0000000705020240000007059D
:100AF00083024000000403090412010002EF020116
:100B0000404123368000010102030141726475698E
:100B10006E6F204C4C43004142413131303600046D
:100B200008020110408040102040804080080204EC
:100B30000180402010020110801020404020000061
:100B40000000250028002B002E00310004040404BE
:100B50000403040502020202040302020202060662
:100B60000606060604040202020404030100951AA4
:100B700011241FBECFEFDAE0DEBFCDBF12E0A0E050
:100B8000B1E0EEEFFFE402C005900D92A435B1078D
:100B9000D9F728E0A4E5B2E001C01D92A333B20763
:100BA000E1F715E0C8EBD5E004C02197FE010E94F3
:100BB000F125C73BD107C9F70E94F21A0C94FD2713
:100BC0000C9400002F923F924F925F926F927F920F
:100BD0008F929F92AF92BF92CF92DF92EF92FF924D
:100BE0000F931F93CF93DF9300D000D000D01F92BC
:100BF000CDB7DEB730E0F901E80FF91FF7FDB7C058
:100C0000803891050CF0B3C0FB01E00FF11DF7FD3A
:100C1000AEC0603471050CF0AAC0DB0177FF04C0E0
:100C2000AA27BB27A61BB70BA770BB27FB0177FD25
:100C3000379613E0F595E7951A95E1F777FF07C02A
:100C4000319768E070E07B01EA1AFB0AD701602E59
:100C5000669466946694712C077019F06FEF661AAB
:100C6000760ABF014C835D836E0E7F1EAF015695E1
:100C7000542F442757954795480F591FF12CE12CC5
:100C8000FA01EB5EFB4F4F01FA01EB56FB4F5F01A0
:100C900048E050E0FA01EA1BFB0BFF83EE83661687
:100CA000770609F464C06830710509F460C06F3FCD
:100CB000FFEF7F070CF44CC084010E0D1F1D2501B2
:100CC0004E0C5F1C50E040E0421753070CF040C050
:100CD000FC01E40FF51FE038F1050CF039C0F7FD19
:100CE00032C06F3F760709F43FC0EC81FD81E40F0D
:100CF000F51FE491F0E06F010A2E01C0CC0C0A94BC
:100D0000EAF7F801D488CD28C48A1097E1F067305B
:100D10007105C9F0EC81FD81E40FF51FE4916201DA
:100D2000C40ED51E2E2E312CF1010E8002C0F59579
:100D3000E7950A94E2F7FA83E983F6012488F981BA
:100D40002F2AF601248A4F5F5F4F0F5F1F4FBCCFE2
:100D50006F5F7F4F4C815D81420F531F5D834C83DA
:100D600050E8E50EF11C9BCF1097A1F6ECCF27962B
:100D70000FB6F894DEBF0FBECDBFDF91CF911F91AC
:100D80000F91FF90EF90DF90CF90BF90AF909F902A
:100D90008F907F906F905F904F903F902F9008952D
:100DA00090E0E9E2F4E091119FEF8FEF919391933E
:100DB000919391938150D0F70895E1E0F0E00E9483
:100DC000F206319728F068517C4F8F4F9F4FF9CF33
:100DD000AB01FC010E94F206641775078E079F079E
:100DE000C8F30895ACE7B2E02FB7F8947D918D91E8
:100DF0009C9166B52FBFA89B05C06F3F18F47F5F1D
:100E00008F4F9F4F22E0660F771F881F991F2A95EB
:100E1000D1F70895FC0180912603882311F13FB793
:100E2000F89482E08093E9002091F200822F90E014
:100E30001816190614F481E090E0882339F02898F8
:100E400044E6409325034091F1004083222339F08A
:100E50002091F200211103C02BE62093E8003FBF50
:100E600008958FEF9FEF08952FB7F89483E0809354
:100E7000E9009091E800892F807295FF04C090915D
:100E8000F20080E4891B2FBF089580911D0381111A
:100E90000DC082E08093190384E080931A031092BE
:100EA0001C0310921B0381E080931D0389E193E0F2
:100EB00008958F929F92AF92BF92CF92DF92EF925E
:100EC000FF920F931F93CF93DF936C017B018A01F5
:100ED0008091AB01882309F458C0809126038823B0
:100EE00009F453C08091180380FF05C08091E00091
:100EF00082608093E000E801B12C8AEFA82E93E095
:100F0000892E2AE3922E209711F4BB20B9F10E947A
:100F10003407811106C0AA94AA20B9F10E94DD0607
:100F2000F2CF8C171D0611F00CF08C2F9FB7F894A0
:100F30008092E9002091E80025FD02C09FBFE3CF29
:100F4000282F30E0C21BD30BF701815020F04191D4
:100F50004093F100FACFE20EF31EBB2021F09092F5
:100F6000E800B12CEBCF8091E80085FDE7CF9092AF
:100F7000E800BB24B394209709F3F3CF5D9884E68F
:100F800080931703101611063CF081E090E0F60103
:100F90009383828310E000E0C801DF91CF911F911D
:100FA0000F91FF90EF90DF90CF90BF90AF909F9008
:100FB0008F900895CF93DF931F92CDB7DEB76983EB
:100FC000DC01ED91FC910280F381E02D41E050E0E5
:100FD000BE016F5F7F4F09950F90DF91CF9108950C
:100FE00083E08093E9008091F200882319F08AE37E
:100FF0008093E80008950E94340790E00895CF930D
:10100000DF931F92CDB7DEB7FC018485958597FDF0
:1010100008C02FEF3FEF358724870F90DF91CF91E6
:101020000895CE0101960E940A07019719F489815B
:1010300090E0F3CF8FEF9FEFF0CF0F931F93CF93FD
:10104000DF931F92CDB7DEB78C01FC0184859585B7
:1010500097FF0BC0CE0101960E940A07019771F419
:10106000898190E0F80195878487F80184859585CA
:101070000F90DF91CF911F910F9108958FEF9FEF08
:10108000F1CFFC018485958597FD0BC09FB7F8943F
:1010900082E08093E9008091F2009FBF90E001968A
:1010A00008959FB7F89482E08093E9008091F20060
:1010B0009FBF90E008954091130350911403209135
:1010C00011033091120342175307B4F49091E800D2
:1010D0009570E1F39091E80092FD19C08093F100C2
:1010E000809113039091140301968F739927892B94
:1010F00019F48EEF8093E80080911303909114030C
:101100000196909314038093130381E0089580E087
:101110000895EF92FF920F931F93CF93DF93F82ED2
:10112000192FE62E042F81E0860F880F0E945B089E
:1011300083E00E945B08CF2DD12FEC0EFD2EF11C19
:10114000CE15DF05B9F007FF13C0FE0184910E94A0
:101150005B08182F80E00E945B0881232196811193
:10116000EFCFDF91CF911F910F91FF90EF900895F6
:101170008881EDCF81E0F5CFDF92EF92FF920F9360
:101180001F93CF93DF93D82E8A01EB017B01E40EEE
:10119000F51ECE15DF0559F0D7FE12C0FE01849171
:1011A0000E945B0821968111F4CF0FEF1FEFC80159
:1011B000DF91CF911F910F91FF90EF90DF900895F5
:1011C0008881EECF0F931F93CF93DF931F92CDB7FC
:1011D000DEB782E0898342E450E063EB7AE080E8A6
:1011E0000E94BC080E944507DC0112960D911C91DB
:1011F0000115110589F0D801ED91FC910280F38170
:10120000E02DBE016F5F7F4FC801099597FD04C0B7
:10121000F80100851185ECCF89810F90DF91CF9186
:101220001F910F910895615030F02091F100FC0161
:1012300020830196F8CF289884E6809325030895AB
:10124000AF92BF92CF92DF92EF92FF920F931F93D4
:10125000CF93DF936C017B018B01040F151FEB0112
:101260005E01AE18BF08C017D10759F06991D601C9
:10127000ED91FC910190F081E02DC6010995892B3B
:1012800079F7C501DF91CF911F910F91FF90EF90FA
:10129000DF90CF90BF90AF900895FC0144815581BD
:1012A0006081718185E194E00C942009282F30E061
:1012B000F901EA5BF74F9491F901E15EF44F8491F3
:1012C000245B344FF9012491222309F430C099237F
:1012D000E9F091509F30D0F4E92FF0E0EE58F64F4E
:1012E0000C94F125A009A409810998099C09860993
:1012F00086098609A709AD09B109B509BB0986099F
:10130000BF09909180009F7790938000E22FF0E0DA
:10131000EE0FFF1FE25CF44FA591B4919FB7F894D4
:10132000EC91611132C080958E238C939FBF0895FC
:10133000909180009F7DE8CF90918000977FE4CFCF
:1013400094B59F7794BDE2CF94B59F7DFBCF9091EC
:1013500090009F7790939000D9CF909190009F7DBF
:10136000F9CF90919000977FF5CF9091C0009F7733
:101370009093C000CBCF9091C0009F7DF9CF90910A
:10138000C200977F9093C200C1CF8E2BCECFCF9358
:10139000DF9390E0FC01E15EF44F2491845B944F75
:1013A000FC0184918823C9F090E0880F991FFC010B
:1013B000EB5EF64FA591B491FC01E25CF44FC59150
:1013C000D49161110DC09FB7F8948C912095822320
:1013D0008C938881282328839FBFDF91CF91089524
:1013E000623051F49FB7F8943C91822F809583230B
:1013F0008C93E8812E2BEFCF8FB7F894EC912E2BA6
:101400002C938FBFEACF1F93CF93DF93182FEB015D
:1014100061E00E94C709209739F460E0812FDF91D5
:10142000CF911F910C945609CF3FD10511F461E083
:10143000F5CFE12FF0E0EA5BF74FE491E150EF30B8
:1014400008F07FC0F0E0E95DF54F0C94F125360A15
:101450003E0A430A4D0A570AA10AA10AA10A610AD3
:101460006B0A750A7F0A8C0AA10A940A84B58068FF
:1014700084BDC7BDDF91CF911F91089584B580626F
:1014800084BDC8BDF7CF80918000806880938000C4
:10149000D0938900C0938800EDCF80918000806256
:1014A00080938000D0938B00C0938A00E3CF80911B
:1014B0008000886080938000D0938D00C0938C0062
:1014C000D9CF80919000806880939000D09399004C
:1014D000C0939800CFCF809190008062809390005D
:1014E000D0939B00C0939A00C5CF809190008860F4
:1014F00080939000D0939D00C0939C00BBCF8091BF
:10150000C00080688093C0008091C0008F7B809372
:10151000C000C093CF00AECF8091C00080628093A6
:10152000C000C093D000A6CF8091C2008860809395
:10153000C2008091C2008B7F8093C200C093D20012
:1015400099CFC038D1050CF072CF67CFAB01FC0149
:101550000E94F20641505109E109F10928F0685151
:101560007C4F8F4F9F4FF6CFAB01FC010E94F206DC
:10157000641775078E079F07C8F308952FB7F8946F
:10158000609178027091790280917A0290917B0249
:101590002FBF08950F931F930E94BE0A9B01AB01BA
:1015A000BC0180912704882389F080911F04022FB9
:1015B000081B0093280480911C0490911D0401963F
:1015C00090931D0480931C0410922704809123049F
:1015D00090912404A0912504B0912604481759073E
:1015E0006A077B077CF4821B823050F083B7817FCF
:1015F00083BF83B7816083BF889583B78E7F83BFA6
:1016000080E01DC080911E048A019B01080F111DFE
:10161000211D311DD901C801809323049093240416
:10162000A0932504B093260440931F0450932004F4
:10163000609321047093220481E0809327041F911A
:101640000F9108958FB18095807F669B88601C9B69
:1016500084600895E0918202F091830290818091EC
:1016600081028095892380830895E0918202F09120
:101670008302808190918102892B808308950F934A
:101680001F93CF93DF93182FD92FC0EB00E10E9457
:101690002A0BCEBD0DB407FEFDCF0EBD0DB407FE67
:1016A000FDCF0E94350BE12FFD2FCF0180589F4FBA
:1016B00021912EBD0DB407FEFDCF8E179F07C1F7F8
:1016C000182FD92FCF5FC83B11F7DF91CF911F9112
:1016D0000F9108958EBD00000DB407FEFDCF8EB5AD
:1016E0000895CF93C82F0E942A0B8C2F0E946A0B5B
:1016F000CF910C94350BCF92DF92EF92FF920F9324
:101700001F93CF93E82FF0E0E559F44FC491E62FF3
:10171000F0E0603398F5EA5EF74FE4910E2F10E0A9
:10172000F12CE12C60E074E284EF90E0A7019801D5
:101730000E949923215031094109510991E0211555
:10174000310581E0480751056CF060E970ED83E0F8
:1017500090E0A70198010E94992321503109410985
:10176000510993E0C13089F0C330F9F0CF911F9156
:101770000F91FF90EF90DF90CF900895EE0FFF1F35
:10178000EA5EF84F05911491CBCF80918100887F5C
:10179000892B809381003093890020938800809169
:1017A0006F00826080936F00E1CF80919100887F0D
:1017B000892B809391003093990020939800109387
:1017C00073020093720281E0809371028091710034
:1017D000826080937100CACFE82FF0E0E559F44FA2
:1017E000E491E13019F0E33089F0089580916F00C1
:1017F0008D7F80936F0080912A03E0912B03F091FD
:101800002C03908180958923808308951092710222
:1018100080912703E0912803F0912903F2CFCF9321
:10182000DF9390912D03923081F0C82FE92FF0E0E3
:10183000E559F44FD4919F5F90932D0361E00E948E
:10184000C709D13029F0D33049F1DF91CF91089504
:1018500010928000109281008091810088608093B6
:101860008100809181008160809381008C2F90E0C5
:10187000FC01E45BF44FE491F0E0EE0FFF1FE25C4B
:10188000F44F2591349130932C0320932B03815EE8
:10189000944FFC01849180932A03D7CF109290003B
:1018A00010929100809191008860809391008091C6
:1018B00091008160809391008C2F90E0FC01E45BAB
:1018C000F44FE491F0E0EE0FFF1FE25CF44F25913E
:1018D00034913093290320932803815E944FFC01B7
:1018E00084918093270380912D03882321F06CE35A
:1018F00080E00E947B0B80E0DF91CF910C94EC0B99
:10190000E0910C03F0910D03BF016F5F7F4F709367
:101910000D0360930C032491922F907F822F8F7080
:10192000903819F40E94EC0BEBCF903981F4329689
:10193000F0930D03E0930C03FB01649190912D0350
:101940008917F0F667FDDCCF0E947B0BD9CF903E64
:1019500049F480910E0390910F0390930D038093AF
:101960000C03CECF903F19F410920B03089597FD0E
:10197000C7CF3296F0930D03E0930C03FB01649103
:10198000A0917202B0917302322F262F0E9424245C
:101990006C507E4F8F4F9F4F28EE33E040E050E079
:1019A0000E94022420936D0230936E0240936F02D6
:1019B0005093700280916D0290916E02A0916F021F
:1019C000B0917002892B8A2B8B2B61F481E090E01F
:1019D000A0E0B0E080936D0290936E02A0936F023E
:1019E000B0937002089560387105E8F440345105F1
:1019F000D0F4342F369536953695A0E83A9FF0010D
:101A00001124E60FF71FE80FF91F3489CA01877008
:101A1000992741E050E001C0440F8A95EAF722235C
:101A200019F0432B448B089540954323FBCFDF925D
:101A3000EF92FF920F931F93CF93DF937C01D22EEF
:101A40008B01040F111DEB0177FF02C0D0E0C0E055
:101A5000C8010134110514F080E490E0C817D907DB
:101A60004CF42D2DAE01B70185E194E00E94F30CFA
:101A70002196EECFDF91CF911F910F91FF90EF90C4
:101A8000DF9008952F923F924F925F926F927F92D4
:101A90008F929F92AF92BF92CF92DF92EF92FF927E
:101AA0000F931F93CF93DF9300D000D0CDB7DEB755
:101AB0007C018B01242F30E03C832B8381E090E07C
:101AC0005C01A21AB30A1901319421943108220C45
:101AD000331CA901460F571F21E0B70185E194E0AF
:101AE0000E94F30CA8018B819C81481B590B21E0BB
:101AF000B70185E194E00E94F30C6B817C816E0D4F
:101B00007F1D21E0A80185E194E00E94F30CB7015C
:101B10002B813C81621B730B21E0A80185E194E0DD
:101B20000E94F30CD12CC12C81E090E09A83898330
:101B30002B813C81C216D3060CF06DC0B7FC09C0E6
:101B4000215031093C832B8332E0230E311CA20C3F
:101B5000B31C8FEFC81AD80A29813A812E5F3F4FF4
:101B60003A832983A20EB31E37016C0C7D1C21E041
:101B70008B809C80800E911EA401B30185E194E0CE
:101B80000E94F30C27014C185D0821E0A401B2016A
:101B900085E194E00E94F30C21E048018B819C8157
:101BA000881A990AA401B30185E194E00E94F30C1C
:101BB00021E0A401B20185E194E00E94F30C46010A
:101BC000800E911E21E0A4016B807C806E0C7F1C36
:101BD000B30185E194E00E94F30C21E0A401270108
:101BE0008B819C81481A590AB20185E194E00E94D8
:101BF000F30C48018C189D0821E0A401B30185E194
:101C000094E00E94F30C21E0A401B20185E194E08C
:101C10000E94F30C8DCF0F900F900F900F90DF91DB
:101C2000CF911F910F91FF90EF90DF90CF90BF90D9
:101C3000AF909F908F907F906F905F904F903F906C
:101C40002F900895EF92FF920F931F93CF93DF93FE
:101C5000EC017C0180E4E80EF11C8E0121E04FE0F4
:101C600050E0B80185E194E00E94F30C0F5F1F4F34
:101C7000E016F10699F77E0121E04EE250E0B7014F
:101C800085E194E00E94F30C8FEFE81AF80AE01661
:101C9000F10691F721E040E26FE070E0CE010E9492
:101CA000170D21E040E26FE070E0CE01CF96DF91AA
:101CB000CF911F910F91FF90EF900C94170D2F92E1
:101CC0003F924F925F926F927F928F929F92AF92CC
:101CD000BF92CF92DF92EF92FF920F931F93CF9319
:101CE000DF93CDB7DEB72D970FB6F894DEBF0FBEEA
:101CF000CDBF6A3069F5FC01EA5EFB4FDC01A85EEE
:101D0000BB4F2C9148E0249F9001112440815181C8
:101D1000240F351F3183208314971D921C922D961A
:101D20000FB6F894DEBF0FBECDBFDF91CF911F91EC
:101D30000F91FF90EF90DF90CF90BF90AF909F906A
:101D40008F907F906F905F904F903F902F9008956D
:101D50006D3029F39D878C878C5E9B4F9A83898396
:101D6000FC01808091802C853D85285E3B4F3C8323
:101D70002B8330E8831691040CF071C0EC85FD854F
:101D8000EA5EFB4F6080718040E4641671040CF0E1
:101D900066C0AB81BC814C9045E09401449E200D0F
:101DA000311D1124121613060CF059C0242C312CAD
:101DB000910153E0220F331F5A95E1F7260D371D8D
:101DC000121613060CF04BC0649FB001112410E0F2
:101DD00000E0FB01EA58FD4FFB87EA87E0E00530B1
:101DE00029F0EA85FB85E00FF11FE491530198E0AB
:101DF000592E2E2F30E03E832D83E170EF83F12C9E
:101E0000E12CE414D8F4C4018E0D9F1D99878887B6
:101E1000D12CC12CC41470F4A6014A0D5B1D2F8176
:101E2000688579858C859D850E94F30C9FEFC91A82
:101E3000D90AF0CFAFEFEA1AFA0AE3CFED81FE81BB
:101E4000F595E7955A94A20CB31C5110D2CF0F5FB1
:101E50001F4F820C931C0630110509F0BFCFEB8198
:101E6000FC812081422F50E0A981BA818D919C9103
:101E7000B6E02B9F800D911D1124E981FA81918399
:101E80008083EC85FD85E75EFB4F2081222309F4EA
:101E900046CF6AEF64039001659F300D11242058EE
:101EA0003F4F281739070CF03ACFAC85BD85ED912F
:101EB000FC9111970190F081E02D6AE0CD012D9603
:101EC0000FB6F894DEBF0FBECDBFDF91CF911F914B
:101ED0000F91FF90EF90DF90CF90BF90AF909F90C9
:101EE0008F907F906F905F904F903F902F900994CC
:101EF000089590E080E00895CF93DF93EC019B017B
:101F00008091660290916702019663E070E00E9402
:101F1000DD25909367028093660246E0489FF001BA
:101F2000499FF00D1124EC5AFD4F8581811107C0A6
:101F300081E085831482D183C08333832283DF9140
:101F4000CF910895CF92DF92EF92FF921F93CF939C
:101F5000DF9310910C01E0900A01F0900B01C09109
:101F60000801D09109016E01C10ED11CCC15DD050F
:101F700044F420E0412FB701CE010E94170D2196B5
:101F8000F5CFDF91CF911F91FF90EF90DF90CF9031
:101F900008950F930E94A20FE8E0F1E0248162818E
:101FA0007381022F4CE552E0808191810E94E2050D
:101FB0000F9108950F931F93CF93DF930E94220BED
:101FC00087FF2AC0C0910A01D0910B0180911201B4
:101FD00087FD8F5F8595082E000C990B8C179D0748
:101FE00014F090E080E0C81BD90BD0930B01C09394
:101FF0000A010E94A20F20910C01022F4AEC50E02E
:10200000BE0180910801909109010E94E205DF91D3
:10201000CF911F910F9108950E94220B84FF28C039
:10202000C0910A01D0910B0110910C018091120115
:1020300087FD8F5F8595082E000C990B20E430E01A
:10204000211B310917FD3395281B390BC217D30704
:1020500014F090E080E0C80FD91FD0930B01C0931B
:102060000A010E94A20F012F212F44EE50E0C8CF99
:102070000E94220B86FF2AC040910801509109015D
:102080008091120190910C0120E830E0291B310968
:1020900097FD3395982F87FF02C091E0980F959593
:1020A000291B310997FD3395421753070CF080E047
:1020B000480F511D87FD5A9550930901409308011F
:1020C000DF91CF911F910F910C94C90F0E94220BA9
:1020D00085FFF6CF2091080130910901809112010E
:1020E000082E000C990B8217930714F090E080E003
:1020F000281B390B3093090120930801E1CF2F925F
:102100003F925F926F927F928F929F92AF92BF9217
:10211000CF92DF92EF92FF920F931F93CF93DF93B3
:10212000C4E5D2E086E6282E82E0382E8C818C3001
:102130000CF05DC09D81913009F059C05524539435
:10214000580E5C82CA80DB80052D052C000C110B1B
:102150005601A01AB10AE880F9804701801A910A55
:1021600021E0A501B40185E194E00E94F30C360161
:10217000600E711E21E0A301B40185E194E00E948C
:10218000F30C0E0D1F1D21E0A501B80185E194E0BF
:102190000E94F30C21E0A301B80185E194E00E94C4
:1021A000F30C452D57FE02C041E0450D4595B601A3
:1021B000C7010E94420D452DB601C7010E94420D84
:1021C00026962C163D0609F0B1CFDF91CF911F91D5
:1021D0000F91FF90EF90DF90CF90BF90AF909F90C6
:1021E0008F907F906F905F903F902F9008951D8209
:1021F0001C82E6CFE4E1F1E028EC30E08CEE9FEFCA
:102200001586148631832083938382833E9641E032
:10221000E03AF407A9F7EDE8F2E045E053E088EC96
:1022200090E02CEE3FEF15829183808333832283ED
:1022300036964E175F07B9F71092590290935502E0
:1022400080935402309357022093560210925F02FB
:1022500090935B0280935A0230935D0220935C025C
:102260001092650290936102809360023093630242
:10227000209362020895FC01808191810C94A7262D
:102280000F931F93CF93DF93EC018881998100977F
:1022900059F02A813B812617370730F081E0DF9122
:1022A000CF911F910F9108958B016F5F7F4F0E9417
:1022B0003027009759F0998388831B830A832C81E8
:1022C0003D81232B59F7FC011082E8CF80E0E7CF56
:1022D000EF92FF920F931F93CF93DF93EC01FB01DB
:1022E000E080F180E114F10411F104811581011500
:1022F0001105A9F08C819D81080F191FB801CE012D
:102300000E944011882399F0288139818C819D8118
:10231000B701820F931F0E94F6271D830C83CE0105
:10232000DF91CF911F910F91FF90EF9008958881D9
:102330009981009711F00E94A726198218821D82A8
:102340001C821B821A82EBCFEF92FF920F931F9396
:10235000CF93DF93EC017B018A01BA010E94401107
:1023600028813981811114C02115310519F0C90165
:102370000E94A726198218821D821C821B821A8243
:10238000CE01DF91CF911F910F91FF90EF900895B3
:102390001D830C83B701C9010E94F627F1CFEF928C
:1023A000FF920F931F93CF93DF93CDB7DEB7629762
:1023B0000FB6F894DEBF0FBECDBF8C01CB01F80184
:1023C0001182108213821282158214824AE09E01C9
:1023D0002F5F3F4F7901B9010E946122F7010190FF
:1023E0000020E9F73197AF014E195F09B701C80125
:1023F0000E94A41162960FB6F894DEBF0FBECDBF47
:10240000DF91CF911F910F91FF90EF900895FC0104
:102410001182108213821282158214826115710555
:1024200051F0FB0101900020E9F73197AF01461B05
:10243000570B0C94A4110895FB01DC0111961C921A
:102440001E9213961C921E92129715961C921E9223
:1024500014978617970749F060817181611571059E
:1024600021F0448155810C94A4110895CF92DF92FC
:10247000EF92FF926B017C01C114D104E104F104DD
:1024800041F00E940922A70196010E9499236B0145
:102490007C01C701B601FF90EF90DF90CF900895C7
:1024A0000F931F93CF93DF93C9E8D3E000E810E0C8
:1024B0006881798116161706ACF461507109798329
:1024C00068834A815B8121E085E194E00E94F30CFE
:1024D000279684E0C531D80759F7DF91CF911F9136
:1024E0000F91089562E370E080E090E00E94361260
:1024F000693171058105910559F71983088367E3EF
:1025000070E080E090E00E9436127B836A83E0CF27
:102510002F923F924F925F926F927F928F929F92F3
:10252000AF92BF92CF92DF92EF92FF920F931F93E1
:10253000CF93DF93CDB7DEB729970FB6F894DEBF00
:102540000FBECDBF4C015B011A0138872F83E9868E
:10255000C0902E03D0902F03E0903003F090310311
:1025600028EEC20E23E0D21EE11CF11C0E94220BB9
:10257000882371F080912E0390912F03A091300356
:10258000B09131038C159D05AE05BF0508F069C0FB
:102590000E94CA0A882351F30E94BE0A60932E0348
:1025A00070932F0380933003909331030E94D006E1
:1025B00089858823D9F06CE270E080E090E00E9489
:1025C00036122B013C016CE670E080E090E00E9446
:1025D00036122AE0420E511C611C711CDC01CB0139
:1025E0000A96A11DB11DB2010E947C0F0E945012DB
:1025F0000E947F1080E290E00E94220EB101CE0185
:1026000001960E941C1290922A0880922908B0928A
:102610002C08A0922B08CE0101960E944D09CE01F4
:1026200001960E943B11B801CE0101960E941C1236
:102630008F81988590932A08809329088EE190E0F5
:1026400090932C0880932B08CE0101960E944D098F
:10265000CE0101960E943B1189E294E00E943F0B5B
:1026600085CF29960FB6F894DEBF0FBECDBFDF91A0
:10267000CF911F910F91FF90EF90DF90CF90BF907F
:10268000AF909F908F907F906F905F904F903F9012
:102690002F9008952F923F924F925F926F927F9268
:1026A0008F929F92AF92BF92CF92DF92EF92FF9262
:1026B0000F931F93CF93DF9300D000D000D01F92D1
:1026C000CDB7DEB74C013B015A010E94BE0A1B0187
:1026D0002C0111E0F12CE12C3BE1C32ED12C0E9406
:1026E000CA0A8F838823D9F30E94BE0A60932E03FF
:1026F00070932F0380933003909331030E94D00690
:102700000E945012B401CE0101960E941C12D09278
:102710002A08C09229088AE090E090932C088093C0
:102720002B08CE0101960E944D09CE0101960E9410
:102730003B11B301CE0101960E941C12D0922A08CF
:10274000C0922908D0922C08C0922B08CE01019685
:102750000E944D09CE0101960E943B11F501808136
:102760009181892BB9F0B501CE0101960E941C120E
:10277000D0922A08C09229088CE290E090932C080D
:1027800080932B08CE0101960E944D09CE0101963F
:102790000E943B1191E19E9DB0019F9D700D1124FF
:1027A000695F7F4F0DE02DE04CE552E08BE090E05B
:1027B0000E94E2050E94220B882309F44EC0D20138
:1027C000C101C296A11DB11D20902E0330902F0390
:1027D00040903003509031031F8182159305A4056A
:1027E000B505E8F50E94220B87FF28C01E141F04C0
:1027F0001CF0EE24E394F12CE1E0EE1AF1080E94C3
:10280000220B83FF31C0C701019627960FB6F894BB
:10281000DEBF0FBECDBFDF91CF911F910F91FF9013
:10282000EF90DF90CF90BF90AF909F908F907F9070
:102830006F905F904F903F902F9008950E94220BD1
:1028400084FFDDCFF50180819181892B99F0EF28FC
:1028500089F092E0E92EF12CD2CF112381F289E2A6
:1028600094E00E943F0B3BCF0E94220B82FDCBCF16
:1028700010E0F5CFEE24E394F12CC1CF2F923F92DC
:102880004F925F926F927F928F929F92AF92BF9280
:10289000CF92DF92EF92FF920F931F93CF93DF932C
:1028A000CDB7DEB762970FB6F894DEBF0FBECDBFCF
:1028B0007C0180910201909103014CE9BC01460327
:1028C0009001479F300D1124283A7DEF370714F40B
:1028D00028EA3DEF24543D4F309307012093060131
:1028E000873091050CF00DC1019697FD01969595E5
:1028F0008795909305018093040180910F01909139
:1029000010018530910514F084E090E001969093D9
:10291000100180930F0186EFC82EDD24DA9410E0B9
:1029200000E094E1A92EB12C2AE2222E312C3EE2C5
:10293000832E912C0E94D006D0920901C0920801EA
:1029400069E170E0043111050CF445C02801012E45
:10295000000C66087708C301B2010E9498220E9409
:10296000A02420E030E040E751E40E94D32220E0A0
:1029700030E048EC51E40E9434240E9417250437CB
:1029800011054CF1C301B2010E9498220E94A024BB
:102990002B013C0120E030E040E251E40E94D322D0
:1029A00020E030E048EC51E40E9434240E941725D6
:1029B0000E37110584F020E030E040EA50E4C30116
:1029C000B2010E94D32220E030E048EC51E40E94A2
:1029D00034240E94172570930B0160930A016AE06A
:1029E00070E080E090E00E94A60A0E94DA0F0E9448
:1029F000501283E290E00E94220E8AE0E816F10471
:102A00000CF082C0B701CE0107960E94CF1167EE8D
:102A100071E0CE0101960E940712BE01695F7F4FEF
:102A2000CE0101960E946811BC01CE010D960E9454
:102A30001C1290922A0880922908B0922C08A09229
:102A40002B08CE010D960E944D09CE010D960E94D5
:102A50003B11CE0101960E943B11CE0107960E94C8
:102A60003B116EEE71E0CE0101960E94071280E3E9
:102A700090E090932A08809329086EE170E07093AB
:102A80002C0860932B08CE0101960E944D09CE01BF
:102A900001960E943B1189E294E00E943F0B0E9444
:102AA000BE0A60932E0370932F038093300390939C
:102AB00031030F5F1F4F72E0C70ED11C00381105A4
:102AC00009F038CF8AE090E09093090180930801E3
:102AD00062960FB6F894DEBF0FBECDBFDF91CF91E7
:102AE0001F910F91FF90EF90DF90CF90BF90AF902C
:102AF0009F908F907F906F905F904F903F902F901E
:102B0000089583E090E0F5CE94E6E916F104E4F44C
:102B1000B701CE0107960E94CF1167EE71E0CE019A
:102B200001960E940712BE01695F7F4FCE01019698
:102B30000E946811BC01CE010D960E941C123092B9
:102B40002A082092290879CF48EEE41643E0F406DB
:102B50000CF087CFB701CE0107960E94CF1167EE28
:102B600071E0CE0101960E940712BE01695F7F4F9E
:102B7000CE0101960E946811BC01CE010D960E9403
:102B80001C1266E270E070932A086093290855CF02
:102B90008F929F92AF92BF92CF92DF92EF92FF926D
:102BA0000F931F93CF93DF93CDB7DEB762970FB626
:102BB000F894DEBF0FBECDBF09E813E0F8018081B5
:102BC00091811816190694F060E870E080E090E0BA
:102BD0000E943612F8017183608367E370E080E041
:102BE00090E00E943612F80173836283095F1F4FE1
:102BF000F4E005311F0711F70E94FA10C0902E0370
:102C0000D0902F03E0903003F09031030E94CA0A65
:102C10008823F1F00E94BE0A60932E0370932F0365
:102C200080933003909331030E94D0060E9450128B
:102C30000E947F1002E322E34EEF50E067E070E075
:102C400087E290E00E94E20589E294E00E943F0B57
:102C50000E94220B882309F461C080902E0390907B
:102C60002F03A0903003B090310382E3C80ED11C33
:102C7000E11CF11CC814D904EA04FB0408F050C09C
:102C800065EF71E0CE0107960E940712E8EE8E0E06
:102C9000E3E09E1EA11CB11C84E1E82EF12C09E1A9
:102CA00010E080912E0390912F03A0913003B091FA
:102CB000310388159905AA05BB05A8F50E94CA0A23
:102CC000882379F30E94BE0A60932E0370932F032A
:102CD00080933003909331030E94D0060E945012DB
:102CE0000E947F10BE01695F7F4FCE0101960E9456
:102CF0001C12F0922A08E092290810932C080093E5
:102D00002B08CE0101960E944D09CE0101960E942A
:102D10003B1189E294E00E943F0BC3CF460157016B
:102D20007501640173CFCE0107960E943B111E8688
:102D30001D86188A1F861A8A198A63E072E0CE01FE
:102D400007960E9407126CE072E0CE0101960E9485
:102D50000712AE01435F5F4FBE01695F7F4FCE0137
:102D600001960E944A138C01909301018093000107
:102D7000CE0101960E943B11CE0107960E943B11A5
:102D8000CE010D960E943B110230110569F51E8699
:102D90001D86188A1F861A8A198A67E172E0CE0199
:102DA00007960E94071261E272E0CE0101960E942E
:102DB0000712AE01435F5F4FBE01695F7F4FCE01D7
:102DC00001960E944A1321E0029709F020E0209327
:102DD0001003CE0101960E943B11CE0107960E947E
:102DE0003B11CE010D96A1CF80910201909103017C
:102DF0000E943E1462960FB6F894DEBF0FBECDBFA0
:102E0000DF91CF911F910F91FF90EF90DF90CF90C6
:102E1000BF90AF909F908F9008951F920F920FB622
:102E20000F9211248F939F938091E1009091E10084
:102E3000937F9093E10083FF0FC01092E90091E02F
:102E40009093EB001092EC0092E39093ED001092BF
:102E5000260398E09093F00082FF22C093E09093C5
:102E6000E9009091F200992319F09AE39093E80019
:102E700090911703992341F09091170391509093EB
:102E80001703911101C05D9A90912503992341F098
:102E900090912503915090932503911101C0289A98
:102EA00084FF18C08091E2008E7E81608093E200F2
:102EB0008091E1008F7E8093E100809118038E7EE7
:102EC0008061809318039F918F910F900FBE0F9098
:102ED0001F90189580FFF7CF8091E2008E7E806171
:102EE0008093E2008091E1008E7E8093E1008091EA
:102EF00018038E7E8160E5CF1F920F920FB60F925E
:102F00001124CF92DF92EF92FF920F931F932F9392
:102F10003F934F935F936F937F938F939F93AF9361
:102F2000BF93EF93FF93CF93DF93CDB7DEB76C974B
:102F3000DEBFCDBF1092E9008091E80083FF25C07D
:102F400068E0CE0145960E94130982EF8093E80065
:102F50008D8987FF39C09091E80090FFFCCF982FB2
:102F6000907609F034C19E894F89588D2F89F88C4D
:102F7000911131C0803861F5809116038093F10082
:102F80001092F1008EEF8093E8006C960FB6F894E3
:102F9000DEBF0FBECDBFDF91CF91FF91EF91BF910B
:102FA000AF919F918F917F916F915F914F913F91E1
:102FB0002F911F910F91FF90EF90DF90CF900F9086
:102FC0000FBE0F901F9018959EEF9093E800C7CF0B
:102FD0001092F100D5CF913059F48111D3CF413007
:102FE000510581F6809116038D7F80931603CACF19
:102FF000933049F48111C6CF4130510519F68091C3
:1030000016038260F2CF953041F48091E80080FF92
:10301000FCCF20682093E300B5CF963009F0A9C01B
:103020000B8D1C8D22E01092E90010921403109277
:103030001303F2122EC010921203109211030E9479
:10304000E2081F8299E09983FA8291E09E8390EAD8
:1030500098879AEF99872091130330911403275F83
:103060003F4F3C832B838D831092E9001092140311
:1030700010921303109312030093110349E050E0E0
:10308000BE016F5F7F4F80E00E94BC080E94E20893
:1030900079CF10931203009311030E944507DC01BE
:1030A00012960D911C910115110509F410C1D8015A
:1030B000ED91FC910480F581E02DBE016B5E7F4FA8
:1030C000C8010995009709F0FDC0F8010085118538
:1030D000EACFF3E0FF120EC08F89882309F440C0C5
:1030E000823061F440E867E087E19BE00E94890854
:1030F000811148CF81E28093EB0047CF813029F4E2
:1031000040E86BE08BE09BE0F1CF833099F70E94C1
:103110004507DC011296ED90FC908E010F5F1F4F6A
:103120006801E114F10479F0D701ED91FC9106807A
:10313000F781E02DB801C7010995080F111DF701AE
:10314000E084F184EECFD8011C92F60101900020BA
:10315000E9F73197BF016C197D0940E0C601C6CF80
:1031600065EF7AE0FB01449150E080E80E94BC08E2
:1031700009CF973009F4BECF983021F481E08093D5
:10318000F10000CF993009F0FDCE837009F0B2CF85
:10319000E3ECF1E081E031E096E32191222371F04C
:1031A0008093E9003093EB00DF0111972C9120937D
:1031B000EC009093ED008F5F873079F78EE7809376
:1031C000EA001092EA008F8980932603DBCE8B8D74
:1031D0009C8D1092E90010921403109213039093A7
:1031E000120380931103898D811151C08E899D89AD
:1031F000913A49F4813209F07DCF47E050E064EA2A
:1032000071E080E0B3CF913209F074CF833269F47A
:103210008F89988DB0E0A0E08093A0019093A101E8
:10322000A093A201B093A301ADCE803269F4809146
:10323000E80082FFFCCF67E084EA91E00E94130976
:103240008BEF8093E8009ECE823209F09BCE8F896F
:103250008093AB018091A4019091A501A091A6015A
:10326000B091A701803B9440A105B10569F480911C
:10327000AB0180FD09C088E780931503809164004D
:103280008F7D809364007ECE109215037BCE0E94CA
:103290004507DC0112960D911C910115110509F4E9
:1032A00029CFD801ED91FC910190F081E02DBE0174
:1032B0006B5E7F4FC8010995811164CEF8010085CE
:1032C0001185EBCF181619060CF45CCE13CFF1E084
:1032D000FF12FFCE69EF7AE045CF0F930FB70F9340
:1032E0001F9211248F939F93EF93FF93E8E7F2E0EF
:1032F0008091770291E08D5F8D3710F08D57939517
:10330000809377028081890F80839181911D9183C1
:103310000281011D02838381811D838309270F7030
:10332000092702950093760235D08111009374022B
:10333000803989F400917502901B963070F087E710
:10334000809300088093010888E198E080936000F2
:1033500090936000FFCF9093750280911503815088
:1033600018F08093150359F3ECE7F2E08081918126
:1033700001968083918382819381811D911D828337
:103380009383FF91EF919F918F911F900F910FBFAA
:103390000F9118958FB18095807F669B88601C9BEC
:1033A000846008951F920F920FB60F9211242F93ED
:1033B0003F934F935F936F937F938F939F93AF93BD
:1033C000BF93EF93FF9380917102882349F080911E
:1033D0002703E0912803F0912903908189278083B6
:1033E00080910B03882329F180916D0290916E02E8
:1033F000A0916F02B0917002892B8A2B8B2BC9F0A0
:1034000080916D0290916E02A0916F02B091700256
:103410000197A109B10980936D0290936E02A09368
:103420006F02B0937002892B8A2B8B2B11F40E94B0
:10343000800CFF91EF91BF91AF919F918F917F9100
:103440006F915F914F913F912F910F900FBE0F9011
:103450001F9018951F920F920FB60F9211248F9301
:103460009F93AF93BF93EF93FF9380916C02882358
:1034700009F452C08091680290916902A0916A0299
:10348000B0916B02892B8A2B8B2BA1F190912A038F
:10349000E0912B03F0912C03808189278083809118
:1034A000680290916902A0916A02B0916B021816AD
:1034B00019061A061B069CF4809168029091690215
:1034C000A0916A02B0916B020197A109B1098093A2
:1034D000680290936902A0936A02B0936B02FF9115
:1034E000EF91BF91AF919F918F910F900FBE0F9071
:1034F0001F90189510926C0280916F008D7F8093C1
:103500006F0080912A03E0912B03F0912C039081AE
:10351000809589238083E3CF90912A03E0912B0348
:10352000F0912C0380818927F5CF109235031092FA
:10353000340388EE93E0A0E0B0E0809336039093EC
:103540003703A0933803B09339038DEC91E0909347
:103550003303809332038FEF9FEF90933F03809369
:103560003E0310921804109217048FED91E090938F
:103570001604809315048CE380931B0480E18093F0
:103580001E0410921D0410921C0410922304109229
:1035900024041092250410922604109227041092FD
:1035A0002A081092290810922C0810922B0881E00A
:1035B00080932D08E9E8F3E085E194E01182108220
:1035C00013821282158237968E179F07B9F71092D1
:1035D0008303109282031092850310928403109249
:1035E00087030895CDB7DEB76797DEBFCDBF789468
:1035F00083E084BD83E085BD81E080936E00E1E8D7
:10360000F0E083E08083E0E881E08083E1E983E02B
:103610008083E0E981E08083E1EC87E08083E3EC74
:1036200081E08083E0EC82E08083E2EC81E08083D3
:10363000EAE787E0808380688083109226031092F7
:103640001603109218038091D70081608093D700F1
:1036500080EA8093D80089B5806189BD89B5826090
:1036600089BD09B400FEFDCF0E94DD068091D8001F
:103670008F7C80618093D8008091E000807F809370
:10368000E0008091E1008E7E8093E1008DE08093E8
:10369000E200559A209A1FB7F89480918002811118
:1036A00027C0EDE5FBE08491E0E3FBE09491E82F97
:1036B000F0E0EE0FFF1FEB5EF64FA591B491EC9199
:1036C000E92321F461E081E10E94560961E081E192
:1036D0000E94C7098CB580618CBD8CB580648CBD9F
:1036E00061E08FE00E94C70961E080E10E94C709A4
:1036F000809180028F5F809380021FBF0DE219E0EE
:10370000B801F80184916F5F7F4F0E5F1F4FFB017F
:103710006491882319F00E94C709F2CF61E082E02A
:103720000E94560961E070E080E090E00E94A60AE5
:1037300060E082E00E9456096AE070E080E090E07C
:103740000E94A60A61E082E00E945609EDE4FBE0D7
:10375000E491F0E0EE0FFF1FE25CF44FA591B4910D
:103760009C9180918402809589238C93E0E2FBE018
:10377000E491E0938402E0E5FBE0E491F0E0EE0FF9
:10378000FF1FE25CF44F85919491909383028093A4
:103790008202E3E2FBE0E491E09381028CB58C7F4E
:1037A0008CBD8DB581608DBD0E942A0B03E219E0AE
:1037B0008DE2E82E89E0F82EE016F10639F0F801E6
:1037C00084910E946A0B0F5F1F4FF6CF0E94350B4A
:1037D00080916400816080936400809164008260C5
:1037E000809364008091640080688093640080917D
:1037F00064008064809364008091650081608093A0
:1038000065000E94220B87FF18C000E214E080E0F0
:103810000E946A0B01501109D1F770E060E08AE064
:103820000E94030A70E060E083E00E94030A70E0F7
:1038300060E089E00E94030AFFCF7EEEE72EFF24BE
:10384000FA94B70169517F4F8AE00E94030A6FEF33
:1038500070E083E00E94030A6FEF70E089E00E944D
:10386000030A0E94D00600E128E545E658E0B701CA
:1038700084E190E00E94E20589E294E00E943F0B1F
:103880006BE170E080E090E00E94A60AF0EFEF129A
:1038900006C06AEF70E080E090E00E94A60A2FEF79
:1038A000E21AF20A39E1E316F10459F66EEE72E01B
:1038B00080E090E00E94A60A6FEF70E08AE00E942C
:1038C000030A6FEF70E083E00E94030A6FEF70E07D
:1038D00089E00E94030A85E00E940F0C86E00E94A6
:1038E0000F0C10920B0382E090E00E94912388233A
:1038F00051F080916400877F80936400809165001F
:10390000877F809365008CE380931B0480E1809324
:103910001E0480E499E090930F0380930E0390932C
:103920000D0380930C030E94800C81E080930B03B5
:103930000E94C8151E0187E0280E311C0E94CA0A89
:10394000882309F478C40E94D0060E94BE0A2B0185
:103950003C0140922E0350922F03609230037092EC
:10396000310380911301813079F5C0900A01D09024
:103970000B01460195E0891A9108A0900801B090CA
:1039800009018501015F1F4FE2E1AE0EB11C780114
:10399000EA14FB0451F021E043E0B401C7010E94A6
:1039A000170DFFEFEF1AFF0AF3CF2FE0C20ED11C65
:1039B0000E151F0549F021E043E0B601C8010E9441
:1039C000170D0F5F1F4FF4CF0E94DA0F809107038E
:1039D00090910803A0910903B0910A034816590673
:1039E0006A067B0608F455C00E94220B83FF4DC077
:1039F0008091050390910603019664E170E00E94B6
:103A0000DD257C0190930603809305030E94BE0A86
:103A100068537F4F8F4F9F4F609307037093080346
:103A20008093090390930A0380910C0187FD8F5FB7
:103A30008595082E000C990B26E02E9D80012F9D68
:103A4000100D112403571D4F2091080130910901D9
:103A5000280F391FF8013183208320910A0130910A
:103A60000B01820F931F938382830E94220B83FD9D
:103A70006BC20E94220B82FF0CC082E0F80185839A
:103A800081E084836AE272E066C20E94220B82FDBA
:103A9000AFCF6DE8E62E62E0F62EF70180819181CE
:103AA000803891050CF470C2158228EC30E0318327
:103AB0002083F6E0EF0EF11C25E033E02E153F05E4
:103AC00061F754E1E52E51E0F52E270111E0F201F6
:103AD000808191812091080130910901821B930B13
:103AE00008960F9708F061C08281938120910A01A6
:103AF00030910B01821B930B06960D9708F055C071
:103B000063E170E080E090E00E943612663071055B
:103B10008105910509F049C08091100381110EC003
:103B200028EA3AE030930F0320930E0330930D03FD
:103B300020930C030E94800C10930B03F20111865A
:103B400010861586148662817381808191810E941E
:103B50007C0F28EC30E0F2013183208386EF9FEF69
:103B60009383828380910D0190910E010196909331
:103B70000E0180930D0180910F0190911001181694
:103B8000190614F081E090E0019790931001809362
:103B90000F0185EA0E94710B62E370E080E090E023
:103BA0000E94A60A84EA0E94710B9EE0490E511CF5
:103BB000E0EAF1E0E415F50509F089CF209108016C
:103BC000309109018091820390918303821B930BB2
:103BD0000296419708F04DC020910A0130910B01E7
:103BE0008091840390918503821B930B01964197EA
:103BF00008F03FC08091100381110FC028EA3AE01D
:103C000030930F0320930E0330930D0320930C0386
:103C10000E94800C81E080930B03109287036091D7
:103C200084037091850380918203909183030E94A5
:103C30007C0F8CEE9FEF909385038093840380919B
:103C40000F01909110011816190614F081E090E010
:103C500001979093100180930F0185EA0E94710BE8
:103C600062E370E080E090E00E94A60A84EA0E948D
:103C7000710B0E9450124091890250918A0260910A
:103C80008B0270918C0280912E0390912F03A09152
:103C90003003B091310384179507A607B70708F4DE
:103CA0005AC0809102019091030164E170E0681BA9
:103CB000790B681779070CF4BC01072E000C880BF0
:103CC000990B62307105810591050CF480C161503A
:103CD0007109810991090E943612DC01CB0101961C
:103CE000A11DB11D0091020110910301012E000CD4
:103CF000220B330B081719072A073B0761F5809140
:103D000087031092860210928502811124C00091CF
:103D10000801109109016AE070E080E090E00E94E3
:103D20003612409185025091860227E0249FF001CF
:103D3000259FF00D1124EE57FC4FA801460F571F89
:103D40005183408383EF9FEF9383828388E0848352
:103D500081E08683858380918703813089F4609038
:103D600084037090850390E4691671040CF434C1E7
:103D700010928703ECEEFFEFF0938503E09384034A
:103D80004091890250918A0260918B0270918C025D
:103D900080912E0390912F03A0913003B0913103B5
:103DA00084179507A607B70708F45DC080918702BE
:103DB0009091880201966AE070E00E94DD258C01F6
:103DC00090938802809387020E94BE0AAB01BC01D7
:103DD0008091060190910701092E000CAA0BBB0BE4
:103DE000840F951FA61FB71F8093890290938A02A4
:103DF000A0938B02B0938C022EE0D22ED09EF001C5
:103E0000D19EF00D1124EC5EFE4F84859585892BA3
:103E100051F580E890E09183808362E370E080E078
:103E200090E00E9436122091870230918802D29E43
:103E3000F001D39EF00D1124EC5EFE4F738362837C
:103E4000758364838DE090E09783868384E690E0B9
:103E50009187808780910401828781E0838781E058
:103E600090E09587848796E0792E66246394F70125
:103E700084859585019779F4C080D180F7EFCF16BE
:103E8000FFEFDF060CF022C1F7011586148628EC3F
:103E900030E0318320833EE0E30EF11C4E145F04DA
:103EA00031F70E947F1060910D0170910E01CE01DB
:103EB00001960E94CF1110922A08109229081092A0
:103EC0002C0810922B08CE0101960E944D09CE01BC
:103ED00001960E943B1108E710E0F12CE12C83E0F1
:103EE000D82E80910F0190911001E816F9060CF080
:103EF00058C11A8219821C821B821E821D82DF8297
:103F00001886F10101900020E9F73197AF014219BD
:103F10005309B101CE0101960E94A41110932A0801
:103F20000093290810922C0810922B08CE010196BC
:103F30000E944D09CE0101960E943B118FEFE81AB5
:103F4000F80A08501109CDCF81E0F801858384E09B
:103F500084836EE272E0CE0101960E9407128AE02D
:103F600090E090932A088093290887E390E090934B
:103F70002C0880932B08CE0101960E944D09CE019A
:103F800001960E943B1185CD2581213069F4248161
:103F9000820F911D27FD9A959183808362817381A1
:103FA00044E00E94420D85CD223009F082CD24816B
:103FB000820F911D27FD9A95918380836281738181
:103FC00003E025E043EA5AE00E94E20572CD81E079
:103FD00090E0A0E0B0E086CE80918803680E711C6E
:103FE00087FD7A94709285036092840340918603E2
:103FF000C0908203D0908303042F10E0440F4F5FE2
:10400000B301601B710B21E0C6010E94170D81E016
:1040100090E05C01A01AB10A88279927801B910BB8
:104020009C01220F331F3C8B2B8B912C812C81E028
:1040300090E09E878D87801691060CF0A1CEB7FC8C
:1040400009C001501109EB89FC893296FC8BEB8B7E
:10405000AE0EBF1EFFEF8F1A9F0A2D853E852E5F85
:104060003F4F3E872D87A20EB31E802F880F8F5F94
:104070008D8B21E0482FC301801B910B9A8B898B7C
:10408000BC01C601880D991D0E94170DF301E819A6
:10409000F909FF8BEE8B21E04D85BF01C601800F32
:1040A000911F0E94170D21E04D8969897A89C60107
:1040B000881999090E94170D21E04D856E897F8925
:1040C000C601801B910B0E94170DB5CFF7018285A9
:1040D000C81AD10887FDD394D182C082B6010D2CB5
:1040E000000C880B990B0E9498222BED3FE049E4CD
:1040F00050E40E94D32220E030E040E752E40E94E6
:10410000A5240E948C256D877E878F87988BF70169
:1041100064817581072E000C880B990B0E949822F0
:104120004B015C0120E030E040E251E46D857E858A
:104130008F8598890E94D3229B01AC01C501B401EF
:104140000E9434240E9417254B019B01F7017383C1
:104150006283EDE8F2E010E000E0A601495F5F4F06
:10416000295F3F4F80819181841B950B05960B97AA
:1041700040F482819381821B930B05960B9708F480
:10418000C0C00F5F1F4F36960431110559F7F70174
:104190002681022F49E85AE0B401C6010E94E205D7
:1041A0007ACE181619060CF44EC0809110038111B6
:1041B0000FC086E19AE090930F0380930E039093D3
:1041C0000D0380930C030E94800C81E080930B030D
:1041D00063E372E0CE0101960E9407126EE372E083
:1041E000C1010E940712E12C8E010F5F1F4F23E2D5
:1041F00030E0A10162E170E08CE290E00E94881260
:10420000C1010E943B11C8010E943B118CE0E6EB0A
:10421000F1E0A8E0B1E001900D928A95E1F781E02C
:1042200090E090930301809302010E94C81589E2F7
:1042300094E00E943F0B80E090E0892B09F47ECB54
:104240000E94000077CB2091020130910301A90167
:104250004150510964E1649FC001659F900D112494
:104260006EE1629FA001639F500D1124840F951F82
:1042700020910D0130910E0128173907C4F2809169
:10428000100381110FC083ED99E090930F03809389
:104290000E0390930D0380930C030E94800C81E029
:1042A00080930B0366E472E0CE0101960E94071230
:1042B0006EE472E0C1010E940712EE24E3948E01C5
:1042C0000F5F1F4F2DE230E0A10164E170E085E354
:1042D00090E00E948812C1010E943B11C8010E9417
:1042E0003B1100910201109103010F5F1F4F1093CA
:1042F0000301009302010E94FA10C8010E943E14BB
:1043000096CF8091100381110EC028EA3AE03093D5
:104310000F0320930E0330930D0320930C030E9490
:10432000800C60920B03F7011186108615861486A7
:10433000B401C6010E947C0F28EC30E0F701318304
:10434000208386EF9FEF9383828380910D0190916C
:104350000E01019690930E0180930D01709EF00165
:10436000719EF00D1124E357FD4F15823183208398
:104370002CEE3FEF338322838ECD8F929F92AF92AC
:10438000BF92CF92DF92EF92FF92CF93DF93EC0137
:10439000688179818A819B8161157105810591050B
:1043A00021F464E279ED8BE597E02DE133EF41E014
:1043B00050E00E94992349015A019B01AC01A7EAF0
:1043C000B1E40E94B8236B017C01ACEEB4EFA5010F
:1043D00094010E94C623C60ED71EE81EF91EF7FEE2
:1043E00006C081E0C81AD108E10880E8F80AC8824E
:1043F000D982EA82FB82C701B6019F77DF91CF9114
:10440000FF90EF90DF90CF90BF90AF909F908F90F4
:1044100008958F929F92AF92BF92CF92DF92EF92C8
:10442000FF926091AC017091AD018091AE019091CD
:10443000AF01611571058105910521F464E279ED03
:104440008BE597E02DE133EF41E050E00E949923A6
:1044500049015A019B01AC01A7EAB1E40E94B823CB
:104460006B017C01ACEEB4EFA50194010E94C62360
:10447000C60ED71EE81EF91EF7FE06C081E0C81A58
:10448000D108E10880E8F80AC092AC01D092AD01F1
:10449000E092AE01F092AF01C701B6019F77FF90A5
:1044A000EF90DF90CF90BF90AF909F908F90089546
:1044B0006093AC017093AD018093AE019093AF0116
:1044C0000895BB274A3031F4992322F4BDE2909538
:1044D00081959F4F0C946D22BB27FB015527AA277E
:1044E000880F991FAA1FA41710F0A41B8395505181
:1044F000B9F7A05DAA3308F0A95DA193009779F7F9
:10450000B111B1931192CB010C948622DC01FC0114
:10451000672F71917723E1F7329704C07C916D93F7
:1045200070836291AE17BF07C8F30895E89409C07D
:1045300097FB3EF490958095709561957F4F8F4FD6
:104540009F4F9923A9F0F92F96E9BB279395F695EC
:10455000879577956795B795F111F8CFFAF4BB0F6A
:1045600011F460FF1BC06F5F7F4F8F4F9F4F16C0CE
:10457000882311F096E911C0772321F09EE8872F58
:10458000762F05C0662371F096E8862F70E060E014
:104590002AF09A95660F771F881FDAF7880F96958D
:1045A000879597F908950E94E6220C9457230E945C
:1045B000492338F00E94502320F0952311F00C94E9
:1045C00040230C94462311240C948B230E946823CF
:1045D00070F3959FC1F3950F50E0551F629FF00156
:1045E000729FBB27F00DB11D639FAA27F00DB11D6F
:1045F000AA1F649F6627B00DA11D661F829F2227F8
:10460000B00DA11D621F739FB00DA11D621F839F7E
:10461000A00D611D221F749F3327A00D611D231F54
:10462000849F600D211D822F762F6A2F11249F57A2
:1046300050409AF0F1F088234AF0EE0FFF1FBB1FA5
:10464000661F771F881F91505040A9F79E3F510564
:1046500080F00C9440230C948B235F3FE4F3983E4E
:10466000D4F3869577956795B795F795E7959F5F0E
:10467000C1F7FE2B880F911D9695879597F90895A0
:1046800097F99F6780E870E060E008959FEF80EC05
:10469000089500240A9416161706180609060895A8
:1046A00000240A9412161306140605060895092E0E
:1046B0000394000C11F4882352F0BB0F40F4BF2B7D
:1046C00011F460FF04C06F5F7F4F8F4F9F4F0895BD
:1046D00057FD9058440F551F59F05F3F71F04795B3
:1046E000880F97FB991F61F09F3F79F08795089598
:1046F000121613061406551FF2CF4695F1DF08C0B7
:10470000161617061806991FF1CF869571056105D3
:1047100008940895E894BB2766277727CB0197F97B
:104720000895F999FECF92BD81BDF89A992780B579
:104730000895052E97FB1EF400940E94B02357FDA8
:1047400007D00E94022407FC03D04EF40C94B0233F
:1047500050954095309521953F4F4F4F5F4F0895AD
:1047600090958095709561957F4F8F4F9F4F0895DD
:104770000E942424A59F900DB49F900DA49F800DAE
:10478000911D11240895B7FF0C94B8230E94B823FB
:10479000821B930B08952F923F924F925F926F92DC
:1047A0007F928F929F92AF92BF92CF92DF92EF92C1
:1047B000FF920F931F93CF93DF93CDB7DEB7CA1B42
:1047C000DB0B0FB6F894DEBF0FBECDBF09942A886D
:1047D000398848885F846E847D848C849B84AA8415
:1047E000B984C884DF80EE80FD800C811B81AA81A2
:1047F000B981CE0FD11D0FB6F894DEBF0FBECDBF6D
:10480000ED010895A1E21A2EAA1BBB1BFD010DC0EC
:10481000AA1FBB1FEE1FFF1FA217B307E407F50770
:1048200020F0A21BB30BE40BF50B661F771F881F4C
:10483000991F1A9469F760957095809590959B01E2
:10484000AC01BD01CF010895A29FB001B39FC0018B
:10485000A39F700D811D1124911DB29F700D811DAC
:104860001124911D08955058BB27AA270E944B245C
:104870000C9457230E94492338F00E94502320F0C3
:1048800039F49F3F19F426F40C9446230EF4E09576
:10489000E7FB0C944023E92F0E94682358F3BA17D2
:1048A000620773078407950720F079F4A6F50C9446
:1048B0008A230EF4E0950B2EBA2FA02D0B01B9011F
:1048C00090010C01CA01A0011124FF27591B99F086
:1048D000593F50F4503E68F11A16F040A22F232F92
:1048E000342F4427585FF3CF469537952795A795E2
:1048F000F0405395C9F77EF41F16BA0B620B730B89
:10490000840BBAF09150A1F0FF0FBB1F661F771FF9
:10491000881FC2F70EC0BA0F621F731F841F48F4AE
:10492000879577956795B795F7959E3F08F0B0CF37
:104930009395880F08F09927EE0F9795879508951E
:104940000E944F25E3950C9478250E94B9240C947D
:1049500057230E94502358F00E94492340F029F425
:104960005F3F29F00C94402351110C948B230C943D
:1049700046230E94682368F39923B1F3552391F3EA
:10498000951B550BBB27AA2762177307840738F0BE
:104990009F5F5F4F220F331F441FAA1FA9F335D01B
:1049A0000E2E3AF0E0E832D091505040E695001CCF
:1049B000CAF72BD0FE2F29D0660F771F881FBB1F89
:1049C000261737074807AB07B0E809F0BB0B802D67
:1049D000BF01FF2793585F4F3AF09E3F510578F093
:1049E0000C9440230C948B235F3FE4F3983ED4F364
:1049F000869577956795B795F7959F5FC9F7880F67
:104A0000911D9695879597F90895E1E0660F771FB8
:104A1000881FBB1F621773078407BA0720F0621B49
:104A2000730B840BBA0BEE1F88F7E09508950E9474
:104A30001E256894B1110C948B2308950E94702355
:104A400088F09F5798F0B92F9927B751B0F0E1F04F
:104A5000660F771F881F991F1AF0BA95C9F714C0FF
:104A6000B13091F00E948A23B1E008950C948A231A
:104A7000672F782F8827B85F39F0B93FCCF3869538
:104A800077956795B395D9F73EF490958095709595
:104A900061957F4F8F4F9F4F08950C9446230E943E
:104AA0007023D8F3E894E0E0BB279F57F0F02AED9D
:104AB0003FE049EC06C0EE0FBB0F661F771F881F53
:104AC00028F0B23A62077307840728F0B25A620BE3
:104AD000730B840BE3959A9572F7803830F49A95AE
:104AE000BB0F661F771F881FD2F790480C9496253E
:104AF000EF93E0FF07C0A2EA2AED3FE049EC5FEB4D
:104B00000E944B240E9457230F90039401FC90585D
:104B1000ECEAF0E00C94A2259F930E944F250F90A1
:104B200007FCEE5F0C9478259F3F31F0915020F404
:104B3000879577956795B795880F911D9695879579
:104B400097F908959F938F937F936F93FF93EF93BC
:104B50009B01AC010E94D322EF91FF910E94B625E8
:104B60002F913F914F915F910C94D322DF93CF937C
:104B70001F930F93FF92EF92DF927B018C01689459
:104B800006C0DA2EEF010E94E622FE01E894A5910C
:104B90002591359145915591A6F3EF010E944B2443
:104BA000FE019701A801DA9469F7DF90EF90FF907A
:104BB0000F911F91CF91DF91089597FB072E16F467
:104BC000009407D077FD09D00E94F72507FC05D097
:104BD0003EF4909581959F4F0895709561957F4F14
:104BE0000895EE0FFF1F0590F491E02D0994AA1B84
:104BF000BB1B51E107C0AA1FBB1FA617B70710F0C8
:104C0000A61BB70B881F991F5A95A9F780959095F9
:104C1000BC01CD0108950F931F93CF93DF93823092
:104C2000910510F482E090E0E0913108F0913208B3
:104C300030E020E0B0E0A0E0309799F42115310594
:104C400009F44AC0281B390B24303105D8F58A8174
:104C50009B816115710589F1FB0193838283FE01BC
:104C600011C0408151810281138148175907E0F03A
:104C70004817590799F4109761F012960C93129700
:104C800013961C933296CF01DF91CF911F910F9114
:104C900008950093310810933208F4CF211531059F
:104CA00051F04217530738F0A901DB019A01BD0109
:104CB000DF01F801C1CFEF01F9CF90933208809363
:104CC0003108CDCFFE01E20FF31F81939193225063
:104CD000310939832883D7CF20912F0830913008AC
:104CE000232B41F42091B2013091B301309330086D
:104CF00020932F082091B0013091B1012115310589
:104D000041F42DB73EB74091B4015091B501241B39
:104D1000350BE0912F08F0913008E217F307A0F46B
:104D20002E1B3F0B2817390778F0AC014E5F5F4F01
:104D30002417350748F04E0F5F1F509330084093FB
:104D40002F08819391939FCFF0E0E0E09CCFCF9329
:104D5000DF930097E9F0FC01329713821282A09151
:104D60003108B0913208ED0130E020E01097A1F455
:104D700020813181820F931F20912F0830913008BC
:104D80002817390709F061C0F0933008E0932F0825
:104D9000DF91CF910895EA01CE17DF07E8F54A8148
:104DA0005B819E0141155105B1F7E901FB83EA835F
:104DB00049915991C40FD51FEC17FD0761F480810B
:104DC00091810296840F951FE901998388838281DE
:104DD00093819B838A83F0E0E0E012968D919C9111
:104DE00013970097B9F52D913C911197CD0102963B
:104DF000820F931F20912F08309130082817390710
:104E000039F6309751F51092320810923108B0936C
:104E10003008A0932F08BCCFD383C2834081518137
:104E2000840F951FC817D90761F44E5F5F4F8881C3
:104E30009981480F591F518340838A819B819383B5
:104E400082832115310509F0B0CFF0933208E09349
:104E500031089ECFFD01DC01C0CF13821282D7CF73
:104E6000B0E0A0E0E6E3F7E20C94CD238C010097DC
:104E700051F4CB010E940B268C01C801CDB7DEB7DF
:104E8000E0E10C94E923FC01E60FF71F9C0122509E
:104E90003109E217F30708F49DC0D901CD91DC91E7
:104EA0001197C617D70798F0C530D10530F3CE015A
:104EB00004978617970708F3C61BD70B2297C19351
:104EC000D1936D937C93CF010E94A726D6CF5B012F
:104ED000AC1ABD0A4C018C0E9D1EA0913108B091F8
:104EE0003208512C412CF12CE12C109731F5809196
:104EF0002F08909130088815990509F05CC0461676
:104F0000570608F058C08091B0019091B101009708
:104F100041F48DB79EB74091B4015091B501841B07
:104F2000950BE817F90708F055C0F0933008E093A7
:104F30002F08F90171836083A0CF8D919C91119707
:104F400012966C90129713967C901397A815B9053A
:104F500059F56C0142E0C40ED11CCA14DB0420F1E7
:104F6000AC014A195B09DA011296159780F062824A
:104F7000738251834083D9016D937C93E114F104D2
:104F800071F0D7011396FC93EE93129776CF229689
:104F90008C0F9D1FF90191838083F301EFCFF09374
:104FA0003208E093310869CF4816590608F42C01FD
:104FB0007D01D3019ACFCB010E940B267C01009783
:104FC00049F0AE01B8010E94ED27C8010E94A72652
:104FD000870153CF10E000E050CFFB01DC0102C09D
:104FE00001900D9241505040D8F70895FB01DC012B
:0E4FF00001900D920020E1F70895F894FFCF94
:104FFE0001000100010020030A0019000D00000548
:10500E00000004000000000000000D00640002011A
:10501E0001000000000000000D006400020101000C
:10502E000000000000000D006400020101000000FD
:10503E00000000000D0064000201010000000000ED
:10504E0000000D00640002010100000000000000DD
:10505E000D006400020101000000000000000D00C0
:10506E006400020101000000000000000D00640059
:10507E00020101000000000000000D0064000201AA
:10508E0001000000000000000D006400020101009C
:10509E00FFFFFFFF00E10000000000000100000024
:1050AE000000330880000A0019000D000005000002
:1050BE00040000C1808100000000000000DA0759E2
:1050CE0007FB07F0074108FF071D08000000005FFF
:1050DE000E2009790F780F4C6576656C20004C6FA9
:1050EE0061646564004279204069636F6465616C38
:1050FE006F740053657474696E67730053746172D4
:10510E00742047616D6500417564696F204F666656
:10511E0000417564696F204F6E00506577205065B1
:10512E0077210054727920416761696E21005468BD
:10513E006520456E640050617373656421004C6593
:04514E0076656C0016
:00000001FF
