:100000000C942F080C9457080C9457080C9457081C
:100010000C9457080C9457080C9457080C945708E4
:100020000C9457080C9457080C944B0F0C94BA0F6F
:100030000C9457080C9457080C9457080C945708C4
:100040000C9457080C9457080C9457080C945708B4
:100050000C9457080C9457080C9457080C94EC1106
:100060000C9457080C9457080C9457080C94570894
:100070000C9457080C9457080C9457080C94570884
:100080000C9457080C9457080C9457080C94570874
:100090000C9457080C9457080C9457080C94570864
:1000A0000C9457080C9457080C9457080000000053
:1000B000003E5B4F5B3E3E6B4F6B3E1C3E7C3E1CEE
:1000C000183C7E3C181C577D571C1C5E7F5E1C0034
:1000D000183C1800FFE7C3E7FF0018241800FFE7EB
:1000E000DBE7FF30483A060E2629792926407F05AE
:1000F0000507407F05253F5A3CE73C5A7F3E1C1CC4
:1001000008081C1C3E7F14227F22145F5F005F5F83
:1001100006097F017F006689956A6060606060946F
:10012000A2FFA29408047E040810207E2010080874
:100130002A1C08081C2A08081E101010100C1E0C7F
:100140001E0C30383E3830060E3E0E060000000011
:100150000000005F00000007000700147F147F14F8
:10016000242A7F2A1223130864623649562050003D
:1001700008070300001C2241000041221C002A1C29
:100180007F1C2A08083E0808008070300008080814
:100190000808000060600020100804023E51494534
:1001A0003E00427F400072494949462141494D3352
:1001B0001814127F1027454545393C4A49493141B9
:1001C000211109073649494936464949291E000087
:1001D00014000000403400000008142241141414DC
:1001E0001414004122140802015909063E415D59C8
:1001F0004E7C1211127C7F494949363E41414122D1
:100200007F4141413E7F494949417F090909013EFA
:10021000414151737F0808087F00417F4100204021
:10022000413F017F081422417F404040407F021C33
:10023000027F7F0408107F3E4141413E7F0909094A
:10024000063E4151215E7F09192946264949493216
:1002500003017F01033F4040403F1F2040201F3FDC
:100260004038403F63140814630304780403615961
:10027000494D43007F4141410204081020004141A3
:10028000417F04020102044040404040000307084F
:100290000020545478407F2844443838444444284B
:1002A000384444287F385454541800087E090218F2
:1002B000A4A49C787F0804047800447D400020407A
:1002C000403D007F1028440000417F40007C0478BE
:1002D00004787C080404783844444438FC18242406
:1002E0001818242418FC7C08040408485454542486
:1002F00004043F44243C4040207C1C2040201C3C03
:100300004030403C44281028444C9090907C4464F9
:10031000544C44000836410000007700000041368C
:10032000080002010204023C2623263C1EA1A16112
:10033000123A4040207A3854545559215555794144
:100340002154547841215554784020545579400C1B
:100350001E527212395555555939545454593955FC
:100360005454580000457C410002457D420001453F
:100370007C40F0292429F0F0282528F07C545545AC
:10038000002054547C547C0A097F4932494949323F
:100390003248484832324A4848303A4141217A3A54
:1003A00042402078009DA0A07D39444444393D401E
:1003B00040403D3C24FF2424487E4943662B2FFCCB
:1003C0002F2BFF0929F620C0887E09032054547979
:1003D000410000447D413048484A32384040227A4A
:1003E000007A0A0A727D0D19317D2629292F2826C7
:1003F0002929292630484D402038080808080808CF
:100400000808382F10C8ACBA2F102834FA00007B27
:10041000000008142A142222142A1408950022002D
:1004200095AA005500AAAA55AA55AA000000FF00E7
:10043000101010FF00141414FF001010FF00FF1024
:1004400010F010F0141414FC001414F700FF000056
:10045000FF00FF1414F404FC141417101F10101FD5
:10046000101F1414141F00101010F0000000001FC3
:10047000101010101F10101010F010000000FF10CE
:100480001010101010101010FF10000000FF1400CA
:1004900000FF00FF00001F10170000FC04F41414FC
:1004A0001710171414F404F40000FF00F7141414C8
:1004B00014141414F700F7141414171410101F1048
:1004C0001F141414F4141010F010F000001F101F6B
:1004D0000000001F14000000FC140000F010F010D9
:1004E00010FF10FF141414FF141010101F00000050
:1004F00000F010FFFFFFFFFFF0F0F0F0F0FFFFFF54
:100500000000000000FFFF0F0F0F0F0F38444438AA
:10051000447C2A2A3E147E02020606027E027E02E5
:1005200063554941633844443C04407E201E200604
:10053000027E020299A5E7A5991C2A492A1C4C7241
:1005400001724C304A4D4D303048784830BC625AC8
:10055000463D3E494949007E0101017E2A2A2A2A58
:100560002A44445F444440514A444040444A514034
:100570000000FF0103E080FF000008086B6B0836F5
:1005800012362436060F090F060000181800000066
:100590001010003040FF0101001F01011E00191D55
:1005A0001712003C3C3C3C00000000000000000032
:1005B00000000000000018BCFEC6C2C2C6FE3C001F
:1005C000FCFEC6C2C2C6FE3C0000D8C8002070F8BF
:1005D000F8202000F8FCFEF67E3E3C3800F8FCFED9
:1005E000C6C2C2C6FEFC00FEFEFE0606060CFCF0FD
:1005F00000FCFEC6C2C202000000000000000000B5
:1006000000000000000000000000000000000E1FBD
:100610001F101010191F0E001F1F181010101D1F83
:1006200006001F1F0000001F1F1808000F1F1F1FBC
:100630001E1E1E0C000F1F1F000000001F1F001FAA
:100640001F1F1818181C0F03001F1F101010100078
:100650000000000000000000000000008D14A1C890
:1006600081CFD9F102AF32014C9292620008FE08AC
:100670000068A8A8F000F008080008FE88800000C4
:100680000000384482B292740068A8A8F000F8080C
:10069000103008F80070F8A8B8B0FFFF794949CFCA
:1006A0004949794949CF4949794949CF494949FF98
:1006B0000703797D7D1C6C2C2C2C2C005E5E0000C9
:1006C00000000000000000000818A060E0400000EA
:1006D000000000000000000000000000000000001A
:1006E0000000000040E060A01808000000000000CA
:1006F0000000000000005E5E002C2C2C2C6C1C7D89
:100700007D790307FF494949CF4949794949CF498B
:1007100049794949CF494979FFFFFFFF9E9292F3FA
:1007200092929E9292F392929E9292F3929292FF62
:100730000003FBFBFB03F8030000000000FEFF07C3
:10074000337B7B3303030303030303030303030329
:100750000303030303030303030303030303030369
:100760000303030303030303030303030303337BB1
:100770007B3305ABFE0000000000000003F803FB24
:10078000FBFB0300FF929292F392929E9292F3925D
:10079000929E9292F392929EFFFFFFFFE724243CE9
:1007A0002424E724243C2424E724243C242424FF78
:1007B0000000FFFFFF00FF000000000000FFFF003F
:1007C00000000000000202FE020200FA0000F80829
:1007D00008F0000830C0780820202000FE12120C1B
:1007E0000000FA0000F88888700070A8A8B0000027
:1007F000000000AAFF0000000000000000FF00FF52
:10080000FFFF0000FF2424243C2424E724243C246C
:1008100024E724243C2424E7FFFFFFFF794949CF44
:100820004949794949CF4949794949CF494949FF16
:100830000000FFFFFF00FF000000000000FFFF00BE
:1008400060F0F06000000000000000000000000008
:100850000000000202010000000000000000000093
:10086000000000000003000000000000000060F035
:10087000F06000AAFF0000000000000000FF00FF81
:10088000FFFF0000FF494949CF4949794949CF490C
:1008900049794949CF494979FFFFFFFF7E32323319
:1008A00032323E32323332323E32323332321A0F49
:1008B000E0F0F777B7B0B7B0B0007878000306057E
:1008C00006040604060406040604060406040604D8
:1008D00006040604060406040604060406040604C8
:1008E00006040604060406040604060406040604B8
:1008F0000604070603000000787800B0B0B7B0B770
:1009000077F7F0E00F1A32323332323E323233327E
:10091000323E32323332327EFFFFFFFF7060606260
:1009200066786C6C78606060606060606060606C6D
:100930006D6D6D8CE10C00000000010100000000F5
:1009400000000000000000000000000000000000A7
:100950000000000000000000000000000000000097
:100960000000000000000000000000000000000087
:1009700000000000000000000101000000000CE188
:100980008C6D6D6D6C6060606060606060786C6CD8
:100990007866626060606070FFFFFFFF0301010125
:1009A0000101010101010101010101010101010137
:1009B000010101010000808000C040000018C01843
:1009C000D8D8D81800000000000000000000000087
:1009D0000000000000000000000000000000000017
:1009E0000000000000000000000000000000000007
:1009F0000018C018D8D8D818000040C00080800067
:100A000001010101010101010101010101010101D6
:100A10000101010101010103FFFF27273E2424E416
:100A200024243C2424E424243C2424E424243C24BE
:100A300024E424243C2725E725243C2424E42724FB
:100A40003F2727E424243C2424E424243C2424E4D5
:100A500024243C2424E424243C2424E424243C248E
:100A600024E424243C2424E424243C2424E42424D6
:100A70003C2427E427273F2424E424243D2725E79A
:100A800024243C2424E424243C2424E424243C245E
:100A900024E424243C2424E6272704017C447C000D
:100AA000007C000074545C0044547C001C107C00EA
:100AB0005C5474007C54740004740C007C547C00FE
:100AC0005C547C001C017C4040007C5454003C4041
:100AD0003C007C5454007C4040005C547400000096
:100AE0006C6C4460FF00325AFF00323232643232A2
:100AF000326432323200C8323264323232643232DC
:100B00003200C83232643232326432323200C85A71
:100B1000FF00C86032743260327432603260327406
:100B200032603274326032000001000100000101C5
:100B300000010000000100010100010001010101AC
:100B4000000100010007010E9FFF7FDB0E021CBEAB
:100B50007EFE361C041C3EFE7EB61C04020EDB7FAD
:100B6000FF9F0E041C36FE7EBE1C041CB67EFE3E9D
:100B70001C060140E0A0A0E04060F090D0F0607062
:100B8000F888C8F870070100C060E04030100040ED
:100B9000E060A0180800C06060C03010103040E075
:100BA00060C0000818A060E040001030C06060C065
:100BB000000040C0C0C040003666FF00FF5AFF0082
:100BC000FF50FF00FF48323E3248323E3248323E4C
:100BD0003248323E3248323E3248323E3248323E6D
:100BE0003248323E3248323E3248323E324832FF9C
:100BF000FFFF00FFFF0100FEFFFFFF014879FF003C
:100C0000FF80BCBEBE8E3696161616002F2F000033
:100C100000000000000000000000000000000000D4
:100C200000000000000000000000000000000000C4
:100C300000000000000000000000000000000000B4
:100C400000000000000000000000000000000000A4
:100C50002F2F0016161696368EBEBEBC80FF00FFE4
:100C6000794801FFFFFFFE0001FFFF00FFFFFFFFCC
:100C7000FF0FF0FF3F00F0FFFFFF0192929EFF0089
:100C8000FFA9ADADADB19C818080808080808080E7
:100C90008080808080808080808080808080808054
:100CA0008080808080808080808000000000000044
:100CB0000000000080808080808080808080808034
:100CC0008080808080808080808080808080808024
:100CD000808080808080819CB1ADADADA9FF00FF98
:100CE0009E929201FFFFFFF0003FFFF00FFFFFFF1A
:100CF000FFFCFF0F00FCFFFF7F013C2424E7FF0007
:100D0000FF030203020302030203020302030203BE
:100D100002030203020302030203020302030203AB
:100D200002030203020302030203000000000000AA
:100D30000000000003020302030203020302030295
:100D4000030203020302030203020302030203027B
:100D500003020302030203020302030203FF00FF74
:100D6000E724243C017FFFFFFC000FFFFCFFFFFF97
:100D7000FFFFFFFC7E3F1F43484FC9494979FF00F1
:100D8000FF00000000000000000000000000000064
:100D90000000000000E0A0E0A0E0A0E0A0E0A0E0F3
:100DA000A0E0A0E0A0E0A0E0A0E0A0E0A0E0A0A083
:100DB000E0A0E0A0E0A0E0A0E0A0E0A0E0A0E0A033
:100DC000E0A0E0A0E0A0E0A0E00000000000000043
:100DD00000000000000000000000000000FF00FF15
:100DE000794949C94F48431F3F7EFCFFFFFFFFE79A
:100DF000F3F379F8E082129E92F29392929EFF00B2
:100E0000FF1C141C141C141C141C141C00000000D7
:100E100000000000000000000000000000000000D2
:100E200000000000000000000000000000000000C2
:100E300000000000000000000000000000000000B2
:100E400000000000000000000000000000000000A2
:100E500000001C141C141C141C141C141CFF00FF88
:100E60009E929293F2929E1282E0F879F3F3E7FF5A
:100E7000FFFFFCE31FFFFEF004243C2424E7FF00F7
:100E8000FFC040C040C040C040C040C040C040C0A3
:100E900040C040C040C040C040C040C040C040C052
:100EA0000000000000000000000000000000000042
:100EB0000000000000000000000000000000C04032
:100EC000C040C040C040C040C040C040C040C04022
:100ED000C040C040C040C040C040C040C0FF00FF54
:100EE000E724243C2404F0FEFF1FE3FCFFFFFFFF88
:100EF000FF1FFFFFFE01FFFFFC01C9494979FF0009
:100F0000FFC1C1C1C101E1E1010101010101010113
:100F100001010101010101010101010101010101C1
:100F200000000000000000000000000000000000C1
:100F300000000000000000000000000000000101AF
:100F40000101010101010101010101010101010191
:100F5000010101010101E1E101C1C1C1C1FF00FFC6
:100F6000794949C901FCFFFF01FEFFFF1FFFFFFF99
:100F7000FF1FE0FFFF00FFFFFF00F392929EFF00C4
:100F8000FF25A585E520AB8BE020A080E020A08098
:100F9000E020A080E020A080E020A080E020A080D1
:100FA000E020A080E020A080E020A080E020A080C1
:100FB000E020A080E020A080E020A080E020A080B1
:100FC000E020A080E020A080E020A080E020A080A1
:100FD000E020A080E020AB8BE025A585E5FF00FFA9
:100FE0009E9292F300FFFFFF00FFFFE01FFFFF084C
:100FF0000B000202020100090400000102020000CD
:101000000524001001052401010104240206052421
:101010000600010705810310004009040100020ACF
:10102000000000070502024000000705830240009F
:10103000000403090412010002EF020140412336BB
:101040008000010102030141726475696E6F204CDA
:101050004C4300414241313130360000AE12112480
:101060001FBECFEFDAE0DEBFCDBF11E0A0E0B1E000
:10107000E4E0F4E302C005900D92AA33B107D9F77A
:1010800026E0AAE3B1E001C01D92A732B207E1F762
:1010900018E0CFE2D8E004C02197FE010E94F519C4
:1010A000CE32D107C9F70E94DF120C94001A0C94BB
:1010B0000000E2EBF1E030EB20E146E05C983EBD61
:1010C0004A95F1F72EBD20E8239507C04491408151
:1010D0005C9A4EBD8111412D419344912A95B1F7FF
:1010E0003395383B49F70DB40895FC018091B10167
:1010F000882311F13FB7F89482E08093E9002091B2
:10110000F200822F90E01816190614F481E090E0A6
:10111000882339F0289844E64093B0014091F100CB
:101120004083222339F02091F200211103C02BE6E5
:101130002093E8003FBF08958FEF9FEF08952FB7EA
:10114000F89483E08093E9009091E800892F807201
:1011500095FF04C09091F20080E4891B2FBF089591
:101160008091A80181110DC082E08093A40184E0E8
:101170008093A5011092A7011092A60181E08093AF
:10118000A80184EA91E00895CF93DF931F92CDB731
:10119000DEB76983DC01ED91FC910280F381E02DE3
:1011A00041E050E0BE016F5F7F4F09950F90DF91E6
:1011B000CF91089583E08093E9008091F200882325
:1011C00019F08AE38093E80008950E949F0890E058
:1011D0000895CF93DF931F92CDB7DEB7FC018485CE
:1011E000958597FD08C02FEF3FEF358724870F9037
:1011F000DF91CF910895CE0101960E947508019765
:1012000019F4898190E0F3CF8FEF9FEFF0CF0F9328
:101210001F93CF93DF931F92CDB7DEB78C01FC01F4
:101220008485958597FF0BC0CE0101960E947508B5
:10123000019771F4898190E0F80195878487F8011E
:10124000848595850F90DF91CF911F910F9108951F
:101250008FEF9FEFF1CFFC018485958597FD0BC043
:101260009FB7F89482E08093E9008091F2009FBFDD
:1012700090E0019608959FB7F89482E08093E9008A
:101280008091F2009FBF90E0089540919E0150919F
:101290009F0120919C0130919D0142175307B4F4A6
:1012A0009091E8009570E1F39091E80092FD19C0EB
:1012B0008093F10080919E0190919F0101968F7320
:1012C0009927892B19F48EEF8093E80080919E0175
:1012D00090919F01019690939F0180939E0181E0E0
:1012E000089580E00895DF92EF92FF920F931F938D
:1012F000CF93DF93D82E8A01EB017B01E40EF51E1C
:10130000CE15DF0559F0D7FE12C0FE0184910E9470
:10131000450921968111F4CF0FEF1FEFC801DF912E
:10132000CF911F910F91FF90EF90DF9008958881EA
:10133000EECF0F931F93CF93DF931F92CDB7DEB7FE
:1013400082E0898342E450E06FEE7FE080E80E9413
:1013500073090E94B008DC0112960D911C910115D1
:10136000110589F0D801ED91FC910280F381E02D07
:10137000BE016F5F7F4FC801099597FD04C0F8015A
:1013800000851185ECCF89810F90DF91CF911F915E
:101390000F910895615030F02091F100FC012083FD
:1013A0000196F8CF289884E68093B0010895AF9213
:1013B000BF92CF92DF92EF92FF920F931F93CF9342
:1013C000DF936C017B018B01040F151FEB015E01A4
:1013D000AE18BF08C017D10759F06991D601ED9139
:1013E000FC910190F081E02DC6010995892B79F7D8
:1013F000C501DF91CF911F910F91FF90EF90DF908A
:10140000CF90BF90AF9008953FB7F89480913B0183
:1014100090913C01A0913D01B0913E0126B5A89B61
:1014200005C02F3F19F00196A11DB11D3FBFBA2F76
:10143000A92F982F8827BC01CD01620F711D811D36
:10144000911D42E0660F771F881F991F4A95D1F7BB
:1014500008958F929F92AF92BF92CF92DF92EF92B8
:10146000FF926B017C010E94040A4B015C01C114D4
:10147000D104E104F104B9F00E94040A6819790961
:101480008A099B09683E73408105910580F321E03C
:10149000C21AD108E108F10888EE880E83E0981E90
:1014A000A11CB11CE4CFFF90EF90DF90CF90BF90D4
:1014B000AF909F908F9008958F929F92AF92BF921E
:1014C000CF92DF92EF92FF920F931F93CF93DF9310
:1014D0006C017B018A0180910C01882309F45CC0B6
:1014E0008091B101882309F457C08091A30180FF46
:1014F00005C08091E00082608093E000E801B12C9B
:101500008AEFA82E93E0892E2AE3922E209711F4D9
:10151000BB20D9F10E949F0881110AC0AA94AA2079
:10152000D9F161E070E080E090E00E94290AEECFFE
:101530008C171D0611F00CF08C2F9FB7F894809239
:10154000E9002091E80025FD02C09FBFDFCF282FD2
:1015500030E0C21BD30BF701815020F04191409342
:10156000F100FACFE20EF31EBB2021F09092E800CA
:10157000B12CEBCF8091E80085FDE7CF9092E80099
:10158000BB24B394209709F3F3CF5D9884E680934E
:10159000A201101611063CF081E090E0F601938361
:1015A000828310E000E0C801DF91CF911F910F917D
:1015B000FF90EF90DF90CF90BF90AF909F908F9073
:1015C00008952D9A0895BC0190E080E00C94290ABA
:1015D0008FB18095807F669B88601C9B8460089596
:1015E0008EBD00000DB407FEFDCF8EB508952F927D
:1015F0003F924F925F926F927F928F929F92AF92A3
:10160000BF92CF92DF92EF92FF920F931F93CF93EF
:10161000DF9300D000D01F92CDB7DEB79C838B83C1
:101620006A3059F5DC0155968C91B8E08B9F90019A
:101630001124EB81FC8181899289820F931F928B07
:10164000818B108A178681E090E00F900F900F90A9
:101650000F900F90DF91CF911F910F91FF90EF901E
:10166000DF90CF90BF90AF909F908F907F906F90C2
:101670005F904F903F902F9008956D3021F3AB8194
:10168000BC811F968D919C915097803891050CF0EC
:1016900087C05196CD90DC90B0E4CB16D1040CF00D
:1016A0007FC0EB81FC819588E5E09C019E9E200D2A
:1016B000311D1124121613060CF072C0E92CF12C06
:1016C0009701B3E0220F331FBA95E1F72C0D3D1DB2
:1016D000121613060CF064C0AB81BC8154965C906A
:1016E000549753964C906E9FF0011124E455FF4F90
:1016F00070E02491753009F420E05601A8E06A2ECC
:10170000222E312C642D20FF652D611103C054144D
:1017100009F437C0AC0161706A834983242F281B08
:10172000291578F510E000E0091540F5403851051D
:1017300010F598012A0D3B1D20343105E0F460E1DD
:10174000762E898061E021FD64E020FD660F22FD98
:101750006295287F729ED0011124A80D6D83AE542E
:10176000BE4F2C913A81862E822A311103C08D8082
:10177000809482228C920F5F1F4FD6CF4F5F5F4FB6
:10178000CCCF9101359527956A94AE0CBF1C6110A2
:10179000B7CF7F5F31968E0D9F1D763009F0A9CFB0
:1017A000AB81BC8155962C915597422F50E01F96E6
:1017B0008D919C91B6E02B9F800D911D1124EB81A2
:1017C000FC81908B87872689222309F43CCF6AEF1E
:1017D00064039001659F300D112420583F4F281756
:1017E00039070CF030CFCF010190F081E02D01904E
:1017F000F081E02D6AE0099526CF0895089590E0E4
:1018000080E00895613019F0623091F008959EE013
:10181000899FF0011124EE5BFE4F8091890185873D
:1018200082E0848386E08387128282EF8187089535
:101830009EE0899FF0011124EE5BFE4F158681E04A
:101840008483F3CF80917E018823D9F11092BD0566
:1018500087E08093B7058093B8051092BC0510927D
:10186000BB051092B9051092950110929601109245
:101870009701109299011092980180939A01809398
:101880009B0190917F01913079F48AE28093B205B7
:1018900085E38093B3051092B4059093B60510923A
:1018A000B50510927F01089595E39093B20580935A
:1018B000B3051092B40582E08093B6051092B50589
:1018C000089582E0809380010895809141018D31D7
:1018D00020F48F5F80934101089580E0FBCF8091D9
:1018E000B605823019F481E08093B6050C94650C3E
:1018F0000F93811132C06B3344F447FD0CC0223189
:1019000054F40F3034F081E030C0453414F022310B
:10191000C4F36A358CF4463224F0203214F40D31CD
:1019200094F76D314CF447FD20C025327CF402322F
:1019300054F743366CF40AC0433624F0253214F4CD
:1019400002320CF761335CF447FD0FC021335CF4C5
:101950000E32CCF681E00D3344F480E006C04F3403
:10196000ACF747FD02C02E33ACF30F910895AF9250
:10197000BF92CF92DF92EF92FF920F931F93CF937C
:10198000DF93EC018C81882309F440C099859E3156
:101990009CF59E5F9987292F092E000C330B37FF8A
:1019A00003C0319521953109E62E8A85280F2A87B3
:1019B00097FD39C08A8599818B3004F5DE80688176
:1019C000FD80FA94F60EEE24E394E60ECB801981A6
:1019D000012F0D0D212F4F2D6E2D8C2D0E94780C77
:1019E000882389F0115019831A8619868C858130D5
:1019F00009F482E08C87EBCF9EE1CCCF9F5F998387
:101A00008A508A87D7CF10340CF01C82DF91CF9197
:101A10001F910F91FF90EF90DF90CF90BF90AF900C
:101A200008951A8619868A8529818B303CF0273FD4
:101A3000C4F3215029838A508A87F5CFAE80D8809D
:101A4000FD80FA94FD0CCC24C394CD0CBB800A2DF0
:101A5000020F4F2D6C2D8B2D0E94780C8823B1F234
:101A60001981012F0A0D212F4F2D6C2D8B2D0E94D6
:101A7000780C882329F01F5F19831A861986F0CF06
:101A8000809199018111C2CF81E0E812BFCFD0923D
:101A9000950118501093960110929701E0929901C8
:101AA0001092980187E080939A0180939B01AECFBA
:101AB0000F931F93CF93DF93EC018F81282F880F13
:101AC000330B37FF03C03195219531098885820F8B
:101AD0008B3034F48887DF91CF911F910F91089557
:101AE0008A50888718811930C4F09FEF910F98832E
:101AF0008A81823080F48F5F8A8329810E81020F70
:101B00004D814150490F612F8B810E94780C8823B1
:101B100011F31883E0CF80E0EFCF82E78883DBCF3B
:101B20000F931F93CF93DF93EC018F81282F880FA2
:101B3000330B37FF03C03195219531098885820F1A
:101B40008B3034F48887DF91CF911F910F910895E6
:101B50008A50888718811237CCF491E0910F9883CE
:101B60008A81823088F48F5F8A8329810E81020FF7
:101B70004D814150490F62E0610F8B810E94780CCA
:101B8000882309F31883DFCF80E0EECF88E08883D5
:101B9000DACF8091B90587FF07C08F5F8093B905C1
:101BA00082EB95E00C94580D882339F08150809396
:101BB000B90582EB95E00C94900D0895CF92DF92D9
:101BC000EF92FF920F93CF93DF93F701A491319699
:101BD000B49150E0082E000C990BCA2FD0E0FE0102
:101BE0003197E80FF91FE417F507ACF148175907CB
:101BF00094F130E0062E000C770B261737075CF1C6
:101C0000EB2FE150FF0BE60FF71FE217F3071CF174
:101C1000261B370B2C9FF0012D9FF00D3C9FF00DE4
:101C20001124481B590BE40FF51FAB9FD001112461
:101C30000A9FC0010B9F900D1124E80FF91F3296E7
:101C4000EE0DFF1D8491DF91CF910F91FF90EF90EA
:101C5000DF90CF90089580E0F6CFCF92DF92EF92A1
:101C6000FF920F93CF93DF93F701949131963491C4
:101C7000C42ED12CC82F082E000CDD0BE92FE1500B
:101C8000FF0BDF01AC0FBD1FAC15BD050CF45BC035
:101C9000CC16DD060CF457C0A62F062E000CBB0B8D
:101CA00053E0B595A7955A95E1F7C22FD0E0CA1732
:101CB000DB070CF448C06D01C30ED11CCC16DD0649
:101CC0000CF441C0939FE02D112431E03E0FE09FC2
:101CD000002D11242A1B67704E5F481BE42F299F9B
:101CE000E00D112480E03E1758F0E00FFF27FF1FA2
:101CF000EE0DFF1D8491062E01C0880F0A94EAF7AD
:101D00001216CCF42150299F400D1124A42FA00FAE
:101D1000BB27BB1FFD01EE0DFF1DE490341758F0EB
:101D2000F12C28E030E0261B310902C0F594E7943D
:101D30002A95E2F78E29DF91CF910F91FF90EF90D6
:101D4000DF90CF90089580E0F6CF811109C070E058
:101D500090E080E00E94290A88B18F7388B90895C5
:101D600040E02FEF30E0F901E81BF109CF01461701
:101D700099F3479A469820E02817190634F4F5E0BD
:101D8000FA95F1F700002F5FF7CF469A479820E0C9
:101D90002817190634F435E03A95F1F700002F5F63
:101DA000F7CF4F5FE4CF0F931F93CF93DF93FC01E7
:101DB000D491C1E08C010E5F1F4FCD1750F4F80194
:101DC00064910196FC0184910E94A50ECE5FC8012A
:101DD000F1CFDF91CF911F910F9108955F926F9294
:101DE0007F928F929F92AF92BF92CF92DF92EF92AB
:101DF000FF920F931F93CF93DF936C01562ED0E089
:101E0000C0E066246A9488E0882E912C56012CEF5D
:101E1000B21A8FEF99EF20E0815090402040E1F717
:101E200000C00000762C8C2F511003C0C4018C1B05
:101E30009D0B01C0770C8A95EAF78601F12CE12C05
:101E4000F701E00FF11F849187210E94F00A9FEFB4
:101E5000E91AF90A20E8E216F10491F700581F4F39
:101E60000A151B0559F72196C930D10591F6DF9166
:101E7000CF911F910F91FF90EF90DF90CF90BF9087
:101E8000AF909F908F907F906F905F9008950C948B
:101E9000B7190E94FB191F920F920FB60F921124CF
:101EA0008F939F938091E1009091E100937F9093B5
:101EB000E10083FF0FC01092E90091E09093EB00E6
:101EC0001092EC0092E39093ED001092B10198E033
:101ED0009093F00082FF22C093E09093E9009091EC
:101EE000F200992319F09AE39093E8009091A201EF
:101EF000992341F09091A20191509093A2019111E8
:101F000001C05D9A9091B001992341F09091B00188
:101F100091509093B001911101C0289A84FF18C08C
:101F20008091E2008E7E81608093E2008091E100EA
:101F30008F7E8093E1008091A3018E7E80618093EB
:101F4000A3019F918F910F900FBE0F901F90189536
:101F500080FFF7CF8091E2008E7E80618093E20067
:101F60008091E1008E7E8093E1008091A3018E7EBE
:101F70008160E5CF1F920F920FB60F921124CF927E
:101F8000DF92EF92FF920F931F932F933F934F9304
:101F90005F936F937F938F939F93AF93BF93EF93D1
:101FA000FF93CF93DF93CDB7DEB76C97DEBFCDBF86
:101FB0001092E9008091E80083FF25C068E0CE011F
:101FC00045960E94CA0982EF8093E8008D8987FFB9
:101FD00039C09091E80090FFFCCF982F907609F0DF
:101FE00034C19E894F89588D2F89F88C911131C049
:101FF000803861F58091A1018093F1001092F10089
:102000008EEF8093E8006C960FB6F894DEBF0FBE9B
:10201000CDBFDF91CF91FF91EF91BF91AF919F9194
:102020008F917F916F915F914F913F912F911F9170
:102030000F91FF90EF90DF90CF900F900FBE0F9019
:102040001F9018959EEF9093E800C7CF1092F10073
:10205000D5CF913059F48111D3CF4130510581F65C
:102060008091A1018D7F8093A101CACF933049F463
:102070008111C6CF4130510519F68091A1018260CE
:10208000F2CF953041F48091E80080FFFCCF2068CA
:102090002093E300B5CF963009F0A9C00B8D1C8DBD
:1020A00022E01092E90010929F0110929E01F2121C
:1020B0002EC010929D0110929C010E9499091F82CE
:1020C00099E09983FA8291E09E8390EA98879AEF4B
:1020D000998720919E0130919F01275F3F4F3C835C
:1020E0002B838D831092E90010929F0110929E0124
:1020F00010939D0100939C0149E050E0BE016F5F89
:102100007F4F80E00E9473090E94990979CF109354
:102110009D0100939C010E94B008DC0112960D9174
:102120001C910115110509F451C1D801ED91FC91E3
:102130000480F581E02DBE016B5E7F4FC8010995DB
:10214000009709F03EC1F80100851185EACFF3E060
:10215000FF120EC08F89882309F440C0823061F4D9
:1021600040E867E083E590E10E943612811148CF94
:1021700081E28093EB0047CF813029F440E86BE0A7
:1021800087E490E1F1CF833099F70E94B008DC0139
:102190001296ED90FC908E010F5F1F4F6801E114C5
:1021A000F10479F0D701ED91FC910680F781E02DE3
:1021B000B801C7010995080F111DF701E084F184EA
:1021C000EECFD8011C92F60101900020E9F731977B
:1021D000BF016C197D0940E0C601C6CF61E370E123
:1021E000FB01449150E080E80E94730909CF9730C9
:1021F00009F4BECF983021F481E08093F10000CF44
:10220000993009F0FDCE837009F0B2CFEEE0F1E035
:1022100081E031E096E32191222371F08093E9007F
:102220003093EB00DF0111972C912093EC009093F9
:10223000ED008F5F873079F78EE78093EA00109288
:10224000EA008F898093B101DBCE8B8D9C8D10923B
:10225000E90010929F0110929E0190939D0180933E
:102260009C01898D811192C08E899D89913A49F492
:10227000813209F07DCF47E050E065E071E080E019
:10228000B3CF913209F074CF833269F48F89988D7E
:10229000B0E0A0E08093010190930201A0930301BC
:1022A000B0930401ADCE803269F48091E80082FFE2
:1022B000FCCF67E085E091E00E94CA098BEF809334
:1022C000E8009ECE823209F09BCE8F8980930C016C
:1022D000EEEFFFE7859194918B3F9C4D51F1E0E04B
:1022E000F8E08091050190910601A0910701B0915D
:1022F0000801803B9440A105B105F1F480910C01E7
:1023000080FD1AC0EE3F8AE0F80789F587E797E776
:1023100091838083809160008093A00188E19BE09D
:102320000FB6F894A895809360000FBE909360005C
:1023300067CEEEEFFAE0D5CF80819181873797475E
:1023400009F05ECEA895809160008861809360005E
:102350008091A00180936000EE3F2AE0F20789F0AF
:102360008091FE0A9091FF0A9183808349CE8081FB
:1023700091818737980751F29093FF0A8093FE0A64
:10238000C5CF1092FF0A1092FE0A3ACE0E94B00802
:10239000DC0112960D911C910115110509F4E8CE8E
:1023A000D801ED91FC910190F081E02DBE016B5EB2
:1023B0007F4FC8010995811123CEF8010085118551
:1023C000EBCF181619060CF41BCED2CEF1E0FF129B
:1023D000BECE65E370E104CF1F920F920FB60F924D
:1023E00011242F933F938F939F93AF93BF9380912B
:1023F0007A0190917B01A0917C01B0917D01309197
:102400003A0123E0230F2D3758F50196A11DB11D88
:1024100020933A0180937A0190937B01A0937C01F1
:10242000B0937D0180913B0190913C01A0913D01D1
:10243000B0913E010196A11DB11D80933B01909387
:102440003C01A0933D01B0933E01BF91AF919F919C
:102450008F913F912F910F900FBE0F901F90189565
:1024600026E8230F0296A11DB11DD2CFEF92FF9255
:102470000F931F93CF93DF93F82E192FE62E042F7F
:1024800081E0860F880F0E94450983E00E9445097C
:10249000CF2DD12FEC0EFD2EF11CCE15DF05B9F09E
:1024A00007FF13C0FE0184910E944509182F80E0A8
:1024B0000E944509812321968111EFCFDF91CF91B1
:1024C0001F910F91FF90EF9008958881EDCF81E0EB
:1024D000F5CF0F931F93CF93DF938C0181E090E0B2
:1024E0000E94470F80FF32C08AE090E00E94470FB1
:1024F0009FEF980F9E3F50F522E330E0D8015096B1
:102500003C932E931F9728E330E052963C932E93F2
:102510005197CBE0D0E0D801ED91FC910190F08192
:10252000E02D682FC8010995CE010E94470F219622
:10253000C131D10581F780E00E94590888EE93E00F
:10254000DF91CF911F910F910C94E30ADF91CF910E
:102550001F910F91089504970C946912E0ECF5E037
:102560001382128288EE93E0A0E0B0E0848395832A
:10257000A683B78388E191E0918380838FEF9FEFFB
:1025800095878487E0E1F6E0138212821186128635
:1025900080E183871086178215868AE291E0918315
:1025A000808388E391E095838483108A1786128A5A
:1025B000118A81E0838B148A858B168A0895CF93C4
:1025C000DF93CDB7DEB72A970FB6F894DEBF0FBE04
:1025D000CDBF789484B5826084BD84B5816084BDAC
:1025E00085B5826085BD85B5816085BD80916E00B1
:1025F000816080936E0010928100809181008260E2
:10260000809381008091810081608093810080911E
:10261000800081608093800080919100826080932F
:102620009100809191008160809391008091900051
:102630008160809390008091C10084608093C1008C
:102640008091C10082608093C1008091C10081604F
:102650008093C1008091C30081608093C30080910A
:10266000C00082608093C0008091C200816080932E
:10267000C20080917A00846080937A0080917A0011
:10268000826080937A0080917A00816080937A00E2
:1026900080917A00806880937A001092B101109244
:1026A000A1011092A3018091D70081608093D7008F
:1026B00080EA8093D80089B5806189BD89B5826040
:1026C00089BD09B400FEFDCF61E070E080E090E0DC
:1026D0000E94290A8091D8008F7C80618093D80065
:1026E0008091E000807F8093E0008091E1008E7E09
:1026F0008093E1008DE08093E200559A209A81EC6E
:1027000080937C0081E785B987E684B985E38BB93E
:102710008FE38AB9769A6E9880EF81BB10BA80E514
:102720008CBDCC24C394CDBC85E090E00E94E30A2C
:10273000599902C0599AF8CF5C98ECE5F6E09AE016
:1027400085910E94F00A9A95D9F75C9A81E8809366
:102750006400C092650081E00E9459080E94E80A66
:1027600087FF12C05C9885EA0E94F00A5C9A2E9856
:1027700058982D988091640080628093640081E075
:1027800083BF889513BEFCCF0E94E80A82FF48C031
:102790002D980E94E80A84788438E1F40E94E10AC6
:1027A00088EC90E00E94E30A589882E090E00E9452
:1027B000B7198F3F29F06FEF82E090E00E94BF19B8
:1027C00084EF91E00E94E30A589A0E94E80A847814
:1027D0008438D9F30E94E80A84718431E1F40E94BC
:1027E000E10A88EC90E00E94E30A2E9882E090E0F3
:1027F0000E94B719882329F060E082E090E00E94EF
:10280000BF1984EF91E00E94E30A2E9A0E94E80A21
:1028100084718431D9F388EC90E00E94E30AB4CF4C
:102820000E94E10A82E090E00E94470F882309F4A9
:102830007AC03E9A579A81E090E00E94470F082F95
:102840000470D02E81FF0EC001112E9880EF682EEB
:1028500077247A940E94E80A86FF68C02E9A589AD4
:102860000E94E10A82E390E00E94E30A0E94E80AE3
:102870008111F8CFB4E12B2E312C83E080937E01BF
:102880001092810181E080938A0110928B0122E4F1
:1028900031E03A87298787E0E985FA85108211823D
:1028A000128214821382858386833E96FA87E98793
:1028B000EA57F14089F760E08AE996E00E94EE0E5F
:1028C00010E08091910190919201A0919301B091BB
:1028D000940140918D0150918E0160918F01709112
:1028E00090016C017D01C41AD50AE60AF70AB70106
:1028F000A6014A3151056105710508F08AC02FB75C
:10290000F89480917A0190917B01A0917C01B09123
:102910007D012FBF8093910190939201A093930129
:10292000B0939401CECF3E98579885CFDD2031F0FB
:1029300014E06116710411F42E9A589881E00E94F7
:102940005908262D2770922E930113E0359527956F
:102950001A95E1F7C9019695982F8827979587953D
:102960008E549E4F50E040E02E3F6FEF360751F1FE
:10297000DC01AC56BF4FBC0110E000E0FA01E455A9
:10298000FA4F5F01F501E00FF11FE491F0E02F0134
:10299000092C02C0440C551C0A94E2F72F3F320761
:1029A00021F0FB01C488C428C48A992019F0EC9155
:1029B000E529EC930F5F1F4F11966F5F7F4F08352E
:1029C000110501F72F5F3F4F80589F4F485A5F4FC7
:1029D000403B510549F680E00E9459088FE090E0A5
:1029E0000E94E30AFFEF6F1A7F0A09E16016710483
:1029F00009F030CFDD2011F0589A2D9880E991E050
:102A00000E94E30A0E94E10A80E196E00E946912B6
:102A100029CF80938D0190938E01A0938F01B09365
:102A20009001A2EB8A2EA1E09A2E512C3401D12CD8
:102A3000C12CC401825B91409C012656394F59013B
:102A400030E8C316D104D1F080E0143158F4F6E632
:102A5000EF2EF6E0FF2E00E0252D4C2D65E086E2FE
:102A60000E94DE0DF501EC0DFD1DE4918E2BF301AE
:102A700081933F01FFEFCF1ADF0AE2CF539400E8C2
:102A8000800E911C28E05212D1CF80E00E9459089C
:102A90000E94E80A83FD09C00E94E80A82FD05C081
:102AA000183208F00DCF1F5F0CCF0E94E80A83FD9B
:102AB000FCCF0E94E80A82FDF8CF68E28AE00E941B
:102AC000A50E68E28CE30E94A50E68E28EE60E94E5
:102AD000A50E68E28AEA0E94A50E68E28CED0E94CB
:102AE000A50E61E08AE996E00E94EE0EBB24B39445
:102AF000B0927F01109280011092820182E0809357
:102B0000860110928701109288011091810118307E
:102B100039F008F090C0123019F0153009F094C067
:102B200080917E018F5F80937E016FEF88EC0E9421
:102B3000A50E6FEF80E00E94A50E6FEF88EC0E945B
:102B4000A50E6FEF80E00E94A50E6FEF88EC0E944B
:102B5000A50E6FEF80E00E94A50E212F30E047E028
:102B6000149FC0011124B1010E94CD196D5F6093C3
:102B70008301C90175E0880F991F7A95E1F7B101CA
:102B80000E94CD19685F6093840148ED4203C00143
:102B9000439F900D1124B1010E94CD19605B609399
:102BA00085014DE3429FC001439F900D921B11246C
:102BB000B1010E94CD196150609389010E94220CDD
:102BC0006FEF84E39CE0615080409040E1F700C0EB
:102BD0000000E2EBCE2EE1E0DE2E10E04601A12C5B
:102BE00070908A01E0E8AE16A1F154ECE52E5AE0AF
:102BF000F52E00E0212F4A2D63E08CE20E94DE0DCD
:102C0000682E6AE9E62E6AE0F62E00918B01212FEC
:102C10004A2D63E08BE40E94DE0D682A072D212FE8
:102C20004A2D63E080E50E94DE0D8629F401819340
:102C30004F01A394D5CF1E3009F472CF113109F49E
:102C40006FCF1B3009F46CCF153108F486CF14E137
:102C500084CF1F5FF0E8CF0ED11C183009F0BECF33
:102C600048E0C42EC71488F1739470928A0180E002
:102C70000E94590882EE9AE00E94D30E0FEF14E3EF
:102C80002CE0015010402040E1F700C0000060E05F
:102C90008FEE9BE00E94EE0E3DEF832E8091B505F6
:102CA000811157C00E94E80A86FF3AC00E946F0C4B
:102CB0001092BD058091B90587FF11C00E94C90D12
:102CC00082EB95E00E94580D13C010928A0180910A
:102CD0008B01893060F68F5F80938B01C8CF8A307B
:102CE0000CF48F5F8093B90582EB95E00E94900D04
:102CF00080910001803AA0F11092000180913F0183
:102D00004EE0849FF0011124EE5BFE4F9781919578
:102D10009783833008F09FC18F5F80933F0123C06A
:102D20000E94E80A85FF12C00E946F0C33E03093C6
:102D3000BD058091B90518161CF40E94C90DD4CFA9
:102D4000873F0CF081508093B905BACF0E94C90D1E
:102D5000CFCF8091B6058111CBCF0E94220CC8CF76
:102D60008F5F8093000102E411E0F80184818823E1
:102D700021F1813009F086C18381811112C08081E7
:102D8000978119160CF06AC18E3634F0818128E1E2
:102D9000C22E85330CF069C1F8011386C8010E9468
:102DA000900DF80181818D3F21F480818E518E3309
:102DB00020F460E0C8010E94B70C025F1F4FC98475
:102DC000DA84C016D10689F661E082EB95E00E94B4
:102DD000B70C80919901813009F066C1209196016C
:102DE00050919B01520F2D5F309195013D5FE2E4C0
:102DF000F1E080E06481662309F450C1408195814F
:102E00009250940F93170CF449C14F5F34170CF490
:102E100045C141819681940F92170CF43FC154171C
:102E20000CF43CC10E94020C6AE080EF0E94A50EE7
:102E300082E0809399010E94E80A83FF78C10E9492
:102E40006F0C8091BE05882309F484C18091B6057A
:102E5000813009F04BC0E091B505E11147C0809188
:102E60004001833010F4E1E0E80FE0934001BEE060
:102E7000CB2EEC9DF0011124EE5BFE4F8481882364
:102E8000A9F191813681390F9B5F7081A1E0A70F75
:102E90005091B3052091B805250F6091B20540917E
:102EA000B705460F85818250870F8617FCF04A17B9
:102EB000ECF03517DCF02917CCF08381811116C0B6
:102EC00062E084E60E94A50E62E080EF0E94A50EFB
:102ED000E0914001EC9DF0011124EE5BFE4F8481F6
:102EE000813009F455C1823009F473C10E94650C28
:102EF0008091820190918501891708F06EC18F5FE2
:102F00008093820180918701882309F4BEC161E02A
:102F10008AE00E94A50E80918701815080938701ED
:102F200081E090918801911180E08093880172EB9B
:102F3000672E71E0772EA12C18E019839301225B94
:102F400031403F832E83198118501D837B826A8212
:102F5000912C20E8921609F49FC18FEE890D1091F3
:102F60008801190D8E3508F0192D8091B6056EEE89
:102F7000C62EC10ECC82823021F480918C01811149
:102F800087C10C810C3508F083C10091B405809194
:102F9000BD05080F55E4E52E5BE0F52E2A2D412FE7
:102FA0006091B3058091B2050E942D0EEE81FF81E4
:102FB000E10FF11DE151F44F5490582A0091860120
:102FC00007FD68C125E0A21265C141E7E42E4BE090
:102FD000F42E412F65E08DE30E94DE0D582A5886BD
:102FE00022E4C22E21E0D22E512C34E0432E3C812B
:102FF0003C3510F5F60184818823F1F080811817A3
:10300000DCF09581980F9117BCF06181F981F6177A
:103010009CF0F6019681960FFD819F176CF0F601EA
:1030200002819385090F95E8E92E9BE0F92E2A2D60
:10303000412F0E942D0E582A4A94FEE0CF0ED11C3B
:103040004110D5CFC8845C28EA81FB815192FB8373
:10305000EA8393947ECF10923F0185CE8C3054F456
:10306000818185333CF091E6C92EC082818212862F
:10307000118697CE83E0C82EF801C386C8010E944E
:10308000580D8FCE8585813019F41586848389CEBD
:10309000823008F486CE8150858783CE8F5F3E963E
:1030A000843009F0A7CEC4CE9091860197FDC3CE9F
:1030B000D090B505D110BFCE8091BB0587FFBBCEA8
:1030C0002091B30541E0420F3091B20551E0530F1A
:1030D0008091B7058250830F8F330CF4ACCE5034FF
:1030E0000CF0A9CE2D52223008F0A5CE4093B305A6
:1030F0001092BC051092BB0591509093860118E088
:10310000E12EE092870102E411E0F80181858B3025
:103110003CF48181181624F464818D2D0E94020CE8
:10312000D394025F1F4FF4E0DF12EFCF84CE0E94F2
:10313000E80A82FD84CE8091BE05823009F086CEF9
:103140001092BE0580919901823009F07FCE1092D5
:1031500099017CCEB092BE052091B3056091B20575
:103160000091B8050F5F020F2F5F4091B7054150E6
:10317000460F6F5F8091B5050E94780C882309F493
:1031800065CE87EE8093BB058AE08093BC055ECE5A
:1031900003E610E0ADE9DA2ED00ED016110609F0E4
:1031A0003CF462E08D2D80950E94A50ED394F5CF5E
:1031B0000C5E1F4F073C110569F780917E0181115C
:1031C000815080937E01B092B5058EEE8093BB0551
:1031D0008DCEB3828EEE818789CE10928201D090FF
:1031E000840180914601DD2009F43EC0882339F135
:1031F00080915401882331F180916201882329F163
:10320000809170010CE611E081117CCEF801B4824E
:1032100013820E94650CE0914101F0E0E95DF44FFA
:10322000E491EE23A9F0E13009F06CCEE1E6CE2E78
:10323000F801C082818280918301819510C002E4EF
:1032400011E0E4CF00E511E0E1CF0EE511E0DECFC3
:10325000F8E1CF2EF801C0828182809183018783BB
:10326000DA94D09284014ECE81114CCE80915401DB
:10327000811148CE80916201811144CE809170010C
:10328000811140CEB09280013DCE109288014FCE88
:1032900080E08CCE80E0A2CEA394F0E86F0E711C8B
:1032A0001981185F198328E0A21248CE80E00E949D
:1032B00059088091910190919201A0919301B09150
:1032C000940140918D0150918E0160918F01709118
:1032D00090016C017D01C41AD50AE60AF70AB7010C
:1032E000A6014132510561057105A0F42FB7F8948C
:1032F00080917A0190917B01A0917C01B0917D0138
:103300002FBF8093910190939201A0939301B0936A
:103310009401CFCF80938D0190938E01A0938F0164
:10332000B093900181E090918C01911180E08093A5
:103330008C0180918001813069F0823009F0AECC3F
:1033400088EB9BE00E94D30E61E08FEE9BE00E9431
:10335000EE0E93CA80918101813608F48F5F8093CD
:10336000810161E08FEE9BE00E94EE0EC1CBF999E6
:10337000FECF92BD81BDF89A992780B50895262F7A
:10338000F999FECF1FBA92BD81BD20BD0FB6F8944A
:10339000FA9AF99A0FBE0196089597FB072E16F434
:1033A000009407D077FD09D00E94E11907FC05D0F1
:1033B0003EF4909581959F4F0895709561957F4F4C
:1033C0000895AA1BBB1B51E107C0AA1FBB1FA6176C
:1033D000B70710F0A61BB70B881F991F5A95A9F7BE
:1033E00080959095BC01CD010895EE0FFF1F0590CB
:1033F000F491E02D099481E090E0F8940C94001A87
:04340000F894FFCF6E
:1034040001FFFFFFFF00E100000000000000C18099
:103414008100000000000000C4085C0AE508DA0826
:103424002B09E908070900000000F70AD709FF0B78
:0A343400FE0B6912FCFF0000AB1252
:00000001FF
