:100000000C9412090C943A090C943A090C943A098C
:100010000C943A090C943A090C943A090C943A0954
:100020000C943A090C943A090C94E70E0C94560F70
:100030000C943A090C943A090C943A090C943A0934
:100040000C943A090C943A090C943A090C943A0924
:100050000C943A090C943A090C943A090C94E31163
:100060000C943A090C943A090C943A090C943A0904
:100070000C943A090C943A090C943A090C943A09F4
:100080000C9488110C943A090C943A090C943A098E
:100090000C943A090C943A090C943A090C943A09D4
:1000A0000C943A090C943A090C943A0900000000A7
:1000B000003E5B4F5B3E3E6B4F6B3E1C3E7C3E1CEE
:1000C000183C7E3C181C577D571C1C5E7F5E1C0034
:1000D000183C1800FFE7C3E7FF0018241800FFE7EB
:1000E000DBE7FF30483A060E2629792926407F05AE
:1000F0000507407F05253F5A3CE73C5A7F3E1C1CC4
:1001000008081C1C3E7F14227F22145F5F005F5F83
:1001100006097F017F006689956A6060606060946F
:10012000A2FFA29408047E040810207E2010080874
:100130002A1C08081C2A08081E101010100C1E0C7F
:100140001E0C30383E3830060E3E0E060000000011
:100150000000005F00000007000700147F147F14F8
:10016000242A7F2A1223130864623649562050003D
:1001700008070300001C2241000041221C002A1C29
:100180007F1C2A08083E0808008070300008080814
:100190000808000060600020100804023E51494534
:1001A0003E00427F400072494949462141494D3352
:1001B0001814127F1027454545393C4A49493141B9
:1001C000211109073649494936464949291E000087
:1001D00014000000403400000008142241141414DC
:1001E0001414004122140802015909063E415D59C8
:1001F0004E7C1211127C7F494949363E41414122D1
:100200007F4141413E7F494949417F090909013EFA
:10021000414151737F0808087F00417F4100204021
:10022000413F017F081422417F404040407F021C33
:10023000027F7F0408107F3E4141413E7F0909094A
:10024000063E4151215E7F09192946264949493216
:1002500003017F01033F4040403F1F2040201F3FDC
:100260004038403F63140814630304780403615961
:10027000494D43007F4141410204081020004141A3
:10028000417F04020102044040404040000307084F
:100290000020545478407F2844443838444444284B
:1002A000384444287F385454541800087E090218F2
:1002B000A4A49C787F0804047800447D400020407A
:1002C000403D007F1028440000417F40007C0478BE
:1002D00004787C080404783844444438FC18242406
:1002E0001818242418FC7C08040408485454542486
:1002F00004043F44243C4040207C1C2040201C3C03
:100300004030403C44281028444C9090907C4464F9
:10031000544C44000836410000007700000041368C
:10032000080002010204023C2623263C1EA1A16112
:10033000123A4040207A3854545559215555794144
:100340002154547841215554784020545579400C1B
:100350001E527212395555555939545454593955FC
:100360005454580000457C410002457D420001453F
:100370007C40F0292429F0F0282528F07C545545AC
:10038000002054547C547C0A097F4932494949323F
:100390003248484832324A4848303A4141217A3A54
:1003A00042402078009DA0A07D39444444393D401E
:1003B00040403D3C24FF2424487E4943662B2FFCCB
:1003C0002F2BFF0929F620C0887E09032054547979
:1003D000410000447D413048484A32384040227A4A
:1003E000007A0A0A727D0D19317D2629292F2826C7
:1003F0002929292630484D402038080808080808CF
:100400000808382F10C8ACBA2F102834FA00007B27
:10041000000008142A142222142A1408950022002D
:1004200095AA005500AAAA55AA55AA000000FF00E7
:10043000101010FF00141414FF001010FF00FF1024
:1004400010F010F0141414FC001414F700FF000056
:10045000FF00FF1414F404FC141417101F10101FD5
:10046000101F1414141F00101010F0000000001FC3
:10047000101010101F10101010F010000000FF10CE
:100480001010101010101010FF10000000FF1400CA
:1004900000FF00FF00001F10170000FC04F41414FC
:1004A0001710171414F404F40000FF00F7141414C8
:1004B00014141414F700F7141414171410101F1048
:1004C0001F141414F4141010F010F000001F101F6B
:1004D0000000001F14000000FC140000F010F010D9
:1004E00010FF10FF141414FF141010101F00000050
:1004F00000F010FFFFFFFFFFF0F0F0F0F0FFFFFF54
:100500000000000000FFFF0F0F0F0F0F38444438AA
:10051000447C2A2A3E147E02020606027E027E02E5
:1005200063554941633844443C04407E201E200604
:10053000027E020299A5E7A5991C2A492A1C4C7241
:1005400001724C304A4D4D303048784830BC625AC8
:10055000463D3E494949007E0101017E2A2A2A2A58
:100560002A44445F444440514A444040444A514034
:100570000000FF0103E080FF000008086B6B0836F5
:1005800012362436060F090F060000181800000066
:100590001010003040FF0101001F01011E00191D55
:1005A0001712003C3C3C3C00000000000000000032
:1005B00000000000000018BCFEC6C2C2C6FE3C001F
:1005C000FCFEC6C2C2C6FE3C0000D8C8002070F8BF
:1005D000F8202000F8FCFEF67E3E3C3800F8FCFED9
:1005E000C6C2C2C6FEFC00FEFEFE0606060CFCF0FD
:1005F00000FCFEC6C2C202000000000000000000B5
:1006000000000000000000000000000000000E1FBD
:100610001F101010191F0E001F1F181010101D1F83
:1006200006001F1F0000001F1F1808000F1F1F1FBC
:100630001E1E1E0C000F1F1F000000001F1F001FAA
:100640001F1F1818181C0F03001F1F101010100078
:100650000000000000000000000000008D14A1C890
:1006600081CFD9F102AF00000000240027002A004A
:100670002D0030000102030406080C1018201000A1
:1006800011001200130015001600170018001A00C0
:100690001C001D001F002100230025002700290049
:1006A0002C002E003100340037003A003E0041009B
:1006B000450049004E00520057005C00620068008F
:1006C0006E0075007B0083008B0093009C00A500EA
:1006D000AF00B900C400D000DC00E900F70006015B
:1006E0001501260137014A015D01720188019F0150
:1006F000B801D201EE010B022A024B026E029302F4
:10070000BA02E40210033F037003A403DC031704DE
:1007100055049704DD0427057505C80520067D06E8
:10072000E0064907B8072D08A9082D09B9094D0A9F
:10073000EA0A900B400CFA0CC00D910E6F0F5A1084
:1007400053115B1272139A14D41520178018F519DF
:10075000801B231DDE1EB420A622B524E4263429E6
:10076000A72B402E0031EA330037453ABC3D090B38
:100770000002040507000C1824303C4854606C004B
:100780000000000000000000000000000000001C4D
:100790003E41556B3E1C00001400001C1C3E7F00B7
:1007A000000000000000001C3E41556B3E1C000094
:1007B0001400001C1C3E7F0018002499423C0000DD
:1007C00000003E0A04003E0A34003E2A2A00242A81
:1007D0001200242A1200001C3E4375433E1C0000F8
:1007E000023E02001C221C0000242A1200023E02CB
:1007F000003C0A3C003E0A3400023E020000000AAF
:10080000070A00000000000A070600000000000AB6
:10081000070A0000000000060F0200000000000FA1
:100820000B050F00000000050B050F000000000F76
:100830000B050B00000000050B050B000000000F6E
:1008400009090F0000000000000006024342221EBA
:1008500000402214081422010040201F007F403075
:10086000000008080808040000412111091523416F
:100870000001020102000000000000000000000072
:100880000000000000000000000000000000000068
:100890000000000000000000000000000000000058
:1008A0000000000000000000000000000000000048
:1008B0000000000000000000000000000000000038
:100F70000000000000000000000000000000004D24
:100F80004158204C4556454C0054314F34423100B5
:100F90004C4556454C0054314F3443335230433264
:100FA0005230433352324333453352304533473561
:100FB00000040302010101010154314F344C433359
:100FC000453344330047414D45204F564552005468
:100FD000314F344533443343335230453344334344
:100FE0003352324F33433344334533463352350063
:100FF000414C4C204C4556454C20434C45415245B4
:101000004400434F4E47524154554C4154494F4E72
:101010005321004C4556454C20202020434C45414F
:10102000520054344F34453444344333264333520E
:1010300032463445344433264433523247344634FE
:10104000453444344335523500080B000202020097
:10105000000904000001020200000524001001053F
:10106000240101010424020605240600010705816C
:101070000310004009040100020A000000070502F5
:101080000240000007058302400000040309041227
:10109000010002EF020140412336800001010203FA
:1010A0000141726475696E6F204C4C4300414241AE
:1010B000313130360000000000250028002B002EC2
:1010C00000310004040404040304050202020204C3
:1010D00003020202020606060606060404020202D3
:1010E0000404040802011040804010204080408029
:1010F00008020401804020100201108010204040AE
:10110000200000000200090F0000030401000C0091
:1011100000000000000000000000000000000000CF
:10112000030000000000170000030003001F0A1F57
:1011300000161F0D000B041A000A151A0000030008
:1011400000000E1100110E00000A040A00040E0433
:10115000001008000004040400001000000804024D
:10116000001F111F00011F00001D15170015151F7E
:101170000007041F0017151D001F151D0001011F8A
:10118000001F151F0017151F00000A0000100A009D
:1011900000040A11000A0A0A00110A0400011503DA
:1011A000001F1517001E051E001F150A000E111145
:1011B000001F110E001F1515001F0505000E111D43
:1011C000001F041F00001F000008100F001F041B59
:1011D000001F1010001F061F001E040F000E110E2E
:1011E000001F0502000E1116001F051A0012150936
:1011F00000011F01001F101F000F100F001F0C1F08
:10120000001B041B00031C030019151300001F1111
:101210000002040800111F0000020102001010105B
:101220000000A51211241FBECFEFDAE0DEBFCDBF54
:1012300011E0A0E0B1E0EEE4F6E302C005900D920B
:10124000AA33B107D9F726E0AAE3B1E001C01D92A5
:10125000A831B207E1F719E0C2E1D9E004C0219753
:10126000FE010E941A1BC131D107C9F70E94D61294
:101270000C94251B0C940000E1EBF1E030EB20E135
:1012800046E05C983EBD4A95F1F72EBD20E82395D7
:1012900007C0449140815C9A4EBD8111412D41931C
:1012A00044912A95B1F73395383B49F70DB4089529
:1012B000CF93DF93FC0167FF06C0E61BF10967FDD2
:1012C000F395260F60E0862F062E000C990BDC01AB
:1012D000A20FB11DA038B10514F020E8261BA09183
:1012E000AF01B091B00147FF16C04195A80FB91FDB
:1012F000215008F464C094913D91ED012197692F2C
:1013000070E0042E02C0759567950A94E2F7632B8E
:1013100068833196EDCF4933B4F0485380589C4FE1
:10132000A80FB91F215008F44AC094918D91ED0186
:101330002197692F042E01C0660F0A94EAF7682BE3
:1013400068833196EFCF342F3770042E000C550B85
:1013500063E0559547956A95E1F75695542F4427D4
:1013600057954795480F591FA40FB51F31110AC053
:10137000215028F184919D91ED012197892B88833B
:101380003196F6CFED01C058DF4F48E0431B2150A6
:10139000B0F0849190E0BC01032E01C0660F0A9466
:1013A000EAF75C91562B5D93042E02C095958795C4
:1013B0000A94E2F79881892B89933196E8CFDF91DF
:1013C000CF910895E22FF0E0E60FF11D67FDFA9549
:1013D0001E161F0634F437E0340F373410F40C9423
:1013E00058090895EF92FF920F931F93CF93DF93C5
:1013F000042FC4E0C60F3AE0E32EF12CB7010E949F
:10140000061B162FD72F880F991F880F991F24E0CE
:10141000402F6C2F8F599E4E0E94E209C450812F9D
:101420009D2F009759F7DF91CF911F910F91FF905A
:10143000EF90089590E0E1EBF1E091119FEF8FEFD5
:1014400091939193919391938150D0F70895E4EA09
:10145000F1E09183808393838283148281E085838A
:1014600080E3868388E0878310861286118608953C
:1014700080910C01853089F4E0E2F1E1E4918FEF95
:1014800080930C01E13009F432C008F42DC0E33040
:1014900009F433C0E43009F436C0E6E0F1E1949198
:1014A000E7EEF0E12491E8ECF0E18491882309F47F
:1014B00044C0992309F432C091509F3078F5E92F48
:1014C000F0E0EB59F54F0C941A1BA60AAA0A890AF8
:1014D0009E0AA20A8E0A8E0A8E0AAD0AB30AB70ABB
:1014E000BB0AC10A8E0AC50A10926E00D6CF80913F
:1014F0006F008D7F80936F00D0CF809171008D7FC2
:1015000080937100CACF809172008F7B80937200AC
:10151000C4CF909180009F7790938000E82FF0E0F7
:10152000EE0FFF1FEB54FF4EA591B4918FB7F894C7
:10153000EC9120952E232C938FBF089590918000DD
:101540009F7DEACF90918000977FE6CF94B59F77FB
:1015500094BDE4CF94B59F7DFBCF909190009F7791
:1015600090939000DBCF909190009F7DF9CF909168
:101570009000977FF5CF9091C0009F779093C00027
:10158000CDCF9091C0009F7DF9CF9091C200977F01
:101590009093C200C3CFFC018091A301882311F175
:1015A0003FB7F89482E08093E9002091F200822F07
:1015B00090E01816190614F481E090E0882339F0C1
:1015C000289844E64093A2014091F10040832223F1
:1015D00039F02091F200211103C02BE62093E8009E
:1015E0003FBF08958FEF9FEF08952FB7F89483E0E2
:1015F0008093E9009091E800892F807295FF04C0E4
:101600009091F20080E4891B2FBF089580919A0188
:1016100081110DC082E08093960184E08093970150
:10162000109299011092980181E080939A0186E9C5
:1016300091E00895CF93DF931F92CDB7DEB7698312
:10164000DC01ED91FC910280F381E02D41E050E05E
:10165000BE016F5F7F4F09950F90DF91CF91089585
:1016600083E08093E9008091F200882319F08AE3F7
:101670008093E80008950E94F50A90E00895CF93C2
:10168000DF931F92CDB7DEB7FC018485958597FD6A
:1016900008C02FEF3FEF358724870F90DF91CF9160
:1016A0000895CE0101960E94CB0A019719F4898111
:1016B00090E0F3CF8FEF9FEFF0CF0F931F93CF9377
:1016C000DF931F92CDB7DEB78C01FC018485958531
:1016D00097FF0BC0CE0101960E94CB0A019771F4CF
:1016E000898190E0F80195878487F8018485958544
:1016F0000F90DF91CF911F910F9108958FEF9FEF82
:10170000F1CFFC018485958597FD0BC09FB7F894B8
:1017100082E08093E9008091F2009FBF90E0019603
:1017200008959FB7F89482E08093E9008091F200D9
:101730009FBF90E0089540919001509191012091B8
:101740008E0130918F0142175307B4F49091E80055
:101750009570E1F39091E80092FD19C08093F1003B
:10176000809190019091910101968F739927892B17
:1017700019F48EEF8093E80080919001909191018F
:101780000196909391018093900181E0089580E00B
:101790000895DF92EF92FF920F931F93CF93DF9301
:1017A000D82E8A01EB017B01E40EF51ECE15DF0574
:1017B00059F0D7FE12C0FE0184910E949B0B219626
:1017C0008111F4CF0FEF1FEFC801DF91CF911F916F
:1017D0000F91FF90EF90DF9008958881EECF0F93E7
:1017E0001F93CF93DF931F92CDB7DEB782E089833B
:1017F00042E450E069E470E180E80E94C90B0E9475
:10180000060BDC0112960D911C910115110589F052
:10181000D801ED91FC910280F381E02DBE016F5F54
:101820007F4FC801099597FD04C0F8010085118517
:10183000ECCF89810F90DF91CF911F910F91089587
:10184000615030F02091F100FC0120830196F8CF27
:10185000289884E68093A2010895AF92BF92CF9218
:10186000DF92EF92FF920F931F93CF93DF936C0160
:101870007B018B01040F151FEB015E01AE18BF0841
:10188000C017D10759F06991D601ED91FC910190F3
:10189000F081E02DC6010995892B79F7C501DF910B
:1018A000CF911F910F91FF90EF90DF90CF90BF905D
:1018B000AF9008953FB7F894809140019091410115
:1018C000A0914201B091430126B5A89B05C02F3FCE
:1018D00019F00196A11DB11D3FBFBA2FA92F982F56
:1018E0008827BC01CD01620F711D811D911D42E051
:1018F000660F771F881F991F4A95D1F708958F9219
:101900009F92AF92BF92CF92DF92EF92FF926B01C4
:101910007C010E945A0C4B015C01C114D104E1040A
:10192000F104B9F00E945A0C681979098A099B09D7
:10193000683E73408105910580F321E0C21AD10809
:10194000E108F10888EE880E83E0981EA11CB11C06
:10195000E4CFFF90EF90DF90CF90BF90AF909F903B
:101960008F9008958F929F92AF92BF92CF92DF9205
:10197000EF92FF920F931F93CF93DF936C017B0144
:101980008A0180910B01882309F45CC08091A30136
:10199000882309F457C08091950180FF05C080918C
:1019A000E00082608093E000E801B12C8AEFA82E6D
:1019B00093E0892E2AE3922E209711F4BB20D9F1CF
:1019C0000E94F50A81110AC0AA94AA20D9F161E007
:1019D00070E080E090E00E947F0CEECF8C171D0637
:1019E00011F00CF08C2F9FB7F8948092E9002091B1
:1019F000E80025FD02C09FBFDFCF282F30E0C21BCB
:101A0000D30BF701815020F041914093F100FACFC0
:101A1000E20EF31EBB2021F09092E800B12CEBCF38
:101A20008091E80085FDE7CF9092E800BB24B39455
:101A3000209709F3F3CF5D9884E680939401101604
:101A400011063CF081E090E0F6019383828310E080
:101A500000E0C801DF91CF911F910F91FF90EF90AF
:101A6000DF90CF90BF90AF909F908F9008952D9A68
:101A70000895BC0190E080E00C947F0C8FB18095BC
:101A8000807F669B88601C9B8460089510925F0134
:101A90003E98579808953E9A579A81E080935F0147
:101AA00008952F923F924F925F926F927F928F9202
:101AB0009F92AF92BF92CF92DF92EF92FF920F93DD
:101AC0001F93CF93DF9300D000D01F92CDB7DEB726
:101AD0009C838B836A3059F5DC0155968C91B8E074
:101AE0008B9F90011124EB81FC8181899289820F67
:101AF000931F928B818B108A178681E090E00F9064
:101B00000F900F900F900F90DF91CF911F910F9139
:101B1000FF90EF90DF90CF90BF90AF909F908F900D
:101B20007F906F905F904F903F902F9008956D3011
:101B300021F3AB81BC811F968D919C915097803889
:101B400091050CF087C05196CD90DC90B0E4CB1697
:101B5000D1040CF07FC0EB81FC819588E5E09C010D
:101B60009E9E200D311D1124121613060CF072C01A
:101B7000E92CF12C9701B3E0220F331FBA95E1F75E
:101B80002C0D3D1D121613060CF064C0AB81BC81F8
:101B900054965C90549753964C906E9FF00111248C
:101BA000E455FF4F70E02491753009F420E05601B0
:101BB000A8E06A2E222E312C642D20FF652D6111A4
:101BC00003C0541409F437C0AC0161706A834983BF
:101BD000242F281B291578F510E000E0091540F5A1
:101BE0004038510510F598012A0D3B1D2034310570
:101BF000E0F460E1762E898061E021FD64E020FD63
:101C0000660F22FD6295287F729ED0011124A80DD7
:101C10006D83AF54BE4F2C913A81862E822A3111AA
:101C200003C08D80809482228C920F5F1F4FD6CF8D
:101C30004F5F5F4FCCCF9101359527956A94AE0CDD
:101C4000BF1C6110B7CF7F5F31968E0D9F1D763020
:101C500009F0A9CFAB81BC8155962C915597422FA5
:101C600050E01F968D919C91B6E02B9F800D911DA9
:101C70001124EB81FC81908B87872689222309F42C
:101C80003CCF6AEF64039001659F300D112420580A
:101C90003F4F281739070CF030CFCF010190F0816A
:101CA000E02D0190F081E02D6AE0099526CF08959E
:101CB000089590E080E00895809144019AEA892790
:101CC000875B809344018295880F811D089580E091
:101CD0000C943C09CF93DF93E1E6F1E0D181C08120
:101CE00024E04D2F6C2F8FE398E00E94E2096CE016
:101CF0006C0F24E04D2F8FE398E0DF91CF910C948F
:101D0000E209E4E8F1E0418144506081615083815F
:101D100090E08871992723E08150984F0C94E20954
:101D20000F931F93CF9304E611E0C0E0F801819177
:101D30008F01882319F1CC2369F0329780818111BA
:101D400006C084E190E0CF3139F4826009C085E1BA
:101D500090E0F9CF85E190E0F80120812111F5CFE5
:101D600023E0880F991F2A95E1F724E04CE36C2FBC
:101D7000660F660F8158984F0E94E209CF5FC0320C
:101D8000A9F6CF911F910F9108950F931F93CF93B1
:101D9000DF93EC01162F042FFE018491882371F04C
:101DA000F4E08F02C001112424E0402F612F8F55F1
:101DB0009F4E0E94E2091C5F2196EECFDF91CF91EA
:101DC0001F910F9108950C94A31A0E94201B1F923B
:101DD0000F920FB60F9211248F939F938091E10081
:101DE0009091E100937F9093E10083FF0FC01092E8
:101DF000E90091E09093EB001092EC0092E3909355
:101E0000ED001092A30198E09093F00082FF22C0B1
:101E100093E09093E9009091F200992319F09AE3EE
:101E20009093E80090919401992341F0909194014E
:101E3000915090939401911101C05D9A9091A201EB
:101E4000992341F09091A20191509093A201911198
:101E500001C0289A84FF18C08091E2008E7E8160C4
:101E60008093E2008091E1008F7E8093E100809179
:101E700095018E7E8061809395019F918F910F9047
:101E80000FBE0F901F90189580FFF7CF8091E20052
:101E90008E7E80618093E2008091E1008E7E80934F
:101EA000E100809195018E7E8160E5CF1F920F92B7
:101EB0000FB60F921124CF92DF92EF92FF920F9301
:101EC0001F932F933F934F935F936F937F938F93C2
:101ED0009F93AF93BF93EF93FF93CF93DF93CDB7D0
:101EE000DEB76C97DEBFCDBF1092E9008091E800AD
:101EF00083FF25C068E0CE0145960E94200C82EF4A
:101F00008093E8008D8987FF39C09091E80090FFA9
:101F1000FCCF982F907609F034C19E894F89588D57
:101F20002F89F88C911131C0803861F5809193012F
:101F30008093F1001092F1008EEF8093E8006C9690
:101F40000FB6F894DEBF0FBECDBFDF91CF91FF91EA
:101F5000EF91BF91AF919F918F917F916F915F9121
:101F60004F913F912F911F910F91FF90EF90DF9034
:101F7000CF900F900FBE0F901F9018959EEF9093EB
:101F8000E800C7CF1092F100D5CF913059F48111FC
:101F9000D3CF4130510581F6809193018D7F80939D
:101FA0009301CACF933049F48111C6CF4130510516
:101FB00019F6809193018260F2CF953041F48091BF
:101FC000E80080FFFCCF20682093E300B5CF963077
:101FD00009F0A9C00B8D1C8D22E01092E90010922F
:101FE000910110929001F2122EC010928F01109266
:101FF0008E010E94EF0B1F8299E09983FA8291E093
:102000009E8390EA98879AEF99872091900130916A
:102010009101275F3F4F3C832B838D831092E90012
:10202000109291011092900110938F0100938E01F4
:1020300049E050E0BE016F5F7F4F80E00E94C90B16
:102040000E94EF0B79CF10938F0100938E010E94B5
:10205000060BDC0112960D911C910115110509F476
:1020600051C1D801ED91FC910480F581E02DBE01B4
:102070006B5E7F4FC8010995009709F03EC1F801DA
:1020800000851185EACFF3E0FF120EC08F89882307
:1020900009F440C0823061F440E867E08DEA90E1E5
:1020A0000E942D12811148CF81E28093EB0047CF2F
:1020B000813029F440E86BE081EA90E1F1CF833090
:1020C00099F70E94060BDC011296ED90FC908E01B0
:1020D0000F5F1F4F6801E114F10479F0D701ED9112
:1020E000FC910680F781E02DB801C7010995080F22
:1020F000111DF701E084F184EECFD8011C92F601A6
:1021000001900020E9F73197BF016C197D0940E08B
:10211000C601C6CF6BE870E1FB01449150E080E856
:102120000E94C90B09CF973009F4BECF983021F433
:1021300081E08093F10000CF993009F0FDCE8370EB
:1021400009F0B2CFEEE0F1E081E031E096E32191D9
:10215000222371F08093E9003093EB00DF011197A7
:102160002C912093EC009093ED008F5F873079F7EE
:102170008EE78093EA001092EA008F898093A30192
:10218000DBCE8B8D9C8D1092E90010929101109204
:10219000900190938F0180938E01898D811192C05F
:1021A0008E899D89913A49F4813209F07DCF47E0CB
:1021B00050E064E071E080E0B3CF913209F074CF79
:1021C000833269F48F89988DB0E0A0E0809300019C
:1021D00090930101A0930201B0930301ADCE803230
:1021E00069F48091E80082FFFCCF67E084E091E031
:1021F0000E94200C8BEF8093E8009ECE823209F083
:102200009BCE8F8980930B01EEEFFFE78591949130
:102210008B3F9C4D51F1E0E0F8E0809104019091FA
:102220000501A0910601B0910701803B9440A105F2
:10223000B105F1F480910B0180FD1AC0EE3F8AE0F8
:10224000F80789F587E797E791838083809160009D
:102250008093920188E19BE00FB6F894A895809353
:1022600060000FBE9093600067CEEEEFFAE0D5CF2E
:10227000808191818737974709F05ECEA89580913C
:10228000600088618093600080919201809360007B
:10229000EE3F2AE0F20789F08091FE0A9091FF0A52
:1022A0009183808349CE808191818737980751F24D
:1022B0009093FF0A8093FE0AC5CF1092FF0A1092F6
:1022C000FE0A3ACE0E94060BDC0112960D911C917B
:1022D0000115110509F4E8CED801ED91FC910190AA
:1022E000F081E02DBE016B5E7F4FC8010995811121
:1022F00023CEF80100851185EBCF181619060CF4D2
:102300001BCED2CEF1E0FF12BECE6FE870E104CF5B
:102310001F920F920FB60F9211248F939F93AF933A
:10232000BF93EF93FF938091530190915401A0913B
:102330005501B0915601892B8A2B8B2BA1F19091DD
:102340004A01E0914B01F0914C0180818927808303
:102350008091530190915401A0915501B091560183
:10236000181619061A061B069CF4809153019091C9
:102370005401A0915501B09156010197A109B109ED
:102380008093530190935401A0935501B09356014B
:10239000FF91EF91BF91AF919F918F910F900FBEE1
:1023A0000F901F901895809171008D7F8093710020
:1023B00080914A01E0914B01F0914C019081809510
:1023C00089238083E5CF1F920F920FB60F921124BD
:1023D0002F933F938F939F93AF93BF93809145012A
:1023E00090914601A0914701B091480130913F0181
:1023F00023E0230F2D3758F50196A11DB11D209321
:102400003F018093450190934601A0934701B0930B
:1024100048018091400190914101A0914201B09109
:1024200043010196A11DB11D80934001909341018C
:10243000A0934201B0934301BF91AF919F918F91BF
:102440003F912F910F900FBE0F901F90189526E887
:10245000230F0296A11DB11DD2CFEF92FF920F93D1
:102460001F93CF93DF93F82E192FE62E042F81E0D0
:10247000860F880F0E949B0B83E00E949B0BCF2D41
:10248000D12FEC0EFD2EF11CCE15DF05B9F007FFA4
:1024900013C0FE0184910E949B0B182F80E00E94C4
:1024A0009B0B812321968111EFCFDF91CF911F915B
:1024B0000F91FF90EF9008958881EDCF81E0F5CFE7
:1024C0000F931F93CF93DF938C0181E090E00E94E4
:1024D000E30E80FF32C08AE090E00E94E30E9FEF9F
:1024E000980F9E3F50F522E330E0D80150963C9380
:1024F0002E931F9728E330E052963C932E935197EA
:10250000CBE0D0E0D801ED91FC910190F081E02D7D
:10251000682FC8010995CE010E94E30E2196C131B2
:10252000D10581F780E00E943C0988EE93E0DF91BD
:10253000CF911F910F910C94390DDF91CF911F9185
:102540000F91089504970C946012E1EBF5E013826B
:10255000128288EE93E0A0E0B0E084839583A683A6
:10256000B78388E191E0918380838FEF9FEF958718
:102570008487E1E0F6E0138212821186128680E100
:1025800083871086178215868AE291E09183808383
:1025900088E391E095838483108A1786128A118AD2
:1025A00081E0838B148A858B168A0895CF93DF93FD
:1025B00000D000D01F92CDB7DEB7789484B582608A
:1025C00084BD84B5816084BD85B5826085BD85B5D7
:1025D000816085BD80916E00816080936E00109255
:1025E00081008091810082608093810080918100D0
:1025F0008160809381008091800081608093800061
:10260000809191008260809391008091910081601F
:1026100080939100809190008160809390008091E0
:10262000C10084608093C1008091C100826080936A
:10263000C1008091C10081608093C1008091C3007E
:1026400081608093C3008091C00082608093C0004D
:102650008091C20081608093C20080917A00846082
:1026600080937A0080917A00826080937A008091D2
:102670007A00816080937A0080917A0080688093EC
:102680007A001092A301109293011092950180910B
:10269000D70081608093D70080EA8093D80089B505
:1026A000806189BD89B5826089BD09B400FEFDCF16
:1026B00061E070E080E090E00E947F0C8091D800A3
:1026C0008F7C80618093D8008091E000807F809330
:1026D000E0008091E1008E7E8093E1008DE08093A8
:1026E000E200559A209A81EC80937C0081E785B9BD
:1026F00087E684B985E38BB98FE38AB9769A6E98B9
:1027000080EF81BB10BA80E58CBD81E08DBD85E096
:1027100090E00E94390D599902C0599AF8CF5C98FF
:10272000ECE5F6E09AE085918EBD00000DB407FE61
:10273000FDCF8EB59A95B9F75C9A81E880936400D5
:1027400081E0809365000E943C090E943E0D87FF56
:1027500016C05C9885EA8EBD00000DB407FEFDCF63
:102760008EB55C9A2E9858982D988091640080625E
:102770008093640081E083BF889513BEFCCF0E94E4
:102780003E0D82FF48C02D980E943E0D847884380B
:10279000E1F40E94370D88EC90E00E94390D5898C2
:1027A00082E090E00E94A31A8F3F29F06FEF82E051
:1027B00090E00E94AB1A84EF91E00E94390D589A84
:1027C0000E943E0D84788438D9F30E943E0D8471B6
:1027D0008431E1F40E94370D88EC90E00E94390DBD
:1027E0002E9882E090E00E94A31A882329F060E0EE
:1027F00082E090E00E94AB1A84EF91E00E94390DD4
:102800002E9A0E943E0D84718431D9F388EC90E0B9
:102810000E94390DB4CF0E94370D82E090E00E94F3
:10282000E30E882309F46CC00E944B0D81E090E018
:102830000E94E30E182F147081FF0EC011112E9804
:1028400080EF882E99249A940E943E0D86FF5BC0EB
:102850002E9A589A0E94370D82E390E00E94390D1B
:102860000E943E0D8111F8CF80E180930C061092FA
:102870008B0110928C0181EB91E09093B0018093D9
:10288000AF011092A5011092A4011092A70110921D
:10289000A60183E18093440181E0809388018093C5
:1028A0008D01F8E48F2EF8EE9F2EAA24A394B12C6C
:1028B000CC24CA94DC2C7601E8EC2E2EE0E13E2EEE
:1028C0002FB7F8948091450190914601A09147015E
:1028D000B09148012FBF20910D06382F321B232FB6
:1028E00030910E06332309F483C020930F06109213
:1028F0000E0620E030E0232B19F30E940000DCCF0D
:102900000E94460D93CF112331F004E0801691040C
:1029100011F42E9A589881E00E943C09282D2770C6
:10292000A22EA401B3E055954795BA95E1F79A0117
:102930003695322F2227379527952F543E4F70E03A
:1029400060E04E3F8FEF580761F190E080E0DB01DF
:10295000A455BA4F7901E0E8EE0EF11CFD01E80F35
:10296000F91FE491F0E03F010A2C02C0660C771CCD
:102970000A94E2F74F3F540739F06901C80ED91E97
:10298000F601B488B628B48AAA2039F06701C80EC7
:10299000D91EF60104890729048B01968835910513
:1029A000E9F64F5F5F4F20583F4F685A7F4F603BBB
:1029B000710539F680E00E943C098FE090E00E94AA
:1029C000390DFFEF8F1A9F0A09E18016910409F073
:1029D0003BCF112311F0589A2D9880E991E00E9485
:1029E000390D0E94370D81E096E00E94601234CFCD
:1029F00030910C06231748F42F5F231708F079CF86
:102A000081E083BF889513BE74CF21E020930E062A
:102A100080930D0680910806909109060196909387
:102A20000906809308060E943E0D90918C019095B6
:102A3000982390938B0180938C010091A6011091B3
:102A4000A7010115110559F08091AD019091AE01DA
:102A50000097B9F001979093AE018093AD018091FA
:102A60008D01823009F449C308F0F6C2813009F4BF
:102A70003DC380918C01882309F43BCF0E945C0EFA
:102A800038CF4091AC01498341112CC09091A801ED
:102A90006090A9018091AA017090AB012091A401DE
:102AA0003091A501A8014F5F5F4F5A834983F80118
:102AB0004491411128C091111CC07092AB018093C8
:102AC000AA016092A9011092AC011092AE0110927D
:102AD000AD011092A5011092A4011092A7011092CD
:102AE000A601BDCF0E94380A098101500093AC01B4
:102AF000B6CF29833A836624639480E378E0772E07
:102B000009811A81CFCFE981FA81443551F4A801B6
:102B10004E5F5F4F5A834983E49160ED662E6E0EDF
:102B2000EFCF4F3461F4A8014E5F5F4F5A83498362
:102B3000E491E053F0E0EB58F84F8491E1CF4C344E
:102B400051F4A8014E5F5F4F5A834983E49150EDE1
:102B5000752E7E0ED5CF5FEB540F573008F04AC26A
:102B6000E981FA81F093A701E093A6017092AB018D
:102B70008093AA016092A9011092AC011092AE015B
:102B80001092AD01E42F440FFF0BE35DF84FE49189
:102B90008E0FE981FA81F491F983FB3209F043C089
:102BA0008F5F0E5F1F4F1093A7010093A601E82FC0
:102BB000F0E0EE0FFF1FE258F94F459054908091DE
:102BC0005F01882349F080910C01853091F5E0E2A6
:102BD000F1E1149117FF78C0E091A601F091A701EF
:102BE000849180538A3008F4F2C18091AB01E82FC0
:102BF000F0E0EC58F94FE4918091A901E89FC00101
:102C000011249093AE018093AD01E091A601F09163
:102C1000A7012491263209F0E0C13196F093A70173
:102C2000E093A6011CCF29812D3209F0C0CF81503D
:102C3000B8CF8F3F89F685E080930C01E0E2F1E1A7
:102C400014911F3F09F4C8CF113009F4BCC020F122
:102C5000133009F4D6C0143009F0BCCF1092C00074
:102C60001092C1008091C10088608093C100809162
:102C7000C10081608093C100F1018491E82FF0E0F0
:102C8000EE0FFF1FEB54FF4E85919491E7EEF0E1BC
:102C900084918093490118C014BC15BC84B582602E
:102CA00084BD85B5816085BDF1018491E82FF0E098
:102CB000EE0FFF1FEB54FF4E85919491E7EEF0E18C
:102CC000849180934E0110E0E7EEF0E14491F10130
:102CD0008491882399F090E0880F991FFC01EA59AC
:102CE000F94FA591B491FC01EB54FF4E259134911D
:102CF0008FB7F8949C91492B4C938FBF712C612C0A
:102D000060E072E18AE790E0A30192010E94B91AA3
:102D100029833A834B835C83BA01A901415051094D
:102D200061097109812F8D7F09F0EBC04F3F51057B
:102D30006105710509F00CF4CCC060E472E48FE029
:102D400090E0A30192010E94B91ABA01A901415071
:102D5000510961097109123009F075C04F3F5105E1
:102D60006105710509F00CF437CF60E970ED83E07F
:102D700090E0A30192010E94B91A21503109410942
:102D800051092F3F31054105510509F00CF424CFBD
:102D9000C501B401A30192010E94B91A213031404A
:102DA000410551050CF418CF64E274EF80E090E027
:102DB000A30192010E94B91ABA01A9014150510917
:102DC0006109710956C010928000109281008091B3
:102DD0008100886080938100809181008160809370
:102DE0008100F1018491E82FF0E0EE0FFF1FEB541A
:102DF000FF4E85919491E7EEF0E1849180934D012F
:102E000063CF1092900010929100809191008860A1
:102E10008093910080919100816080939100F101F5
:102E20008491E82FF0E0EE0FFF1FEB54FF4E8591E9
:102E3000949190934C0180934B01E7EEF0E18491E3
:102E400080934A0141CF4F3F51056105710509F05B
:102E50000CF455C0C501B401A30192010E94B91A36
:102E6000BA01A9014150510961097109112309F4FD
:102E70003BC34F3F51056105710521F118F162E136
:102E80007AE780E090E0A30192010E94B91ABA01AA
:102E9000A90141505109610971094F3F510561056F
:102EA000710581F078F049815A816B817C819AE0CB
:102EB00075956795579547959A95D1F74150510962
:102EC000610971091130C9F10CF07CC0111184CE77
:102ED00007C081E01111F6CF95B5987F892B85BD8C
:102EE00047BDC0925B01D0925C01E0925D01F0921F
:102EF0005E0180916E00826080936E006DCE82E0F4
:102F0000E9CF91E041155105F1E06F0771056CF0D3
:102F1000C501B401A30192010E94B91ABA01A90125
:102F2000415051096109710993E01130C1F4809158
:102F30008100887F892B8093810050938900409382
:102F40008800C0925701D0925801E0925901F09246
:102F50005A0180916F00826080936F003DCE1330E4
:102F6000C1F480919100887F892B809391005093C8
:102F7000990040939800C0925301D0925401E0927E
:102F80005501F0925601809171008260809371002A
:102F900023CE143009F096CF8091C100887F892B11
:102FA0008093C1004093CF00C0924F01D092500156
:102FB000E0925101F09252018091720080648093FE
:102FC00072000ACE133099F2143061F305CE3196B7
:102FD000F093A701E093A6010ACE8230910508F490
:102FE0003ECD01979093AE018093AD0181E0809337
:102FF000AC0135CD423509F083CD29813A8130933A
:10300000A7012093A6017092AB018093AA01609260
:10301000A9011092AC011092AE011092AD010E9474
:10302000380AE981FA81F491F053F983FA3038F4DF
:103030000E5F1F4F1093A7010093A6017F2EE72D6F
:10304000F0E0EC58F94FE491E69D300111247092C4
:10305000AE016092AD0103CD833009F4B4C0843079
:1030600009F007CD00918A010983802F807F80328B
:1030700009F42BC108F0AEC0803109F0FACC898187
:103080008F7009F003C180918901833618F48F5F36
:103090008093890180918901813608F0CFC08150E9
:1030A0008F7090E1981B892F943008F4C7C0E4E634
:1030B000F1E090E021E021939F5F9813FCCFE82F8F
:1030C000082E000CFF0BEC59FE4F10828F5F8E31E3
:1030D000B0F3E82F082E000CFF0BEC59FE4F91E0E7
:1030E000803209F4ADC091938F5FFACF80E1809375
:1030F000600182E080938D01BCCC80916001807F73
:10310000803139F1803209F457C00E941A0A20E355
:103110004AE168E287E498E00E94580949E360E5E3
:103120008FE79FE00E94C50E8091880149E368E720
:1031300090E00E94F20980915F0128E148E361E09C
:103140008823F1F187EA97E00E9458090E94670EF0
:1031500090CC80918B0183FF04C080E2809360015A
:10316000D4CF82FFD2CF80915F01811122C00E9413
:103170004B0D8091A4019091A501892B11F40E941F
:10318000380A00915F01098382E090E00E94A31A4F
:10319000081729F0602F82E090E00E94AB1A80911E
:1031A0005F01882309F4B1CF89E89FE00E94270AD4
:1031B000ACCF0E94460DE3CF83E080938D01A5CF75
:1031C0008FE897E0C1CF1092890180E180938A0156
:1031D00084E090CF803309F43EC1803409F049CCBB
:1031E00089818F7041F482E290E10E94270A09816F
:1031F0000F5F00938A010091890109838091A601E4
:103200009091A701892B31F4033608F057C180E172
:1032100080938A010E941A0A0E94900E0E94810ED9
:103220000981033608F055C14BE164E283E190E186
:103230000E94C50E4BE16CE3802F43C084E037CF82
:1032400021E0209384018BE3809385011092860115
:10325000109287010E945C0E66E10E94FA1A892F83
:1032600090E00496880F991F880F991F8093610141
:103270008CEF8093620131E03093630186E99FE037
:103280000E94270A09810F5F00938A018091A6019D
:103290009091A701892B19F480E280938A010E9402
:1032A0001A0A0E94900E0E94810E0E946A0E4BE143
:1032B00060E380E99FE00E94C50E809189014BE1A7
:1032C00068E490E00E94F20941CF89818F7021F477
:1032D00009810F5F00938A01009184010983809125
:1032E0008C0183FF97C081E00E370CF4AEC01092C2
:1032F0008601809186010981080F0983009384016A
:1033000002300CF4A5C0809187018F5F8093870104
:103310008091630181508093630181114CC0809141
:1033200062018F5F809362018C33BCF180916101F7
:10333000082E000C990B9595879595958795FC011E
:10334000EC59FE4F91E09083E1E0E80F0E2E000C67
:10335000FF0BEC59FE4F1082E2E0E80F0E2E000C3E
:10336000FF0BEC59FE4F1082E3E0E80F0E2E000C2D
:10337000FF0BEC59FE4F90830E945C0E66E10E94A9
:10338000FA1A892F90E00496880F991F880F991FC9
:10339000809361018CEF80936201E0918901E1509B
:1033A000FF0B64E0F595E7956A95E1F7EF54F04F70
:1033B000E491E09363010E941A0A0E94900E0E9419
:1033C000810E0E946A0E0E94670E098180E40E370A
:1033D000F4F42981022E000C330B3A832983F9017E
:1033E0003197F595E795F595E795EC59FE4F808176
:1033F00081113FCB2F5F3F4F359527953595279509
:103400002C593E4FF9018081811133CB80E38093A9
:103410008A012FCB098102300CF469CF0537A4F45F
:1034200080918601181684F4E02F000FFF0B3A9666
:10343000F595E795F595E795EC59FE4F81E080838A
:1034400089EB9FE00E94270A8FEF8093860151CF7E
:10345000109287015DCF89818F7021F409810F5F00
:1034600000938A01809185018434B4F48F5F809346
:103470008501843421F48FEC9FE00E94270A0E948A
:103480001A0A0E94900E0E94810E4BE16EE285ECBA
:103490009FE00E94C50E5ACE8091A6019091A7018F
:1034A000892B69F78091890190918801981710F410
:1034B0008093880181E080938D01E1CF8091880124
:1034C0000981801710F40093880181E080938D01B9
:1034D000A1CE46E160E282E090E10E94C50E40E2AA
:1034E0006EE180EF9FE0D5CF83E04F3F510561054E
:1034F000710509F00CF4F0CC62E17AE780E090E02D
:10350000A30192010E94B91ABA01A90141505109BF
:103510006109710984E04F3F51056105710509F0AA
:1035200008F4DACC49815A816B817C818AE07595F7
:103530006795579547958A95D1F74150510961098B
:10354000710985E0C9CCF999FECF92BD81BDF89A89
:10355000992780B50895262FF999FECF1FBA92BDFD
:1035600081BD20BD0FB6F894FA9AF99A0FBE019664
:103570000895052E97FB1EF400940E94D01A57FD63
:1035800007D00E94D81A07FC03D04EF40C94D01A2E
:1035900050954095309521953F4F4F4F5F4F08957F
:1035A00090958095709561957F4F8F4F9F4F0895AF
:1035B000A1E21A2EAA1BBB1BFD010DC0AA1FBB1F37
:1035C000EE1FFF1FA217B307E407F50720F0A21BA9
:1035D000B30BE40BF50B661F771F881F991F1A9416
:1035E00069F760957095809590959B01AC01BD0140
:1035F000CF010895991B79E004C0991F961708F030
:10360000961B881F7A95C9F780950895AA1BBB1B46
:1036100051E107C0AA1FBB1FA617B70710F0A61BD2
:10362000B70B881F991F5A95A9F780959095BC01F3
:10363000CD010895EE0FFF1F0590F491E02D099440
:0E36400081E090E0F8940C94251BF894FFCFE5
:10364E00FFFFFFFF00E1000000000000FF00C1804F
:10365E0081000000000000001A0BB20C3B0B300B77
:10366E00810B3F0B5D0B00000000510D2D0C590E10
:0A367E00580E6012FCFF0000A212BB
:00000001FF
