:100000000C9423040C944B040C944B040C944B045C
:100010000C944B040C944B040C944B040C944B0424
:100020000C944B040C944B040C94670A0C94D60A61
:100030000C944B040C944B040C944B040C944B0404
:100040000C944B040C943B0E0C944B040C944B04FA
:100050000C944B040C944B040C944B040C94080D1E
:100060000C944B040C944B040C944B040C944B04D4
:100070000C944B040C944B040C944B040C944B04C4
:100080000C94520D0C944B040C944B040C944B04A4
:100090000C944B040C944B040C944B040C944B04A4
:1000A0000C944B040C944B040C944B040000000083
:1000B000003E5B4F5B3E3E6B4F6B3E1C3E7C3E1CEE
:1000C000183C7E3C181C577D571C1C5E7F5E1C0034
:1000D000183C1800FFE7C3E7FF0018241800FFE7EB
:1000E000DBE7FF30483A060E2629792926407F05AE
:1000F0000507407F05253F5A3CE73C5A7F3E1C1CC4
:1001000008081C1C3E7F14227F22145F5F005F5F83
:1001100006097F017F006689956A6060606060946F
:10012000A2FFA29408047E040810207E2010080874
:100130002A1C08081C2A08081E101010100C1E0C7F
:100140001E0C30383E3830060E3E0E060000000011
:100150000000005F00000007000700147F147F14F8
:10016000242A7F2A1223130864623649562050003D
:1001700008070300001C2241000041221C002A1C29
:100180007F1C2A08083E0808008070300008080814
:100190000808000060600020100804023E51494534
:1001A0003E00427F400072494949462141494D3352
:1001B0001814127F1027454545393C4A49493141B9
:1001C000211109073649494936464949291E000087
:1001D00014000000403400000008142241141414DC
:1001E0001414004122140802015909063E415D59C8
:1001F0004E7C1211127C7F494949363E41414122D1
:100200007F4141413E7F494949417F090909013EFA
:10021000414151737F0808087F00417F4100204021
:10022000413F017F081422417F404040407F021C33
:10023000027F7F0408107F3E4141413E7F0909094A
:10024000063E4151215E7F09192946264949493216
:1002500003017F01033F4040403F1F2040201F3FDC
:100260004038403F63140814630304780403615961
:10027000494D43007F4141410204081020004141A3
:10028000417F04020102044040404040000307084F
:100290000020545478407F2844443838444444284B
:1002A000384444287F385454541800087E090218F2
:1002B000A4A49C787F0804047800447D400020407A
:1002C000403D007F1028440000417F40007C0478BE
:1002D00004787C080404783844444438FC18242406
:1002E0001818242418FC7C08040408485454542486
:1002F00004043F44243C4040207C1C2040201C3C03
:100300004030403C44281028444C9090907C4464F9
:10031000544C44000836410000007700000041368C
:10032000080002010204023C2623263C1EA1A16112
:10033000123A4040207A3854545559215555794144
:100340002154547841215554784020545579400C1B
:100350001E527212395555555939545454593955FC
:100360005454580000457C410002457D420001453F
:100370007C40F0292429F0F0282528F07C545545AC
:10038000002054547C547C0A097F4932494949323F
:100390003248484832324A4848303A4141217A3A54
:1003A00042402078009DA0A07D39444444393D401E
:1003B00040403D3C24FF2424487E4943662B2FFCCB
:1003C0002F2BFF0929F620C0887E09032054547979
:1003D000410000447D413048484A32384040227A4A
:1003E000007A0A0A727D0D19317D2629292F2826C7
:1003F0002929292630484D402038080808080808CF
:100400000808382F10C8ACBA2F102834FA00007B27
:10041000000008142A142222142A1408950022002D
:1004200095AA005500AAAA55AA55AA000000FF00E7
:10043000101010FF00141414FF001010FF00FF1024
:1004400010F010F0141414FC001414F700FF000056
:10045000FF00FF1414F404FC141417101F10101FD5
:10046000101F1414141F00101010F0000000001FC3
:10047000101010101F10101010F010000000FF10CE
:100480001010101010101010FF10000000FF1400CA
:1004900000FF00FF00001F10170000FC04F41414FC
:1004A0001710171414F404F40000FF00F7141414C8
:1004B00014141414F700F7141414171410101F1048
:1004C0001F141414F4141010F010F000001F101F6B
:1004D0000000001F14000000FC140000F010F010D9
:1004E00010FF10FF141414FF141010101F00000050
:1004F00000F010FFFFFFFFFFF0F0F0F0F0FFFFFF54
:100500000000000000FFFF0F0F0F0F0F38444438AA
:10051000447C2A2A3E147E02020606027E027E02E5
:1005200063554941633844443C04407E201E200604
:10053000027E020299A5E7A5991C2A492A1C4C7241
:1005400001724C304A4D4D303048784830BC625AC8
:10055000463D3E494949007E0101017E2A2A2A2A58
:100560002A44445F444440514A444040444A514034
:100570000000FF0103E080FF000008086B6B0836F5
:1005800012362436060F090F060000181800000066
:100590001010003040FF0101001F01011E00191D55
:1005A0001712003C3C3C3C00000000000000000032
:1005B000240027002A002D00300000000000250044
:1005C00028002B002E00310004080201104080405A
:1005D0001020408040800802040180402010020169
:1005E0001080102040402004040404040304050289
:1005F00002020204030202020206060606060604BE
:1006000004020202040406011501260137014A0111
:100610005D01720188019F01B801D201EE010B0258
:100620002A024B026E029302BA02E40210033F0355
:100630007003A403DC03170455049704DD042705A5
:100640007505C80520067D06E0064907B8072D0890
:10065000A9082D09B9094D0AEA0A900B400CFA0CB9
:10066000C00D910E6F0F5A1053115B1272139A1432
:10067000D41520178018F519801B231DDE1EB42009
:10068000A622B524E4263429A72B402E0031EA33D4
:100690000037453ABC3D68414C456B49C84D6852EE
:1006A0004F57805C006210111213151617181A1C90
:1006B0001D1F21232527292C2E3134373A3E414551
:1006C000494E52575C62686E757B838B939CA5AFD5
:1006D000B9C4D0DCE9F70000000000000000000011
:1006E00018BCFEC6C2C2C6FE3C00FCFEC6C2C2C6E4
:1006F000FE3C0000D8C8002070F8F8202000F8FC6C
:10070000FEF67E3E3C3800F8FCFEC6C2C2C6FEFCC9
:1007100000FEFEFE0606060CFCF000FCFEC6C2C291
:1007200002000000000000000000000000000000C7
:1007300000000000000000000E1F1F101010191F05
:100740000E001F1F181010101D1F06001F1F000095
:10075000001F1F1808000F1F1F1F1E1E1E0C000F5A
:100760001F1F000000001F1F001F1F1F1818181C4C
:100770000F03001F1F1010101000000000000000E9
:100780000000000000008D14A1C881CFD9F102AF94
:1007900000C0E03058DC3CFCFCFCFCF8F0E0C000A1
:1007A00000030B0B2A6A6B777F7F7F3F1F0F0700C9
:1007B00000C020100804040404C424A8D020C000F1
:1007C00000070810204040404854652514080700E1
:1007D00018664281854A6618080B00020202010071
:1007E0000904000001020200000524001001052494
:1007F0000101010424020605240600010705810306
:1008000010004009040100020A000000070502026E
:1008100040000007058302400000040309041201A0
:100820000002EF0201404123368000010102030172
:1008300041726475696E6F204C4C430041424131F6
:1008400031303600240F11241FBECFEFDAE0DEBFB7
:10085000CDBF11E0A0E0B1E0E4E8FBE302C0059009
:100860000D92AE3BB107D9F726E0AEEBB1E001C087
:100870001D92A538B207E1F714E0C3E2D4E004C04A
:100880002197FE010E94B51DC232D107C9F70E940F
:100890005B0F0C94C01D0C9400008091D70108954B
:1008A000ECE1F2E030EB20E146E05C983EBD4A9599
:1008B000F1F72EBD20E8239507C0449140815C9A52
:1008C0004EBD8111412D419344912A95B1F7339545
:1008D000383B49F70DB408954F925F926F927F9223
:1008E0008F929F92AF92BF92CF92DF92EF92FF9240
:1008F0000F931F93CF93DF9330E0F901E80FF91FB7
:10090000F7FD77C0803891050CF073C0602E712C14
:10091000F301E60FF71FF7FD6CC0603471050CF0B2
:1009200068C0E62FE7705E2EE3E075946794EA9561
:10093000E1F7F3E075956795FA95E1F7062E000C5F
:10094000770BDB01B695BA2FAA27B795A795A80F05
:10095000B91FA45EBD4FEA01F12CE12C6701C60E60
:10096000D71E48E0C416D1040CF043C0EFEFCE16FA
:10097000DE06A4F18C0150E040E04D01E0E88E0E6F
:10098000911C17FD21C0FA01EC0FFD1FA490B12CA2
:10099000052C02C0AA0CBB1C0A94E2F7EFEFCE169E
:1009A000DE06C1F1FD01E40FF51F40804A284082B8
:1009B000552051F0E7E0CE16D10431F0F401E40FF8
:1009C000F51FA080BA28B0824F5F5F4F0F5F1F4FA7
:1009D000421753071CF40038110599F64FEFE41A3B
:1009E000F40AA058BF4FC20FD31F6E147F0409F042
:1009F000B5CFDF91CF911F910F91FF90EF90DF90D6
:100A0000CF90BF90AF909F908F907F906F905F90AE
:100A10004F9008955110D2CFD7CF90917806982358
:100A200029F490917706982381E009F480E00895F5
:100A3000FC0180911B02882311F13FB7F89482E0FA
:100A40008093E9002091F200822F90E01816190699
:100A500014F481E090E0882339F0289844E640932C
:100A60001A024091F1004083222339F02091F200D4
:100A7000211103C02BE62093E8003FBF08958FEFBC
:100A80009FEF08952FB7F89483E08093E900909149
:100A9000E800892F807295FF04C09091F20080E4F5
:100AA000891B2FBF08958091120281110DC082E031
:100AB00080930E0284E080930F0210921102109234
:100AC000100281E0809312028EE092E00895CF93AD
:100AD000DF931F92CDB7DEB76983DC01ED91FC9106
:100AE0000280F381E02D41E050E0BE016F5F7F4F57
:100AF00009950F90DF91CF91089583E08093E900ED
:100B00008091F200882319F08AE38093E800089529
:100B10000E94420590E00895CF93DF931F92CDB7D6
:100B2000DEB7FC018485958597FD08C02FEF3FEF68
:100B3000358724870F90DF91CF910895CE010196DC
:100B40000E941805019719F4898190E0F3CF8FEF87
:100B50009FEFF0CF0F931F93CF93DF931F92CDB7EB
:100B6000DEB78C01FC018485958597FF0BC0CE0113
:100B700001960E941805019771F4898190E0F801AF
:100B800095878487F801848595850F90DF91CF91B3
:100B90001F910F9108958FEF9FEFF1CFFC01848596
:100BA000958597FD0BC09FB7F89482E08093E9008C
:100BB0008091F2009FBF90E0019608959FB7F8944E
:100BC00082E08093E9008091F2009FBF90E0089559
:100BD00040910802509109022091060230910702CB
:100BE00042175307B4F49091E8009570E1F39091A7
:100BF000E80092FD19C08093F10080910802909165
:100C0000090201968F739927892B19F48EEF80932F
:100C1000E8008091080290910902019690930902E0
:100C20008093080281E0089580E00895DF92EF92BA
:100C3000FF920F931F93CF93DF93D82E8A01EB017E
:100C40007B01E40EF51ECE15DF0559F0D7FE12C06C
:100C5000FE0184910E94E80521968111F4CF0FEFE7
:100C60001FEFC801DF91CF911F910F91FF90EF907F
:100C7000DF9008958881EECF0F931F93CF93DF937A
:100C80001F92CDB7DEB782E0898342E450E068ED81
:100C900077E080E80E9416060E945305DC01129658
:100CA0000D911C910115110589F0D801ED91FC9170
:100CB0000280F381E02DBE016F5F7F4FC80109956F
:100CC00097FD04C0F80100851185ECCF89810F9054
:100CD000DF91CF911F910F910895615030F02091D5
:100CE000F100FC0120830196F8CF289884E68093D8
:100CF0001A020895AF92BF92CF92DF92EF92FF92C5
:100D00000F931F93CF93DF936C017B018B01040F33
:100D1000151FEB015E01AE18BF08C017D10759F0CF
:100D20006991D601ED91FC910190F081E02DC60111
:100D30000995892B79F7C501DF91CF911F910F910B
:100D4000FF90EF90DF90CF90BF90AF9008953FB7A6
:100D5000F8948091D3019091D401A091D501B091E4
:100D6000D60126B5A89B05C02F3F19F00196A11DFD
:100D7000B11D3FBFBA2FA92F982F8827BC01CD01E5
:100D8000620F711D811D911D42E0660F771F881F44
:100D9000991F4A95D1F708958F929F92AF92BF9273
:100DA000CF92DF92EF92FF926B017C010E94A70627
:100DB0004B015C01C114D104E104F104B9F00E94BB
:100DC000A706681979098A099B09683E734081055D
:100DD000910580F321E0C21AD108E108F10888EEFC
:100DE000880E83E0981EA11CB11CE4CFFF90EF9009
:100DF000DF90CF90BF90AF909F908F9008958F928B
:100E00009F92AF92BF92CF92DF92EF92FF920F9399
:100E10001F93CF93DF936C017B018A0180912D0199
:100E2000882309F45CC080911B02882309F457C011
:100E300080910D0280FF05C08091E0008260809368
:100E4000E000E801B12C8AEFA82E93E0892E2AE376
:100E5000922E209711F4BB20D9F10E9442058111F6
:100E60000AC0AA94AA20D9F161E070E080E090E085
:100E70000E94CC06EECF8C171D0611F00CF08C2FC3
:100E80009FB7F8948092E9002091E80025FD02C008
:100E90009FBFDFCF282F30E0C21BD30BF70181505B
:100EA00020F041914093F100FACFE20EF31EBB20F7
:100EB00021F09092E800B12CEBCF8091E80085FD05
:100EC000E7CF9092E800BB24B394209709F3F3CFC7
:100ED0005D9884E680930C02101611063CF081E0C8
:100EE00090E0F6019383828310E000E0C801DF9177
:100EF000CF911F910F91FF90EF90DF90CF90BF9017
:100F0000AF909F908F900895CF92DF92EF92FF92D3
:100F10001F93CF93DF93E82FF0E0EA5CFE4F108140
:100F2000E62FF0E0603398F5EA55F94FE491CE2FC3
:100F3000D0E0F12CE12C60E074E284EF90E0A701B6
:100F40009E010E945E1B215031094109510991E027
:100F50002115310581E0480751056CF060E970ED1D
:100F600083E090E0A7019E010E945E1B21503109A1
:100F70004109510993E0113089F0133039F1DF91C3
:100F8000CF911F91FF90EF90DF90CF900895EE0FDB
:100F9000FF1FEA55FA4FC591D491CBCF8091E20162
:100FA0008111EDCF80918100887F892B8093810012
:100FB000309389002093880010928500109284005D
:100FC00080916F00826080936F00D9CF80919100F3
:100FD000887F892B8093910030939900209398000B
:100FE0001092950010929400D093D101C093D0013B
:100FF00081E08093CF0180917100826080937100C5
:10100000BECFE82FF0E0EA5CFE4F8081813019F01E
:101010008330A9F008958091E20181110FC0809181
:101020006F008D7F80936F008091C201E091C001BD
:10103000F091C10190818095892380830895109259
:10104000CF018091E0018111F9CF8091CD01E09134
:10105000CB01F091CC01EECF9091E301923009F4F5
:1010600071C0292F30E0F901EA5CFE4F4081225423
:101070003E4FF9018083913031F42091BE01281355
:1010800002C09093C3019F5F9093E30190E0FC0145
:10109000E951FA4F249188539A4FFC01849130E032
:1010A000220F331FF901E654FA4F65917491F9014B
:1010B000E455FA4FA591B4919C91982B9C934130A3
:1010C00019F04330D9F0089590916400977F909380
:1010D00064001092800010928100909181009860CD
:1010E0009093810090918100916090938100709322
:1010F000C1016093C0018093C20108959091650081
:10110000977F9093650010929000109291009091BB
:1011100091009860909391009091910091609093CC
:1011200091007093CC016093CB018093CD018091AD
:10113000E301882321F06CE380E00E94840780E0D3
:101140000C94010808952D9A0895BC0190E080E068
:101150000C94CC068FB18095807F669B88601C9B29
:10116000846008953E9A579A81E08093D70108954C
:1011700020E191E061FD94E060FD990F62FD9295A0
:10118000687F269FD0011124A80FA45EBD4F8C91CB
:1011900040FF03C0892B8C93089590958923FBCF42
:1011A0002F923F924F925F926F927F928F929F9277
:1011B000AF92BF92CF92DF92EF92FF920F931F9365
:1011C000CF93DF93CDB7DEB728970FB6F894DEBF85
:1011D0000FBECDBF9E838D836A3061F5DC015596CD
:1011E0008C91B8E08B9F90011124ED81FE81818963
:1011F0009289820F931F928B818B108A178681E0D0
:1012000090E028960FB6F894DEBF0FBECDBFDF91F9
:10121000CF911F910F91FF90EF90DF90CF90BF90F3
:10122000AF909F908F907F906F905F904F903F9086
:101230002F9008956D3019F32D813E8138872F83CB
:10124000D9011F960D911C915097003811050CF093
:101250007CC05196AD90BC90B0E4AB16B1040CF0DC
:1012600074C0F901258825E0C801229E800D911DDA
:101270001124181619060CF068C0622C712CC301D9
:1012800033E0880F991F3A95E1F78A0D9B1D1816D8
:1012900019060CF05AC0F489FB83AF81B8855396C8
:1012A000BC91BC83629FB0011124FB01E455FF4F48
:1012B0002F011982F2018491F981F53009F480E05F
:1012C000450128E02A83A82FB0E0BE83AD833C808F
:1012D00080FF3B80311004C0BB81EC81BE17F9F068
:1012E00078018E2D801B8215D0F4D12CC12CC21414
:1012F00090F4F0E8EF16F10450F4B601680D791D92
:101300006034710520F4432DC7010E94B8082FEF07
:10131000C21AD20AECCF3FEFE31AF30AE2CF8D8173
:101320009E81959587959A8191509A83860C971CFA
:101330009111C9CFA981AF5FA983BFEF4B1A5B0A97
:10134000060D171DA63009F0B5CFEF81F885258968
:10135000422F50E087859089F6E02F9F800D911DE8
:101360001124AF81B88550969C938E931F97569603
:101370002C915697222309F442CF6AEF640390011F
:10138000659F300D112420583F4F281739070CF066
:1013900036CFED91FC9111970190F081E02D6AE03C
:1013A000CD0109952CCF0895089590E080E008952F
:1013B0008F929F92AF92BF920F931F93CF93DF9321
:1013C000CDB7DEB7A1970FB6F894DEBF0FBECDBF85
:1013D00019A2423008F44AE08E010F5D1F4F842E9F
:1013E000912CB12CA12CA50194010E94901BE62FF9
:1013F000B901CA01EA3044F5E05DD801EE938D01F0
:10140000232B242B252B79F790E080E0109769F0AF
:10141000FD0101900020E9F73197AF014A1B5B0BFA
:10142000BD018EE696E00E947A06A1960FB6F8946A
:10143000DEBF0FBECDBFDF91CF911F910F91BF9047
:10144000AF909F908F900895E95CD7CFFC010190F9
:101450000020E9F73197AF01481B590BBC018EE61C
:1014600096E00C947A06CF92DF92EF92FF92CF93A0
:10147000DF936C01990FEE08FF08F7FE19C06DE2CB
:101480008EE696E00E94D008EC0166277727CB0114
:101490006C197D098E099F094AE00E94D8098C0FBA
:1014A0009D1FDF91CF91FF90EF90DF90CF90089537
:1014B0004AE0C701B601DF91CF91FF90EF90DF9036
:1014C000CF900C94D8090C94481B0E94BB1D1F920E
:1014D0000F920FB60F9211248F939F938091E1008A
:1014E0009091E100937F9093E10083FF0FC01092F1
:1014F000E90091E09093EB001092EC0092E390935E
:10150000ED0010921B0298E09093F00082FF22C041
:1015100093E09093E9009091F200992319F09AE3F7
:101520009093E80090910C02992341F090910C0265
:10153000915090930C02911101C05D9A90911A0202
:10154000992341F090911A02915090931A029111AF
:1015500001C0289A84FF18C08091E2008E7E8160CD
:101560008093E2008091E1008F7E8093E100809182
:101570000D028E7E806180930D029F918F910F905E
:101580000FBE0F901F90189580FFF7CF8091E2005B
:101590008E7E80618093E2008091E1008E7E809358
:1015A000E10080910D028E7E8160E5CF1F920F9247
:1015B0000FB60F921124CF92DF92EF92FF920F930A
:1015C0001F932F933F934F935F936F937F938F93CB
:1015D0009F93AF93BF93EF93FF93CF93DF93CDB7D9
:1015E000DEB76C97DEBFCDBF1092E9008091E800B6
:1015F00083FF25C068E0CE0145960E946D0682EF0C
:101600008093E8008D8987FF39C09091E80090FFB2
:10161000FCCF982F907609F034C19E894F89588D60
:101620002F89F88C911131C0803861F580910B02BF
:101630008093F1001092F1008EEF8093E8006C9699
:101640000FB6F894DEBF0FBECDBFDF91CF91FF91F3
:10165000EF91BF91AF919F918F917F916F915F912A
:101660004F913F912F911F910F91FF90EF90DF903D
:10167000CF900F900FBE0F901F9018959EEF9093F4
:10168000E800C7CF1092F100D5CF913059F4811105
:10169000D3CF4130510581F680910B028D7F80932D
:1016A0000B02CACF933049F48111C6CF41305105A6
:1016B00019F680910B028260F2CF953041F480914F
:1016C000E80080FFFCCF20682093E300B5CF963080
:1016D00009F0A9C00B8D1C8D22E01092E900109238
:1016E000090210920802F2122EC010920702109204
:1016F00006020E943C061F8299E09983FA8291E0DB
:101700009E8390EA98879AEF9987209108023091FA
:101710000902275F3F4F3C832B838D831092E900A2
:101720001092090210920802109307020093060219
:1017300049E050E0BE016F5F7F4F80E00E941606D7
:101740000E943C0679CF10930702009306020E9484
:101750005305DC0112960D911C910115110509F438
:1017600051C1D801ED91FC910480F581E02DBE01BD
:101770006B5E7F4FC8010995009709F03EC1F801E3
:1017800000851185EACFF3E0FF120EC08F89882310
:1017900009F440C0823061F440E867E08CE398E0EF
:1017A0000E94AC0E811148CF81E28093EB0047CFBD
:1017B000813029F440E86BE080E398E0F1CF83309A
:1017C00099F70E945305DC011296ED90FC908E0172
:1017D0000F5F1F4F6801E114F10479F0D701ED911B
:1017E000FC910680F781E02DB801C7010995080F2B
:1017F000111DF701E084F184EECFD8011C92F601AF
:1018000001900020E9F73197BF016C197D0940E094
:10181000C601C6CF6AE178E0FB01449150E080E860
:101820000E94160609CF973009F4BECF983021F4F4
:1018300081E08093F10000CF993009F0FDCE8370F4
:1018400009F0B2CFE9E3F1E081E031E096E32191E4
:10185000222371F08093E9003093EB00DF011197B0
:101860002C912093EC009093ED008F5F873079F7F7
:101870008EE78093EA001092EA008F8980931B0222
:10188000DBCE8B8D9C8D1092E90010920902109294
:1018900008029093070280930602898D811192C0FD
:1018A0008E899D89913A49F4813209F07DCF47E0D4
:1018B00050E066E271E080E0B3CF913209F074CF7E
:1018C000833269F48F89988DB0E0A0E08093220183
:1018D00090932301A0932401B0932501ADCE8032D3
:1018E00069F48091E80082FFFCCF67E086E291E036
:1018F0000E946D068BEF8093E8009ECE823209F045
:101900009BCE8F8980932D01EEEFFFE78591949117
:101910008B3F9C4D51F1E0E0F8E0809126019091E1
:101920002701A0912801B0912901803B9440A10595
:10193000B105F1F480912D0180FD1AC0EE3F8AE0DF
:10194000F80789F587E797E79183808380916000A6
:1019500080930A0288E19BE00FB6F894A8958093E3
:1019600060000FBE9093600067CEEEEFFAE0D5CF37
:10197000808191818737974709F05ECEA895809145
:10198000600088618093600080910A02809360000B
:10199000EE3F2AE0F20789F08091FE0A9091FF0A5B
:1019A0009183808349CE808191818737980751F256
:1019B0009093FF0A8093FE0AC5CF1092FF0A1092FF
:1019C000FE0A3ACE0E945305DC0112960D911C913D
:1019D0000115110509F4E8CED801ED91FC910190B3
:1019E000F081E02DBE016B5E7F4FC801099581112A
:1019F00023CEF80100851185EBCF181619060CF4DB
:101A00001BCED2CEF1E0FF12BECE6EE178E004CF65
:101A10001F920F920FB60F9211242F933F938F9323
:101A20009F93AF93BF938091D8019091D901A091DA
:101A3000DA01B091DB013091D20123E0230F2D3781
:101A400058F50196A11DB11D2093D2018093D801B4
:101A50009093D901A093DA01B093DB018091D30177
:101A60009091D401A091D501B091D6010196A11D0C
:101A7000B11D8093D3019093D401A093D501B0936D
:101A8000D601BF91AF919F918F913F912F910F9070
:101A90000FBE0F901F90189526E8230F0296A11DE8
:101AA000B11DD2CF1F920F920FB60F9211242F9318
:101AB0003F934F935F936F937F938F939F93AF93D6
:101AC000BF93CF93DF93EF93FF938091CF01882350
:101AD00089F08091E00181110DC08091CE018111CA
:101AE00009C09091CD01E091CB01F091CC018081B2
:101AF000892780838091CA01882309F49CC0809142
:101B0000C6019091C701A091C801B091C901892B6C
:101B10008A2B8B2B09F48FC08091C6019091C7014D
:101B2000A091C801B091C9010197A109B1098093A1
:101B3000C6019093C701A093C801B093C901892B36
:101B40008A2B8B2B09F077C0D1E0E091C401F09192
:101B5000C501AF014F5F5F4F5093C5014093C40172
:101B60002491822F807FC22FCF70803821F48C2F58
:101B70000E940108EACF803919F5E0916C06F091D6
:101B80006D0609958D278093CE01E091C401F091F7
:101B9000C501CF0101969093C5018093C401649162
:101BA0008091E301C81788F6C13021F48091C30108
:101BB0008111CBCF67FDC9CF8C2F0E948407C5CF81
:101BC00087FD4CC03296F093C501E093C401FA0141
:101BD0004491A091D001B091D101322F242F0E94C5
:101BE000B21B6C507E4F8F4F9F4F28EE33E040E08A
:101BF00050E00E94901B2093C6013093C701409390
:101C0000C8015093C9018091C6019091C701A0916C
:101C1000C801B091C901892B8A2B8B2B61F481E01B
:101C200090E0A0E0B0E08093C6019093C701A0933C
:101C3000C801B093C901FF91EF91DF91CF91BF919E
:101C4000AF919F918F917F916F915F914F913F9154
:101C50002F910F900FBE0F901F901895803E29F482
:101C60001092C5011092C40170CF803F09F06DCF72
:101C70001092CA01E0CF1F920F920FB60F9211245B
:101C80008F939F93AF93BF93EF93FF938091E20164
:101C9000882309F454C08091DC019091DD01A0916A
:101CA000DE01B091DF01892B8A2B8B2BA1F1909162
:101CB000C201E091C001F091C10180818927808338
:101CC0008091DC019091DD01A091DE01B091DF01F6
:101CD000181619061A061B069CF48091DC019091D7
:101CE000DD01A091DE01B091DF010197A109B109E9
:101CF0008093DC019093DD01A093DE01B093DF01BE
:101D0000FF91EF91BF91AF919F918F910F900FBE77
:101D10000F901F9018951092E0011092E2018091AF
:101D20006F008D7F80936F008091C201E091C001B0
:101D3000F091C1019081809589238083E1CF8091CA
:101D4000CE018111DDCF9091C201E091C001F091EF
:101D5000C10180818927F1CFEF92FF920F931F93EA
:101D6000CF93DF93F82E192FE62E042F81E0860FF4
:101D7000880F0E94E80583E00E94E805CF2DD12F4F
:101D8000EC0EFD2EF11CCE15DF05B9F007FF13C0D8
:101D9000FE0184910E94E805182F80E00E94E8056A
:101DA000812321968111EFCFDF91CF911F910F9168
:101DB000FF90EF9008958881EDCF81E0F5CF0F93EC
:101DC0001F93CF93DF938C0181E090E00E94630A20
:101DD00080FF32C08AE090E00E94630A9FEF980F74
:101DE0009E3F50F522E330E0D80150963C932E936D
:101DF0001F9728E330E052963C932E935197CBE007
:101E0000D0E0D801ED91FC910190F081E02D682F98
:101E1000C8010995CE010E94630A2196C131D105FE
:101E200081F780E00E94500488EE93E0DF91CF912B
:101E30001F910F910C94A508DF91CF911F910F91E5
:101E4000089504970C94DF0EECE1F6E01382128201
:101E500088EE93E0A0E0B0E084839583A683B78307
:101E600083E491E0918380838FEF9FEF9587848750
:101E7000EEE6F6E0138212821186128680E18387F5
:101E800010861782158685E591E09183808383E62D
:101E900091E095838483108A1786128A118A81E0E3
:101EA000838B148A858B168A8DE494E090936D065B
:101EB00080936C060895CF93DF9300D000D0CDB708
:101EC000DEB7789484B5826084BD84B5816084BDBA
:101ED00085B5826085BD85B5816085BD80916E00C8
:101EE000816080936E0010928100809181008260F9
:101EF0008093810080918100816080938100809136
:101F00008000816080938000809191008260809346
:101F10009100809191008160809391008091900068
:101F20008160809390008091C10084608093C100A3
:101F30008091C10082608093C1008091C100816066
:101F40008093C1008091C30081608093C300809121
:101F5000C00082608093C0008091C2008160809345
:101F6000C20080917A00846080937A0080917A0028
:101F7000826080937A0080917A00816080937A00F9
:101F800080917A00806880937A0010921B021092F0
:101F90000B0210920D028091D70081608093D700D0
:101FA00080EA8093D80089B5806189BD89B5826057
:101FB00089BD09B400FEFDCF61E070E080E090E0F3
:101FC0000E94CC068091D8008F7C80618093D800DD
:101FD0008091E000807F8093E0008091E1008E7E20
:101FE0008093E1008DE08093E200559A209A81EC85
:101FF00080937C0081E785B987E684B985E38BB956
:102000008FE38AB9769A6E9880EF81BB10BA80E52B
:102010008CBD81E08DBD85E090E00E94A5085999B6
:1020200002C0599AF8CF5C98E6E8F7E09AE085910B
:102030008EBD00000DB407FEFDCF8EB59A95B9F7A1
:102040005C9A81E88093640081E0809365000E943F
:1020500050040E94AA0887FF16C05C9885EA8EBDCE
:1020600000000DB407FEFDCF8EB55C9A2E985898EF
:102070002D988091640080628093640081E083BF2A
:10208000889513BEFCCF0E94AA0882FF48C02D98F5
:102090000E94AA0884788438E1F40E94A30888EC9E
:1020A00090E00E94A508589882E090E00E94481BAA
:1020B0008F3F29F06FEF82E090E00E94501B84EF89
:1020C00091E00E94A508589A0E94AA088478843852
:1020D000D9F30E94AA0884718431E1F40E94A30814
:1020E00088EC90E00E94A5082E9882E090E00E9483
:1020F000481B882329F060E082E090E00E94501B9A
:1021000084EF91E00E94A5082E9A0E94AA0884718B
:102110008431D9F388EC90E00E94A508B4CF0E94E6
:10212000A30882E090E00E94630A882309F48AC031
:102130000E94B20881E090E00E94630A182F147098
:1021400081FF0EC011112E9820EF3FEF3A832983B3
:102150000E94AA0886FF7BC02E9A589A0E94A30864
:1021600082E390E00E94A5080E94AA088111F8CF9E
:1021700086E180937906809164008E7F809364006D
:1021800080917A00806480937A0080917A0086FD45
:10219000FCCF00917800109179000E94A706AB0156
:1021A000BC01C801B0E0A0E0DC01992788278C01C0
:1021B0009D01040F151F261F371FC901B80120916B
:1021C000640021602093640061157105810591050B
:1021D00011F00E943F1B0E94941A65E070E00E947B
:1021E0008D1D01969093EF018093EE0185E00E9492
:1021F0002C0886E00E942C080E94B20885E0282E58
:10220000312C2FB7F8948091D8019091D901A091E9
:10221000DA01B091DB012FBF20917A06182F121B33
:10222000212F00917B060983002309F443C01093FA
:102230007C0610927B0680E090E0892B11F30E94CF
:102240000000DCCF1092D7013E98579873CF11232E
:1022500031F089819A81049711F42E9A589881E07F
:102260000E94500400E128E546ED56E069817A813C
:1022700084E190E00E946C0480E00E9450048FE0B2
:1022800090E00E94A508A981BA811196BA83A9831A
:10229000599709F05DCF112311F0589A2D9880E9D4
:1022A00091E00E94A5080E94A3088EE696E00E9495
:1022B000DF0E56CF30917906131748F42F5F23179E
:1022C00008F0B9CF81E083BF889513BEB4CF21E079
:1022D00020937B0680937A0680917506909176060E
:1022E0000196909376068093750680917706809389
:1022F00078060E94AA0880937706ECE1F2E0198143
:1023000011111FEF8FEF11931193119311938150BE
:10231000D0F71092800610927F0610927E061092DF
:102320007D06809105028111E7C080E80E940D05BD
:10233000882371F0809120019091210181309105D5
:1023400009F095C083E090E09093210180932001F3
:1023500080E10E940D05882371F080912001909109
:1023600021018330910509F084C081E090E09093D1
:1023700021018093200184E00E940D05209120011D
:1023800030912101882309F476C02130310509F00C
:1023900072C081E080930502109204021092030241
:1023A0001092020210920102109200021092FF019C
:1023B00084E190E090937E0680937D0680910402F4
:1023C000882309F48FC085E691E00E94260A24E163
:1023D00030E030937E0620937D0630938006209374
:1023E0007F068EE891E00E94260A84E190E09093B7
:1023F0007E0680937D06AEE1B0E0B0938006A093A8
:102400007F0689E991E00E94260A80911E01909141
:102410001F010E94330A04E110E010937E0600932E
:102420007D0628E230E03093800620937F0689EA1B
:1024300091E00E94260A80911D0190E00E94330ADB
:10244000809120019091210101962AE0289FB001FE
:10245000299F700D112408E028E040ED57E081E04D
:1024600090E00E946C0480E00E945004E4CE01974A
:102470006BCF01967CCF22303105F1F480E40E94CD
:102480000D05882349F080911E0190911F0101964E
:1024900090931F0180931E0180E20E940D05882306
:1024A00009F486CF80911E0190911F0101979093AE
:1024B0001F0180931E017CCF2330310509F078CFB6
:1024C00080E20E940D05811106C080E40E940D0586
:1024D000882309F46DCF80911D0191E089278093B5
:1024E0001D0166CF80910302882319F080E791E0F7
:1024F0006CCF8DE791E069CF0091FD011091FE0155
:102500001A83098300911B0110911C0129813A81D2
:10251000020F131F10931C0100931B01C090F901BF
:10252000D090FA01E090FB01F090FC01209117019E
:10253000309118014091190150911A01C701B6015B
:102540000E94C21B4B015C018092170190921801FE
:10255000A0921901B0921A0120E030E0A9010E9476
:102560002E1C87FF15C020E030E0A901C701B6018D
:102570000E942E1C87FF0CC0F7FAF094F7F8F09435
:10258000C092F901D092FA01E092FB01F092FC01B5
:1025900017FFEBC089819A8197FF07C091958195BC
:1025A00091099093FE018093FD0120E030E040E02E
:1025B00051E4C501B4010E94C21B20E030E040E8B4
:1025C00052E40E941B1D18160CF4E1C08091F70123
:1025D0009091F801049724F080911D018111D7C0DA
:1025E0008091F5019091F601049724F080911D01EE
:1025F0008111D6C00E94AA0883FF29C080911601CC
:10260000882329F18091F401882309F44AC18FEFCE
:102610009FEF9093FE018093FD0100E010E020E821
:102620003FE30093F9011093FA012093FB013093EB
:10263000FC018DEC9CECACE4BDE38093F001909345
:10264000F101A093F201B093F30110921601809171
:102650001601882381F028E230E030937E06209333
:102660007D0689E190E09093800680937F0685EB5C
:1026700091E00E94260AC090F901D090FA01E09002
:10268000FB01F090FC0120E030E040E450E4C701A1
:10269000B6010E942E1C87FF14C0A701960160910D
:1026A000F0017091F1018091F2019091F3010E948B
:1026B000C21B6093F9017093FA018093FB01909320
:1026C000FC0120E030E040E051E46091170170919E
:1026D00018018091190190911A010E94C21B6B018F
:1026E0007C0100911B0110911C011A83098320E0D9
:1026F00030E044E252E40E941B1D18160CF0D4C0D6
:10270000C801CE97029760F48091FD019091FE017F
:1027100097FF06C022E030E03093FE012093FD01D8
:1027200089819A81C397029768F48091FD01909105
:10273000FE011816190634F48EEF9FEF9093FE01F8
:102740008093FD0189819A81C697079708F0B6C0EA
:1027500000E010E020E03FEB0093F9011093FA0154
:102760002093FB013093FC01A9C0093711050CF43B
:102770001CCFA981BA811A161B060CF016CFB19591
:10278000A195B109B093FE01A093FD010ECF0D33C9
:10279000110534F48091F5019091F601049764F0ED
:1027A000809101029091020201969093020280931F
:1027B000010281E08093F4010C33110534F0809123
:1027C000F7019091F80104975CF08091FF019091DE
:1027D00000020196909300028093FF011092F40191
:1027E000E0916C06F0916D060995882341F1809186
:1027F000E301823020F181E08093E2018091E101E8
:102800008093E00180918100887F816080938100C6
:1028100088E098E190938900809388000CE013E0B1
:1028200020E030E00093DC011093DD012093DE0115
:102830003093DF0180916F00826080936F0088E3A6
:1028400090E090931C0180931B0180E090E0A0E257
:10285000B1E48093170190931801A0931901B093EC
:102860001A011092FE011092FD011092F9011092CE
:10287000FA011092FB011092FC011092F0011092EB
:10288000F1011092F2011092F3011092F6011092F0
:10289000F5011092F8011092F70181E08093160182
:1028A000A9CE81E090E0B5CE20E030E044E252E4F1
:1028B000C701B6010E941B1D87FF44CF8090120103
:1028C00090901301A0901401B0901501A5019401FE
:1028D000C701B6010E942E1C87FF03C081E08093D0
:1028E000110120910D0130910E0140910F01509185
:1028F0001001C701B6010E942E1C87FF03C081E0B2
:1029000080930C01A5019401C701B6010E941B1D13
:1029100087FD59C020E030E040E051E4C501B4013A
:102920000E94C21B9B01AC01C701B6010E942E1C74
:1029300087FF49C080910A0190910B0109811A819A
:10294000801791070CF03FC0079680179107DCF1C4
:102950006091EE017091EF01072E000C880B990B2E
:102960000E946B1C2DEC3CEC4CE45DE30E94201DAE
:1029700020E030E040E050E40E94C11B6093F90188
:102980007093FA018093FB019093FC010E94941ACA
:10299000B1010E948D1D01969093EF018093EE018D
:1029A0001092F6011092F50180911101882359F0DF
:1029B0008091F7019091F80101969093F80180932E
:1029C000F7011092110120E030E040E051E4609105
:1029D0001701709118018091190190911A010E94BC
:1029E000C21B6B017C010091120110911301209117
:1029F00014012B8330911501398398014B81598142
:102A00000E941B1D87FD66C020E030E040E051E4DD
:102A1000B8018B8199810E94C21B9B01AC01C70147
:102A2000B6010E942E1C87FFF8C420911B01309133
:102A30001C0180910A0190910B01AC01495F5F4F2D
:102A4000421753070CF0E9C40C96821793070CF455
:102A5000E4C46091EE017091EF01072E000C880B29
:102A6000990B0E946B1C2DEC3CEC4CE45DE30E9446
:102A7000201D20E030E040E050E40E94C11B609344
:102A8000F9017093FA018093FB019093FC0182E0BD
:102A900090E09093FE018093FD010E94941AB10191
:102AA0000E948D1D01969093EF018093EE0110928C
:102AB000F6011092F50180911101882359F080915F
:102AC000F7019091F80101969093F8018093F70136
:102AD0001092110120E030E040E051E460911701D4
:102AE000709118018091190190911A010E94C21BE6
:102AF0006B017C010091120110911301909114015E
:102B00009B83A0911501A9839801492F5A2FC701D2
:102B1000B6010E941B1D87FD64C020E030E040E04C
:102B200051E4B8018B8199810E94C21BA7019601D3
:102B30000E941B1D18160CF054C080911B0190912F
:102B40001C0120910A0130910B01AC014D5F5F4FD8
:102B5000421753070CF445C0281739070CF441C03D
:102B60006091EE017091EF01072E000C880B990B1C
:102B70000E946B1C2DEC3CEC4CE45DE30E94201D9C
:102B800020E030E040E050E40E94C11B6093F90176
:102B90007093FA018093FB019093FC010EEF1FEFFD
:102BA0001093FE010093FD010E94941AB1010E944E
:102BB0008D1D01969093EF018093EE011092F60126
:102BC0001092F50180911101882359F08091F7014D
:102BD0009091F80101969093F8018093F70110927B
:102BE000110120E030E040E051E460911701709164
:102BF00018018091190190911A010E94C21B6B016A
:102C00007C0100910D0110910E0120910F012B8389
:102C100030911001398398014B8159810E941B1D0D
:102C200087FD5DC020E030E040E051E4B8018B81D9
:102C300099810E94C21B9B01AC01C701B6010E9491
:102C40002E1C87FFFBC38091080190910901209100
:102C50001B0130911C01821793070CF0EFC30796FC
:102C6000821793070CF4EAC36091EE017091EF01B3
:102C7000072E000C880B990B0E946B1C2DEC3CEC72
:102C80004CE45DE30E94201D20E030E040E050E491
:102C90000E94C11B6093F9017093FA018093FB01BC
:102CA0009093FC010E94941AB1010E948D1D01961F
:102CB0009093EF018093EE011092F8011092F701CA
:102CC00080910C01882359F08091F5019091F601D3
:102CD00001969093F6018093F50110920C0120E08B
:102CE00030E040E051E4609117017091180180914B
:102CF000190190911A010E94C21B6B017C01009185
:102D00000D0110910E0180910F018B8390911001A4
:102D100099839801AC01C701B6010E941B1D87FD74
:102D200065C020E030E040E051E4B8018B8199813A
:102D30000E94C21BA70196010E941B1D18160CF0D1
:102D40008EC3809108019091090120911B0130915F
:102D50001C01AC01495F5F4F421753070CF07FC362
:102D60000C96821793070CF47AC36091EE01709170
:102D7000EF01072E000C880B990B0E946B1C2DECA9
:102D80003CEC4CE45DE30E94201D20E030E040E09C
:102D900050E40E94C11B6093F9017093FA01809383
:102DA000FB019093FC01A2E0B0E0B093FE01A09380
:102DB000FD010E94941AB1010E948D1D019690930D
:102DC000EF018093EE011092F8011092F7018091CB
:102DD0000C01882359F08091F5019091F60101963C
:102DE0009093F6018093F50110920C0120E030E001
:102DF00040E051E460911701709118018091190130
:102E000090911A010E94C21B4B015C01C0900D0100
:102E1000D0900E01E0900F01F0901001A7019601F3
:102E20000E941B1D87FD63C020E030E040E051E4BC
:102E3000C701B6010E94C21BA50194010E941B1D7F
:102E400018160CF054C020911B0130911C01809188
:102E5000080190910901A9014D5F5F4F481759077B
:102E60000CF445C0821793070CF441C06091EE0149
:102E70007091EF01072E000C880B990B0E946B1CC0
:102E80002DEC3CEC4CE45DE30E94201D20E030E0A2
:102E900040E050E40E94C11B6093F9017093FA0175
:102EA0008093FB019093FC010EEF1FEF1093FE0146
:102EB0000093FD010E94941AB1010E948D1D01969C
:102EC0009093EF018093EE011092F8011092F701B8
:102ED00080910C01882359F08091F5019091F601C1
:102EE00001969093F6018093F50110920C012091C8
:102EF0001B0130911C013C832B8380901701909023
:102F00001801A0901901B0901A01233331050CF477
:102F100066C0009108011091090120E030E040E80E
:102F200050E4C501B4010E94C21B6B017C018B817E
:102F30009C818C3591050CF0E1C120E030E040E748
:102F400051E4C701B6010E942E1C87FF0DC00F3649
:102F5000110554F48091FD019091FE010E5F1F4F09
:102F6000181619060CF4E0C120E030E040EA51E404
:102F7000C701B6010E941B1D87FD31C08091080169
:102F8000909109014091EE015091EF012B813C811C
:102F900022503109240F351F8217930744F08034E3
:102FA00091052CF00297909309018093080180917C
:102FB000080190910901BC01615F7F4F2B813C8129
:102FC000275F3F4F241B350B6217730744F48F367E
:102FD00091052CF4029690930901809308010091C9
:102FE0000801109109011A830983C80107972B81F1
:102FF0003C812817390731F58091ED01811122C0FC
:103000008091FD019091FE0118161906DCF481E013
:103010008093ED0180E090E0A0E0B0E48093E901CE
:103020009093EA01A093EB01B093EC010DEC1CEC42
:103030002CEC3DE30093040110930501209306015D
:10304000309307010E94AA0882FF1FC08091E80107
:1030500081111BC081E08093E80180E090E0A0E056
:10306000B0E48093E4019093E501A093E601B0936E
:10307000E7010DEC1CEC2CEC3DE3009300011093F8
:10308000010120930201309303010E94AA0885FFE9
:103090000CC080910A0190910B01181619062CF4AE
:1030A000019790930B0180930A010E94AA0886FF62
:1030B0000CC080910A0190910B018C3291052CF487
:1030C000019690930B0180930A018091E801882377
:1030D000E1F1C0901201D0901301E0901401F09042
:1030E00015014090E4015090E5016090E601709078
:1030F000E70120E030E0A901C301B2010E941B1DDD
:1031000018160CF016C12091000130910101409178
:10311000020150910301C301B2010E94C11B9B0136
:10312000AC012093E4013093E5014093E601509314
:10313000E701C701B6010E94C11B609312017093A1
:10314000130180931401909315018091ED01882360
:10315000E1F1C0900D01D0900E01E0900F01F090D0
:1031600010014090E9015090EA016090EB017090ED
:10317000EC0120E030E0A901C301B2010E941B1D57
:1031800018160CF010C120910401309105014091F6
:10319000060150910701C301B2010E94C11B9B01AE
:1031A000AC012093E9013093EA014093EB01509385
:1031B000EC01C701B6010E94C11B60930D01709321
:1031C0000E0180930F0190931001E0900102F090A6
:1031D000020280911E0190911F01E816F90629F460
:1031E00021E020930402109205022091FF0130910A
:1031F00000028217930729F481E080930302109262
:1032000005028091D80481608093D8048091D9040C
:1032100081608093D9048091D80580688093D80517
:103220008091D90580688093D90508E210E041E0DB
:10323000B8018CE390E00E94B8080F5F1F4F003484
:103240001105A9F708E210E041E0B8018DE390E034
:103250000E94B8080F5F1F4F00341105A9F7609155
:1032600012017091130180911401909115010E9437
:10327000331C00E120E140EB57E080910A0190917E
:103280000B010E946C0460910D0170910E01809100
:103290000F01909110010E94331C20E140E957E09A
:1032A00089819A810E946C04C501B4010E94331C7B
:1032B00008E028E040ED57E08B819C810E946C047F
:1032C0002EE130E030937E0620937D06109280063A
:1032D00010927F06C7010E94330A8AE590E090931E
:1032E0007E0680937D061092800610927F06809164
:1032F000FF01909100020E94330AB5C8AB81BC81E6
:10330000AC35B10509F430CE20E030E040E751E4BF
:10331000C701B6010E942E1C87FF26CE003411057E
:103320000CF422CE025011091093090100930801F8
:103330001BCE20E030E040E452E4C701B6010E9419
:103340002E1C87FF2DC0409000015090010160901D
:1033500002017090030120E030E040EC5FE3C30124
:10336000B2010E942E1C87FF0EC0A3019201C3016F
:10337000B2010E94C21B609300017093010180930F
:10338000020190930301A7019601609100017091E1
:10339000010180910201909103010E94C21BCDCED8
:1033A0001092E801D2CE20E030E040E452E4C701C0
:1033B000B6010E942E1C87FF2DC040900401509042
:1033C0000501609006017090070120E030E040ECBC
:1033D0005FE3C301B2010E942E1C87FF0EC0A30150
:1033E0009201C301B2010E94C21B60930401709359
:1033F00005018093060190930701A7019601609152
:1034000004017091050180910601909107010E94CD
:10341000C21BD3CE1092ED01D8CE20E030E040E0C8
:1034200051E46091170170911801809119019091F8
:103430001A010E94C21B6B017C016FCB20E030E0BF
:1034400040E051E4609117017091180180911901D9
:1034500090911A010E94C21B6B017C0162CC20E09A
:1034600030E040E051E460911701709118018091C3
:10347000190190911A010E94C21B4B015C01C0907E
:103480000D01D0900E01E0900F01F0901001CCCC16
:103490008F929F92AF92BF92CF92DF92EF92FF9264
:1034A000CF93DF93EC01688179818A819B816115DB
:1034B00071058105910521F464E279ED8BE597E0D2
:1034C0002DE133EF41E050E00E945E1B49015A01BB
:1034D0009B01AC01A7EAB1E40E947D1B6B017C015A
:1034E000ACEEB4EFA50194010E948B1BDC01CB0173
:1034F0008C0D9D1DAE1DBF1DB7FF03C00197A10917
:10350000B04888839983AA83BB839F77DF91CF914B
:10351000FF90EF90DF90CF90BF90AF909F908F90F3
:1035200008950E94481A08958EE291E00E94481A78
:103530000895B0E0A0E080932E0190932F01A09316
:103540003001B093310108958F929F92AF92BF9254
:10355000CF92DF92EF92FF92CF93DF93EC016881DD
:1035600079818A819B81611571058105910521F41D
:1035700064E279ED8BE597E02DE133EF41E050E037
:103580000E945E1B49015A019B01AC01A7EAB1E40C
:103590000E947D1B6B017C01ACEEB4EFA501940190
:1035A0000E948B1BC60ED71EE81EF91EF7FE06C032
:1035B00081E0C81AD108E10880E8F80AC882D982F7
:1035C000EA82FB82C701B6019F77DF91CF91FF901E
:1035D000EF90DF90CF90BF90AF909F908F90089525
:1035E0008F929F92AF92BF92CF92DF92EF92FF9213
:1035F00060913201709133018091340190913501D5
:10360000611571058105910521F464E279ED8BE581
:1036100097E02DE133EF41E050E00E945E1B49014D
:103620005A019B01AC01A7EAB1E40E947D1B6B012A
:103630007C01ACEEB4EFA50194010E948B1BC60E79
:10364000D71EE81EF91EF7FE06C081E0C81AD10891
:10365000E10880E8F80AC0923201D0923301E0928A
:103660003401F0923501C701B6019F77FF90EF90CA
:10367000DF90CF90BF90AF909F908F900895609310
:103680003201709333018093340190933501089592
:10369000F999FECF92BD81BDF89A992780B508951A
:1036A000262FF999FECF1FBA92BD81BD20BD0FB65E
:1036B000F894FA9AF99A0FBE01960895052E97FB91
:1036C0001EF400940E94751B57FD07D00E94901BAA
:1036D00007FC03D04EF40C94751B50954095309523
:1036E00021953F4F4F4F5F4F08959095809570956E
:1036F00061957F4F8F4F9F4F08950E94B21BA59FEA
:10370000900DB49F900DA49F800D911D11240895DC
:10371000B7FF0C947D1B0E947D1B821B930B0895A9
:10372000A1E21A2EAA1BBB1BFD010DC0AA1FBB1FC5
:10373000EE1FFF1FA217B307E407F50720F0A21B37
:10374000B30BE40BF50B661F771F881F991F1A94A4
:1037500069F760957095809590959B01AC01BD01CE
:10376000CF010895A29FB001B39FC001A39F700D28
:10377000811D1124911DB29F700D811D1124911D79
:1037800008955058BB27AA270E94D91B0C94E11C0E
:103790000E94D31C38F00E94DA1C20F039F49F3FBD
:1037A00019F426F40C94D01C0EF4E095E7FB0C946D
:1037B000CA1CE92F0E94F21C58F3BA17620773075C
:1037C0008407950720F079F4A6F50C94141D0EF4E7
:1037D000E0950B2EBA2FA02D0B01B90190010C0121
:1037E000CA01A0011124FF27591B99F0593F50F439
:1037F000503E68F11A16F040A22F232F342F442791
:10380000585FF3CF469537952795A795F040539588
:10381000C9F77EF41F16BA0B620B730B840BBAF058
:103820009150A1F0FF0FBB1F661F771F881FC2F7C3
:103830000EC0BA0F621F731F841F48F487957795D7
:103840006795B795F7959E3F08F0B0CF9395880F91
:1038500008F09927EE0F9795879508950E94A61C6A
:1038600008F481E008950E943A1C6894B1110C9408
:10387000151D08950E94FA1C88F09F5798F0B92FE3
:103880009927B751B0F0E1F0660F771F881F991F95
:103890001AF0BA95C9F714C0B13091F00E94141D06
:1038A000B1E008950C94141D672F782F8827B85F16
:1038B00039F0B93FCCF3869577956795B395D9F7ED
:1038C0003EF490958095709561957F4F8F4F9F4FF7
:1038D0000895E89409C097FB3EF490958095709503
:1038E00061957F4F8F4F9F4F9923A9F0F92F96E94C
:1038F000BB279395F695879577956795B795F111C1
:10390000F8CFFAF4BB0F11F460FF1BC06F5F7F4F5D
:103910008F4F9F4F16C0882311F096E911C077236F
:1039200021F09EE8872F762F05C0662371F096E878
:10393000862F70E060E02AF09A95660F771F881F47
:10394000DAF7880F9695879597F90895990F0008EB
:10395000550FAA0BE0E8FEEF16161706E807F90761
:10396000C0F012161306E407F50798F0621B730BFC
:10397000840B950B39F40A2661F0232B242B252B7D
:1039800021F408950A2609F4A140A6958FEF811D20
:10399000811D089597F99F6780E870E060E00895C1
:1039A0009FEF80EC089500240A9416161706180657
:1039B0000906089500240A94121613061406050633
:1039C0000895092E0394000C11F4882352F0BB0FC4
:1039D00040F4BF2B11F460FF04C06F5F7F4F8F4F27
:1039E0009F4F089557FD9058440F551F59F05F3F62
:1039F00071F04795880F97FB991F61F09F3F79F011
:103A000087950895121613061406551FF2CF469592
:103A1000F1DF08C0161617061806991FF1CF869514
:103A20007105610508940895E894BB2766277727F8
:103A3000CB0197F908950E94A61C08F48FEF089512
:103A40000E94331D0C94E11C0E94D31C38F00E948C
:103A5000DA1C20F0952311F00C94CA1C0C94D01C95
:103A600011240C94151D0E94F21C70F3959FC1F354
:103A7000950F50E0551F629FF001729FBB27F00D1C
:103A8000B11D639FAA27F00DB11DAA1F649F662771
:103A9000B00DA11D661F829F2227B00DA11D621FC0
:103AA000739FB00DA11D621F839FA00D611D221F7A
:103AB000749F3327A00D611D231F849F600D211D5E
:103AC000822F762F6A2F11249F5750409AF0F1F0E1
:103AD00088234AF0EE0FFF1FBB1F661F771F881F4A
:103AE00091505040A9F79E3F510580F00C94CA1C9C
:103AF0000C94151D5F3FE4F3983ED4F386957795BB
:103B00006795B795F795E7959F5FC1F7FE2B880FEF
:103B1000911D9695879597F9089597FB072E16F4B2
:103B2000009407D077FD09D00E94A11D07FC05D0A5
:103B30003EF4909581959F4F0895709561957F4FC4
:103B40000895AA1BBB1B51E107C0AA1FBB1FA617E4
:103B5000B70710F0A61BB70B881F991F5A95A9F736
:103B600080959095BC01CD010895EE0FFF1F059043
:103B7000F491E02D099481E090E0F8940C94C01D3C
:043B8000F894FFCFE7
:103B8400CDCCCC3DCDCCCC3D60000A000100004042
:103B940042010000404201000020413800010A00B7
:103BA4000100FFFFFFFF00E1000000000000010032
:103BB400000001000000030100C18081000000003A
:103BC4000000006705FF0688057D05CE058C05AA63
:103BD4000500000000D0087A06D509D409DF0EFCE0
:103BE400FF0000210F504C4159455220574F4E00C1
:103BF400434F4D50555445522057494E004152436E
:103C040041444520564F4C455942414C4C00537455
:103C14006172742047616D6500506F696E74732022
:103C2400746F2077696E3A20003320746F7563686F
:0E3C340065733A200050524553532041000062
:00000001FF
