:100000000C94E00E0C94080F0C94080F0C94080F3D
:100010000C94080F0C94080F0C94080F0C94080F04
:100020000C94080F0C94080F0C9453180C94C218DD
:100030000C94080F0C94080F0C94080F0C94080FE4
:100040000C94080F0C94080F0C94080F0C94080FD4
:100050000C94080F0C94080F0C94080F0C94F41ACD
:100060000C94080F0C94080F0C94080F0C94080FB4
:100070000C94080F0C94080F0C94080F0C94080FA4
:100080000C94080F0C94080F0C94080F0C94080F94
:100090000C94080F0C94080F0C94080F0C94080F84
:1000A0000C94080F0C94080F0C94080F0103020421
:1000B0000503030303030303030303030303020210
:1000C00002020204040404040404040404040404F6
:1000D00005020401030503030202020202040405EF
:1000E0000000000000000000000000000000000010
:1000F00000000000000002020202020101010101F1
:1001000005020404050000000000000000000000DB
:1001100000000000000000000000000303030303D0
:1001200004040404040502040405000000000000A7
:1001300000000000000000000000000000000000BF
:100140000404040404030303030305020404050078
:10015000000000000000000000000000000000009F
:10016000000000000001010101010402020202027C
:10017000030504050000000000000000000000006E
:10018000000000000000000000000101040303045F
:100190000202050202030504050000000000000041
:1001A000000000000000000000000000000000034C
:1001B0000303030304040404040504050405000008
:1001C000000000000000000000000000000000002F
:1001D0000000000001010101010303030303030305
:1001E00003030302020202020404040404040404DC
:1001F00004040500000000000004040404010101DF
:1002000001010303030303030303030302020202C6
:1002100002040404040404050000000000000404B7
:1002200004040404040401010101010303030303A2
:100230000303030303020202020204040500000098
:100240000000000202040404040404040404040181
:100250000101010103030303030303030303020278
:100260000205000000000000040404040401010170
:10027000040404040403030303030202020303034C
:10028000030305020202050000000000000303034F
:100290000202020404040101010503030303030233
:1002A000020203030303030502020205000000002B
:1002B0000000040404010101030303020202050318
:1002C0000303030302020203030303030502020202
:1002D00005000000000000030304040501030303FC
:1002E00002020205030303030302020203030303E2
:1002F00003050202020500000000000003030303DF
:1003000004040404050202020503030303030202BA
:1003100002030303030305020202050000000000BC
:10032000000101030303030404040402020502059F
:100330000303030303020202030303030305020290
:100340000205000000000101040404040303030388
:10035000020205020503030303030202020303036F
:100360000303050202020500000000040404040166
:10037000030402030303030502050303030303024B
:10038000020203030303030502020205000000004A
:100390000303030301040302040404040502050328
:1003A0000303030302020203030303030502020221
:1003B000050000000002020202020303030303011E
:1003C00001010101040404040405030303030305FC
:1003D0000202020500000000000001010101010409
:1003E00004040404020202020203030303030503DC
:1003F00003030303050202020500000000000001E0
:1004000001010101020202020205020202020303CB
:1004100003030305030303030305020202050000AF
:1004200000000000030303030303030303040404A5
:100430000404040404040503050303030303050281
:10044000020205000000000000030303040303038D
:100450000403030304030303030404040404040463
:10046000040404050202020500000000000058A672
:10047000BDC38181423C1A65BDC38181423C3C427F
:100480008181C3BD651A3C428181C3BDA6583C52DF
:1004900061A1A161927C7C9261A1A161523C3E4923
:1004A000868585864A3C3C4A86858586493E00008D
:1004B0000000003E5B4F5B3E3E6B4F6B3E1C3E7C44
:1004C0003E1C183C7E3C181C577D571C1C5E7F5EF2
:1004D0001C00183C1800FFE7C3E7FF0018241800B1
:1004E000FFE7DBE7FF30483A060E26297929264048
:1004F0007F050507407F05253F5A3CE73C5A7F3E74
:100500001C1C08081C1C3E7F14227F22145F5F0005
:100510005F5F06097F017F006689956A60606060A1
:100520006094A2FFA29408047E040810207E20108C
:1005300008082A1C08081C2A08081E101010100C95
:100540001E0C1E0C30383E3830060E3E0E060000E3
:1005500000000000005F00000007000700147F1487
:100560007F14242A7F2A12231308646236495620F6
:10057000500008070300001C2241000041221C001B
:100580002A1C7F1C2A08083E0808008070300008DA
:1005900008080808000060600020100804023E51AE
:1005A00049453E00427F4000724949494621414940
:1005B0004D331814127F1027454545393C4A4949A7
:1005C0003141211109073649494936464949291E11
:1005D0000000140000004034000000081422411400
:1005E00014141414004122140802015909063E4152
:1005F0005D594E7C1211127C7F494949363E41417A
:1006000041227F4141413E7F494949417F090909D2
:10061000013E414151737F0808087F00417F41003E
:100620002040413F017F081422417F404040407FED
:10063000021C027F7F0408107F3E4141413E7F093A
:100640000909063E4151215E7F091929462649497B
:10065000493203017F01033F4040403F1F204020BB
:100660001F3F4038403F63140814630304780403B9
:100670006159494D43007F41414102040810200067
:100680004141417F040201020440404040400003D8
:1006900007080020545478407F28444438384444A4
:1006A0004428384444287F385454541800087E099C
:1006B0000218A4A49C787F0804047800447D4000BC
:1006C0002040403D007F1028440000417F40007CD6
:1006D000047804787C080404783844444438FC18CE
:1006E00024241818242418FC7C08040408485454B2
:1006F000542404043F44243C4040207C1C204020DF
:100700001C3C4030403C44281028444C9090907C45
:100710004464544C44000836410000007700000057
:100720004136080002010204023C2623263C1EA199
:10073000A161123A4040207A3854545559215555F8
:1007400079412154547841215554784020545579A9
:10075000400C1E527212395555555939545454593A
:1007600039555454580000457C410002457D4200F3
:1007700001457C40F0292429F0F0282528F07C54FC
:100780005545002054547C547C0A097F493249491C
:1007900049323248484832324A4848303A41412189
:1007A0007A3A42402078009DA0A07D3944444439E3
:1007B0003D4040403D3C24FF2424487E4943662B75
:1007C0002FFC2F2BFF0929F620C0887E0903205417
:1007D0005479410000447D413048484A3238404015
:1007E000227A007A0A0A727D0D19317D2629292F75
:1007F00028262929292630484D402038080808088D
:1008000008080808382F10C8ACBA2F102834FA008E
:10081000007B000008142A142222142A14089500D0
:10082000220095AA005500AAAA55AA55AA000000C0
:10083000FF00101010FF00141414FF001010FF0030
:10084000FF1010F010F0141414FC001414F700FF43
:100850000000FF00FF1414F404FC141417101F1000
:10086000101F101F1414141F00101010F0000000AF
:10087000001F101010101F10101010F010000000BA
:10088000FF101010101010101010FF10000000FFCB
:10089000140000FF00FF00001F10170000FC04F40C
:1008A00014141710171414F404F40000FF00F714C4
:1008B000141414141414F700F7141414171410104B
:1008C0001F101F141414F4141010F010F000001F67
:1008D000101F0000001F14000000FC140000F010A6
:1008E000F01010FF10FF141414FF141010101F004C
:1008F000000000F010FFFFFFFFFFF0F0F0F0F0FF4E
:10090000FFFF0000000000FFFF0F0F0F0F0F384424
:100910004438447C2A2A3E147E02020606027E02E5
:100920007E0263554941633844443C04407E201EA6
:100930002006027E020299A5E7A5991C2A492A1CD5
:100940004C7201724C304A4D4D303048784830BCC2
:10095000625A463D3E494949007E0101017E2A2AEC
:100960002A2A2A44445F444440514A444040444A6D
:1009700051400000FF0103E080FF000008086B6B9E
:10098000083612362436060F090F06000018180024
:1009900000001010003040FF0101001F01011E0087
:1009A000191D1712003C3C3C3C00000000000000F8
:1009B000000000000000000018BCFEC6C2C2C6FE57
:1009C0003C00FCFEC6C2C2C6FE3C0000D8C80020E7
:1009D00070F8F8202000F8FCFEF67E3E3C3800F867
:1009E000FCFEC6C2C2C6FEFC00FEFEFE0606060CEB
:1009F000FCF000FCFEC6C2C20200000000000000C5
:100A000000000000000000000000000000000000E6
:100A10000E1F1F101010191F0E001F1F181010108E
:100A20001D1F06001F1F0000001F1F1808000F1FBA
:100A30001F1F1E1E1E0C000F1F1F000000001F1F87
:100A4000001F1F1F1818181C0F03001F1F10101065
:100A500010000000000000000000000000008D14E5
:100A6000A1C881CFD9F102AF000000000000000052
:100A70000000000000000000000000000000000076
:100A80000000000000000000000000000000000066
:100A90000000000000000000000000000000000056
:100AA000F00000000000000000000000000000F165
:100AB000FC0000000000000000000000000001F049
:100AC000FE0000000000000000000000000001F82F
:100AD000EF0000000000000000000000000003F82C
:100AE000E300000000000000000000000000039888
:100AF000E380000000000000000000000000071874
:100B0000E1C0000000000000000000000000071C21
:100B100061C0000000000000000000000000060CA2
:100B200060E0000000000000000000000000060C73
:100B300060E0000000000000000000000000060E61
:100B400060E0000000000000000000000000040E53
:100B500070E0000000000000000000000000060E31
:100B600070E3800000000000000000000000060E9E
:100B700070E7C00000000000000000000000060E4A
:100B80003FE7E00000000000000000000000071E3A
:100B90003FE7E0000000000000000000000007FC4C
:100BA0001FE6300000000000000000000000E3FC31
:100BB0000FC4300000000000000000000001E3F856
:100BC0000004100000000000000000000001F0E040
:100BD000000C100000000000000000000001B80040
:100BE000000C180000000000000000000001980048
:100BF000000C1800000000000000000000018C0044
:100C0000000E1800000000000000000000030C00AF
:100C1000000F380000000000000000000001860006
:100C20000007F00000000000000000000001870045
:100C3000FC03F0000000000000000000000187013C
:100C4000FF00C00000000000000000000001CF070E
:100C5000FF80000000000000000000000001FE070F
:100C600003C0000000000000000000000000FE0EB5
:100C700001E0000000000000000000000000FC0C8B
:100C800020F0000000000000000000000000301C08
:100C9000303C0000000000000000000000000018D0
:100CA000301E0000000000000000000000000030C6
:100CB00038278000000000000000000000000070E5
:100CC00039E3C000000000000000000000000060E8
:100CD0007FC1C0000000000000000000000001CF44
:100CE000FF81E0000000000000000000000001C7DC
:100CF000FF00E00000000000000000000000038191
:100D0000FF00F00000000000000000000000038071
:100D10007F00F0000000000000000000000007005D
:100D20007F80F0000000000000000000000007804D
:100D30007380F00000000000000000000000078049
:100D400060C1E0000000000000000000000003801F
:100D5000400FE0000000000000000000000003C0A1
:100D6000407FC0000000000000000000000003E021
:100D700000FC00000000000000000000000001FF77
:100D8000C1E000000000000000000000000000FFC3
:100D9000FFC0000000000000000000000000001084
:100DA0007F80000000000000000000000000000044
:100DB0001E00000000000000000000000000000015
:100DC0000000000000000000000000000000000023
:100DD0000000000000000000000000000000000013
:100DE0000000000000000000000000000000000003
:100DF00000000000000000000000000000000000F3
:100E000000000000000000000000000000000000E2
:100E100000000000000000000000000000000000D2
:100E200000000000000000000000000000000000C2
:100E300000000000000000000000000000000000B2
:100E400000000000000000000000000000000000A2
:100E50000000000000000000000000000000000092
:100E60000000000000000000FFFF7E7E3C3C1818E0
:100E70000000000000000000000001000000000071
:100E80000000000000000000000001000000000061
:100E9000000000000000000000000380000001F8D6
:100EA00003FFF1FF1FF0070FFC000380000007F8AD
:100EB00004000A00A00808900200038000000C3023
:100EC0000BFFF5FF5FF4176FFD0007C0000019600E
:100ED0000BFFE5FF5FF4176FFD003FF8000030C027
:100EE00004038D8358342DB0C200FFFE00006180E2
:100EF00003C6358358342DAEDC003FF800006B800C
:100F0000009C4583583458D2D00007C00000C3006D
:100F10000331F58358345FD2D00003800000C30052
:100F200004600D835834BFEAD00003800000C30082
:100F30000BFFF5FF5FF4B06AD00003800000D30020
:100F40000BFFF5FF5FF56FB6D00001000000C30096
:100F500004000A00A0089049200001000000C3001E
:100F600003FFF1FF1FF06030C0000000002065802B
:100F700002011FE3E070C7F8FF1863FF00206180E3
:100F80000502A0141889280500A49400807032C0BE
:100F90000A855FEBE576D7FAFF5B6BFF4070186060
:100FA0000B4B5FEBFB76D7FAFF5B6BFF40700E30AD
:100FB0000BB7631B1B7AD8C6C0DB6C3080F807F810
:100FC0000BCF5B6B0D7CD6DADF586BB707FF01F8F0
:100FD0000B7B4B4B0D6CD2D2C0DFE8B41FFFC000BF
:100FE0000B334B4B0D6ED2D2DF5FE8B407FF00002E
:100FF0000B4B5B6B0D67D6DADF5868B400F8000066
:101000000B7B631B1B6BD8C6C35B68B4007000000E
:101010000B4B5FEBFB6BD7FAFF5B68B40070000013
:101020000B4B5FEBE56DD7FAFF5B68B40070000017
:101030000484A0141892280500A490480020000001
:1010400003031FE3E061C7F8FF18703000200000C1
:101050000000000000000000000000000000000090
:101060000000000000000000000000000000000080
:1010700046656564205468656D20416C6C2100599B
:101080006F752043616E277420476F210020202058
:1010900020202E2E2E636F6F6C2E2E2E00202020EF
:1010A000204120536E617A7A7920486174002020B3
:1010B000202020596F7520466F756E640020202017
:1010C000204048756E6473747261737365002020EC
:1010D00020202020205477656574002020202020C7
:1010E00048617264204D6F646500202020596F753F
:1010F0002776652042656174656E002020436F6E1F
:1011000067726174756C6174696F6E732100202061
:1011100020547279204861726420536B696C6C2191
:10112000002020205363726177662043616E205255
:101130006573740020546865205A6F6F20697320AE
:10114000506561636566756C001824428181422494
:101150001800665A24245A66001824669999662451
:10116000186ED185528195D26CFF8989FFFF9191CC
:10117000FF241827FC27FDA4182418E43FE4BF250A
:10118000181825BFE43FE4182418A4FD27FC2718ED
:10119000242C28BE5555BE14161614BE5555BE280F
:1011A0002C68287DAAAA7D143434147DAAAA7D282F
:1011B0006830489484443E0503050417101C204001
:1011C00080C0C0FFDFDFFFC0C0086E9981424224AB
:1011D0003C00F00108013803C06C36924988118840
:1011E0001180018001700E2C3443C2400240024045
:1011F0000240026006A005A0056006181807E0007E
:101200008007E00DB00FF008700E10087008101481
:1012100028100810082814566A542A20043E042076
:101220007C20043E04207C300C5F0A4C3233CC011D
:1012300080F02040F00F02040FFF03060C1830600E
:10124000FF03C005A0642698199668700E5FF980A8
:10125000018002420255142AA83056200A200A2092
:101260004210421042103A100E081007E0008E00A3
:10127000F8FFFFFFFF800000019FEFF7F9DFEFF7B6
:10128000FBC0CC361BC18C361BC18C361BC30C3645
:101290001BC60C3633660C36366C0C36366FCFF701
:1012A000F66FCFF7F6600000067FFFFFFE780000C4
:1012B0001EFF0000FFDB0000DBBD0000BD99000049
:1012C0009999000099A50000A5C30000C3FF000084
:1012D000FFFFFFFFFFFFFFFFFFFFFFFFFFFFFFFF1E
:1012E000FFFFFFFFFFFFFFFFFFFFFFFFFFFFFFFF0E
:1012F000FFFFFFFFFFFFE3FFC7FFC00F000200007B
:1013000003FFE3FFC7FFC00F0002000003FFC3FF9E
:101310008FFF800E0006000003FFC3FF8FFF8FFECC
:101320003FC7FF1FFFFF83FF8FFF8FFE3FC7FF1FDA
:10133000FFFF81FF1FFF1FFC7FCFFF1FFFFF81FF0C
:101340001FFF1FFC7F8FFF1FFFFF11FE3FFF1FFCD2
:101350007F8FFE3FFFFF11FE3FFE3FF87F9FFE3F66
:10136000FFFE31FE3FFE3FF8FF1FFE3FFFFE31FC58
:101370007FFE3FF8FF1FFC7FFFFE31FC7FFC7FF00C
:10138000003FFC7FFFFC71FC7FFC0070003FFC7F96
:10139000FFFC00F8FFFC0070003FFC7FFFF800F846
:1013A000FFFC0060FFFFF8FFFFF800F8FFF8FFE028
:1013B0007FFFF8FFFFF8F8F1FFF8FFC47FFFF8FFA9
:1013C000FFF1F8F1FFF8FFC63FFFF8FFFFF1F8F17A
:1013D000FFF1FFC61FFFF1FFFFE3F8E3FFF1FF8F0F
:1013E0001FFFF1FFFFE3F8E3FFF1FF8F0FFFF1FFB6
:1013F000FFE3FC47FFE3FF8F8FFFE3FFFFC7FC47DF
:10140000FFE3FF1FC7FFE3FFFFC7FC4000E0071F2C
:10141000C7FFE3FFFF8FFC4000C0071FE3FFE3FFB0
:10142000FF8FFC4000C0063FE3FFC7FFFFFFFFFF49
:10143000FFFFFFFFFFFFFFFFFFFFFFFFFFFFFFFFBC
:10144000FFFFFFFFFFFFFFFFFFFFFFFFFFFFFFFFAC
:10145000FF080B0002020200000904000001020262
:1014600000000524001001052401010104240206E6
:10147000052406000107058103100040090401004E
:10148000020A00000007050202400000070583026F
:101490004000000403090412010002EF0201404170
:1014A00023368000010102030141726475696E6F89
:1014B000204C4C43004142413131303600010101A2
:1014C000010101010101010101010101010100000E
:1014D00000050500000000000000000203010000FC
:1014E00000050500000000000000000202010000ED
:1014F00000050500000000000000000000010000E1
:1015000000050500000000000000000000010000D0
:1015100000050500000000000000000202010000BC
:1015200000050500000000000000000204010101A8
:101530000101010202020202020202020201090486
:1015400000000A030100000000000000000101018A
:101550000101010101010101010101010104020078
:10156000000000020404020000000000000202006B
:101570000000000202020200000000000000000063
:10158000000000000000000000000000000000005B
:101590000000000000000000000000000002020047
:1015A0000000000200000200000000000203020030
:1015B000000000020000020000000000020202021F
:1015C00002020202000002020202020202010401FF
:1015D00002010B01020000000000000000010101F7
:1015E00001000009090909000001010101000000D2
:1015F00001000009090909000001000000000000C5
:1016000001010109090909010101000000000000B0
:1016100000000000000000000000000000000000CA
:1016200000000000000000000000000000020202B4
:10163000020202000000000202020202020204038F
:101640000403020000000002030403040202030476
:10165000030402000000000204030403020000006F
:101660000000000000000000000000000001010177
:10167000010101010101010101010101010000005D
:10168000020200000000000000020202010000004F
:101690000202000000000000000000020100000043
:1016A000020200000202020000000002010000002D
:1016B000020200000000020000020202010200001B
:1016C0000000000000000200000000000102000015
:1016D00000000000020202000000000001020202FD
:1016E00002020202020402020202020201010501D8
:1016F00002010A01020000000000000000010101D7
:1017000001010102020202020202020202010000C1
:1017100000050500000000000000000000010000BE
:1017200000050500000000000000000000010000AE
:101730000005050000020202000002020201000092
:101740000005050000020202000002020201000082
:10175000000505000000000000000000000100007E
:10176000000505000000000000000000000101016C
:101770000101010202020202020202020201080148
:1017800003010D0604000000000000000002020238
:101790000202020200000202020202020400000031
:1017A0000000000000000000000000020300000034
:1017B0000000000000000000000000020202000023
:1017C0000000020000000002000000000002000013
:1017D0000000000000000000000000000000000009
:1017E00000000000000000000000000202000000F5
:1017F00000000000000000000000000203020202DE
:1018000002020202020202020202020204010506B0
:1018100006010A06060000000000000000020202A5
:1018200002020200000000020202020202020000A4
:1018300000000000000000000000000000020000A6
:101840000000000000000000000000000000000098
:101850000002000000000000020000000000000084
:101860000002020202020202020000000002000066
:101870000000000000000000000000000002000066
:101880000000000000000000000000000002020252
:10189000020202000000000202020202020103062C
:1018A0000501050307010C0102000000000202040B
:1018B000020202020202020202020202010002030A
:1018C0000200000000000000000000000100000213
:1018D0000200000000000000000000000100000005
:1018E00000000002020000000202000001000000EF
:1018F00000000002020000000202000001000002DD
:1019000002000000000000000000000001000203CF
:1019100002000000000000000000000001020204BC
:101920000202020202020202020202020101040693
:101930000801080609010C060A010E040B01020247
:10194000020202020202020202020202020100007C
:101950000000000000000000000200000001000084
:101960000000000000000000000200000001000074
:10197000000200000002020000020000020100005C
:101980000002020000000202020200000201000048
:10199000000204020000000000000000020100003C
:1019A0000002030302000000000000000201020226
:1019B00002020404040202020202020202010C05F5
:1019C0000C00000000000000000000000002020205
:1019D00002020202020202020202020202000000ED
:1019E00000000000000000000000000000000000F7
:1019F00000000000000000000000000000020000E5
:101A000003040000000004030000020000020000C4
:101A100004030000000003040000020000020000B4
:101A200000000000000000000000020000020000B2
:101A3000000000000000000000000200000202029E
:101A40000202020202020202020202020201020277
:101A50000D010B050E000000000000000002020254
:101A60000202020000000002020202020200000064
:101A70000000000000000000000000000200000064
:101A80000000000000000200000000000200000250
:101A90000000000200000000000000000200000042
:101AA0000000000000000000000000000200000034
:101AB0000000000000000200000000000200000022
:101AC000000000000000000000000000020202020E
:101AD00002020200000000020202020202010303ED
:101AE0000F010A0210010A051000000000020202A4
:101AF00002020202020202020202020201020000CB
:101B000000000000000000000000000001020000D2
:101B100000000000000000000000000001020202BE
:101B200002000000000000000002020201020000AA
:101B300000000000000000000000000001020000A2
:101B40000000000000000000000000000102000092
:101B50000002020000000002020000000102020276
:101B6000020202000000000202020202010101065C
:101B700011010E061201050213010A0214010101EE
:101B8000010101020202020202020202020100003D
:101B9000000505000000000000000000000100003A
:101BA000000505000000000000000000000100002A
:101BB0000005050000030403000000000001000010
:101BC00000050500000403040000000000010000FF
:101BD00000050500000000000000000000010000FA
:101BE00000050500000000000000000000010101E8
:101BF00001010101010101010101010101010601D0
:101C000015010B0616000000000000000002020291
:101C100002020202020202020202020202000000AA
:101C200000000000000000000000000000000000B4
:101C300000000000000000000000000000000000A4
:101C40000000000000000000000000000000000094
:101C50000000000000000000000000000000000084
:101C60000000000000000000000000000000000074
:101C70000000000000000000000000000001010161
:101C80000101010101010101010101010101030142
:101C9000020106061701090102010C0617020202E1
:101CA0000202020000000002020202020200000022
:101CB0000000020000000002000000000000000020
:101CC000000002000000000200000000000000020E
:101CD0000000000000000000000002000000000200
:101CE00000000200000000020000020000000002EC
:101CF00000000000000000000000020000000002E0
:101D000000000000000000000000020000010101CE
:101D100001010101010101010101010101010303AF
:101D20001800000000000000000000000002020295
:101D3000040302000000000202020202010000028D
:101D40000304020000000002020304030100000279
:101D50000403040200000000020403040100000266
:101D60000304030402000000020304030100000254
:101D7000020202020202000002020202010000004E
:101D80000000000000000000000000000100000052
:101D9000000000000000000000000000010101013F
:101DA000010101010101010101010101010104061B
:101DB0001900000000000000000000000000B51B3A
:101DC00011241FBECFEFDAE0DEBFCDBF12E0A0E0EE
:101DD000B1E0E6EDFCE402C005900D92A631B1073A
:101DE000D9F727E0A6E1B2E001C01D92A83EB207F4
:101DF000E1F71EE0C0EEDEE004C02197FE010E9484
:101E00005E26CF3DD107C9F70E94221C0C9469269B
:101E10000C94000090E0E8EBF2E091119FEF8FEF5F
:101E200091939193919391938150D0F7E1EDF7E0E5
:101E3000128A118A108A17860895E8EBF2E030EBD7
:101E400020E146E05C983EBD4A95F1F72EBD20E8C2
:101E5000239507C0449140815C9A4EBD8111412D6C
:101E6000419344912A95B1F73395383B49F70DB426
:101E7000089580E00C941D0F4F925F926F927F92B5
:101E80008F929F92AF92BF92CF92DF92EF92FF928A
:101E90000F931F93CF93DF9330E0F901E80FF91F01
:101EA000F7FD77C0803891050CF073C0602E712C5F
:101EB000F301E60FF71FF7FD6CC0603471050CF0FD
:101EC00068C0E62FE7705E2EE3E075946794EA95AC
:101ED000E1F7F3E075956795FA95E1F7062E000CAA
:101EE000770BDB01B695BA2FAA27B795A795A80F50
:101EF000B91FA854BD4FEA01F12CE12C6701C60EB1
:101F0000D71E48E0C416D1040CF043C0EFEFCE1644
:101F1000DE06A4F18C0150E040E04D01E0E88E0EB9
:101F2000911C17FD21C0FA01EC0FFD1FA490B12CEC
:101F3000052C02C0AA0CBB1C0A94E2F7EFEFCE16E8
:101F4000DE06C1F1FD01E40FF51F40804A28408202
:101F5000552051F0E7E0CE16D10431F0F401E40F42
:101F6000F51FA080BA28B0824F5F5F4F0F5F1F4FF1
:101F7000421753071CF40038110599F64FEFE41A85
:101F8000F40AA058BF4FC20FD31F6E147F0409F08C
:101F9000B5CFDF91CF911F910F91FF90EF90DF9020
:101FA000CF90BF90AF909F908F907F906F905F90F9
:101FB0004F9008955110D2CFD7CFCF93DF9320E920
:101FC000829FC001112448E352E0BC0160587F4F5A
:101FD000DA0130E020E0EC01C354DB4EFE01E20FF9
:101FE000F31FE491EC932F5F3F4F1896203131059A
:101FF000A9F74F5F5F4F40968617970749F7DF9124
:10200000CF91089587FD14C0603490F4869586952D
:10201000869566956695669528E0829FC001112495
:10202000885C9D4FFC01E60FF11D81E090819111CC
:1020300080E008952091B8078217A0F030E0295F72
:102040003F4F8217130609F06CF48091B9076817A7
:1020500048F090E007966817190609F01CF481E033
:102060008093BC0708958FB7F89440913402509143
:10207000350260913602709137028FBF8091DD0783
:10208000942F981B8091DE07882331F09093DF070F
:102090001092DE0780E008952091DC07921740F44B
:1020A0009F5F9217A0F491E093BF889513BE0895A7
:1020B00081E08093DE074093DD078091D8079091FF
:1020C000D90701969093D9078093D80781E00895A6
:1020D000FC0180913302882311F13FB7F89482E02C
:1020E0008093E9002091F200822F90E018161906E3
:1020F00014F481E090E0882339F0289844E6409376
:1021000032024091F1004083222339F02091F20005
:10211000211103C02BE62093E8003FBF08958FEF05
:102120009FEF08952FB7F89483E08093E900909192
:10213000E800892F807295FF04C09091F20080E43E
:10214000891B2FBF089580912A0281110DC082E062
:102150008093260284E08093270210922902109235
:10216000280281E080932A0286E292E00895CF93CC
:10217000DF931F92CDB7DEB76983DC01ED91FC914F
:102180000280F381E02D41E050E0BE016F5F7F4FA0
:1021900009950F90DF91CF91089583E08093E90036
:1021A0008091F200882319F08AE38093E800089573
:1021B0000E94921090E00895CF93DF931F92CDB7C5
:1021C000DEB7FC018485958597FD08C02FEF3FEFB2
:1021D000358724870F90DF91CF910895CE01019626
:1021E0000E946810019719F4898190E0F3CF8FEF76
:1021F0009FEFF0CF0F931F93CF93DF931F92CDB735
:10220000DEB78C01FC018485958597FF0BC0CE015C
:1022100001960E946810019771F4898190E0F8019D
:1022200095878487F801848595850F90DF91CF91FC
:102230001F910F9108958FEF9FEFF1CFFC018485DF
:10224000958597FD0BC09FB7F89482E08093E900D5
:102250008091F2009FBF90E0019608959FB7F89497
:1022600082E08093E9008091F2009FBF90E00895A2
:10227000409120025091210220911E0230911F02B4
:1022800042175307B4F49091E8009570E1F39091F0
:10229000E80092FD19C08093F10080912002909196
:1022A000210201968F739927892B19F48EEF809361
:1022B000E8008091200290912102019690932102E2
:1022C0008093200281E0089580E00895DF92EF92EC
:1022D000FF920F931F93CF93DF93D82E8A01EB01C8
:1022E0007B01E40EF51ECE15DF0559F0D7FE12C0B6
:1022F000FE0184910E94381121968111F4CF0FEFD5
:102300001FEFC801DF91CF911F910F91FF90EF90C8
:10231000DF9008958881EECF0F931F93CF93DF93C3
:102320001F92CDB7DEB782E0898342E450E061E5D9
:1023300074E180E80E9466110E94A310DC011296ED
:102340000D911C910115110589F0D801ED91FC91B9
:102350000280F381E02DBE016F5F7F4FC8010995B8
:1023600097FD04C0F80100851185ECCF89810F909D
:10237000DF91CF911F910F910895615030F020911E
:10238000F100FC0120830196F8CF289884E6809321
:1023900032020895AF92BF92CF92DF92EF92FF92F6
:1023A0000F931F93CF93DF936C017B018B01040F7D
:1023B000151FEB015E01AE18BF08C017D10759F019
:1023C0006991D601ED91FC910190F081E02DC6015B
:1023D0000995892B79F7C501DF91CF911F910F9155
:1023E000FF90EF90DF90CF90BF90AF9008953FB7F0
:1023F000F8948091170290911802A0911902B0915F
:102400001A0226B5A89B05C02F3F19F00196A11D01
:10241000B11D3FBFBA2FA92F982F8827BC01CD012E
:10242000620F711D811D911D42E0660F771F881F8D
:10243000991F4A95D1F708958F929F92AF92BF92BC
:10244000CF92DF92EF92FF926B017C010E94F71115
:102450004B015C01C114D104E104F104B9F00E9404
:10246000F711681979098A099B09683E734081054B
:10247000910580F321E0C21AD108E108F10888EE45
:10248000880E83E0981EA11CB11CE4CFFF90EF9052
:10249000DF90CF90BF90AF909F908F9008958F92D4
:1024A0009F92AF92BF92CF92DF92EF92FF920F93E3
:1024B0001F93CF93DF936C017B018A0180910B0105
:1024C000882309F45CC080913302882309F457C043
:1024D0008091250280FF05C08091E000826080939A
:1024E000E000E801B12C8AEFA82E93E0892E2AE3C0
:1024F000922E209711F4BB20D9F10E9492108111E5
:102500000AC0AA94AA20D9F161E070E080E090E0CE
:102510000E941C12EECF8C171D0611F00CF08C2FB0
:102520009FB7F8948092E9002091E80025FD02C051
:102530009FBFDFCF282F30E0C21BD30BF7018150A4
:1025400020F041914093F100FACFE20EF31EBB2040
:1025500021F09092E800B12CEBCF8091E80085FD4E
:10256000E7CF9092E800BB24B394209709F3F3CF10
:102570005D9884E680932402101611063CF081E0F9
:1025800090E0F6019383828310E000E0C801DF91C0
:10259000CF911F910F91FF90EF90DF90CF90BF9060
:1025A000AF909F908F9008952D9A0895BC0190E070
:1025B00080E00C941C128FB18095807F669B8860B0
:1025C0001C9B8460089580389105B8F460347105CF
:1025D000A0F420E191E061FD94E060FD990F62FDBF
:1025E0009295687F269FD0011124A80FA854BD4F53
:1025F0008C9140FF03C0892B8C930895909589237B
:10260000FBCF2F923F924F925F926F927F928F9269
:102610009F92AF92BF92CF92DF92EF92FF920F9371
:102620001F93CF93DF93803891050CF04BC060343B
:1026300071050CF047C04A017B013C01C22FD0E07C
:102640001E0127E0220E311C93E0359427949A95C1
:10265000E1F76B01B12CA12C402E512C10E000E0D1
:10266000F80183E0F595E7958A95E1F7EA0DFB1D02
:10267000E80DF91DE491C8018770992720E830E042
:1026800002C0359527958A95E2F7C901F0E0E2236B
:10269000F923EF2B39F041E0B601C301800F911F00
:1026A0000E94E3120F5F1F4F0C171D07CCF2A20C04
:1026B000B31C3FEFC31AD30AC6018E199F098415B4
:1026C000950564F2DF91CF911F910F91FF90EF90EC
:1026D000DF90CF90BF90AF909F908F907F906F9042
:1026E0005F904F903F902F900895CF93DF93E8EC49
:1026F000F3E09FE5915059F4E8E4F5E09FE591504F
:1027000061F08191DF01119780628C93F8CF819104
:10271000DF01119781608C93EDCFC0E1D0E041E003
:10272000BE0180E190E00E94E3122196CE32D105F5
:10273000B1F7C0E1D0E041E0BE018DE690E00E943B
:10274000E3122196CE32D105B1F7DF91CF910895F2
:10275000AF92BF92CF92DF92EF92FF920F931F93AF
:10276000CF93DF935B01EC016C01C40ED11C8B0194
:10277000020F111DCC15DD05ACF47501C801013443
:10278000110514F080E490E0E816F9064CF440E0FE
:10279000B701CE010E94E3128FEFE81AF80AEECFDC
:1027A0002196E8CFDF91CF911F910F91FF90EF908D
:1027B000DF90CF90BF90AF9008952F923F924F92AD
:1027C0005F926F927F928F929F92AF92BF92CF92C1
:1027D000DF92EF92FF920F931F93CF93DF93CDB7CA
:1027E000DEB72A970FB6F894DEBF0FBECDBF9A832F
:1027F00089836A3061F5DC0155968C91B8E08B9F36
:1028000090011124E981FA8181899289820F931FB5
:10281000928B818B108A178681E090E02A960FB602
:10282000F894DEBF0FBECDBFDF91CF911F910F9106
:10283000FF90EF90DF90CF90BF90AF909F908F90E0
:102840007F906F905F904F903F902F9008956D30E4
:1028500019F329813A813A872987D9011F96AD90CA
:10286000BC90B0E8AB16B1040CF07BC0F901C18894
:10287000D288F0E4CF16D1040CF073C0D90155967C
:102880006C90559745E09501649E200D311D1124F3
:10289000121613060CF065C0262C312C910153E062
:1028A000220F331F5A95E1F72C0D3D1D121613060A
:1028B0000CF057C05496BC91BB83E985FA85F38927
:1028C000FC83649FB00111249B0122553B4F3A8346
:1028D0002983712CE981FA818491F5E07F1201C08E
:1028E00080E0460138E0532E282F30E03E832D83D0
:1028F0004C8080FF4B80411004C03B818C81381795
:10290000E1F010E000E00615C0F4D501A00FB11F02
:10291000B887AF83F12CE12CE61460F4B701680DA1
:10292000791D442D8F8198850E94E312BFEFEB1A29
:10293000FB0AF2CF0F5F1F4FE6CF8D819E819595E9
:1029400087955A94820C931C5110CECF7394E981D1
:10295000FA813196FA83E983A20CB31CF6E07F1268
:10296000B9CFA985BA8555962C915597422F50E03D
:102970001F968D919C91B6E02B9F800D911D112487
:10298000E985FA85908B87872689222309F444CF2D
:102990006AEF64039001659F300D112420583F4F6A
:1029A000281739070CF038CFDF010190F081E02DB6
:1029B0000190F081E02D6AE0CD0109952DCF0F93B4
:1029C0001F93CF93DF938C01D0E0C0E0F801EC0FB0
:1029D000FD1F6491662341F081ED97E00E94DD13B5
:1029E000892B11F02196F2CFCE01DF91CF911F916B
:1029F0000F9108950895089590E080E00895FC01F6
:102A000084818823A9F1611123C0A3A5AE0FBF2F34
:102A1000B11D16968C91853009F413A693A5DF019C
:102A2000A90FB11D16968C91813011F4838306C0D5
:102A30008230E1F38330D1F38430C1F39F5F93A7F9
:102A40008381813049F4828381818150818308951B
:102A50006830B1F71382F4CF823021F48283818110
:102A60008F5FF4CF833029F4828380818F5F8083EE
:102A700008958430E9F7828380818150F8CF6F9286
:102A80007F928F929F92AF92BF92CF92DF92EF92FE
:102A9000FF920F931F93CF93DF93EC018C818823D8
:102AA00009F49CC2288130E08091B80790E0A90128
:102AB0004750510984179507C4F0295F3F4F2817E5
:102AC00039079CF0298130E08091B90790E0A90195
:102AD000475051098417950744F0295F3F4F281745
:102AE00039071CF081E08093BC07C62EAA8021E044
:102AF000A21609F449C08A81823009F032C1698185
:102B000070E0888190E033E008E028E046E954E096
:102B10003C1510F44EE854E00E943C0FAA24A39404
:102B2000F12CE12CB12CA3940B2D10E0712CA016EC
:102B3000110609F00CF4CAC0D980888068E06D0DD8
:102B40006E0D83E0880D801B0E940210982E882352
:102B500009F4B6C06D2D70E0685F7F4F6E0D7F1D6C
:102B6000882D90E0039641E0801B910B0E94E312B8
:102B70006981685F6E0D88818D5F801B0E941A10CD
:102B8000792C0F5F1F4FD3CF698170E0888190E06F
:102B900033E008E028E046EA54E03C1510F44EE942
:102BA00054E00E943C0F99249394F12CE12CD12CF9
:102BB00093940D2D10E0612C9016110691F18CF17B
:102BC0007980B8806FEF670D6E1983E08B0D801BE5
:102BD0000E940210882E8823F1F0872D8150990BD6
:102BE000BC016E197F098B2D90E0039641E0801B9C
:102BF000910B0E94E312698161506E1988818D5F8B
:102C0000801B0E941A10682C0F5F1F4FD5CFDD204C
:102C100079F2D394CDCF611002C0D394F5CF902E2A
:102C2000F3CF9FEFE91AF90A2CE0E216F10479F7E5
:102C3000F12CE12CD12C10C0711002C0D39438C0FB
:102C4000A02E36C09FEFE91AF90A2CE0E216F10433
:102C500009F451CFD110D394A3940D2D10E0712C11
:102C6000A016110679F374F38980B8806FEF680DB0
:102C70006E1984E08B0D800F0E940210982E88231D
:102C8000D9F2882D8150990BBC016E197F098B2DCB
:102C900090E0049641E0800F911F0E94E312698149
:102CA00061506E1988818C5F800F0E941A10792CF8
:102CB0000F5F1F4FD5CFBB2009F435CFB39433CF6F
:102CC000711002C0B3945DCFA02E5BCF8FEFE81AD6
:102CD000F80A9CE0E916F10471F7AA24A394F12CF8
:102CE000E12CB12C02C0B110B394A3940B2D10E0D1
:102CF000712CA016110671F16CF1D980888068E002
:102D00006D0D6E0D84E0880D800F0E940210982ECC
:102D10008823D1F06D2D70E0685F7F4F6E0D7F1DB1
:102D2000882D90E0049641E0800F911F0E94E312ED
:102D30006981685F6E0D88818C5F800F0E941A1018
:102D4000792C0F5F1F4FD5CF711002C0B394F9CF0C
:102D5000A02EF7CF2FEFE21AF20A3CE0E316F104BF
:102D600011F68A81833009F09AC0698170E0888108
:102D700090E023E008E02C15C8F128E046E854E094
:102D80000E943C0FAA24A394F12CE12CB12CA39413
:102D90000B2D10E0712CA0161106B1F1ACF1D98009
:102DA000888063E06D0D601B88E0880D8E0D0E94A9
:102DB0000210982E882311F16D2D70E06D5F7F4F0A
:102DC000601B710B882D90E0089641E08E0D9F1DD1
:102DD0000E94E31269816D5F601B8881885F8E0DA0
:102DE0000E941A10792C0F5F1F4FD5CF28E04EE7B5
:102DF00054E0C6CFBB2059F2B394C9CF711002C0C2
:102E0000B394F1CFA02EEFCF3FEFE31AF30A8CE09B
:102E1000E816F10479F7AA24A394F12CE12CB12C43
:102E200002C0B110B394A3940B2D10E0712CA01626
:102E3000110671F16CF1D980888064E06D0D600F2E
:102E400088E0880D8E0D0E940210982E8823D1F004
:102E50006D2D70E06C5F7F4F600F711F882D90E0CB
:102E6000089641E08E0D9F1D0E94E31269816C5F00
:102E7000600F8881885F8E0D0E941A10792C0F5F79
:102E80001F4FD5CF711002C0B394F9CFA02EF7CF4A
:102E90009FEFE91AF90A2CE0E216F10411F68A8193
:102EA000843009F09BC0698170E0888190E033E054
:102EB00008E028E046E754E03C1510F44EE654E004
:102EC0000E943C0FBB24B394F12CE12CC12CB39491
:102ED0000C2D10E0812CB016110699F194F1D980D7
:102EE000988063E06D0D601B8FEF890D8E190E9435
:102EF0000210A82E8823F9F06D2D70E06D5F7F4FD2
:102F0000601B710B292D2150330BC90141E08E1933
:102F10009F090E94E31269816D5F601B8881815067
:102F20008E190E941A108A2C0F5F1F4FD4CFCC200D
:102F300071F2C394CCCF811002C0C394F5CFB02EF0
:102F4000F3CF3FEFE31AF30A8CE0E816F10479F7C8
:102F5000BB24B394F12CE12CC12C02C0C110C3944A
:102F6000B3940C2D10E0812CB016110679F174F198
:102F7000D980988064E06D0D600F8FEF890D8E19F8
:102F80000E940210A82E8823D9F06D2D70E06C5F8E
:102F90007F4F600F711F292D2150330BC90141E074
:102FA0008E199F090E94E31269816C5F600F88810E
:102FB00081508E190E941A108A2C0F5F1F4FD4CF98
:102FC000811002C0C394F9CFB02EF7CF3FEFE31AC0
:102FD000F30A8CE0E816F10409F0C0CFDF91CF913D
:102FE0001F910F91FF90EF90DF90CF90BF90AF9027
:102FF0009F908F907F906F900895DC0114961C92A3
:1030000014979B961C929B9784E0489FA0011124E3
:10301000E0E96E9F400D511D1124FA01E35CFA4E68
:10302000E491E13019F41496EC931497FA01E25C00
:10303000FA4EE491EE0FEE0FEE0FEC93FA01E15C25
:10304000FA4EE491EE0FEE0FEE0F1196EC931197FE
:10305000405C5A4EFA01449115964C931597F5E24F
:103060004F9FA0011124169690E080E044555F4FD9
:10307000FA01E80FF91FE491ED930196853291056D
:10308000B9F70895FC0101900020E9F73197AF01ED
:10309000481B590BBC0181ED97E00C94CA110C94AC
:1030A00048260E9464261F920F920FB60F92112499
:1030B0008F939F938091E1009091E100937F909393
:1030C000E10083FF0FC01092E90091E09093EB00C4
:1030D0001092EC0092E39093ED001092330298E08E
:1030E0009093F00082FF22C093E09093E9009091CA
:1030F000F200992319F09AE39093E800909124024A
:10310000992341F0909124029150909324029111BF
:1031100001C05D9A90913202992341F09091320260
:10312000915090933202911101C0289A84FF18C0E7
:103130008091E2008E7E81608093E2008091E100C8
:103140008F7E8093E100809125028E7E8061809346
:1031500025029F918F910F900FBE0F901F90189591
:1031600080FFF7CF8091E2008E7E80618093E20045
:103170008091E1008E7E8093E100809125028E7E19
:103180008160E5CF1F920F920FB60F921124CF925C
:10319000DF92EF92FF920F931F932F933F934F93E2
:1031A0005F936F937F938F939F93AF93BF93EF93AF
:1031B000FF93CF93DF93CDB7DEB76C97DEBFCDBF64
:1031C0001092E9008091E80083FF25C068E0CE01FD
:1031D00045960E94BD1182EF8093E8008D8987FF9C
:1031E00039C09091E80090FFFCCF982F907609F0BD
:1031F00034C19E894F89588D2F89F88C911131C027
:10320000803861F5809123028093F1001092F100E3
:103210008EEF8093E8006C960FB6F894DEBF0FBE79
:10322000CDBFDF91CF91FF91EF91BF91AF919F9172
:103230008F917F916F915F914F913F912F911F914E
:103240000F91FF90EF90DF90CF900F900FBE0F90F7
:103250001F9018959EEF9093E800C7CF1092F10051
:10326000D5CF913059F48111D3CF4130510581F63A
:10327000809123028D7F80932302CACF933049F43B
:103280008111C6CF4130510519F680912302826029
:10329000F2CF953041F48091E80080FFFCCF2068A8
:1032A0002093E300B5CF963009F0A9C00B8D1C8D9B
:1032B00022E01092E9001092210210922002F212F4
:1032C0002EC010921F0210921E020E948C111F82AB
:1032D00099E09983FA8291E09E8390EA98879AEF29
:1032E00099872091200230912102275F3F4F3C8334
:1032F0002B838D831092E9001092210210922002FC
:1033000010931F0200931E0249E050E0BE016F5F60
:103310007F4F80E00E9466110E948C1179CF10933C
:103320001F0200931E020E94A310DC0112960D9151
:103330001C910115110509F451C1D801ED91FC91C1
:103340000480F581E02DBE016B5E7F4FC8010995B9
:10335000009709F03EC1F80100851185EACFF3E03E
:10336000FF120EC08F89882309F440C0823061F4B7
:1033700040E867E085EB94E10E943E1B811148CF55
:1033800081E28093EB0047CF813029F440E86BE085
:1033900089EA94E1F1CF833099F70E94A310DC0110
:1033A0001296ED90FC908E010F5F1F4F6801E114A3
:1033B000F10479F0D701ED91FC910680F781E02DC1
:1033C000B801C7010995080F111DF701E084F184C8
:1033D000EECFD8011C92F60101900020E9F7319759
:1033E000BF016C197D0940E0C601C6CF63E974E1F5
:1033F000FB01449150E080E80E94661109CF9730AC
:1034000009F4BECF983021F481E08093F10000CF21
:10341000993009F0FDCE837009F0B2CFEDE0F1E014
:1034200081E031E096E32191222371F08093E9005D
:103430003093EB00DF0111972C912093EC009093D7
:10344000ED008F5F873079F78EE78093EA00109266
:10345000EA008F8980933302DBCE8B8D9C8D109296
:10346000E900109221021092200290931F02809393
:103470001E02898D811192C08E899D89913A49F4ED
:10348000813209F07DCF47E050E064E071E080E0F8
:10349000B3CF913209F074CF833269F48F89988D5C
:1034A000B0E0A0E08093000190930101A09302019D
:1034B000B0930301ADCE803269F48091E80082FFC1
:1034C000FCCF67E084E091E00E94BD118BEF809318
:1034D000E8009ECE823209F09BCE8F8980930B014B
:1034E000EEEFFFE7859194918B3F9C4D51F1E0E029
:1034F000F8E08091040190910501A0910601B0913E
:103500000701803B9440A105B105F1F480910B01C6
:1035100080FD1AC0EE3F8AE0F80789F587E797E754
:1035200091838083809160008093220288E19BE0F8
:103530000FB6F894A895809360000FBE909360003A
:1035400067CEEEEFFAE0D5CF80819181873797473C
:1035500009F05ECEA895809160008861809360003C
:103560008091220280936000EE3F2AE0F20789F00A
:103570008091FE0A9091FF0A9183808349CE8081D9
:1035800091818737980751F29093FF0A8093FE0A42
:10359000C5CF1092FF0A1092FE0A3ACE0E94A310E5
:1035A000DC0112960D911C910115110509F4E8CE6C
:1035B000D801ED91FC910190F081E02DBE016B5E90
:1035C0007F4FC8010995811123CEF801008511852F
:1035D000EBCF181619060CF41BCED2CEF1E0FF1279
:1035E000BECE67E974E104CF1F920F920FB60F921F
:1035F00011242F933F938F939F93AF93BF93809109
:10360000340290913502A0913602B0913702309188
:10361000160223E0230F2D3758F50196A11DB11D89
:10362000209316028093340290933502A0933602C1
:10363000B09337028091170290911802A09119025D
:10364000B0911A020196A11DB11D809317029093AB
:103650001802A0931902B0931A02BF91AF919F91E3
:103660008F913F912F910F900FBE0F901F90189543
:1036700026E8230F0296A11DB11DD2CFEF92FF9233
:103680000F931F93CF93DF93F82E192FE62E042F5D
:1036900081E0860F880F0E94381183E00E94381164
:1036A000CF2DD12FEC0EFD2EF11CCE15DF05B9F07C
:1036B00007FF13C0FE0184910E943811182F80E08B
:1036C0000E943811812321968111EFCFDF91CF9194
:1036D0001F910F91FF90EF9008958881EDCF81E0C9
:1036E000F5CF0F931F93CF93DF938C0181E090E090
:1036F0000E944F1880FF31C08AE090E00E944F186E
:103700009FEF980F9E3F48F522E330E0D801509696
:103710003C932E931F9728E330E052963C932E93D0
:103720005197CBE0D0E0D801ED91FC910190F08170
:10373000E02D682FC8010995CE010E944F182196EF
:10374000C131D10581F70E94390F88EE93E0DF91F6
:10375000CF911F910F910C94D612DF91CF911F91B1
:103760000F91089504970C94711BE8EBF6E0138217
:10377000128288EE93E0A0E0B0E084839583A68374
:10378000B78387E191E0918380838FEF9FEF9587E7
:103790008487E1EDF7E0138212821186128620E120
:1037A000238710861782158689E291E091838083B2
:1037B00087E391E095838483108A1786128A118AA1
:1037C00081E0838B148A858B168AEDECF7E01082FA
:1037D00092E0918312821382EFEBF7E01082118264
:1037E0001282138215823CE336833CE037832087C4
:1037F00028E2218720E722872CE2238728E42487F8
:103800002CE12587E8EBF7E0928311821082138286
:103810001482ECE8F7E08283118210821382E0E6E2
:10382000F7E08283118210821382E4E3F7E082835F
:10383000118210821382E8E0F7E082831182108205
:1038400013820895789484B5826084BD84B58160C4
:1038500084BD85B5826085BD85B5816085BD80915B
:103860006E00816080936E001092810080918100D3
:1038700082608093810080918100816080938100CB
:1038800080918000816080938000809191008260AF
:10389000809391008091910081608093910080914C
:1038A00090008160809390008091C100846080933B
:1038B000C1008091C10082608093C1008091C100ED
:1038C00081608093C1008091C30081608093C300B8
:1038D0008091C00082608093C0008091C2008160AE
:1038E0008093C20080917A00846080937A008091F6
:1038F0007A00826080937A0080917A008160809360
:103900007A0080917A00806880937A001092330266
:1039100010922302109225028091D700816080933B
:10392000D70080EA8093D80089B5806189BD89B5C8
:10393000826089BD09B400FEFDCF61E070E080E0E7
:1039400090E00E941C128091D8008F7C806180934F
:10395000D8008091E000807F8093E0008091E100BA
:103960008E7E8093E1008DE08093E200559A209A4C
:1039700081EC80937C0081E785B987E684B985E393
:103980008BB98FE38AB9769A6E9880EF81BB10BAB3
:1039900080E58CBD81E08DBD85E090E00E94D6126F
:1039A000599902C0599AF8CF5C98EEE5FAE09AE08E
:1039B00085918EBD00000DB407FEFDCF8EB59A95A2
:1039C000B9F75C9A81E88093640081E08093650098
:1039D0000E941D0F0E94DB1287FF16C05C9885EACB
:1039E0008EBD00000DB407FEFDCF8EB55C9A2E98FB
:1039F00058982D988091640080628093640081E0E3
:103A000083BF889513BEFCCF0E94DB1282FF48C0A3
:103A10002D980E94DB1284788438E1F40E94D4123D
:103A200088EC90E00E94D612589882E090E00E94C4
:103A300048268F3F29F06FEF82E090E00E945026E9
:103A400084EF91E00E94D612589A0E94DB1284788B
:103A50008438D9F30E94DB1284718431E1F40E942E
:103A6000D41288EC90E00E94D6122E9882E090E06A
:103A70000E944826882329F060E082E090E00E94BE
:103A8000502684EF91E00E94D6122E9A0E94DB12FB
:103A900084718431D9F388EC90E00E94D612B4CFBF
:103AA0000E94D41282E090E00E944F18882309F40B
:103AB000DCC03E9A579A81E090E00E944F18182F80
:103AC000147081FF0CC011112E98C0EFDFEF0E941F
:103AD000DB1286FFCDC02E9A589A0E94D41282E340
:103AE00090E00E94D6120E94DB128111F8CF80E193
:103AF0008093DC070E940A0F0E94390F0E940A0F70
:103B00000E94390F64E670E080E090E00E941C1291
:103B100076E0572EC1E0D0E0E0E26E2E712CF6E3A5
:103B2000CF2ED12C00E420E848E65AE070E060E0B7
:103B300090E080E00E9401137092E1076092E0073C
:103B4000D092E307C092E20789E391E00E94421815
:103B50005E0120E4A20EB11C8E014E0180E8880EA9
:103B6000911C7E01252D452DB801C7010E94A81387
:103B700098E0E90EF11C8E149F04A1F7085F1F4F17
:103B8000A016B10671F70E94390F62E370E080E081
:103B900090E00E941C1221965A945A94C430D10588
:103BA00009F600E420E848E65AE070E060E090E0C2
:103BB00080E00E94011380E290E09093E1078093FF
:103BC000E00786E390E09093E3078093E20789E3C0
:103BD00091E00E9442180E94390F6CED75E080E080
:103BE00090E00E941C1246E1442E512C5AE2652EB0
:103BF000712CC2E0D0E06CE0262E312C0E943310F4
:103C0000882309F457C68091CD07882309F468C634
:103C100080911D02803110F010921D02F0901C0264
:103C20000E94DB1287FF1FC081E08093BA071091CA
:103C3000B9070091B807112309F447C01150612F4B
:103C4000802F0E940210882371F0612F87E0800F7F
:103C50000E940210882339F01093B9078091BB07A6
:103C60008F5F8093BB071F2D39C03E98579823CF95
:103C7000112329F0C430D10511F42E9A589881E00F
:103C80000E941D0F00E128E54EEA59E0BE0184E1E3
:103C900090E00E943C0F0E94390F8FE090E00E945C
:103CA000D6122196C931D10509F011CF112311F097
:103CB000589A2D9880E991E00E94D6120E94D41261
:103CC00081ED97E00E94711B0ACF88E38093B907CA
:103CD0001CEF1F0D0093BD078093BE070E94DB12EF
:103CE00084FF22C082E08093BA070091B907E09078
:103CF000B807083308F017C238E0D32ED00E6D2D68
:103D00008E2D0E940210882379F06D2D87E08E0D94
:103D10000E940210882341F00F5F0093B907809141
:103D2000BB078F5F8093BB070E94DB1286FF23C017
:103D300083E08093BA07E090B8070091B907E7E7FE
:103D4000EE1508F4F8C128E0D22EDE0C602F8D2D80
:103D50000E940210882379F067E0600F8D2D0E9489
:103D60000210882341F0E394E092B8078091BB07EA
:103D70008F5F8093BB070E94DB120091B90785FF1C
:103D80001DC084E08093BA07E090B807EE2009F4E4
:103D9000DAC1EA94602F8E2D0E940210882371F000
:103DA00067E0600F8E2D0E940210882339F0809109
:103DB000BB07E092B8078F5F8093BB078091BB077A
:103DC000883010F01092BB078091B807123009F0CC
:103DD00012C28053893108F0F7C0083109F0F4C0ED
:103DE0000E94DB1287FFF0C08091BF07823009F08C
:103DF000D1C18091C007823009F0CCC18091C10748
:103E0000823009F0C7C10E940A0F0E94390F62E395
:103E100070E080E090E00E941C1220E241E752E155
:103E200068E270E080E390E00E940113D093E10724
:103E3000C093E007D093E307C093E20784E391E1E6
:103E40000E94DF14D093E107C093E0073092E307AC
:103E50002092E20781E291E10E94DF148091CF0776
:103E600081110EC0D093E107C093E0078EE190E08E
:103E70009093E3078093E2078EE091E10E94DF14C4
:103E80001092C3070E94390F0E94DB1283FD04C009
:103E90000E94DB1282FFF8CF81E08093C3078091FC
:103EA000CF07882309F44DC00E940A0FD093E10781
:103EB000C093E007D093E307C093E2078BEF90E154
:103EC0000E94DF14D093E107C093E0073092E3072C
:103ED0002092E2078AEE90E10E94DF14D093E1077E
:103EE000C093E0075092E3074092E2078BED90E128
:103EF0000E94DF14D093E107C093E00780E290E0D6
:103F00009093E3078093E2078EEC90E10E94DF1428
:103F1000D093E107C093E0077092E3076092E20755
:103F20008DEB90E10E94DF140E94390F0E94DB129A
:103F300083FF12C18091C307811112C181E0809378
:103F4000C3078091C2078130D1F50E940A0FD09338
:103F5000E107C093E0073092E3072092E2078EEA80
:103F600090E10E94DF14D093E107C093E0075092E4
:103F7000E3074092E2078DE990E10E94DF14D093BD
:103F8000E107C093E0077092E3076092E2078DE8D3
:103F900090E10E94DF1408E028E041EC51E168E381
:103FA00070E08CE390E00E943C0F0E94390F0E9469
:103FB000DB1283FFE0C08091C3078111E0C081E084
:103FC0008093D0071092CD0710931C02F116E9F0F0
:103FD00010921D0240E0612F8CE897E00E94FD17CF
:103FE00041E0612F80E697E00E94FD1742E0612FDB
:103FF00084E397E00E94FD1743E0612F88E097E09B
:104000000E94FD17812F0E94DD0F10911D02612F6C
:104010008CE897E00E94FF14612F80E697E00E94F1
:10402000FF14612F84E397E00E94FF14612F88E062
:1040300097E00E94FF148091CD07882309F4B1C353
:1040400080911B028111DBC11092C3070E94DB1219
:1040500083FFCEC181E08093C30720E240E66FE09A
:1040600070E08FE090E00E94A8130E947513E2E1D7
:10407000F0E0F093E107E093E007F093E307E093CB
:10408000E20788EA91E00E9442188091BF078130E0
:1040900051F408E028E041EB51E163E270E08BE18C
:1040A00090E00E9401138091C007813051F408E034
:1040B00028E049EB51E163E270E083E390E00E9485
:1040C00001138091C107813051F408E028E049ECE8
:1040D00051E163E270E08BE490E00E940113809173
:1040E000C207813051F408E028E041EC51E163E27D
:1040F00070E083E690E00E943C0F0E94390F8091AF
:10410000C307882309F4ACC28091C3078823B9F39D
:104110000E94DB1283FDF3CF0E94DB1282FDEFCF02
:104120001092C307ECCF1092B9071C5FE092BD0755
:104130001092BE07F9CD1092B8071F5F1092BD070D
:104140000093BE0718CE88E78093B807115080937C
:10415000BD070093BE0732CE0E94DB1282FDEACE7D
:104160000E94DB1283FDE2CE0E94DB1282FDDECED6
:104170001092C307DBCE0E94DB1282FD1CCF0E948F
:10418000DB1283FD14CF0E94DB1282FD10CF109250
:10419000C3070DCF20E240E66FE070E08FE090E0D3
:1041A0000E94A8130E94751389E190E09093E107A3
:1041B0008093E0075092E3074092E2078FE790E197
:1041C0000E94DF14E7E1F0E0F093E107E093E007FD
:1041D00080E290E09093E3078093E20780E790E12C
:1041E0000E94DF140E94390F68EE73E080E090E0D7
:1041F0000E941C12E9CE11112AC0803309F0E4CECE
:104200000E94DB1285FFE0CE8091BF07813009F06C
:10421000DBCE82E08093BF0720E240E66FE070E0F3
:104220008FE090E00E94A8130E94751389E190E04E
:104230009093E1078093E007EAE1F0E0F093E30771
:10424000E093E20786E491E00E944218CBCF14305D
:1042500009F0CBC4803309F0B7CE0E94DB1285FF92
:10426000B3CE8091C007813009F0AECE82E080935A
:10427000C00720E240E66FE070E08FE090E00E942F
:10428000A8130E94751389E190E09093E107809351
:10429000E007EAE1F0E0F093E307E093E20780E56E
:1042A00091E0D2CF803309F08FCE0E94DB1285FFE0
:1042B0008BCE8091C107813009F086CE82E0809359
:1042C000C10720E240E66FE070E08FE090E00E94DE
:1042D000A8130E94751384E190E09093E107809306
:1042E000E0078AE190E09093E3078093E2078BE593
:1042F00091E0AACF9091C107911166CE2091C90794
:1043000030E090E0A90147505109841795070CF45B
:104310005BCE295F3F4F281739070CF455CE8091AB
:10432000CA0790E0202F30E0AC0147505109241714
:1043300035070CF449CE0796821793070CF444CE48
:1043400081E08093C10740CE9091C20791113CCE8D
:104350002091CB0730E090E0A90147505109841724
:1043600095070CF431CE295F3F4F281739070CF41D
:104370002BCE8091CC0790E0202F30E0AC0147504D
:104380005109241735070CF41FCE0796821793079F
:104390000CF41ACE81E08093C20716CE9091C0072C
:1043A000911112CE2091C70730E090E0A90147504B
:1043B0005109841795070CF407CE295F3F4F281742
:1043C00039070CF401CE8091C80790E0202F30E02F
:1043D000AC0147505109241735070CF4F5CD079669
:1043E000821793070CF4F0CD81E08093C007ECCDE9
:1043F0000E94DB1282FD2ECE81E080931B020E9480
:10440000DB1283FD05C00E94DB1282FF10921B02AB
:104410000E940A0F98E3892E92E0992EF12CE12C4C
:104420005401D12CC12CF5018081813041F408E088
:1044300028E049E651E1B701C6010E943C0FF501B1
:104440008081823041F408E028E041E651E1B70183
:10445000C6010E943C0FF5018081833041F408E0E1
:1044600028E049E551E1B701C6010E943C0FF50182
:104470008081843041F408E028E041E551E1B70152
:10448000C6010E943C0FF5018081853041F408E0AF
:1044900028E049E451E1B701C6010E943C0FF8E071
:1044A000AF0EB11C28E0C20ED11C80E8C816D104A2
:1044B00009F0B9CF98E0E90EF11CEFEF8E1A9E0AD1
:1044C000F0E4EF16F10409F0ABCF8091BA07813028
:1044D00081F48091BB07843060F46091B90770E08B
:1044E0008091B80708E028E049EA51E190E00E9495
:1044F0003C0F8091BA07813081F48091BB078430F2
:1045000060F06091B90770E08091B80708E028E09A
:1045100041EA51E190E00E943C0F8091BA0782305D
:1045200081F48091BB07843060F46091B90770E03A
:104530008091B80708E028E049E951E190E00E9445
:104540003C0F8091BA07823081F48091BB078430A0
:1045500060F06091B90770E08091B80708E028E04A
:1045600041E951E190E00E943C0F8091BA0783300D
:1045700081F48091BB07843060F46091B90770E0EA
:104580008091B80708E028E049E851E190E00E94F6
:104590003C0F8091BA07833081F48091BB0784304F
:1045A00060F06091B90770E08091B80708E028E0FA
:1045B00041E851E190E00E943C0F8091BA078430BD
:1045C00081F48091BB07843060F46091B90770E09A
:1045D0008091B80708E028E049E751E190E00E94A7
:1045E0003C0F8091BA07843081F48091BB078430FE
:1045F00060F06091B90770E08091B80708E028E0AA
:1046000041E751E190E00E943C0F10911D02612FA3
:104610008CE897E00E943F15612F80E697E00E94AA
:104620003F15612F84E397E00E943F15612F88E0DA
:1046300097E00E943F1580911C029091C40794312D
:1046400010F01092C4078230A1F408E120E241E7A3
:1046500052E170E060E080E390E00E9401139CC0B2
:104660000E94DB1283FDC8CE0E94DB1282FF4CCD7C
:10467000C3CE81112FC008E120E141E452E164E1A1
:1046800070E08CE090E00E9401138091BF078230BF
:1046900071F48091C4078A3050F408E028E049E3BF
:1046A00052E16BE070E08AE090E00E94011380919B
:1046B000BF07823009F070C08091C4078A3008F4C7
:1046C0006BC008E028E041E352E16BE070E08AE073
:1046D00090E0C3CF8430F9F408E120E141E052E1F9
:1046E00064E170E08CE090E00E9401138091C007CB
:1046F000823071F48091C4078A3050F408E028E0D9
:1047000049E352E16BE070E08AE090E00E9401131F
:104710008091C007CECF8C3009F0A0C208E120E123
:1047200041ED51E164E170E08CE090E00E94011302
:104730008091C107823071F48091C4078A3050F4AF
:1047400008E028E049E352E16BE070E08AE090E0A5
:104750000E9401138091C107ACCF8091C1078111E4
:104760001BC06091CA0770E08091C90708E028E08B
:1047700049EC51E190E071CF8091C20781110CC0EA
:104780006091CC0770E08091CB0708E028E041EC15
:1047900051E190E00E943C0F8091C4078F5F8093AD
:1047A000C40780911D028F5F80931D028091BC071A
:1047B000882309F47DC01092BC070E94390F10E2D3
:1047C0008FE0E82EF12C00E220E641ED52E16FE0AF
:1047D00070E08FE090E00E940113212F40E6B701C6
:1047E0008FE090E00E94A8130E9433108823E1F329
:1047F0000E94390F22E0E20EF11C1450143019F718
:1048000000E220E641ED52E16FE070E08FE090E0E1
:104810000E9401130E9433108823E1F30E94390F94
:1048200064EF71E080E090E00E941C1210921D0283
:1048300010911C0240E0612F8CE897E00E94FD1768
:1048400041E0612F80E697E00E94FD1742E0612F72
:1048500084E397E00E94FD1743E0612F88E097E032
:104860000E94FD178091CF078823D1F00E940A0F84
:104870008CE190E09093E1078093E0079093E30749
:104880008093E20789E691E00E9442180E94390F66
:1048900068EE73E080E090E00E941C121092CD0759
:1048A0008091BD078093B8078091BE078093B907B8
:1048B0000E94390F80E090E0892B09F49FC90E9483
:1048C00000009CC98091C007811166CF6091C80724
:1048D00070E08091C70708E028E049EB51E14ACF3A
:1048E0008091D0078823A9F00E94DB1287FD0DC0BC
:1048F0000E94DB1284FD09C00E94DB1283FD05C00B
:104900000E94DB1282FF1092D0078091D0078111A4
:10491000D5C00E94DB1284FF0AC08091CE07882395
:1049200031F081508093CE0781E08093D0070E94C0
:10493000DB1287FF0AC08091CE07823030F48F5F90
:104940008093CE0781E08093D0070E94DB1283FF23
:104950002AC08091CE07823051F581E08093CD0747
:104960000E940A0FD093E107C093E007D093E307BA
:10497000C093E20784E791E00E944218D093E107D8
:10498000C093E0075092E3074092E20783E891E08A
:104990000E9442180E94390F6CED75E080E090E0B3
:1049A0000E941C1204C00E94DB1282FDD2CF0E9422
:1049B000DB1283FF0CC08091CE07813061F49091AF
:1049C000CF0798279093CF078093D00704C00E9409
:1049D000DB1282FDF0CF0E94DB1283FF6BC080915F
:1049E000CE0781116BC081E08093D0070E940A0F2F
:1049F000D093E107C093E007D093E307C093E207A9
:104A000084E991E00E944218D093E107C093E00747
:104A10003092E3072092E20780EA91E00E94421878
:104A2000D093E107C093E0075092E3074092E2077A
:104A300082EB91E00E944218D093E107C093E00717
:104A400080E290E09093E3078093E20782EC91E0AC
:104A50000E944218D093E107C093E0077092E307E9
:104A60006092E20781ED91E00E944218D093E10745
:104A7000C093E007E4E3F0E0F093E307E093E2079C
:104A800081EE91E00E9442180E94390F8091D00778
:104A9000882309F49BC08091D0078823B9F30E9432
:104AA000DB1283FDF3CF0E94DB1282FDEFCF109269
:104AB000D007ECCF0E94DB1282FD91CF8091CD0711
:104AC00081114BC00E940A0F00E220E840E75EE03F
:104AD00070E060E090E080E00E9401137092E107D6
:104AE0006092E00786E390E09093E3078093E2070B
:104AF00081EF91E00E9442187092E1076092E00716
:104B0000ECE2F0E0F093E307E093E2078091CF0757
:104B1000882309F467C086EF91E00E9442187092E2
:104B2000E1076092E00782E290E09093E3078093D0
:104B3000E20780E192E00E9442186091CE0726EFE2
:104B40002603B00111246A5C7F4F08E028E048E6A4
:104B50005EE080E290E00E943C0F8091CD078823C8
:104B600009F4A6CE82E080931C0210921D020E94DE
:104B7000DD0F40E062E08CE897E00E94FD1741E025
:104B800062E080E697E00E94FD1742E062E084E385
:104B900097E00E94FD1743E062E088E097E00E9402
:104BA000FD178BE38093B8078093BD0780E2809365
:104BB000B9078093BE071092BF071092C0071092EA
:104BC000C1071092C2071092C40772CE0E94DB1276
:104BD00083FD04C00E94DB1282FF5DCF81E08093E1
:104BE000D0076CCF82E092E098CF1C3009F45ACB0A
:104BF000133009F47FCB173009F4A6CB183009F431
:104C0000CDCB1B3009F0E0C99091BF079111DCC9F1
:104C10002091C50730E090E0A90147505109841761
:104C200095070CF4D1C9295F3F4F281739070CF4B9
:104C3000CBC98091C60790E0202F30E0AC014750EF
:104C40005109241735070CF4BFC90796821793073B
:104C50000CF4BAC981E08093BF07B6C9833009F468
:104C60007CCD873009F488CD883009F42BCE8B3089
:104C700009F092CD8091BF0781118ECD6091C6075A
:104C800070E08091C50708E028E041EB51E172CD6A
:104C9000F999FECF92BD81BDF89A992780B5089504
:104CA000262FF999FECF1FBA92BD81BD20BD0FB648
:104CB000F894FA9AF99A0FBE01960895EE0FFF1F25
:104CC0000590F491E02D099481E090E0F8940C9423
:064CD0006926F894FFCFF5
:104CD600FFFFFFFF00E100000000000000C180812F
:104CE60000000000000000B7104F12D810CD101EB3
:104CF60011DC10FA1000000000DD13CA11FC14FBD1
:104D060014711BFCFF0000B21B4048756E6473747F
:104D16007261737365004C696F6E2046656421008D
:104D26005A65627261204665642100456C6570684B
:104D3600616E742046656421002047616D65204FD1
:104D4600766572002E2E2E497420776173204C6191
:104D56007465002E2E2E416C6C20576173205175A0
:104D660069657400442D5061643A204D6F76650084
:104D7600427574746F6E3A20496E76656E746F7202
:104D860079002D2046696E642074686520466F6F31
:104D960064002D204665656420416E696D616C7303
:104DA600002D204C6561766520746865205A6F6F0A
:104DB600002D2041766F69642057617264656E73B9
:104DC60000496E666F00536B696C6C3A20486172DD
:104DD6006400536B696C6C3A204E6F726D616C00A7
:064DE60053544152540039
:00000001FF
